:100000000C9492020C9479250C94B1020C94B102D8
:100010000C94B1020C94B1020C94B1020C94B10294
:100020000C94B1020C9447250C94B1020C94B102CB
:100030000C94B1020C94A5230C94B1020C94A5234A
:100040000C94B1020C94B1020C94B1020C94B10264
:100050000C94B1020C94B1020C94B1020C94B10254
:100060000C94B1020C94B1020C94B1020C94B10244
:100070000C94B1020C94B1020C94B1020C94B10234
:100080000C94D8230C94B1020C94B1020C94B102DC
:100090000C94B1020C94B1020C94B1020C94B10214
:1000A0000C94B1020C94B1020C94B1020C94B10204
:1000B0000C94B1020C94B1020C94B1020C94B102F4
:1000C0000C94B1020C94B1020C94B1020C94B102E4
:1000D0000C94B1020C94B1020C94B1020C94B102D4
:1000E0000C94B1020C94620C0C94530C0C94230CE1
:1000F0000C94C50B0C94140C0C94050C0C94F30B81
:100100000C94E40B0C94B1020C94B1020C94B10267
:100110000C94B1020C94B1020C94B1020C94B10293
:10012000BE14C414C714CA14CD14D014D614D314D6
:10013000D914DC14DF14E814EB14EE14F114E514F4
:10014000BB14C114F414F714E214B8144F53207400
:1001500069636B2074696D653A20004D6178207782
:10016000616B6575702074696D653A20004E4F2093
:10017000504B540D0A004F4B2020525353493A0024
:100180005258207374617475733A20004E4F4E4577
:100190000D0A004F4B0D0A0054582073746174759A
:1001A000733A200053656C6620546573742043795C
:1001B000636C653A2000545820646F6E6520736943
:1001C000676E616C206572726F720D0A0045525243
:1001D0004F522073657474696E6720626D6163208D
:1001E000726174650D0A004661696C656420746F04
:1001F000207265676973746572207369676E616CDC
:100200000D0A00424D41432054583A20576F6B6508
:10021000207570206F6E2077726F6E67207369672C
:100220006E616C0D0A00424D41432054583A2045FE
:1002300072726F722063616C6C696E67206576659F
:100240006E7420776169740D0A00424D4143204568
:1002500052524F523A206372656174696E6720652D
:100260006E61626C65207369676E616C206661699E
:100270006C65640D0A00424D4143204552524F5275
:100280003A206372656174696E67207478207369BF
:10029000676E616C206661696C65640D0A00424D91
:1002A0004143204552524F523A206372656174694E
:1002B0006E67207278207369676E616C2066616971
:1002C0006C65640D0A00554E4B4F574E00457874CF
:1002D00065726E616C2052657365740042726F774F
:1002E0006E204F75742044657465637400466169BF
:1002F0006C656420746F206372656174652053655A
:100300006D6170686F7265004661696C6564207428
:100310006F20637265617465205369676E616C005C
:100320004B65726E656C2066756E6374696F6E20C6
:100330006E6F7420696D706C656D656E74656400B8
:1003400044657669636520447269766572204572FA
:10035000726F72005761746368646F6720526573CF
:1003600074617274005357205761746368646F67D7
:1003700020526573746172740054696D6572204F08
:10038000766572666C6F7700556E68616E646C6539
:100390006420496E7465727275707420566563745A
:1003A0006F72004C6F7720566F6C74616765004503
:1003B00078747261205461736B2073746172746518
:1003C000642C206973206E726B5F6366672E6820F1
:1003D0006F6B3F0049646C65206F72204B65726ED5
:1003E000656C20537461636B204F766572666C6F29
:1003F0007700556E65787065637465642052657327
:1004000074617274004475706C6963617465642012
:100410005461736B204944005363686564756C656F
:1004200072204D69737365642057616B6575700048
:100430005461736B20526573657276652056696FDF
:100440006C617465640052657365727665204572EF
:10045000726F7220696E205363686564756C657293
:1004600000496E76616C696420537461636B20503F
:100470006F696E746572005461736B2053746163AD
:100480006B204F766572666C6F7700537461636B97
:1004900020776173206E6F7420646566696E656491
:1004A000206173206C6172676520656E6F75676887
:1004B00021005461736B20706572696F6420746FE2
:1004C0006F206C617267652E20506572696F6420C1
:1004D0006D757374206265206C6573732074686138
:1004E0006E203631207365636F6E64732E00293A77
:1004F00020002A4E524B204552524F5228000D0ADE
:10050000535441434B2044554D500D0A0045464736
:1005100065666700202B2D2E303132333435363767
:100520003839680011241FBECFEFD1E4DEBFCDBF44
:1005300013E0A0E0B2E0EAECF3E600E00BBF02C09B
:1005400007900D92AC3BB107D9F718E0ACEBB3E0E4
:1005500001C01D92A437B107E1F70E94E2040C9498
:10056000E3310C948D232F923F924F925F926F92C2
:100570007F928F929F92AF92BF92CF92DF92EF9233
:10058000FF920F931F93DF93CF9300D000D0CDB78E
:10059000DEB7109201050E940A1D00D000D0EDB711
:1005A000FEB7319620E032E0ADB7BEB712963C936D
:1005B0002E931197828313820E94B32F0F900F9076
:1005C0000F900F9002C00E94771C0E94FD068823A6
:1005D000D1F30E942E06C82E0E94D21741E0E42ECD
:1005E000F12C012D112D04C0EE0CFF1C001F111F5A
:1005F000CA94D2F721E030E040E050E029833A830A
:100600004B835C83E114F1040105110521F019828B
:100610001A821B821C82CC24DD24AA24BB248824B9
:100620008A94982C3DE1632E36E0732E23E2422E0D
:1006300022E0522E00D000D000D0EDB7FEB73196A8
:10064000ADB7BEB712967C926E92119791E1292EAA
:1006500092E0392E33822282C48215820E94C52FF5
:100660002DB73EB72A5F3F4F0FB6F8943EBF0FBE7F
:100670002DBF81E090E00E945210D3010D90002028
:10068000E9F7BD01615070406D517640C3010E9491
:100690001606C801B7010E94791829813A814B8159
:1006A0005C81622373238423952361157105810581
:1006B000910529F086EB91E00E94C10C03C031E066
:1006C0003093010581E090E00E943A100E94771C6F
:1006D00084EA91E00E94C10C00D000D0ADB7BEB753
:1006E00012965C924E9211971496DC92CE921397CA
:1006F0000E94B32F0894C11CD11C0F900F900F9033
:100700000F9088E991E00E94C10C80910105813031
:1007100019F483E991E002C08CE891E00E94C10CD9
:1007200080E891E00E94C10C80917F048130E1F467
:1007300080E090E00E943A1086E791E00E94C10CB0
:1007400000D000D0EDB7FEB7528241828091000503
:10075000992787FD9095948383830E94B32F0F90F0
:100760000F900F900F9008C080E090E00E94521010
:100770008DE691E00E94C10C10927F048BE591E020
:100780000E94C10C00D000D0ADB7BEB712965C92EB
:100790004E92119714961C921E9213970E94B32F9B
:1007A0000F900F900F900F900E94771C89E190E0BE
:1007B0000E9425230E9477110E94DA220E946E2255
:1007C0000E948A2380319105DCF30E9476221C016D
:1007D00084E0369427948A95E1F72814390408F4C4
:1007E0004101A214B30408F451018CE491E00E9489
:1007F000C10CEDB7FEB738970FB6F894FEBF0FBE29
:10080000EDBF319628E232E0ADB7BEB712963C9309
:100810002E9311979382828235822482B782A68298
:100820000E94B32F4DB75EB7485F5F4F0FB6F89485
:100830005EBF0FBE4DBF0E9479110E94771CFACE99
:10084000DF92EF92FF920F931F93DF93CF9300D02D
:10085000CDB7DEB70E940A1D00D000D0EDB7FEB7BD
:10086000319625E332E0ADB7BEB712963C932E9396
:100870001197828313820E94B32F0F900F900F90D5
:100880000F9089E10E94A60510927F0485EA95E009
:1008900064E70E94980552E0E52EF12CEC0EFD1E57
:1008A0008E010F5F1F4FDD24D3940E94700582E0FC
:1008B00090E00E945210C801B7010E948A06D092AF
:1008C0007F048A818093000582E090E00E943A10C4
:1008D0000E94A706EACFCF92DF92EF92FF921F937A
:1008E000CF93DF9380E294E09093970680939606EF
:1008F000C1E9D6E0CE016EE075E040E850E00E942C
:10090000EF2582E0888711E01F8319871A8761E04D
:10091000C62ED12CE12CF12CCB86DC86ED86FE8612
:100920001F86188A198A1A8ACB8ADC8AED8AFE8A7F
:1009300080E095E6ADECBDE18F8B988FA98FBA8FE3
:100940001B8E1C8E1D8E1E8E1F8E18A219A21AA21F
:10095000CE010E94C31A83EB92E09093BA06809373
:10096000B906C4EBD6E0CE0160E874E040E850E0A0
:100970000E94EF2589E188871F8319871A87CB8614
:10098000DC86ED86FE861F86188A198A1A8A1B8ADB
:100990001C8A1D8A1E8A1F8A188E198E1A8E1B8E1B
:1009A0001C8E1D8E1E8E1F8E18A219A21AA2CE0199
:1009B0000E94C31ADF91CF911F91FF90EF90DF90BB
:1009C000CF9008950E94E10C80E190E00E94A51074
:1009D0000E947E1180E090E00E943A1081E090E059
:1009E0000E943A1082E090E00E943A1083E090E08A
:1009F0000E943A1060E070E0CB0120E030E0A901F5
:100A00000E947B1E0E947A080E946B040E9445127D
:100A100080E090E008950895643021F40E947D0CF8
:100A200081E008958FEF08958FEF089580E090E0C2
:100A300008950E942C0981E008950E94260981E012
:100A400008950E94200981E008950E941A0981E01A
:100A500008950E94320981E0089590938F05809354
:100A60008E0581E008950E947B0C0895603121F489
:100A70000E947E0C81E008958FEF089581E0089533
:100A800081E00895803220F40E94100981E00895E9
:100A90008FEF089580935F040895992787FD9095BF
:100AA0000E94710C81E00895DF93CF930F92CDB730
:100AB000DEB78B3180F480937A0489830E94FA0830
:100AC00088ED96E069814FEF5FEF20E030E00E9413
:100AD0004D0981E001C08FEF0F90CF91DF91089514
:100AE00080917604882301F18091A4050E94D21799
:100AF00061E070E080E090E00090A40504C0660F23
:100B0000771F881F991F0A94D2F70E9479180090C6
:100B1000A40504C096958795779567950A94D2F7B2
:100B200060FD04C08FEF089581E0089581E008958D
:100B3000009751F09093DE068093DD066093DC060B
:100B400081E08093760408958FEF08950F931F93AB
:100B5000082F109277048FEF8093790411E010939F
:100B60005F0410926A0410926B0410926C0410924D
:100B70006D0410926004109261041092620410924D
:100B8000630420E031EE45EF55E020936404309398
:100B9000650440936604509367040E94C9168093CD
:100BA000A4058F3F19F48EE992E008C00E94C9168F
:100BB000809362078F3F71F486E792E00E94C10C38
:100BC000E0911906F0911A068EE060850E94511599
:100BD0008FEF29C00E94C91680930D058F3F19F42D
:100BE0008AE492E0EBCF109269041092760410929E
:100BF000DE061092DD061092DC060E94FA0888EDEF
:100C000096E0602F4FEF5FEF20E030E00E944D094B
:100C100000937A0480E090E00E94710C10937704B6
:100C20001093780481E01F910F9108952091690439
:100C3000213059F021E0209369049093920580932C
:100C400091056093900581E008958FEF089580915C
:100C5000A4050E94D2178091A4050895809162078F
:100C60000E94D217809162070895EF92FF920F932E
:100C70001F93DF93CF930F92CDB7DEB77C018091A6
:100C800069048130F1F18091620769830E94D21773
:100C900081E080936904F0929205E0929105698168
:100CA0006093900561E070E080E090E00090620762
:100CB00004C0660F771F881F991F0A94D2F70E94FD
:100CC00079187B018C01611571058105910521F46D
:100CD00086E292E00E94C10C0090620704C0169563
:100CE0000795F794E7940A94D2F7E0FC04C083E0F8
:100CF00092E00E94C10C80916804882311F081E089
:100D000001C08FEF0F90CF91DF911F910F91FF9056
:100D1000EF900895FC01DB0180917604882329F08F
:100D200010821C9220E030E00AC08091DB068083B4
:100D30008091E0068C932091DD063091DE06C9019A
:100D4000089581E090917604911180E0089581E00A
:100D5000809376040895109278040E94D60808952E
:100D600081E0809378040E94FA0880910D050E942A
:100D700006180895DF93CF93CDB7DEB728970FB647
:100D8000F894DEBF0FBECDBF29833A834B835C83CB
:100D90006D837E838F83988729813A814B815C8123
:100DA0008D819E81AF81B8852115310541055105A1
:100DB00041F480306DE2960761E3A60761E0B60773
:100DC00090F0209360043093610440936204509348
:100DD00063048093640490936504A0936604B093C5
:100DE000670481E001C08FEF28960FB6F894DEBF4C
:100DF0000FBECDBFCF91DF91089580917704089504
:100E00000F931F930E94C3090E94030B082F0E9497
:100E1000030B182F0E94030B100F180F0E94CB0911
:100E2000812F11160CF481E01F910F9108950E94FB
:100E3000C30910926E0410926F0410927004109205
:100E4000710480E49BE4ACE4B0E0682F809372040A
:100E500090937304A0937404B093750420E03091D0
:100E60006F044091700450917104709173048091EB
:100E70007404909175040E94591B0E94360B8130B6
:100E8000F9F080916A0490916B04A0916C04B09188
:100E90006D048F3F2FEF920720E0A20720E0B207FA
:100EA00058F40196A11DB11D80936A0490936B04C0
:100EB000A0936C04B0936D040E94CB0980E0089568
:100EC000109276040E94CB0981E0089580916A0413
:100ED00090916B04089510926A0410926B04109222
:100EE0006C0410926D0481E00895982F823050F0C8
:100EF000883008F096E081E020E0880F2F5F291706
:100F0000E0F3089581E00895EF92FF920F931F930D
:100F1000CF93DF9380915F04882309F447C080E674
:100F200094E00E948C1EEC010E94182F6AE070E091
:100F30000E945E2EBC016F5F7F4FCE010E944A2E41
:100F4000CB010E94D81BFF24F3940AE010E00E941A
:100F50000007E82E813051F10E94182FEC018F2DEF
:100F60000E947507682F70E0CE010E945E2E90E00F
:100F70000E94441C80E694E00E948C1EEC010E94BA
:100F8000182FB8010E945E2EBC016F5F7F4FCE010B
:100F90000E944A2ECB010E94D81BEE2039F4F39414
:100FA0008F2D8730A0F286E0F82ED1CF10929305D6
:100FB00010929405209160043091610488EE93E0D2
:100FC000289FE001299FD00D389FD00D11246091FA
:100FD000640470916504809166049091670420E434
:100FE00032E44FE050E00E94712EC20FD31F0E94E6
:100FF000C3098EE895E0BE010E94D1098093680480
:101000000E94CB0910926904809162070E94061821
:1010100081E0DF91CF911F910F91FF90EF900895A4
:10102000EF92FF920F931F9302C00E94771C809152
:1010300077048823D1F380910D050E94D2178F3F4A
:1010400021F487EE91E00E94C10C91E0E92EF12C91
:10105000012D112D0E94FA0880917804882369F1EE
:1010600080917604813041F40E940007882341F486
:101070000E941707813021F48091A4050E94061870
:1010800080916904813011F40E9484070E94CB0989
:101090000E94D6082091600430916104409162045E
:1010A00050916304609164047091650480916604BA
:1010B000909167040E94591BCDCF80910D050E942D
:1010C000D217C801B70100900D0504C0660F771F45
:1010D000881F991F0A94D2F70E94791800900D0575
:1010E00004C096958795779567950A94D2F760FF27
:1010F000E4CFB0CFCF93DF93CCEBD3E0CE0160E170
:1011000078E00E94EB25CE016FED73E040E850E0FF
:101110000E94EF2584E18093C40381E08093C303A0
:101120008093C5038093C6031092C7031092C8032F
:101130001092C9031092CA0380E09DE2A1E3B1E0DE
:101140008093CB039093CC03A093CD03B093CE03B5
:101150001092CF031092D0031092D1031092D203B9
:101160001092D3031092D4031092D5031092D60399
:101170001092D7031092D8031092D9031092DA0379
:101180001092DB031092DC031092DD031092DE0359
:10119000CE010E94C31ADF91CF9108959091410131
:1011A0009F719F31D9F3809342010895809141014D
:1011B0008F718F31D9F3809141018F71D1F08F30D0
:1011C000C1F0809141018F71883041F088E00E9428
:1011D000CE08809141018F718830D9F78091390113
:1011E000826080933901809141018F7111F08F30BD
:1011F000D1F70895809141018F718F31D9F380919A
:1012000041018F7111F08F3051F4809139018D7F40
:1012100080933901809141018F718830D9F7089509
:10122000E5E4F1E09081907F908390818F70892B2D
:1012300080830895E7E5F1E080818D7F80830895C4
:10124000E7E5F1E08081826080830895EEE6F1E0D9
:1012500080818F7E80830895EEE6F1E08081806159
:101260008083089580936001909361019093770744
:101270008093760708959093710780937007E8E450
:10128000F1E08081807E80838081682B6083089577
:1012900090937C0480937B0408951F9370E2709375
:1012A000440170EC7093450160626093480165EC05
:1012B0006093490167EA60934B0160E860934C01D9
:1012C0002093600130936101409362015093630168
:1012D000E6E4F1E01081A08160817081129516959D
:1012E00017701295110F110F107C7295769573700F
:1012F000172BA295A695A770B0E0A370B07074E00C
:10130000AA0FBB1F7A95E1F71A2B62956695677055
:1013100070E063707070660F771F660F771F162B73
:1013200010936D016081E081E295E695E370E064E1
:1013300062956695677070E063707070660F771FD6
:10134000E62BE0936E0110926C016FEF60934E01FB
:101350009093710780937007109272071092730731
:10136000509375074093740730937707209376075F
:101370001092780781E08093820710929107109273
:1013800081071F91089586E10E94CE08089586E1A5
:101390000E94CE08089588E00E94CE08109291071E
:1013A00008952F923F924F925F927F928F929F92D9
:1013B000AF92BF92CF92DF92EF92FF920F931F9363
:1013C000CF93DF93EC011B0180918207882309F4FE
:1013D00001C18E81909172079F5F90937207E1E83F
:1013E000F1E081708295880F807281648093810121
:1013F00088E8818380917207828390916301809154
:101400006201392F20E090E0822B932B9483838319
:101410008881998196838583909161018091600193
:10142000392F20E090E0822B932B908787834A818D
:10143000242F332727FD30956B817C818AE891E04A
:10144000532F0E94332F8A81855F80938001709093
:1014500041018FE17822872D81508230C0F3872DA2
:101460008131A9F3823199F38F3189F3883039F0D2
:10147000863029F0863119F0893009F0ABC086E159
:101480000E94CE088D81882369F080914801806890
:10149000809348018091410187FFFCCF80914101F9
:1014A00086FF98C089E00E94CE088E81882319F0BB
:1014B00089E10E94CE0821143104A9F189E797E05F
:1014C0000E94101D8091790790917A07A0917B0767
:1014D000B0917C078093830790938407A09385073E
:1014E000B0938607B10180E090E020E432E44FE061
:1014F00050E00E942B2E20917D0730917E07409175
:101500007F0750918007620F731F841F951F6093A0
:101510008707709388078093890790938A0783E8E9
:1015200097E00E94FD1D1092810782E00E94CE0884
:101530004424552408C00894411C511C88EE4816C8
:101540008DEF580621F0809181078823A1F32114A3
:10155000310459F189E797E00E94101D82E997E074
:1015600000918307109184072091850730918607A9
:1015700040918707509188076091890770918A0789
:101580008090790790907A07A0907B07B0907C07B5
:10159000C0907D07D0907E07E0907F07F090800795
:1015A0000E946E1D8F3F09F0BECF8E81882331F0DF
:1015B0008091420182958695877029F488EE4816BD
:1015C0008DEF580611F41FEF01C011E0872D0E9426
:1015D000CE0801C01FEF812FDF91CF911F910F9196
:1015E000FF90EF90DF90CF90BF90AF909F908F9043
:1015F0007F905F904F903F902F90089560E070E053
:101600000E94D10908950F931F9380918207882328
:1016100049F1109141011F71812F81508230C8F32F
:101620001131B9F31231A9F31F3199F3183021F0B8
:10163000163011F01631B1F486E10E94CE08809187
:1016400048018068809348018091410187FFFCCF69
:1016500000914101812F0E94CE0881E006FD03C068
:1016600080E001C08FEF1F910F9108958091820754
:10167000882309F484C080919107882309F481C0EC
:1016800080917B01E0917007F091710790E00297E3
:101690002481332727FD3095281739070CF473C0B0
:1016A000E0917007F0917107809182018083E09151
:1016B0007007F09171078091870190918801928362
:1016C0008183E0917007F091710780917B018B50CD
:1016D0008383A0917007B0917107E0917007F0913A
:1016E000710713969C911397848189173CF0E091C0
:1016F0007007F0917107838187FF0DC010929107E9
:1017000080914C018F7780934C0180914C018068CF
:1017100080934C0134C0E0917007F0917107A09163
:101720007007B091710713964C91242F332727FD32
:1017300030958581968169E871E0532F0E94332F9F
:10174000E0917007F09171078091800182958695F4
:1017500081708783E0917007F09171078091470154
:1017600080871092910780914C018F7780934C0174
:1017700080914C01806880934C0181E008958FEF47
:10178000089580E008958FEF08951F920F920FB68D
:101790000F9211248F939F9380E001C08F5F9091EF
:1017A0007B018917D8F38091460187FF03C081E050
:1017B0008093910788E080934F019F918F910F90C4
:1017C0000FBE0F901F9018951F920F920FB60F9299
:1017D00011248F9380E880934F018F910F900FBE5B
:1017E0000F901F9018951F920F920FB60F92112411
:1017F0008F9381E08093810780E480934F018F91E4
:101800000F900FBE0F901F9018951F920F920FB65A
:101810000F9211248F9380E280934F018F910F904C
:101820000FBE0F901F9018951F920F920FB60F9238
:1018300011248F9380E180934F018F910F900FBE01
:101840000F901F9018951F920F920FB60F920BB624
:101850000F9211242F933F934F935F936F937F9336
:101860008F939F93AF93BF93EF93FF9384E0809305
:101870004F01E0917B04F0917C04309709F00995C9
:10188000FF91EF91BF91AF919F918F917F916F9158
:101890005F914F913F912F910F900BBE0F900FBE14
:1018A0000F901F9018951F920F920FB60F92112450
:1018B0008F9382E080934F018F910F900FBE0F9016
:1018C0001F9018951F920F920FB60F9211248F93AD
:1018D00081E080934F018F910F900FBE0F901F906A
:1018E0001895E9E4F1E09081907F908390818F706A
:1018F000892B808308958FEF0895089508950895A2
:101900008FEF089580916C0790916D07089580E0A6
:101910000895089581E0089581E0089581E0089593
:1019200008950895089508950895089508950895CF
:101930008091C00087FFFCCF8091C0008F7780939B
:10194000C0008091C60008959091C00095FFFCCF23
:101950009091C0009F7D9093C0008093C600089531
:101960008FEF0895813019F48091C80004C0882356
:1019700031F48091C000881F8827881F089580E077
:101980000895CF93DF93EC0107C060916C087091CC
:101990006D0890E00E94872FFE0121968491882394
:1019A000A1F7DF91CF91089586E084B985B988EFDA
:1019B0008AB980EF8BB982E08EB980E681B9169A38
:1019C00008950E94D40C08958F3F09F471C0282F08
:1019D00030E0277030702230310589F12330310535
:1019E00044F42115310589F02130310509F062C038
:1019F0001AC02430310509F43FC02430310574F198
:101A00002530310509F056C045C092B186958695BE
:101A1000869541E050E002C0440F551F8A95E2F7D9
:101A2000942B92B919C095B186958695869502C07A
:101A3000220F331F8A95E2F7922B95B90DC098B10A
:101A400086958695869541E050E002C0440F551F6B
:101A50008A95E2F7942B98B981E008959BB1869519
:101A60008695869541E050E002C0440F551F8A9547
:101A7000E2F7942B9BB9F0CF9EB18695869586951B
:101A800041E050E002C0440F551F8A95E2F7942BC5
:101A90009EB9E2CF91B386958695869541E050E058
:101AA00002C0440F551F8A95E2F7942B91BBD4CF07
:101AB0008FEF08958FEF08958F3F09F477C0282F97
:101AC00030E0277030702230310599F12330310534
:101AD00044F42115310589F02130310509F068C041
:101AE0001BC02430310509F443C0243031058CF18A
:101AF0002530310509F05CC04AC092B186958695C3
:101B0000869541E050E002C0440F551F8A95E2F7E8
:101B10004095492342B91BC095B186958695869517
:101B200002C0220F331F8A95E2F72095292325B999
:101B30000EC098B186958695869541E050E002C02A
:101B4000440F551F8A95E2F74095492348B981E033
:101B500008959BB186958695869541E050E002C038
:101B6000440F551F8A95E2F7409549234BB9EFCFB3
:101B70009EB186958695869541E050E002C0440F5F
:101B8000551F8A95E2F7409549234EB9E0CF91B3AE
:101B900086958695869541E050E002C0440F551F1A
:101BA0008A95E2F74095492341BBD1CF8FEF089545
:101BB0008FEF08958F3F89F1282F30E02770307024
:101BC00022303105C1F0233031053CF421153105B7
:101BD00071F02130310509F50CC02430310579F060
:101BE0002430310554F025303105B9F40AC020B154
:101BF00009C023B107C026B105C029B103C02CB16B
:101C000001C02FB130E086958695869502C0359546
:101C100027958A95E2F7217001C02FEF822F089552
:101C20008F3F09F4FAC0282F30E02770307022303F
:101C3000310509F459C02330310544F4211531052B
:101C400091F02130310509F0EAC033C0243031056C
:101C500009F497C0243031050CF46CC025303105EF
:101C600009F0DDC0B4C090B1869586958695282F81
:101C7000892F90E0022E02C0959587950A94E2F78D
:101C800080FD0BC032B181E090E002C0880F991F47
:101C90002A95E2F7382B32B966C032B181E090E084
:101CA00002C0880F991F2A95E2F78095832382B995
:101CB0005AC043B186958695869550E0082E02C09D
:101CC000559547950A94E2F702C0220F331F8A9573
:101CD000E2F740FD04C085B1822B85B944C085B1CF
:101CE0002095282325B93FC096B18695869586957F
:101CF000282F892F90E0022E02C0959587950A948F
:101D0000E2F780FD0BC038B181E090E002C0880F9F
:101D1000991F2A95E2F7382B38B925C038B181E0F0
:101D200090E002C0880F991F2A95E2F780958323DF
:101D300088B919C099B1869586958695282F892FDF
:101D400090E0022E02C0959587950A94E2F780FDF7
:101D50000CC03BB181E090E002C0880F991F2A952A
:101D6000E2F7382B3BB981E008953BB181E090E088
:101D700002C0880F991F2A95E2F7809583238BB9BB
:101D8000F2CF9CB1869586958695282F892F90E075
:101D9000022E02C0959587950A94E2F780FD0BC04C
:101DA0003EB181E090E002C0880F991F2A95E2F7CA
:101DB000382B3EB9D8CF3EB181E090E002C0880F09
:101DC000991F2A95E2F7809583238EB9CCCF9FB1D6
:101DD000869586958695282F892F90E0022E02C041
:101DE000959587950A94E2F780FD0BC031B381E0A9
:101DF00090E002C0880F991F2A95E2F7382B31BB7B
:101E0000B2CF31B381E090E002C0880F991F2A95CC
:101E1000E2F78095832381BBA6CF8FEF08958FEFE4
:101E200008958F3F09F401C1282F30E0662309F09F
:101E30008DC02770307022303105E1F1233031053B
:101E400044F42115310591F02130310509F0EDC040
:101E500020C02430310509F453C0243031050CF47E
:101E60003CC02530310509F0E0C05DC091B18695D8
:101E70008695869541E050E002C0440F551F8A9533
:101E8000E2F7842F8095892381B982B1842B82B9AE
:101E9000CAC094B186958695869502C0220F331FDD
:101EA0008A95E2F7822F8095892384B985B1822BA8
:101EB00085B9B9C097B186958695869541E050E081
:101EC00002C0440F551F8A95E2F7842F809589231D
:101ED00087B988B1842B88B9A6C09AB186958695B2
:101EE000869541E050E002C0440F551F8A95E2F705
:101EF000842F809589238AB98BB1842B8BB993C0A9
:101F00009DB186958695869541E050E002C0440FCC
:101F1000551F8A95E2F7842F809589238DB98EB15C
:101F2000842B8EB980C090B386958695869541E0C6
:101F300050E002C0440F551F8A95E2F7842F809528
:101F4000892380BB81B3842B81BB6DC02770307027
:101F50002230310589F12330310544F42115310552
:101F600089F02130310509F062C01AC024303105F2
:101F700009F43EC0243031056CF12530310509F0FB
:101F800056C044C091B186958695869541E050E053
:101F900002C0440F551F8A95E2F7942B91B943C0B4
:101FA00094B186958695869502C0220F331F8A9537
:101FB000E2F7922B94B937C097B1869586958695AE
:101FC00041E050E002C0440F551F8A95E2F7942B80
:101FD00097B929C09AB186958695869541E050E0DB
:101FE00002C0440F551F8A95E2F7942B9AB91BC083
:101FF0009DB186958695869541E050E002C0440FDC
:10200000551F8A95E2F7942B9DB90DC090B3869524
:102010008695869541E050E002C0440F551F8A9591
:10202000E2F7942B90BB81E008958FEF08958FEF36
:102030000895882329F481E0019B03C080E008957E
:102040008FEF0895009711F483E20EC0813091055F
:1020500011F48BE209C08230910511F483E304C0CE
:102060008330910529F48BE30E94100E81E00895DE
:102070008FEF0895009711F483E20EC0813091052F
:1020800011F48BE209C08230910511F483E304C09E
:102090008330910529F48BE30E94E40C81E00895DC
:1020A0008FEF0895009711F483E20EC081309105FF
:1020B00011F48BE209C08230910511F483E304C06E
:1020C0008330910529F48BE30E945C0D81E0089533
:1020D0008FEF0895882319F085B78F7E02C085B7EA
:1020E000806185BF81E008959091C80095FFFCCF85
:1020F0008093CE0008959093C5008093C40086E03D
:102100008093C200E1ECF0E080818B7F8083A0ECC3
:10211000B0E08C9182608C93808188618083089587
:102120009093CD008093CC0086E08093CA00E9ECC8
:10213000F0E080818B7F8083A8ECB0E08C9182609E
:102140008C9380818861808308950F931F93CF9330
:10215000DF930E947B10C4EADCE008E91CE0CE01BA
:10216000B8010E943C2F90936D0880936C08CE01BB
:10217000B8010E943C2F90936B0880936A08DF910E
:10218000CF911F910F9108958091C80087FFFCCFD8
:102190008091C8008F778093C8008091CE00089509
:1021A00000000000000000000197D1F708950E9490
:1021B000533008950E945B300895EF92FF920F9381
:1021C0001F93CF93DF93E82EE7017E01F92EE701FD
:1021D00080E090E00E945330082F8B8381E090E0F4
:1021E0000E945330E82E8A8382E090E00E945330B0
:1021F000F82E898383E090E00E945330182F888363
:1022000084E090E00E945330FE0CF00EF10E8F152A
:1022100011F481E001C08FEFDF91CF911F910F91F9
:10222000FF90EF900895CF93DF93EC0185E090E06D
:102230000E945330888381E0DF91CF910895FC01A3
:1022400086E090E060810E945B3081E00895CF934A
:10225000DF93EC0186E090E00E945330888381E0B8
:10226000DF91CF9108950F931F93CF93DF93082FA2
:10227000192FC8E0D0E0CE010E945330F8018193BD
:102280008F012196C831D105B1F781E0DF91CF915F
:102290001F910F9108950F931F93CF93DF93082FF2
:1022A000192FC8E0D0E0F80161918F01CE010E94A2
:1022B0005B302196C831D105B1F781E0DF91CF9134
:1022C0001F910F910895CF93DF93EC0187E090E089
:1022D0000E945330888381E0DF91CF910895FC0103
:1022E00087E090E060810E945B3081E00895F8947F
:1022F0000895789408950E947711FFCF0F931F934C
:10230000DF93CF93CDB7DEB7A3970FB6F894DEBFB8
:102310000FBECDBF0E94C916809309058F3F21F4DF
:102320008EE060E00E9451150E94142480FF04C0DA
:1023300086E060E00E9451150E94CA258F3F31F46B
:102340000E94AB2580E160E00E9451150E94BA25F1
:1023500010920C0510921A061092190610920B0595
:1023600010920A051092D7061092A3058FEF809362
:102370000205809304058093030593E69093A407D8
:102380008093A2079093C5078093C3079093E607B5
:102390008093E4079093070880930508909328089A
:1023A00080932608E6E4F8E020E030E001C09A01DE
:1023B000A9014F5F5F4FCA01880F991F880F991FAE
:1023C000840F951F8D5B974F91838083C901880F80
:1023D000991F880F991F820F931F8D5B974F9483CE
:1023E000838335964530510511F7109245081092B8
:1023F00044081092600810925F081092960510929F
:10240000950583E498E090937E0480937D048E018B
:102410000F5F1F4FC8016BED7FE10E94EB25C801E4
:1024200062EE76E040E850E00E94EF2585E580937B
:10243000E20619861C861D861E861F86188A198A42
:102440001A8A1B8A1C8A1D8A1E8A1F8A188E198E58
:102450001A8E1B8E1C8E1D8E1E8E1F8E18A219A208
:102460001AA21BA281E0888792E09A878B87C80115
:102470000E94C31AA3960FB6F894DEBF0FBECDBF5D
:10248000CF91DF911F910F910895CF92DF92FF922C
:102490000F931F93DF93CF9300D0CDB7DEB7B2EA8F
:1024A000CB2EB7E0DB2E90E0F601F080FF2DFF3F52
:1024B000B1F002EA17E020E0921761F0F8018081A4
:1024C000F81641F485E06F2D29839A830E945115F7
:1024D0009A8129812F5F0F5D1F4F253069F79F5F1C
:1024E00021E230E0C20ED31E9530F1F60E94B11900
:1024F000992787FD9095FC01A5E0EE0FFF1FAA9597
:10250000E1F7E80FF91FE656F84F82858093D7066A
:10251000F0931A06E0931906F0930B05E0930A0571
:1025200080930C050E944F260E9439260E94542653
:10253000FFCFEF92FF920F931F93CF93DF93EC01A6
:102540007B018A018985823021F08091410888834E
:1025500001C0188280914108853020F087E060E05A
:102560000E9451158985823029F0809141088F5F42
:102570008093410880914108882319F481E0809379
:1025800041088881992787FD9095FC01A5E0EE0F11
:10259000FF1FAA95E1F7E80FF91FE656F84FF18201
:1025A000E082888582878881992787FD9095FC0144
:1025B00075E0EE0FFF1F7A95E1F7E80FF91FE65679
:1025C000F84F83E081872881822F992787FD909596
:1025D000FC0165E0EE0FFF1F6A95E1F7E80FF91FB8
:1025E000E656F84F20878881992787FD90957C01D2
:1025F00055E0EE0CFF1C5A95E1F7E80EF91E8AE94A
:1026000097E0E80EF91EF7011582CE010B960E94A5
:102610008C1EF701948F838F8B859C85AD85BE853D
:102620008E339105A105B10520F086E168810E94F5
:102630005115E880FF24E7FCF094CE014B960E94F0
:102640008C1EF70145E0EE0FFF1F4A95E1F7EE0DF6
:10265000FF1DE656F84F968B858B8881992787FD5D
:1026600090957C0135E0EE0CFF1C3A95E1F7E80E01
:10267000F91E8AE997E0E80EF91EF7018589968927
:10268000238D348D820F931F908F878BCE014396BD
:102690000E948C1EF701968F858F8881992787FD70
:1026A0009095FC0125E0EE0FFF1F2A95E1F7E80F5A
:1026B000F91FE656F84F858D968D928F818F81E0B8
:1026C00090E090A3878F1383028381E08487DF915A
:1026D000CF911F910F91FF90EF9008950E94F61FE8
:1026E000089585E690E00895E0911906F0911A06A4
:1026F00084870895E0911906F0911A06848508955B
:102700002091E106222341F0FB012083209108055E
:10271000FC01208381E0089580E00895DF93CF934A
:102720000F92CDB7DEB7198207C080ED97E00E9407
:10273000422289818F5F898389818436B0F30F902B
:10274000CF91DF91089581E090E00E9452100E94A5
:102750008E1381E090E00E943A100E948E1308953B
:1027600081E090E00E9452100E948E130E948E130E
:102770000E948E1381E090E00E943A100E948E1316
:102780000895FF920F931F93DF93CF9300D00F9282
:10279000CDB7DEB700D000D000D0EDB7FEB7319690
:1027A0008E010F5F1F4FADB7BEB712961C930E93ED
:1027B000119720E632E033832283848315820E94BE
:1027C000C52FEDB7FEB736960FB6F894FEBF0FBE15
:1027D000EDBFFF2472C0800F911FDC018C91843308
:1027E000D1F1853370F48133F9F0823320F48033F2
:1027F00009F05CC016C0823311F1833309F056C072
:1028000023C08733C9F1883330F4853369F18633C7
:1028100009F04CC02CC08833B1F1893309F046C0AF
:102820003BC00E94B01302C00E94A3130E94B013C9
:102830000E94B0130E94B0130E94B01337C00E94D0
:10284000A3130E94A313F4CF0E94A3130E94A31307
:102850000E94A313EFCF0E94A3130E94A3130E9410
:10286000A3130E94A313E8CF0E94A31302C00E94E7
:10287000B0130E94A31304C00E94B0130E94B013AF
:102880000E94A31306C00E94B0130E94B0130E94BE
:10289000B0130E94A31308C00E94B0130E94B0138B
:1028A0000E94B0130E94B0130E94A3130E948E13C3
:1028B0000E948E130E948E13F394F8010190002061
:1028C000E9F73197E01BF10B8F2D90E08E179F07F2
:1028D00008F481CF0F900F900F90CF91DF911F914F
:1028E0000F91FF9008950F931F938091E106882325
:1028F00019F41F910F9108950E9477110E94AB2542
:102900000E94771182EF94E00E94C10C00D000D0A9
:10291000EDB7FEB7319680E692E0ADB7BEB712963E
:102920009C938E93119780910805828313820E9455
:10293000B32F0F900F900F900F908EEE94E00E94A7
:10294000C10C8091E106883110F01092E10680916F
:10295000E10690E001978631910508F04BC0805761
:102960009F4FFC01EE0FFF1F0590F491E02D09949D
:1029700082EB94E041C08BE894E03EC087E794E0AE
:102980003BC081E694E038C086E494E035C080E343
:1029900094E032C088E194E02FC085E094E02CC040
:1029A00082EF93E029C084ED93E026C08FEA93E0A4
:1029B00023C083EA93E020C088E893E01DC089E744
:1029C00093E01AC085E693E017C084E593E014C055
:1029D00080E493E011C080E293E00EC088E093E0D1
:1029E0000BC08DEE92E008C08CED92E005C08DEC3E
:1029F00092E002C086EC92E00E94C10C60916C08EB
:102A000070916D088DE090E00E94872F60916C08B6
:102A100070916D088AE090E00E94872F10E01FC03F
:102A200082E090E00E94521083E090E00E943A1011
:102A300004E688EE93E00E9442220150D1F783E041
:102A400090E00E94521082E090E00E943A1004E66A
:102A500088EE93E00E9442220150D1F71F5F1431AB
:102A6000FCF283E090E00E943A1082E090E00E9445
:102A70003A10809108050E94C1130E948E1382E0D3
:102A800090E00E9452100E948E1382E090E00E941B
:102A90003A100E948E138091E1060E94C11310E04B
:102AA000BFCFEF92FF920F931F93182FE62E8093C4
:102AB000E106609308050E94731400E021C082E0E3
:102AC00090E00E94521083E090E00E943A1094E659
:102AD000F92E88EE93E00E944222FA94D1F783E027
:102AE00090E00E94521082E090E00E943A1084E64A
:102AF000F82E88EE93E00E944222FA94D1F70F5FFD
:102B00000431E8F283E090E00E943A1082E090E025
:102B10000E943A108E2D0E94C113812F0E94C11372
:102B200000E0CDCF8093E106E0911906F0911A06FE
:102B30008085809308050E94731408956F927F9298
:102B40008F929F92AF92BF92CF92DF92EF92FF92BD
:102B50000F931F93CF93DF938EEF94E00E94C10CED
:102B600000D000D083E692E0ADB7BEB712969C933A
:102B70008E931197E0911906F0911A068085992796
:102B800087FD909514969C938E9313970E94B32F74
:102B9000E0911906F0911A06C281D3818CE692E089
:102BA000EDB7FEB792838183D483C3830E94B32F92
:102BB000EDB7FEB7319669E7E62E62E0F62EADB7C7
:102BC000BEB71296FC92EE9211978881828313828F
:102BD0000E94B32F56E8C52E52E0D52EEDB7FEB7B2
:102BE000D282C182E0911906F0911A06808191810A
:102BF000ADB7BEB714969C938E9313970E94B32FD4
:102C000040E9A42E42E0B42EEDB7FEB7B282A18215
:102C10008091190690911A06948383830E94B32FA2
:102C20000AE917E00F900F900F900F90C0E0D0E0EE
:102C300030EA632E32E0732E4701C601DC2CC92E28
:102C4000C501BA2CA92ED8011296ED90FC901397CD
:102C500000D000D000D0EDB7FEB73196ADB7BEB70B
:102C600012967C926E921197D383C283F582E4828E
:102C70000E94B32F0F900F90EDB7FEB73196ADB70E
:102C8000BEB711968C92119712969C92D7018C9197
:102C9000828313820E94B32FEDB7FEB7D182C28226
:102CA000D8018D919C91948383830E94B32FEDB7BB
:102CB000FEB7B182A282CE0125E0880F991F2A9526
:102CC000E1F78C0F9D1F8656984F948383830E9453
:102CD000B32F21960F5D1F4F0F900F900F900F9005
:102CE000C530D10509F0AFCFDF91CF911F910F9182
:102CF000FF90EF90DF90CF90BF90AF909F908F901C
:102D00007F906F900895CF93DF93E0911906F09133
:102D10001A06C281D3818881853539F00E949E15BB
:102D200081E00E94921585E58883E0911906F09173
:102D30001A068081918122E48030920728F00E9457
:102D40009E1582E10E949215DF91CF9108959927F7
:102D500087FD9095FC0175E0EE0FFF1F7A95E1F776
:102D6000E80FF91FE656F84FA281B3818C918535A3
:102D700019F085E58C9309C08081918122E480302F
:102D8000920728F082E10E9492158FEF089581E06A
:102D9000089560919F057091A0058091A105909183
:102DA000A205E0E0F0E09B01AC010E2E04C05695B8
:102DB0004795379527950A94D2F720FD1AC021E050
:102DC00030E040E050E00E2E04C0220F331F441FBD
:102DD000551F0A94D2F7262B372B482B592B2093BB
:102DE0009F053093A0054093A1055093A2058E2F17
:102DF00008953196E032F105B1F68FEF0895E09134
:102E00001906F0911A06658576858785908908955B
:102E1000DF92EF92FF920F931F93D82E81E0E82E5E
:102E2000F12C012D112D0D2C04C0EE0CFF1C001FE8
:102E3000111F0A94D2F780919F059091A005A0914F
:102E4000A105B091A2058E219F21A023B123009757
:102E5000A105B10509F45DC00E947711E1EAF7E030
:102E6000A8019701209530954095509563E08181A8
:102E70008F3F39F186819781A085B1858E159F0599
:102E8000A007B10731F412861386148615861082C6
:102E9000628386819781A085B18582239323A423B1
:102EA000B52386839783A087B18782859385A48580
:102EB000B58582239323A423B52382879387A48790
:102EC000B587B19688E0E634F80789F62EEF3FEF34
:102ED0004FEF5FEF04C0220F331F441F551FDA94DA
:102EE000D2F780919F059091A005A091A105B09186
:102EF000A20582239323A423B52380939F05909357
:102F0000A005A093A105B093A2050E94791181E0CC
:102F100001C08FEF1F910F91FF90EF90DF90089508
:102F2000EF92FF920F931F9321E030E040E050E0DA
:102F300004C0220F331F441F551F8A95D2F7E0911A
:102F40001906F0911A0685859685A785B0897901BD
:102F50008A01E822F9220A231B23E114F104010566
:102F60001105D1F0209530954095509582239323FB
:102F7000A423B52385879687A787B08B81899289FB
:102F8000A389B48982239323A423B523818B928BB5
:102F9000A38BB48B81E001C08FEF1F910F91FF9045
:102FA000EF90089520919F053091A0054091A105D3
:102FB0005091A205082E04C0569547953795279540
:102FC0000A94D2F72170307021153105E9F0E091B3
:102FD0001906F0911A0621E030E040E050E004C00C
:102FE000220F331F441F551F8A95D2F7858596857A
:102FF000A785B089822B932BA42BB52B8587968729
:10300000A787B08B81E008958FEF0895EF92FF922C
:103010000F931F93DF93CF930F92CDB7DEB791E05D
:10302000E92EF12C012D112D04C0EE0CFF1C001F08
:10303000111F8A95D2F780919F059091A005A091CC
:10304000A105B091A2058E219F21A023B123009755
:10305000A105B10511F481E03FC00E947711E1EABA
:10306000F7E020E033E080818130A9F48285938508
:10307000A485B5858E219F21A023B1230097A105AA
:10308000B10549F03283178616861082E286F386F0
:103090000487158721E08081823091F482859385B1
:1030A000A485B5858E159F05A007B10749F4328325
:1030B000178616861082128613861486158621E0DE
:1030C000B19688E0E634F80771F629830E947911F9
:1030D0002981222329F482E00E9474138FEF01C01A
:1030E00081E00F90CF91DF911F910F91FF90EF90B2
:1030F0000895E0911906F0911A06258536854785D1
:1031000050892623372348235923211531054105AA
:10311000510521F1618B728B838B948B21E0278386
:103120000090090504C096958795779567950A9450
:10313000D2F7617070706115710519F00E94B11BB2
:1031400004C080E090E00E94D81BE0911906F09145
:103150001A06218932894389548903C020E030E06E
:10316000A901B901CA01089580E090E0089525E021
:103170008230920711F480E008958FEF08950E9445
:10318000B7188F3F11F481E003C0813029F482E049
:103190000E9474138FEF0895992787FD9095FC0185
:1031A000EE0FFF1FE80FF91FEE5FFA4F8FEF8083DE
:1031B000828381838091A30581508093A30581E060
:1031C00008950F931F93DF93CF930F92CDB7DEB780
:1031D0000E94B7188F3F11F481E003C0813029F4B9
:1031E00082E00E9474138FEF43C0282F332727FDFE
:1031F00030958901000F111F020F131F0E5F1A4F28
:10320000D80112962C9112979C91291784F58983E5
:103210000E947711F80192819F5F9283E0911906D5
:10322000F0911A061482E1EAF7E08981992787FD77
:103230009095A92FB92F63E02081223089F422854F
:10324000338544855585281739074A075B0741F4BC
:103250006283178616861082128613861486158658
:10326000B19628E0E634F20739F70E94791181E03F
:103270000F90CF91DF911F910F9108950F931F939E
:10328000DF93CF930F92CDB7DEB70E94B7188F3F71
:1032900011F481E003C0813029F482E00E947413AC
:1032A0008FEF40C089830E9477118981082F1127F1
:1032B00007FD1095F801EE0FFF1FE00FF11FEE5F05
:1032C000FA4F92819923B1F4E0911906F0911A0610
:1032D000978192609783992787FD9095A92FB92FA1
:1032E000818B928BA38BB48B0E94791180E090E04C
:1032F0000E94D81BF801EE0FFF1FE00FF11FEE5FD9
:10330000FA4F828181508283A0911906B0911A06EA
:1033100081811B968C931B9781E014968C930E945D
:10332000791181E00F90CF91DF911F910F91089556
:103330000E94B7188F3F11F481E003C0813029F457
:1033400082E00E9474138FEF0895992787FD90956E
:10335000FC01EE0FFF1FE80FF91FEE5FFA4F8281AD
:103360000895E0919505F091960580810895E0918A
:103370009505F091960503C00380F481E02D309708
:10338000D9F70895DF92EF92FF920F931F93CF9397
:10339000DF93E0917D04F0917E04309709F49BC0A7
:1033A00040919505509196054115510509F457C076
:1033B000DA01682F772767FD70959B0115E0220FD2
:1033C000331F1A95E1F7260F371F2656384FB901DC
:1033D000665F7F4F89010C5F1F4F9BE0E92EF12C48
:1033E000E20EF31E2C9130E0E90195E0CC0FDD1FD9
:1033F0009A95E1F7C20FD31FC656D84F9C819923E7
:1034000029F0DB84EB019881D91658F1E801988105
:10341000992379F0E90195E0CC0FDD1F9A95E1F74A
:10342000C20FD31FC656D84FDA84E7019881D91648
:10343000C0F0E90195E0CC0FDD1F9A95E1F7C20FCE
:10344000D31FC656D84F2A85EB019881291748F01B
:1034500013960D90BC91A02D109721F602C0A0E00C
:10346000B0E08083C381D481D0937E04C0937D0477
:10347000A417B507B1F4109749F0B483A38312825F
:1034800011821296FC93EE93119706C01482138258
:1034900012821182FA83E983F0939605E0939505F1
:1034A0001AC011968D919C911297AC17BD0759F0D7
:1034B00092838183B483A3831196CD91DC9112977B
:1034C000FC83EB8304C0148213829283818312965F
:1034D000FC93EE931197DF91CF911F910F91FF9085
:1034E000EF90DF900895CF93DF93E0919505F091F1
:1034F0009605309709F444C0992787FD909520815F
:1035000030E02817390781F4A381B481B093960580
:10351000A093950512961C921E92119718C00380D5
:10352000F481E02D309761F1208130E028173907D0
:10353000B1F7C181D281838194819C838B83A381E4
:10354000B481109721F01296DC93CE931197A0913D
:103550007D04B0917E04109739F4F0937E04E093DB
:103560007D04148213820AC0B483A3831296FC9351
:10357000EE931197F0937E04E0937D041282118202
:10358000DF91CF910895EF92FF920F931F93CF9306
:10359000DF93EC0169817A814B815C818D819E8111
:1035A0000E940E26BC018F81882369F04B815C81CB
:1035B000CE0120E030E000E010E0EE24FF240E9485
:1035C00099121F8213C08881992787FD9095FC016D
:1035D00025E0EE0FFF1F2A95E1F7E80FF91FE656E9
:1035E000F84F81858330D1F4718360838881992776
:1035F00087FD9095FC0105E0EE0FFF1F0A95E1F7AE
:10360000E80FF91FE656F84F85899689009741F42F
:1036100082E0818788810E94C21902C08FEF01C0B9
:1036200081E0DF91CF911F910F91FF90EF9008956E
:103630001F93DF93CF93CDB7DEB728970FB6F894DB
:10364000DEBF0FBECDBF29833A834B835C836D837E
:103650007E838F8398870E9477110E948A23182F78
:10366000CE0101960E948C1E9C018330910560F072
:10367000E0911906F0911A06210F311D368B258B2A
:103680000E94791181E001C08FEF28960FB6F8945F
:10369000DEBF0FBECDBFCF91DF911F9108950E9475
:1036A000E025E0911906F0911A0685818823B9F783
:1036B0000895FF920F931F93DF93CF93CDB7DEB79B
:1036C00028970FB6F894DEBF0FBECDBF29833A838B
:1036D0004B835C836D837E838F8398870E948316E0
:1036E0000E947711E0911906F0911A0681E0858316
:1036F00081E090E090A3878F0E948A23F82ECE016C
:1037000001960E948C1EE0911906F0911A060F2D69
:1037100010E09801280F391F368B258B8F2D883F9D
:1037200078F40E9421230F5F1F4F282F30E00217EB
:10373000130734F48F2D8E5F809367070E94252333
:103740000E9479110E944F1B81E028960FB6F894D1
:10375000DEBF0FBECDBFCF91DF911F910F91FF90C4
:1037600008951F930E947711E0911906F0911A06AF
:1037700081E0858386830E948A23182F883F88F4FE
:103780000E942123212F30E02F5F3F4F482F50E030
:103790002417350734F4812F8E5F809367070E94CA
:1037A00025230E9479110E944F1B81E01F910895EB
:1037B0001F93CF93DF93EC010E947711E0911906DC
:1037C000F0911A0681E08583D68BC58B0E948A23EF
:1037D000182F883F88F40E942123212F30E02F5F8B
:1037E0003F4F482F50E02417350734F4812F8E5F68
:1037F000809367070E9425230E9479110E944F1B26
:1038000081E0DF91CF911F910895EF92FF920F9386
:103810001F93DF93CF930F92CDB7DEB78C010E9439
:103820007711E0911906F0911A0681E085830E94D4
:103830008A23E0911906F0911A06E82EFF240E0D56
:103840001F1D168B058B883F90F489830E942123CE
:103850000894E11CF11C282F30E09981E216F30650
:1038600034F4892F8E5F809367070E9425230E947E
:1038700079110E944F1B81E00F90CF91DF911F9132
:103880000F91FF90EF9008951F93CF93DF93EC017A
:103890000E948316209711F4C1E0D0E00E947711B6
:1038A000E0911906F0911A0681E08583D0A3C78FB5
:1038B0000E948A23182F883F88F40E942123212FF9
:1038C00030E02F5F3F4F482F50E02417350734F486
:1038D000812F8E5F809367070E9425230E947911B4
:1038E0000E944F1B81E0DF91CF911F9108951F939C
:1038F0000E9483160E947711E0911906F0911A0632
:1039000081E090E090A3878F81E085830E948A23E5
:10391000182F883F88F40E942123212F30E02F5F49
:103920003F4F482F50E02417350734F4812F8E5F26
:10393000809367070E9425230E9479110E944F1BE4
:1039400081E01F910895E0911906F0911A06808593
:103950000E94731AE0911906F0911A0684E081879B
:103960000E94771C81E008958F929F92AF92BF9240
:10397000CF92DF92EF92FF920F931F93DF93CF933B
:10398000CDB7DEB760970FB6F894DEBF0FBECDBFE0
:1039900029873A874B875C876D877E878F87988BCF
:1039A000CE0101960E94101DCE01099609851A8547
:1039B0002B853C854D855E856F85788989809A80C9
:1039C000AB80BC80CD80DE80EF80F8840E946E1DCD
:1039D0008F3F61F029853A854B855C856D857E85B5
:1039E0008F8598890E94591B81E001C08FEF6096F6
:1039F0000FB6F894DEBF0FBECDBFCF91DF911F9100
:103A00000F91FF90EF90DF90CF90BF90AF909F907D
:103A10008F900895E0911906F0911A068085089517
:103A2000EF92FF920F931F93CF93DF93EC011C82D1
:103A30001D821E821F828091970590919805A0910A
:103A40009905B0919A0588839983AA83BB83E090F6
:103A50009B05F0909C0500919D0510919E05EC82C0
:103A6000FD820E831F830E948A23682F70E080E00E
:103A700090E023EB36EE4EE050E00E942B2E6E0DD0
:103A80007F1D801F911F6C837D838E839F8313C056
:103A900080509A4CAA49BB438C839D83AE83BF83DD
:103AA00088819981AA81BB810196A11DB11D88835E
:103AB0009983AA83BB838C819D81AE81BF81803035
:103AC0002AEC92072AE9A2072BE3B20708F7DF9155
:103AD000CF911F910F91FF90EF9008958F929F9239
:103AE000AF92BF92CF92DF92EF92FF920F931F930C
:103AF000DF93CF93CDB7DEB760970FB6F894DEBFF4
:103B00000FBECDBFFC0109831A832B833C834D83F9
:103B10005E836F83788789869A86AB86BC86CD86DE
:103B2000DE86EF86F88AE980FA800B811C812D8180
:103B30003E814F815885A984BA84CB84DC848D85ED
:103B40009E85AF85B889EA14FB040C051D0508F4B1
:103B500040C0AE14BF04C006D10691F4281739073F
:103B60004A075B07B0F1281B390B4A0B5B0B248318
:103B7000358346835783108211821282138227C0B5
:103B8000281739074A075B0790F40894E108F10801
:103B900001091109EA18FB080C091D09E082F182EC
:103BA00002831383205036434546544C08C0EA181C
:103BB000FB080C091D09E082F18202831383281B94
:103BC000390B4A0B5B0B248335834683578381E093
:103BD00001C08FEF60960FB6F894DEBF0FBECDBF69
:103BE000CF91DF911F910F91FF90EF90DF90CF90D9
:103BF000BF90AF909F908F900895FC0114C020500B
:103C00003A4C4A495B43248335834683578320815A
:103C10003181428153812F5F3F4F4F4F5F4F208350
:103C200031834283538324813581468157812030FB
:103C30008AEC38078AE948078BE3580700F70895AC
:103C40008F929F92AF92BF92CF92DF92EF92FF92AC
:103C50000F931F93DF93CF93CDB7DEB760970FB667
:103C6000F894DEBF0FBECDBF09831A832B833C833C
:103C70004D835E836F83788789869A86AB86BC8600
:103C8000CD86DE86EF86F88A29853A854B855C8568
:103C9000E980FA800B811C812E0D3F1D401F511FB2
:103CA000FC0120833183428353832D853E854F85DC
:103CB0005889ED80FE800F8118852E0D3F1D401F15
:103CC000511F24833583468357830E94FD1D81E065
:103CD00060960FB6F894DEBF0FBECDBFCF91DF91D7
:103CE0001F910F91FF90EF90DF90CF90BF90AF901A
:103CF0009F908F9008956093970570939805809397
:103D0000990590939A0520939B0530939C054093C9
:103D10009D0550939E0508958F929F92AF92BF92FA
:103D2000CF92DF92EF92FF920F931F93FC012081BD
:103D3000318142815381648175818681978121150A
:103D400031054105510509F461C0223431054105B1
:103D5000510508F062C05B016C01EE24FF2487016D
:103D600060E038C08A2CAB2DA653F1E0AB1508F00B
:103D7000F0E08C2D865691E08C1508F090E0F80F5D
:103D800071E0F81708F070E0972B7D2D755CE1E08D
:103D90007D1508F0E0E0970F81E0971708F080E0CC
:103DA0008E2B8E0DE1E08E1508F0E0E0EF0D71E056
:103DB000EF1508F070E0700FB1E0701708F0B0E098
:103DC000B10FA82CBA2ECF2ED92EE82EFE2E072FFB
:103DD0001B2F6F5F862F90E0A0E0B0E08217930763
:103DE000A407B50708F4BECF9501A601B701C80125
:103DF000A3EBAA2EF6EEBF2EEEE0CE2EDD24EE24AF
:103E0000FF2400E010E00E947F2609C023EB36EE7D
:103E10004EE050E00E94712E02C020E030E0C90167
:103E20001F910F91FF90EF90DF90CF90BF90AF90D8
:103E30009F908F900895EF92FF920F931F93DF93BF
:103E4000CF93CDB7DEB728970FB6F894DEBF0FBE7D
:103E5000CDBF7B018C01BAE016950795F794E794E6
:103E6000BA95D1F7E982FA820B831C837370807054
:103E7000907023EB36EE4EE050E00E942B2E6D83C7
:103E80007E838F8398872E2D3A814B815C81289683
:103E90000FB6F894DEBF0FBECDBFCF91DF911F915B
:103EA0000F91FF90EF9008958F929F92AF92BF92E3
:103EB000CF92DF92EF92FF920F931F93FC0120812C
:103EC0003181428153816481758186819781211579
:103ED00031054105510509F45BC05B016C01EE241D
:103EE000FF24870160E038C08A2CAB2DA653F1E097
:103EF000AB1508F0F0E08C2D865691E08C1508F09B
:103F000090E0F80F71E0F81708F070E0972B7D2D26
:103F1000755CE1E07D1508F0E0E0970F81E0971710
:103F200008F080E08E2B8E0DE1E08E1508F0E0E0C9
:103F3000EF0D71E0EF1508F070E0700FB1E0701751
:103F400008F0B0E0B10FA82CBA2ECF2ED92EE82E53
:103F5000FE2E072F1B2F6F5F862F90E0A0E0B0E0B2
:103F600082179307A407B50708F4BECF9501A601F1
:103F7000B701C801E3EBAE2E06EEB02E1EE0C12E57
:103F8000DD24EE24FF2400E010E00E947F2606C01E
:103F900023EB36EE4EE050E00E94712EB901CA01CB
:103FA0001F910F91FF90EF90DF90CF90BF90AF9057
:103FB0009F908F9008951F9311E00E9483160E9496
:103FC0002123843010F4109342080E94E025809150
:103FD000E206853519F088E00E94921580917E41B5
:103FE000853559F388E00E949215E7CF2F923F92D2
:103FF0004F925F926F927F928F929F92AF92BF92F9
:10400000CF92DF92EF92FF920F931F93DF93CF93A4
:104010000F92CDB7DEB70E943D220E9477110E9419
:104020006E220E9476222C018AEF0E9425230E9494
:10403000D1256091670770E080E090E023EB36EED9
:104040004EE050E00E942B2E7B018C0180919B055D
:1040500090919C05A0919D05B0919E05E80EF91EDA
:104060000A1F1B1FC801B7010E94712EE61AF70A2A
:10407000080B190B8091970590919805A0919905CF
:10408000B0919A0573EBA72E76EEB72E7EE0C72E81
:10409000D12C14C080E096E3A5E6B4ECE80EF91E3E
:1040A0000A1F1B1FC801B701A60195010E94712EAE
:1040B000E61AF70A080B190BD401C3013C014D01A4
:1040C0000894611C711C811C911CE0E0EE16EAEC66
:1040D000FE06EAE90E07EBE31E07E0F6809397057C
:1040E00090939805A0939905B0939A05E0929B054B
:1040F000F0929C0500939D0510939E05E091190692
:10410000F0911A0685818823B9F081858430A1F069
:104110008781823029F0882341F08681882311F439
:1041200085E001C083E0818704C083E08187178236
:10413000168280850E94731AE0911906F0911A0682
:10414000858D968D009799F16085662381F1818533
:10415000843069F1218D328D8091670790E02817B6
:10416000390750F482E00E945115E0911906F09150
:104170001A06128E118E04C0281B390B328F218F24
:10418000E0911906F0911A060085218D328D2115D6
:10419000310569F483E0602F0E945115E091190602
:1041A000F0911A0683E08187802F0E94731A6FE9CD
:1041B000262E67E0362E00E61AEE20E051E0652E4E
:1041C000712C4AEFE42EF12C32E0932E91E0A92ECF
:1041D000B12CC12CD12CD10113968C9113978F3F08
:1041E00009F4C4C01C92882309F443C014968C912E
:1041F00014978430F1F150964D915C9151978091D4
:10420000670790E04817590738F0481B590B51963B
:104210005C934E93509703C0F101118A108AD1012B
:1042200052964D915C9153974817590738F0481BA7
:10423000590B53965C934E93529712C0F1016689C5
:1042400077898617970728F4681B790B738B628B25
:1042500007C00E944A2ED10153969C938E93529789
:10426000F10182899389009721F486899789938B3C
:10427000828BD10114968C911497833009F076C00B
:1042800050968D919C915197009709F066C01296B7
:104290008C9112978823A9F011968C9111978823FD
:1042A00081F0D601C5010090090504C0880F991F4F
:1042B000AA1FBB1F0A94D2F7F10184879587A687AE
:1042C000B787D10112961C92129711961C921197E2
:1042D0001C925A964D915C915B9756968D919C914C
:1042E000579758966D917C91599741305105D9F463
:1042F00055967C936E93549714969C92149752966D
:104300004D915C91539751965C934E9350970097C3
:1043100021F45196FC92EE925097822F29830E94AD
:10432000C21929811AC0F101758B648BBA016150E1
:104330007040689FA001699F500D789F500D112417
:10434000518B408B538B428B009711F4F18AE08A9A
:10435000D1015B967C926E925A97F1018089918986
:10436000009721F08017910708F48C012F5F81E2FC
:1043700090E0280E391E253009F02DCF0E94B1198A
:10438000E82E282F332727FD3095F90185E0EE0F21
:10439000FF1F8A95E1F7E20FF31FE656F84F82857B
:1043A0008093D706F0930B05E0930A05EE20B9F051
:1043B000258D368D2115310551F0218D328D2A3F05
:1043C000310528F42017310708F44BC00DC09801BF
:1043D0000B3F110508F445C02AEF30E042C00B3F07
:1043E000110510F00AEF10E080930C05F0931A0607
:1043F000E0931906009367070E948A23282F30E074
:104400002F5F3F4F2017310740F00E948A23082F6B
:1044100010E00E5F1F4F00936707EE2011F010921F
:104420004208802F0E942523C2016CED75E00E9496
:1044300089220E9448260E9454260F90CF91DF9136
:104440001F910F91FF90EF90DF90CF90BF90AF90B2
:104450009F908F907F906F905F904F903F902F90A4
:1044600008958901C1CF89E0809321018DE89CE303
:1044700090932901809328010895109225011092AC
:10448000240108950000000000000000000000006A
:10449000000000000000000000000000019791F7FC
:1044A0000895109221010895DF93CF9300D0CDB7E6
:1044B000DEB780912401909125019A838983298117
:1044C0003A81C9010F900F90CF91DF91089510921A
:1044D0008100089581E080938100089583B5816013
:1044E00083BD10928500109284000895DF93CF93CE
:1044F00000D0CDB7DEB780918400909185009A837B
:10450000898329813A81C9010F900F90CF91DF9162
:104510000895EF92FF920F931F93CF93DF93EC01D7
:10452000CC0FDD1F8FEFC937D80710F0C0E0D0E007
:104530007E0100E010E080E090E0E60EF71E081F2C
:10454000191F91E0E91690E0F90691E0090790E063
:10455000190768F080E090E0AFEFBFEFE80EF91EBA
:104560000A1F1B1F0E947622C817D907D8F30E9482
:1045700076228E159F05D8F3DF91CF911F910F9171
:10458000FF90EF9008951092B100E0E7F0E0808195
:104590008D7F808380818E7F808308958093B20099
:1045A0000895E0E7F0E080818360808383E080937A
:1045B000B100089583B5826083BD1092B20010925D
:1045C00065071092670708958EEF8093670790E262
:1045D0009093B6008093B30083E087BB92E0909302
:1045E000B0008093B10093B5926093BD87BB84BD4A
:1045F00083B5826083BD1092800081E0809381004A
:10460000109285001092840083B5826083BD83B5CB
:10461000816083BD10922001109225011092240127
:1046200083B5826083BD83B5816083BD0E94DA2239
:104630000E943D220E94D1220E94332210926507DF
:1046400008958091B3008F5F089581508093B300E7
:104650000895882311F4109271008FEF0895882334
:1046600031F4109295001092940081E008958FEF3C
:104670000895882329F4209194003091950002C078
:1046800020E030E0C9010895882329F482E0809376
:10469000710081E008958FEF08958823B9F5CB016B
:1046A00001978530910510F4609366071092900091
:1046B00088E0809391005093990040939800309344
:1046C00064072093630780916607813021F480910D
:1046D000910081600BC0823021F480919100826052
:1046E00005C0833039F480919100836080939100FC
:1046F00081E00895843021F4809191008460F6CFA8
:10470000853031F4809191008560F0CF8FEF08956E
:1047100081E008958091B20008951F920F920FB624
:104720000F920BB60F9211242F933F934F935F93E9
:104730006F937F938F939F93AF93BF93EF93FF9369
:104740008AE060E00E945115FFCF0F920FB60F92E2
:104750001F922F923F924F925F926F927F928F9211
:104760009F92AF92BF92CF92DF92EF92FF920F9300
:104770001F932F933F934F935F936F937F938F93E9
:104780009F93AF93BF93CF93DF93EF93FF93A0914A
:104790001906B0911A060DB60D920EB60D921F9223
:1047A000A0911B06B0911C061E90BEBFADBF089520
:1047B0001F920F920FB60F920BB60F9211242F93E8
:1047C0003F934F935F936F937F938F939F93AF9399
:1047D000BF93EF93FF93E0916307F09164073097E5
:1047E00011F0099504C08AE060E00E945115FF9124
:1047F000EF91BF91AF919F918F917F916F915F9159
:104800004F913F912F910F900BBE0F900FBE0F90C5
:104810001F9018951F920F920FB60F9211240F90B0
:104820000FBE0F901F90189504B603FC02C080E0E5
:1048300001C080E104B602FE06C094B79B7F94BF1E
:1048400004B600FE846004B601FE05C094B79D7FE7
:1048500094BF82600895882361F404B600FE04C00A
:1048600094B79E7F94BF01C081E09091B0009111F8
:1048700081600895882311F4E89A39C0813011F4D9
:10488000E99A0895823011F4EA9A31C0833021F414
:1048900080916B00816029C0843021F480916B008D
:1048A000826023C0853021F480916B0084601DC03C
:1048B000863021F480916B00886017C0873021F426
:1048C00080916B00806111C0883021F480916B0071
:1048D00080620BC0893021F480916B00806405C038
:1048E0008A3039F480916B00806880936B0081E09E
:1048F00008958FEF0895882311F4E89839C0813026
:1049000011F4E9980895823011F4E99831C08330A8
:1049100021F480916B008E7F29C0843021F4809136
:104920006B008D7F23C0853021F480916B008B7FDD
:104930001DC0863021F480916B00877F17C08730BF
:1049400021F480916B008F7E11C0883021F480911A
:104950006B008F7D0BC0893021F480916B008F7BC1
:1049600005C08A3039F480916B008F7780936B009B
:1049700081E008958FEF0895882339F550936508F5
:1049800040936408662321F4809169008C7F66C09F
:10499000613049F4809169008D7F80936900809136
:1049A000690081605BC0623049F480916900826077
:1049B00080936900809169008E7F50C0633009F058
:1049C00062C080916900836049C0813031F55093A5
:1049D000630840936208662321F480916900837F15
:1049E0003DC0613049F480916900877F8093690000
:1049F00080916900846032C0623049F4809169001E
:104A0000886080936900809169008B7F27C0633044
:104A1000D1F5809169008C6021C0823041F55093BE
:104A2000630840936208662321F4809169008F7CBB
:104A300015C0613049F4809169008F7D80936900D1
:104A40008091690080610AC0623059F480916900E8
:104A5000806280936900809169008F7E80936900F5
:104A600012C0633081F4809169008063F7CF835076
:104A7000883058F48091680081608093680050937A
:104A800069084093680881E008958FEF08951F92A8
:104A90000F920FB60F920BB60F9211242F933F93E4
:104AA0004F935F936F937F938F939F93AF93BF9336
:104AB000EF93FF93E0916808F0916908309711F047
:104AC000099504C08AE060E00E945115FF91EF91C2
:104AD000BF91AF919F918F917F916F915F914F9116
:104AE0003F912F910F900BBE0F900FBE0F901F9014
:104AF00018951F920F920FB60F920BB60F921124BA
:104B00002F933F934F935F936F937F938F939F93D5
:104B1000AF93BF93EF93FF93E0916408F091650822
:104B2000309711F0099504C08AE060E00E945115A9
:104B3000FF91EF91BF91AF919F918F917F916F9175
:104B40005F914F913F912F910F900BBE0F900FBE31
:104B50000F901F9018950E947711A89584B7877FB2
:104B600084BFE0E6F0E080818861808310820E944B
:104B7000791108950E947711A89584B7877F84BF23
:104B8000E0E6F0E08081886180838DE080830E9490
:104B90007911089504B603FC02C081E008958FEFF7
:104BA0000895A8950895089583B7817F866083BF8F
:104BB00083B7816083BF889583B78E7F83BF089555
:104BC00083B7817F83BF83B7816083BF889583B7B5
:104BD0008E7F83BF0895FC01768365830895EF92ED
:104BE000FF920F931F93CF93DF93EC018B017A0118
:104BF0004032510518F481E10E9492150894E108B1
:104C0000F108E00EF11EFA82E9821C830B83DF912A
:104C1000CF911F910F91FF90EF90089525E5FA0134
:104C20002083FB0132979083818312921292129219
:104C30001292129212921292129212921292129254
:104C40001292129212921292129212921292129244
:104C50001292129212921292129212921292129234
:104C60001292129212921292129212921292CF01F8
:104C7000089585E580937E41EEEFF1E4F0931C0604
:104C8000E0931B068EE693E190838093FF410895A5
:104C90008EE693E19093FE418093FF4108950E9438
:104CA000E4220E9479110895A0910A05B0910B05A4
:104CB000CD91CDBFDD91DEBFFF91EF91DF91CF911F
:104CC000BF91AF919F918F917F916F915F914F9124
:104CD0003F912F911F910F91FF90EF90DF90CF9018
:104CE000BF90AF909F908F907F906F905F904F900C
:104CF0003F902F901F900F900FBE0F901895A8E334
:104D0000B0E0E5E8F6E20C94932E29833A834B83D6
:104D10005C836D837E838F839887A986BA86CB86D2
:104D2000DC86ED86FE860F87188BE984FA840B8576
:104D30001C852D853E854F85588929803A804B807A
:104D40005C802DA23EA24FA258A6AD80BE80CF802F
:104D5000D884211531054105510509F0BEC3AE14B3
:104D6000BF04C006D10608F04FC120E0E21620E0E3
:104D7000F20621E0020720E0120758F43FEFE316A5
:104D8000F1040105110509F090F420E030E0A901DB
:104D900017C040E0E41640E0F40640E0040741E0BC
:104DA000140750F420E130E040E050E009C028E072
:104DB00030E040E050E004C028E130E040E050E066
:104DC000D801C701022E04C0B695A795979587957F
:104DD0000A94D2F78F549D4FDC016C9180E290E0F1
:104DE000A0E0B0E0821B930BA40BB50B861B9109CE
:104DF000A109B1090097A105B105A1F1082E04C0D0
:104E0000EE0CFF1C001F111F0A94D2F7A60195019A
:104E1000082E04C0220F331F441F551F0A94D2F7D7
:104E200060E270E0681B790BADA0BEA0CFA0D8A453
:104E300004C0D694C794B794A7946A95D2F7A22ACF
:104E4000B32AC42AD52A2DA03EA04FA058A404C03E
:104E5000220C331C441C551C8A95D2F72DA23EA26D
:104E60004FA258A6380188249924A80197014070C0
:104E700050702D8F3E8F4F8F58A3C601B501A401EE
:104E800093010E94712E222E532E442E352E69A39B
:104E90007AA38BA39CA3C601B501A40193010E9430
:104EA000712E822D952DA42DB32D898F9A8FAB8FC6
:104EB000BC8FBC01CD012D8D3E8D4F8D58A10E9420
:104EC0002B2E5B016C0149A15AA16BA17CA1DA01D7
:104ED000992788272DA03EA04FA058A492014427CF
:104EE0005527822B932BA42BB52B8A159B05AC053C
:104EF000BD0530F5298D3A8D4B8D5C8D21503040AC
:104F000040405040298F3A8F4B8F5C8F8E0D9F1DF4
:104F1000A01FB11F8E159F05A007B10788F08A1545
:104F20009B05AC05BD0560F4215030404040504029
:104F3000298F3A8F4B8F5C8F8E0D9F1DA01FB11F45
:104F4000AC01BD014A195B096C097D095A016B016D
:104F5000CB01BA01A40193010E94712E222E532E7F
:104F6000442E352E69A37AA38BA39CA3C601B50159
:104F7000A40193010E94712EA22CB52CC42CD32C19
:104F8000C601B5012D8D3E8D4F8D58A10E942B2E4F
:104F90003B014C0169A17AA18BA19CA1AB013327F4
:104FA00022278DA19EA1AFA1B8A5A070B070282B1B
:104FB000392B4A2B5B2B2615370548055905C0F4BC
:104FC0000894A108B108C108D1082E0D3F1D401F4B
:104FD000511F2E153F054007510750F02615370584
:104FE0004805590528F40894A108B108C108D1085A
:104FF000898D9A8DAB8DBC8D8C01FF24EE24EA281F
:10500000FB280C291D29B3C4E114F1040105110585
:1050100059F461E070E080E090E0A80197010E94FF
:10502000712E79018A0110C090E0E91690E0F9062E
:1050300091E0090790E0190758F4AFEFEA16F10480
:105040000105110509F090F420E030E0A90117C036
:10505000B0E0EB16B0E0FB06B0E00B07B1E01B07D9
:1050600050F420E130E040E050E009C028E030E0BA
:1050700040E050E004C028E130E040E050E0D801DA
:10508000C701022E04C0B695A795979587950A94F7
:10509000D2F78F549D4FFC018081280F311D411D97
:1050A000511D80E290E0A0E0B0E0821B930BA40BC6
:1050B000B50B61F4150126012E183F08400A510A6C
:1050C00081E0A82EB12CC12CD12C29C1082E04C0FE
:1050D000EE0CFF1C001F111F0A94D2F715012601C8
:1050E000022E04C056944794379427940A94D2F71A
:1050F000298E3A8E4B8E5C8EB601A501082E04C017
:10510000440F551F661F771F0A94D2F74D8F5E8F8D
:105110006F8F78A32DA03EA04FA058A404C0569432
:105120004794379427942A95D2F7AD8CBE8CCF8CB8
:10513000D8A0A228B328C428D528AD8EBE8ECF8E85
:10514000D8A22DA13EA14FA158A504C0220F331F04
:10515000441F551F8A95D2F72DA33EA34FA358A7EE
:10516000380188249924B801A7016070707049A3A0
:105170005AA36BA37CA3698D7A8D8B8D9C8DA40122
:1051800093010E94712E222E532E442E352E69A794
:105190007AA78BA79CA7698D7A8D8B8D9C8DA40196
:1051A00093010E94712EA22CB52CC42CD32CA98E55
:1051B000BA8ECB8EDC8EC601B50129A13AA14BA1D6
:1051C0005CA10E942B2E5B016C0129A43AA44BA484
:1051D0005CA4D101992788272D8C3E8C4F8C58A038
:1051E000920144275527822B932BA42BB52B8A158C
:1051F0009B05AC05BD0530F5298D3A8D4B8D5C8D39
:105200002150304040405040298F3A8F4B8F5C8F67
:105210008E0D9F1DA01FB11F8E159F05A007B10702
:1052200088F08A159B05AC05BD0560F4215030401F
:1052300040405040298F3A8F4B8F5C8F8E0D9F1DC1
:10524000A01FB11FAC01BD014A195B096C097D09A2
:105250005A016B01CB01BA01A40193010E94712E86
:10526000222E532E442E352E69A77AA78BA79CA7F2
:10527000C601B501A40193010E94712E622C752C08
:10528000842C932CC401B30129A13AA14BA15CA1A8
:105290000E942B2E9B01AC0169A57AA58BA59CA52C
:1052A0006B01BB24AA248D8D9E8DAF8DB8A1A070FB
:1052B000B070A82AB92ACA2ADB2AA216B306C406E5
:1052C000D506E0F408946108710881089108AE0CD5
:1052D000BF1CC01ED11EAE14BF04C006D10670F0A4
:1052E000A216B306C406D50648F4089461087108EE
:1052F00081089108AE0CBF1CC01ED11E15012601ED
:10530000221A330A440A550A898D9A8DAB8DBC8DB9
:105310006C01BB24AA24A628B728C828D92898013C
:10532000442755272D8F3E8F4F8F58A3B801A701D3
:105330006070707049A35AA36BA37CA3C201B10132
:105340002D8D3E8D4F8D58A10E94712E622E932E71
:10535000842E752E69A77AA78BA79CA7C201B101DD
:105360002D8D3E8D4F8D58A10E94712E862D992D29
:10537000A82DB72D898F9A8FAB8FBC8FBC01CD0123
:1053800029A13AA14BA15CA10E942B2E3B014C010B
:1053900029A43AA44BA45CA4D101992788272DA065
:1053A0003EA04FA058A4920144275527822B932B4F
:1053B000A42BB52B86159705A805B90530F5298DC1
:1053C0003A8D4B8D5C8D2150304040405040298FAC
:1053D0003A8F4B8F5C8F8E0D9F1DA01FB11F8E15B6
:1053E0009F05A007B10788F086159705A805B905A0
:1053F00060F42150304040405040298F3A8F4B8F0D
:105400005C8F8E0D9F1DA01FB11FAC01BD01461901
:105410005709680979093A014B01CB01BA012D8D71
:105420003E8D4F8D58A10E94712E522E432E342E48
:10543000252E69A77AA78BA79CA7C401B3012D8D40
:105440003E8D4F8D58A10E94712E652C742C832C9B
:10545000922CC401B30129A13AA14BA15CA10E94E5
:105460002B2E1B012C0169A57AA58BA59CA5AB0150
:10547000332722278DA19EA1AFA1B8A5A070B0703F
:10548000282B392B4A2B5B2B221533054405550558
:10549000C0F4089461087108810891082E0D3F1D21
:1054A000401F511F2E153F054007510750F0221590
:1054B00033054405550528F40894610871088108EE
:1054C0009108898D9A8DAB8DBC8D8C01FF24EE24C3
:1054D000E628F728082919294DC2A216B306C406E2
:1054E000D50608F434C2203090E0390791E049072E
:1054F00090E0590750F42F3F31054105510509F05F
:1055000090F466247724430119C02030A0E03A07C4
:10551000A0E04A07A1E05A0760F490E1692E712CDF
:10552000812C912C0BC088E0682E712C812C912C41
:1055300005C0B8E16B2E712C812C912CDA01C901C8
:10554000062C04C0B695A795979587950A94D2F72F
:105550008F549D4FFC018081680E711C811C911C31
:1055600080E290E0A0E0B0E086199709A809B909A7
:1055700089F42A153B054C055D0508F4EFC12DA003
:105580003EA04FA058A42E143F044006510608F038
:10559000E5C1DDC189A719012A0104C0220C331C11
:1055A000441C551C8A95D2F7D801C701062C04C0AB
:1055B000B695A795979587950A94D2F7282A392A00
:1055C0004A2A5B2AA801970109A404C0220F331FAD
:1055D000441F551F0A94D2F729AB3AAB4BAB5CABD7
:1055E00086017501062C04C016950795F794E7947B
:1055F0000A94D2F7B601A50109A404C0440F551FAF
:10560000661F771F0A94D2F74D8F5E8F6F8F78A336
:105610006DA17EA18FA198A504C0969587957795D9
:1056200067956A94D2F73B014C018D8D9E8DAF8DAD
:10563000B8A186299729A829B9298D8F9E8FAF8F68
:10564000B8A35201CC24DD24A9A2BAA2CBA2DCA229
:10565000A2019101407050702DAB3EAB4FAB58AFE3
:10566000C801B701A60195010E94712E622EA32EDA
:10567000D42EC52E6DA77EA78FA798ABC801B70102
:1056800029A13AA14BA15CA10E94712EE62CFA2C13
:105690000D2D1C2DE98EFA8E0B8F1C8FC801B701C2
:1056A0002DA93EA94FA958AD0E942B2EADA4BEA492
:1056B000CFA4D8A88501FF24EE24AD8CBE8CCF8C5E
:1056C000D8A0960144275527E22AF32A042B152B4C
:1056D000E616F7060807190730F5298D3A8D4B8D28
:1056E0005C8D2150304040405040298F3A8F4B8F85
:1056F0005C8FE20CF31C041D151DE214F304040579
:10570000150588F0E616F7060807190760F421501A
:10571000304040405040298F3A8F4B8F5C8FE20CD5
:10572000F31C041D151DE61AF70A080B190BC80116
:10573000B70129A13AA14BA15CA10E94712EA22E12
:10574000D32EC42EB52E6DA77EA78FA798ABC80108
:10575000B70129A13AA14BA15CA10E94712E6A2C2C
:105760007D2C8C2C9B2CC401B3012DA93EA94FA9E3
:1057700058AD0E942B2E9B01AC01ADA4BEA4CFA4BA
:10578000D8A8D50199278827AD8CBE8CCF8CD8A0FE
:105790006FEFE62E6FEFF62E012D112DAE20BF20FC
:1057A000C022D1228A299B29AC29BD2982179307BF
:1057B000A407B507E0F4089461087108810891080E
:1057C000820D931DA41DB51D82159305A405B50575
:1057D00070F082179307A407B50748F4089461088E
:1057E000710881089108820D931DA41DB51D1C012F
:1057F0002D01221A330A440A550A2D8E3E8E4F8EF1
:1058000058A2A98CBA8CCB8CDC8C8501FF24EE24A9
:10581000E628F72808291929AFEFAA2EAFEFBA2EEC
:10582000C12CD12CAE20BF20C022D122180144248B
:10583000552469A87AA88BA89CA82FEF3FEF40E0D9
:1058400050E0622273228422952269A97AA98BA949
:105850009CA9AC0166277727498F5A8F6B8F7C8F65
:10586000C601B501A40193010E942B2E69A37AA35E
:105870008BA39CA3C601B501298D3A8D4B8D5C8D00
:105880000E942B2E5B016C01C201B101A4019301A6
:105890000E942B2E3B014C01C201B101298D3A8D92
:1058A0004B8D5C8D0E942B2E9B01AC01A60CB71C6E
:1058B000C81CD91C29A03AA04BA05CA0C201AA27F1
:1058C000BB27A80EB91ECA1EDB1EA614B704C80447
:1058D000D90420F4205030404F4F5F4FC601AA2713
:1058E000BB27820F931FA41FB51F2D8D3E8D4F8D9B
:1058F00058A1281739074A075B0718F18217930741
:10590000A407B507A1F56501BB24AA2489A19AA122
:10591000ABA1BCA1A070B070A80EB91ECA1EDB1E40
:105920008DA19EA1AFA1B8A509A404C0880F991F9D
:10593000AA1FBB1F0A94D2F78A159B05AC05BD05AB
:10594000B0F40894E108F1080109110910C0AA2473
:10595000BB246501EE24FF2487010CC0AA24BB24CC
:10596000650181E0E82EF12C012D112D03C0AA2440
:10597000BB246501FE01719688E0DF011D928A95C6
:10598000E9F7E98AFA8A0B8B1C8BAD8ABE8ACF8A2B
:10599000D88E2E2D3A894B895C896A2D7E898F8914
:1059A000988DE896E2E10C94AF2E6F927F928F92E1
:1059B0009F92AF92BF92CF92DF92EF92FF920F939E
:1059C0001F93DF93CF93CDB7DEB72C970FB6F89424
:1059D000DEBF0FBECDBF6C013B018A01FC01178207
:1059E0001682838181FD03C01EC1850104C04E0162
:1059F0000894811C911CF601E380F301E3FC85917E
:105A0000E3FE81913F01882309F409C1853251F4F5
:105A1000E3FC2591E3FE21913F01253211F0FF24A3
:105A200023C085E290E0B6010E94872F5801DDCFA8
:105A3000222309F489C084E195E0622F70E02C876D
:105A40000E94282F2C85009749F4233219F4F0E1A5
:105A5000FF2A04C02C3669F420E8F22AF301E3FCA3
:105A60002591E3FE21913F01F7FEE2CF222309F4C5
:105A70003FC08DE095E0622F70E02C870E94282FB8
:105A80002C85009741F064E0A62EB12CA00EB11E2B
:105A90008FE390E00FC0233629F0233789F02335B8
:105AA00029F50CC052E0A52EB12CA00EB11EF801B4
:105AB00080819181B6010E94872F97CFF1E0FF2A64
:105AC00042E0A42EB12CA00EB11EF801008111817C
:105AD00004C090E0B6010E94872FF801F0FC859188
