:100000000C9470020C9454270C948F020C948F0261
:100010000C948F020C948F020C948F020C948F021C
:100020000C948F020C9422270C948F020C948F0254
:100030000C948F020C9480250C948F020C948025D4
:100040000C948F020C948F020C948F020C948F02EC
:100050000C948F020C948F020C948F020C948F02DC
:100060000C948F020C948F020C948F020C948F02CC
:100070000C948F020C948F020C948F020C948F02BC
:100080000C94B3250C948F020C948F020C948F0265
:100090000C948F020C948F020C948F020C948F029C
:1000A0000C948F020C948F020C948F020C948F028C
:1000B0000C948F020C948F020C948F020C948F027C
:1000C0000C948F020C948F020C948F020C948F026C
:1000D0000C948F020C948F020C948F020C948F025C
:1000E0000C948F020C94F8060C94E9060C94B90653
:1000F0000C945B060C94AA060C949B060C9489063F
:100100000C947A060C948F020C948F020C948F023C
:100110000C948F020C948F020C948F020C948F021B
:1001200036163C163F164216451648164E164B1606
:1001300051165416571660166316661669165D1624
:10014000331639166C166F165A1630164572726FC2
:10015000722073657474696E672075702074696DA0
:1001600065722063616C6C6261636B0D0A004361B0
:100170006C6C6261636B2074696D65722073657469
:1001800075700D0A005374617274696E6720757022
:100190002E2E2E0D0A000D0A4E616E6F2D524B2031
:1001A0005461736B20537461746973746963733A37
:1001B0000D0A000D0A000D0A2020204F7665726698
:1001C0006C6F77204572726F72205374617475730F
:1001D0003A20000D0A2020204B65726E656C205677
:1001E000696F6C6174696F6E733A20000D0A20208C
:1001F00020507265656D7074696F6E733A20000DE2
:100200000A202020537761702D696E733A20000D0B
:100210000A20202054696D65205B4D696E2C4C616D
:1002200073742C4D61785D3A20000D0A2020205413
:100230006F74616C204350553A20000D0A20202035
:1002400049646C65205461736B204465657020536C
:100250006C6565702054696D653A20000D0A202098
:1002600020546F74616C2053797374656D205570E0
:1002700074696D653A2000205461736B2049443ADB
:100280002000554E4B4F574E0045787465726E6195
:100290006C2052657365740042726F776E204F75E3
:1002A0007420446574656374004661696C656420FC
:1002B000746F206372656174652053656D61706849
:1002C0006F7265004661696C656420746F206372AB
:1002D00065617465205369676E616C004B65726E71
:1002E000656C2066756E6374696F6E206E6F742026
:1002F000696D706C656D656E7465640044657669E2
:10030000636520447269766572204572726F72006F
:100310005761746368646F672052657374617274A7
:10032000005357205761746368646F672052657388
:10033000746172740054696D6572204F76657266DF
:100340006C6F7700556E68616E646C656420496EF1
:100350007465727275707420566563746F72004CA8
:100360006F7720566F6C74616765004578747261B1
:10037000205461736B20737461727465642C2069FE
:1003800073206E726B5F6366672E68206F6B3F0031
:1003900049646C65206F72204B65726E656C2053EA
:1003A0007461636B204F766572666C6F7700556E73
:1003B00065787065637465642052657374617274E6
:1003C000004475706C696361746564205461736B7B
:1003D000204944005363686564756C6572204D69FB
:1003E000737365642057616B657570005461736B3E
:1003F00020526573657276652056696F6C6174650D
:10040000640052657365727665204572726F722062
:10041000696E205363686564756C657200496E7619
:10042000616C696420537461636B20506F696E74F2
:100430006572005461736B20537461636B204F7657
:100440006572666C6F7700537461636B20776173BC
:10045000206E6F7420646566696E65642061732028
:100460006C6172676520656E6F7567682100546105
:10047000736B20706572696F6420746F6F206C619C
:100480007267652E20506572696F64206D75737494
:10049000206265206C657373207468616E2036314C
:1004A000207365636F6E64732E00293A20002A4E14
:1004B000524B204552524F5228000D0A535441438B
:1004C0004B2044554D500D0A004546476566670070
:1004D000202B2D2E30313233343536373839680001
:1004E00011241FBECFEFD1E4DEBFCDBF13E0A0E0EB
:1004F000B2E0E8E6F6E600E00BBF02C007900D921E
:10050000A83DB107D9F716E0A8EDB3E001C01D92F0
:10051000AB3CB107E1F70E9449030C9432330C94D1
:100520006825CF93DF9300D000D080E092E0ADB794
:10053000BEB712969C938E93119714961C921E929E
:1005400013970E941D310F900F900F900F900E94F3
:10055000821E00D000D0EDB7FEB731962AE132E01E
:10056000ADB7BEB712963C932E9311978283138238
:100570000E941D310F900F900F900F9080E061E06E
:1005800070E040E45CE92CEE32E00E9428258130E6
:1005900019F48EE691E002C08CE491E00E945707C6
:1005A00080E00E940A2580E00E941F25C9E2D2E077
:1005B00080E00E94142500D000D0EDB7FEB7D283B2
:1005C000C183948383830E941D310F900F900F90FD
:1005D0000F900E94EF1DECCF82E090E00E94B80ADD
:1005E000089581E992E09093E4038093E30385E822
:1005F00094E09093E0038093DF0385E094E0909390
:10060000E2038093E10381E08093E6038093E503B6
:100610008093E7038093E8031092E9031092EA03C2
:100620001092EB031092EC0380E892EBA6EEBEE092
:100630008093ED039093EE03A093EF03B093F00348
:100640001092F1031092F2031092F3031092F4034C
:1006500080E890EFAAEFB2E08093F5039093F60361
:10066000A093F703B093F8031092F9031092FA03E2
:100670001092FB031092FC031092FD031092FE03F4
:100680001092FF03109200048EED93E00E943B1C39
:1006900008950E94770780E190E00E943B0B85E877
:1006A00091E00E9457070E94140C60E070E0CB01BB
:1006B00020E030E0A9010E94F31F0E94F1020E9495
:1006C000DD0C80E090E00895909141019F719F3191
:1006D000D9F3809342010895809141018F718F3148
:1006E000D9F3809141018F71D1F08F30C1F08091A9
:1006F00041018F71883041F088E00E94640380914D
:1007000041018F718830D9F78091390182608093DF
:100710003901809141018F7111F08F30D1F7089527
:10072000809141018F718F31D9F3809141018F7197
:1007300011F08F3051F4809139018D7F8093390110
:10074000809141018F718830D9F70895E5E4F1E097
:100750009081907F908390818F70892B8083089502
:10076000E7E5F1E080818D7F80830895E7E5F1E0A2
:100770008081826080830895EEE6F1E080818F7E43
:1007800080830895EEE6F1E08081806180830895A2
:1007900080936001909361019093190580931805EF
:1007A00008959093130580931205E8E4F1E08081A9
:1007B000807E80838081682B608308959093D90325
:1007C0008093D80308951F9370E27093440170ECF6
:1007D0007093450160626093480165EC6093490144
:1007E00067EA60934B0160E860934C0120936001DD
:1007F000309361014093620150936301E6E4F1E0BC
:100800001081A081608170811295169517701295E4
:10081000110F110F107C729576957370172BA2959E
:10082000A695A770B0E0A370B07074E0AA0FBB1FCC
:100830007A95E1F71A2B62956695677070E06370A0
:100840007070660F771F660F771F162B10936D0160
:100850006081E081E295E695E370E06462956695DB
:10086000677070E063707070660F771FE62BE0931F
:100870006E0110926C016FEF60934E01909313051F
:1008800080931205109214051092150550931705C8
:1008900040931605309319052093180510921A05F8
:1008A00081E08093240510923305109223051F9157
:1008B000089586E10E946403089586E10E9464031E
:1008C000089588E00E9464031092330508952F92E2
:1008D0003F924F925F927F928F929F92AF92BF9280
:1008E000CF92DF92EF92FF920F931F93CF93DF93FC
:1008F000EC011B0180912405882309F401C18E813C
:10090000909114059F5F90931405E1E8F1E08170E8
:100910008295880F807281648093810188E8818349
:100920008091140582839091630180916201392F37
:1009300020E090E0822B932B94838383888199819C
:10094000968385839091610180916001392F20E029
:1009500090E0822B932B908787834A81242F332723
:1009600027FD30956B817C818AE891E0532F0E94AE
:100970009D308A81855F80938001709041018FE175
:100980007822872D81508230C0F3872D8131A9F3E1
:10099000823199F38F3189F3883039F0863029F02C
:1009A000863119F0893009F0ABC086E10E946403FA
:1009B0008D81882369F08091480180688093480187
:1009C0008091410187FFFCCF8091410186FF98C053
:1009D00089E00E9464038E81882319F089E10E94D6
:1009E000640321143104A9F18BE195E00E94881E73
:1009F00080911B0590911C05A0911D05B0911E05CD
:100A00008093250590932605A0932705B09328058C
:100A1000B10180E090E020E432E44FE050E00E9439
:100A2000063020911F0530912005409121055091FD
:100A30002205620F731F841F951F60932905709311
:100A40002A0580932B0590932C0585E295E00E9462
:100A5000751F1092230582E00E94640344245524EC
:100A600008C00894411C511C88EE48168DEF5806AA
:100A700021F0809123058823A1F32114310459F139
:100A80008BE195E00E94881E84E395E000912505A6
:100A900010912605209127053091280540912905C0
:100AA00050912A0560912B0570912C0580901B05B3
:100AB00090901C05A0901D05B0901E05C0901F05CC
:100AC000D0902005E0902105F09022050E94E61EBE
:100AD0008F3F09F0BECF8E81882331F08091420193
:100AE00082958695877029F488EE48168DEF580612
:100AF00011F41FEF01C011E0872D0E94640301C0B3
:100B00001FEF812FDF91CF911F910F91FF90EF90F9
:100B1000DF90CF90BF90AF909F908F907F905F902D
:100B20004F903F902F90089560E070E00E9467041E
:100B300008950F931F9380912405882349F1109104
:100B400041011F71812F81508230C8F31131B9F3F7
:100B50001231A9F31F3199F3183021F0163011F03A
:100B60001631B1F486E10E946403809148018068E7
:100B7000809348018091410187FFFCCF00914101A2
:100B8000812F0E94640381E006FD03C080E001C064
:100B90008FEF1F910F91089580912405882309F408
:100BA00084C080913305882309F481C080917B0142
:100BB000E0911205F091130590E00297248133270C
:100BC00027FD3095281739070CF473C0E091120502
:100BD000F0911305809182018083E0911205F091DC
:100BE0001305809187019091880192838183E09120
:100BF0001205F091130580917B018B508383A091A6
:100C00001205B0911305E0911205F09113051396AA
:100C10009C911397848189173CF0E0911205F09123
:100C20001305838187FF0DC01092330580914C011D
:100C30008F7780934C0180914C01806880934C01A8
:100C400034C0E0911205F0911305A0911205B09106
:100C5000130513964C91242F332727FD309585815A
:100C6000968169E871E0532F0E949D30E091120552
:100C7000F09113058091800182958695817087831C
:100C8000E0911205F0911305809147018087109241
:100C9000330580914C018F7780934C0180914C01FA
:100CA000806880934C0181E008958FEF089580E083
:100CB00008958FEF08951F920F920FB60F9211248F
:100CC0008F939F9380E001C08F5F90917B01891784
:100CD000D8F38091460187FF03C081E080933305FC
:100CE00088E080934F019F918F910F900FBE0F90DE
:100CF0001F9018951F920F920FB60F9211248F9389
:100D000080E880934F018F910F900FBE0F901F903E
:100D100018951F920F920FB60F9211248F9381E0B6
:100D20008093230580E480934F018F910F900FBE35
:100D30000F901F9018951F920F920FB60F921124CB
:100D40008F9380E280934F018F910F900FBE0F9091
:100D50001F9018951F920F920FB60F9211248F9328
:100D600080E180934F018F910F900FBE0F901F90E5
:100D700018951F920F920FB60F920BB60F92112477
:100D80002F933F934F935F936F937F938F939F9393
:100D9000AF93BF93EF93FF9384E080934F01E09173
:100DA000D803F091D903309709F00995FF91EF919D
:100DB000BF91AF919F918F917F916F915F914F9173
:100DC0003F912F910F900BBE0F900FBE0F901F9071
:100DD00018951F920F920FB60F9211248F9382E0F5
:100DE00080934F018F910F900FBE0F901F90189519
:100DF0001F920F920FB60F9211248F9381E0809370
:100E00004F018F910F900FBE0F901F901895E9E43E
:100E1000F1E09081907F908390818F70892B808307
:100E200008958FEF08950895089508958FEF089518
:100E300080910E0590910F05089580E00895089522
:100E400081E0089581E0089581E00895089508956E
:100E50000895089508950895089508958091C00013
:100E600087FFFCCF8091C0008F778093C000809176
:100E7000C60008959091C00095FFFCCF9091C000EE
:100E80009F7D9093C0008093C60008958FEF0895D2
:100E9000813019F48091C80004C0882331F4809116
:100EA000C000881F8827881F089580E00895CF9389
:100EB000DF93EC0107C06091C3067091C40690E017
:100EC0000E94F130FE01219684918823A1F7DF91E1
:100ED000CF91089586E084B985B988EF8AB980EF0B
:100EE0008BB982E08EB980E681B9169A08950E9486
:100EF0006A0708958F3F09F471C0282F30E02770EA
:100F000030702230310589F12330310544F4211548
:100F1000310589F02130310509F062C01AC0243052
:100F2000310509F43FC02430310574F12530310515
:100F300009F056C045C092B186958695869541E0E8
:100F400050E002C0440F551F8A95E2F7942B92B9E6
:100F500019C095B186958695869502C0220F331FDC
:100F60008A95E2F7922B95B90DC098B18695869532
:100F7000869541E050E002C0440F551F8A95E2F784
:100F8000942B98B981E008959BB1869586958695B6
:100F900041E050E002C0440F551F8A95E2F7942BC0
:100FA0009BB9F0CF9EB186958695869541E050E03D
:100FB00002C0440F551F8A95E2F7942B9EB9E2CFE9
:100FC00091B386958695869541E050E002C0440F26
:100FD000551F8A95E2F7942B91BBD4CF8FEF0895DC
:100FE0008FEF08958F3F09F477C0282F30E02770E6
:100FF00030702230310599F12330310544F4211548
:10100000310589F02130310509F068C01BC024305A
:10101000310509F443C0243031058CF12530310508
:1010200009F05CC04AC092B186958695869541E0EC
:1010300050E002C0440F551F8A95E2F740954923BE
:1010400042B91BC095B186958695869502C0220F40
:10105000331F8A95E2F72095292325B90EC098B150
:1010600086958695869541E050E002C0440F551F55
:101070008A95E2F74095492348B981E008959BB1EC
:1010800086958695869541E050E002C0440F551F35
:101090008A95E2F7409549234BB9EFCF9EB18695EB
:1010A0008695869541E050E002C0440F551F8A9511
:1010B000E2F7409549234EB9E0CF91B386958695E6
:1010C000869541E050E002C0440F551F8A95E2F733
:1010D0004095492341BBD1CF8FEF08958FEF0895FD
:1010E0008F3F89F1282F30E0277030702230310592
:1010F000C1F0233031053CF42115310571F0213068
:10110000310509F50CC02430310579F02430310562
:1011100054F025303105B9F40AC020B109C023B11B
:1011200007C026B105C029B103C02CB101C02FB141
:1011300030E086958695869502C0359527958A95E7
:10114000E2F7217001C02FEF822F08958F3F09F43D
:10115000FAC0282F30E0277030702230310509F4B2
:1011600059C02330310544F42115310591F0213067
:10117000310509F0EAC033C02430310509F497C0C5
:10118000243031050CF46CC02530310509F0DDC088
:10119000B4C090B1869586958695282F892F90E0CA
:1011A000022E02C0959587950A94E2F780FD0BC048
:1011B00032B181E090E002C0880F991F2A95E2F7D2
:1011C000382B32B966C032B181E090E002C0880F9E
:1011D000991F2A95E2F78095832382B95AC043B1BB
:1011E00086958695869550E0082E02C055954795C0
:1011F0000A94E2F702C0220F331F8A95E2F740FDFE
:1012000004C085B1822B85B944C085B120952823BF
:1012100025B93FC096B1869586958695282F892F4A
:1012200090E0022E02C0959587950A94E2F780FD22
:101230000BC038B181E090E002C0880F991F2A9559
:10124000E2F7382B38B925C038B181E090E002C010
:10125000880F991F2A95E2F78095832388B919C0D2
:1012600099B1869586958695282F892F90E0022E34
:1012700002C0959587950A94E2F780FD0CC03BB1BA
:1012800081E090E002C0880F991F2A95E2F7382B81
:101290003BB981E008953BB181E090E002C0880F46
:1012A000991F2A95E2F7809583238BB9F2CF9CB1E1
:1012B000869586958695282F892F90E0022E02C06C
:1012C000959587950A94E2F780FD0BC03EB181E0C9
:1012D00090E002C0880F991F2A95E2F7382B3EB99B
:1012E000D8CF3EB181E090E002C0880F991F2A95C7
:1012F000E2F7809583238EB9CCCF9FB186958695F2
:101300008695282F892F90E0022E02C0959587950B
:101310000A94E2F780FD0BC031B381E090E002C097
:10132000880F991F2A95E2F7382B31BBB2CF31B322
:1013300081E090E002C0880F991F2A95E2F780951E
:10134000832381BBA6CF8FEF08958FEF08958F3F42
:1013500009F401C1282F30E0662309F08DC0277001
:10136000307022303105E1F12330310544F421158C
:10137000310591F02130310509F0EDC020C0243055
:10138000310509F453C0243031050CF43CC025303C
:10139000310509F0E0C05DC091B1869586958695CE
:1013A00041E050E002C0440F551F8A95E2F7842FB8
:1013B0008095892381B982B1842B82B9CAC094B146
:1013C00086958695869502C0220F331F8A95E2F78F
:1013D000822F8095892384B985B1822B85B9B9C0C4
:1013E00097B186958695869541E050E002C0440FFE
:1013F000551F8A95E2F7842F8095892387B988B194
:10140000842B88B9A6C09AB186958695869541E0C9
:1014100050E002C0440F551F8A95E2F7842F809553
:1014200089238AB98BB1842B8BB993C09DB18695E2
:101430008695869541E050E002C0440F551F8A957D
:10144000E2F7842F809589238DB98EB1842B8EB9D4
:1014500080C090B386958695869541E050E002C0A5
:10146000440F551F8A95E2F7842F8095892380BB0E
:1014700081B3842B81BB6DC0277030702230310561
:1014800089F12330310544F42115310589F02130EB
:10149000310509F062C01AC02430310509F43EC09C
:1014A000243031056CF12530310509F056C044C0B7
:1014B00091B186958695869541E050E002C0440F33
:1014C000551F8A95E2F7942B91B943C094B1869544
:1014D0008695869502C0220F331F8A95E2F7922BDC
:1014E00094B937C097B186958695869541E050E0CE
:1014F00002C0440F551F8A95E2F7942B97B929C073
:101500009AB186958695869541E050E002C0440FD9
:10151000551F8A95E2F7942B9AB91BC09DB1869509
:101520008695869541E050E002C0440F551F8A958C
:10153000E2F7942B9DB90DC090B38695869586955C
:1015400041E050E002C0440F551F8A95E2F7942B0A
:1015500090BB81E008958FEF08958FEF0895882361
:1015600029F481E0019B03C080E008958FEF089586
:10157000009711F483E20EC08130910511F48BE2E3
:1015800009C08230910511F483E304C083309105D2
:1015900029F48BE30E94A60881E008958FEF089557
:1015A000009711F483E20EC08130910511F48BE2B3
:1015B00009C08230910511F483E304C083309105A2
:1015C00029F48BE30E947A0781E008958FEF089554
:1015D000009711F483E20EC08130910511F48BE283
:1015E00009C08230910511F483E304C08330910572
:1015F00029F48BE30E94F20781E008958FEF0895AC
:10160000882319F085B78F7E02C085B7806185BFBA
:1016100081E008959091C80095FFFCCF8093CE00A3
:1016200008959093C5008093C40086E08093C20023
:10163000E1ECF0E080818B7F8083A0ECB0E08C91C6
:1016400082608C9380818861808308959093CD001F
:101650008093CC0086E08093CA00E9ECF0E08081C2
:101660008B7F8083A8ECB0E08C9182608C9380812A
:101670008861808308950F931F93CF93DF930E9417
:10168000110BCAE3D7E00EE217E0CE01B8010E94C9
:10169000A6309093C4068093C306CE01B8010E9481
:1016A000A6309093C2068093C106DF91CF911F911F
:1016B0000F9108958091C80087FFFCCF8091C800EA
:1016C0008F778093C8008091CE00089500000000BD
:1016D000000000000197D1F708950E94BD310895E0
:1016E0000E94C5310895EF92FF920F931F93CF93FD
:1016F000DF93E82EE7017E01F92EE70180E090E01C
:101700000E94BD31082F8B8381E090E00E94BD31A3
:10171000E82E8A8382E090E00E94BD31F82E898312
:1017200083E090E00E94BD31182F888384E090E030
:101730000E94BD31FE0CF00EF10E8F1511F481E008
:1017400001C08FEFDF91CF911F910F91FF90EF902C
:101750000895CF93DF93EC0185E090E00E94BD31C6
:10176000888381E0DF91CF910895FC0186E090E0CD
:1017700060810E94C53181E00895CF93DF93EC0131
:1017800086E090E00E94BD31888381E0DF91CF91B7
:1017900008950F931F93CF93DF93082F192FC8E05D
:1017A000D0E0CE010E94BD31F80181938F012196D6
:1017B000C831D105B1F781E0DF91CF911F910F9131
:1017C00008950F931F93CF93DF93082F192FC8E02D
:1017D000D0E0F80161918F01CE010E94C5312196C0
:1017E000C831D105B1F781E0DF91CF911F910F9101
:1017F0000895CF93DF93EC0187E090E00E94BD3124
:10180000888381E0DF91CF910895FC0187E090E02B
:1018100060810E94C53181E00895F894089578941C
:1018200008950E940D0CFFCF0F931F93DF93CF936A
:10183000CDB7DEB7A3970FB6F894DEBF0FBECDBF0E
:101840000E9441188093E9058F3F21F48EE060E00B
:101850000E94C9160E94EF2580FF04C086E060E068
:101860000E94C9160E94A5278F3F31F40E94862747
:1018700080E160E00E94C9160E9495271092F4054D
:1018800010920206109201061092EB051092EA05E2
:10189000109203060E940C0E109200068FEF8093A8
:1018A000E5058093E7058093E60593E69093480568
:1018B00080934605909369058093670590938A0508
:1018C000809388059093AB058093A9059093CC05F0
:1018D0008093CA05EDE9F6E020E030E001C09A010E
:1018E000A9014F5F5F4FCA01880F991F880F991F89
:1018F000840F951F8656994F91838083C901880F65
:10190000991F880F991F820F931F8656994F9483B2
:10191000838335964530510511F710929C0610923D
:101920009B061092B7061092B6061092F705109219
:10193000F6058AE996E090933D0580933C058E017B
:101940000F5F1F4FC80163E571E20E94C627C801FF
:101950006AE874E040E850E00E94CA2785E5809379
:101960008A0419861C861D861E861F86188A198A77
:101970001A8A1B8A1C8A1D8A1E8A1F8A188E198E33
:101980001A8E1B8E1C8E1D8E1E8E1F8E18A219A2E3
:101990001AA21BA281E0888792E09A878B87C801F0
:1019A0000E943B1CA3960FB6F894DEBF0FBECDBFBE
:1019B000CF91DF911F910F910895CF92DF92FF9207
:1019C0000F931F93DF93CF9300D0CDB7DEB7B6E46C
:1019D000CB2EB5E0DB2E90E0F601F080FF2DFF3F2F
:1019E000B1F006E415E020E0921761F0F801808183
:1019F000F81641F485E06F2D29839A830E94C91659
:101A00009A8129812F5F0F5D1F4F253069F79F5FF6
:101A100021E230E0C20ED31E9530F1F60E94291B60
:101A2000992787FD9095FC01A5E0EE0FFF1FAA9571
:101A3000E1F7E80FF91FE25CFA4F82858093030615
:101A4000F0930206E0930106F093EB05E093EA05BC
:101A50008093F4050E942A280E9414280E942F28AF
:101A6000FFCFEF92FF920F931F93CF93DF93EC0181
:101A70007B018A018985823021F08091E805888385
:101A800001C018828091E805853020F087E060E091
:101A90000E94C9168985823029F08091E8058F5F00
:101AA0008093E8058091E805882319F481E080930C
:101AB000E8058881992787FD9095FC01A5E0EE0F48
:101AC000FF1FAA95E1F7E80FF91FE25CFA4FF182D8
:101AD000E082888582878881992787FD9095FC011F
:101AE00075E0EE0FFF1F7A95E1F7E80FF91FE25C52
:101AF000FA4F83E081872881822F992787FD90956F
:101B0000FC0165E0EE0FFF1F6A95E1F7E80FF91F92
:101B1000E25CFA4F20878881992787FD90957C01A8
:101B200055E0EE0CFF1C5A95E1F7E80EF91E8EE326
:101B300095E0E80EF91EF7011582CE010B960E9482
:101B40000420F701948F838F8B859C85AD85BE859E
:101B50008E339105A105B10520F086E168810E94D0
:101B6000C916E880FF24E7FCF094CE014B960E9452
:101B70000420F70145E0EE0FFF1F4A95E1F7EE0D57
:101B8000FF1DE25CFA4F968B858B8881992787FD34
:101B900090957C0135E0EE0CFF1C3A95E1F7E80EDC
:101BA000F91E8EE395E0E80EF91EF7018589968906
:101BB000238D348D820F931F908F878BCE01439698
:101BC0000E940420F701968F858F8881992787FDD1
:101BD0009095FC0125E0EE0FFF1F2A95E1F7E80F35
:101BE000F91FE25CFA4F858D968D928F818F81E08F
:101BF00090E090A3878F1383028381E08487DF9135
:101C0000CF911F910F91FF90EF9008950E9479213D
:101C1000089585E690E008951092EC051092ED0588
:101C20001092EE051092EF051092F0051092F1055A
:101C30001092F2051092F305E4E0F6E010821182B2
:101C400012821382108611861286138614821582E0
:101C5000168217821486158616861786108A118AB0
:101C6000128A138A108E118E128E138E148E158E78
:101C70007E9686E0EA39F80709F70895682F70E044
:101C800080E090E023EB36EE4EE050E00E9406301C
:101C90002091F0053091F1054091F2055091F30546
:101CA000620F731F841F951F6093F0057093F105F9
:101CB0008093F2059093F3058CEE95E00E94751FDA
:101CC0000895FC012091EC053091ED054091EE0561
:101CD0005091EF0520833183428353832091F00597
:101CE0003091F1054091F2055091F305248335833D
:101CF000468357830895E82FF0E09F01220F331F9A
:101D0000A5E0EE0FFF1FAA95E1F7E21BF30BEC5FD6
:101D1000F94F958D913089F1E82FF0E09F01220F66
:101D2000331F65E0EE0FFF1F6A95E1F7E21BF30B2F
:101D3000EC5FF94F948D9F5FE82FF0E09F01220F39
:101D4000331F45E0EE0FFF1F4A95E1F7E21BF30B4F
:101D5000EC5FF94F948F9F3F81F4E82FF0E0CF01C3
:101D6000880F991F25E0EE0FFF1F2A95E1F7E81B6A
:101D7000F90BEC5FF94F81E0858F0895E82FF0E0D3
:101D80009F01220F331F75E0EE0FFF1F7A95E1F7D9
:101D9000E21BF30BEC5FF94F958D913009F452C0C3
:101DA000E82FF0E09F01220F331F55E0EE0FFF1FD9
:101DB0005A95E1F7E21BF30BEC5FF94F148A158A91
:101DC000168A178AE82FF0E09F01220F331F95E053
:101DD000EE0FFF1F9A95E1F7E21BF30BEC5FF94F53
:101DE00020893189428953892F5F3F4F4F4F5F4F81
:101DF000E82FF0E0BF01660F771FA5E0EE0FFF1F91
:101E0000AA95E1F7E61BF70BEC5FF94F208B318BBE
:101E1000428B538B2E3F9FEF39079FEF49079FEF70
:101E2000590781F4E82FF0E0CF01880F991F25E0D2
:101E3000EE0FFF1F2A95E1F7E81BF90BEC5FF94F56
:101E400081E0858F0895EF92FF92CF93DF93A82FC3
:101E5000E82FF0E0CF01880F991F75E0EE0FFF1F0C
:101E60007A95E1F7E81BF90BEC5FF94F858D81302E
:101E700009F4B1C0EA2FF0E0CF01880F991F45E0C7
:101E8000EE0FFF1F4A95E1F7E81BF90BEC5FF94FE6
:101E9000EA2EE7017E0120E0F22EE701C701880F5C
:101EA000991F25E0CC0FDD1F2A95E1F7C81BD90B40
:101EB000CC5FD94F288D398D4A8D5B8D2F5F3F4F79
:101EC0004F4F5F4F208F318F428F538F70E080E0F4
:101ED00090E0EA2FF0E09F01220F331F55E0EE0F54
:101EE000FF1F5A95E1F7E21BF30BEC5FF94FEA2E67
:101EF000E7017E0120E0F22EE7019701220F331F58
:101F0000B5E0CC0FDD1FBA95E1F7C21BD30BCC5F58
:101F1000D94F2C893D894E895F89260F371F481F6D
:101F2000591F248B358B468B578BEA2FF0E09F018E
:101F3000220F331F45E0EE0FFF1F4A95E1F7E21B2A
:101F4000F30BEC5FF94FEA2EE7017E0120E0F22E61
:101F5000E7019701220F331F55E0CC0FDD1F5A9583
:101F6000E1F7C21BD30BCC5FD94F288139814A815D
:101F70005B81260F371F481F591F208331834283FF
:101F80005383EA2FF0E0CF01880F991F35E0EE0F61
:101F9000FF1F3A95E1F7E81BF90BEC5FF94F208D35
:101FA000318D428D538D2E3F8FEF38078FEF4807CD
:101FB0008FEF580781F4EA2FF0E0CF01880F991FC7
:101FC000B5E0EE0FFF1FBA95E1F7E81BF90BEC5FE8
:101FD000F94F81E0858FDF91CF91FF90EF900895C9
:101FE000EF92FF92CF93DF93E82FA82FB0E0CD01BF
:101FF000880F991F75E0AA0FBB1F7A95E1F7A81B00
:10200000B90BAC5FB94F5D968C915D97813009F447
:10201000FAC070E080E090E0AE2FB0E09D01220FAA
:10202000331F45E0AA0FBB1F4A95E1F7A21BB30B74
:10203000AC5FB94FEE2EE7017E0120E0F22EE70102
:102040009701220F331F55E0CC0FDD1F5A95E1F7A2
:10205000C21BD30BCC5FD94F2C893D894E895F8938
:10206000260F371F481F591F1C962D933D934D93E4
:102070005C931F97AE2FB0E09D01220F331FF5E058
:10208000AA0FBB1FFA95E1F7A21BB30BAC5FB94FC8
:10209000EE2EE7017E0120E0F22EE7019701220FEC
:1020A000331F45E0CC0FDD1F4A95E1F7C21BD30B70
:1020B000CC5FD94F288139814A815B81260F371F38
:1020C000481F591F2D933D934D935C931397AE2F4B
:1020D000B0E0CD01880F991FF5E0AA0FBB1FFA955C
:1020E000E1F7A81BB90BAC5FB94F14962D913D9148
:1020F0004D915C9117972115310541055105C9F0A6
:10210000AE2FB0E0CD01880F991F65E0AA0FBB1F6D
:102110006A95E1F7A81BB90BAC5FB94F1C968D917E
:102120009D910D90BC91A02D82179307A407B50730
:1021300050F58E2FEC017E0120E0F22EE701C70161
:10214000880F991F45E0CC0FDD1F4A95E1F7C81BAA
:10215000D90BCC5FD94FAE2FB0E0CD01880F991FBE
:1021600025E0AA0FBB1F2A95E1F7A81BB90BAC5FAE
:10217000B94F1C968D919D910D90BC91A02D8C8393
:102180009D83AE83BF83AE2FB0E0CD01880F991F32
:1021900075E0AA0FBB1F7A95E1F7A81BB90BAC5FDE
:1021A000B94F1C962D913D914D915C911F97AE2F8B
:1021B000B0E0CD01880F991FF5E0AA0FBB1FFA957B
:1021C000E1F7A81BB90BAC5FB94F18966D917D91E3
:1021D0008D919C911B97621773078407950798F45C
:1021E0008E2F90E0BC01660F771FFC0185E0EE0F9B
:1021F000FF1F8A95E1F7E61BF70BEC5FF94F20878D
:10220000318742875387DF91CF91FF90EF900895F8
:102210008F929F92AF92BF92CF92DF92EF92FF92F6
:102220001F93DF93CF93CDB7DEB760970FB6F894C7
:10223000DEBF0FBECDBF182F87E792E00E94570781
:1022400000D000D0EDB7FEB7319684E592E0ADB78F
:10225000BEB712969C938E931197128313820E949D
:102260001D310F900F900F900F90112309F085C032
:102270008CE592E00E945707CE0101960E94881ECD
:10228000EDB7FEB73A970FB6F894FEBF0FBEEDBF9D
:102290008DB69EB60894811C911C37E5A32E32E0C2
:1022A000B32EB282A18289819A81AB81BC81F40173
:1022B00082839383A483B5836D817E818F8198858A
:1022C00020E4C22E22E4D22E2FE0E22EF12CA70130
:1022D00096010E943930D40116962D933D934D936B
:1022E0005C9319970E941D31EDB7FEB73A960FB671
:1022F000F894FEBF0FBEEDBF8BE392E00E9457073C
:102300008DB79EB70A970FB6F8949EBF0FBE8DBFCC
:102310008DB69EB60894811C911CADB7BEB71296BF
:10232000BC92AE9211978091EC059091ED05A09131
:10233000EE05B091EF05F40182839383A483B58306
:102340006091F0057091F1058091F2059091F3058F
:10235000A70196010E943930D40116962D933D9322
:102360004D935C9319970E941D31EDB7FEB73A96D5
:102370000FB6F894FEBF0FBEEDBF8AE292E00E9456
:102380005707E12FF0E0CF01880F991FA5E0EE0F6E
:10239000FF1FAA95E1F7E81BF90BEC5FF94F60818D
:1023A0007181828193810E94932029873A874B878C
:1023B0005C876D877E878F87988BDE011196FE0183
:1023C000399688E001900D928150E1F78DB79EB764
:1023D0000A970FB6F8949EBF0FBE8DBFCDB6DEB67E
:1023E0000894C11CD11C87E592E0ADB7BEB7129628
:1023F0009C938E93119789819A81AB81BC81F60160
:1024000082839383A483B5836D817E818F81988538
:1024100020E432E44FE050E00E943930D6011696B5
:102420002D933D934D935C9319970E941D31EDB709
:10243000FEB73A960FB6F894FEBF0FBEEDBF8FE021
:1024400092E00E945707E12FF0E0CF01880F991F1B
:1024500065E0EE0FFF1F6A95E1F7E81BF90BEC5FF3
:10246000F94F64817581868197810E949320298725
:102470003A874B875C876D877E878F87988BDE01D5
:102480001196FE01399688E001900D928150E1F796
:102490008DB79EB70A970FB6F8949EBF0FBE8DBF3B
:1024A000CDB6DEB60894C11CD11C87E692E0ADB76C
:1024B000BEB712969C938E93119789819A81AB81B6
:1024C000BC81F60182839383A483B5836D817E8171
:1024D0008F81988520E432E44FE050E00E9439304B
:1024E000D60116962D933D934D935C9319970E94B8
:1024F0001D31EDB7FEB73A960FB6F894FEBF0FBE8A
:10250000EDBFE12FF0E0CF01880F991F45E0EE0FFE
:10251000FF1F4A95E1F7E81BF90BEC5FF94F648563
:102520007585868597850E94932029873A874B87F2
:102530005C876D877E878F87988BDE011196FE0101
:10254000399688E001900D928150E1F78DB79EB7E2
:102550000A970FB6F8949EBF0FBE8DBFCDB6DEB6FC
:102560000894C11CD11C87E692E0ADB7BEB71296A5
:102570009C938E93119789819A81AB81BC81F601DE
:1025800082839383A483B5836D817E818F819885B7
:1025900020E432E44FE050E00E943930D601169634
:1025A0002D933D934D935C9319970E941D31EDB788
:1025B000FEB73A960FB6F894FEBF0FBEEDBFE12FFF
:1025C000F0E0CF01880F991F25E0EE0FFF1F2A953D
:1025D000E1F7E81BF90BEC5FF94F608571858285A7
:1025E00093850E94932029873A874B875C876D8764
:1025F0007E878F87988BDE011196FE01399688E0E1
:1026000001900D928150E1F78DB79EB70A970FB6F2
:10261000F8949EBF0FBE8DBFCDB6DEB60894C11C28
:10262000D11C87E592E0ADB7BEB712969C938E930E
:10263000119789819A81AB81BC81F6018283938352
:10264000A483B5836D817E818F81988520E432E4F7
:102650004FE050E00E943930D60116962D933D93FD
:102660004D935C9319970E941D31EDB7FEB73A96D2
:102670000FB6F894FEBF0FBEEDBF8FEF91E00E9442
:10268000570700D000D000D089E7C82E82E0D82EAE
:10269000ADB7BEB71296DC92CE921197E12FF0E063
:1026A000CF01880F991FA5E0EE0FFF1FAA95E1F754
:1026B000E81BF90BEC5FF94F80899189A289B389F6
:1026C000EDB7FEB783839483A583B6830E941D3143
:1026D0008DB79EB706960FB6F8949EBF0FBE8DBFFE
:1026E0008CEE91E00E94570700D000D000D0ADB72B
:1026F000BEB71296DC92CE921197E12FF0E0CF0197
:10270000880F991F65E0EE0FFF1F6A95E1F7E81B40
:10271000F90BEC5FF94F808D918DA28DB38DEDB7E4
:10272000FEB783839483A583B6830E941D318DB742
:102730009EB706960FB6F8949EBF0FBE8DBF83ED71
:1027400091E00E94570700D000D0ADB7BEB71196F8
:102750005DE7C52E52E0D52EEDB7FEB7D282C1821D
:10276000E12FF0E0CF01880F991F35E0EE0FFF1F3A
:102770003A95E1F7E81BF90BEC5FF94F848D12965F
:102780008C93129713961C920E941D310F900F90FC
:102790000F900F9086EB91E00E94570700D000D079
:1027A000ADB7BEB71196EDB7FEB7D282C182E12FA9
:1027B000F0E0CF01880F991F15E0EE0FFF1F1A956B
:1027C000E1F7E81BF90BEC5FF94F858D12968C93BE
:1027D000129713961C920E941D310F900F900F902C
:1027E0000F9083EB91E00E94570760960FB6F89424
:1027F000DEBF0FBECDBFCF91DF911F91FF90EF9055
:10280000DF90CF90BF90AF909F908F90089586E912
:1028100091E00E94570780E00E94081181E00E9429
:10282000081182E00E94081183E00E94081184E0F0
:102830000E9408110895FB01853008F0CBC0A82F35
:10284000B0E09D01220F331F55E0AA0FBB1F5A9520
:10285000E1F7A21BB30BAC5FB94F2D913D914D91A8
:102860005C912083318342835383A82FB0E09D0184
:10287000220F331F95E0AA0FBB1F9A95E1F7A21B09
:10288000B30BAC5FB94F14962D913D914D915C9176
:1028900017972483358346835783A82FB0E09D0183
:1028A000220F331F65E0AA0FBB1F6A95E1F7A21B39
:1028B000B30BAC5FB94F18962D913D914D915C9142
:1028C0001B972087318742875387A82FB0E09D014F
:1028D000220F331F45E0AA0FBB1F4A95E1F7A21B49
:1028E000B30BAC5FB94F1C962D913D914D915C910E
:1028F0001F972487358746875787A82FB0E09D010B
:10290000220F331F75E0AA0FBB1F7A95E1F7A21BB8
:10291000B30BAC5FB94F50962D913D914D915C91A9
:102920005397208B318B428B538BA82FB0E09D01A6
:10293000220F331F55E0AA0FBB1F5A95E1F7A21BC8
:10294000B30BAC5FB94F54962D913D914D915C9175
:102950005797248B358B468B578BA82FB0E09D0162
:10296000220F331F95E0AA0FBB1F9A95E1F7A21B18
:10297000B30BAC5FB94F58962D913D914D915C9141
:102980005B97208F318F428F538FA82FB0E09D012E
:10299000220F331F65E0AA0FBB1F6A95E1F7A21B48
:1029A000B30BAC5FB94F5C969C91948FA82FB0E0AD
:1029B000CD01880F991F45E0AA0FBB1F4A95E1F78B
:1029C000A81BB90BAC5FB94F5D968C915D97858F55
:1029D00081E008958FEF0895E0910106F0910206DD
:1029E00084870895E0910106F09102068485089598
:1029F00020918904222341F0FB0120832091DC03F4
:102A0000FC01208381E0089580E00895DF93CF9357
:102A10000F92CDB7DEB7198207C080ED97E00E9414
:102A20001D2489818F5F898389818436B0F30F905B
:102A3000CF91DF91089582E090E00E94E80A0E9421
:102A4000061582E090E00E94D00A0E9406150895C3
:102A500082E090E00E94E80A0E9406150E94061596
:102A60000E94061582E090E00E94D00A0E9406159E
:102A70000895FF920F931F93DF93CF9300D00F928F
:102A8000CDB7DEB700D000D000D0EDB7FEB731969D
:102A90008E010F5F1F4FADB7BEB712961C930E93FA
:102AA000119720E832E033832283848315820E94C9
:102AB0002F31EDB7FEB736960FB6F894FEBF0FBEB6
:102AC000EDBFFF2472C0800F911FDC018C91843315
:102AD000D1F1853370F48133F9F0823320F48033FF
:102AE00009F05CC016C0823311F1833309F056C07F
:102AF00023C08733C9F1883330F4853369F18633D5
:102B000009F04CC02CC08833B1F1893309F046C0BC
:102B10003BC00E94281502C00E941B150E94281568
:102B20000E9428150E9428150E94281537C00E946F
:102B30001B150E941B15F4CF0E941B150E941B152C
:102B40000E941B15EFCF0E941B150E941B150E94AF
:102B50001B150E941B15E8CF0E941B1502C00E9486
:102B600028150E941B1504C00E9428150E942815D4
:102B70000E941B1506C00E9428150E9428150E945D
:102B800028150E941B1508C00E9428150E942815B0
:102B90000E9428150E9428150E941B150E940615E8
:102BA0000E9406150E940615F394F801019000207A
:102BB000E9F73197E01BF10B8F2D90E08E179F07FF
:102BC00008F481CF0F900F900F90CF91DF911F915C
:102BD0000F91FF9008950F931F938091890488238C
:102BE00019F41F910F9108950E940D0C0E948627E1
:102BF0000E940D0C8EEA94E00E94570700D000D08E
:102C0000EDB7FEB7319680E892E0ADB7BEB7129649
:102C10009C938E9311978091DC03828313820E9490
:102C20001D310F900F900F900F908AEA94E00E9450
:102C3000570780918904883110F01092890480919F
:102C4000890490E001978631910508F04BC08057C8
:102C50009F4FFC01EE0FFF1F0590F491E02D0994AA
:102C60008EE694E041C087E494E03EC083E394E0C4
:102C70003BC08DE194E038C082E094E035C08CEE3A
:102C800093E032C084ED93E02FC081EC93E02CC040
:102C90008EEA93E029C080E993E026C08BE693E0BA
:102CA00023C08FE593E020C084E493E01DC085E35A
:102CB00093E01AC081E293E017C080E193E014C072
:102CC0008CEF92E011C08CED92E00EC084EC92E0AB
:102CD0000BC089EA92E008C088E992E005C089E863
:102CE00092E002C082E892E00E9457076091C3061A
:102CF0007091C4068DE090E00E94F1306091C306AF
:102D00007091C4068AE090E00E94F13010E01FC08C
:102D100082E090E00E94E80A83E090E00E94D00AFE
:102D200004E688EE93E00E941D240150D1F783E071
:102D300090E00E94E80A82E090E00E94D00A04E657
:102D400088EE93E00E941D240150D1F71F5F1431DB
:102D5000FCF283E090E00E94D00A82E090E00E94C2
:102D6000D00A8091DC030E9439150E94061582E08A
:102D700090E00E94E80A0E94061582E090E00E941E
:102D8000D00A0E940615809189040E94391510E02E
:102D9000BFCFEF92FF920F931F93182FE62E8093D1
:102DA00089046093DC030E94EB1500E021C082E0FF
:102DB00090E00E94E80A83E090E00E94D00A94E646
:102DC000F92E88EE93E00E941D24FA94D1F783E057
:102DD00090E00E94E80A82E090E00E94D00A84E637
:102DE000F82E88EE93E00E941D24FA94D1F70F5F2D
:102DF0000431E8F283E090E00E94D00A82E090E0A3
:102E00000E94D00A8E2D0E943915812F0E943915FB
:102E100000E0CDCF80938904E0910106F091020695
:102E200080858093DC030E94EB1508956F927F925A
:102E30008F929F92AF92BF92CF92DF92EF92FF92CA
:102E40000F931F93CF93DF938AEB94E00E94570771
:102E500000D000D083E892E0ADB7BEB712969C9345
:102E60008E931197E0910106F091020680859927D3
:102E700087FD909514969C938E9313970E941D3115
:102E8000E0910106F0910206C281D3818CE892E0C4
:102E9000EDB7FEB792838183D483C3830E941D3133
:102EA000EDB7FEB7319669E9E62E62E0F62EADB7D2
:102EB000BEB71296FC92EE9211978881828313829C
:102EC0000E941D3156EAC52E52E0D52EEDB7FEB751
:102ED000D282C182E0910106F09102068081918147
:102EE000ADB7BEB714969C938E9313970E941D3175
:102EF00040EBA42E42E0B42EEDB7FEB7B282A18221
:102F00008091010690910206948383830E941D3173
:102F10000EE315E00F900F900F900F90C0E0D0E0FF
:102F200030EC632E32E0732E4701C601DC2CC92E33
:102F3000C501BA2CA92ED8011296ED90FC901397DA
:102F400000D000D000D0EDB7FEB73196ADB7BEB718
:102F500012967C926E921197D383C283F582E4829B
:102F60000E941D310F900F90EDB7FEB73196ADB7AF
:102F7000BEB711968C92119712969C92D7018C91A4
:102F8000828313820E941D31EDB7FEB7D182C282C7
:102F9000D8018D919C91948383830E941D31EDB75C
:102FA000FEB7B182A282CE0125E0880F991F2A9533
:102FB000E1F78C0F9D1F825C9A4F948383830E945C
:102FC0001D3121960F5D1F4F0F900F900F900F90A6
:102FD000C530D10509F0AFCFDF91CF911F910F918F
:102FE000FF90EF90DF90CF90BF90AF909F908F9029
:102FF0007F906F900895CF93DF93E0910106F09159
:103000000206C281D3818881853539F00E94161766
:1030100081E00E940A1785E58883E0910106F0911E
:1030200002068081918122E28030920728F00E947E
:10303000161782E10E940A17DF91CF910895992710
:1030400087FD9095FC0175E0EE0FFF1F7A95E1F783
:10305000E80FF91FE25CFA4FA281B3818C918535AC
:1030600019F085E58C9309C08081918122E280303E
:10307000920728F082E10E940A178FEF089581E0FD
:10308000089560910104709102048091030490916D
:103090000404E0E0F0E09B01AC010E2E04C0569564
:1030A0004795379527950A94D2F720FD1AC021E05D
:1030B00030E040E050E00E2E04C0220F331F441FCA
:1030C000551F0A94D2F7262B372B482B592B2093C8
:1030D00001043093020440930304509304048E2FA0
:1030E00008953196E032F105B1F68FEF0895E09141
:1030F0000106F09102066585768587859089089599
:10310000DF92EF92FF920F931F93D82E81E0E82E6B
:10311000F12C012D112D0D2C04C0EE0CFF1C001FF5
:10312000111F0A94D2F78091010490910204A0919A
:103130000304B09104048E219F21A023B1230097A2
:10314000A105B10509F45DC00E940D0CE5E4F5E0B0
:10315000A8019701209530954095509563E08181B5
:103160008F3F39F186819781A085B1858E159F05A6
:10317000A007B10731F412861386148615861082D3
:10318000628386819781A085B18582239323A423BE
:10319000B52386839783A087B18782859385A4858D
:1031A000B58582239323A423B52382879387A4879D
:1031B000B587B19685E0EA3EF80789F62EEF3FEF36
:1031C0004FEF5FEF04C0220F331F441F551FDA94E7
:1031D000D2F78091010490910204A0910304B09170
:1031E000040482239323A423B523809301049093A2
:1031F0000204A0930304B09304040E940F0C81E026
:1032000001C08FEF1F910F91FF90EF90DF90089515
:10321000EF92FF920F931F9321E030E040E050E0E7
:1032200004C0220F331F441F551F8A95D2F7E09127
:103230000106F091020685859685A785B0897901FA
:103240008A01E822F9220A231B23E114F104010573
:103250001105D1F020953095409550958223932308
:10326000A423B52385879687A787B08B8189928908
:10327000A389B48982239323A423B523818B928BC2
:10328000A38BB48B81E001C08FEF1F910F91FF9052
:10329000EF900895209101043091020440910304BD
:1032A00050910404082E04C05695479537952795EC
:1032B0000A94D2F72170307021153105E9F0E091C0
:1032C0000106F091020621E030E040E050E004C049
:1032D000220F331F441F551F8A95D2F78585968587
:1032E000A785B089822B932BA42BB52B8587968736
:1032F000A787B08B81E008958FEF0895EF92FF923A
:103300000F931F93DF93CF930F92CDB7DEB791E06A
:10331000E92EF12C012D112D04C0EE0CFF1C001F15
:10332000111F8A95D2F78091010490910204A09117
:103330000304B09104048E219F21A023B1230097A0
:10334000A105B10511F481E03FC00E940D0CE5E438
:10335000F5E020E033E080818130A9F48285938517
:10336000A485B5858E219F21A023B1230097A105B7
:10337000B10549F03283178616861082E286F386FD
:103380000487158721E08081823091F482859385BE
:10339000A485B5858E159F05A007B10749F4328332
:1033A000178616861082128613861486158621E0EB
:1033B000B19685E0EA3EF80771F629830E940F0C6A
:1033C0002981222329F482E00E94EC148FEF01C0AE
:1033D00081E00F90CF91DF911F910F91FF90EF90BF
:1033E0000895E0910106F09102062585368547850E
:1033F00050892623372348235923211531054105B8
:10340000510521F1618B728B838B948B21E0278393
:103410000090E90504C096958795779567950A947D
:10342000D2F7617070706115710519F00E94291D45
:1034300004C080E090E00E94501DE0910106F091F0
:103440000206218932894389548903C020E030E093
:10345000A901B901CA01089580E090E0089525E02E
:10346000853E920711F480E008958FEF08950E9441
:103470002F1A8F3F11F481E003C0813029F482E0DC
:103480000E94EC148FEF0895992787FD9095FC0119
:10349000EE0FFF1FE80FF91FEB51FA4F8FEF8083FC
:1034A000828381838091000681508093000681E0B1
:1034B00008950F931F93DF93CF930F92CDB7DEB78D
:1034C0000E942F1A8F3F11F481E003C0813029F44C
:1034D00082E00E94EC148FEF43C0282F332727FD92
:1034E00030958901000F111F020F131F0B511A4F46
:1034F000D80112962C9112979C91291784F58983F3
:103500000E940D0CF80192819F5F9283E091010669
:10351000F09102061482E5E4F5E08981992787FDA0
:103520009095A92FB92F63E02081223089F422855C
:10353000338544855585281739074A075B0741F4C9
:103540006283178616861082128613861486158665
:10355000B19625E0EA3EF20739F70E940F0C81E0B0
:103560000F90CF91DF911F910F9108950F931F93AB
:10357000DF93CF930F92CDB7DEB70E942F1A8F3F04
:1035800011F481E003C0813029F482E00E94EC1440
:103590008FEF40C089830E940D0C8981082F11276D
:1035A00007FD1095F801EE0FFF1FE00FF11FEB5123
:1035B000FA4F92819923B1F4E0910106F09102064D
:1035C000978192609783992787FD9095A92FB92FAE
:1035D000818B928BA38BB48B0E940F0C80E090E0C8
:1035E0000E94501DF801EE0FFF1FE00FF11FEB517D
:1035F000FA4F828181508283A0910106B091020628
:1036000081811B968C931B9781E014968C930E946A
:103610000F0C81E00F90CF91DF911F910F910895D2
:103620000E942F1A8F3F11F481E003C0813029F4EA
:1036300082E00E94EC148FEF0895992787FD909502
:10364000FC01EE0FFF1FE80FF91FEB51FA4F8281CB
:103650000895E091F605F091F70580810895E091D5
:10366000F605F091F70503C00380F481E02D309753
:10367000D9F70895DF92EF92FF920F931F93CF93A4
:10368000DF93E0913C05F0913D05309709F49BC034
:103690004091F6055091F7054115510509F457C0C1
:1036A000DA01682F772767FD70959B0115E0220FDF
:1036B000331F1A95E1F7260F371F225C3A4FB901E5
:1036C000665F7F4F89010C5F1F4F9BE0E92EF12C55
:1036D000E20EF31E2C9130E0E90195E0CC0FDD1FE6
:1036E0009A95E1F7C20FD31FC25CDA4F9C819923F0
:1036F00029F0DB84EB019881D91658F1E801988113
:10370000992379F0E90195E0CC0FDD1F9A95E1F757
:10371000C20FD31FC25CDA4FDA84E7019881D91651
:10372000C0F0E90195E0CC0FDD1F9A95E1F7C20FDB
:10373000D31FC25CDA4F2A85EB019881291748F024
:1037400013960D90BC91A02D109721F602C0A0E019
:10375000B0E08083C381D481D0933D05C0933C0504
:10376000A417B507B1F4109749F0B483A38312826C
:1037700011821296FC93EE93119706C01482138265
:1037800012821182FA83E983F093F705E093F6053C
:103790001AC011968D919C911297AC17BD0759F0E4
:1037A00092838183B483A3831196CD91DC91129788
:1037B000FC83EB8304C0148213829283818312966C
:1037C000FC93EE931197DF91CF911F910F91FF9092
:1037D000EF90DF900895CF93DF93E091F605F0919D
:1037E000F705309709F444C0992787FD909520810B
:1037F00030E02817390781F4A381B481B093F7052D
:10380000A093F60512961C921E92119718C0038081
:10381000F481E02D309761F1208130E028173907DD
:10382000B1F7C181D281838194819C838B83A381F1
:10383000B481109721F01296DC93CE931197A0914A
:103840003C05B0913D05109739F4F0933D05E093A8
:103850003C05148213820AC0B483A3831296FC939E
:10386000EE931197F0933D05E0933C05128211828F
:10387000DF91CF910895EF92FF920F931F93CF9313
:10388000DF93EC0169817A814B815C818D819E811E
:103890000E94E927BC018F81882369F04B815C81FC
:1038A000CE0120E030E000E010E0EE24FF240E9492
:1038B000310D1F8213C08881992787FD9095FC01E7
:1038C00025E0EE0FFF1F2A95E1F7E80FF91FE25CF4
:1038D000FA4F81858330D1F4718360838881992781
:1038E00087FD9095FC0105E0EE0FFF1F0A95E1F7BB
:1038F000E80FF91FE25CFA4F85899689009741F439
:1039000082E0818788810E943A1B02C08FEF01C04C
:1039100081E0DF91CF911F910F91FF90EF9008957B
:103920001F93DF93CF93CDB7DEB728970FB6F894E8
:10393000DEBF0FBECDBF29833A834B835C836D838B
:103940007E838F8398870E940D0C0E946525182F17
:10395000CE0101960E9404209C018330910560F005
:10396000E0910106F0910206210F311D368B258B67
:103970000E940F0C81E001C08FEF28960FB6F894DB
:10398000DEBF0FBECDBFCF91DF911F9108950E9482
:10399000BB27E0910106F091020685818823B9F7E3
:1039A0000895FF920F931F93DF93CF93CDB7DEB7A8
:1039B00028970FB6F894DEBF0FBECDBF29833A8398
:1039C0004B835C836D837E838F8398870E94FB1774
:1039D0000E940D0CE0910106F091020681E08583C2
:1039E00081E090E090A3878F0E946525F82ECE019C
:1039F00001960E940420E0910106F09102060F2D2D
:103A000010E09801280F391F368B258B8F2D883FAA
:103A100078F40E94FC240F5F1F4F282F30E002171C
:103A2000130734F48F2D8E5F809388040E94002545
:103A30000E940F0C0E94C71C81E028960FB6F894D4
:103A4000DEBF0FBECDBFCF91DF911F910F91FF90D1
:103A500008951F930E940D0CE0910106F09102065B
:103A600081E0858386830E946525182F883F88F42E
:103A70000E94FC24212F30E02F5F3F4F482F50E061
:103A80002417350734F4812F8E5F809388040E94B9
:103A900000250E940F0C0E94C71C81E01F91089511
:103AA0001F93CF93DF93EC010E940D0CE091010670
:103AB000F091020681E08583D68BC58B0E94652537
:103AC000182F883F88F40E94FC24212F30E02F5FBC
:103AD0003F4F482F50E02417350734F4812F8E5F75
:103AE000809388040E9400250E940F0C0E94C71C2E
:103AF00081E0DF91CF911F910895EF92FF920F9394
:103B00001F93DF93CF930F92CDB7DEB78C010E9446
:103B10000D0CE0910106F091020681E085830E9480
:103B20006525E0910106F0910206E82EFF240E0DB6
:103B30001F1D168B058B883F90F489830E94FC24FF
:103B40000894E11CF11C282F30E09981E216F3065D
:103B500034F4892F8E5F809388040E9400250E9490
:103B60000F0C0E94C71C81E00F90CF91DF911F9135
:103B70000F91FF90EF9008951F93CF93DF93EC0187
:103B80000E94FB17209711F4C1E0D0E00E940D0CB9
:103B9000E0910106F091020681E08583D0A3C78FF2
:103BA0000E946525182F883F88F40E94FC24212F4D
:103BB00030E02F5F3F4F482F50E02417350734F493
:103BC000812F8E5F809388040E9400250E940F0C35
:103BD0000E94C71C81E0DF91CF911F9108951F9330
:103BE0000E94FB170E940D0CE0910106F091020665
:103BF00081E090E090A3878F81E085830E94652516
:103C0000182F883F88F40E94FC24212F30E02F5F7A
:103C10003F4F482F50E02417350734F4812F8E5F33
:103C2000809388040E9400250E940F0C0E94C71CEC
:103C300081E01F910895E0910106F09102068085D0
:103C40000E94EB1BE0910106F091020684E081875F
:103C50000E94EF1D81E008958F929F92AF92BF92D4
:103C6000CF92DF92EF92FF920F931F93DF93CF9348
:103C7000CDB7DEB760970FB6F894DEBF0FBECDBFED
:103C800029873A874B875C876D877E878F87988BDC
:103C9000CE0101960E94881ECE01099609851A85DB
:103CA0002B853C854D855E856F85788989809A80D6
:103CB000AB80BC80CD80DE80EF80F8840E94E61E61
:103CC0008F3F61F029853A854B855C856D857E85C2
:103CD0008F8598890E94D11C81E001C08FEF60968A
:103CE0000FB6F894DEBF0FBECDBFCF91DF911F910D
:103CF0000F91FF90EF90DF90CF90BF90AF909F908B
:103D00008F900895E0910106F09102068085089554
:103D1000EF92FF920F931F93CF93DF93EC011C82DE
:103D20001D821E821F828091F8059091F905A09155
:103D3000FA05B091FB0588839983AA83BB83E09041
:103D4000FC05F090FD050091FE051091FF05EC8249
:103D5000FD820E831F830E946525682F70E080E03E
:103D600090E023EB36EE4EE050E00E9406306E0D00
:103D70007F1D801F911F6C837D838E839F8313C063
:103D800080509A4CAA49BB438C839D83AE83BF83EA
:103D900088819981AA81BB810196A11DB11D88836B
:103DA0009983AA83BB838C819D81AE81BF81803042
:103DB0002AEC92072AE9A2072BE3B20708F7DF9162
:103DC000CF911F910F91FF90EF9008958F929F9246
:103DD000AF92BF92CF92DF92EF92FF920F931F9319
:103DE000DF93CF93CDB7DEB760970FB6F894DEBF01
:103DF0000FBECDBFFC0109831A832B833C834D8307
:103E00005E836F83788789869A86AB86BC86CD86EB
:103E1000DE86EF86F88AE980FA800B811C812D818D
:103E20003E814F815885A984BA84CB84DC848D85FA
:103E30009E85AF85B889EA14FB040C051D0508F4BE
:103E400040C0AE14BF04C006D10691F4281739074C
:103E50004A075B07B0F1281B390B4A0B5B0B248325
:103E6000358346835783108211821282138227C0C2
:103E7000281739074A075B0790F40894E108F1080E
:103E800001091109EA18FB080C091D09E082F182F9
:103E900002831383205036434546544C08C0EA1829
:103EA000FB080C091D09E082F18202831383281BA1
:103EB000390B4A0B5B0B248335834683578381E0A0
:103EC00001C08FEF60960FB6F894DEBF0FBECDBF76
:103ED000CF91DF911F910F91FF90EF90DF90CF90E6
:103EE000BF90AF909F908F900895FC0114C0205018
:103EF0003A4C4A495B432483358346835783208168
:103F00003181428153812F5F3F4F4F4F5F4F20835D
:103F10003183428353832481358146815781203008
:103F20008AEC38078AE948078BE3580700F70895B9
:103F30008F929F92AF92BF92CF92DF92EF92FF92B9
:103F40000F931F93DF93CF93CDB7DEB760970FB674
:103F5000F894DEBF0FBECDBF09831A832B833C8349
:103F60004D835E836F83788789869A86AB86BC860D
:103F7000CD86DE86EF86F88A29853A854B855C8575
:103F8000E980FA800B811C812E0D3F1D401F511FBF
:103F9000FC0120833183428353832D853E854F85E9
:103FA0005889ED80FE800F8118852E0D3F1D401F22
:103FB000511F24833583468357830E94751F81E0F8
:103FC00060960FB6F894DEBF0FBECDBFCF91DF91E4
:103FD0001F910F91FF90EF90DF90CF90BF90AF9027
:103FE0009F908F9008956093F8057093F9058093E2
:103FF000FA059093FB052093FC053093FD05409353
:10400000FE055093FF0508958F929F92AF92BF9245
:10401000CF92DF92EF92FF920F931F93FC012081CA
:104020003181428153816481758186819781211517
:1040300031054105510509F461C0223431054105BE
:10404000510508F062C05B016C01EE24FF2487017A
:1040500060E038C08A2CAB2DA653F1E0AB1508F018
:10406000F0E08C2D865691E08C1508F090E0F80F6A
:1040700071E0F81708F070E0972B7D2D755CE1E09A
:104080007D1508F0E0E0970F81E0971708F080E0D9
:104090008E2B8E0DE1E08E1508F0E0E0EF0D71E063
:1040A000EF1508F070E0700FB1E0701708F0B0E0A5
:1040B000B10FA82CBA2ECF2ED92EE82EFE2E072F08
:1040C0001B2F6F5F862F90E0A0E0B0E08217930770
:1040D000A407B50708F4BECF9501A601B701C80132
:1040E000A3EBAA2EF6EEBF2EEEE0CE2EDD24EE24BC
:1040F000FF2400E010E00E945A2809C023EB36EEAE
:104100004EE050E00E94393002C020E030E0C901AA
:104110001F910F91FF90EF90DF90CF90BF90AF90E5
:104120009F908F900895EF92FF920F931F93DF93CC
:10413000CF93CDB7DEB728970FB6F894DEBF0FBE8A
:10414000CDBF7B018C01BAE016950795F794E794F3
:10415000BA95D1F7E982FA820B831C837370807061
:10416000907023EB36EE4EE050E00E9406306D83F7
:104170007E838F8398872E2D3A814B815C81289690
:104180000FB6F894DEBF0FBECDBFCF91DF911F9168
:104190000F91FF90EF9008958F929F92AF92BF92F0
:1041A000CF92DF92EF92FF920F931F93FC01208139
:1041B0003181428153816481758186819781211586
:1041C00031054105510509F45BC05B016C01EE242A
:1041D000FF24870160E038C08A2CAB2DA653F1E0A4
:1041E000AB1508F0F0E08C2D865691E08C1508F0A8
:1041F00090E0F80F71E0F81708F070E0972B7D2D34
:10420000755CE1E07D1508F0E0E0970F81E097171D
:1042100008F080E08E2B8E0DE1E08E1508F0E0E0D6
:10422000EF0D71E0EF1508F070E0700FB1E070175E
:1042300008F0B0E0B10FA82CBA2ECF2ED92EE82E60
:10424000FE2E072F1B2F6F5F862F90E0A0E0B0E0BF
:1042500082179307A407B50708F4BECF9501A601FE
:10426000B701C801E3EBAE2E06EEB02E1EE0C12E64
:10427000DD24EE24FF2400E010E00E945A2806C04E
:1042800023EB36EE4EE050E00E943930B901CA010E
:104290001F910F91FF90EF90DF90CF90BF90AF9064
:1042A0009F908F9008950F931F9301E012E00E945A
:1042B000FB170E94FC248B3028F40093F5050E9424
:1042C000BB2708C08AE090E00E941D241093F505EA
:1042D0000E94AF2780918A04853519F088E00E94FA
:1042E0000A1780917E21853511F388E00E940A1714
:1042F000DECF2F923F924F925F926F927F928F927A
:104300009F92AF92BF92CF92DF92EF92FF920F9364
:104310001F93DF93CF930F92CDB7DEB70E9418247F
:104320000E940D0C0E9449240E9451241C018AEF16
:104330000E9400250E94AC2700918804602F70E045
:1043400080E090E023EB36EE4EE050E00E94063035
:104350006B017C018091FC059091FD05A091FE050B
:10436000B091FF05C80ED91EEA1EFB1EC701B6019B
:104370000E943930C61AD70AE80AF90AC092FC0529
:10438000D092FD05E092FE05F092FF05E091010656
:10439000F09102068085882381F58091F5058230B1
:1043A00019F4802F0E943E0EE0910106F091020662
:1043B0008085609188040E94230FE0910106F091AE
:1043C0000206808560E00E94F00F8091F8059091D0
:1043D000F905A091FA05B091FB05C090FC05D090BD
:1043E000FD05E090FE05F090FF0573EB872E76EE5D
:1043F000972E7EE0A72EB12C1DC09581992311F038
:10440000602FE1CF602F0E94230FDFCF80E096E383
:10441000A5E6B4ECC80ED91EEA1EFB1EC701B60104
:10442000A50194010E943930C61AD70AE80AF90A90
:10443000D301C2012C013D010894411C511C611C97
:10444000711CE0E0CE16EAECDE06EAE9EE06EBE3EC
:10445000FE06E0F68093F8059093F905A093FA051F
:10446000B093FB05C092FC05D092FD05E092FE05DD
:10447000F092FF05E0910106F09102068581882304
:10448000B9F081858430A1F08781823029F08823BA
:1044900041F08681882311F485E001C083E08187A3
:1044A00004C083E081871782168280850E94EB1BFF
:1044B000E0910106F0910206858D968D0097E9F155
:1044C00080858823D1F191859430B9F1418D528D49
:1044D0002091880430E04217530788F40E947B0E35
:1044E000E0910106F091020682E060850E94C91603
:1044F000E0910106F0910206128E118E04C0421B5B
:10450000530B528F418FE0910106F0910206008516
:10451000218D328D2115310581F4802F0E947B0E73
:1045200083E0602F0E94C916E0910106F091020617
:1045300083E08187802F0E94EB1B63E4662E65E099
:10454000762E00E61AEE20E051E0452E512C4AEF7F
:10455000C42ED12C32E0F32E91E0892E912CA12C87
:10456000B12CD30113968C9113978F3F09F4C4C0DB
:104570001C92882309F443C014968C9114978430BC
:10458000F1F150964D915C9151978091880490E0A3
:104590004817590738F0481B590B51965C934E93B6
:1045A000509703C0F301118A108AD30152964D919E
:1045B0005C9153974817590738F0481B590B53968D
:1045C0005C934E93529712C0F301668977898617E0
:1045D000970728F4681B790B738B628B07C00E94C6
:1045E0002530D30153969C938E935297F301828981
:1045F0009389009721F486899789938B828BD301C5
:1046000014968C911497833009F076C050968D9152
:104610009C915197009709F066C012968C91129761
:104620008823A9F011968C911197882381F0D501E8
:10463000C4010090E90504C0880F991FAA1FBB1F81
:104640000A94D2F7F30184879587A687B787D301A9
:1046500012961C92129711961C9211971C925A96C0
:104660004D915C915B9756968D919C91579758967A
:104670006D917C91599741305105D9F455967C93B1
:104680006E9354971496FC92149752964D915C91A8
:10469000539751965C934E935097009721F45196FF
:1046A000DC92CE925097822F29830E943A1B298157
:1046B0001AC0F301758B648BBA0161507040689F1A
:1046C000A001699F500D789F500D1124518B408B94
:1046D000538B428B009711F4D18AC08AD3015B9629
:1046E0005C924E925A97F30180899189009721F04C
:1046F0008017910708F48C012F5F81E290E0680E2B
:10470000791E253009F02DCFE0910106F0910206C7
:1047100080850E94BE0E0E94291BF82E282F332769
:1047200027FD3095F90185E0EE0FFF1F8A95E1F72F
:10473000E20FF31FE25CFA4F828580930306F09349
:10474000EB05E093EA05FF2099F0258D368D2115C4
:10475000310551F0218D328D2A3F310528F4201783
:104760003107F8F489011DC00B3F1105D0F014C0CA
:104770000B301105B0F098012A5030402A3F310526
:1047800038F489012930310560F409E010E009C0EE
:1047900091E00430190719F00AEF10E002C000EFB1
:1047A00010E08093F405F0930206E0930106009375
:1047B00088040E946525282F30E02F5F3F4F201787
:1047C000310740F00E946525082F10E00E5F1F4F53
:1047D00000938804FF2011F01092F505802F0E94AD
:1047E0000025C1016EEE72E00E9464240E9423281D
:1047F0000E942F280F90CF91DF911F910F91FF9072
:10480000EF90DF90CF90BF90AF909F908F907F9070
:104810006F905F904F903F902F90089589E0809324
:1048200021018DE89CE3909329018093280108954C
:10483000109225011092240108950000000000004C
:104840000000000000000000000000000000000068
:104850000000019791F70895109221010895DF93C8
:10486000CF9300D0CDB7DEB7809124019091250180
:104870009A83898329813A81C9010F900F90CF9142
:10488000DF91089510928100089581E08093810066
:10489000089583B5816083BD1092850010928400D5
:1048A0000895DF93CF9300D0CDB7DEB78091840019
:1048B000909185009A83898329813A81C9010F905B
:1048C0000F90CF91DF910895EF92FF920F931F9376
:1048D000CF93DF93EC01CC0FDD1F8FEFC937D807E3
:1048E00010F0C0E0D0E07E0100E010E080E090E059
:1048F000E60EF71E081F191F91E0E91690E0F90671
:1049000091E0090790E0190768F080E090E0AFEFD0
:10491000BFEFE80EF91E0A1F1B1F0E945124C81783
:10492000D907D8F30E9451248E159F05D8F3DF9143
:10493000CF911F910F91FF90EF9008951092B100C9
:10494000E0E7F0E080818D7F808380818E7F8083AF
:1049500008958093B2000895E0E7F0E080818360DD
:10496000808383E08093B100089583B5826083BD26
:104970001092B2001092DD031092880408958EEF19
:104980008093880490E29093B6008093B30083E014
:1049900087BB92E09093B0008093B10093B5926092
:1049A00093BD87BB84BD83B5826083BD10928000B8
:1049B00081E080938100109285001092840083B57D
:1049C000826083BD83B5816083BD10922001109207
:1049D00025011092240183B5826083BD83B5816077
:1049E00083BD0E94B5240E9418240E94AC240E941A
:1049F0000E241092DD0308958091B3008F5F089517
:104A000081508093B3000895882311F410927100AF
:104A10008FEF0895882331F410929500109294003E
:104A200081E008958FEF0895882329F42091940060
:104A30003091950002C020E030E0C901089588233C
:104A400029F482E08093710081E008958FEF08954A
:104A50008823B9F5CB0101978530910510F4609357
:104A600087041092900088E0809391005093990001
:104A7000409398003093DB032093DA0380918704FE
:104A8000813021F48091910081600BC0823021F44B
:104A900080919100826005C0833039F4809191004B
:104AA00083608093910081E00895843021F48091A7
:104AB00091008460F6CF853031F48091910085605B
:104AC000F0CF8FEF089581E008958091B2000895AE
:104AD0001F920F920FB60F920BB60F9211242F93C5
:104AE0003F934F935F936F937F938F939F93AF9376
:104AF000BF93EF93FF938AE060E00E94C916FFCF57
:104B00000F920FB60F921F922F923F924F925F9289
:104B10006F927F928F929F92AF92BF92CF92DF92CD
:104B2000EF92FF920F931F932F933F934F935F93B7
:104B30006F937F938F939F93AF93BF93CF93DF93A5
:104B4000EF93FF93A0910106B09102060DB60D926E
:104B50000EB60D921F92A0918504B09186041E900E
:104B6000BEBFADBF08951F920F920FB60F920BB646
:104B70000F9211242F933F934F935F936F937F93E3
:104B80008F939F93AF93BF93EF93FF93E091DA03DB
:104B9000F091DB03309711F0099504C08AE060E0E2
:104BA0000E94C916FF91EF91BF91AF919F918F9194
:104BB0007F916F915F914F913F912F910F900BBE1D
:104BC0000F900FBE0F901F9018951F920F920FB667
:104BD0000F9211240F900FBE0F901F90189504B6DE
:104BE00003FC02C080E001C080E104B602FE06C002
:104BF00094B79B7F94BF04B600FE846004B601FEA8
:104C000005C094B79D7F94BF82600895882361F4A6
:104C100004B600FE04C094B79E7F94BF01C081E03B
:104C20009091B000911181600895882311F4E89A61
:104C300039C0813011F4E99A0895823011F4EA9A6A
:104C400031C0833021F480916B00816029C08430B1
:104C500021F480916B00826023C0853021F4809123
:104C60006B0084601DC0863021F480916B008860E9
:104C700017C0873021F480916B00806111C08830AB
:104C800021F480916B0080620BC0893021F4809107
:104C90006B00806405C08A3039F480916B008068B5
:104CA00080936B0081E008958FEF0895882311F4BD
:104CB000E89839C0813011F4E9980895823011F4F0
:104CC000E99831C0833021F480916B008E7F29C038
:104CD000843021F480916B008D7F23C0853021F4D6
:104CE00080916B008B7F1DC0863021F480916B001A
:104CF000877F17C0873021F480916B008F7E11C0B1
:104D0000883021F480916B008F7D0BC0893021F4B5
:104D100080916B008F7B05C08A3039F480916B00E5
:104D20008F7780936B0081E008958FEF089588233B
:104D300039F55093BC064093BB06662321F480915D
:104D400069008C7F66C0613049F4809169008D7F75
:104D5000809369008091690081605BC0623049F492
:104D600080916900826080936900809169008E7FE4
:104D700050C0633009F062C080916900836049C00F
:104D8000813031F55093BA064093B906662321F479
:104D900080916900837F3DC0613049F48091690052
:104DA000877F8093690080916900846032C062309F
:104DB00049F480916900886080936900809169005E
:104DC0008B7F27C06330D1F5809169008C6021C052
:104DD000823041F55093BA064093B906662321F418
:104DE000809169008F7C15C0613049F48091690021
:104DF0008F7D809369008091690080610AC0623074
:104E000059F4809169008062809369008091690003
:104E10008F7E8093690012C0633081F480916900B5
:104E20008063F7CF8350883058F4809168008160A8
:104E3000809368005093C0064093BF0681E00895B8
:104E40008FEF08951F920F920FB60F920BB60F922D
:104E500011242F933F934F935F936F937F938F937F
:104E60009F93AF93BF93EF93FF93E091BF06F091B1
:104E7000C006309711F0099504C08AE060E00E94F6
:104E8000C916FF91EF91BF91AF919F918F917F9143
:104E90006F915F914F913F912F910F900BBE0F90AB
:104EA0000FBE0F901F9018951F920F920FB60F9282
:104EB0000BB60F9211242F933F934F935F936F93F1
:104EC0007F938F939F93AF93BF93EF93FF93E09163
:104ED000BB06F091BC06309711F0099504C08AE03A
:104EE00060E00E94C916FF91EF91BF91AF919F9131
:104EF0008F917F916F915F914F913F912F910F9083
:104F00000BBE0F900FBE0F901F9018950E940D0CB6
:104F1000A89584B7877F84BFE0E6F0E08081886150
:104F2000808310820E940F0C08950E940D0CA8959A
:104F300084B7877F84BFE0E6F0E08081886180836A
:104F40008DE080830E940F0C089504B603FC02C01C
:104F500081E008958FEF0895A8950895089583B787
:104F6000817F866083BF83B7816083BF889583B765
:104F70008E7F83BF089583B7817F83BF83B78160AE
:104F800083BF889583B78E7F83BF0895FC017683A6
:104F900065830895EF92FF920F931F93CF93DF9352
:104FA000EC018B017A014032510518F481E10E9435
:104FB0000A170894E108F108E00EF11EFA82E9826E
:104FC0001C830B83DF91CF911F910F91FF90EF9086
:104FD000089525E5FA012083FB01329790838183B0
:104FE00012921292129212921292129212921292A1
:104FF0001292129212921292129212921292129291
:105000001292129212921292129212921292129280
:105010001292129212921292129212921292129270
:1050200012921292CF01089585E580937E41EEEFB2
:10503000F1E4F0938604E093850486E09EE090839B
:105040008093FF41089586E09EE09093FE41809317
:10505000FF4108950E94BF240E940F0C0895A09163
:10506000EA05B091EB05CD91CDBFDD91DEBFFF919B
:10507000EF91DF91CF91BF91AF919F918F917F91F0
:105080006F915F914F913F912F911F910F91FF90E1
:10509000EF90DF90CF90BF90AF909F908F907F90D8
:1050A0006F905F904F903F902F901F900F900FBE8A
:1050B0000F901895A8E3B0E0E0E6F8E20C945B30BE
:1050C00029833A834B835C836D837E838F839887A8
:1050D000A986BA86CB86DC86ED86FE860F87188B7E
:1050E000E984FA840B851C852D853E854F8558897A
:1050F00029803A804B805C802DA23EA24FA258A608
:10510000AD80BE80CF80D884211531054105510581
:1051100009F0BEC3AE14BF04C006D10608F04FC1EB
:1051200020E0E21620E0F20621E0020720E012076C
:1051300058F43FEFE316F1040105110509F090F46E
:1051400020E030E0A90117C040E0E41640E0F4069A
:1051500040E0040741E0140750F420E130E040E073
:1051600050E009C028E030E040E050E004C028E111
:1051700030E040E050E0D801C701022E04C0B695EF
:10518000A795979587950A94D2F78F529D4FDC018A
:105190006C9180E290E0A0E0B0E0821B930BA40B46
:1051A000B50B861B9109A109B1090097A105B105AD
:1051B000A1F1082E04C0EE0CFF1C001F111F0A9461
:1051C000D2F7A6019501082E04C0220F331F441FF9
:1051D000551F0A94D2F760E270E0681B790BADA00E
:1051E000BEA0CFA0D8A404C0D694C794B794A79467
:1051F0006A95D2F7A22AB32AC42AD52A2DA03EA0A6
:105200004FA058A404C0220C331C441C551C8A9582
:10521000D2F72DA23EA24FA258A638018824992485
:10522000A8019701407050702D8F3E8F4F8F58A36B
:10523000C601B501A40193010E943930222E532EDC
:10524000442E352E69A37AA38BA39CA3C601B50176
:10525000A40193010E943930822D952DA42DB32DE8
:10526000898F9A8FAB8FBC8FBC01CD012D8D3E8D68
:105270004F8D58A10E9406305B016C0149A15AA1D3
:105280006BA17CA1DA01992788272DA03EA04FA011
:1052900058A4920144275527822B932BA42BB52B7E
:1052A0008A159B05AC05BD0530F5298D3A8D4B8DD2
:1052B0005C8D2150304040405040298F3A8F4B8FB9
:1052C0005C8F8E0D9F1DA01FB11F8E159F05A0071F
:1052D000B10788F08A159B05AC05BD0560F4215027
:1052E000304040405040298F3A8F4B8F5C8F8E0D5D
:1052F0009F1DA01FB11FAC01BD014A195B096C09BC
:105300007D095A016B01CB01BA01A40193010E94EE
:105310003930222E532E442E352E69A37AA38BA327
:105320009CA3C601B501A40193010E943930A22CAF
:10533000B52CC42CD32CC601B5012D8D3E8D4F8DBF
:1053400058A10E9406303B014C0169A17AA18BA1B2
:105350009CA1AB01332722278DA19EA1AFA1B8A5A7
:10536000A070B070282B392B4A2B5B2B26153705E4
:1053700048055905C0F40894A108B108C108D1082E
:105380002E0D3F1D401F511F2E153F054007510791
:1053900050F0261537054805590528F40894A1084A
:1053A000B108C108D108898D9A8DAB8DBC8D8C0157
:1053B000FF24EE24EA28FB280C291D29B3C4E1149C
:1053C000F1040105110559F461E070E080E090E01E
:1053D000A80197010E94393079018A0110C090E03C
:1053E000E91690E0F90691E0090790E0190758F4F2
:1053F000AFEFEA16F1040105110509F090F420E081
:1054000030E0A90117C0B0E0EB16B0E0FB06B0E059
:105410000B07B1E01B0750F420E130E040E050E022
:1054200009C028E030E040E050E004C028E130E06E
:1054300040E050E0D801C701022E04C0B695A79500
:10544000979587950A94D2F78F529D4FFC018081E2
:10545000280F311D411D511D80E290E0A0E0B0E019
:10546000821B930BA40BB50B61F4150126012E18BA
:105470003F08400A510A81E0A82EB12CC12CD12C42
:1054800029C1082E04C0EE0CFF1C001F111F0A9436
:10549000D2F715012601022E04C056944794379482
:1054A00027940A94D2F7298E3A8E4B8E5C8EB601E1
:1054B000A501082E04C0440F551F661F771F0A94CC
:1054C000D2F74D8F5E8F6F8F78A32DA03EA04FA097
:1054D00058A404C056944794379427942A95D2F739
:1054E000AD8CBE8CCF8CD8A0A228B328C428D528D8
:1054F000AD8EBE8ECF8ED8A22DA13EA14FA158A5B4
:1055000004C0220F331F441F551F8A95D2F72DA3C5
:105510003EA34FA358A7380188249924B801A701B6
:105520006070707049A35AA36BA37CA3698D7A8DB8
:105530008B8D9C8DA40193010E943930222E532E15
:10554000442E352E69A77AA78BA79CA7698D7A8DE3
:105550008B8D9C8DA40193010E943930A22CB52C17
:10556000C42CD32CA98EBA8ECB8EDC8EC601B5018D
:1055700029A13AA14BA15CA10E9406305B016C01FC
:1055800029A43AA44BA45CA4D101992788272D8C87
:105590003E8C4F8C58A0920144275527822B932B89
:1055A000A42BB52B8A159B05AC05BD0530F5298DBF
:1055B0003A8D4B8D5C8D2150304040405040298FBA
:1055C0003A8F4B8F5C8F8E0D9F1DA01FB11F8E15C4
:1055D0009F05A007B10788F08A159B05AC05BD059E
:1055E00060F42150304040405040298F3A8F4B8F1B
:1055F0005C8F8E0D9F1DA01FB11FAC01BD014A190C
:105600005B096C097D095A016B01CB01BA01A40148
:1056100093010E943930222E532E442E352E69A735
:105620007AA78BA79CA7C601B501A40193010E948C
:105630003930622C752C842C932CC401B30129A120
:105640003AA14BA15CA10E9406309B01AC0169A567
:105650007AA58BA59CA56B01BB24AA248D8D9E8D5C
:10566000AF8DB8A1A070B070A82AB92ACA2ADB2AC7
:10567000A216B306C406D506E0F4089461087108C2
:1056800081089108AE0CBF1CC01ED11EAE14BF0411
:10569000C006D10670F0A216B306C406D50648F4BB
:1056A00008946108710881089108AE0CBF1CC01EE7
:1056B000D11E15012601221A330A440A550A898D82
:1056C0009A8DAB8DBC8D6C01BB24AA24A628B7286B
:1056D000C828D9289801442755272D8F3E8F4F8FF2
:1056E00058A3B801A7016070707049A35AA36BA3B7
:1056F0007CA3C201B1012D8D3E8D4F8D58A10E941A
:105700003930622E932E842E752E69A77AA78BA727
:105710009CA7C201B1012D8D3E8D4F8D58A10E94D5
:105720003930862D992DA82DB72D898F9A8FAB8F63
:10573000BC8FBC01CD0129A13AA14BA15CA10E9463
:1057400006303B014C0129A43AA44BA45CA4D1012E
:10575000992788272DA03EA04FA058A49201442746
:105760005527822B932BA42BB52B86159705A805BF
:10577000B90530F5298D3A8D4B8D5C8D2150304027
:1057800040405040298F3A8F4B8F5C8F8E0D9F1D6C
:10579000A01FB11F8E159F05A007B10788F08615C1
:1057A0009705A805B90560F42150304040405040AD
:1057B000298F3A8F4B8F5C8F8E0D9F1DA01FB11FBD
:1057C000AC01BD0146195709680979093A014B0135
:1057D000CB01BA012D8D3E8D4F8D58A10E943930DD
:1057E000522E432E342E252E69A77AA78BA79CA76D
:1057F000C401B3012D8D3E8D4F8D58A10E943930CB
:10580000652C742C832C922CC401B30129A13AA1DC
:105810004BA15CA10E9406301B012C0169A57AA551
:105820008BA59CA5AB01332722278DA19EA1AFA1FB
:10583000B8A5A070B070282B392B4A2B5B2B2215F2
:10584000330544055505C0F40894610871088108C2
:1058500091082E0D3F1D401F511F2E153F0540077B
:10586000510750F0221533054405550528F40894D6
:105870006108710881089108898D9A8DAB8DBC8D66
:105880008C01FF24EE24E628F728082919294DC2A7
:10589000A216B306C406D50608F434C2203090E040
:1058A000390791E0490790E0590750F42F3F31053F
:1058B0004105510509F090F466247724430119C08D
:1058C0002030A0E03A07A0E04A07A1E05A0760F4C0
:1058D00090E1692E712C812C912C0BC088E0682EF0
:1058E000712C812C912C05C0B8E16B2E712C812C70
:1058F000912CDA01C901062C04C0B695A79597959D
:1059000087950A94D2F78F529D4FFC018081680ED3
:10591000711C811C911C80E290E0A0E0B0E086192F
:105920009709A809B90989F42A153B054C055D05B5
:1059300008F4EFC12DA03EA04FA058A42E143F04A0
:105940004006510608F0E5C1DDC189A719012A0109
:1059500004C0220C331C441C551C8A95D2F7D80174
:10596000C701062C04C0B695A795979587950A940C
:10597000D2F7282A392A4A2A5B2AA801970109A4C2
:1059800004C0220F331F441F551F0A94D2F729ABBE
:105990003AAB4BAB5CAB86017501062C04C0169587
:1059A0000795F794E7940A94D2F7B601A50109A4E4
:1059B00004C0440F551F661F771F0A94D2F74D8FFE
:1059C0005E8F6F8F78A36DA17EA18FA198A504C073
:1059D00096958795779567956A94D2F73B014C0128
:1059E0008D8D9E8DAF8DB8A186299729A829B929BB
:1059F0008D8F9E8FAF8FB8A35201CC24DD24A9A236
:105A0000BAA2CBA2DCA2A2019101407050702DABD2
:105A10003EAB4FAB58AFC801B701A60195010E943C
:105A20003930622EA32ED42EC52E6DA77EA78FA748
:105A300098ABC801B70129A13AA14BA15CA10E9472
:105A40003930E62CFA2C0D2D1C2DE98EFA8E0B8F99
:105A50001C8FC801B7012DA93EA94FA958AD0E94BE
:105A60000630ADA4BEA4CFA4D8A88501FF24EE249F
:105A7000AD8CBE8CCF8CD8A0960144275527E22A46
:105A8000F32A042B152BE616F7060807190730F53D
:105A9000298D3A8D4B8D5C8D2150304040405040D7
:105AA000298F3A8F4B8F5C8FE20CF31C041D151D60
:105AB000E214F3040405150588F0E616F706080756
:105AC000190760F42150304040405040298F3A8FF0
:105AD0004B8F5C8FE20CF31C041D151DE61AF70AB0
