:100000000C94C9040C9449270C94E8040C94E8045B
:100010000C94E8040C94E8040C94E8040C94E804B0
:100020000C94E8040C94EC260C94E8040C94E8047A
:100030000C94E8040C94E8040C94E8040C946826EE
:100040000C9468260C94E8040C94E8040C94E804DE
:100050000C94E8040C94E8040C94E8040C94E80470
:100060000C94E8040C94E8040C94E8040C94E80460
:100070000C94E8040C94E8040C94E8040C94E80450
:100080000C94E8040C94E8040C94E804CD16D31600
:10009000D616D916DC16DF16E516E216E816EB16AC
:1000A000EE16F716FA16FD160017F416CA16D01635
:1000B00003170617F116C71608000000BE92244960
:1000C000123EABAAAA2ABECDCCCC4C3E000000808A
:1000D000BEABAAAAAA3E00000000BF000000803FFD
:1000E0000000000000084178D3BB4387D1133D19BD
:1000F0000E3CC3BD4282AD2B3E68EC8276BED98FEA
:10010000E1A93E4C80EFFFBE01C4FF7F3F0000002D
:10011000000007634236B79BD8A71A39685618AE55
:10012000BAAB558C1D3CB7CC5763BD6DEDFD753E2C
:10013000F6177231BF000000803F554E4B4F574EAF
:100140000045787465726E616C2052657365740049
:1001500042726F776E204F757420446574656374C6
:10016000004661696C656420746F20637265617418
:10017000652053656D6170686F7265004661696CDA
:10018000656420746F2063726561746520536967CC
:100190006E616C004B65726E656C2066756E637483
:1001A000696F6E206E6F7420696D706C656D656E21
:1001B0007465640044657669636520447269766598
:1001C00072204572726F72005761746368646F6762
:1001D00020526573746172740053572057617463C1
:1001E00068646F6720526573746172740054696D3E
:1001F0006572204F766572666C6F7700556E686128
:100200006E646C656420496E7465727275707420DA
:10021000566563746F72004C6F7720566F6C746113
:100220006765004578747261205461736B20737444
:1002300061727465642C206973206E726B5F6366F3
:10024000672E68206F6B3F0049646C65206F7220D9
:100250004B65726E656C20537461636B204F7665DD
:1002600072666C6F7700556E65787065637465644F
:100270002052657374617274004475706C696361B7
:10028000746564205461736B20494400536368654E
:1002900064756C6572204D69737365642057616B7A
:1002A000657570005461736B205265736572766575
:1002B0002056696F6C61746564005265736572766F
:1002C00065204572726F7220696E205363686564A1
:1002D000756C657200496E76616C69642053746157
:1002E000636B20506F696E746572005461736B208C
:1002F000537461636B204F766572666C6F77005341
:100300007461636B20776173206E6F74206465661F
:10031000696E6564206173206C6172676520656E2B
:100320006F75676821005461736B20706572696F27
:100330006420746F6F206C617267652E2050657247
:10034000696F64206D757374206265206C657373CA
:10035000207468616E203631207365636F6E64733C
:100360002E00293A20002A4E524B204552524F521D
:1003700028000D0A535441434B2044554D500D0A5B
:10038000000A0D006E726B5F71756575653A20002D
:1003900008082A1C08081C2A080840444A51404002
:1003A000514A444014741C171410207F01010000AE
:1003B0000000000000000000081C2C08087F01015C
:1003C0000101010101017F7F404040404040404029
:1003D0007F0000000000000000000000000000009E
:1003E00079112711790000000000000000000000D2
:1003F000000000007F01010103605048447E3E4937
:1004000049493E700C030C706349494963017F01FF
:100410007F01635549414106017E010608557F551C
:10042000080F107F100F4E7101714E38444438444C
:10043000000000000000005F000003000300001443
:100440003E143E1426497F493262152A5423364908
:100450005620500003000000001C224100004122F1
:100460001C0000140E140008083E0808006000007C
:10047000000808080800004000000060100804039D
:100480003E4141413E04027F000062514945422203
:10049000414949360C0B087E084F494949313E49CC
:1004A0004949326111090503364949493626494906
:1004B000493E0022000000006100000008141422E0
:1004C00022141414141422221414080601590502CB
:1004D0003E415D555E7E0909097E7F494949363EA8
:1004E000414141227F4141413E7F494949417F0984
:1004F0000909013E414949327F0808087F00007F11
:100500000000204040403F7F081422417F4040408F
:10051000007F0204027F7F021C207F3E4141413E5A
:100520007F090909063E4151617E7F091929462646
:100530004949493201017F01013F4040403F1F20AE
:1005400040201F3F4030403F631408146303047889
:10055000040361514945437F410000000000000051
:1005600000000000417F060106000040404040407E
:10057000010200000020545454787F484848303825
:1005800044444428384444447F3854545418087E22
:100590000909010C5252523E7F04040478047D4044
:1005A0004020204040443D007F102844203E5149D7
:1005B000467C047C04787C0804047838444444383D
:1005C0007E1212120C0C1212127E047804040848D7
:1005D00054545424043F4444403C40403C401C207C
:1005E00040201C3C4030403C4428102844264848C9
:1005F000483E4464544C4400083E410000007F00E3
:100600000000413E08000000000000000000000063
:1006100000000000000000000000000000000020BA
:10062000483E090200000000000000000000040431
:100630007F04040000000000000000000000000033
:1006400000000000000000000000000000000000AA
:10065000000000000000000000000000000000009A
:100660000000000000000000000000000000000288
:100670000401020000000000000018180000000043
:10068000000000000000000000000000000000006A
:10069000000000000000000000000000000000005A
:1006A000000000000000000000000000000000004A
:1006B0000000000000000079000000000000004879
:1006C0007E494942000000000015167C1615000006
:1006D0000000000A5555552800010001003E635DE9
:1006E0006B3E000000000008142A142200000000E5
:1006F0000000000000003E41754B3E010101010178
:1007000000020502000000000000000000000000E0
:100710000000000000000000000000000000060FC4
:100720007F017F00000000000000000000000000CA
:100730000000070507000022142A14080F003C20BF
:10074000780F004864580000000000304845402001
:100750000000000000000000000000000000007227
:1007600029292A717825242578702A252A707E095E
:100770007F49490E5151711100000000007C545610
:1007800055440000000000000000000000000000D0
:100790000000000000000000000000000000000059
:1007A00000000000007A091122790000000000001A
:1007B0000000000000000000003A454546393D4277
:1007C00042423D22140814225C322A261D000000F9
:1007D0000000000000000000000000003C4140411B
:1007E0003C000000000000000000000000000000CD
:1007F0002055565478205456557820565556782210
:100800005155567920555455780000000000245465
:100810007854580C5252721238555654183854564F
:1008200055183856555618385554551800497A40B9
:100830000000487A4100004A794200004A784200AC
:1008400000000000007A11090A7130494A4830302E
:10085000484A4930304A494A303249494A31304A97
:10086000484A3008082A080818643C2618384142CB
:10087000207838404221783842412278384240225C
:1008800078000000000000000000000C5150513CB6
:100890006E616E00696E660000407A10F35A00A027
:1008A000724E18090010A5D4E80000E87648170039
:1008B00000E40B54020000CA9A3B000000E1F50579
:1008C000000080969800000040420F000000A086C3
:1008D00001000000102700000000E80300000000F5
:1008E0006400000000000A00000000000100000099
:1008F00000002C76D888DC674F0823DFC1DFAE59B3
:10090000E1B1B796E5E3E453C63AE651997696E845
:10091000E6C28426EB898C9B62ED407C6FFCEFBCC9
:100920009C9F40F2BAA56FA5F490055A2AF75C93F4
:100930006B6CF9676DC11BFCE0E40D47FEF520E62A
:10094000B500D0ED902E0300943577050080841E0D
:10095000080000204E0A000000C80C333333330F68
:10096000986E12831141EF8D2114893BE65516CF05
:10097000FEE6DB18D1844B381BF77C1D901DA4BB11
:10098000E424203284725E228100C9F124ECA1E5C6
:100990003D2711241FBECFEFD0E1DEBFCDBF13E056
:1009A000A0E0B1E0E8E2FCE800E00BBF02C0079085
:1009B0000D92A43EB107D9F718E0A4EEB3E001C050
:1009C0001D92AE30B107E1F70E9420060C9412464A
:1009D0000C943E26EF92FF920F931F93CF93DF93D9
:1009E00080E0E82E81E0F82EC3E0D0E000E311E0E3
:1009F00000D000D0EDB7FEB7F282E182D483C3838A
:100A00000E94AC430F900F900F900F900E94F54101
:100A100080E291E00E94BE4300D000D0EDB7FEB767
:100A200012830183D483C3830E94AC430F900F9041
:100A30000F900F900E948E1FDBCF2F923F924F920C
:100A40005F926F927F928F929F92AF92BF92CF925E
:100A5000DF92EF92FF920F931F93CF93DF93E0917A
:100A6000D507F091D6078085992787FD9095E0E01E
:100A70008E2EE1E09E2E72E0A72EB12C6FE4662E42
:100A800061E0762E50ED452E57E0552E42E6242E9D
:100A900041E0342E6C01CC0CDD1C25E0880F991F41
:100AA0002A95E1F7C80ED91E81E297E0C80ED91E3B
:100AB00000D000D0ADB7BEB712969C928E9211971F
:100AC0001496BC92AE9213970E94AC430F900F9075
:100AD0000F900F900E94F5417C01EE0CFF1CEE0C74
:100AE000FF1C0027F7FC0095102F17FF08C010957A
:100AF0000095F094E094E11CF11C011D111D00D043
:100B000000D000D0EDB7FEB772826182ADB7BEB73C
:100B10001396ED92FD920D931C9316970E94AC4391
:100B2000EDB7FEB736960FB6F894FEBF0FBEEDBF19
:100B3000C0E0D0E035C0CE01B2010E943B41009739
:100B400071F500D000D0ADB7BEB712963C922E9290
:100B50001197F6018081918114969C938E9313973F
:100B60000E94AC4300D000D0EDB7FEB7319684E7C9
:100B700091E0ADB7BEB712969C938E931197D38335
:100B8000C283E482F582068317830E94AC43ADB72B
:100B9000BEB718960FB6F894BEBF0FBEADBF219674
:100BA000CE01AA2797FDA095BA2FE816F9060A07E5
:100BB0001B070CF600D000D080E391E0EDB7FEB744
:100BC00092838183B482A3820E94AC430F900F90E2
:100BD0000F900F900E948E1F6BCFEF92FF920F939A
:100BE0001F93CF93DF93F0E0EF2EF1E0FF2EC1E0F3
:100BF000D0E000E311E000D000D0EDB7FEB7F28204
:100C0000E182D483C3830E94AC430F900F900F9076
:100C10000F900E94F54180E291E00E94BE4300D017
:100C200000D0EDB7FEB712830183D483C3830E9443
:100C3000AC430F900F900F900F900E948E1FDBCF50
:100C40000F931F93CF93DF930E94291287E090E0C8
:100C50000E9478120E94671360E070E0CB0120E0F0
:100C600030E0A9010E94922180919E0590919F05FC
:100C70000E942720E0919E05F0919F056481758177
:100C8000868197810E94FA4111E010934F061093DC
:100C90005006109351061093520680919B0190913B
:100CA0009C01A0919D01B0919E0180935306909369
:100CB0005406A0935506B09356061092570610920C
:100CC00058061092590610925A0680919F019091F1
:100CD000A001A091A101B091A20180935B06909325
:100CE0005C06A0935D06B0935E0610925F061092BC
:100CF00060061092610610926206109263061092CE
:100D000064061092650610926606109267061092AD
:100D100068061092690610926A06C8E4D6E0CE0111
:100D20006DEE75E00E949827CE0165EF73E040E814
:100D300050E00E94DE27CE010E94D61D1093FE04D3
:100D400082E08093FF0403E0009300051093010507
:100D50008091A3019091A401A091A501B091A60159
:100D60008093020590930305A0930405B0930505B5
:100D700010920605109207051092080510920905B9
:100D80008091A7019091A801A091A901B091AA0119
:100D900080930A0590930B05A0930C05B0930D0565
:100DA00010920E0510920F05109210051092110569
:100DB0001092120510921305109214051092150549
:100DC0001092160510921705109218051092190529
:100DD000C7EFD4E0CE016DE175E00E949827CE0107
:100DE00060EA75E040E850E00E94DE27CE010E94F4
:100DF000D61D1093290600932A0610932B061093F4
:100E00002C068091AB019091AC01A091AD01B09105
:100E1000AE0180932D0690932E06A0932F06B093DB
:100E2000300610923106109232061092330610925C
:100E300034068091AF019091B001A091B101B091C1
:100E4000B2018093350690933606A0933706B0938F
:100E500038061092390610923A0610923B0610920C
:100E60003C0610923D0610923E0610923F061092EC
:100E700040061092410610924206109243061092CC
:100E80004406C2E2D6E0CE016AEE74E00E949827E2
:100E9000CE0166E774E040E850E00E94DE27CE0114
:100EA0000E94D61D0E942D1480E090E0DF91CF912A
:100EB0001F910F91089590E09C012B503040220F1C
:100EC000331F220F331F865A9E4B820F931FF894B5
:100ED000C09828E12FB9779BFECF9FB9779BFECFB3
:100EE0008FB9779BFECFC09A78940895F894C098F4
:100EF0001FB8779BFECF8FB1C09A789486FFF6CF4C
:100F000008958091CD010E945B108091CC010E94D8
:100F1000A11008958091CD010E945B108091CC01B9
:100F20000E945B100895F894C09887E08FB9779B72
:100F3000FECFC09AC09886E08FB9779BFECFC09A4B
:100F400078940895F894C09881E08FB9779BFECF8C
:100F5000C09A88EE93E00E94A52578940895809128
:100F600000070895FC01C09889EC8FB9779BFECFEC
:100F700080E88FB9779BFECF82E08150DF01A80F18
:100F8000B11D9C919FB9779BFECF8823B1F7C09A82
:100F9000C0988BEC8FB9779BFECF80E88FB9779B99
:100FA000FECF82E08150DF01A80FB11D12969C9107
:100FB00012979FB9779BFECF8823A1F7C09A8081B3
:100FC00080930107818180930207828180930307C8
:100FD00083818093040708958F929F92AF92BF926E
:100FE000CF92DF92EF92FF920F931F93DF93CF93F5
:100FF00000D000D0CDB7DEB7E82E092F84E690E010
:101000000E94A525F02E20E031E08E010F5F1F4FDA
:10101000F3E0CF2ED12CCC0EDD1EF70191907F0195
:101020008824808190E0882999299A83898384E69D
:1010300090E02B833C830E94A525C0982B813C81A6
:10104000822F80688FB9779BFECFC90195958795D0
:10105000807C8FB9779BFECF5801F80181918FB9C1
:10106000779BFECFEC15FD05C9F7C09A2E5F3F4F69
:10107000F1E020313F0789F684E690E00E94A52543
:1010800020E431E080E191E01A821982C098422F79
:1010900040684FB9779BFECFA90155954795407C95
:1010A0004FB9779BFECFF80141914FB9779BFECFA7
:1010B000EC15FD05C9F7C09AC098482F40684FB994
:1010C000779BFECFAC0155954795407C4FB9779BF8
:1010D000FECFF80141914FB9779BFECFEC15FD058E
:1010E000C9F7C09A02962E5F3F4F41E08E319407B8
:1010F00059F681E090E09A838983C0988EEC8FB98D
:10110000779BFECF80E88FB9779BFECFC801029610
:10111000F80121912FB9779BFECFE817F907C9F79E
:10112000C09AC0988EE98FB9779BFECF80E88FB9BF
:10113000779BFECF0E5F1F4FF50181915F018FB945
:10114000779BFECFA016B106B9F7C09A0F900F900B
:101150000F900F90CF91DF911F910F91FF90EF9023
:10116000DF90CF90BF90AF909F908F900895C098E0
:1011700089E18FB9779BFECF83E08FB9779BFECF54
:1011800086E08FB9779BFECFC09AC0988AE18FB96D
:10119000779BFECF8EE08FB9779BFECF8EE08FB925
:1011A000779BFECFC09A81E08093F1060895C098A6
:1011B00089E18FB9779BFECF81E08FB9779BFECF16
:1011C00084EC8FB9779BFECFC09A1092F1060895F8
:1011D0008091EF069091F006089590E08F719070E5
:1011E000806E906AC09825E12FB9779BFECF9FB99A
:1011F000779BFECF8FB9779BFECFC09A08950E9450
:101200005B0708958091F2069091F30698609093A1
:10121000F3068093F206C09881E18FB9779BFECFE9
:101220008091F3068FB9779BFECF8091F2068FB93C
:10123000779BFECFC09A08958091F2069091F306B5
:10124000977F9093F3068093F206C09881E18FB95F
:10125000779BFECF8091F3068FB9779BFECF80916D
:10126000F2068FB9779BFECFC09A089581E08093F4
:10127000FF068091F2069091F30680619093F30649
:101280008093F206C09881E18FB9779BFECF809161
:10129000F3068FB9779BFECF8091F2068FB9779BCB
:1012A000FECFC09A08951092FF068091F2069091A9
:1012B000F3068F7E9093F3068093F206C09881E147
:1012C0008FB9779BFECF8091F3068FB9779BFECFC6
:1012D0008091F2068FB9779BFECFC09A0895DF9375
:1012E000CF9300D0CDB7DEB79A8389839093FB0666
:1012F0008093FA0684EF91E00E94A525C0988AEEBB
:101300008FB9779BFECF80E88FB9779BFECFFE0128
:101310003196CE01039621912FB9779BFECFE81726
:10132000F907C9F7C09A84EF91E00E94A5250F90B4
:101330000F90CF91DF910895CF93DF93EC01862F2B
:10134000C09898E09FB9779BFECFC09AC09898E06C
:101350009FB9779BFECFC09A0E945B07D093F5069A
:10136000C093F406DF91CF910895DF92EF92FF9240
:101370000F931F93DF93CF9300D0CDB7DEB78C01CF
:10138000D62E5A8349837901DD9A88EE93E00E9434
:10139000B812DE9881E090E00E94B812DE9A84E6EE
:1013A00090E00E94B812F894C09881E08FB9779BC2
:1013B000FECFC09A82EE92E09093F3068093F206FD
:1013C000C09881E18FB9779BFECF8091F3068FB9EA
:1013D000779BFECF8091F2068FB9779BFECFC09AA4
:1013E000C09882E18FB9779BFECF85E08FB9779B5C
:1013F000FECF1FB8779BFECFC09AC0988CE18FB903
:10140000779BFECF1FB8779BFECF8FE78FB9779B77
:10141000FECFC09AC09889E18FB9779BFECF81E05B
:101420008FB9779BFECF84EC8FB9779BFECFC09AA4
:10143000C09887E18FB9779BFECF8AE18FB9779B00
:10144000FECF86E58FB9779BFECFC09A84EF91E0FF
:101450000E94A525C09888EE8FB9779BFECF80E8C3
:101460008FB9779BFECFFE013196CE010396219175
:101470002FB9779BFECFE817F907C9F7C09A84EF19
:1014800091E00E94A52578948D2D0E945B077894A9
:101490001093F5060093F40689819A819093F906DA
:1014A0008093F806F092FB06E092FA061092F60698
:1014B0001092FC060E9476071092FF061092F10629
:1014C000109200070F900F90CF91DF911F910F9115
:1014D000FF90EF90DF90089581E08093FC06C09824
:1014E00083E08FB9779BFECFC09AC09888E08FB910
:1014F000779BFECFC09A10920507089581E08093F4
:10150000FC06C09883E08FB9779BFECFC09AC09845
:1015100088E08FB9779BFECFC09A10920507089597
:101520001092FC06C09886E08FB9779BFECFC09AD8
:10153000109205070895BF92CF92DF92EF92FF922B
:101540000F931F93DF93CF9300D00F92CDB7DEB7E9
:101550008C016B017A010E943C26C09888E08FB90B
:10156000779BFECFC09AC09888E08FB9779BFECF5B
:10157000C09A0E99FECF8499FCCFF894C09889E068
:101580008FB9779BFECFC09AC09889E08FB9779BBF
:10159000FECFC09AD80112965C911297252F33275F
:1015A00027FD3095BB2440E00AC0D8011396ED9189
:1015B000FC911497E80FF91F8081B80E4F5F842FBC
:1015C00090E0821793078CF3545FC0988EE38FB935
:1015D000779BFECF5FB9779BFECFC09AF8018681DB
:1015E000882319F081E698E802C081E498E89A839C
:1015F0008983C0988EE38FB9779BFECFFE01319629
:10160000CE01039621912FB9779BFECFE817F907FA
:10161000C9F7C09AC0988EE38FB9779BFECF8091AF
:10162000F6068FB9779BFECFC09AC0988EE38FB92C
:10163000779BFECF80E090E0FC01EC50F94F2481D5
:101640002FB9779BFECF019682309105A9F7C09AFA
:10165000C0988EE38FB9779BFECF80E090E0F801D1
:10166000E80FF91F20812FB9779BFECF01968230BA
:101670009105A9F7C09AC0988EE38FB9779BFECFEA
:1016800080E090E0FC01EC50F94F26812FB9779B68
:10169000FECF019682309105A9F7C09AC601B70125
:1016A0000E94C825D80115968C9115978823A9F119
:1016B0008091FC06882331F4C09883E08FB9779B32
:1016C000FECFC09AC0981FB8779BFECF8FB1C09A4B
:1016D00081FFF8CF20E0A5E0EA2EC098EFB8779B15
:1016E000FECFC09AC0981FB8779BFECFCFB0C09AEC
:1016F0002F5F253649F478948091EF069091F0069B
:101700000E941E1B80E060C084E690E02B830E9454
:10171000B8122B81C3FEE1CF06C0C09884E08FB918
:10172000779BFECFC09AC0988EE38FB9779BFECF90
:1017300040E00CC0D8011396ED91FC911497E80F8E
:10174000F91F80818FB9779BFECF4F5F842F90E088
:10175000F8012281332727FD30958217930754F330
:10176000C09AC0988EE38FB9779BFECFBFB8779BA6
:10177000FECFC09A849BFECFF8948499FECFC09888
:1017800088E08FB9779BFECFC09AC09888E08FB968
:10179000779BFECFC09AC09889E08FB9779BFECF28
:1017A000C09AC09889E08FB9779BFECFC09AC09845
:1017B00086E08FB9779BFECFC09A78948091F60629
:1017C0008F5F8093F60681E00F900F900F90CF917E
:1017D000DF911F910F91FF90EF90DF90CF90BF901E
:1017E0000895FF920F931F93DF93CF9300D0CDB74F
:1017F000DEB7FC018091F106882331F0C0988DE0BE
:101800008FB9779BFECFC09A3281432F552747FD72
:10181000509520E060E007C0A381B481A80FB91FF4
:101820008C91280F6F5F862F90E084179507A4F3A3
:10183000832F845F9091F10691118C5FC09898E09E
:101840009FB9779BFECFC09AC09898E09FB9779BCD
:10185000FECFC09A0E99FECF8499FCCFF894C09821
:1018600099E09FB9779BFECFC09AC09899E09FB945
:10187000779BFECFC09AC0989EE39FB9779BFECF1F
:101880008FB9779BFECFC09A81E498E89A838983C9
:101890008091FF06882321F081E698E89A83898366
:1018A0008091F106882329F089819A8188609A8342
:1018B0008983C0988EE38FB9779BFECFDE011196A6
:1018C000CE0103963D913FB9779BFECFA817B9078C
:1018D000C9F7C09AC0988EE38FB9779BFECF8091ED
:1018E000F6068FB9779BFECFC09AC0988EE38FB96A
:1018F000779BFECF80E090E0DC01AC50B94F1496AE
:101900003C9114973FB9779BFECF019682309105A9
:1019100099F7C09AC0988EE38FB9779BFECF80E08D
:1019200090E0DF01A80FB91F3C913FB9779BFECF34
:10193000019682309105A9F7C09AC0988EE38FB9BD
:10194000779BFECF80E090E0DC01AC50B94F16965B
:101950003C9116973FB9779BFECF01968230910557
:1019600099F7C09A8091F106882381F0C0988EE3A0
:101970008FB9779BFECFA1E0B7E08D918FB9779BB0
:10198000FECF87E0A530B807C1F7C09AC0988EE3B4
:101990008FB9779BFECF30E009C0A381B481A80F37
:1019A000B91F8C918FB9779BFECF3F5F832F90E05B
:1019B0004281552747FD50958417950774F3C09AC7
:1019C000C0988EE38FB9779BFECF2FB9779BFECF60
:1019D000C09A8581882391F18091FC06882331F497
:1019E000C09883E08FB9779BFECFC09AC0981FB88C
:1019F000779BFECF8FB1C09A81FFF8CF10E005E052
:101A0000C0980FB9779BFECFC09AC0981FB8779B3C
:101A1000FECFFFB0C09A1F5F153649F478948091CD
:101A2000EF069091F0060E941E1B80E043C084E602
:101A300090E00E94B812F3FEE3CF06C0C09884E0A5
:101A40008FB9779BFECFC09A7894849BFECF849900
:101A5000FECF8091FF068823F9F084EA92E00E948D
:101A6000B812B79B0BC0C0988FE78FB9779BFECF9A
:101A70001FB8779BFECF8FB1C09A0EC0C09888E088
:101A80008FB9779BFECFC09AC09888E08FB9779BBB
:101A9000FECFC09A80E001C081E0F894C09896E043
:101AA0009FB9779BFECFC09A78949091F6069F5F7E
:101AB0009093F6060F900F90CF91DF911F910F91A9
:101AC000FF90089581E0849B80E0089581E00E9B63
:101AD00080E0089581E0849B80E00895DF93CF93B8
:101AE00000D000D0CDB7DEB70E9BC7C11092000763
:101AF0000E9B1AC0B79918C0C0988FE78FB9779B13
:101B0000FECF1FB8779BFECF8FB1C09AC09888E0F8
:101B10008FB9779BFECFC09AC09888E08FB9779B2A
:101B2000FECFC09A8FEFAAC1C0988FE78FB9779B7D
:101B3000FECF1FB8779BFECF4FB1C09A4F77C1F44D
:101B4000C0988FE78FB9779BFECF1FB8779BFECFEA
:101B50008FB1C09AC09888E08FB9779BFECFC09AAA
:101B6000C09888E08FB9779BFECFC09A8EEF86C170
:101B70004C3084F0E091F406F091F506842F99271B
:101B800087FD90950B972481332727FD30952817E3
:101B900039077CF5C0988FE78FB9779BFECF50E06F
:101BA000842F992787FD909504C01FB8779BFECF9F
:101BB0005F5F252F30E02817390714F4B799F5CF68
:101BC000C09AC0988FE78FB9779BFECF1FB8779BDD
:101BD000FECF8FB1C09AC09888E08FB9779BFECFB7
:101BE000C09AC09888E08FB9779BFECFC09A8DEFDE
:101BF00045C1E091F406F091F5064C504383C0983E
:101C00008FE78FB9779BFECFFE013196CE01039609
:101C10001FB8779BFECF2FB12193E817F907C1F7C3
:101C2000C09AE091F406F091F506998181E095FF64
:101C300080E08783C0988FE78FB9779BFECF1FB86E
:101C4000779BFECFE091F406F091F5068FB180838B
:101C5000C09AC0988FE78FB9779BFECF84E005C00C
:101C60001FB8779BFECF815011F0B799F9CFC09A7A
:101C7000C0988FE78FB9779BFECF80E090E01FB8C8
:101C8000779BFECFE091F406F091F5062FB1E80FB7
:101C9000F91F218301968230910589F7C09A8981C5
:101CA00083FF4DC0C0988FE78FB9779BFECFEBEED7
:101CB000F6E01FB8779BFECF8FB1819386E0EF3EB1
:101CC000F807B9F7C09AC09889E98FB9779BFECF1A
:101CD00080E88FB9779BFECF82E08150E82FF0E05B
:101CE000E551F94F90819FB9779BFECF8823A9F7E3
:101CF000C09AC0988BE98FB9779BFECF80E88FB9E7
:101D0000779BFECF82E08150E82FF0E0E351F94F5E
:101D100090819FB9779BFECF8823A9F7C09AC0987E
:101D20008CE08FB9779BFECFC09A81E0809300074B
:101D3000E091F406F091F506838184508383C09886
:101D40008FE78FB9779BFECF40E00FC01FB8779B1E
:101D5000FECFE091F406F091F5068FB10580F68193
:101D6000E02DE40FF11D80834F5FE091F406F091C8
:101D7000F506242F30E08381992787FD9095281759
:101D8000390724F3C09AC0988FE78FB9779BFECFAD
:101D90001FB8779BFECF6FB1C09AC0988FE78FB9FD
:101DA000779BFECFFE013396CE0105961FB8779B39
:101DB000FECF2FB12193E817F907C1F7C09AE09140
:101DC000F406F091F5068B81808750E040E00CC06E
:101DD000E091F406F091F5060580F681E02DE80F1C
:101DE000F91F8081480F5F5FE091F406F091F506DE
:101DF000852F90E02381332727FD309582179307A5
:101E00003CF34617C1F0C0988FE78FB9779BFECFA0
:101E10001FB8779BFECF8FB1C09AC09888E08FB96A
:101E2000779BFECFC09AC09888E08FB9779BFECF92
:101E3000C09A8CEF23C08C8187FF07C08091050773
:101E40008F5F8093050781E019C0C0988FE78FB935
:101E5000779BFECF1FB8779BFECF8FB1C09AC098FB
:101E600088E08FB9779BFECFC09AC09888E08FB981
:101E7000779BFECFC09A8BEF01C080E00F900F9050
:101E80000F900F90CF91DF910895809105078823DF
:101E900029F08091050710920507089580E00895C4
:101EA000C09888E08FB9779BFECFC09AC09888E031
:101EB0008FB9779BFECFC09A0895992787FD90959B
:101EC000982F88278068C09823E12FB9779BFECF91
:101ED0009FB9779BFECF8FB9779BFECFC09A0895AD
:101EE000C09886E08FB9779BFECFC09AC09882E1F8
:101EF0008FB9779BFECF85E08FB9779BFECF88E0C7
:101F00008FB9779BFECFC09AC0988EE28FB9779B2E
:101F1000FECF88E18FB9779BFECF1FB8779BFECFAE
:101F2000C09A0E94500F0895C09886E08FB9779BA1
:101F3000FECFC09AC09882E18FB9779BFECF85E033
:101F40008FB9779BFECF1FB8779BFECFC09AC09802
:101F50008EE28FB9779BFECF1FB8779BFECF1FB85D
:101F6000779BFECFC09A0E94500F0895C09886E0DC
:101F70008FB9779BFECFC09AC09882E18FB9779BCB
:101F8000FECF85E08FB9779BFECF81E08FB9779B3D
:101F9000FECFC09A0E94500F0895C09882E18FB979
:101FA000779BFECF85E08FB9779BFECF84E08FB91A
:101FB000779BFECFC09A0E94500F089590E08F70DB
:101FC00090702091F2063091F306207F822B932BA4
:101FD0009093F3068093F206C09881E18FB9779BC6
:101FE000FECF8091F3068FB9779BFECF8091F206EA
:101FF0008FB9779BFECFC09A089590E026E0880FB6
:10200000991F2A95E1F790702091F2063091F3061E
:102010002F73822B932B9093F3068093F206C09834
:1020200081E18FB9779BFECF8091F3068FB9779BC3
:10203000FECF8091F2068FB9779BFECFC09A0895AC
:10204000C09884E08FB9779BFECFC09A0895C0985E
:1020500086E08FB9779BFECFC09A08955F9BFECF35
:102060005F988CB108955D9BFECF5D988CB9089503
:102070008FEF0895882311F48BB104C0813031F4BF
:1020800080919B00881F8827881F089580E008950D
:10209000CF93DF93EC0107C06091060870910708A9
:1020A00090E00E948043FE01219684918823A1F74D
:1020B000DF91CF9108958F3F09F43FC0982F9695F7
:1020C0009695969521E030E002C0220F331F9A9535
:1020D000E2F790E08770907082309105D9F08330FC
:1020E000910534F4009771F08130910541F50EC0EF
:1020F00084309105C1F0843091058CF085309105D4
:10210000F1F415C08BB3822B8BBB07C088B3822B35
:1021100088BB03C085B3822B85BB81E0089582B361
:10212000822B82BBFACF83B1822B83B9F6CF809109
:102130006200822B80936200F0CF8FEF08958FEFC3
:1021400008958F3F09F440C0982F969596959695DF
:1021500021E030E002C0220F331F9A95E2F720956C
:1021600090E08770907082309105D9F083309105AE
:1021700034F4009771F08130910541F50EC0843040
:102180009105C1F0843091058CF085309105F1F412
:1021900015C08BB382238BBB07C088B3822388BB57
:1021A00003C085B3822385BB81E0089582B3822377
:1021B00082BBFACF83B1822383B9F6CF80916200CC
:1021C000822380936200F0CF8FEF08958FEF089500
:1021D0008F3F89F1282F30E0277030702230310591
:1021E000C1F0233031053CF42115310571F0213067
:1021F000310509F50CC02430310579F02430310562
:1022000054F025303105B9F40AC029B309C026B30A
:1022100007C023B305C020B303C021B101C020B162
:1022200030E086958695869502C0359527958A95E6
:10223000E2F7217001C02FEF822F0895882319F053
:1022400080B58B7F02C080B5846080BD81E0089539
:102250008F3F09F43FC0982F96959695969521E06B
:1022600030E002C0220F331F9A95E2F790E08770AA
:10227000907082309105D9F08330910534F4009745
:1022800071F08130910541F50EC084309105C1F0A7
:10229000843091058CF085309105F1F415C08BB335
:1022A00082278BBB07C088B3822788BB03C085B356
:1022B000822785BB81E0089582B3822782BBFACF53
:1022C00083B1822783B9F6CF809162008227809301
:1022D0006200F0CF8FEF08958FEF08958F3F09F4DC
:1022E0008CC0982F96959695969521E030E002C087
:1022F000220F331F9A95E2F790E0662309F04AC057
:10230000322F3095877090708230910519F18330AB
:1023100091053CF4009781F08130910509F06DC082
:1023200012C08430910521F184309105D4F08530BC
:10233000910509F062C023C08AB383238ABB8BB3A3
:10234000822B8BBB58C087B3832387BB88B3822B78
:1023500088BB51C084B3832384BB85B3822B85BBE8
:102360004AC081B3832381BB82B3822B82BB43C02B
:1023700082B1832382B983B1822B83B93CC080911F
:10238000610083238093610080916200822B80939F
:10239000620031C08770907082309105D9F083302F
:1023A000910534F4009771F08130910541F50EC02C
:1023B00084309105B9F08430910584F08530910521
:1023C000F1F414C08AB3822B8ABB15C087B3822B69
:1023D00087BB11C084B3822B84BB0DC081B3822B19
:1023E00081BB09C082B1822B82B905C08091610096
:1023F000822B8093610081E008958FEF08958FEF25
:1024000008958FEF0895009711F480E009C081309E
:10241000910511F488E004C08230910529F480E12F
:102420000E94281181E008958FEF0895009711F41C
:1024300080E009C08130910511F488E004C0823049
:10244000910529F480E10E945B1081E008958FEFEF
:10245000089580B5846080BD87E087BB88BB8FEF1F
:1024600084BB15BA82E082B987E68ABB80E48BBB65
:1024700080E58DB981E08EB980E090E00E9416126F
:1024800081E090E00E94161282E090E00E94161215
:1024900083E090E00E9416120895009711F480E006
:1024A00009C08130910511F488E004C082309105A3
:1024B00029F480E10E94A11081E008958FEF089532
:1024C00090919B0095FFFCCF90919B009F7D9093F6
:1024D0009B0080939C0008959093900089B986E0BA
:1024E000809395005298599A8AB188618AB9089563
:1024F0000F931F93CF93DF930E946C12C3E3D0E13D
:102500000EE210E1CE01B8010E94F3429093070859
:1025100080930608CE01B8010E94F342909305080B
:1025200080930408DF91CF911F910F9108959093AC
:1025300098008093990086E080939D00EAE9F0E09E
:1025400080818B7F8083ABE9B0E08C9182608C933B
:10255000808188618083089580919B0087FFFCCFF4
:1025600080919B008F7780939B0080919C000895C1
:1025700000000000000000000197D1F708950E94BC
:10258000834408950E948B4480E00895EF92FF9267
:102590000F931F93CF93DF93E82EE7017E01F92E6F
:1025A000E70180E090E00E948344082F8B8381E064
:1025B00090E00E948344E82E8A8382E090E00E94AB
:1025C0008344F82E898383E090E00E948344182F8F
:1025D000888384E090E00E948344FE0CF00EF10EAC
:1025E0008F1511F481E001C08FEFDF91CF911F9122
:1025F0000F91FF90EF900895CF93DF93EC0185E06A
:1026000090E00E948344888381E0DF91CF91089518
:10261000FC0186E090E060810E948B4481E0089597
:10262000CF93DF93EC0186E090E00E94834488839F
:1026300081E0DF91CF9108950F931F93CF93DF93A4
:10264000082F192FC8E0D0E0CE010E948344F80182
:1026500081938F012196C831D105B1F781E0DF91D7
:10266000CF911F910F9108950F931F93CF93DF93F5
:10267000082F192FC8E0D0E0F80161918F01CE0139
:102680000E948B442196C831D105B1F781E0DF91DA
:10269000CF911F910F910895CF93DF93EC0187E0C5
:1026A00090E00E948344888381E0DF91CF91089578
:1026B000FC0187E090E060810E948B4481E00895F6
:1026C000F8940895789408950E946013FFCF0F93B3
:1026D0001F93DF93CF93CDB7DEB7A3970FB6F894D0
:1026E000DEBF0FBECDBF0E94DA188093C5078F3FB3
:1026F00021F48EE060E00E945D170E941E27082FE3
:1027000081FF04C084E160E00E945D1702FF04C005
:1027100083E160E00E945D171092C8071092D6070F
:102720001092D5071092C7071092C6071092D707CC
:102730001092D407E4EBF7E08FEF808382838183EC
:10274000339697E0E33CF907C1F793E690931207BD
:102750008093100790933407809332079093560725
:1027600080935407909378078093760790939A0705
:1027700080939807EBEDF7E020E030E001C09A018C
:10278000A9014F5F5F4FCA01880F991F880F991FDA
:10279000840F951F8852984F91838083C901880FB9
:1027A000991F880F991F820F931F8852984F948307
:1027B000838335964530510511F71092DA07109250
:1027C000D9071092F5071092F4071092CB071092D8
:1027D000CA0788ED97E090930707809306078E015C
:1027E0000F5F1F4FC80162EF72E20E949827C80175
:1027F0006BE676E040E850E00E94DE2785E58093B6
:102800006B0619861C861D861E861F86188A198AE5
:102810001A8A1B8A1C8A1D8A1E8A1F8A188E198E84
:102820001A8E1B8E1C8E1D8E1E8E1F8E18A219A234
:102830001AA21BA281E0888792E09A878B87C80141
:102840000E94D61DA3960FB6F894DEBF0FBECDBF73
:10285000CF91DF911F910F910895CF92DF92FF9258
:102860000F931F93DF93CF9300D0CDB7DEB710E166
:10287000C12E17E0D12E90E0F601F080FF2DFF3F32
:10288000B1F000E117E020E0921761F0F8018081DB
:10289000F81641F485E06F2D29839A830E945D1715
:1028A0009A8129812F5F0E5D1F4F253069F79F5F49
:1028B00022E230E0C20ED31E9530F1F60E94A21C37
:1028C000992787FD9095FC01EE0FFF1FA5E0880F6B
:1028D000991FAA95E1F7E80FF91FE85FF84F828585
:1028E0008093D707F093D607E093D507F093C707F7
:1028F000E093C6078093C8070E9414280E9404280A
:102900000E946133FFCFEF92FF920F931F93CF93FB
:10291000DF93EC017B018A018985823021F080916F
:10292000C307888301C018828091C307853020F0D7
:1029300087E060E00E945D178985823029F08091F0
:10294000C3078F5F8093C3078091C307882319F45F
:1029500081E08093C3078881992787FD9095FC01CA
:10296000EE0FFF1F75E0880F991F7A95E1F7E80FCA
:10297000F91FE85FF84FF182E082888582878881BD
:10298000992787FD9095FC01EE0FFF1F55E0880FFA
:10299000991F5A95E1F7E80FF91FE85FF84F83E0B8
:1029A00081872881822F992787FD9095FC01EE0F62
:1029B000FF1F35E0880F991F3A95E1F7E80FF91FDF
:1029C000E85FF84F20878881992787FD90957C01E3
:1029D000EE0CFF1CB5E0880F991FBA95E1F7E80EE1
:1029E000F91E88E097E0E80EF91EF7011582CE0186
:1029F0000B960E94A321F701948F838F8B859C8572
:102A0000AD85BE858E339105A105B10520F086E127
:102A100068810E945D17E880FF24E7FCF094CE01F6
:102A20004B960E94A321F701EE0FFF1F75E0EE0CFD
:102A3000FF1C7A95E1F7EE0DFF1DE85FF84F968BCE
:102A4000858B8881992787FD90957C01EE0CFF1C72
:102A500055E0880F991F5A95E1F7E80EF91E88E0B6
:102A600097E0E80EF91EF70185899689238D348D4C
:102A7000820F931F908F878BCE0143960E94A321D4
:102A8000F701968F858F8881992787FD9095FC01A6
:102A9000EE0FFF1F35E0880F991F3A95E1F7E80F19
:102AA000F91FE85FF84F858D968D928F818F81E0B9
:102AB00090E090A3878F1383028381E084878881CD
:102AC000992787FD9095FC01EE0FFF1F05E0880F09
:102AD000991F0A95E1F7E80FF91FE85FF84F89851C
:102AE00081A381E0DF91CF911F910F91FF90EF9033
:102AF00008950E940D23089585E690E00895E091E1
:102B0000D507F091D60784870895E091D507F09115
:102B1000D6078485089520914706222341F0FB01C2
:102B2000208320917504FC01208381E0089580E0DA
:102B30000895DF93CF930F92CDB7DEB7198207C008
:102B400080ED97E00E94A52589818F5F8983898127
:102B50008436B0F30F90CF91DF91089581E090E03B
:102B60000E944D120E94991581E090E00E94161279
:102B70000E949915089581E090E00E944D120E94F4
:102B800099150E9499150E94991581E090E00E9484
:102B900016120E9499150895FF920F931F93DF93C9
:102BA000CF9300D00F92CDB7DEB700D000D000D0C9
:102BB000EDB7FEB731968E010F5F1F4FADB7BEB7B1
:102BC00012961C930E93119726ED31E033832283E6
:102BD000848315820E94F543EDB7FEB736960FB693
:102BE000F894FEBF0FBEEDBFFF2472C0800F911F8F
:102BF000DC018C918433D1F1853370F48133F9F0A9
:102C0000823320F4803309F05CC016C0823311F1A6
:102C1000833309F056C023C08733C9F1883330F4B9
:102C2000853369F1863309F04CC02CC08833B1F18B
:102C3000893309F046C03BC00E94BB1502C00E9408
:102C4000AE150E94BB150E94BB150E94BB150E94C9
:102C5000BB1537C00E94AE150E94AE15F4CF0E947E
:102C6000AE150E94AE150E94AE15EFCF0E94AE15B4
:102C70000E94AE150E94AE150E94AE15E8CF0E94CC
:102C8000AE1502C00E94BB150E94AE1504C00E9482
:102C9000BB150E94BB150E94AE1506C00E94BB1555
:102CA0000E94BB150E94BB150E94AE1508C00E9471
:102CB000BB150E94BB150E94BB150E94BB150E944C
:102CC000AE150E9499150E9499150E949915F394CA
:102CD000F80101900020E9F73197E01BF10B8F2DEF
:102CE00090E08E179F0708F481CF0F900F900F9000
:102CF000CF91DF911F910F91FF9008950F931F9334
:102D0000CF93DF9380914706882329F4DF91CF91F9
:102D10001F910F9108950E9460130E9460130E94FA
:102D20006013C6EDD1E086E693E00E94481000D023
:102D300000D0EDB7FEB73196ADB7BEB71296DC93B3
:102D4000CE93119780917504828313820E94AC43C5
:102D50000F900F900F900F9082E693E00E94481022
:102D600080914706883110F01092470680914706FF
:102D700090E001978631910508F04BC08A5B9F4F28
:102D8000FC01EE0FFF1F0590F491E02D099486E2FF
:102D900093E041C08FEF92E03EC08BEE92E03BC0EB
:102DA00085ED92E038C08AEB92E035C084EA92E08B
:102DB00032C08CE892E02FC089E792E02CC086E612
:102DC00092E029C088E492E026C083E292E023C02A
:102DD00087E192E020C08CEF91E01DC08DEE91E084
:102DE0001AC089ED91E017C088EC91E014C084EB23
:102DF00091E011C084E991E00EC08CE791E00BC036
:102E000081E691E008C080E591E005C081E491E0B1
:102E100002C08AE391E00E94481060910608709118
:102E200007088DE090E00E94804360910608709151
:102E300007088AE090E00E94804314E182E090E07D
:102E40000E944D1283E090E00E94161204E688EE84
:102E500093E00E94A5250150D1F783E090E00E9405
:102E60004D1282E090E00E94161204E688EE93E094
:102E70000E94A5250150D1F7115001F782E090E0A2
:102E80000E94161283E090E00E9416128091750451
:102E90000E94CC150E94991582E090E00E944D128C
:102EA0000E94991582E090E00E9416120E949915E6
:102EB000809147060E94CC1536CFEF92FF920F9378
:102EC0001F93182FE62E80934706609375040E9487
:102ED0007E1600E021C082E090E00E944D1283E067
:102EE00090E00E94161294E6F92E88EE93E00E947C
:102EF000A525FA94D1F783E090E00E944D1282E07C
:102F000090E00E94161284E6F82E88EE93E00E946C
:102F1000A525FA94D1F70F5F0431E8F283E090E041
:102F20000E94161282E090E00E9416128E2D0E94DE
:102F3000CC15812F0E94CC1500E0CDCF80934706A1
:102F4000E091D507F091D6078085809375040E94A3
:102F50007E1608956F927F928F929F92AF92BF924A
:102F6000CF92DF92EF92FF920F931F93CF93DF9355
:102F700082E793E00E94481000D000D089ED91E0F4
:102F8000ADB7BEB712969C938E931197E091D5077B
:102F9000F091D6078085992787FD909514969C938C
:102FA0008E9313970E94AC43E091D507F091D6071A
:102FB000C281D38182EE91E0EDB7FEB79283818327
:102FC000D483C3830E94AC43EDB7FEB73196AFEE16
:102FD000EA2EA1E0FA2EADB7BEB71296FC92EE92A1
:102FE00011978881828313820E94AC43ECEFCE2E2E
:102FF000E1E0DE2EEDB7FEB7D282C182E091D507C7
:10300000F091D60780819181ADB7BEB714969C939D
:103010008E9313970E94AC4376E0A72E72E0B72EF2
:10302000EDB7FEB7B282A1828091D5079091D60705
:10303000948383830E94AC4308E017E00F900F90C5
:103040000F900F90C0E0D0E066E1662E62E0762E31
:103050004701C601DC2CC92EC501BA2CA92ED80106
:103060001296ED90FC90139700D000D000D0EDB7F1
:10307000FEB73196ADB7BEB712967C926E9211979D
:10308000D383C283F582E4820E94AC430F900F90F9
:10309000EDB7FEB73196ADB7BEB711968C921197CA
:1030A00012969C92D7018C91828313820E94AC432A
:1030B000EDB7FEB7D182C282D8018D919C919483E5
:1030C00083830E94AC43EDB7FEB7B182A282CE01EA
:1030D000880F991F9E0145E0220F331F4A95E1F7A3
:1030E000820F931F885F984F948383830E94AC4321
:1030F00021960E5D1F4F0F900F900F900F90C530CF
:10310000D10509F0ACCFDF91CF911F910F91FF90C6
:10311000EF90DF90CF90BF90AF909F908F907F9077
:103120006F900895CF93DF93E091D507F091D60784
:10313000C281D3818881853539F00E94AA1781E048
:103140000E949E1785E58883E091D507F091D60708
:103150008081918121E18030920728F00E94AA1796
:1031600082E10E949E17DF91CF910895992787FDF4
:103170009095FC01EE0FFF1FB5E0880F991FBA95DF
:10318000E1F7E80FF91FE85FF84FA281B3818C9156
:10319000853519F085E58C9309C08081918121E105
:1031A0008030920728F082E10E949E178FEF0895E9
:1031B00081E0089560919A0570919B0580919C052E
:1031C00090919D05E0E0F0E09B01AC010E2E04C063
:1031D00056954795379527950A94D2F720FD1AC042
:1031E00021E030E040E050E00E2E04C0220F331FFB
:1031F000441F551F0A94D2F7262B372B482B592BE7
:1032000020939A0530939B0540939C0550939D0510
:103210008E2F08953196E032F105B1F68FEF0895C3
:10322000E091D507F091D6076585768587859089E9
:103230000895DF92EF92FF920F931F93D82E81E0B3
:10324000E82EF12C012D112D0D2C04C0EE0CFF1CCD
:10325000001F111F0A94D2F780919A0590919B0547
:10326000A0919C05B0919D058E219F21A023B123A3
:103270000097A105B10509F45DC00E946013EFE05D
:10328000F7E0A8019701209530954095509563E0AF
:1032900081818F3F39F186819781A085B1858E1517
:1032A0009F05A007B10731F4128613861486158690
:1032B0001082628386819781A085B18582239323C2
:1032C000A423B52386839783A087B18782859385BE
:1032D000A485B58582239323A423B523828793876E
:1032E000A487B587B29687E0E93BF80789F62EEF09
:1032F0003FEF4FEF5FEF04C0220F331F441F551FF6
:10330000DA94D2F780919A0590919B05A0919C0543
:10331000B0919D0582239323A423B52380939A051E
:1033200090939B05A0939C05B0939D050E9462130A
:1033300081E001C08FEF1F910F91FF90EF90DF9020
:103340000895EF92FF920F931F9321E030E040E049
:1033500050E004C0220F331F441F551F8A95D2F737
:10336000E091D507F091D60785859685A785B08928
:1033700079018A01E822F9220A231B23E114F104CE
:1033800001051105D1F02095309540955095822387
:103390009323A423B52385879687A787B08B81893C
:1033A0009289A389B48982239323A423B523818B93
:1033B000928BA38BB48B81E001C08FEF1F910F9193
:1033C000FF90EF90089520919A0530919B054091D0
:1033D0009C0550919D05082E04C05695479537953C
:1033E00027950A94D2F72170307021153105E9F044
:1033F000E091D507F091D60721E030E040E050E0C1
:1034000004C0220F331F441F551F8A95D2F78585AC
:103410009685A785B089822B932BA42BB52B858706
:103420009687A787B08B81E008958FEF0895EF927C
:10343000FF920F931F93DF93CF930F92CDB7DEB719
:1034400091E0E92EF12C012D112D04C0EE0CFF1C92
:10345000001F111F8A95D2F780919A0590919B05C4
:10346000A0919C05B0919D058E219F21A023B123A1
:103470000097A105B10511F481E03FC00E946013DF
:10348000EFE0F7E020E033E080818130A9F482852D
:103490009385A485B5858E219F21A023B123009714
:1034A000A105B10549F03283178616861082E2869F
:1034B000F3860487158721E08081823091F482852C
:1034C0009385A485B5858E159F05A007B10749F49E
:1034D0003283178616861082128613861486158606
:1034E00021E0B29687E0E93BF80771F629830E9454
:1034F00062132981222329F482E00E947F158FEF35
:1035000001C081E00F90CF91DF911F910F91FF904B
:10351000EF900895E091D507F091D607258536857F
:103520004785508926233723482359232115310500
:103530004105510521F1618B728B838B948B21E0C6
:1035400027830090C50704C0969587957795679562
:103550000A94D2F7617070706115710519F00E94BC
:10356000C81E04C080E090E00E94EF1EE091D507E5
:10357000F091D607218932894389548903C020E01C
:1035800030E0A901B901CA0108959091D40794309F
:10359000D0F4E4EBF7E020E030813F3F21F02F5FF3
:1035A00033962530C9F730E0F901EE0FFF1FE20F27
:1035B000F31FEC54F84F8283808361839F5F909365
:1035C000D4079F0102C020E030E0C9010895BC018A
:1035D00020E030E0822FA901440F551F420F531FF6
:1035E0004C54584F6417750731F02F5F3F4F25300B
:1035F000310581F78FEF08950E94E71A8F3F11F48C
:1036000081E003C0853029F482E00E947F158FEFAE
:103610000895992787FD9095FC01EE0FFF1FE80F95
:10362000F91FEC54F84F8FEF808382838183809160
:10363000D40781508093D40781E00895EF92FF92E0
:103640000F931F93DF93CF930F92CDB7DEB70E94F6
:10365000E71A682F8F3F11F481E003C0853029F409
:1036600082E00E947F158FEF8FC0082F112707FD82
:1036700010957801EE0CFF1CE00EF11E84EB97E034
:10368000E80EF91ED70112969C9112978C9198170B
:103690000CF079C069830E94601300D000D000D084
:1036A000EDB7FEB7319687E292E0ADB7BEB712969E
:1036B0009C938E931197A091D507B091D607189639
:1036C0008C91992787FD909593838283158304833A
:1036D0000E94AC43F70182818F5F8283E091D5071E
:1036E000F091D6071482E5EBF7E08DB79EB706960A
:1036F0000FB6F8949EBF0FBE8DBF20E030E070E49F
:103700006981A901440F551F420F531F4C54584F54
:1037100071F0A0814A2F552747FD5095872F90E0E3
:103720004817590724F48181882309F47A2F2F5FE1
:103730003F4F33962530310521F77093C407EFE0F2
:10374000F7E0862F992787FD9095A92FB92F63E081
:103750002081223089F422853385448555852817B8
:1037600039074A075B0741F4628317861686108281
:103770001286138614861586B29627E0E93BF20777
:1037800039F70E94621381E00F90CF91DF911F9172
:103790000F91FF90EF9008950F931F93DF93CF93B6
:1037A0000F92CDB7DEB70E94E71A8F3F11F481E088
:1037B00003C0853029F482E00E947F158FEFA3C0FB
:1037C00089830E9460138981082F112707FD1095B6
:1037D000F801EE0FFF1FE00FF11FEC54F84F92813C
:1037E0001916B4F0E091D507F091D6079781926051
:1037F0009783992787FD9095A92FB92F818B928B5D
:10380000A38BB48B0E94621380E090E00E94EF1EB5
:1038100000D000D000D0EDB7FEB7319686E492E03C
:10382000ADB7BEB712969C938E931197A091D50712
:10383000B091D60718968C91992787FD9095938320
:103840008283158304830E94AC43F801EE0FFF1FAF
:10385000E00FF11FEC54F84F828181508283E5EB39
:10386000F7E08DB79EB706960FB6F8949EBF0FBED1
:103870008DBF80E090E060E49C01220F331F280F91
:10388000391F2C54384F71F07081472F552747FD51
:103890005095262F30E04217530724F4218122232C
:1038A00009F4672F019633968530910529F76093C7
:1038B000C40700D000D0EDB7FEB7319682E692E0A3
:1038C000ADB7BEB712969C938E9311976283138205
:1038D0000E94AC43A091D507B091D607F801EE0F36
:1038E000FF1FE00FF11FEC54F84F81811B968C9362
:1038F0001B9781E014968C930F900F900F900F9070
:103900000E94621381E00F90CF91DF911F910F9180
:1039100008950E94E71A8F3F11F481E003C08530BB
:1039200029F482E00E947F158FEF0895992787FD83
:103930009095FC01EE0FFF1FE80FF91FEC54F84FB4
:1039400082810895E091CA07F091CB0780810895A4
:103950000F931F93CF93DF93C091CA07D091CB07EA
:1039600084E893E00E94481005E712E01FC000D0F1
:1039700000D0EDB7FEB712830183288130E0C90182
:10398000880F991F45E0220F331F4A95E1F7820FF8
:10399000931F815E984F948383830E94AC430B8076
:1039A000DC81C02D0F900F900F900F902097F9F6AB
:1039B00081E893E00E944810DF91CF911F910F9111
:1039C0000895EF92FF920F931F93CF93DF93E091AF
:1039D0000607F0910707309709F491C04091CA0794
:1039E0005091CB074115510509F44DC0DA01682FFC
:1039F000772767FD70959B01220F331F95E0660FB7
:103A0000771F9A95E1F7260F371F285F384FB901C6
:103A1000695E7F4F265F3F4F9C919923B1F1092F3B
:103A200010E0E801CC0FDD1F689414F8000F111F9F
:103A30001694E1F7C00FD11FC85FD84F0F89188DBA
:103A4000EB01E880F980E016F106F8F00E151F058D
:103A500099F4092F10E0E801CC0FDD1F95E0000F6D
:103A6000111F9A95E1F7C00FD11FC85FD84F0A8583
:103A7000E9019881091748F013960D90BC91A02D8B
:103A8000109751F602C0A0E0B0E08083C381D481DA
:103A9000D0930707C0930607A417B507B1F4109792
:103AA00049F0B483A383128211821296FC93EE93A1
:103AB000119706C01482138212821182FA83E9835D
:103AC000F093CB07E093CA071AC011968D919C9191
:103AD0001297AC17BD0759F092838183B483A383F7
:103AE0001196CD91DC911297FC83EB8304C0148274
:103AF0001382928381831296FC93EE931197DF9148
:103B0000CF911F910F91FF90EF900895CF93DF9386
:103B1000E091CA07F091CB07309709F444C0992788
:103B200087FD9095208130E02817390781F4A38123
:103B3000B481B093CB07A093CA0712961C921E9231
:103B4000119718C00380F481E02D309761F1208136
:103B500030E028173907B1F7C181D2818381948180
:103B60009C838B83A381B481109721F01296DC9300
:103B7000CE931197A0910607B0910707109739F4DB
:103B8000F0930707E0930607148213820AC0B483F8
:103B9000A3831296FC93EE931197F0930707E0939B
:103BA000060712821182DF91CF910895EF92FF9262
:103BB0000F931F93CF93DF93EC0169817A814B813F
:103BC0005C818D819E810E94B327BC018F818823F7
:103BD00069F04B815C81CE0120E030E000E010E034
:103BE000EE24FF240E9483141F8215C08881992728
:103BF00087FD9095FC01EE0FFF1F35E0880F991FA0
:103C00003A95E1F7E80FF91FE85FF84F81858330B7
:103C1000E1F4718360838881992787FD9095FC0189
:103C2000EE0FFF1F05E0880F991F0A95E1F7E80FD7
:103C3000F91FE85FF84F85899689009741F482E083
:103C4000818788810E94E11C02C08FEF01C081E062
:103C5000DF91CF911F910F91FF90EF9008951F93E7
:103C6000DF93CF93CDB7DEB728970FB6F894DEBFBA
:103C70000FBECDBF29833A834B835C836D837E83E4
:103C80008F8398870E9460130E943C26182FCE01D4
:103C900001960E94A3219C018330910560F0E09180
:103CA000D507F091D607210F311D368B258B0E9449
:103CB000621381E001C08FEF28960FB6F894DEBF43
:103CC0000FBECDBFCF91DF911F9108950E94A8270D
:103CD000E091D507F091D60785818823B9F708953B
:103CE000FF920F931F93DF93CF93CDB7DEB7289743
:103CF0000FB6F894DEBF0FBECDBF29833A834B8346
:103D00005C836D837E838F8398870E9492180E94C4
:103D10006013E091D507F091D60781E0858381E0BB
:103D200090E090A3878F0E943C26F82ECE0101964A
:103D30000E94A321E091D507F091D6070F2D10E046
:103D40009801280F391F368B258B8F2D883F78F4EB
:103D50000E9436260F5F1F4F282F30E002171307EF
:103D600034F48F2D8E5F809346060E9439260E9480
:103D700062130E94661E81E028960FB6F894DEBF9B
:103D80000FBECDBFCF91DF911F910F91FF9008958E
:103D90001F930E946013E091D507F091D60781E050
:103DA000858386830E943C26182F883F88F40E94D2
:103DB0003626212F30E02F5F3F4F482F50E0241749
:103DC000350734F4812F8E5F809346060E94392692
:103DD0000E9462130E94661E81E01F9108951F9346
:103DE000CF93DF93EC010E946013E091D507F0912F
:103DF000D60781E08583D68BC58B0E943C26182F81
:103E0000883F88F40E943626212F30E02F5F3F4FF5
:103E1000482F50E02417350734F4812F8E5F8093AC
:103E200046060E9439260E9462130E94661E81E0A7
:103E3000DF91CF911F910895EF92FF920F931F93FF
:103E4000DF93CF930F92CDB7DEB78C010E94601342
:103E5000E091D507F091D60781E085830E943C264A
:103E6000E091D507F091D607E82EFF240E0D1F1D17
:103E7000168B058B883F90F489830E943626089420
:103E8000E11CF11C282F30E09981E216F30634F48E
:103E9000892F8E5F809346060E9439260E94621306
:103EA0000E94661E81E00F90CF91DF911F910F91CC
:103EB000FF90EF9008951F93CF93DF93EC010E9442
:103EC0009218209711F4C1E0D0E00E946013E091B5
:103ED000D507F091D60781E08583D0A3C78F0E94D4
:103EE0003C26182F883F88F40E943626212F30E088
:103EF0002F5F3F4F482F50E02417350734F4812FB0
:103F00008E5F809346060E9439260E9462130E94AB
:103F1000661E81E0DF91CF911F9108951F930E944B
:103F200092180E946013E091D507F091D60781E0C6
:103F300090E090A3878F81E085830E943C26182F14
:103F4000883F88F40E943626212F30E02F5F3F4FB4
:103F5000482F50E02417350734F4812F8E5F80936B
:103F600046060E9439260E9462130E94661E81E066
:103F70001F910895E091D507F091D60780850E94A2
:103F8000861DE091D507F091D60784E081870E94D5
:103F90008E1F81E008958F929F92AF92BF92CF9231
:103FA000DF92EF92FF920F931F93DF93CF93CDB7E2
:103FB000DEB760970FB6F894DEBF0FBECDBF29877E
:103FC0003A874B875C876D877E878F87988BCE017A
:103FD00001960E942720CE01099609851A852B8516
:103FE0003C854D855E856F85788989809A80AB8018
:103FF000BC80CD80DE80EF80F8840E9485208F3FDA
:1040000061F029853A854B855C856D857E858F8538
:1040100098890E94701E81E001C08FEF60960FB6F4
:10402000F894DEBF0FBECDBFCF91DF911F910F91EE
:10403000FF90EF90DF90CF90BF90AF909F908F90C8
:104040000895E091D507F091D60780850895EF9205
:10405000FF920F931F93CF93DF93EC011C821D827D
:104060001E821F828091CC079091CD07A091CE0730
:10407000B091CF0788839983AA83BB83E090D00750
:10408000F090D1070091D2071091D307EC82FD8206
:104090000E831F830E943C26682F70E080E090E032
:1040A00023EB36EE4EE050E00E9408416E0D7F1D7E
:1040B000801F911F6C837D838E839F8313C08050EC
:1040C0009A4CAA49BB438C839D83AE83BF8388816E
:1040D0009981AA81BB810196A11DB11D8883998315
:1040E000AA83BB838C819D81AE81BF8180302AEC05
:1040F00092072AE9A2072BE3B20708F7DF91CF91D5
:104100001F910F91FF90EF9008958F929F92AF9221
:10411000BF92CF92DF92EF92FF920F931F93DF93A4
:10412000CF93CDB7DEB760970FB6F894DEBF0FBE62
:10413000CDBFFC0109831A832B833C834D835E83AF
:104140006F83788789869A86AB86BC86CD86DE8625
:10415000EF86F88AE980FA800B811C812D813E81EF
:104160004F815885A984BA84CB84DC848D859E8553
:10417000AF85B889EA14FB040C051D0508F440C09E
:10418000AE14BF04C006D10691F4281739074A07B8
:104190005B07B0F1281B390B4A0B5B0B248335837B
:1041A00046835783108211821282138227C02817F8
:1041B00039074A075B0790F40894E108F108010900
:1041C0001109EA18FB080C091D09E082F18202833B
:1041D0001383205036434546544C08C0EA18FB0868
:1041E0000C091D09E082F18202831383281B390B1D
:1041F0004A0B5B0B248335834683578381E001C0E0
:104200008FEF60960FB6F894DEBF0FBECDBFCF9193
:10421000DF911F910F91FF90EF90DF90CF90BF90B3
:10422000AF909F908F900895FC0114C020503A4C9D
:104230004A495B43248335834683578320813181F8
:10424000428153812F5F3F4F4F4F5F4F2083318318
:1042500042835383248135814681578120308AEC03
:1042600038078AE948078BE3580700F708958F92CB
:104270009F92AF92BF92CF92DF92EF92FF920F93F5
:104280001F93DF93CF93CDB7DEB760970FB6F89447
:10429000DEBF0FBECDBF09831A832B833C834D83C2
:1042A0005E836F83788789869A86AB86BC86CD8647
:1042B000DE86EF86F88A29853A854B855C85E9801C
:1042C000FA800B811C812E0D3F1D401F511FFC01E8
:1042D00020833183428353832D853E854F855889C2
:1042E000ED80FE800F8118852E0D3F1D401F511F50
:1042F00024833583468357830E94142181E060968E
:104300000FB6F894DEBF0FBECDBFCF91DF911F91E6
:104310000F91FF90EF90DF90CF90BF90AF909F9064
:104320008F9008956093CC077093CD078093CE074C
:104330009093CF072093D0073093D1074093D207B3
:104340005093D30708958F929F92AF92BF92CF92CE
:10435000DF92EF92FF920F931F93FC012081318136
:104360004281538164817581868197812115310550
:104370004105510509F461C022343105410551055B
:1043800008F062C05B016C01EE24FF24870160E04D
:1043900038C08A2CAB2DA653F1E0AB1508F0F0E045
:1043A0008C2D865691E08C1508F090E0F80F71E0A6
:1043B000F81708F070E0972B7D2D755CE1E07D1516
:1043C00008F0E0E0970F81E0971708F080E08E2B6F
:1043D0008E0DE1E08E1508F0E0E0EF0D71E0EF15D5
:1043E00008F070E0700FB1E0701708F0B0E0B10FA6
:1043F000A82CBA2ECF2ED92EE82EFE2E072F1B2F3B
:104400006F5F862F90E0A0E0B0E082179307A407CB
:10441000B50708F4BECF9501A601B701C801A3EB0B
:10442000AA2EF6EEBF2EEEE0CE2EDD24EE24FF24E3
:1044300000E010E00E948C3309C023EB36EE4EE022
:1044400050E00E944E4102C020E030E0C9011F91BF
:104450000F91FF90EF90DF90CF90BF90AF909F9023
:104460008F900895EF92FF920F931F93DF93CF9356
:10447000CDB7DEB728970FB6F894DEBF0FBECDBF1D
:104480007B018C01BAE016950795F794E794BA95ED
:10449000D1F7E982FA820B831C837370807090706D
:1044A00023EB36EE4EE050E00E9408416D837E83A0
:1044B0008F8398872E2D3A814B815C8128960FB689
:1044C000F894DEBF0FBECDBFCF91DF911F910F914A
:1044D000FF90EF9008958F929F92AF92BF92CF92EC
:1044E000DF92EF92FF920F931F93FC0120813181A5
:1044F00042815381648175818681978121153105BF
:104500004105510509F45BC05B016C01EE24FF24F9
:10451000870160E038C08A2CAB2DA653F1E0AB15C3
:1045200008F0F0E08C2D865691E08C1508F090E0B4
:10453000F80F71E0F81708F070E0972B7D2D755C8F
:10454000E1E07D1508F0E0E0970F81E0971708F0B3
:1045500080E08E2B8E0DE1E08E1508F0E0E0EF0D8F
:1045600071E0EF1508F070E0700FB1E0701708F01F
:10457000B0E0B10FA82CBA2ECF2ED92EE82EFE2EE9
:10458000072F1B2F6F5F862F90E0A0E0B0E082170F
:104590009307A407B50708F4BECF9501A601B7019C
:1045A000C801E3EBAE2E06EEB02E1EE0C12EDD24D8
:1045B000EE24FF2400E010E00E948C3306C023EBC1
:1045C00036EE4EE050E00E944E41B901CA011F9103
:1045D0000F91FF90EF90DF90CF90BF90AF909F90A2
:1045E0008F9008951F9311E00E9492180E94362622
:1045F000853110F41093C9070E94A82780916B069B
:10460000853519F088E00E949E1780911A0585353E
:1046100059F388E00E949E17E7CF2F923F924F9266
:104620005F926F927F928F929F92AF92BF92CF9242
:10463000DF92EF92FF920F931F93DF93CF930F922E
:10464000CDB7DEB70E9435260E9460130E94B125C7
:104650000E94B7252C018AEF0E94392660914606F8
:1046600070E080E090E023EB36EE4EE050E00E94F8
:1046700008417B018C018091D0079091D107A091D6
:10468000D207B091D307E80EF91E0A1F1B1FC801FD
:10469000B7010E944E41E61AF70A080B190B8091E8
:1046A000CC079091CD07A091CE07B091CF07E3EB57
:1046B000AE2EE6EEBE2EEEE0CE2ED12C14C080E063
:1046C00096E3A5E6B4ECE80EF91E0A1F1B1FC8010D
:1046D000B701A60195010E944E41E61AF70A080BA0
:1046E000190BD401C3013C014D010894611C711CDC
:1046F000811C911CE0E0EE16EAECFE06EAE90E07EA
:10470000EBE31E07E0F68093CC079093CD07A093D0
:10471000CE07B093CF07E092D007F092D107009375
:10472000D2071093D307E091D507F091D607858182
:104730008823B9F081858430A1F08781823029F007
:10474000882341F08681882311F485E001C083E04D
:10475000818704C083E081871782168280850E944A
:10476000861DE091D507F091D607858D968D00972F
:1047700009F48DC06085662309F489C08185843081
:1047800009F485C0218D328D8091460690E028176E
:104790003907C8F582E00E945D17E091D507F091D6
:1047A000D60781A1833061F58185833049F189E79E
:1047B00092E00E94BE43E091D507F091D607858D27
:1047C000968D928F818F838D948D908F878B00D063
:1047D00000D08DE892E0ADB7BEB712969C938E9351
:1047E00011978085992787FD909514969C938E93B9
:1047F00013970E94AC430F900F900F900F9007C03B
:10480000128E118E04C0281B390B328F218FE0913C
:10481000D507F091D6070085218D328D2115310500
:10482000B1F581A1813071F483E0602F0E945D17A2
:10483000E091D507F091D60783E08187802F0E9411
:10484000861D25C0833019F58185833001F100D0A4
:1048500000D027EA32E0EDB7FEB732832183802F04
:10486000992787FD9095948383830E94AC43E091C0
:10487000D507F091D607858D968D928F818F838D88
:10488000948D908F878B0F900F900F900F907DE0FD
:10489000272E77E0372E00E61AEE20E061E0662E44
:1048A000712C5AEFE52EF12C42E0942E31E0A32E2C
:1048B000B12CC12CD12CD10113968C9113978F3F21
:1048C00009F4C4C01C92882309F443C014968C9147
:1048D00014978430F1F150964D915C9151978091ED
:1048E000460690E04817590738F0481B590B519677
:1048F0005C934E93509703C0F101118A108AD10145
:1049000052964D915C9153974817590738F0481BC0
:10491000590B53965C934E93529712C0F1016689DE
:1049200077898617970728F4681B790B738B628B3E
:1049300007C00E942741D10153969C938E935297B2
:10494000F10182899389009721F486899789938B55
:10495000828BD10114968C911497833009F076C024
:1049600050968D919C915197009709F066C01296D0
:104970008C9112978823A9F011968C911197882316
:1049800081F0D601C5010090C50704C0880F991FAA
:10499000AA1FBB1F0A94D2F7F10184879587A687C7
:1049A000B787D10112961C92129711961C921197FB
:1049B0001C925A964D915C915B9756968D919C9165
:1049C000579758966D917C91599741305105D9F47C
:1049D00055967C936E93549714969C921497529686
:1049E0004D915C91539751965C934E9350970097DD
:1049F00021F45196FC92EE925097822F29830E94C7
:104A0000E11C29811AC0F101758B648BBA016150D8
:104A10007040689FA001699F500D789F500D112430
:104A2000518B408B538B428B009711F4F18AE08AB3
:104A3000D1015B967C926E925A97F101808991899F
:104A4000009721F08017910708F48C012F5F82E214
:104A500090E0280E391E253009F02DCF0E94A21CAF
:104A6000E82E282F332727FD3095F901EE0FFF1F81
:104A700085E0220F331F8A95E1F7E20FF31FE85F0D
:104A8000F84F82858093D707F093C707E093C60756
:104A9000EE20B9F0258D368D2115310551F0218D8F
:104AA000328D2A3F310528F42017310708F44BC016
:104AB0000DC098010B3F110508F445C02AEF30E006
:104AC00042C00B3F110510F00AEF10E08093C807B9
:104AD000F093D607E093D507009346060E943C2644
:104AE000282F30E02F5F3F4F2017310740F00E9402
:104AF0003C26082F10E00E5F1F4F00934606EE2065
:104B000011F01092C907802F0E943926C2016EEE63
:104B100072E00E94C8250E94FD270E9461330F9019
:104B2000CF91DF911F910F91FF90EF90DF90CF9089
:104B3000BF90AF909F908F907F906F905F904F90BD
:104B40003F902F9008958901C1CF00000000000020
:104B500000000197D1F708951EBC089581E08EBD35
:104B6000089580B5816080BD1DBC1CBC0895DF9395
:104B7000CF9300D0CDB7DEB78CB59DB59A8389832E
:104B800029813A81C9010F900F90CF91DF9108954B
:104B9000EF92FF920F931F93CF93DF93EC018FEF70
:104BA000C937D80710F0C0E0D0E07E0100E010E087
:104BB00080E090E0E60EF71E081F191F91E0E9164D
:104BC00090E0F90691E0090790E0190768F080E0AD
:104BD00090E0AFEFBFEFE80EF91E0A1F1B1F0E9407
:104BE000B725C817D907D8F30E94B7258E159F059A
:104BF000D8F3DF91CF911F910F91FF90EF9008951F
:104C000082BF089513BE87B78D7F87BF87B78E7F1A
:104C100087BF08958BE083BF87B7836087BF089500
:104C200080B5826080BD12BE1092F60410924606D6
:104C300008958EEF8093460698E090BF81BF83E091
:104C400086BF8BE083BF80B5876080BD1FBC81E0DD
:104C50008EBD1DBC1CBC80B5816080BD0E9410262D
:104C60000E940A261092F6040895089581B78F5F76
:104C70000895815081BF089582B708951F920F92C1
:104C80000FB60F920BB60F9211242F933F934F93B1
:104C90005F936F937F938F939F93AF93BF93EF93A4
:104CA000FF938AE060E00E945D17FF91EF91BF9152
:104CB000AF919F918F917F916F915F914F913F91B4
:104CC0002F910F900BBE0F900FBE0F901F90189555
:104CD0000F920FB60F921F922F923F924F925F92B8
:104CE0006F927F928F929F92AF92BF92CF92DF92FC
:104CF000EF92FF920F931F932F933F934F935F93E6
:104D00006F937F938F939F93AF93BF93CF93DF93D3
:104D1000EF93FF93A091D507B091D6070DB60D92F2
:104D20000EB60D921F92A0912006B09121061E9002
:104D3000BEBFADBF0895882319F487B78F7787BFAB
:104D40008FEF0895882319F414BC81E008958FEF44
:104D50000895882319F424B530E002C020E030E043
:104D6000C9010895882329F487B7806887BF81E047
:104D700008958FEF0895882359F5CB010197853069
:104D8000910510F46093450688E085BD43BD3093DE
:104D9000F4032093F30380914506813019F485B51F
:104DA000816009C0823019F485B5826004C0833007
:104DB00029F485B5836085BD81E00895843019F4B8
:104DC00085B58460F8CF853029F485B58560F3CF4B
:104DD0008FEF089581E008951F920F920FB60F9202
:104DE0000BB60F9211242F933F934F935F936F93C2
:104DF0007F938F939F93AF93BF93EF93FF93E09134
:104E0000F303F091F403309711F0099504C08AE0A0
:104E100060E00E945D17FF91EF91BF91AF919F916C
:104E20008F917F916F915F914F913F912F910F9053
:104E30000BBE0F900FBE0F901F90189504B603FC89
:104E400002C080E001C080E104B602FE06C094B753
:104E50009B7F94BF04B600FE846004B601FE05C0CB
:104E600094B79D7F94BF82600895882359F404B657
:104E700000FE04C094B79E7F94BF01C081E093B749
:104E80009111816008958FEF08958FEF08958FEF4E
:104E900008951F920F920FB60F920BB60F92112426
:104EA0002F933F934F935F936F937F938F939F9332
:104EB000AF93BF93EF93FF938AE060E00E945D178A
:104EC000FF91EF91BF91AF919F918F917F916F91E2
:104ED0005F914F913F912F910F900BBE0F900FBE9E
:104EE0000F901F9018950E946013A89584B7877F34
:104EF00084BF81B5886181BD11BC0E946213089591
:104F00000E94601384B7877F84BFA89581B58861AC
:104F100081BD8FE081BD0E946213089504B603FC39
:104F200002C081E008958FEF0895A895089508952F
:104F3000FC0176836583089585B7837E886185BF8C
:104F400085B7806285BF889585B78F7D85BF0895B9
:104F500085B7837E85BF85B7806285BF889585B715
:104F60008F7D85BF089525E5FA012083FB013297E7
:104F70009083818312921292129212921292129242
:104F80001292129212921292129212921292129201
:104F900012921292129212921292129212921292F1
:104FA00012921292129212921292129212921292E1
:104FB0001292129212921292CF010895EF92FF92E2
:104FC0000F931F93CF93DF93EC018B017A01403253
:104FD000510518F481E10E949E170894E108F10838
:104FE000E00EF11EFA82E9821C830B83DF91CF91E0
:104FF0001F910F91FF90EF90089589E795E19093AD
:10500000990580939A05089585E580931A0589E9A5
:1050100095E0909321068093200689E795E190938F
:10502000990580939A0508950E9419260E9462139B
:1050300008950E946F2808951F93DF93CF930F92D6
:10504000CDB7DEB7142F83708C6269830E94DA2893
:105050006981613011F480E001C080E80E94A228DB
:10506000812F0E94A2280E9496280F90CF91DF9155
:105070001F910895DF93CF9300D0CDB7DEB780E4C2
:1050800087B986E086B9379A369A3699FECF84B1C9
:1050900095B19A8389830F900F90CF91DF910895F6
:1050A0003798089597B18F71907E892B87B9369A7A
:1050B0003699FECF24B135B1C90108958EE10E9421
:1050C0005228BC0180E090E00E948A3E9B01AC0126
:1050D00064EA70E78DE994E40E94F63D0895E1E703
:1050E000F0E08081808381E08093700084E0809391
:1050F000740008958091740087FFFCCF0895E4E761
:10510000F0E08081806880830895CF93DF93C4E7C7
:10511000D0E08881806288830E947F280E947A285C
:1051200088818F7D8883DF91CF910895809174006D
:105130008061809374000E947F288091740084FDB8
:10514000FCCF0895809373000E947F280E947A28E4
:1051500080917100887F883241F090917100987F32
:1051600081E0983119F480E0089580E00895009777
:1051700021F080917400806403C0809174008F7B63
:10518000809374000E947F280E947A288091730087
:105190000895DF93CF930F92CDB7DEB789830E9436
:1051A00085288981880F81600E94A2280F90CF9165
:1051B000DF910895DF93CF930F92CDB7DEB7898348
:1051C0000E9485288981880F0E94A2280F90CF9184
:1051D000DF9108950E943A2881E08093E4030895C6
:1051E0008091E403882311F40E94EA280E94502849
:1051F0000895DF93CF930F92CDB7DEB79091E4037C
:10520000992321F489830E94EA288981A898A0988B
:10521000813019F41D9A159A02C01D9815980F90A7
:10522000CF91DF910895DF93CF930F92CDB7DEB783
:105230009091E403992321F489830E94EA288981CB
:105240001D981598813019F4A89AA09A02C0A898C0
:10525000A0980F90CF91DF9108958091E403882367
:1052600011F40E94EA2881E00E94F92881E00E945E
:10527000522808958091E403882311F40E94EA28BB
:1052800081E00E94132981E00E9452280895AF9284
:10529000BF92CF92DF92EF92FF920F931F930E94E3
:1052A0003A29BC0180E090E00E948A3E8B017C019B
:1052B00060E070EC8FE794E4202F312F4E2D5F2DAE
:1052C0000E94913D20E030E44CE156E40E94613FB1
:1052D000202F312F4E2D5F2D0E94F63D0E94213F41
:1052E0007B018C0120E030E040E450E40E94C43FA8
:1052F000D62EC72EB82EA92EC801B70129E733EE46
:105300004DE759E30E94613F28EC32E644E85AE356
:105310000E94923D7B018C01A6019501652F742F9F
:10532000832F922F2DE234EC4CE154E30E94613F35
:105330009B01AC01C801B7010E94923D9B01AC01E9
:1053400060E070E080E89FE30E94F63D1F910F91BE
:10535000FF90EF90DF90CF90BF90AF9008950E94A4
:10536000472923E333E948E853E40E94913D089537
:105370000E943A280E94192881E08093E50308954D
:105380008091E503882311F40E94B8290E945028D7
:105390000895DF93CF930F92CDB7DEB79091E503D9
:1053A000992321F489830E94B8298981813011F4DD
:1053B000AC9A01C0AC980F90CF91DF910895DF9324
:1053C000CF930F92CDB7DEB79091E503992321F4E7
:1053D00089830E94B8298981813011F4AD9A01C076
:1053E000AD980F90CF91DF9108951F93182F809162
:1053F000E503882311F40E94B82980E00E94092A5D
:10540000113019F4A89AA09A02C0A898A0981F91E8
:1054100008951F93182F8091E503882311F40E94AB
:10542000B82980E00E94F529113019F41D9A159AC7
:1054300002C01D9815981F910895DF93CF930F9286
:10544000CDB7DEB79091E503992321F489830E94BB
:10545000B8298981813011F4AA9A01C0AA980F90C5
:10546000CF91DF910895DF93CF930F92CDB7DEB741
:105470009091E503992321F489830E94B8298981B9
:10548000813011F4AB9A01C0AB980F90CF91DF91AE
:105490000895DF93CF930F92CDB7DEB7482F809159
:1054A000E503882321F449830E94B829498180E0DB
:1054B00061E00E941C280F90CF91DF910895DF9347
:1054C000CF930F92CDB7DEB7482F8091E5038823A5
:1054D00021F449830E94B829498180E062E00E945A
:1054E0001C280F90CF91DF910895DF93CF930F92F7
:1054F000CDB7DEB7482F8091E503882321F4498397
:105500000E94B829498181E061E00E941C280F9027
:10551000CF91DF910895DF93CF930F92CDB7DEB790
:105520009091E503992321F489830E94B829898108
:10553000882311F4AE9A03C0813009F4AE980F901D
:10554000CF91DF9108958091E503882311F40E94A3
:10555000B82981E00E94092A81E00E94522808951A
:105560008091E503882311F40E94B82981E00E940C
:10557000F52981E00E94522808958091E50388234F
:1055800011F40E94B82982E00E9452280895809167
:10559000E503882311F40E94B82983E00E94522871
:1055A00008958091E503882311F40E94B82984E0CE
:1055B0000E94522808958091E503882311F40E94E7
:1055C000B82985E00E94522808958091E503882338
:1055D00011F40E94B82986E00E945228089589E9B2
:1055E00093E00197F1F700C0DC98D49A89E993E041
:1055F0000197F1F700C0D498DC9ACC9BFECF80E0F5
:1056000007C091E39A95F1F700008F5F8F3149F061
:10561000CC99F7CF89E993E00197F1F700C080E0DA
:1056200008958FEF0895882361F4DC98D49A84EC70
:105630008A95F1F700C0D498DC9A81E38A95F1F756
:105640000BC0DC98D49A88E18A95F1F700C0D49811
:10565000DC9A8DED8A95F1F700000895DC98D49AD4
:1056600082E08A95F1F700C0D498DC9A96E19A9589
:10567000F1F7000089B394EC9A95F1F700C090E03F
:105680008071907024E0959587952A95E1F70895AB
:10569000FF920F931F93CF93DF93F82EC0E0D0E0DB
:1056A00001E010E098010C2E02C0220F331F0A9473
:1056B000E2F78F2D82230E94132B2196C830D1054B
:1056C00089F7DF91CF911F910F91FF9008951F935C
:1056D000CF93DF93C0E0D0E010E00E942E2B282F64
:1056E00030E00C2E02C0220F331F0A94E2F7122B77
:1056F0002196C830D10589F7812FDF91CF911F9175
:1057000008958FE00E94482B089580B58B7F80BD5F
:10571000D498DC9A86EF8A95F1F70895EF92FF927C
:105720000F931F93DF93CF9300D000D0CDB7DEB798
:105730007C0119821A821B821C820E94EF2A882314
:1057400039F0282F332727FD3095432F532F27C0BB
:105750000E94812B0E94672B813019F08EEFF70198
:1057600080838E010F5F1F4F0E94672B89830E94E9
:10577000672BF80181830E94672BF80182830E94C6
:10578000672BF80183830E94672B0E94672B0E947E
:10579000672BF701108229813A814B815C81B90125
:1057A000CA010F900F900F900F90CF91DF911F9132
:1057B0000F91FF90EF900895AA98959887FF02C0E7
:1057C000939A01C09398959A959886FF02C0939AF0
:1057D00001C09398959A959885FF02C0939A01C04D
:1057E0009398959A959884FF02C0939A01C09398D4
:1057F000959A959883FF02C0939A01C09398959AC1
:10580000959882FF02C0939A01C09398959A9598B3
:1058100081FF02C0939A01C09398959A959880FF52
:1058200002C0939A01C09398959A959AAA9A08955E
:10583000DF93CF9300D00F92CDB7DEB7A89A19822D
:105840001FC0A898898180550E94DC2B80E10E94AE
:10585000DC2B80E00E94DC2BA89A1B821A8208C0F5
:1058600080E00E94DC2B8A819B8101969B838A8346
:105870008A819B81803891059CF389818F5F898320
:1058800089818830F0F20F900F900F90CF91DF91C7
:105890000895C498BC9A85B3876085BB84B387603C
:1058A00084BB81B3886281BB939A88E785BB84B34C
:1058B000877884BBA898A9988FEF9FE3A2E08150D6
:1058C0009040A040E1F700C00000A99A8FEF9FE34D
:1058D000A2E081509040A040E1F700C0000080E4C9
:1058E0000E94DC2B81EA0E94DC2B80EC0E94DC2BE6
:1058F00086EA0E94DC2B82EA0E94DC2B8FE20E9467
:10590000DC2B88EF0E94DC2B80E00E94DC2B87E2FE
:105910000E94DC2B81E80E94DC2B80E10E94DC2BC2
:105920008CEA0E94DC2B80E00E94DC2B8FEA0E9434
:10593000DC2B0E94182C0895813011F4C49A08952C
:10594000C4980895EF92FF920F931F93DF93CF9324
:105950000F92CDB7DEB7082F162FA898842F805549
:1059600099830E94DC2B812F82958F7080610E9429
:10597000DC2B812F8F700E94DC2BA89A9981602FDD
:10598000792F7B011AC000E010E0D701EC91B5E05F
:10599000EB9FF0011124E00FF11FE057FC4F8491C1
:1059A0000E94DC2B0F5F1F4F0530110571F780E05F
:1059B0000E94DC2B0894E11CF11CF70180818823F4
:1059C00011F70F90CF91DF911F910F91FF90EF9002
:1059D0000895609106087091070890E00E94804346
:1059E000089580E00E943A10882349F080910408CD
:1059F000909105080E943E43282F30E002C02FEF0F
:105A00003FEFC9010895BF92CF92DF92EF92FF92CC
:105A10000F931F93DF93CF9300D000D00F92CDB799
:105A2000DEB7D82EB62E20EA36E841E050E02983D2
:105A30003A834B835C8381E19D830E94E92C8B2D0B
:105A40000E94E92C81E1C82ECB0C9D810D2D192FD0
:105A500009C07801F80181918F010E94E92CF701BA
:105A60008081C80E802F8D198B1598F38C2D0E9484
:105A7000E92C0E94F12C29813A814B815C812150D3
:105A800030404040504029833A834B835C838630CA
:105A900051F089819A81AB81BC810097A105B10544
:105AA00041F78FEF01C080E00F900F900F900F90A3
:105AB0000F90CF91DF911F910F91FF90EF90DF90AA
:105AC000CF90BF900895CF92DF92EF92FF920F9305
:105AD0001F93DF93CF9300D000D0CDB7DEB7F82E61
