:100000000C94C9040C9441260C94E8040C94E80464
:100010000C94E8040C94E8040C94E8040C94E804B0
:100020000C94E8040C94E4250C94E8040C94E80483
:100030000C94E8040C94E8040C94E8040C946025F7
:100040000C9460250C94E8040C94E8040C94E804E7
:100050000C94E8040C94E8040C94E8040C94E80470
:100060000C94E8040C94E8040C94E8040C94E80460
:100070000C94E8040C94E8040C94E8040C94E80450
:100080000C94E8040C94E8040C94E80497159D156E
:10009000A015A315A615A915AF15AC15B215B51564
:1000A000B815C115C415C715CA15BE1594159A15EE
:1000B000CD15D015BB15911508000000BE9224493E
:1000C000123EABAAAA2ABECDCCCC4C3E000000808A
:1000D000BEABAAAAAA3E00000000BF000000803FFD
:1000E0000000000000084178D3BB4387D1133D19BD
:1000F0000E3CC3BD4282AD2B3E68EC8276BED98FEA
:10010000E1A93E4C80EFFFBE01C4FF7F3F0000002D
:10011000000007634236B79BD8A71A39685618AE55
:10012000BAAB558C1D3CB7CC5763BD6DEDFD753E2C
:10013000F6177231BF000000803F554E4B4F574EAF
:100140000045787465726E616C2052657365740049
:1001500042726F776E204F757420446574656374C6
:10016000004661696C656420746F20637265617418
:10017000652053656D6170686F7265004661696CDA
:10018000656420746F2063726561746520536967CC
:100190006E616C004B65726E656C2066756E637483
:1001A000696F6E206E6F7420696D706C656D656E21
:1001B0007465640044657669636520447269766598
:1001C00072204572726F72005761746368646F6762
:1001D00020526573746172740053572057617463C1
:1001E00068646F6720526573746172740054696D3E
:1001F0006572204F766572666C6F7700556E686128
:100200006E646C656420496E7465727275707420DA
:10021000566563746F72004C6F7720566F6C746113
:100220006765004578747261205461736B20737444
:1002300061727465642C206973206E726B5F6366F3
:10024000672E68206F6B3F0049646C65206F7220D9
:100250004B65726E656C20537461636B204F7665DD
:1002600072666C6F7700556E65787065637465644F
:100270002052657374617274004475706C696361B7
:10028000746564205461736B20494400536368654E
:1002900064756C6572204D69737365642057616B7A
:1002A000657570005461736B205265736572766575
:1002B0002056696F6C61746564005265736572766F
:1002C00065204572726F7220696E205363686564A1
:1002D000756C657200496E76616C69642053746157
:1002E000636B20506F696E746572005461736B208C
:1002F000537461636B204F766572666C6F77005341
:100300007461636B20776173206E6F74206465661F
:10031000696E6564206173206C6172676520656E2B
:100320006F75676821005461736B20706572696F27
:100330006420746F6F206C617267652E2050657247
:10034000696F64206D757374206265206C657373CA
:10035000207468616E203631207365636F6E64733C
:100360002E00293A20002A4E524B204552524F521D
:1003700028000D0A535441434B2044554D500D0A5B
:10038000000A0D006E726B5F71756575653A20002D
:1003900008082A1C08081C2A080840444A51404002
:1003A000514A444014741C171410207F01010000AE
:1003B0000000000000000000081C2C08087F01015C
:1003C0000101010101017F7F404040404040404029
:1003D0007F0000000000000000000000000000009E
:1003E00079112711790000000000000000000000D2
:1003F000000000007F01010103605048447E3E4937
:1004000049493E700C030C706349494963017F01FF
:100410007F01635549414106017E010608557F551C
:10042000080F107F100F4E7101714E38444438444C
:10043000000000000000005F000003000300001443
:100440003E143E1426497F493262152A5423364908
:100450005620500003000000001C224100004122F1
:100460001C0000140E140008083E0808006000007C
:10047000000808080800004000000060100804039D
:100480003E4141413E04027F000062514945422203
:10049000414949360C0B087E084F494949313E49CC
:1004A0004949326111090503364949493626494906
:1004B000493E0022000000006100000008141422E0
:1004C00022141414141422221414080601590502CB
:1004D0003E415D555E7E0909097E7F494949363EA8
:1004E000414141227F4141413E7F494949417F0984
:1004F0000909013E414949327F0808087F00007F11
:100500000000204040403F7F081422417F4040408F
:10051000007F0204027F7F021C207F3E4141413E5A
:100520007F090909063E4151617E7F091929462646
:100530004949493201017F01013F4040403F1F20AE
:1005400040201F3F4030403F631408146303047889
:10055000040361514945437F410000000000000051
:1005600000000000417F060106000040404040407E
:10057000010200000020545454787F484848303825
:1005800044444428384444447F3854545418087E22
:100590000909010C5252523E7F04040478047D4044
:1005A0004020204040443D007F102844203E5149D7
:1005B000467C047C04787C0804047838444444383D
:1005C0007E1212120C0C1212127E047804040848D7
:1005D00054545424043F4444403C40403C401C207C
:1005E00040201C3C4030403C4428102844264848C9
:1005F000483E4464544C4400083E410000007F00E3
:100600000000413E08000000000000000000000063
:1006100000000000000000000000000000000020BA
:10062000483E090200000000000000000000040431
:100630007F04040000000000000000000000000033
:1006400000000000000000000000000000000000AA
:10065000000000000000000000000000000000009A
:100660000000000000000000000000000000000288
:100670000401020000000000000018180000000043
:10068000000000000000000000000000000000006A
:10069000000000000000000000000000000000005A
:1006A000000000000000000000000000000000004A
:1006B0000000000000000079000000000000004879
:1006C0007E494942000000000015167C1615000006
:1006D0000000000A5555552800010001003E635DE9
:1006E0006B3E000000000008142A142200000000E5
:1006F0000000000000003E41754B3E010101010178
:1007000000020502000000000000000000000000E0
:100710000000000000000000000000000000060FC4
:100720007F017F00000000000000000000000000CA
:100730000000070507000022142A14080F003C20BF
:10074000780F004864580000000000304845402001
:100750000000000000000000000000000000007227
:1007600029292A717825242578702A252A707E095E
:100770007F49490E5151711100000000007C545610
:1007800055440000000000000000000000000000D0
:100790000000000000000000000000000000000059
:1007A00000000000007A091122790000000000001A
:1007B0000000000000000000003A454546393D4277
:1007C00042423D22140814225C322A261D000000F9
:1007D0000000000000000000000000003C4140411B
:1007E0003C000000000000000000000000000000CD
:1007F0002055565478205456557820565556782210
:100800005155567920555455780000000000245465
:100810007854580C5252721238555654183854564F
:1008200055183856555618385554551800497A40B9
:100830000000487A4100004A794200004A784200AC
:1008400000000000007A11090A7130494A4830302E
:10085000484A4930304A494A303249494A31304A97
:10086000484A3008082A080818643C2618384142CB
:10087000207838404221783842412278384240225C
:1008800078000000000000000000000C5150513CB6
:100890006E616E00696E660000407A10F35A00A027
:1008A000724E18090010A5D4E80000E87648170039
:1008B00000E40B54020000CA9A3B000000E1F50579
:1008C000000080969800000040420F000000A086C3
:1008D00001000000102700000000E80300000000F5
:1008E0006400000000000A00000000000100000099
:1008F00000002C76D888DC674F0823DFC1DFAE59B3
:10090000E1B1B796E5E3E453C63AE651997696E845
:10091000E6C28426EB898C9B62ED407C6FFCEFBCC9
:100920009C9F40F2BAA56FA5F490055A2AF75C93F4
:100930006B6CF9676DC11BFCE0E40D47FEF520E62A
:10094000B500D0ED902E0300943577050080841E0D
:10095000080000204E0A000000C80C333333330F68
:10096000986E12831141EF8D2114893BE65516CF05
:10097000FEE6DB18D1844B381BF77C1D901DA4BB11
:10098000E424203284725E228100C9F124ECA1E5C6
:100990003D2711241FBECFEFD0E1DEBFCDBF13E056
:1009A000A0E0B1E0E0E0F9E800E00BBF02C0079092
:1009B0000D92A637B107D9F716E0A6E7B3E001C05C
:1009C0001D92AB3FB107E1F70E945A050C947E449B
:1009D0000C943625EF92FF920F931F93CF93DF93E2
:1009E000E091C206F091C3068085992787FD909516
:1009F000EC01CC0FDD1F25E0880F991F2A95E1F748
:100A0000C80FD91FC25FD94F80E0E82E81E0F82ED1
:100A100002E010E08881998121E08C32920788F40D
:100A200000D000D0EDB7FEB7F282E18214830383D9
:100A30000E9433420F900F900F900F900E94721EF1
:100A4000E9CFFFCFEF92FF920F931F93CF93DF93E6
:100A5000E091C206F091C3068085992787FD9095A5
:100A6000EC01CC0FDD1F55E0880F991F5A95E1F777
:100A7000C80FD91FC25FD94F40E0E42E41E0F42EE9
:100A800001E010E08881998121E08C32920788F49E
:100A900000D000D0EDB7FEB7F282E1821483038369
:100AA0000E9433420F900F900F900F900E94721E81
:100AB000E9CFFFCF1F93CF93DF930E94F31087E01E
:100AC00090E00E9442110E94311260E070E0CB0180
:100AD00020E030E0A9010E94762011E010933C054F
:100AE00010933E0510933F058091120190911301E0
:100AF000A0911401B0911501809340059093410598
:100B0000A0934205B0934305109244051092450509
:100B10001092460510924705809116019091170199
:100B2000A0911801B091190180934805909349054F
:100B3000A0934A05B0934B0510924C0510924D05B9
:100B400010924E0510924F051092500510925105CB
:100B500010925205109253051092540510925505AB
:100B60001092560510925705C5E3D5E0CE0162E21A
:100B700075E00E949026CE0167E873E040E850E0FF
:100B80000E94D626CE010E94BA1C1093100483E066
:100B9000809312041093130480911A0190911B0109
:100BA000A0911C01B0911D01809314049093150431
:100BB000A0931604B093170410921804109219040D
:100BC00010921A0410921B0480911E0190911F0133
:100BD000A0912001B091210180931C0490931D04E9
:100BE000A0931E04B0931F041092200410922104BD
:100BF00010922204109223041092240410922504CF
:100C000010922604109227041092280410922904AE
:100C100010922A0410922B04C9E0D4E0CE016AEEAF
:100C200074E00E949026CE0160EB74E040E850E052
:100C30000E94D626CE010E94BA1C0E94F71280E0C4
:100C400090E0DF91CF911F91089590E09C012B508F
:100C50003040220F331F220F331F865A9E4B820FC4
:100C6000931FF894C09828E12FB9779BFECF9FB9C6
:100C7000779BFECF8FB9779BFECFC09A789408956B
:100C8000F894C0981FB8779BFECF8FB1C09A789424
:100C900086FFF6CF089580913C010E94250F809138
:100CA0003B010E946B0F089580913C010E94250F2B
:100CB00080913B010E94250F0895F894C09887E029
:100CC0008FB9779BFECFC09AC09886E08FB9779B8B
:100CD000FECFC09A78940895F894C09881E08FB9B7
:100CE000779BFECFC09A88EE93E00E949D24789473
:100CF00008958091ED050895FC01C09889EC8FB9A5
:100D0000779BFECF80E88FB9779BFECF82E0815042
:100D1000DF01A80FB11D9C919FB9779BFECF88235F
:100D2000B1F7C09AC0988BEC8FB9779BFECF80E863
:100D30008FB9779BFECF82E08150DF01A80FB11DF4
:100D400012969C9112979FB9779BFECF8823A1F7AB
:100D5000C09A80818093EE0581818093EF05828126
:100D60008093F00583818093F10508958F929F927F
:100D7000AF92BF92CF92DF92EF92FF920F931F93A9
:100D8000DF93CF9300D000D0CDB7DEB7E82E092F88
:100D900084E690E00E949D24F02E20E031E08E0158
:100DA0000F5F1F4FF3E0CF2ED12CCC0EDD1EF701CD
:100DB00091907F018824808190E0882999299A83E5
:100DC000898384E690E02B833C830E949D24C09815
:100DD0002B813C81822F80688FB9779BFECFC90120
:100DE00095958795807C8FB9779BFECF5801F80148
:100DF00081918FB9779BFECFEC15FD05C9F7C09A9D
:100E00002E5F3F4FF1E020313F0789F684E690E006
:100E10000E949D2420E431E080E191E01A82198251
:100E2000C098422F40684FB9779BFECFA9015595D6
:100E30004795407C4FB9779BFECFF80141914FB960
:100E4000779BFECFEC15FD05C9F7C09AC098482FD7
:100E500040684FB9779BFECFAC0155954795407CD4
:100E60004FB9779BFECFF80141914FB9779BFECFE9
:100E7000EC15FD05C9F7C09A02962E5F3F4F41E081
:100E80008E31940759F681E090E09A838983C09867
:100E90008EEC8FB9779BFECF80E88FB9779BFECF22
:100EA000C8010296F80121912FB9779BFECFE81770
:100EB000F907C9F7C09AC0988EE98FB9779BFECF22
:100EC00080E88FB9779BFECF0E5F1F4FF5018191B0
:100ED0005F018FB9779BFECFA016B106B9F7C09A14
:100EE0000F900F900F900F90CF91DF911F910F9166
:100EF000FF90EF90DF90CF90BF90AF909F908F903A
:100F00000895C09889E18FB9779BFECF83E08FB9B0
:100F1000779BFECF86E08FB9779BFECFC09AC098B3
:100F20008AE18FB9779BFECF8EE08FB9779BFECF9A
:100F30008EE08FB9779BFECFC09A81E08093DE056B
:100F40000895C09889E18FB9779BFECF81E08FB972
:100F5000779BFECF84EC8FB9779BFECFC09A10921F
:100F6000DE0508958091DC059091DD05089590E0FF
:100F70008F719070806E906AC09825E12FB9779B31
:100F8000FECF9FB9779BFECF8FB9779BFECFC09ADC
:100F900008950E94250608958091DF059091E0054F
:100FA00098609093E0058093DF05C09881E18FB948
:100FB000779BFECF8091E0058FB9779BFECF809124
:100FC000DF058FB9779BFECFC09A08958091DF052A
:100FD0009091E005977F9093E0058093DF05C0989E
:100FE00081E18FB9779BFECF8091E0058FB9779B28
:100FF000FECF8091DF058FB9779BFECFC09A089511
:1010000081E08093EC058091DF059091E00580619F
:101010009093E0058093DF05C09881E18FB9779BBD
:10102000FECF8091E0058FB9779BFECF8091DF05E1
:101030008FB9779BFECFC09A08951092EC058091EE
:10104000DF059091E0058F7E9093E0058093DF05AA
:10105000C09881E18FB9779BFECF8091E0058FB971
:10106000779BFECF8091DF058FB9779BFECFC09A2B
:101070000895DF93CF9300D0CDB7DEB79A838983ED
:101080009093E8058093E70584EF91E00E949D240A
:10109000C0988AEE8FB9779BFECF80E88FB9779B97
:1010A000FECFFE013196CE01039621912FB9779B99
:1010B000FECFE817F907C9F7C09A84EF91E00E94C4
:1010C0009D240F900F90CF91DF910895CF93DF93E0
:1010D000EC01862FC09898E09FB9779BFECFC09A0D
:1010E000C09898E09FB9779BFECFC09A0E942506D2
:1010F000D093E205C093E105DF91CF910895DF928F
:10110000EF92FF920F931F93DF93CF9300D0CDB751
:10111000DEB78C01D62E5A8349837901DD9A88EE99
:1011200093E00E948211DE9881E090E00E9482119B
:10113000DE9A84E690E00E948211F894C09881E0E3
:101140008FB9779BFECFC09A82EE92E09093E00534
:101150008093DF05C09881E18FB9779BFECF8091A6
:10116000E0058FB9779BFECF8091DF058FB9779B24
:10117000FECFC09AC09882E18FB9779BFECF85E001
:101180008FB9779BFECF1FB8779BFECFC09AC098D0
:101190008CE18FB9779BFECF1FB8779BFECF8FE78F
:1011A0008FB9779BFECFC09AC09889E18FB9779BA2
:1011B000FECF81E08FB9779BFECF84EC8FB9779B10
:1011C000FECFC09AC09887E18FB9779BFECF8AE1A6
:1011D0008FB9779BFECF86E58FB9779BFECFC09AFC
:1011E00084EF91E00E949D24C09888EE8FB9779B90
:1011F000FECF80E88FB9779BFECFFE013196CE01FE
:10120000039621912FB9779BFECFE817F907C9F70D
:10121000C09A84EF91E00E949D2478948D2D0E94C5
:10122000250678941093E2050093E10589819A815F
:101230009093E6058093E505F092E805E092E705D6
:101240001092E3051092E9050E9440061092EC0509
:101250001092DE051092ED050F900F90CF91DF9167
:101260001F910F91FF90EF90DF90089581E08093A0
:10127000E905C09883E08FB9779BFECFC09AC098EC
:1012800088E08FB9779BFECFC09A1092F20508953F
:1012900081E08093E905C09883E08FB9779BFECF0A
:1012A000C09AC09888E08FB9779BFECFC09A109201
:1012B000F20508951092E905C09886E08FB9779BF2
:1012C000FECFC09A1092F2050895BF92CF92DF929E
:1012D000EF92FF920F931F93DF93CF9300D00F9263
:1012E000CDB7DEB78C016B017A010E943425C0981E
:1012F00088E08FB9779BFECFC09AC09888E08FB9FD
:10130000779BFECFC09A0E99FECF8499FCCFF894BC
:10131000C09889E08FB9779BFECFC09AC09889E0CA
:101320008FB9779BFECFC09AD80112965C91129725
:10133000252F332727FD3095BB2440E00AC0D80174
:101340001396ED91FC911497E80FF91F8081B80E68
:101350004F5F842F90E0821793078CF3545FC098FF
:101360008EE38FB9779BFECF5FB9779BFECFC09A94
:10137000F8018681882319F081E698E802C081E4AB
:1013800098E89A838983C0988EE38FB9779BFECFC4
:10139000FE013196CE01039621912FB9779BFECFA6
:1013A000E817F907C9F7C09AC0988EE38FB9779B01
:1013B000FECF8091E3058FB9779BFECFC09AC0988E
:1013C0008EE38FB9779BFECF80E090E0FC01EF5178
:1013D000FA4F24812FB9779BFECF01968230910579
:1013E000A9F7C09AC0988EE38FB9779BFECF80E0B3
:1013F00090E0F801E80FF91F20812FB9779BFECF0D
:10140000019682309105A9F7C09AC0988EE38FB9F2
:10141000779BFECF80E090E0FC01EF51FA4F2681F0
:101420002FB9779BFECF019682309105A9F7C09A1C
:10143000C601B7010E94C024D80115968C9115975A
:101440008823A9F18091E905882331F4C09883E0CD
:101450008FB9779BFECFC09AC0981FB8779BFECFFD
:101460008FB1C09A81FFF8CF20E0A5E0EA2EC098A6
:10147000EFB8779BFECFC09AC0981FB8779BFECF7E
:10148000CFB0C09A2F5F253649F478948091DC055F
:101490009091DD050E94E81980E060C084E690E04C
:1014A0002B830E9482112B81C3FEE1CF06C0C0981E
:1014B00084E08FB9779BFECFC09AC0988EE38FB936
:1014C000779BFECF40E00CC0D8011396ED91FC91C4
:1014D0001497E80FF91F80818FB9779BFECF4F5F7C
:1014E000842F90E0F8012281332727FD3095821761
:1014F000930754F3C09AC0988EE38FB9779BFECFC1
:10150000BFB8779BFECFC09A849BFECFF894849996
:10151000FECFC09888E08FB9779BFECFC09AC09865
:1015200088E08FB9779BFECFC09AC09889E08FB9C9
:10153000779BFECFC09AC09889E08FB9779BFECF8A
:10154000C09AC09886E08FB9779BFECFC09A7894F6
:101550008091E3058F5F8093E30581E00F900F900A
:101560000F90CF91DF911F910F91FF90EF90DF903F
:10157000CF90BF900895FF920F931F93DF93CF9367
:1015800000D0CDB7DEB7FC018091DE05882331F0B5
:10159000C0988DE08FB9779BFECFC09A3281432FE0
:1015A000552747FD509520E060E007C0A381B48136
:1015B000A80FB91F8C91280F6F5F862F90E08417BA
:1015C0009507A4F3832F845F9091DE0591118C5FC2
:1015D000C09898E09FB9779BFECFC09AC09898E0DA
:1015E0009FB9779BFECFC09A0E99FECF8499FCCF0E
:1015F000F894C09899E09FB9779BFECFC09AC098A5
:1016000099E09FB9779BFECFC09AC0989EE39FB99F
:10161000779BFECF8FB9779BFECFC09A81E498E885
:101620009A8389838091EC05882321F081E698E8EC
:101630009A8389838091DE05882329F089819A81A4
:1016400088609A838983C0988EE38FB9779BFECF99
:10165000DE011196CE0103963D913FB9779BFECFF7
:10166000A817B907C9F7C09AC0988EE38FB9779BBE
:10167000FECF8091E3058FB9779BFECFC09AC098CB
:101680008EE38FB9779BFECF80E090E0DC01AF5115
:10169000BA4F14963C9114973FB9779BFECF0196B1
:1016A0008230910599F7C09AC0988EE38FB9779BE5
:1016B000FECF80E090E0DF01A80FB91F3C913FB959
:1016C000779BFECF019682309105A9F7C09AC0980A
:1016D0008EE38FB9779BFECF80E090E0DC01AF51C5
:1016E000BA4F16963C9116973FB9779BFECF01965D
:1016F0008230910599F7C09A8091DE05882381F0A8
:10170000C0988EE38FB9779BFECFAEEEB5E08D919A
:101710008FB9779BFECF85E0A23FB807C1F7C09A8B
:10172000C0988EE38FB9779BFECF30E009C0A381CC
:10173000B481A80FB91F8C918FB9779BFECF3F5F03
:10174000832F90E04281552747FD509584179507D8
:1017500074F3C09AC0988EE38FB9779BFECF2FB9F0
:10176000779BFECFC09A8581882391F18091E9050E
:10177000882331F4C09883E08FB9779BFECFC09A5D
:10178000C0981FB8779BFECF8FB1C09A81FFF8CF6A
:1017900010E005E0C0980FB9779BFECFC09AC098C3
:1017A0001FB8779BFECFFFB0C09A1F5F153649F474
:1017B00078948091DC059091DD050E94E81980E025
:1017C00043C084E690E00E948211F3FEE3CF06C09E
:1017D000C09884E08FB9779BFECFC09A7894849BA1
:1017E000FECF8499FECF8091EC058823F9F084EA3E
:1017F00092E00E948211B79B0BC0C0988FE78FB90F
:10180000779BFECF1FB8779BFECF8FB1C09A0EC0DB
:10181000C09888E08FB9779BFECFC09AC09888E0C7
:101820008FB9779BFECFC09A80E001C081E0F89429
:10183000C09896E09FB9779BFECFC09A789490911C
:10184000E3059F5F9093E3050F900F90CF91DF9199
:101850001F910F91FF90089581E0849B80E008958F
:1018600081E00E9B80E0089581E0849B80E00895F4
:10187000DF93CF9300D000D0CDB7DEB70E9BC7C1AA
:101880001092ED050E9B1AC0B79918C0C0988FE74B
:101890008FB9779BFECF1FB8779BFECF8FB1C09AD1
:1018A000C09888E08FB9779BFECFC09AC09888E037
:1018B0008FB9779BFECFC09A8FEFAAC1C0988FE7F0
:1018C0008FB9779BFECF1FB8779BFECF4FB1C09AE1
:1018D0004F77C1F4C0988FE78FB9779BFECF1FB8C1
:1018E000779BFECF8FB1C09AC09888E08FB9779B65
:1018F000FECFC09AC09888E08FB9779BFECFC09A80
:101900008EEF86C14C3084F0E091E105F091E20564
:10191000842F992787FD90950B972481332727FDE6
:101920003095281739077CF5C0988FE78FB9779BDA
:10193000FECF50E0842F992787FD909504C01FB8F3
:10194000779BFECF5F5F252F30E02817390714F40F
:10195000B799F5CFC09AC0988FE78FB9779BFECF24
:101960001FB8779BFECF8FB1C09AC09888E08FB91F
:10197000779BFECFC09AC09888E08FB9779BFECF47
:10198000C09A8DEF45C1E091E105F091E2054C5020
:101990004383C0988FE78FB9779BFECFFE013196C6
:1019A000CE0103961FB8779BFECF2FB12193E81786
:1019B000F907C1F7C09AE091E105F091E20599813C
:1019C00081E095FF80E08783C0988FE78FB9779B90
:1019D000FECF1FB8779BFECFE091E105F091E205C5
:1019E0008FB18083C09AC0988FE78FB9779BFECF65
:1019F00084E005C01FB8779BFECF815011F0B799E6
:101A0000F9CFC09AC0988FE78FB9779BFECF80E05F
:101A100090E01FB8779BFECFE091E105F091E205E1
:101A20002FB1E80FF91F218301968230910589F7C4
:101A3000C09A898183FF4DC0C0988FE78FB9779B8B
:101A4000FECFE8EDF5E01FB8779BFECF8FB1819315
:101A500085E0EC3DF807B9F7C09AC09889E98FB9DD
:101A6000779BFECF80E88FB9779BFECF82E08150D5
:101A7000E82FF0E0E852FA4F90819FB9779BFECFB4
:101A80008823A9F7C09AC0988BE98FB9779BFECFBE
:101A900080E88FB9779BFECF82E08150E82FF0E09D
:101AA000E652FA4F90819FB9779BFECF8823A9F722
:101AB000C09AC0988CE08FB9779BFECFC09A81E026
:101AC0008093ED05E091E105F091E205838184507A
:101AD0008383C0988FE78FB9779BFECF40E00FC01C
:101AE0001FB8779BFECFE091E105F091E2058FB141
:101AF0000580F681E02DE40FF11D80834F5FE091BA
:101B0000E105F091E205242F30E08381992787FDDC
:101B100090952817390724F3C09AC0988FE78FB99A
:101B2000779BFECF1FB8779BFECF6FB1C09AC0984E
:101B30008FE78FB9779BFECFFE013396CE010596D6
:101B40001FB8779BFECF2FB12193E817F907C1F794
:101B5000C09AE091E105F091E2058B81808750E029
:101B600040E00CC0E091E105F091E2050580F681CE
:101B7000E02DE80FF91F8081480F5F5FE091E105DC
:101B8000F091E205852F90E02381332727FD3095E2
:101B9000821793073CF34617C1F0C0988FE78FB9BF
:101BA000779BFECF1FB8779BFECF8FB1C09AC098AE
:101BB00088E08FB9779BFECFC09AC09888E08FB934
:101BC000779BFECFC09A8CEF23C08C8187FF07C024
:101BD0008091F2058F5F8093F20581E019C0C09873
:101BE0008FE78FB9779BFECF1FB8779BFECF8FB162
:101BF000C09AC09888E08FB9779BFECFC09AC098F2
:101C000088E08FB9779BFECFC09A8BEF01C080E050
:101C10000F900F900F900F90CF91DF9108958091CA
:101C2000F205882329F08091F2051092F2050895BB
:101C300080E00895C09888E08FB9779BFECFC09A66
:101C4000C09888E08FB9779BFECFC09A08959927F6
:101C500087FD9095982F88278068C09823E12FB939
:101C6000779BFECF9FB9779BFECF8FB9779BFECF37
:101C7000C09A0895C09886E08FB9779BFECFC09A2E
:101C8000C09882E18FB9779BFECF85E08FB9779BB3
:101C9000FECF88E08FB9779BFECFC09AC0988EE2C6
:101CA0008FB9779BFECF88E18FB9779BFECF1FB8A6
:101CB000779BFECFC09A0E941A0E0895C09886E0C6
:101CC0008FB9779BFECFC09AC09882E18FB9779B7E
:101CD000FECF85E08FB9779BFECF1FB8779BFECFF5
:101CE000C09AC0988EE28FB9779BFECF1FB8779BC2
:101CF000FECF1FB8779BFECFC09A0E941A0E0895A0
:101D0000C09886E08FB9779BFECFC09AC09882E1D9
:101D10008FB9779BFECF85E08FB9779BFECF81E0AF
:101D20008FB9779BFECFC09A0E941A0E0895C09873
:101D300082E18FB9779BFECF85E08FB9779BFECF8D
:101D400084E08FB9779BFECFC09A0E941A0E089547
:101D500090E08F7090702091DF053091E005207F3A
:101D6000822B932B9093E0058093DF05C09881E14F
:101D70008FB9779BFECF8091E0058FB9779BFECF1F
:101D80008091DF058FB9779BFECFC09A089590E0D0
:101D900026E0880F991F2A95E1F790702091DF05C2
:101DA0003091E0052F73822B932B9093E005809365
:101DB000DF05C09881E18FB9779BFECF8091E00568
:101DC0008FB9779BFECF8091DF058FB9779BFECFD0
:101DD000C09A0895C09884E08FB9779BFECFC09ACF
:101DE0000895C09886E08FB9779BFECFC09A08957A
:101DF0005F9BFECF5F988CB108955D9BFECF5D9891
:101E00008CB908958FEF0895882311F48BB104C025
:101E1000813031F480919B00881F8827881F0895A6
:101E200080E00895CF93DF93EC0107C06091F30643
:101E30007091F40690E00E940742FE012196849181
:101E40008823A1F7DF91CF9108958F3F09F43FC018
:101E5000982F96959695969521E030E002C0220F36
:101E6000331F9A95E2F790E0877090708230910569
:101E7000D9F08330910534F4009771F081309105E9
:101E800041F50EC084309105C1F0843091058CF08D
:101E900085309105F1F415C08BB3822B8BBB07C045
:101EA00088B3822B88BB03C085B3822B85BB81E0BE
:101EB000089582B3822B82BBFACF83B1822B83B980
:101EC000F6CF80916200822B80936200F0CF8FEF7B
:101ED00008958FEF08958F3F09F440C0982F96958D
:101EE0009695969521E030E002C0220F331F9A9517
:101EF000E2F7209590E08770907082309105D9F0DC
:101F00008330910534F4009771F08130910541F5EB
:101F10000EC084309105C1F0843091058CF085307D
:101F20009105F1F415C08BB382238BBB07C088B336
:101F3000822388BB03C085B3822385BB81E00895DB
:101F400082B3822382BBFACF83B1822383B9F6CFD7
:101F500080916200822380936200F0CF8FEF08951A
:101F60008FEF08958F3F89F1282F30E02770307070
:101F700022303105C1F0233031053CF42115310503
:101F800071F02130310509F50CC02430310579F0AC
:101F90002430310554F025303105B9F40AC029B395
:101FA00009C026B307C023B305C020B303C021B1C5
:101FB00001C020B130E086958695869502C03595A2
:101FC00027958A95E2F7217001C02FEF822F08959F
:101FD000882319F080B58B7F02C080B5846080BDF6
:101FE00081E008958F3F09F43FC0982F969596950C
:101FF000969521E030E002C0220F331F9A95E2F758
:1020000090E08770907082309105D9F0833091050F
:1020100034F4009771F08130910541F50EC08430A1
:102020009105C1F0843091058CF085309105F1F473
:1020300015C08BB382278BBB07C088B3822788BBB0
:1020400003C085B3822785BB81E0089582B38227D0
:1020500082BBFACF83B1822783B9F6CF8091620029
:10206000822780936200F0CF8FEF08958FEF08955D
:102070008F3F09F48CC0982F96959695969521E000
:1020800030E002C0220F331F9A95E2F790E06623FA
:1020900009F04AC0322F30958770907082309105D8
:1020A00019F1833091053CF4009781F0813091055E
:1020B00009F06DC012C08430910521F18430910582
:1020C000D4F08530910509F062C023C08AB3832320
:1020D0008ABB8BB3822B8BBB58C087B3832387BB50
:1020E00088B3822B88BB51C084B3832384BB85B360
:1020F000822B85BB4AC081B3832381BB82B3822BF1
:1021000082BB43C082B1832382B983B1822B83B95E
:102110003CC08091610083238093610080916200C4
:10212000822B8093620031C087709070823091055D
:10213000D9F08330910534F4009771F08130910526
:1021400041F50EC084309105B9F08430910584F0DA
:1021500085309105F1F414C08AB3822B8ABB15C077
:1021600087B3822B87BB11C084B3822B84BB0DC085
:1021700081B3822B81BB09C082B1822B82B905C099
:1021800080916100822B8093610081E008958FEF40
:1021900008958FEF08958FEF0895009711F480E070
:1021A00009C08130910511F488E004C082309105A6
:1021B00029F480E10E94F20F81E008958FEF0895E5
:1021C000009711F480E009C08130910511F488E096
:1021D00004C08230910529F480E10E94250F81E03E
:1021E00008958FEF089580B5846080BD87E087BB38
:1021F00088BB8FEF84BB15BA82E082B987E68ABBC1
:1022000080E48BBB80E58DB981E08EB980E090E001
:102210000E94E01081E090E00E94E01082E090E0F7
:102220000E94E01083E090E00E94E0100895009783
:1022300011F480E009C08130910511F488E004C0F8
:102240008230910529F480E10E946B0F81E00895AE
:102250008FEF089590919B0095FFFCCF90919B008C
:102260009F7D90939B0080939C0008959093900095
:1022700089B986E0809395005298599A8AB188610D
:102280008AB908950F931F93CF93DF930E9436115D
:10229000CDEFDEE008EF1EE0CE01B8010E947A41EA
:1022A0009093F4068093F306CE01B8010E947A4120
:1022B0009093F2068093F106DF91CF911F910F91D9
:1022C0000895909398008093990086E080939D00F4
:1022D000EAE9F0E080818B7F8083ABE9B0E08C910C
:1022E00082608C93808188618083089580919B00B7
:1022F00087FFFCCF80919B008F7780939B0080911C
:102300009C00089500000000000000000197D1F734
:1023100008950E940A4308950E94124380E00895A0
:10232000EF92FF920F931F93CF93DF93E82EE70175
:102330007E01F92EE70180E090E00E940A43082F19
:102340008B8381E090E00E940A43E82E8A8382E03A
:1023500090E00E940A43F82E898383E090E00E9477
:102360000A43182F888384E090E00E940A43FE0C01
:10237000F00EF10E8F1511F481E001C08FEFDF91A7
:10238000CF911F910F91FF90EF900895CF93DF931E
:10239000EC0185E090E00E940A43888381E0DF91B0
:1023A000CF910895FC0186E090E060810E94124385
:1023B00081E00895CF93DF93EC0186E090E00E94E6
:1023C0000A43888381E0DF91CF9108950F931F9393
:1023D000CF93DF93082F192FC8E0D0E0CE010E94E1
:1023E0000A43F80181938F012196C831D105B1F7D5
:1023F00081E0DF91CF911F910F9108950F931F936B
:10240000CF93DF93082F192FC8E0D0E0F801619136
:102410008F01CE010E9412432196C831D105B1F738
:1024200081E0DF91CF911F910F910895CF93DF93BA
:10243000EC0187E090E00E940A43888381E0DF910D
:10244000CF910895FC0187E090E060810E941243E3
:1024500081E00895F8940895789408950E942A12CE
:10246000FFCF0F931F93DF93CF93CDB7DEB7A39723
:102470000FB6F894DEBF0FBECDBF0E94A4178093A5
:10248000B2068F3F21F48EE060E00E9427160E9482
:102490001626082F81FF04C084E160E00E94271601
:1024A00002FF04C083E160E00E9427161092B50687
:1024B0001092C3061092C2061092B4061092B30690
:1024C0001092C4061092C106E1EAF6E08FEF808315
:1024D00082838183339696E0E03BF907C1F793E668
:1024E0009093FF058093FD059093210680931F062E
:1024F000909343068093410690936506809363060C
:102500009093870680938506E8ECF6E020E030E0C3
:1025100001C09A01A9014F5F5F4FCA01880F991F3F
:10252000880F991F840F951F8B53994F9183808338
:10253000C901880F991F880F991F820F931F8B5312
:10254000994F9483838335964530510511F7109246
:10255000C7061092C6061092E2061092E10610928B
:10256000B8061092B70685EC96E09093F405809338
:10257000F3058E010F5F1F4FC80166ED71E20E94E7
:102580009026C80168E575E040E850E00E94D62634
:1025900085E58093580519861C861D861E861F8634
:1025A000188A198A1A8A1B8A1C8A1D8A1E8A1F8AFF
:1025B000188E198E1A8E1B8E1C8E1D8E1E8E1F8ECF
:1025C00018A219A21AA21BA281E0888792E09A871A
:1025D0008B87C8010E94BA1CA3960FB6F894DEBF81
:1025E0000FBECDBFCF91DF911F910F910895CF9274
:1025F000DF92FF920F931F93DF93CF9300D0CDB75D
:10260000DEB71DEFC12E15E0D12E90E0F601F0806F
:10261000FF2DFF3FB1F00DEF15E020E0921761F0C4
:10262000F8018081F81641F485E06F2D29839A83A3
:102630000E9427169A8129812F5F0E5D1F4F25303A
:1026400069F79F5F22E230E0C20ED31E9530F1F6AB
:102650000E946C1B992787FD9095FC01EE0FFF1FD0
:10266000A5E0880F991FAA95E1F7E80FF91FEB5035
:10267000FA4F82858093C406F093C306E093C206A6
:10268000F093B406E093B3068093B5060E940C273E
:102690000E94FC260E945932FFCFEF92FF920F93C7
:1026A0001F93CF93DF93EC017B018A0189858230F0
:1026B00021F08091B006888301C018828091B00615
:1026C000853020F087E060E00E94271689858230FF
:1026D00029F08091B0068F5F8093B0068091B0069C
:1026E000882319F481E08093B0068881992787FDBB
:1026F0009095FC01EE0FFF1F75E0880F991F7A95EA
:10270000E1F7E80FF91FEB50FA4FF182E08288857C
:1027100082878881992787FD9095FC01EE0FFF1F26
:1027200055E0880F991F5A95E1F7E80FF91FEB5014
:10273000FA4F83E081872881822F992787FD909522
:10274000FC01EE0FFF1F35E0880F991F3A95E1F766
:10275000E80FF91FEB50FA4F20878881992787FDF2
:1027600090957C01EE0CFF1CB5E0880F991FBA957F
:10277000E1F7E80EF91E85EF95E0E80EF91EF70186
:102780001582CE010B960E948720F701948F838FCC
:102790008B859C85AD85BE858E339105A105B105E0
:1027A00020F086E168810E942716E880FF24E7FC7C
:1027B000F094CE014B960E948720F701EE0FFF1F89
:1027C00075E0EE0CFF1C7A95E1F7EE0DFF1DEB5066
:1027D000FA4F968B858B8881992787FD90957C0190
:1027E000EE0CFF1C55E0880F991F5A95E1F7E80E93
:1027F000F91E85EF95E0E80EF91EF70185899689A7
:10280000238D348D820F931F908F878BCE0143963B
:102810000E948720F701968F858F8881992787FDF1
:102820009095FC01EE0FFF1F35E0880F991F3A9538
:10283000E1F7E80FF91FEB50FA4F858D968D928FD7
:10284000818F81E090E090A3878F1383028381E0E2
:1028500084878881992787FD9095FC01EE0FFF1FE3
:1028600005E0880F991F0A95E1F7E80FF91FEB5073
:10287000FA4F898581A381E0DF91CF911F910F915C
:10288000FF90EF9008950E94F121089585E690E071
:102890000895E091C206F091C30684870895E091FF
:1028A000C206F091C3068485089520913405222341
:1028B00041F0FB01208320910704FC01208381E08B
:1028C000089580E00895DF93CF930F92CDB7DEB7E0
:1028D000198207C080ED97E00E949D2489818F5F57
:1028E000898389818436B0F30F90CF91DF91089569
:1028F00081E090E00E9417110E94631481E090E053
:102900000E94E0100E946314089581E090E00E940C
:1029100017110E9463140E9463140E94631481E0E3
:1029200090E00E94E0100E9463140895FF920F93BC
:102930001F93DF93CF9300D00F92CDB7DEB700D0B7
:1029400000D000D0EDB7FEB731968E010F5F1F4F5C
:10295000ADB7BEB712961C930E93119725E431E0E4
:1029600033832283848315820E947C42EDB7FEB7B5
:1029700036960FB6F894FEBF0FBEEDBFFF2472C0AF
:10298000800F911FDC018C918433D1F1853370F479
:102990008133F9F0823320F4803309F05CC016C033
:1029A000823311F1833309F056C023C08733C9F154
:1029B000883330F4853369F1863309F04CC02CC07C
:1029C0008833B1F1893309F046C03BC00E948514B9
:1029D00002C00E9478140E9485140E9485140E94EF
:1029E00085140E94851437C00E9478140E947814C0
:1029F000F4CF0E9478140E9478140E947814EFCFCC
:102A00000E9478140E9478140E9478140E9478140E
:102A1000E8CF0E94781402C00E9485140E947814A6
:102A200004C00E9485140E9485140E94781406C078
:102A30000E9485140E9485140E9485140E947814B7
:102A400008C00E9485140E9485140E9485140E946B
:102A500085140E9478140E9463140E9463140E94DB
:102A60006314F394F80101900020E9F73197E01B1B
:102A7000F10B8F2D90E08E179F0708F481CF0F90F8
:102A80000F900F90CF91DF911F910F91FF900895BC
:102A90000F931F93CF93DF9380913405882329F4FC
:102AA000DF91CF911F910F9108950E942A120E94E9
:102AB0002A120E942A12C5E4D1E086E693E00E9421
:102AC000120F00D000D0EDB7FEB73196ADB7BEB74C
:102AD0001296DC93CE931197809107048283138220
:102AE0000E9433420F900F900F900F9082E693E078
:102AF0000E94120F80913405883110F01092340535
:102B00008091340590E001978631910508F04BC023
:102B10008A5B9F4FFC01EE0FFF1F0590F491E02DA3
:102B2000099486E293E041C08FEF92E03EC08BEEC5
:102B300092E03BC085ED92E038C08AEB92E035C070
:102B400084EA92E032C08CE892E02FC089E792E0FC
:102B50002CC086E692E029C088E492E026C083E299
:102B600092E023C087E192E020C08CEF91E01DC08D
:102B70008DEE91E01AC089ED91E017C088EC91E0EC
:102B800014C084EB91E011C084E991E00EC08CE7A1
:102B900091E00BC081E691E008C080E591E005C0BE
:102BA00081E491E002C08AE391E00E94120F6091FB
:102BB000F3067091F4068DE090E00E940742609168
:102BC000F3067091F4068AE090E00E94074214E157
:102BD00082E090E00E94171183E090E00E94E010F4
:102BE00004E688EE93E00E949D240150D1F783E033
:102BF00090E00E94171182E090E00E94E01004E64D
:102C000088EE93E00E949D240150D1F7115001F706
:102C100082E090E00E94E01083E090E00E94E010EB
:102C2000809107040E9496140E94631482E090E051
:102C30000E9417110E94631482E090E00E94E0104D
:102C40000E946314809134050E94961436CFEF924F
:102C5000FF920F931F93182FE62E809334056093F5
:102C600007040E94481500E021C082E090E00E9425
:102C7000171183E090E00E94E01094E6F92E88EEB0
:102C800093E00E949D24FA94D1F783E090E00E94A3
:102C9000171182E090E00E94E01084E6F82E88EEA2
:102CA00093E00E949D24FA94D1F70F5F0431E8F27B
:102CB00083E090E00E94E01082E090E00E94E0104B
:102CC0008E2D0E949614812F0E94961400E0CDCF85
:102CD00080933405E091C206F091C306808580930D
:102CE00007040E94481508956F927F928F929F92D9
:102CF000AF92BF92CF92DF92EF92FF920F931F930A
:102D0000CF93DF9382E793E00E94120F00D000D0B0
:102D100088E491E0ADB7BEB712969C938E9311975D
:102D2000E091C206F091C3068085992787FD9095B2
:102D300014969C938E9313970E943342E091C2069F
:102D4000F091C306C281D38181E591E0EDB7FEB772
:102D500092838183D483C3830E943342EDB7FEB74D
:102D60003196AEE5EA2EA1E0FA2EADB7BEB71296C7
:102D7000FC92EE9211978881828313820E943342E3
:102D8000EBE6CE2EE1E0DE2EEDB7FEB7D282C182B9
:102D9000E091C206F091C30680819181ADB7BEB7C4
:102DA00014969C938E9313970E94334275E7A72E37
:102DB00071E0B72EEDB7FEB7B282A1828091C20654
:102DC0009091C306948383830E94334205EF15E0FC
:102DD0000F900F900F900F90C0E0D0E065E8662E46
:102DE00061E0762E4701C601DC2CC92EC501BA2C44
:102DF000A92ED8011296ED90FC90139700D000D028
:102E000000D0EDB7FEB73196ADB7BEB712967C9243
:102E10006E921197D383C283F582E4820E9433427B
:102E20000F900F90EDB7FEB73196ADB7BEB71196C4
:102E30008C92119712969C92D7018C918283138267
:102E40000E943342EDB7FEB7D182C282D8018D9184
:102E50009C91948383830E943342EDB7FEB7B18285
:102E6000A282CE01880F991F9E0145E0220F331FD9
:102E70004A95E1F7820F931F8B509A4F9483838377
:102E80000E94334221960E5D1F4F0F900F900F90BE
:102E90000F90C530D10509F0ACCFDF91CF911F91D4
:102EA0000F91FF90EF90DF90CF90BF90AF909F90E9
:102EB0008F907F906F900895CF93DF93E091C2063B
:102EC000F091C306C281D3818881853539F00E9493
:102ED000741681E00E94681685E58883E091C20639
:102EE000F091C3068081918121E18030920728F022
:102EF0000E94741682E10E946816DF91CF910895B6
:102F0000992787FD9095FC01EE0FFF1FB5E0880F14
:102F1000991FBA95E1F7E80FF91FEB50FA4FA2811C
:102F2000B3818C91853519F085E58C9309C080813A
:102F3000918121E18030920728F082E10E94681699
:102F40008FEF089581E008956091AC047091AD0415
:102F50008091AE049091AF04E0E0F0E09B01AC0101
:102F60000E2E04C056954795379527950A94D2F7AB
:102F700020FD1AC021E030E040E050E00E2E04C0F9
:102F8000220F331F441F551F0A94D2F7262B372BCD
:102F9000482B592B2093AC043093AD044093AE04DE
:102FA0005093AF048E2F08953196E032F105B1F6BB
:102FB0008FEF0895E091C206F091C306658576858E
:102FC000878590890895DF92EF92FF920F931F9368
:102FD000D82E81E0E82EF12C012D112D0D2C04C0EE
:102FE000EE0CFF1C001F111F0A94D2F78091AC0455
:102FF0009091AD04A091AE04B091AF048E219F21B9
:10300000A023B1230097A105B10509F45DC00E947A
:103010002A12ECEFF5E0A801970120953095409534
:10302000509563E081818F3F39F186819781A0853A
:10303000B1858E159F05A007B10731F4128613865E
:10304000148615861082628386819781A085B1855A
:1030500082239323A423B52386839783A087B187F4
:1030600082859385A485B58582239323A423B523E4
:1030700082879387A487B587B29686E0E63AF807F9
:1030800089F62EEF3FEF4FEF5FEF04C0220F331FA3
:10309000441F551FDA94D2F78091AC049091AD048F
:1030A000A091AE04B091AF0482239323A423B5234F
:1030B0008093AC049093AD04A093AE04B093AF049E
:1030C0000E942C1281E001C08FEF1F910F91FF90A1
:1030D000EF90DF900895EF92FF920F931F9321E0FE
:1030E00030E040E050E004C0220F331F441F551F62
:1030F0008A95D2F7E091C206F091C3068585968540
:10310000A785B08979018A01E822F9220A231B23C5
:10311000E114F10401051105D1F020953095409599
:10312000509582239323A423B52385879687A78769
:10313000B08B81899289A389B48982239323A423A4
:10314000B523818B928BA38BB48B81E001C08FEF71
:103150001F910F91FF90EF9008952091AC04309152
:10316000AD044091AE045091AF04082E04C05695B2
:103170004795379527950A94D2F72170307021151D
:103180003105E9F0E091C206F091C30621E030E09C
:1031900040E050E004C0220F331F441F551F8A95A2
:1031A000D2F785859685A785B089822B932BA42B92
:1031B000B52B85879687A787B08B81E008958FEF21
:1031C0000895EF92FF920F931F93DF93CF930F9287
:1031D000CDB7DEB791E0E92EF12C012D112D04C001
:1031E000EE0CFF1C001F111F8A95D2F78091AC04D2
:1031F0009091AD04A091AE04B091AF048E219F21B7
:10320000A023B1230097A105B10511F481E03FC0CF
:103210000E942A12ECEFF5E020E033E0808181305B
:10322000A9F482859385A485B5858E219F21A0234D
:10323000B1230097A105B10549F0328317861686A0
:103240001082E286F3860487158721E08081823030
:1032500091F482859385A485B5858E159F05A00779
:10326000B10749F4328317861686108212861386B8
:103270001486158621E0B29686E0E63AF80771F6E4
:1032800029830E942C122981222329F482E00E94A2
:1032900049148FEF01C081E00F90CF91DF911F9112
:1032A0000F91FF90EF900895E091C206F091C30650
:1032B000258536854785508926233723482359237A
:1032C000211531054105510521F1618B728B838BED
:1032D000948B21E027830090B20604C096958795D1
:1032E000779567950A94D2F76170707061157105D2
:1032F00019F00E94AC1D04C080E090E00E94D31D34
:10330000E091C206F091C30621893289438954892C
:1033100003C020E030E0A901B901CA0108959091ED
:10332000C1069430D0F4E1EAF6E020E030813F3F7E
:1033300021F02F5F33962530C9F730E0F901EE0F09
:10334000FF1FE20FF31FEF55F94F828380836183E4
:103350009F5F9093C1069F0102C020E030E0C90149
:103360000895BC0120E030E0822FA901440F551FD1
:10337000420F531F4F55594F6417750731F02F5F98
:103380003F4F2530310581F78FEF08950E94B11925
:103390008F3F11F481E003C0853029F482E00E9460
:1033A00049148FEF0895992787FD9095FC01EE0F42
:1033B000FF1FE80FF91FEF55F94F8FEF80838283CE
:1033C00081838091C10681508093C10681E0089578
:1033D000EF92FF920F931F93DF93CF930F92CDB78E
:1033E000DEB70E94B119682F8F3F11F481E003C04E
:1033F000853029F482E00E9449148FEF8FC0082F96
:10340000112707FD10957801EE0CFF1CE00EF11E50
:1034100081EA96E0E80EF91ED70112969C91129768
:103420008C9198170CF079C069830E942A1200D001
:1034300000D000D0EDB7FEB7319686E991E0ADB788
:10344000BEB712969C938E931197A091C206B0912D
:10345000C30618968C91992787FD90959383828354
:10346000158304830E943342F70182818F5F828338
:10347000E091C206F091C3061482E2EAF6E08DB74D
:103480009EB706960FB6F8949EBF0FBE8DBF20E084
:1034900030E070E46981A901440F551F420F531FAA
:1034A0004F55594F71F0A0814A2F552747FD509530
:1034B000872F90E04817590724F48181882309F465
:1034C0007A2F2F5F3F4F33962530310521F77093C8
:1034D000B106ECEFF5E0862F992787FD9095A92F8F
:1034E000B92F63E02081223089F422853385448519
:1034F0005585281739074A075B0741F46283178609
:10350000168610821286138614861586B29626E0D9
:10351000E63AF20739F70E942C1281E00F90CF9122
:10352000DF911F910F91FF90EF9008950F931F93DC
:10353000DF93CF930F92CDB7DEB70E94B1198F3FC3
:1035400011F481E003C0853029F482E00E9449141F
:103550008FEFA3C089830E942A128981082F112727
:1035600007FD1095F801EE0FFF1FE00FF11FEF555B
:10357000F94F92811916B4F0E091C206F091C3069A
:10358000978192609783992787FD9095A92FB92FEE
:10359000818B928BA38BB48B0E942C1280E090E0E5
:1035A0000E94D31D00D000D000D0EDB7FEB73196F9
:1035B00085EB91E0ADB7BEB712969C938E931197B1
:1035C000A091C206B091C30618968C91992787FDE9
:1035D000909593838283158304830E943342F8017C
:1035E000EE0FFF1FE00FF11FEF55F94F8281815061
:1035F0008283E2EAF6E08DB79EB706960FB6F8949E
:103600009EBF0FBE8DBF80E090E060E49C01220F62
:10361000331F280F391F2F55394F71F07081472FF5
:10362000552747FD5095262F30E04217530724F4C5
:103630002181222309F4672F019633968530910565
:1036400029F76093B10600D000D0EDB7FEB73196F0
:1036500081ED91E0ADB7BEB712969C938E93119712
:10366000628313820E943342A091C206B091C306C6
:10367000F801EE0FFF1FE00FF11FEF55F94F8181A9
:103680001B968C931B9781E014968C930F900F9050
:103690000F900F900E942C1281E00F90CF91DF913C
:1036A0001F910F9108950E94B1198F3F11F481E08D
:1036B00003C0853029F482E00E9449148FEF0895F9
:1036C000992787FD9095FC01EE0FFF1FE80FF91F6A
:1036D000EF55F94F82810895E091B706F091B80651
:1036E000808108950F931F93CF93DF93C091B70606
:1036F000D091B80684E893E00E94120F04EE11E026
:103700001FC000D000D0EDB7FEB71283018328811F
:1037100030E0C901880F991F45E0220F331F4A95F9
:10372000E1F7820F931F845F994F948383830E94F4
:1037300033420B80DC81C02D0F900F900F900F90C3
:103740002097F9F681E893E00E94120FDF91CF9164
:103750001F910F910895BF92CF92DF92EF92FF9247
:103760000F931F93CF93DF93B82EC091F305D091A1
:10377000F405209709F4A4C00091B7061091B8068B
:103780000115110509F453C0992787FD90959C01F7
:10379000220F331F45E0880F991F4A95E1F7280F44
:1037A000391F2B503A4F97E1E92EF12CE20EF31E10
:1037B0008AE0C82ED12CC20ED31E88EE91E00E9462
:1037C0004542D8014C91442391F1842F90E0FC01B3
:1037D000EE0FFF1FA5E0880F991FAA95E1F7E80FEC
:1037E000F91FEB50FA4F2789308DF70180819181C5
:1037F00082179307E0F02817390799F4842F90E097
:10380000FC01EE0FFF1F65E0880F991F6A95E1F735
:10381000E80FF91FEB50FA4F9285D6018C9198175B
:1038200030F0F801038114810115110531F6B882D9
:10383000E091F305F091F4050380F481E02DF0931D
:10384000F405E093F3058091B7069091B806081748
:103850001907C1F40115110551F01C830B831A825D
:103860001982D8011296DC93CE93119706C01C8260
:103870001B821A821982D283C183D093B806C09367
:10388000B7061EC0D80111968D919C9112970E1704
:103890001F0779F09A8389831C830B831196ED911E
:1038A000FC911297D483C3831296DC93CE93119725
:1038B00007C01C821B829A838983F801D283C1834B
:1038C000DF91CF911F910F91FF90EF90DF90CF90FC
:1038D000BF900895CF93DF93E091B706F091B806BB
:1038E000309709F444C0992787FD9095208130E0F6
:1038F0002817390781F4A381B481B093B806A09347
:10390000B70612961C921E92119718C00380F4817C
:10391000E02D309761F1208130E028173907B1F7A9
:10392000C181D281838194819C838B83A381B48163
:10393000109721F01296DC93CE931197A091F30586
:10394000B091F405109739F4F093F405E093F30582
:10395000148213820AC0B483A3831296FC93EE935D
:103960001197F093F405E093F30512821182DF9131
:10397000CF910895EF92FF920F931F93CF93DF9310
:10398000EC0169817A814B815C818D819E810E94ED
:10399000AB26BC018F81882369F04B815C81CE010D
:1039A00020E030E000E010E0EE24FF240E944D1300
:1039B0001F8215C08881992787FD9095FC01EE0F25
:1039C000FF1FA5E0880F991FAA95E1F7E80FF91FDF
:1039D000EB50FA4F81858330E1F4718360838881F5
:1039E000992787FD9095FC01EE0FFF1F65E0880F7A
:1039F000991F6A95E1F7E80FF91FEB50FA4F858997
:103A00009689009741F482E0818788810E94AB1BF0
:103A100002C08FEF01C081E0DF91CF911F910F9124
:103A2000FF90EF9008951F93DF93CF93CDB7DEB74C
:103A300028970FB6F894DEBF0FBECDBF29833A8317
:103A40004B835C836D837E838F8398870E942A12C9
:103A50000E943425182FCE0101960E9487209C01D8
:103A60008330910560F0E091C206F091C306210F0A
:103A7000311D368B258B0E942C1281E001C08FEF07
:103A800028960FB6F894DEBF0FBECDBFCF91DF9161
:103A90001F9108950E94A026E091C206F091C306EE
:103AA00085818823B9F70895FF920F931F93DF93C1
:103AB000CF93CDB7DEB728970FB6F894DEBF0FBE11
:103AC000CDBF29833A834B835C836D837E838F8351
:103AD00098870E945C170E942A12E091C206F0911A
:103AE000C30681E0858381E090E090A3878F0E94E8
:103AF0003425F82ECE0101960E948720E091C2065F
:103B0000F091C3060F2D10E09801280F391F368B56
:103B1000258B8F2D883F78F40E942E250F5F1F4F35
:103B2000282F30E00217130734F48F2D8E5F809317
:103B300033050E9431250E942C120E944A1D81E00B
:103B400028960FB6F894DEBF0FBECDBFCF91DF91A0
:103B50001F910F91FF9008951F930E942A12E091E8
:103B6000C206F091C30681E0858386830E943425D6
:103B7000182F883F88F40E942E25212F30E02F5FD8
:103B80003F4F482F50E02417350734F4812F8E5FC4
:103B9000809333050E9431250E942C120E944A1DF9
:103BA00081E01F9108951F93CF93DF93EC010E9452
:103BB0002A12E091C206F091C30681E08583D68B7C
:103BC000C58B0E943425182F883F88F40E942E252B
:103BD000212F30E02F5F3F4F482F50E0241735074B
:103BE00034F4812F8E5F809333050E9431250E942B
:103BF0002C120E944A1D81E0DF91CF911F91089500
:103C0000EF92FF920F931F93DF93CF930F92CDB755
:103C1000DEB78C010E942A12E091C206F091C30621
:103C200081E085830E943425E091C206F091C306AD
:103C3000E82EFF240E0D1F1D168B058B883F90F478
:103C400089830E942E250894E11CF11C282F30E066
:103C50009981E216F30634F4892F8E5F8093330541
:103C60000E9431250E942C120E944A1D81E00F9073
:103C7000CF91DF911F910F91FF90EF9008951F93C7
:103C8000CF93DF93EC010E945C17209711F4C1E001
:103C9000D0E00E942A12E091C206F091C30681E0B2
:103CA0008583D0A3C78F0E943425182F883F88F4BE
:103CB0000E942E25212F30E02F5F3F4F482F50E0EC
:103CC0002417350734F4812F8E5F809333050E94CB
:103CD00031250E942C120E944A1D81E0DF91CF9174
:103CE0001F9108951F930E945C170E942A12E09171
:103CF000C206F091C30681E090E090A3878F81E037
:103D000085830E943425182F883F88F40E942E2531
:103D1000212F30E02F5F3F4F482F50E02417350709
:103D200034F4812F8E5F809333050E9431250E94E9
:103D30002C120E944A1D81E01F910895E091C20655
:103D4000F091C30680850E946A1CE091C206F09142
:103D5000C30684E081870E94721E81E008958F92DD
:103D60009F92AF92BF92CF92DF92EF92FF920F930A
:103D70001F93DF93CF93CDB7DEB760970FB6F8945C
:103D8000DEBF0FBECDBF29873A874B875C876D8723
:103D90007E878F87988BCE0101960E940B1FCE01E4
:103DA000099609851A852B853C854D855E856F852D
:103DB000788989809A80AB80BC80CD80DE80EF805E
:103DC000F8840E94691F8F3F61F029853A854B85F1
:103DD0005C856D857E858F8598890E94541D81E064
:103DE00001C08FEF60960FB6F894DEBF0FBECDBF57
:103DF000CF91DF911F910F91FF90EF90DF90CF90C7
:103E0000BF90AF909F908F900895E091C206F0917F
:103E1000C30680850895EF92FF920F931F93CF936F
:103E2000DF93EC011C821D821E821F828091B906E5
:103E30009091BA06A091BB06B091BC068883998385
:103E4000AA83BB83E090BD06F090BE060091BF063A
:103E50001091C006EC82FD820E831F830E943425E0
:103E6000682F70E080E090E023EB36EE4EE050E00B
:103E70000E9400406E0D7F1D801F911F6C837D830B
:103E80008E839F8313C080509A4CAA49BB438C8376
:103E90009D83AE83BF8388819981AA81BB8101966E
:103EA000A11DB11D88839983AA83BB838C819D81C9
:103EB000AE81BF8180302AEC92072AE9A2072BE36A
:103EC000B20708F7DF91CF911F910F91FF90EF900C
:103ED00008958F929F92AF92BF92CF92DF92EF920E
:103EE000FF920F931F93DF93CF93CDB7DEB7609709
:103EF0000FB6F894DEBF0FBECDBFFC0109831A8355
:103F00002B833C834D835E836F83788789869A8673
:103F1000AB86BC86CD86DE86EF86F88AE980FA809D
:103F20000B811C812D813E814F815885A984BA84E3
:103F3000CB84DC848D859E85AF85B889EA14FB042B
:103F40000C051D0508F440C0AE14BF04C006D10620
:103F500091F4281739074A075B07B0F1281B390B82
:103F60004A0B5B0B2483358346835783108211826F
:103F70001282138227C0281739074A075B0790F47B
:103F80000894E108F10801091109EA18FB080C0975
:103F90001D09E082F1820283138320503643454697
:103FA000544C08C0EA18FB080C091D09E082F18294
:103FB00002831383281B390B4A0B5B0B2483358345
:103FC0004683578381E001C08FEF60960FB6F89467
:103FD000DEBF0FBECDBFCF91DF911F910F91FF903C
:103FE000EF90DF90CF90BF90AF909F908F9008950B
:103FF000FC0114C020503A4C4A495B43248335836A
:104000004683578320813181428153812F5F3F4F07
:104010004F4F5F4F20833183428353832481358107
:104020004681578120308AEC38078AE948078BE3BC
:10403000580700F708958F929F92AF92BF92CF9248
:10404000DF92EF92FF920F931F93DF93CF93CDB741
:10405000DEB760970FB6F894DEBF0FBECDBF098301
:104060001A832B833C834D835E836F837887898695
:104070009A86AB86BC86CD86DE86EF86F88A298551
:104080003A854B855C85E980FA800B811C812E0D79
:104090003F1D401F511FFC01208331834283538306
:1040A0002D853E854F855889ED80FE800F811885CE
:1040B0002E0D3F1D401F511F248335834683578398
:1040C0000E94F81F81E060960FB6F894DEBF0FBE25
:1040D000CDBFCF91DF911F910F91FF90EF90DF90B7
:1040E000CF90BF90AF909F908F9008956093B90646
:1040F0007093BA068093BB069093BC062093BD06CE
:104100003093BE064093BF065093C00608958F9229
:104110009F92AF92BF92CF92DF92EF92FF920F9356
:104120001F93FC012081318142815381648175811B
:1041300086819781211531054105510509F461C03A
:10414000223431054105510508F062C05B016C0164
:10415000EE24FF24870160E038C08A2CAB2DA653E3
:10416000F1E0AB1508F0F0E08C2D865691E08C154F
:1041700008F090E0F80F71E0F81708F070E0972B66
:104180007D2D755CE1E07D1508F0E0E0970F81E0A2
:10419000971708F080E08E2B8E0DE1E08E1508F069
:1041A000E0E0EF0D71E0EF1508F070E0700FB1E0A6
:1041B000701708F0B0E0B10FA82CBA2ECF2ED92E70
:1041C000E82EFE2E072F1B2F6F5F862F90E0A0E0BA
:1041D000B0E082179307A407B50708F4BECF950196
:1041E000A601B701C801A3EBAA2EF6EEBF2EEEE0A2
:1041F000CE2EDD24EE24FF2400E010E00E94843265
:1042000009C023EB36EE4EE050E00E94334002C07E
:1042100020E030E0C9011F910F91FF90EF90DF90F7
:10422000CF90BF90AF909F908F900895EF92FF92A4
:104230000F931F93DF93CF93CDB7DEB728970FB6B9
:10424000F894DEBF0FBECDBF7B018C01BAE016959E
:104250000795F794E794BA95D1F7E982FA820B8330
:104260001C8373708070907023EB36EE4EE050E04C
:104270000E9400406D837E838F8398872E2D3A8124
:104280004B815C8128960FB6F894DEBF0FBECDBF80
:10429000CF91DF911F910F91FF90EF9008958F9232
:1042A0009F92AF92BF92CF92DF92EF92FF920F93C5
:1042B0001F93FC012081318142815381648175818A
:1042C00086819781211531054105510509F45BC0AF
:1042D0005B016C01EE24FF24870160E038C08A2C6A
:1042E000AB2DA653F1E0AB1508F0F0E08C2D86560F
:1042F00091E08C1508F090E0F80F71E0F81708F0E5
:1043000070E0972B7D2D755CE1E07D1508F0E0E015
:10431000970F81E0971708F080E08E2B8E0DE1E07B
:104320008E1508F0E0E0EF0D71E0EF1508F070E099
:10433000700FB1E0701708F0B0E0B10FA82CBA2EE2
:10434000CF2ED92EE82EFE2E072F1B2F6F5F862F24
:1043500090E0A0E0B0E082179307A407B50708F447
:10436000BECF9501A601B701C801E3EBAE2E06EE64
:10437000B02E1EE0C12EDD24EE24FF2400E010E06C
:104380000E94843206C023EB36EE4EE050E00E94DD
:104390003340B901CA011F910F91FF90EF90DF9058
:1043A000CF90BF90AF909F908F9008951F9311E092
:1043B0000E945C170E942E25853110F41093B606DA
:1043C0000E94A02680915805853519F088E00E944A
:1043D000681680912C04853559F388E00E94681690
:1043E000E7CF2F923F924F925F926F927F928F9280
:1043F0009F92AF92BF92CF92DF92EF92FF920F9374
:104400001F93DF93CF930F92CDB7DEB70E942D2578
:104410000E942A120E94A9240E94AF242C018AEF34
:104420000E9431256091330570E080E090E023EB3D
:1044300036EE4EE050E00E9400407B018C018091FE
:10444000BD069091BE06A091BF06B091C006E80ED1
:10445000F91E0A1F1B1FC801B7010E943340E61A4C
:10446000F70A080B190B8091B9069091BA06A09132
:10447000BB06B091BC06E3EBAE2EE6EEBE2EEEE040
:10448000CE2ED12C14C080E096E3A5E6B4ECE80E65
:10449000F91E0A1F1B1FC801B701A60195010E9442
:1044A0003340E61AF70A080B190BD401C3013C018B
:1044B0004D010894611C711C811C911CE0E0EE16FA
:1044C000EAECFE06EAE90E07EBE31E07E0F680934E
:1044D000B9069093BA06A093BB06B093BC06E092CF
:1044E000BD06F092BE060093BF061093C006E09191
:1044F000C206F091C30685818823B9F08185843096
:10450000A1F08781823029F0882341F086818823B9
:1045100011F485E001C083E0818704C083E08187D6
:104520001782168280850E946A1CE091C206F09173
:10453000C306858D968D009709F4A1C080858823D8
:1045400009F49DC08185843009F499C0218D328D94
:104550008091330590E028173907D8F481A1833082
:10456000A9F482EF91E00E944542E091C206F091E9
:10457000C306858D968D928F818F838D948D908FBC
:10458000878B86E092E00E94454207C0128E118E12
:1045900004C0281B390B328F218FE091C206F091A5
:1045A000C3060085818D928D009709F068C000D008
:1045B00000D085E192E0ADB7BEB712969C938E9382
:1045C0001197202F332727FD309514963C932E9377
:1045D00013970E943342EDB7FEB7319620E332E0E5
:1045E000ADB7BEB712963C932E931197A091C20619
:1045F000B091C30691968C91828313820E943342BC
:10460000E091C206F091C30681A10F900F900F9028
:104610000F90813031F483E08187802F0E946A1CE3
:104620002EC0833061F586E092E00E944542E09121
:10463000C206F091C306858D968D928F818F838DF2
:10464000948D908F878B00D000D000D0EDB7FEB74F
:10465000319621E432E0ADB7BEB712963C932E936B
:10466000119793838283958384830E943342EDB7AD
:10467000FEB736960FB6F894FEBF0FBEEDBF7AEFC9
:10468000272E75E0372E00E61AEE20E061E0662E58
:10469000712C5AEFE52EF12C42E0942E31E0A32E3E
:1046A000B12CC12CD12CD10113968C9113978F3F33
:1046B00009F4C4C01C92882309F443C014968C9159
:1046C00014978430F1F150964D915C9151978091FF
:1046D000330590E04817590738F0481B590B51969D
:1046E0005C934E93509703C0F101118A108AD10157
:1046F00052964D915C9153974817590738F0481BD3
:10470000590B53965C934E93529712C0F1016689F0
:1047100077898617970728F4681B790B738B628B50
:1047200007C00E941F40D10153969C938E935297CD
:10473000F10182899389009721F486899789938B67
:10474000828BD10114968C911497833009F076C036
:1047500050968D919C915197009709F066C01296E2
:104760008C9112978823A9F011968C911197882328
:1047700081F0D601C5010090B20604C0880F991FD0
:10478000AA1FBB1F0A94D2F7F10184879587A687D9
:10479000B787D10112961C92129711961C9211970D
:1047A0001C925A964D915C915B9756968D919C9177
:1047B000579758966D917C91599741305105D9F48E
:1047C00055967C936E93549714969C921497529698
:1047D0004D915C91539751965C934E9350970097EF
:1047E00021F45196FC92EE925097822F29830E94D9
:1047F000AB1B29811AC0F101758B648BBA01615022
:104800007040689FA001699F500D789F500D112442
:10481000518B408B538B428B009711F4F18AE08AC5
:10482000D1015B967C926E925A97F10180899189B1
:10483000009721F08017910708F48C012F5F82E226
:1048400090E0280E391E253009F02DCF0E946C1BF8
:10485000E82E282F332727FD3095F901EE0FFF1F93
:1048600085E0220F331F8A95E1F7E20FF31FEB502B
:10487000FA4F82858093C406F093B406E093B306A2
:10488000EE20B9F0258D368D2115310551F0218DA1
:10489000328D2A3F310528F42017310708F44BC028
:1048A0000DC098010B3F110508F445C02AEF30E018
:1048B00042C00B3F110510F00AEF10E08093B506DF
:1048C000F093C306E093C206009333050E9434259B
:1048D000282F30E02F5F3F4F2017310740F00E9414
:1048E0003425082F10E00E5F1F4F00933305EE2094
:1048F00011F01092B606802F0E943125C2016EEE93
:1049000072E00E94C0240E94F5260E9459320F9046
:10491000CF91DF911F910F91FF90EF90DF90CF909B
:10492000BF90AF909F908F907F906F905F904F90CF
:104930003F902F9008958901C1CF00000000000032
:1049400000000197D1F708951EBC089581E08EBD47
:10495000089580B5816080BD1DBC1CBC0895DF93A7
:10496000CF9300D0CDB7DEB78CB59DB59A83898340
:1049700029813A81C9010F900F90CF91DF9108955D
:10498000EF92FF920F931F93CF93DF93EC018FEF82
:10499000C937D80710F0C0E0D0E07E0100E010E099
:1049A00080E090E0E60EF71E081F191F91E0E9165F
:1049B00090E0F90691E0090790E0190768F080E0BF
:1049C00090E0AFEFBFEFE80EF91E0A1F1B1F0E9419
:1049D000AF24C817D907D8F30E94AF248E159F05BE
:1049E000D8F3DF91CF911F910F91FF90EF90089531
:1049F00082BF089513BE87B78D7F87BF87B78E7F2D
:104A000087BF08958BE083BF87B7836087BF089512
:104A100080B5826080BD12BE1092080410923305EA
:104A200008958EEF8093330598E090BF81BF83E0B7
:104A300086BF8BE083BF80B5876080BD1FBC81E0EF
:104A40008EBD1DBC1CBC80B5816080BD0E94082548
:104A50000E940225109208040895089581B78F5F7F
:104A60000895815081BF089582B708951F920F92D3
:104A70000FB60F920BB60F9211242F933F934F93C3
:104A80005F936F937F938F939F93AF93BF93EF93B6
:104A9000FF938AE060E00E942716FF91EF91BF919B
:104AA000AF919F918F917F916F915F914F913F91C6
:104AB0002F910F900BBE0F900FBE0F901F90189567
:104AC0000F920FB60F921F922F923F924F925F92CA
:104AD0006F927F928F929F92AF92BF92CF92DF920E
:104AE000EF92FF920F931F932F933F934F935F93F8
:104AF0006F937F938F939F93AF93BF93CF93DF93E6
:104B0000EF93FF93A091C206B091C3060DB60D922C
:104B10000EB60D921F92A0913005B09131051E90F6
:104B2000BEBFADBF0895882319F487B78F7787BFBD
:104B30008FEF0895882319F414BC81E008958FEF56
:104B40000895882319F424B530E002C020E030E055
:104B5000C9010895882329F487B7806887BF81E059
:104B600008958FEF0895882359F5CB01019785307B
:104B7000910510F46093320588E085BD43BD309304
:104B800086032093850380913205813019F485B521
:104B9000816009C0823019F485B5826004C0833019
:104BA00029F485B5836085BD81E00895843019F4CA
:104BB00085B58460F8CF853029F485B58560F3CF5D
:104BC0008FEF089581E008951F920F920FB60F9214
:104BD0000BB60F9211242F933F934F935F936F93D4
:104BE0007F938F939F93AF93BF93EF93FF93E09146
:104BF0008503F0918603309711F0099504C08AE08F
:104C000060E00E942716FF91EF91BF91AF919F91B5
:104C10008F917F916F915F914F913F912F910F9065
:104C20000BBE0F900FBE0F901F90189504B603FC9B
:104C300002C080E001C080E104B602FE06C094B765
:104C40009B7F94BF04B600FE846004B601FE05C0DD
:104C500094B79D7F94BF82600895882359F404B669
:104C600000FE04C094B79E7F94BF01C081E093B75B
:104C70009111816008958FEF08958FEF08958FEF60
:104C800008951F920F920FB60F920BB60F92112438
:104C90002F933F934F935F936F937F938F939F9344
:104CA000AF93BF93EF93FF938AE060E00E942716D3
:104CB000FF91EF91BF91AF919F918F917F916F91F4
:104CC0005F914F913F912F910F900BBE0F900FBEB0
:104CD0000F901F9018950E942A12A89584B7877F7D
:104CE00084BF81B5886181BD11BC0E942C120895DA
:104CF0000E942A1284B7877F84BFA89581B58861F6
:104D000081BD8FE081BD0E942C12089504B603FC82
:104D100002C081E008958FEF0895A8950895089541
:104D2000FC0176836583089585B7837E886185BF9E
:104D300085B7806285BF889585B78F7D85BF0895CB
:104D400085B7837E85BF85B7806285BF889585B727
:104D50008F7D85BF089525E5FA012083FB013297F9
:104D60009083818312921292129212921292129254
:104D70001292129212921292129212921292129213
:104D80001292129212921292129212921292129203
:104D900012921292129212921292129212921292F3
:104DA0001292129212921292CF010895EF92FF92F4
:104DB0000F931F93CF93DF93EC018B017A01403265
:104DC000510518F481E10E9468160894E108F10881
:104DD000E00EF11EFA82E9821C830B83DF91CF91F2
:104DE0001F910F91FF90EF90089583E494E19093C9
:104DF000AB048093AC04089585E580932C048BEA82
:104E000094E0909331058093300583E494E190938E
:104E1000AB048093AC0408950E9411250E942C12CB
:104E200008950E94672708951F93DF93CF930F92F1
:104E3000CDB7DEB7142F83708C6269830E94D227AE
:104E40006981613011F480E001C080E80E949A27F6
:104E5000812F0E949A270E948E270F90CF91DF9179
:104E60001F910895DF93CF9300D0CDB7DEB780E4D4
:104E700087B986E086B9379A369A3699FECF84B1DB
:104E800095B19A8389830F900F90CF91DF91089508
:104E90003798089597B18F71907E892B87B9369A8C
:104EA0003699FECF24B135B1C90108958EE10E9433
:104EB0004A27BC0180E090E00E94823D9B01AC014A
:104EC00064EA70E78DE994E40E94EE3C0895E1E71E
:104ED000F0E08081808381E08093700084E08093A3
:104EE000740008958091740087FFFCCF0895E4E773
:104EF000F0E08081806880830895CF93DF93C4E7DA
:104F0000D0E08881806288830E9477270E94722780
:104F100088818F7D8883DF91CF910895809174007F
:104F20008061809374000E9477278091740084FDD3
:104F3000FCCF0895809373000E9477270E94722708
:104F400080917100887F883241F090917100987F44
:104F500081E0983119F480E0089580E00895009789
:104F600021F080917400806403C0809174008F7B75
:104F7000809374000E9477270E94722780917300AB
:104F80000895DF93CF930F92CDB7DEB789830E9448
:104F90007D278981880F81600E949A270F90CF9189
:104FA000DF910895DF93CF930F92CDB7DEB789835A
:104FB0000E947D278981880F0E949A270F90CF91A8
:104FC000DF9108950E94322781E08093760308954F
:104FD00080917603882311F40E94E2270E944827DB
:104FE0000895DF93CF930F92CDB7DEB790917603FC
:104FF000992321F489830E94E2278981A898A098A7
:10500000813019F41D9A159A02C01D9815980F90B9
:10501000CF91DF910895DF93CF930F92CDB7DEB795
:1050200090917603992321F489830E94E227898154
:105030001D981598813019F4A89AA09A02C0A898D2
:10504000A0980F90CF91DF910895809176038823E7
:1050500011F40E94E22781E00E94F12781E00E9482
:105060004A27089580917603882311F40E94E2274D
:1050700081E00E940B2881E00E944A270895AF92A8
:10508000BF92CF92DF92EF92FF920F931F930E94F5
:105090003228BC0180E090E00E94823D8B017C01BF
:1050A00060E070EC8FE794E4202F312F4E2D5F2DC0
:1050B0000E94893C20E030E44CE156E40E94593ED5
:1050C000202F312F4E2D5F2D0E94EE3C0E94193E65
:1050D0007B018C0120E030E040E450E40E94BC3EC3
:1050E000D62EC72EB82EA92EC801B70129E733EE58
:1050F0004DE759E30E94593E28EC32E644E85AE372
:105100000E948A3C7B018C01A6019501652F742FBA
:10511000832F922F2DE234EC4CE154E30E94593E50
:105120009B01AC01C801B7010E948A3C9B01AC0104
:1051300060E070E080E89FE30E94EE3C1F910F91D9
:10514000FF90EF90DF90CF90BF90AF9008950E94B6
:105150003F2823E333E948E853E40E94893C08955B
:105160000E9432270E94112781E0809377030895DF
:1051700080917703882311F40E94B0280E94482769
:105180000895DF93CF930F92CDB7DEB79091770359
:10519000992321F489830E94B0288981813011F4F8
:1051A000AC9A01C0AC980F90CF91DF910895DF9336
:1051B000CF930F92CDB7DEB790917703992321F467
:1051C00089830E94B0288981813011F4AD9A01C091
:1051D000AD980F90CF91DF9108951F93182F809174
:1051E0007703882311F40E94B02880E00E940129EF
:1051F000113019F4A89AA09A02C0A898A0981F91FB
:1052000008951F93182F80917703882311F40E942B
:10521000B02880E00E94ED28113019F41D9A159AEB
:1052200002C01D9815981F910895DF93CF930F9298
:10523000CDB7DEB790917703992321F489830E943B
:10524000B0288981813011F4AA9A01C0AA980F90E0
:10525000CF91DF910895DF93CF930F92CDB7DEB753
:1052600090917703992321F489830E94B028898142
:10527000813011F4AB9A01C0AB980F90CF91DF91C0
:105280000895DF93CF930F92CDB7DEB7482F80916B
:105290007703882321F449830E94B028498180E064
:1052A00061E00E9414270F90CF91DF910895DF9362
:1052B000CF930F92CDB7DEB7482F80917703882325
:1052C00021F449830E94B028498180E062E00E9475
:1052D00014270F90CF91DF910895DF93CF930F9212
:1052E000CDB7DEB7482F80917703882321F4498317
:1052F0000E94B028498181E061E00E9414270F904C
:10530000CF91DF910895DF93CF930F92CDB7DEB7A2
:1053100090917703992321F489830E94B028898191
:10532000882311F4AE9A03C0813009F4AE980F902F
:10533000CF91DF91089580917703882311F40E9423
:10534000B02881E00E94012981E00E944A27089547
:1053500080917703882311F40E94B02881E00E9495
:10536000ED2881E00E944A270895809177038823E1
:1053700011F40E94B02882E00E944A27089580918B
:105380007703882311F40E94B02883E00E944A2703
:10539000089580917703882311F40E94B02884E057
:1053A0000E944A27089580917703882311F40E9470
:1053B000B02885E00E944A270895809177038823CA
:1053C00011F40E94B02886E00E944A27089589E9D6
:1053D00093E00197F1F700C0DC98D49A89E993E053
:1053E0000197F1F700C0D498DC9ACC9BFECF80E007
:1053F00007C091E39A95F1F700008F5F8F3149F074
:10540000CC99F7CF89E993E00197F1F700C080E0EC
:1054100008958FEF0895882361F4DC98D49A84EC82
:105420008A95F1F700C0D498DC9A81E38A95F1F768
:105430000BC0DC98D49A88E18A95F1F700C0D49823
:10544000DC9A8DED8A95F1F700000895DC98D49AE6
:1054500082E08A95F1F700C0D498DC9A96E19A959B
:10546000F1F7000089B394EC9A95F1F700C090E051
:105470008071907024E0959587952A95E1F70895BD
:10548000FF920F931F93CF93DF93F82EC0E0D0E0ED
:1054900001E010E098010C2E02C0220F331F0A9485
:1054A000E2F78F2D82230E940B2A2196C830D10566
:1054B00089F7DF91CF911F910F91FF9008951F936E
:1054C000CF93DF93C0E0D0E010E00E94262A282F7F
:1054D00030E00C2E02C0220F331F0A94E2F7122B89
:1054E0002196C830D10589F7812FDF91CF911F9187
:1054F00008958FE00E94402A089580B58B7F80BD7B
:10550000D498DC9A86EF8A95F1F70895EF92FF928E
:105510000F931F93DF93CF9300D000D0CDB7DEB7AA
:105520007C0119821A821B821C820E94E72988232F
:1055300039F0282F332727FD3095432F532F27C0CD
:105540000E94792A0E945F2A813019F08EEFF701BC
:1055500080838E010F5F1F4F0E945F2A89830E9404
:105560005F2AF80181830E945F2AF80182830E94EA
:105570005F2AF80183830E945F2A0E945F2A0E94AB
:105580005F2AF701108229813A814B815C81B90140
:10559000CA010F900F900F900F90CF91DF911F9144
:1055A0000F91FF90EF900895AA98959887FF02C0F9
:1055B000939A01C09398959A959886FF02C0939A02
:1055C00001C09398959A959885FF02C0939A01C05F
:1055D0009398959A959884FF02C0939A01C09398E6
:1055E000959A959883FF02C0939A01C09398959AD3
:1055F000959882FF02C0939A01C09398959A9598C6
:1056000081FF02C0939A01C09398959A959880FF64
:1056100002C0939A01C09398959A959AAA9A089570
:10562000DF93CF9300D00F92CDB7DEB7A89A19823F
:105630001FC0A898898180550E94D42A80E10E94C9
:10564000D42A80E00E94D42AA89A1B821A8208C019
:1056500080E00E94D42A8A819B8101969B838A8361
:105660008A819B81803891059CF389818F5F898332
:1056700089818830F0F20F900F900F90CF91DF91D9
:105680000895C498BC9A85B3876085BB84B387604E
:1056900084BB81B3886281BB939A88E785BB84B35E
:1056A000877884BBA898A9988FEF9FE3A2E08150E8
:1056B0009040A040E1F700C00000A99A8FEF9FE35F
:1056C000A2E081509040A040E1F700C0000080E4DB
:1056D0000E94D42A81EA0E94D42A80EC0E94D42A13
:1056E00086EA0E94D42A82EA0E94D42A8FE20E948B
:1056F000D42A88EF0E94D42A80E00E94D42A87E22C
:105700000E94D42A81E80E94D42A80E10E94D42AEF
:105710008CEA0E94D42A80E00E94D42A8FEA0E9458
:10572000D42A0E94102B0895813011F4C49A089550
:10573000C4980895EF92FF920F931F93DF93CF9336
:105740000F92CDB7DEB7082F162FA898842F80555B
:1057500099830E94D42A812F82958F7080610E9444
:10576000D42A812F8F700E94D42AA89A9981602F01
:10577000792F7B011AC000E010E0D701EC91B5E071
:10578000EB9FF0011124E00FF11FE057FC4F8491D3
:105790000E94D42A0F5F1F4F0530110571F780E07A
:1057A0000E94D42A0894E11CF11CF701808188230F
:1057B00011F70F90CF91DF911F910F91FF90EF9014
:1057C00008956091F3067091F40690E00E940742FC
:1057D000089580E00E94040F882349F08091F1062B
:1057E0009091F2060E94C541282F30E002C02FEFB1
:1057F0003FEFC9010895BF92CF92DF92EF92FF92DF
:105800000F931F93DF93CF9300D000D00F92CDB7AB
:10581000DEB7D82EB62E20EA36E841E050E02983E4
:105820003A834B835C8381E19D830E94E12B8B2D26
:105830000E94E12B81E1C82ECB0C9D810D2D192FEB
:1058400009C07801F80181918F010E94E12BF701D5
:105850008081C80E802F8D198B1598F38C2D0E9496
:10586000E12B0E94E92B29813A814B815C812150F7
:1058700030404040504029833A834B835C838630DC
:1058800051F089819A81AB81BC810097A105B10556
:1058900041F78FEF01C080E00F900F900F900F90B5
:1058A0000F90CF91DF911F910F91FF90EF90DF90BC
:1058B000CF90BF900895CF92DF92EF92FF920F9317
:1058C0001F93DF93CF9300D000D0CDB7DEB7F82E73
:1058D000092F20EA36E841E050E029833A834B83E0
:1058E0005C8382E10E94E12B81E00E94E12B83E551
:1058F0000E94E12B86E60E94E12B0E94E92B298180
:105900003A814B815C812150304040405040298396
:105910003A834B835C83863061F029813A814B81E5
:105920005C81211531054105510539F7EE24E394D9
:1059300001C0EE240E94E92B2FEF8F3F9207D1F395
:105940008131910559F50E94E92BEFEF8F3F9E07BA
:10595000D1F3D82E91E1C92ECD0C802F0F2D182F09
:105960000AC00E94E92BFFEF8F3F9F07D1F3F80198
:1059700081938F01C80E802F8F198D1590F30E948F
:10598000E92BFFEF8F3F9F07D1F32C2D30E08217DB
:10599000930721F4EE2011F48D2D01C08FEF0F90AD
:1059A0000F900F900F90CF91DF911F910F91FF906B
:1059B000EF90DF90CF900895CF92DF92EF92FF9219
:1059C0000F931F93DF93CF9300D000D0CDB7DEB7F6
:1059D0008C017B0180E492E4AFE0B0E089839A839C
:1059E000AB83BC8382E10E94E12B81E00E94E12B2A
:1059F00089E40E94E12B8CE50E94E12B0E94E92BB7
:105A000029813A814B815C81215030404040504097
:105A100029833A834B835C83863059F089819A814C
:105A2000AB81BC810097A105B10541F7DD24D3947A
:105A300001C0DD240E94E92B2FEF8F3F9207D1F3A5
:105A40008231910551F50E94E92BEFEF8F3F9E07C0
:105A5000D1F3823011F50E94E92BFFEF8F3F9F07B2
:105A6000D1F324E1C22EC80EF80180830E94E92BF5
:105A7000FFEF8F3F9F07D1F30C2D080FF7018083B5
:105A80000E94E92BFFEF8F3F9F07D1F3202F30E0DB
:105A90008217930711F4DD2011F08FEF01C080E031
:105AA0000F900F900F900F90CF91DF911F910F915A
:105AB000FF90EF90DF90CF9008950F931F93DF93A7
:105AC000CF9300D000D0CDB7DEB7182F062F20E43B
:105AD00032E44FE050E029833A834B835C8382E1D8
