:100000000C94C9040C948A260C94E8040C94E8041B
:100010000C94E8040C94E8040C94E8040C94E804B0
:100020000C94E8040C942D260C94E8040C94E80439
:100030000C94E8040C94E8040C94E8040C94A925AE
:100040000C94A9250C94E8040C94E8040C94E8049E
:100050000C94E8040C94E8040C94E8040C94E80470
:100060000C94E8040C94E8040C94E8040C94E80460
:100070000C94E8040C94E8040C94E8040C94E80450
:100080000C94E8040C94E8040C94E804F415FA15B4
:10009000FD150016031606160C1609160F16121675
:1000A00015161E162116241627161B16F115F71500
:1000B0002A162D161816EE1508000000BE922449C7
:1000C000123EABAAAA2ABECDCCCC4C3E000000808A
:1000D000BEABAAAAAA3E00000000BF000000803FFD
:1000E0000000000000084178D3BB4387D1133D19BD
:1000F0000E3CC3BD4282AD2B3E68EC8276BED98FEA
:10010000E1A93E4C80EFFFBE01C4FF7F3F0000002D
:10011000000007634236B79BD8A71A39685618AE55
:10012000BAAB558C1D3CB7CC5763BD6DEDFD753E2C
:10013000F6177231BF000000803F554E4B4F574EAF
:100140000045787465726E616C2052657365740049
:1001500042726F776E204F757420446574656374C6
:10016000004661696C656420746F20637265617418
:10017000652053656D6170686F7265004661696CDA
:10018000656420746F2063726561746520536967CC
:100190006E616C004B65726E656C2066756E637483
:1001A000696F6E206E6F7420696D706C656D656E21
:1001B0007465640044657669636520447269766598
:1001C00072204572726F72005761746368646F6762
:1001D00020526573746172740053572057617463C1
:1001E00068646F6720526573746172740054696D3E
:1001F0006572204F766572666C6F7700556E686128
:100200006E646C656420496E7465727275707420DA
:10021000566563746F72004C6F7720566F6C746113
:100220006765004578747261205461736B20737444
:1002300061727465642C206973206E726B5F6366F3
:10024000672E68206F6B3F0049646C65206F7220D9
:100250004B65726E656C20537461636B204F7665DD
:1002600072666C6F7700556E65787065637465644F
:100270002052657374617274004475706C696361B7
:10028000746564205461736B20494400536368654E
:1002900064756C6572204D69737365642057616B7A
:1002A000657570005461736B205265736572766575
:1002B0002056696F6C61746564005265736572766F
:1002C00065204572726F7220696E205363686564A1
:1002D000756C657200496E76616C69642053746157
:1002E000636B20506F696E746572005461736B208C
:1002F000537461636B204F766572666C6F77005341
:100300007461636B20776173206E6F74206465661F
:10031000696E6564206173206C6172676520656E2B
:100320006F75676821005461736B20706572696F27
:100330006420746F6F206C617267652E2050657247
:10034000696F64206D757374206265206C657373CA
:10035000207468616E203631207365636F6E64733C
:100360002E00293A20002A4E524B204552524F521D
:1003700028000D0A535441434B2044554D500D0A5B
:10038000000A0D006E726B5F71756575653A20002D
:1003900008082A1C08081C2A080840444A51404002
:1003A000514A444014741C171410207F01010000AE
:1003B0000000000000000000081C2C08087F01015C
:1003C0000101010101017F7F404040404040404029
:1003D0007F0000000000000000000000000000009E
:1003E00079112711790000000000000000000000D2
:1003F000000000007F01010103605048447E3E4937
:1004000049493E700C030C706349494963017F01FF
:100410007F01635549414106017E010608557F551C
:10042000080F107F100F4E7101714E38444438444C
:10043000000000000000005F000003000300001443
:100440003E143E1426497F493262152A5423364908
:100450005620500003000000001C224100004122F1
:100460001C0000140E140008083E0808006000007C
:10047000000808080800004000000060100804039D
:100480003E4141413E04027F000062514945422203
:10049000414949360C0B087E084F494949313E49CC
:1004A0004949326111090503364949493626494906
:1004B000493E0022000000006100000008141422E0
:1004C00022141414141422221414080601590502CB
:1004D0003E415D555E7E0909097E7F494949363EA8
:1004E000414141227F4141413E7F494949417F0984
:1004F0000909013E414949327F0808087F00007F11
:100500000000204040403F7F081422417F4040408F
:10051000007F0204027F7F021C207F3E4141413E5A
:100520007F090909063E4151617E7F091929462646
:100530004949493201017F01013F4040403F1F20AE
:1005400040201F3F4030403F631408146303047889
:10055000040361514945437F410000000000000051
:1005600000000000417F060106000040404040407E
:10057000010200000020545454787F484848303825
:1005800044444428384444447F3854545418087E22
:100590000909010C5252523E7F04040478047D4044
:1005A0004020204040443D007F102844203E5149D7
:1005B000467C047C04787C0804047838444444383D
:1005C0007E1212120C0C1212127E047804040848D7
:1005D00054545424043F4444403C40403C401C207C
:1005E00040201C3C4030403C4428102844264848C9
:1005F000483E4464544C4400083E410000007F00E3
:100600000000413E08000000000000000000000063
:1006100000000000000000000000000000000020BA
:10062000483E090200000000000000000000040431
:100630007F04040000000000000000000000000033
:1006400000000000000000000000000000000000AA
:10065000000000000000000000000000000000009A
:100660000000000000000000000000000000000288
:100670000401020000000000000018180000000043
:10068000000000000000000000000000000000006A
:10069000000000000000000000000000000000005A
:1006A000000000000000000000000000000000004A
:1006B0000000000000000079000000000000004879
:1006C0007E494942000000000015167C1615000006
:1006D0000000000A5555552800010001003E635DE9
:1006E0006B3E000000000008142A142200000000E5
:1006F0000000000000003E41754B3E010101010178
:1007000000020502000000000000000000000000E0
:100710000000000000000000000000000000060FC4
:100720007F017F00000000000000000000000000CA
:100730000000070507000022142A14080F003C20BF
:10074000780F004864580000000000304845402001
:100750000000000000000000000000000000007227
:1007600029292A717825242578702A252A707E095E
:100770007F49490E5151711100000000007C545610
:1007800055440000000000000000000000000000D0
:100790000000000000000000000000000000000059
:1007A00000000000007A091122790000000000001A
:1007B0000000000000000000003A454546393D4277
:1007C00042423D22140814225C322A261D000000F9
:1007D0000000000000000000000000003C4140411B
:1007E0003C000000000000000000000000000000CD
:1007F0002055565478205456557820565556782210
:100800005155567920555455780000000000245465
:100810007854580C5252721238555654183854564F
:1008200055183856555618385554551800497A40B9
:100830000000487A4100004A794200004A784200AC
:1008400000000000007A11090A7130494A4830302E
:10085000484A4930304A494A303249494A31304A97
:10086000484A3008082A080818643C2618384142CB
:10087000207838404221783842412278384240225C
:1008800078000000000000000000000C5150513CB6
:100890006E616E00696E660000407A10F35A00A027
:1008A000724E18090010A5D4E80000E87648170039
:1008B00000E40B54020000CA9A3B000000E1F50579
:1008C000000080969800000040420F000000A086C3
:1008D00001000000102700000000E80300000000F5
:1008E0006400000000000A00000000000100000099
:1008F00000002C76D888DC674F0823DFC1DFAE59B3
:10090000E1B1B796E5E3E453C63AE651997696E845
:10091000E6C28426EB898C9B62ED407C6FFCEFBCC9
:100920009C9F40F2BAA56FA5F490055A2AF75C93F4
:100930006B6CF9676DC11BFCE0E40D47FEF520E62A
:10094000B500D0ED902E0300943577050080841E0D
:10095000080000204E0A000000C80C333333330F68
:10096000986E12831141EF8D2114893BE65516CF05
:10097000FEE6DB18D1844B381BF77C1D901DA4BB11
:10098000E424203284725E228100C9F124ECA1E5C6
:100990003D2711241FBECFEFD0E1DEBFCDBF13E056
:1009A000A0E0B1E0E8ECF9E800E00BBF02C007907E
:1009B0000D92AC3EB107D9F717E0ACEEB3E001C041
:1009C0001D92A137B107E1F70E94B2050C94E244F1
:1009D0000C947F252F923F924F925F926F927F925D
:1009E0008F929F92AF92BF92CF92DF92EF92FF923F
:1009F0000F931F93CF93DF93E0913807F09139075E
:100A00008085992787FD909570E0672E71E0772E9D
:100A100062E0C62ED12C50E1852E57E2952EA12CF6
:100A2000B12C40E2442E41E0542EEC01CC0FDD1FEE
:100A300025E0880F991F2A95E1F7C80FD91FCC57D9
:100A4000D94F82E3282E81E0382E00D000D0EDB7B8
:100A5000FEB772826182D482C3820E9497420F9055
:100A60000F900F900F90EE24FF248701C801B7016B
:100A7000A50194010E949E406115710581059105B3
:100A8000F9F400D000D0EDB7FEB7528241828881E0
:100A90009981948383830E94974200D0EDB7FEB77B
:100AA00032822182E382F482058316830E94974278
:100AB0008DB79EB706960FB6F8949EBF0FBE8DBF3A
:100AC0000894E11CF11C011D111D91E3E91695E745
:100AD000F90690E0090790E0190741F600D000D030
:100AE0008CE591E0EDB7FEB792838183D482C38217
:100AF0000E9497420F900F900F900F900E94CF1E70
:100B0000A4CFEF92FF920F931F93CF93DF93E0E078
:100B1000EE2EE1E0FE2EC1E0D0E00CE511E000D0C9
:100B200000D0EDB7FEB7F282E182D483C3830E9486
:100B300097420F900F900F900F908BE791E00E94DB
:100B4000A94200D000D0EDB7FEB712830183D48351
:100B5000C3830E9497420F900F900F900F900E94B6
:100B6000CF1EDDCF1F93CF93DF930E94501187E0FC
:100B700090E00E949F110E948E1260E070E0CB0115
:100B800020E030E0A9010E94D32011E01093B205CB
:100B90001093B3051093B4051093B50580918B01A4
:100BA00090918C01A0918D01B0918E018093B6053A
:100BB0009093B705A093B805B093B9051092BA0504
:100BC0001092BB051092BC051092BD0580918F015B
:100BD00090919001A0919101B09192018093BE05F6
:100BE0009093BF05A093C005B093C1051092C205B4
:100BF0001092C3051092C4051092C5051092C60547
:100C00001092C7051092C8051092C9051092CA0526
:100C10001092CB051092CC051092CD05CBEAD5E011
:100C2000CE0161E875E00E94D926CE016DEF73E038
:100C300040E850E00E941F27CE010E94171D10932C
:100C4000860482E08093870483E080938804109375
:100C500089048091930190919401A0919501B091A4
:100C6000960180938A0490938B04A0938C04B09394
:100C70008D0410928E0410928F04109290041092A2
:100C800091048091970190919801A0919901B09160
:100C90009A018093920490939304A0939404B09348
:100CA0009504109296041092970410929804109252
:100CB000990410929A0410929B0410929C04109232
:100CC0009D0410929E0410929F041092A004109212
:100CD000A104CFE7D4E0CE016AEE74E00E94D926E9
:100CE000CE0166E275E040E850E00E941F27CE0189
:100CF0000E94171D0E94541380E090E0DF91CF9175
:100D00001F91089590E09C012B503040220F331F1B
:100D1000220F331F865A9E4B820F931FF894C09860
:100D200028E12FB9779BFECF9FB9779BFECF8FB974
:100D3000779BFECFC09A78940895F894C0981FB816
:100D4000779BFECF8FB1C09A789486FFF6CF089537
:100D50008091B5010E94820F8091B4010E94C80F5A
:100D600008958091B5010E94820F8091B4010E9484
:100D7000820F0895F894C09887E08FB9779BFECFD3
:100D8000C09AC09886E08FB9779BFECFC09A7894BE
:100D90000895F894C09881E08FB9779BFECFC09AF0
:100DA00088EE93E00E94E62478940895809163068B
:100DB0000895FC01C09889EC8FB9779BFECF80E83D
:100DC0008FB9779BFECF82E08150DF01A80FB11D64
:100DD0009C919FB9779BFECF8823B1F7C09AC098AA
:100DE0008BEC8FB9779BFECF80E88FB9779BFECFD6
:100DF00082E08150DF01A80FB11D12969C911297DD
:100E00009FB9779BFECF8823A1F7C09A80818093FA
:100E10006406818180936506828180936606838162
:100E20008093670608958F929F92AF92BF92CF9260
:100E3000DF92EF92FF920F931F93DF93CF9300D037
:100E400000D0CDB7DEB7E82E092F84E690E00E94EF
:100E5000E624F02E20E031E08E010F5F1F4FF3E01B
:100E6000CF2ED12CCC0EDD1EF70191907F0188246E
:100E7000808190E0882999299A83898384E690E08B
:100E80002B833C830E94E624C0982B813C81822FD7
:100E900080688FB9779BFECFC90195958795807C37
:100EA0008FB9779BFECF5801F80181918FB9779B5D
:100EB000FECFEC15FD05C9F7C09A2E5F3F4FF1E05C
:100EC00020313F0789F684E690E00E94E62420E482
:100ED00031E080E191E01A821982C098422F406887
:100EE0004FB9779BFECFA90155954795407C4FB9E7
:100EF000779BFECFF80141914FB9779BFECFEC1560
:100F0000FD05C9F7C09AC098482F40684FB9779B34
:100F1000FECFAC0155954795407C4FB9779BFECFEE
:100F2000F80141914FB9779BFECFEC15FD05C9F74C
:100F3000C09A02962E5F3F4F41E08E31940759F6DA
:100F400081E090E09A838983C0988EEC8FB9779B7B
:100F5000FECF80E88FB9779BFECFC8010296F801DB
:100F600021912FB9779BFECFE817F907C9F7C09AEF
:100F7000C0988EE98FB9779BFECF80E88FB9779BB9
:100F8000FECF0E5F1F4FF50181915F018FB9779BF7
:100F9000FECFA016B106B9F7C09A0F900F900F9030
:100FA0000F90CF91DF911F910F91FF90EF90DF9005
:100FB000CF90BF90AF909F908F900895C09889E197
:100FC0008FB9779BFECF83E08FB9779BFECF86E00A
:100FD0008FB9779BFECFC09AC0988AE18FB9779B73
:100FE000FECF8EE08FB9779BFECF8EE08FB9779BD7
:100FF000FECFC09A81E0809354060895C09889E19D
:101000008FB9779BFECF81E08FB9779BFECF84ECC1
:101010008FB9779BFECFC09A1092540608958091A5
:10102000520690915306089590E08F719070806EF3
:10103000906AC09825E12FB9779BFECF9FB9779B27
:10104000FECF8FB9779BFECFC09A08950E9482068B
:101050000895809155069091560698609093560693
:1010600080935506C09881E18FB9779BFECF809120
:1010700056068FB9779BFECF809155068FB9779B27
:10108000FECFC09A08958091550690915606977F9D
:101090009093560680935506C09881E18FB9779B4F
:1010A000FECF809156068FB9779BFECF8091550673
:1010B0008FB9779BFECFC09A089581E08093620636
:1010C00080915506909156068061909356068093C4
:1010D0005506C09881E18FB9779BFECF8091560667
:1010E0008FB9779BFECF809155068FB9779BFECF46
:1010F000C09A089510926206809155069091560606
:101100008F7E9093560680935506C09881E18FB9E3
:10111000779BFECF809156068FB9779BFECF80914B
:1011200055068FB9779BFECFC09A0895DF93CF9372
:1011300000D0CDB7DEB79A83898390935E06809303
:101140005D0684EF91E00E94E624C0988AEE8FB994
:10115000779BFECF80E88FB9779BFECFFE0131965B
:10116000CE01039621912FB9779BFECFE817F9079F
:10117000C9F7C09A84EF91E00E94E6240F900F9087
:10118000CF91DF910895CF93DF93EC01862FC09824
:1011900098E09FB9779BFECFC09AC09898E09FB91E
:1011A000779BFECFC09A0E948206D0935806C093C8
:1011B0005706DF91CF910895DF92EF92FF920F9340
:1011C0001F93DF93CF9300D0CDB7DEB78C01D62E1F
:1011D0005A8349837901DD9A88EE93E00E94DF11FA
:1011E000DE9881E090E00E94DF11DE9A84E690E0D4
:1011F0000E94DF11F894C09881E08FB9779BFECFF1
:10120000C09A82EE92E09093560680935506C0985D
:1012100081E18FB9779BFECF809156068FB9779B7E
:10122000FECF809155068FB9779BFECFC09AC098AC
:1012300082E18FB9779BFECF85E08FB9779BFECF98
:101240001FB8779BFECFC09AC0988CE18FB9779B6F
:10125000FECF1FB8779BFECF8FE78FB9779BFECF6E
:10126000C09AC09889E18FB9779BFECF81E08FB992
:10127000779BFECF84EC8FB9779BFECFC09AC09846
:1012800087E18FB9779BFECF8AE18FB9779BFECF3D
:1012900086E58FB9779BFECFC09A84EF91E00E94DC
:1012A000E624C09888EE8FB9779BFECF80E88FB98F
:1012B000779BFECFFE013196CE01039621912FB987
:1012C000779BFECFE817F907C9F7C09A84EF91E042
:1012D0000E94E62478948D2D0E94820678941093C3
:1012E00058060093570689819A8190935C068093F3
:1012F0005B06F0925E06E0925D061092590610922F
:101300005F060E949D06109262061092540610928B
:1013100063060F900F90CF91DF911F910F91FF9077
:10132000EF90DF90089581E080935F06C09883E09E
:101330008FB9779BFECFC09AC09888E08FB9779B12
:10134000FECFC09A10926806089581E080935F06F0
:10135000C09883E08FB9779BFECFC09AC09888E091
:101360008FB9779BFECFC09A1092680608951092AD
:101370005F06C09886E08FB9779BFECFC09A109227
:1013800068060895BF92CF92DF92EF92FF920F937B
:101390001F93DF93CF9300D00F92CDB7DEB78C01B0
:1013A0006B017A010E947D25C09888E08FB9779BF8
:1013B000FECFC09AC09888E08FB9779BFECFC09AC5
:1013C0000E99FECF8499FCCFF894C09889E08FB92C
:1013D000779BFECFC09AC09889E08FB9779BFECFEC
:1013E000C09AD80112965C911297252F332727FDBA
:1013F0003095BB2440E00AC0D8011396ED91FC91D2
:101400001497E80FF91F8081B80E4F5F842F90E08A
:10141000821793078CF3545FC0988EE38FB9779B44
:10142000FECF5FB9779BFECFC09AF80186818823F3
:1014300019F081E698E802C081E498E89A838983EC
:10144000C0988EE38FB9779BFECFFE013196CE0117
:10145000039621912FB9779BFECFE817F907C9F7BB
:10146000C09AC0988EE38FB9779BFECF80915906C2
:101470008FB9779BFECFC09AC0988EE38FB9779BC8
:10148000FECF80E090E0FC01E95AF94F24812FB9AA
:10149000779BFECF019682309105A9F7C09AC0983C
:1014A0008EE38FB9779BFECF80E090E0F801E80FE4
:1014B000F91F20812FB9779BFECF019682309105CD
:1014C000A9F7C09AC0988EE38FB9779BFECF80E0D2
:1014D00090E0FC01E95AF94F26812FB9779BFECFA6
:1014E000019682309105A9F7C09AC601B7010E9402
:1014F0000925D80115968C9115978823A9F180911B
:101500005F06882331F4C09883E08FB9779BFECFC4
:10151000C09AC0981FB8779BFECF8FB1C09A81FF49
:10152000F8CF20E0A5E0EA2EC098EFB8779BFECF79
:10153000C09AC0981FB8779BFECFCFB0C09A2F5FDC
:10154000253649F4789480915206909153060E9472
:10155000451A80E060C084E690E02B830E94DF1192
:101560002B81C3FEE1CF06C0C09884E08FB9779B82
:10157000FECFC09AC0988EE38FB9779BFECF40E034
:101580000CC0D8011396ED91FC911497E80FF91F48
:1015900080818FB9779BFECF4F5F842F90E0F80159
:1015A0002281332727FD30958217930754F3C09A81
:1015B000C0988EE38FB9779BFECFBFB8779BFECFE5
:1015C000C09A849BFECFF8948499FECFC09888E09F
:1015D0008FB9779BFECFC09AC09888E08FB9779B70
:1015E000FECFC09AC09889E08FB9779BFECFC09A92
:1015F000C09889E08FB9779BFECFC09AC09886E0EB
:101600008FB9779BFECFC09A7894809159068F5FEF
:101610008093590681E00F900F900F90CF91DF914A
:101620001F910F91FF90EF90DF90CF90BF900895A2
:10163000FF920F931F93DF93CF9300D0CDB7DEB708
:10164000FC0180915406882331F0C0988DE08FB959
:10165000779BFECFC09A3281432F552747FD509587
:1016600020E060E007C0A381B481A80FB91F8C916E
:10167000280F6F5F862F90E084179507A4F3832FC0
:10168000845F9091540691118C5FC09898E09FB947
:10169000779BFECFC09AC09898E09FB9779BFECF0A
:1016A000C09A0E99FECF8499FCCFF894C09899E027
:1016B0009FB9779BFECFC09AC09899E09FB9779B5E
:1016C000FECFC09AC0989EE39FB9779BFECF8FB99B
:1016D000779BFECFC09A81E498E89A8389838091B2
:1016E0006206882321F081E698E89A8389838091B5
:1016F0005406882329F089819A8188609A83898396
:10170000C0988EE38FB9779BFECFDE011196CE0194
:1017100003963D913FB9779BFECFA817B907C9F74C
:10172000C09AC0988EE38FB9779BFECF80915906FF
:101730008FB9779BFECFC09AC0988EE38FB9779B05
:10174000FECF80E090E0DC01A95AB94F14963C919D
:1017500014973FB9779BFECF01968230910599F798
:10176000C09AC0988EE38FB9779BFECF80E090E05F
:10177000DF01A80FB91F3C913FB9779BFECF0196BF
:1017800082309105A9F7C09AC0988EE38FB9779BF4
:10179000FECF80E090E0DC01A95AB94F16963C914B
:1017A00016973FB9779BFECF01968230910599F746
:1017B000C09A80915406882381F0C0988EE38FB937
:1017C000779BFECFA4E6B6E08D918FB9779BFECFD5
:1017D00086E0A836B807C1F7C09AC0988EE38FB9E3
:1017E000779BFECF30E009C0A381B481A80FB91F59
:1017F0008C918FB9779BFECF3F5F832F90E0428122
:10180000552747FD50958417950774F3C09AC098E3
:101810008EE38FB9779BFECF2FB9779BFECFC09A0F
:101820008581882391F180915F06882331F4C098E7
:1018300083E08FB9779BFECFC09AC0981FB8779B83
:10184000FECF8FB1C09A81FFF8CF10E005E0C098BD
:101850000FB9779BFECFC09AC0981FB8779BFECF79
:10186000FFB0C09A1F5F153649F4789480915206F4
:10187000909153060E94451A80E043C084E690E0B0
:101880000E94DF11F3FEE3CF06C0C09884E08FB959
:10189000779BFECFC09A7894849BFECF8499FECF2D
:1018A000809162068823F9F084EA92E00E94DF11B9
:1018B000B79B0BC0C0988FE78FB9779BFECF1FB83F
:1018C000779BFECF8FB1C09A0EC0C09888E08FB9C9
:1018D000779BFECFC09AC09888E08FB9779BFECFE8
:1018E000C09A80E001C081E0F894C09896E09FB96A
:1018F000779BFECFC09A7894909159069F5F909302
:1019000059060F900F90CF91DF911F910F91FF908B
:10191000089581E0849B80E0089581E00E9B80E043
:10192000089581E0849B80E00895DF93CF9300D0F9
:1019300000D0CDB7DEB70E9BC7C1109263060E9BD9
:101940001AC0B79918C0C0988FE78FB9779BFECFA0
:101950001FB8779BFECF8FB1C09AC09888E08FB92F
:10196000779BFECFC09AC09888E08FB9779BFECF57
:10197000C09A8FEFAAC1C0988FE78FB9779BFECF2F
:101980001FB8779BFECF4FB1C09A4F77C1F4C09874
:101990008FE78FB9779BFECF1FB8779BFECF8FB1B4
:1019A000C09AC09888E08FB9779BFECFC09AC09844
:1019B00088E08FB9779BFECFC09A8EEF86C14C30FE
:1019C00084F0E0915706F0915806842F992787FDFF
:1019D00090950B972481332727FD309528173907D9
:1019E0007CF5C0988FE78FB9779BFECF50E0842FAE
:1019F000992787FD909504C01FB8779BFECF5F5F46
:101A0000252F30E02817390714F4B799F5CFC09A7D
:101A1000C0988FE78FB9779BFECF1FB8779BFECF1B
:101A20008FB1C09AC09888E08FB9779BFECFC09ADB
:101A3000C09888E08FB9779BFECFC09A8DEF45C1E3
:101A4000E0915706F09158064C504383C0988FE7B9
:101A50008FB9779BFECFFE013196CE0103961FB85A
:101A6000779BFECF2FB12193E817F907C1F7C09AF2
:101A7000E0915706F0915806998181E095FF80E04A
:101A80008783C0988FE78FB9779BFECF1FB8779B6E
:101A9000FECFE0915706F09158068FB18083C09A2F
:101AA000C0988FE78FB9779BFECF84E005C01FB841
:101AB000779BFECF815011F0B799F9CFC09AC098AB
:101AC0008FE78FB9779BFECF80E090E01FB8779BC0
:101AD000FECFE0915706F09158062FB1E80FF91F9D
:101AE000218301968230910589F7C09A898183FF0D
:101AF0004DC0C0988FE78FB9779BFECFEEE4F6E03C
:101B00001FB8779BFECF8FB1819386E0E235F8074F
:101B1000B9F7C09AC09889E98FB9779BFECF80E862
:101B20008FB9779BFECF82E08150E82FF0E0E25B37
:101B3000F94F90819FB9779BFECF8823A9F7C09A70
:101B4000C0988BE98FB9779BFECF80E88FB9779BE0
:101B5000FECF82E08150E82FF0E0E05BF94F90810A
:101B60009FB9779BFECF8823A9F7C09AC0988CE0D5
:101B70008FB9779BFECFC09A81E080936306E09196
:101B80005706F0915806838184508383C0988FE76D
:101B90008FB9779BFECF40E00FC01FB8779BFECF79
:101BA000E0915706F09158068FB10580F681E02D3F
:101BB000E40FF11D80834F5FE0915706F0915806C6
:101BC000242F30E08381992787FD909528173907C6
:101BD00024F3C09AC0988FE78FB9779BFECF1FB8C8
:101BE000779BFECF6FB1C09AC0988FE78FB9779B74
:101BF000FECFFE013396CE0105961FB8779BFECF30
:101C00002FB12193E817F907C1F7C09AE091570661
:101C1000F09158068B81808750E040E00CC0E09145
:101C20005706F09158060580F681E02DE80FF91F60
:101C30008081480F5F5FE0915706F0915806852F2D
:101C400090E02381332727FD3095821793073CF3DB
:101C50004617C1F0C0988FE78FB9779BFECF1FB8AA
:101C6000779BFECF8FB1C09AC09888E08FB9779BE1
:101C7000FECFC09AC09888E08FB9779BFECFC09AFC
:101C80008CEF23C08C8187FF07C0809168068F5F2F
:101C90008093680681E019C0C0988FE78FB9779B61
:101CA000FECF1FB8779BFECF8FB1C09AC09888E057
:101CB0008FB9779BFECFC09AC09888E08FB9779B89
:101CC000FECFC09A8BEF01C080E00F900F900F9075
:101CD0000F90CF91DF91089580916806882329F0B5
:101CE0008091680610926806089580E00895C09873
:101CF00088E08FB9779BFECFC09AC09888E08FB9F3
:101D0000779BFECFC09A0895992787FD9095982FCD
:101D100088278068C09823E12FB9779BFECF9FB9B1
:101D2000779BFECF8FB9779BFECFC09A0895C0985E
:101D300086E08FB9779BFECFC09AC09882E18FB9B9
:101D4000779BFECF85E08FB9779BFECF88E08FB978
:101D5000779BFECFC09AC0988EE28FB9779BFECF5B
:101D600088E18FB9779BFECF1FB8779BFECFC09AD3
:101D70000E94770E0895C09886E08FB9779BFECFBA
:101D8000C09AC09882E18FB9779BFECF85E08FB96A
:101D9000779BFECF1FB8779BFECFC09AC0988EE28C
:101DA0008FB9779BFECF1FB8779BFECF1FB8779B6D
:101DB000FECFC09A0E94770E0895C09886E08FB932
:101DC000779BFECFC09AC09882E18FB9779BFECFF8
:101DD00085E08FB9779BFECF81E08FB9779BFECFEF
:101DE000C09A0E94770E0895C09882E18FB9779BC0
:101DF000FECF85E08FB9779BFECF84E08FB9779BCC
:101E0000FECFC09A0E94770E089590E08F70907078
:101E10002091550630915606207F822B932B90936C
:101E2000560680935506C09881E18FB9779BFECF07
:101E3000809156068FB9779BFECF809155068FB95A
:101E4000779BFECFC09A089590E026E0880F991FF7
:101E50002A95E1F7907020915506309156062F7320
:101E6000822B932B9093560680935506C09881E160
:101E70008FB9779BFECF809156068FB9779BFECFA7
:101E8000809155068FB9779BFECFC09A0895C09870
:101E900084E08FB9779BFECFC09A0895C09886E002
:101EA0008FB9779BFECFC09A08955F9BFECF5F9856
:101EB0008CB108955D9BFECF5D988CB908958FEF2E
:101EC0000895882311F48BB104C0813031F48091DE
:101ED0009B00881F8827881F089580E00895CF936E
:101EE000DF93EC0107C06091690770916A0790E089
:101EF0000E946B42FE01219684918823A1F7DF9115
:101F0000CF9108958F3F09F43FC0982F96959695ED
:101F1000969521E030E002C0220F331F9A95E2F738
:101F200090E08770907082309105D9F083309105F0
:101F300034F4009771F08130910541F50EC0843082
:101F40009105C1F0843091058CF085309105F1F454
:101F500015C08BB3822B8BBB07C088B3822B88BB89
:101F600003C085B3822B85BB81E0089582B3822BA9
:101F700082BBFACF83B1822B83B9F6CF8091620006
:101F8000822B80936200F0CF8FEF08958FEF08953A
:101F90008F3F09F440C0982F96959695969521E02D
:101FA00030E002C0220F331F9A95E2F7209590E0AF
:101FB0008770907082309105D9F08330910534F4A8
:101FC000009771F08130910541F50EC08430910584
:101FD000C1F0843091058CF085309105F1F415C085
:101FE0008BB382238BBB07C088B3822388BB03C01B
:101FF00085B3822385BB81E0089582B3822382BBAF
:10200000FACF83B1822383B9F6CF80916200822315
:1020100080936200F0CF8FEF08958FEF08958F3F88
:1020200089F1282F30E02770307022303105C1F05F
:10203000233031053CF42115310571F02130310593
:1020400009F50CC02430310579F02430310554F005
:1020500025303105B9F40AC029B309C026B307C039
:1020600023B305C020B303C021B101C020B130E0CB
:1020700086958695869502C0359527958A95E2F7CF
:10208000217001C02FEF822F0895882319F080B5A9
:102090008B7F02C080B5846080BD81E008958F3F52
:1020A00009F43FC0982F96959695969521E030E0DB
:1020B00002C0220F331F9A95E2F790E0877090706C
:1020C00082309105D9F08330910534F4009771F096
:1020D0008130910541F50EC084309105C1F0843006
:1020E00091058CF085309105F1F415C08BB38227F2
:1020F0008BBB07C088B3822788BB03C085B3822708
:1021000085BB81E0089582B3822782BBFACF83B179
:10211000822783B9F6CF8091620082278093620084
:10212000F0CF8FEF08958FEF08958F3F09F48CC0A3
:10213000982F96959695969521E030E002C0220F53
:10214000331F9A95E2F790E0662309F04AC0322FD8
:102150003095877090708230910519F18330910528
:102160003CF4009781F08130910509F06DC012C0F8
:102170008430910521F184309105D4F085309105AA
:1021800009F062C023C08AB383238ABB8BB3822B3E
:102190008BBB58C087B3832387BB88B3822B88BB94
:1021A00051C084B3832384BB85B3822B85BB4AC0D3
:1021B00081B3832381BB82B3822B82BB43C082B1B4
:1021C000832382B983B1822B83B93CC080916100A3
:1021D00083238093610080916200822B8093620050
:1021E00031C08770907082309105D9F083309105AD
:1021F00034F4009771F08130910541F50EC08430C0
:102200009105B9F08430910584F085309105F1F4A1
:1022100014C08AB3822B8ABB15C087B3822B87BBBD
:1022200011C084B3822B84BB0DC081B3822B81BBD0
:1022300009C082B1822B82B905C080916100822BD6
:102240008093610081E008958FEF08958FEF0895E6
:102250008FEF0895009711F480E009C08130910557
:1022600011F488E004C08230910529F480E10E94D5
:102270004F1081E008958FEF0895009711F480E0EA
:1022800009C08130910511F488E004C082309105C5
:1022900029F480E10E94820F81E008958FEF089574
:1022A00080B5846080BD87E087BB88BB8FEF84BB2F
:1022B00015BA82E082B987E68ABB80E48BBB80E5F1
:1022C0008DB981E08EB980E090E00E943D1181E0FF
:1022D00090E00E943D1182E090E00E943D1183E079
:1022E00090E00E943D110895009711F480E009C02C
:1022F0008130910511F488E004C08230910529F401
:1023000080E10E94C80F81E008958FEF08959091B9
:102310009B0095FFFCCF90919B009F7D90939B002D
:1023200080939C0008959093900089B986E08093F3
:1023300095005298599A8AB188618AB908950F9385
:102340001F93CF93DF930E949311CAE5DFE005E569
:102350001FE0CE01B8010E94DE4190936A0780938E
:102360006907CE01B8010E94DE419093680780930F
:102370006707DF91CF911F910F9108959093980077
:102380008093990086E080939D00EAE9F0E08081E7
:102390008B7F8083ABE9B0E08C9182608C938081ED
:1023A00088618083089580919B0087FFFCCF809196
:1023B0009B008F7780939B0080919C000895000084
:1023C0000000000000000197D1F708950E946E43BD
:1023D00008950E94764380E00895EF92FF920F9354
:1023E0001F93CF93DF93E82EE7017E01F92EE701DB
:1023F00080E090E00E946E43082F8B8381E090E0A4
:102400000E946E43E82E8A8382E090E00E946E4331
:10241000F82E898383E090E00E946E43182F888312
:1024200084E090E00E946E43FE0CF00EF10E8F15DA
:1024300011F481E001C08FEFDF91CF911F910F91D7
:10244000FF90EF900895CF93DF93EC0185E090E04B
:102450000E946E43888381E0DF91CF910895FC0153
:1024600086E090E060810E94764381E00895CF93FA
:10247000DF93EC0186E090E00E946E43888381E068
:10248000DF91CF9108950F931F93CF93DF93082F80
:10249000192FC8E0D0E0CE010E946E43F80181936D
:1024A0008F012196C831D105B1F781E0DF91CF913D
:1024B0001F910F9108950F931F93CF93DF93082FD0
:1024C000192FC8E0D0E0F80161918F01CE010E9480
:1024D00076432196C831D105B1F781E0DF91CF91E4
:1024E0001F910F910895CF93DF93EC0187E090E067
:1024F0000E946E43888381E0DF91CF910895FC01B3
:1025000087E090E060810E94764381E00895F8942E
:102510000895789408950E948712FFCF0F931F9318
:10252000DF93CF93CDB7DEB7A3970FB6F894DEBF96
:102530000FBECDBF0E940118809328078F3F21F462
:102540008EE060E00E9484160E945F26082F81FFC3
:1025500004C084E160E00E94841602FF04C083E1AD
:1025600060E00E94841610922B0710923907109297
:10257000380710922A071092290710923A071092F2
:102580003707E7E1F7E08FEF80838283818333961B
:1025900097E0E632F907C1F793E6909375068093CA
:1025A000730690939706809395069093B90680934F
:1025B000B7069093DB068093D9069093FD0680932F
:1025C000FB06EEE3F7E020E030E001C09A01A9014C
:1025D0004F5F5F4FCA01880F991F880F991F840FA3
:1025E000951F855C984F91838083C901880F991F3F
:1025F000880F991F820F931F855C984F9483838364
:1026000035964530510511F710923D0710923C0761
:10261000109258071092570710922E0710922D070C
:102620008BE397E090936A06809369068E010F5FB3
:102630001F4FC80163E372E20E94D926C8016EEC05
:1026400075E040E850E00E941F2785E58093CE05A5
:1026500019861C861D861E861F86188A198A1A8A64
:102660001B8A1C8A1D8A1E8A1F8A188E198E1A8E32
:102670001B8E1C8E1D8E1E8E1F8E18A219A21AA2D2
:102680001BA281E0888792E09A878B87C8010E940D
:10269000171DA3960FB6F894DEBF0FBECDBFCF9126
:1026A000DF911F910F910895CF92DF92FF920F93C8
:1026B0001F93DF93CF9300D0CDB7DEB713E7C12EC2
:1026C00016E0D12E90E0F601F080FF2DFF3FB1F033
:1026D00003E716E020E0921761F0F8018081F81618
:1026E00041F485E06F2D29839A830E9484169A8194
:1026F00029812F5F0E5D1F4F253069F79F5F22E212
:1027000030E0C20ED31E9530F1F60E94C91B992706
:1027100087FD9095FC01EE0FFF1FA5E0880F991F24
:10272000AA95E1F7E80FF91FE559F94F82858093E3
:102730003A07F0933907E0933807F0932A07E093BC
:10274000290780932B070E9455270E9445270E9446
:10275000A232FFCFEF92FF920F931F93CF93DF939D
:10276000EC017B018A018985823021F08091260766
:10277000888301C0188280912607853020F087E089
:1027800060E00E9484168985823029F080912607B6
:102790008F5F8093260780912607882319F481E0B4
:1027A000809326078881992787FD9095FC01EE0F7D
:1027B000FF1F75E0880F991F7A95E1F7E80FF91F61
:1027C000E559F94FF182E0828885828788819927CF
:1027D00087FD9095FC01EE0FFF1F55E0880F991FB4
:1027E0005A95E1F7E80FF91FE559F94F83E0818722
:1027F0002881822F992787FD9095FC01EE0FFF1FFE
:1028000035E0880F991F3A95E1F7E80FF91FE55970
:10281000F94F20878881992787FD90957C01EE0CE0
:10282000FF1CB5E0880F991FBA95E1F7E80EF91E75
:102830008BE696E0E80EF91EF7011582CE010B96A5
:102840000E94E420F701948F838F8B859C85AD8552
:10285000BE858E339105A105B10520F086E1688122
:102860000E948416E880FF24E7FCF094CE014B968A
:102870000E94E420F701EE0FFF1F75E0EE0CFF1C35
:102880007A95E1F7EE0DFF1DE559F94F968B858B93
:102890008881992787FD90957C01EE0CFF1C55E0FF
:1028A000880F991F5A95E1F7E80EF91E8BE696E01E
:1028B000E80EF91EF70185899689238D348D820FE4
:1028C000931F908F878BCE0143960E94E420F701DF
:1028D000968F858F8881992787FD9095FC01EE0F53
:1028E000FF1F35E0880F991F3A95E1F7E80FF91FB0
:1028F000E559F94F858D968D928F818F81E090E01B
:1029000090A3878F1383028381E08487888199272E
:1029100087FD9095FC01EE0FFF1F05E0880F991FC2
:102920000A95E1F7E80FF91FE559F94F898581A369
:1029300081E0DF91CF911F910F91FF90EF9008956B
:102940000E944E22089585E690E00895E0913807B0
:10295000F091390784870895E0913807F09139079D
:10296000848508952091AA05222341F0FB0120834C
:1029700020917D04FC01208381E0089580E008958A
:10298000DF93CF930F92CDB7DEB7198207C080EDEA
:1029900097E00E94E62489818F5F8983898184364C
:1029A000B0F30F90CF91DF91089581E090E00E9405
:1029B00074110E94C01481E090E00E943D110E94B9
:1029C000C014089581E090E00E9474110E94C01428
:1029D0000E94C0140E94C01481E090E00E943D114A
:1029E0000E94C0140895FF920F931F93DF93CF931B
:1029F00000D00F92CDB7DEB700D000D000D0EDB739
:102A0000FEB731968E010F5F1F4FADB7BEB712965E
:102A10001C930E9311972EEB31E033832283848332
:102A200015820E94E042EDB7FEB736960FB6F894D5
:102A3000FEBF0FBEEDBFFF2472C0800F911FDC01EF
:102A40008C918433D1F1853370F48133F9F0823382
:102A500020F4803309F05CC016C0823311F1833357
:102A600009F056C023C08733C9F1883330F4853369
:102A700069F1863309F04CC02CC08833B1F1893339
:102A800009F046C03BC00E94E21402C00E94D51467
:102A90000E94E2140E94E2140E94E2140E94E214D6
:102AA00037C00E94D5140E94D514F4CF0E94D514CB
:102AB0000E94D5140E94D514EFCF0E94D5140E9415
:102AC000D5140E94D5140E94D514E8CF0E94D514C5
:102AD00002C00E94E2140E94D51404C00E94E214B5
:102AE0000E94E2140E94D51406C00E94E2140E94C3
:102AF000E2140E94E2140E94D51408C00E94E2145D
:102B00000E94E2140E94E2140E94E2140E94D51472
:102B10000E94C0140E94C0140E94C014F394F801D3
:102B200001900020E9F73197E01BF10B8F2D90E029
:102B30008E179F0708F481CF0F900F900F90CF91C1
:102B4000DF911F910F91FF9008950F931F93CF93E3
:102B5000DF938091AA05882329F4DF91CF911F91FB
:102B60000F9108950E9487120E9487120E94871277
:102B7000CEEBD1E086E693E00E946F0F00D000D04C
:102B8000EDB7FEB73196ADB7BEB71296DC93CE93D4
:102B9000119780917D04828313820E9497420F9047
:102BA0000F900F900F9082E693E00E946F0F80913C
:102BB000AA05883110F01092AA058091AA0590E02C
:102BC00001978631910508F04BC08A5B9F4FFC014D
:102BD000EE0FFF1F0590F491E02D099486E293E03B
:102BE00041C08FEF92E03EC08BEE92E03BC085ED9E
:102BF00092E038C08AEB92E035C084EA92E032C0BD
:102C00008CE892E02FC089E792E02CC086E692E043
:102C100029C088E492E026C083E292E023C087E1E5
:102C200092E020C08CEF91E01DC08DEE91E01AC0C3
:102C300089ED91E017C088EC91E014C084EB91E03D
:102C400011C084E991E00EC08CE791E00BC081E6F1
:102C500091E008C080E591E005C081E491E002C008
:102C60008AE391E00E946F0F6091690770916A0793
:102C70008DE090E00E946B426091690770916A0755
:102C80008AE090E00E946B4214E182E090E00E94B2
:102C9000741183E090E00E943D1104E688EE93E019
:102CA0000E94E6240150D1F783E090E00E94741165
:102CB00082E090E00E943D1104E688EE93E00E94DD
:102CC000E6240150D1F7115001F782E090E00E9414
:102CD0003D1183E090E00E943D1180917D040E94AF
:102CE000F3140E94C01482E090E00E9474110E94CC
:102CF000C01482E090E00E943D110E94C0148091B7
:102D0000AA050E94F31436CFEF92FF920F931F9300
:102D1000182FE62E8093AA0560937D040E94A515C6
:102D200000E021C082E090E00E94741183E090E016
:102D30000E943D1194E6F92E88EE93E00E94E6246D
:102D4000FA94D1F783E090E00E94741182E090E061
:102D50000E943D1184E6F82E88EE93E00E94E6245E
:102D6000FA94D1F70F5F0431E8F283E090E00E941B
:102D70003D1182E090E00E943D118E2D0E94F314DF
:102D8000812F0E94F31400E0CDCF8093AA05E0913B
:102D90003807F0913907808580937D040E94A5153E
:102DA00008956F927F928F929F92AF92BF92CF922F
:102DB000DF92EF92FF920F931F93CF93DF9382E7FF
:102DC00093E00E946F0F00D000D081EC91E0ADB78E
:102DD000BEB712969C938E931197E0913807F091AD
:102DE00039078085992787FD909514969C938E933B
:102DF00013970E949742E0913807F0913907C281FA
:102E0000D3818AEC91E0EDB7FEB792838183D483BE
:102E1000C3830E949742EDB7FEB73196A7EDEA2E25
:102E2000A1E0FA2EADB7BEB71296FC92EE921197C2
:102E30008881828313820E949742E4EECE2EE1E0E5
:102E4000DE2EEDB7FEB7D282C182E0913807F09155
:102E5000390780819181ADB7BEB714969C938E934C
:102E600013970E9497427EEEA72E71E0B72EEDB722
:102E7000FEB7B282A182809138079091390794837E
:102E800083830E9497420BE616E00F900F900F90FD
:102E90000F90C0E0D0E06EEF662E61E0762E470125
:102EA000C601DC2CC92EC501BA2CA92ED801129658
:102EB000ED90FC90139700D000D000D0EDB7FEB796
:102EC0003196ADB7BEB712967C926E921197D383AE
:102ED000C283F582E4820E9497420F900F90EDB773
:102EE000FEB73196ADB7BEB711968C921197129678
:102EF0009C92D7018C91828313820E949742EDB7F6
:102F0000FEB7D182C282D8018D919C919483838334
:102F10000E949742EDB7FEB7B182A282CE01880F20
:102F2000991F9E0145E0220F331F4A95E1F7820F5A
:102F3000931F8559994F948383830E9497422196CA
:102F40000E5D1F4F0F900F900F900F90C530D10561
:102F500009F0ACCFDF91CF911F910F91FF90EF90CF
:102F6000DF90CF90BF90AF909F908F907F906F90A9
:102F70000895CF93DF93E0913807F0913907C2812C
:102F8000D3818881853539F00E94D11681E00E9475
:102F9000C51685E58883E0913807F091390780816F
:102FA000918121E18030920728F00E94D11682E1C0
:102FB0000E94C516DF91CF910895992787FD9095BE
:102FC000FC01EE0FFF1FB5E0880F991FBA95E1F7DE
:102FD000E80FF91FE559F94FA281B3818C9185352E
:102FE00019F085E58C9309C08081918121E18030C1
:102FF000920728F082E10E94C5168FEF089581E0C4
:103000000895609122057091230580912405909187
:103010002505E0E0F0E09B01AC010E2E04C05695C2
:103020004795379527950A94D2F720FD1AC021E0DD
:1030300030E040E050E00E2E04C0220F331F441F4A
:10304000551F0A94D2F7262B372B482B592B209348
:1030500022053093230540932405509325058E2F98
:1030600008953196E032F105B1F68FEF0895E091C1
:103070003807F091390765857685878590890895A9
:10308000DF92EF92FF920F931F93D82E81E0E82EEC
:10309000F12C012D112D0D2C04C0EE0CFF1C001F76
:1030A000111F0A94D2F78091220590912305A091D7
:1030B0002405B09125058E219F21A023B1230097DF
:1030C000A105B10509F45DC00E948712E2E7F6E0B0
:1030D000A8019701209530954095509563E0818136
:1030E0008F3F39F186819781A085B1858E159F0527
:1030F000A007B10731F41286138614861586108254
:10310000628386819781A085B18582239323A4233E
:10311000B52386839783A087B18782859385A4850D
:10312000B58582239323A423B52382879387A4871D
:10313000B587B29687E0EC31F80789F62EEF3FEFBE
:103140004FEF5FEF04C0220F331F441F551FDA9467
:10315000D2F78091220590912305A0912405B0918A
:10316000250582239323A423B523809322059093DE
:103170002305A0932405B09325050E94891281E0C0
:1031800001C08FEF1F910F91FF90EF90DF90089596
:10319000EF92FF920F931F9321E030E040E050E068
:1031A00004C0220F331F441F551F8A95D2F7E091A8
:1031B0003807F091390785859685A785B08979010B
:1031C0008A01E822F9220A231B23E114F1040105F4
:1031D0001105D1F020953095409550958223932389
:1031E000A423B52385879687A787B08B8189928989
:1031F000A389B48982239323A423B523818B928B43
:10320000A38BB48B81E001C08FEF1F910F91FF90D2
:10321000EF900895209122053091230540912405D7
:1032200050912505082E04C056954795379527954A
:103230000A94D2F72170307021153105E9F0E09140
:103240003807F091390721E030E040E050E004C059
:10325000220F331F441F551F8A95D2F78585968507
:10326000A785B089822B932BA42BB52B85879687B6
:10327000A787B08B81E008958FEF0895EF92FF92BA
:103280000F931F93DF93CF930F92CDB7DEB791E0EB
:10329000E92EF12C012D112D04C0EE0CFF1C001F96
:1032A000111F8A95D2F78091220590912305A09154
:1032B0002405B09125058E219F21A023B1230097DD
:1032C000A105B10511F481E03FC00E948712E2E739
:1032D000F6E020E033E080818130A9F48285938597
:1032E000A485B5858E219F21A023B1230097A10538
:1032F000B10549F03283178616861082E286F3867E
:103300000487158721E08081823091F4828593853E
:10331000A485B5858E159F05A007B10749F43283B2
:10332000178616861082128613861486158621E06B
:10333000B29687E0EC31F80771F629830E94891272
:103340002981222329F482E00E94A6148FEF01C074
:1033500081E00F90CF91DF911F910F91FF90EF903F
:103360000895E0913807F09139072585368547851E
:103370005089262337234823592321153105410538
:10338000510521F1618B728B838B948B21E0278314
:103390000090280704C096958795779567950A94BD
:1033A000D2F7617070706115710519F00E94091EE5
:1033B00004C080E090E00E94301EE0913807F09158
:1033C0003907218932894389548903C020E030E0DC
:1033D000A901B901CA010895909137079430D0F43A
:1033E000E7E1F7E020E030813F3F21F02F5F3396A7
:1033F0002530C9F730E0F901EE0FFF1FE20FF31F90
:10340000E95EF84F8283808361839F5F90933707E3
:103410009F0102C020E030E0C9010895BC0120E016
:1034200030E0822FA901440F551F420F531F495E00
:10343000584F6417750731F02F5F3F4F2530310526
:1034400081F78FEF08950E940E1A8F3F11F481E0EB
:1034500003C0853029F482E00E94A6148FEF0895FE
:10346000992787FD9095FC01EE0FFF1FE80FF91FCC
:10347000E95EF84F8FEF80838283818380913707E5
:1034800081508093370781E00895EF92FF920F9368
:103490001F93DF93CF930F92CDB7DEB70E940E1A22
:1034A000682F8F3F11F481E003C0853029F482E05A
:1034B0000E94A6148FEF8FC0082F112707FD1095CB
:1034C0007801EE0CFF1CE00EF11E87E197E0E80E9C
:1034D000F91ED70112969C9112978C9198170CF0B7
:1034E00079C069830E94871200D000D000D0EDB768
:1034F000FEB731968FE092E0ADB7BEB712969C93BF
:103500008E931197A0913807B091390718968C9136
:10351000992787FD909593838283158304830E9466
:103520009742F70182818F5F8283E0913807F091A3
:1035300039071482E8E1F7E08DB79EB706960FB61B
:10354000F8949EBF0FBE8DBF20E030E070E469812B
:10355000A901440F551F420F531F495E584F71F088
:10356000A0814A2F552747FD5095872F90E0481797
:10357000590724F48181882309F47A2F2F5F3F4F64
:1035800033962530310521F770932707E2E7F6E0FF
:10359000862F992787FD9095A92FB92F63E0208169
:1035A000223089F4228533854485558528173907CB
:1035B0004A075B0741F462831786168610821286DB
:1035C000138614861586B29627E0EC31F20739F798
:1035D0000E94891281E00F90CF91DF911F910F918E
:1035E000FF90EF9008950F931F93DF93CF930F9267
:1035F000CDB7DEB70E940E1A8F3F11F481E003C0F1
:10360000853029F482E00E94A6148FEFA3C089833D
:103610000E9487128981082F112707FD1095F80154
:10362000EE0FFF1FE00FF11FE95EF84F92811916B0
:10363000B4F0E0913807F091390797819260978351
:10364000992787FD9095A92FB92F818B928BA38BFA
:10365000B48B0E94891280E090E00E94301E00D05E
:1036600000D000D0EDB7FEB731968EE292E0ADB754
:10367000BEB712969C938E931197A0913807B09184
:10368000390718968C91992787FD909593838283AB
:10369000158304830E949742F801EE0FFF1FE00F8D
:1036A000F11FE95EF84F828181508283E8E1F7E003
:1036B0008DB79EB706960FB6F8949EBF0FBE8DBF0E
:1036C00080E090E060E49C01220F331F280F391F37
:1036D000295E384F71F07081472F552747FD50956F
:1036E000262F30E04217530724F42181222309F4C6
:1036F000672F019633968530910529F76093270748
:1037000000D000D0EDB7FEB731968AE492E0ADB7B5
:10371000BEB712969C938E931197628313820E9478
:103720009742A0913807B0913907F801EE0FFF1FBB
:10373000E00FF11FE95EF84F81811B968C931B9778
:1037400081E014968C930F900F900F900F900E9431
:10375000891281E00F90CF91DF911F910F91089511
:103760000E940E1A8F3F11F481E003C0853029F4C6
:1037700082E00E94A6148FEF0895992787FD909507
:10378000FC01EE0FFF1FE80FF91FE95EF84F828181
:103790000895E0912D07F0912E07808108950F93F1
:1037A0001F93CF93DF93C0912D07D0912E0784E80C
:1037B00093E00E946F0F0DE512E01FC000D000D013
:1037C000EDB7FEB712830183288130E0C901880F6D
:1037D000991F45E0220F331F4A95E1F7820F931F8F
:1037E0008E57994F948383830E9497420B80DC818C
:1037F000C02D0F900F900F900F902097F9F681E851
:1038000093E00E946F0FDF91CF911F910F91089568
:10381000BF92CF92DF92EF92FF920F931F93CF93BD
:10382000DF93B82EC0916906D0916A06209709F4FB
:10383000A4C000912D0710912E070115110509F460
:1038400053C0992787FD90959C01220F331F45E0B7
:10385000880F991F4A95E1F7280F391F2559394FCD
:1038600097E1E92EF12CE20EF31E8AE0C82ED12C4E
:10387000C20ED31E81E692E00E94A942D8014C916B
:10388000442391F1842F90E0FC01EE0FFF1FA5E08F
:10389000880F991FAA95E1F7E80FF91FE559F94F2D
:1038A0002789308DF7018081918182179307E0F09D
:1038B0002817390799F4842F90E0FC01EE0FFF1FC1
:1038C00065E0880F991F6A95E1F7E80FF91FE55940
:1038D000F94F9285D6018C91981730F0F801038149
:1038E00014810115110531F6B882E0916906F09155
:1038F0006A060380F481E02DF0936A06E09369067E
:1039000080912D0790912E0708171907C1F4011512
:10391000110551F01C830B831A821982D80112966B
:10392000DC93CE93119706C01C821B821A821982E7
:10393000D283C183D0932E07C0932D071EC0D80118
:1039400011968D919C9112970E171F0779F09A830B
:1039500089831C830B831196ED91FC911297D4837C
:10396000C3831296DC93CE93119707C01C821B82EF
:103970009A838983F801D283C183DF91CF911F910C
:103980000F91FF90EF90DF90CF90BF900895CF936D
:10399000DF93E0912D07F0912E07309709F444C092
:1039A000992787FD9095208130E02817390781F409
:1039B000A381B481B0932E07A0932D0712961C9279
:1039C0001E92119718C00380F481E02D309761F1A9
:1039D000208130E028173907B1F7C181D281838176
:1039E00094819C838B83A381B481109721F01296DC
:1039F000DC93CE931197A0916906B0916A06109757
:103A000039F4F0936A06E0936906148213820AC0BF
:103A1000B483A3831296FC93EE931197F0936A06F6
:103A2000E093690612821182DF91CF910895EF929F
:103A3000FF920F931F93CF93DF93EC0169817A81FB
:103A40004B815C818D819E810E94F426BC018F8117
:103A5000882369F04B815C81CE0120E030E000E0FA
:103A600010E0EE24FF240E94AA131F8215C0888153
:103A7000992787FD9095FC01EE0FFF1FA5E0880FA9
:103A8000991FAA95E1F7E80FF91FE559F94F8185CC
:103A90008330E1F4718360838881992787FD909555
:103AA000FC01EE0FFF1F65E0880F991F6A95E1F793
:103AB000E80FF91FE559F94F85899689009741F478
:103AC00082E0818788810E94081C02C08FEF01C0BC
:103AD00081E0DF91CF911F910F91FF90EF900895BA
:103AE0001F93DF93CF93CDB7DEB728970FB6F89427
:103AF000DEBF0FBECDBF29833A834B835C836D83CA
:103B00007E838F8398870E9487120E947D25182FBD
:103B1000CE0101960E94E4209C018330910560F063
:103B2000E0913807F0913907210F311D368B258B35
:103B30000E94891281E001C08FEF28960FB6F89499
:103B4000DEBF0FBECDBFCF91DF911F9108950E94C0
:103B5000E926E0913807F091390785818823B9F784
:103B60000895FF920F931F93DF93CF93CDB7DEB7E6
:103B700028970FB6F894DEBF0FBECDBF29833A83D6
:103B80004B835C836D837E838F8398870E94B917F4
:103B90000E948712E0913807F091390781E0858310
:103BA00081E090E090A3878F0E947D25F82ECE01C2
:103BB00001960E94E420E0913807F09139070F2D1B
:103BC00010E09801280F391F368B258B8F2D883FE9
:103BD00078F40E9477250F5F1F4F282F30E00217DF
:103BE000130734F48F2D8E5F8093A9050E947A25E8
:103BF0000E9489120E94A71D81E028960FB6F894B2
:103C0000DEBF0FBECDBFCF91DF911F910F91FF900F
:103C100008951F930E948712E0913807F0913907A9
:103C200081E0858386830E947D25182F883F88F454
:103C30000E947725212F30E02F5F3F4F482F50E023
:103C40002417350734F4812F8E5F8093A9050E94D5
:103C50007A250E9489120E94A71D81E01F91089574
:103C60001F93CF93DF93EC010E948712E0913807F6
:103C7000F091390781E08583D68BC58B0E947D2525
:103C8000182F883F88F40E947725212F30E02F5F7E
:103C90003F4F482F50E02417350734F4812F8E5FB3
:103CA0008093A9050E947A250E9489120E94A71D6F
:103CB00081E0DF91CF911F910895EF92FF920F93D2
:103CC0001F93DF93CF930F92CDB7DEB78C010E9485
:103CD0008712E0913807F091390781E085830E94CF
:103CE0007D25E0913807F0913907E82EFF240E0D6D
:103CF0001F1D168B058B883F90F489830E947725C2
:103D00000894E11CF11C282F30E09981E216F3069B
:103D100034F4892F8E5F8093A9050E947A250E9432
:103D200089120E94A71D81E00F90CF91DF911F9112
:103D30000F91FF90EF9008951F93CF93DF93EC01C5
:103D40000E94B917209711F4C1E0D0E00E948712B9
:103D5000E0913807F091390781E08583D0A3C78FC0
:103D60000E947D25182F883F88F40E947725212FF7
:103D700030E02F5F3F4F482F50E02417350734F4D1
:103D8000812F8E5F8093A9050E947A250E94891257
:103D90000E94A71D81E0DF91CF911F9108951F938D
:103DA0000E94B9170E948712E0913807F0913907F5
:103DB00081E090E090A3878F81E085830E947D253C
:103DC000182F883F88F40E947725212F30E02F5F3D
:103DD0003F4F482F50E02417350734F4812F8E5F72
:103DE0008093A9050E947A250E9489120E94A71D2E
:103DF00081E01F910895E0913807F091390780859F
:103E00000E94C71CE0913807F091390784E0818750
:103E10000E94CF1E81E008958F929F92AF92BF9231
:103E2000CF92DF92EF92FF920F931F93DF93CF9386
:103E3000CDB7DEB760970FB6F894DEBF0FBECDBF2B
:103E400029873A874B875C876D877E878F87988B1A
:103E5000CE0101960E94681FCE01099609851A8538
:103E60002B853C854D855E856F85788989809A8014
:103E7000AB80BC80CD80DE80EF80F8840E94C61FBE
:103E80008F3F61F029853A854B855C856D857E8500
:103E90008F8598890E94B11D81E001C08FEF6096E7
:103EA0000FB6F894DEBF0FBECDBFCF91DF911F914B
:103EB0000F91FF90EF90DF90CF90BF90AF909F90C9
:103EC0008F900895E0913807F09139078085089523
:103ED000EF92FF920F931F93CF93DF93EC011C821D
:103EE0001D821E821F8280912F0790913007A09122
:103EF0003107B091320788839983AA83BB83E0900E
:103F00003307F09034070091350710913607EC82A3
:103F1000FD820E831F830E947D25682F70E080E064
:103F200090E023EB36EE4EE050E00E9449406E0DEB
:103F30007F1D801F911F6C837D838E839F8313C0A1
:103F400080509A4CAA49BB438C839D83AE83BF8328
:103F500088819981AA81BB810196A11DB11D8883A9
:103F60009983AA83BB838C819D81AE81BF81803080
:103F70002AEC92072AE9A2072BE3B20708F7DF91A0
:103F8000CF911F910F91FF90EF9008958F929F9284
:103F9000AF92BF92CF92DF92EF92FF920F931F9357
:103FA000DF93CF93CDB7DEB760970FB6F894DEBF3F
:103FB0000FBECDBFFC0109831A832B833C834D8345
:103FC0005E836F83788789869A86AB86BC86CD862A
:103FD000DE86EF86F88AE980FA800B811C812D81CC
:103FE0003E814F815885A984BA84CB84DC848D8539
:103FF0009E85AF85B889EA14FB040C051D0508F4FD
:1040000040C0AE14BF04C006D10691F4281739078A
:104010004A075B07B0F1281B390B4A0B5B0B248363
:10402000358346835783108211821282138227C000
:10403000281739074A075B0790F40894E108F1084C
:1040400001091109EA18FB080C091D09E082F18237
:1040500002831383205036434546544C08C0EA1867
:10406000FB080C091D09E082F18202831383281BDF
:10407000390B4A0B5B0B248335834683578381E0DE
:1040800001C08FEF60960FB6F894DEBF0FBECDBFB4
:10409000CF91DF911F910F91FF90EF90DF90CF9024
:1040A000BF90AF909F908F900895FC0114C0205056
:1040B0003A4C4A495B4324833583468357832081A6
:1040C0003181428153812F5F3F4F4F4F5F4F20839C
:1040D0003183428353832481358146815781203047
:1040E0008AEC38078AE948078BE3580700F70895F8
:1040F0008F929F92AF92BF92CF92DF92EF92FF92F8
:104100000F931F93DF93CF93CDB7DEB760970FB6B2
:10411000F894DEBF0FBECDBF09831A832B833C8387
:104120004D835E836F83788789869A86AB86BC864B
:10413000CD86DE86EF86F88A29853A854B855C85B3
:10414000E980FA800B811C812E0D3F1D401F511FFD
:10415000FC0120833183428353832D853E854F8527
:104160005889ED80FE800F8118852E0D3F1D401F60
:10417000511F24833583468357830E94552081E055
:1041800060960FB6F894DEBF0FBECDBFCF91DF9122
:104190001F910F91FF90EF90DF90CF90BF90AF9065
:1041A0009F908F90089560932F07709330078093AE
:1041B00031079093320720933307309334074093AD
:1041C00035075093360708958F929F92AF92BF9212
:1041D000CF92DF92EF92FF920F931F93FC01208109
:1041E0003181428153816481758186819781211556
:1041F00031054105510509F461C0223431054105FD
:10420000510508F062C05B016C01EE24FF248701B8
:1042100060E038C08A2CAB2DA653F1E0AB1508F056
:10422000F0E08C2D865691E08C1508F090E0F80FA8
:1042300071E0F81708F070E0972B7D2D755CE1E0D8
:104240007D1508F0E0E0970F81E0971708F080E017
:104250008E2B8E0DE1E08E1508F0E0E0EF0D71E0A1
:10426000EF1508F070E0700FB1E0701708F0B0E0E3
:10427000B10FA82CBA2ECF2ED92EE82EFE2E072F46
:104280001B2F6F5F862F90E0A0E0B0E082179307AE
:10429000A407B50708F4BECF9501A601B701C80170
:1042A000A3EBAA2EF6EEBF2EEEE0CE2EDD24EE24FA
:1042B000FF2400E010E00E94CD3209C023EB36EE6F
:1042C0004EE050E00E947C4002C020E030E0C90196
:1042D0001F910F91FF90EF90DF90CF90BF90AF9024
:1042E0009F908F900895EF92FF920F931F93DF930B
:1042F000CF93CDB7DEB728970FB6F894DEBF0FBEC9
:10430000CDBF7B018C01BAE016950795F794E79431
:10431000BA95D1F7E982FA820B831C83737080709F
:10432000907023EB36EE4EE050E00E9449406D83E2
:104330007E838F8398872E2D3A814B815C812896CE
:104340000FB6F894DEBF0FBECDBFCF91DF911F91A6
:104350000F91FF90EF9008958F929F92AF92BF922E
:10436000CF92DF92EF92FF920F931F93FC01208177
:1043700031814281538164817581868197812115C4
:1043800031054105510509F45BC05B016C01EE2468
:10439000FF24870160E038C08A2CAB2DA653F1E0E2
:1043A000AB1508F0F0E08C2D865691E08C1508F0E6
:1043B00090E0F80F71E0F81708F070E0972B7D2D72
:1043C000755CE1E07D1508F0E0E0970F81E097175C
:1043D00008F080E08E2B8E0DE1E08E1508F0E0E015
:1043E000EF0D71E0EF1508F070E0700FB1E070179D
:1043F00008F0B0E0B10FA82CBA2ECF2ED92EE82E9F
:10440000FE2E072F1B2F6F5F862F90E0A0E0B0E0FD
:1044100082179307A407B50708F4BECF9501A6013C
:10442000B701C801E3EBAE2E06EEB02E1EE0C12EA2
:10443000DD24EE24FF2400E010E00E94CD3206C00F
:1044400023EB36EE4EE050E00E947C40B901CA01F9
:104450001F910F91FF90EF90DF90CF90BF90AF90A2
:104460009F908F9008951F9311E00E94B9170E94AA
:104470007725853110F410932C070E94E92680914E
:10448000CE05853519F088E00E94C5168091A204FA
:10449000853559F388E00E94C516E7CF2F923F92E9
:1044A0004F925F926F927F928F929F92AF92BF9244
:1044B000CF92DF92EF92FF920F931F93DF93CF93F0
:1044C0000F92CDB7DEB70E9476250E9487120E9418
:1044D000F2240E94F8242C018AEF0E947A25609130
:1044E000A90570E080E090E023EB36EE4EE050E06E
:1044F0000E9449407B018C018091330790913407E1
:10450000A0913507B0913607E80EF91E0A1F1B1F50
:10451000C801B7010E947C40E61AF70A080B190B84
:1045200080912F0790913007A0913107B091320709
:10453000E3EBAE2EE6EEBE2EEEE0CE2ED12C14C076
:1045400080E096E3A5E6B4ECE80EF91E0A1F1B1FF7
:10455000C801B701A60195010E947C40E61AF70A3E
:10456000080B190BD401C3013C014D010894611CD7
:10457000711C811C911CE0E0EE16EAECFE06EAE9F3
:104580000E07EBE31E07E0F680932F0790933007AA
:10459000A0933107B0933207E0923307F0923407CB
:1045A0000093350710933607E0913807F0913907EB
:1045B00085818823B9F081858430A1F0878182309C
:1045C00029F0882341F08681882311F485E001C019
:1045D00083E0818704C083E081871782168280850B
:1045E0000E94C71CE0913807F0913907858D968DA0
:1045F000009709F48DC06085662309F489C0818520
:10460000843009F485C0218D328D8091A90590E018
:1046100028173907C8F582E00E948416E091380710
:10462000F091390781A1833061F58185833049F1AB
:104630008EE892E00E94A942E0913807F091390794
:10464000858D968D928F818F838D948D908F878BA2
:1046500000D000D082EA92E0ADB7BEB712969C932C
:104660008E9311978085992787FD909514969C933A
:104670008E9313970E9497420F900F900F900F9078
:1046800007C0128E118E04C0281B390B328F218F68
:10469000E0913807F09139070085218D328D211581
:1046A0003105B1F581A1813071F483E0602F0E9462
:1046B0008416E0913807F091390783E08187802FD5
:1046C0000E94C71C25C0833019F58185833001F114
:1046D00000D000D02CEB32E0EDB7FEB7328321835F
:1046E000802F992787FD9095948383830E9497421A
:1046F000E0913807F0913907858D968D928F818FE3
:10470000838D948D908F878B0F900F900F900F90CB
:1047100070E7272E76E0372E00E61AEE20E061E003
:10472000662E712C5AEFE52EF12C42E0942E31E0EA
:10473000A32EB12CC12CD12CD10113968C9113979F
:104740008F3F09F4C4C01C92882309F443C0149617
:104750008C9114978430F1F150964D915C91519762
:104760008091A90590E04817590738F0481B590B6C
:1047700051965C934E93509703C0F101118A108AB1
:10478000D10152964D915C9153974817590738F0D3
:10479000481B590B53965C934E93529712C0F101EC
:1047A000668977898617970728F4681B790B738BBE
:1047B000628B07C00E946840D10153969C938E93F0
:1047C0005297F10182899389009721F4868997890C
:1047D000938B828BD10114968C911497833009F0BE
:1047E00076C050968D919C915197009709F066C0C4
:1047F00012968C9112978823A9F011968C9111979B
:10480000882381F0D601C5010090280704C0880FD5
:10481000991FAA1FBB1F0A94D2F7F10184879587BD
:10482000A687B787D10112961C92129711961C92F7
:1048300011971C925A964D915C915B9756968D916B
:104840009C91579758966D917C915997413051059D
:10485000D9F455967C936E93549714969C92149722
:1048600052964D915C91539751965C934E9350970D
:10487000009721F45196FC92EE925097822F298353
:104880000E94081C29811AC0F101758B648BBA0142
:1048900061507040689FA001699F500D789F500D36
:1048A0001124518B408B538B428B009711F4F18A6A
:1048B000E08AD1015B967C926E925A97F1018089D1
:1048C0009189009721F08017910708F48C012F5FE0
:1048D00082E290E0280E391E253009F02DCF0E948B
:1048E000C91BE82E282F332727FD3095F901EE0F3D
:1048F000FF1F85E0220F331F8A95E1F7E20FF31FB8
:10490000E559F94F828580933A07F0932A07E0939F
:104910002907EE20B9F0258D368D2115310551F08E
:10492000218D328D2A3F310528F42017310708F4F4
:104930004BC00DC098010B3F110508F445C02AEF8C
:1049400030E042C00B3F110510F00AEF10E08093F9
:104950002B07F0933907E09338070093A9050E94CD
:104960007D25282F30E02F5F3F4F2017310740F083
:104970000E947D25082F10E00E5F1F4F0093A905B0
:10498000EE2011F010922C07802F0E947A25C20190
:104990006EEE72E00E9409250E943E270E94A2321C
:1049A0000F90CF91DF911F910F91FF90EF90DF90CB
:1049B000CF90BF90AF909F908F907F906F905F90BF
:1049C0004F903F902F9008958901C1CF00000000C3
:1049D000000000000197D1F708951EBC089581E002
:1049E0008EBD089580B5816080BD1DBC1CBC08953E
:1049F000DF93CF9300D0CDB7DEB78CB59DB59A834A
:104A0000898329813A81C9010F900F90CF91DF915D
:104A10000895EF92FF920F931F93CF93DF93EC01D2
:104A20008FEFC937D80710F0C0E0D0E07E0100E07A
:104A300010E080E090E0E60EF71E081F191F91E0DD
:104A4000E91690E0F90691E0090790E0190768F08F
:104A500080E090E0AFEFBFEFE80EF91E0A1F1B1FCA
:104A60000E94F824C817D907D8F30E94F8248E159D
:104A70009F05D8F3DF91CF911F910F91FF90EF9099
:104A8000089582BF089513BE87B78D7F87BF87B70C
:104A90008E7F87BF08958BE083BF87B7836087BF12
:104AA000089580B5826080BD12BE10927E0410927F
:104AB000A90508958EEF8093A90598E090BF81BF66
:104AC00083E086BF8BE083BF80B5876080BD1FBC5D
:104AD00081E08EBD1DBC1CBC80B5816080BD0E9484
:104AE00051250E944B2510927E040895089581B7A8
:104AF0008F5F0895815081BF089582B708951F92F6
:104B00000F920FB60F920BB60F9211242F933F9373
:104B10004F935F936F937F938F939F93AF93BF93C5
:104B2000EF93FF938AE060E00E948416FF91EF917B
:104B3000BF91AF919F918F917F916F915F914F91B5
:104B40003F912F910F900BBE0F900FBE0F901F90B3
:104B500018950F920FB60F921F922F923F924F927D
:104B60005F926F927F928F929F92AF92BF92CF92FD
:104B7000DF92EF92FF920F931F932F933F934F93E8
:104B80005F936F937F938F939F93AF93BF93CF93D5
:104B9000DF93EF93FF93A0913807B09139070DB6DB
:104BA0000D920EB60D921F92A091A605B091A70589
:104BB0001E90BEBFADBF0895882319F487B78F77C5
:104BC00087BF8FEF0895882319F414BC81E00895FE
:104BD0008FEF0895882319F424B530E002C020E057
:104BE00030E0C9010895882329F487B7806887BF1A
:104BF00081E008958FEF0895882359F5CB0101973F
:104C00008530910510F46093A80588E085BD43BD0B
:104C10003093FC032093FB038091A805813019F4A5
:104C200085B5816009C0823019F485B5826004C001
:104C3000833029F485B5836085BD81E00895843093
:104C400019F485B58460F8CF853029F485B5856081
:104C5000F3CF8FEF089581E008951F920F920FB662
:104C60000F920BB60F9211242F933F934F935F93A4
:104C70006F937F938F939F93AF93BF93EF93FF9324
:104C8000E091FB03F091FC03309711F0099504C00B
:104C90008AE060E00E948416FF91EF91BF91AF918E
:104CA0009F918F917F916F915F914F913F912F9144
:104CB0000F900BBE0F900FBE0F901F90189504B66B
:104CC00003FC02C080E001C080E104B602FE06C021
:104CD00094B79B7F94BF04B600FE846004B601FEC7
:104CE00005C094B79D7F94BF82600895882359F4CE
:104CF00004B600FE04C094B79E7F94BF01C081E05B
:104D000093B79111816008958FEF08958FEF089503
:104D10008FEF08951F920F920FB60F920BB60F925E
:104D200011242F933F934F935F936F937F938F93B0
:104D30009F93AF93BF93EF93FF938AE060E00E944D
:104D40008416FF91EF91BF91AF919F918F917F91C9
:104D50006F915F914F913F912F910F900BBE0F90EC
:104D60000FBE0F901F9018950E948712A89584B7C8
:104D7000877F84BF81B5886181BD11BC0E94891283
:104D800008950E94871284B7877F84BFA89581B554
:104D9000886181BD8FE081BD0E948912089504B6AB
:104DA00003FC02C081E008958FEF0895A89508954F
:104DB0000895FC0176836583089585B7837E8861B5
:104DC00085BF85B7806285BF889585B78F7D85BF94
:104DD000089585B7837E85BF85B7806285BF889536
:104DE00085B78F7D85BF089525E5FA012083FB01F6
:104DF000329790838183129212921292129212929F
:104E00001292129212921292129212921292129282
:104E10001292129212921292129212921292129272
:104E20001292129212921292129212921292129262
:104E300012921292129212921292CF010895EF9250
:104E4000FF920F931F93CF93DF93EC018B017A01B5
:104E50004032510518F481E10E94C5160894E1081A
:104E6000F108E00EF11EFA82E9821C830B83DF91C8
:104E7000CF911F910F91FF90EF90089580EA94E1F8
:104E80009093210580932205089585E58093A204DF
:104E900081E295E09093A7058093A60580EA94E1CE
:104EA000909321058093220508950E945A250E941F
:104EB000891208950E94B02708951F93DF93CF931E
:104EC0000F92CDB7DEB7142F83708C6269830E9476
:104ED0001B286981613011F480E001C080E80E94E4
:104EE000E327812F0E94E3270E94D7270F90CF91BD
:104EF000DF911F910895DF93CF9300D0CDB7DEB738
:104F000080E487B986E086B9379A369A3699FECF1B
:104F100084B195B19A8389830F900F90CF91DF91DF
:104F200008953798089597B18F71907E892B87B92E
:104F3000369A3699FECF24B135B1C90108958EE174
:104F40000E949327BC0180E090E00E94CB3D9B0132
:104F5000AC0164EA70E78DE994E40E94373D08955E
:104F6000E1E7F0E08081808381E08093700084E05D
:104F70008093740008958091740087FFFCCF08959A
:104F8000E4E7F0E08081806880830895CF93DF9329
:104F9000C4E7D0E08881806288830E94C0270E9495
:104FA000BB2788818F7D8883DF91CF910895809181
:104FB00074008061809374000E94C0278091740007
:104FC00084FDFCCF0895809373000E94C0270E9447
:104FD000BB2780917100887F883241F090917100E9
:104FE000987F81E0983119F480E0089580E0089579
:104FF000009721F080917400806403C08091740058
:105000008F7B809374000E94C0270E94BB278091F1
:1050100073000895DF93CF930F92CDB7DEB78983E6
:105020000E94C6278981880F81600E94E3270F9024
:10503000CF91DF910895DF93CF930F92CDB7DEB775
:1050400089830E94C6278981880F0E94E3270F90D9
:10505000CF91DF9108950E947B2781E08093EC033C
:1050600008958091EC03882311F40E942B280E945C
:1050700091270895DF93CF930F92CDB7DEB790912C
:10508000EC03992321F489830E942B288981A89815
:10509000A098813019F41D9A159A02C01D98159890
:1050A0000F90CF91DF910895DF93CF930F92CDB7FB
:1050B000DEB79091EC03992321F489830E942B2879
:1050C00089811D981598813019F4A89AA09A02C078
:1050D000A898A0980F90CF91DF9108958091EC034C
:1050E000882311F40E942B2881E00E943A2881E055
:1050F0000E94932708958091EC03882311F40E9465
:105100002B2881E00E94542881E00E949327089573
:10511000AF92BF92CF92DF92EF92FF920F931F93C5
:105120000E947B28BC0180E090E00E94CB3D8B0177
:105130007C0160E070EC8FE794E4202F312F4E2D3E
:105140005F2D0E94D23C20E030E44CE156E40E9406
:10515000A23E202F312F4E2D5F2D0E94373D0E9401
:10516000623E7B018C0120E030E040E450E40E948C
:10517000053FD62EC72EB82EA92EC801B70129E7A4
:1051800033EE4DE759E30E94A23E28EC32E644E8B4
:105190005AE30E94D33C7B018C01A6019501652F47
:1051A000742F832F922F2DE234EC4CE154E30E94B4
:1051B000A23E9B01AC01C801B7010E94D33C9B01F8
:1051C000AC0160E070E080E89FE30E94373D1F91F2
:1051D0000F91FF90EF90DF90CF90BF90AF90089528
:1051E0000E94882823E333E948E853E40E94D23C34
:1051F00008950E947B270E945A2781E08093ED0347
:1052000008958091ED03882311F40E94F9280E94EB
:1052100091270895DF93CF930F92CDB7DEB790918A
:10522000ED03992321F489830E94F9288981813033
:1052300011F4AC9A01C0AC980F90CF91DF91089512
:10524000DF93CF930F92CDB7DEB79091ED03992303
:1052500021F489830E94F9288981813011F4AD9A63
:1052600001C0AD980F90CF91DF9108951F93182F33
:105270008091ED03882311F40E94F92880E00E94B8
:105280004A29113019F4A89AA09A02C0A898A098A7
:105290001F9108951F93182F8091ED03882311F417
:1052A0000E94F92880E00E943629113019F41D9AD5
:1052B000159A02C01D9815981F910895DF93CF93FA
:1052C0000F92CDB7DEB79091ED03992321F4898336
:1052D0000E94F9288981813011F4AA9A01C0AA9804
:1052E0000F90CF91DF910895DF93CF930F92CDB7B9
:1052F000DEB79091ED03992321F489830E94F92868
:105300008981813011F4AB9A01C0AB980F90CF9195
:10531000DF910895DF93CF930F92CDB7DEB7482F7B
:105320008091ED03882321F449830E94F928498163
:1053300080E061E00E945D270F90CF91DF9108959A
:10534000DF93CF930F92CDB7DEB7482F8091ED0357
:10535000882321F449830E94F928498180E062E092
:105360000E945D270F90CF91DF910895DF93CF9337
:105370000F92CDB7DEB7482F8091ED03882321F43B
:1053800049830E94F928498181E061E00E945D27FC
:105390000F90CF91DF910895DF93CF930F92CDB708
:1053A000DEB79091ED03992321F489830E94F928B7
:1053B0008981882311F4AE9A03C0813009F4AE9834
:1053C0000F90CF91DF9108958091ED03882311F420
:1053D0000E94F92881E00E944A2981E00E949327D7
:1053E00008958091ED03882311F40E94F92881E04B
:1053F0000E94362981E00E94932708958091ED0351
:10540000882311F40E94F92882E00E9493270895CE
:105410008091ED03882311F40E94F92883E00E9413
:10542000932708958091ED03882311F40E94F928B1
:1054300084E00E94932708958091ED03882311F45E
:105440000E94F92885E00E94932708958091ED033A
:10545000882311F40E94F92886E00E94932708957A
:1054600089E993E00197F1F700C0DC98D49A89E9C3
:1054700093E00197F1F700C0D498DC9ACC9BFECF63
:1054800080E007C091E39A95F1F700008F5F8F31BC
:1054900049F0CC99F7CF89E993E00197F1F700C083
:1054A00080E008958FEF0895882361F4DC98D49A02
:1054B00084EC8A95F1F700C0D498DC9A81E38A9550
:1054C000F1F70BC0DC98D49A88E18A95F1F700C017
:1054D000D498DC9A8DED8A95F1F700000895DC9858
:1054E000D49A82E08A95F1F700C0D498DC9A96E1CC
:1054F0009A95F1F7000089B394EC9A95F1F700C002
:1055000090E08071907024E0959587952A95E1F759
:105510000895FF920F931F93CF93DF93F82EC0E06F
:10552000D0E001E010E098010C2E02C0220F331FE2
:105530000A94E2F78F2D82230E94542A2196C830C4
:10554000D10589F7DF91CF911F910F91FF900895B9
:105550001F93CF93DF93C0E0D0E010E00E946F2A4A
:10556000282F30E00C2E02C0220F331F0A94E2F7DE
:10557000122B2196C830D10589F7812FDF91CF9169
:105580001F9108958FE00E94892A089580B58B7F2E
:1055900080BDD498DC9A86EF8A95F1F70895EF9252
:1055A000FF920F931F93DF93CF9300D000D0CDB71E
:1055B000DEB77C0119821A821B821C820E94302A6B
:1055C000882339F0282F332727FD3095432F532F79
:1055D00027C00E94C22A0E94A82A813019F08EEFAB
:1055E000F70180838E010F5F1F4F0E94A82A8983D5
:1055F0000E94A82AF80181830E94A82AF8018283C8
:105600000E94A82AF80183830E94A82A0E94A82A3F
:105610000E94A82AF701108229813A814B815C817E
:10562000B901CA010F900F900F900F90CF91DF91A9
:105630001F910F91FF90EF900895AA98959887FF7A
:1056400002C0939A01C09398959A959886FF02C0DC
:10565000939A01C09398959A959885FF02C0939A62
:1056600001C09398959A959884FF02C0939A01C0BF
:105670009398959A959883FF02C0939A01C0939846
:10568000959A959882FF02C0939A01C09398959A33
:10569000959881FF02C0939A01C09398959A959826
:1056A00080FF02C0939A01C09398959A959AAA9AFE
:1056B0000895DF93CF9300D00F92CDB7DEB7A89AAD
:1056C00019821FC0A898898180550E941D2B80E1F6
:1056D0000E941D2B80E00E941D2BA89A1B821A821B
:1056E00008C080E00E941D2B8A819B8101969B83CC
:1056F0008A838A819B81803891059CF389818F5FA1
:10570000898389818830F0F20F900F900F90CF91AC
:10571000DF910895C498BC9A85B3876085BB84B334
:10572000876084BB81B3886281BB939A88E785BB1D
:1057300084B3877884BBA898A9988FEF9FE3A2E0F1
:1057400081509040A040E1F700C00000A99A8FEF7F
:105750009FE3A2E081509040A040E1F700C000002C
:1057600080E40E941D2B81EA0E941D2B80EC0E9488
:105770001D2B86EA0E941D2B82EA0E941D2B8FE2C0
:105780000E941D2B88EF0E941D2B80E00E941D2B84
:1057900087E20E941D2B81E80E941D2B80E10E9460
:1057A0001D2B8CEA0E941D2B80E00E941D2B8FEA8E
:1057B0000E941D2B0E94592B0895813011F4C49A28
:1057C0000895C4980895EF92FF920F931F93DF936B
:1057D000CF930F92CDB7DEB7082F162FA898842F3E
:1057E000805599830E941D2B812F82958F70806137
:1057F0000E941D2B812F8F700E941D2BA89A9981CA
:10580000602F792F7B011AC000E010E0D701EC91E6
:10581000B5E0EB9FF0011124E00FF11FE057FC4FC2
:1058200084910E941D2B0F5F1F4F0530110571F7EA
:1058300080E00E941D2B0894E11CF11CF70180817F
:10584000882311F70F90CF91DF911F910F91FF9057
:10585000EF9008956091690770916A0790E00E9447
:105860006B42089580E00E94610F882349F0809187
:105870006707909168070E942942282F30E002C0F4
:105880002FEF3FEFC9010895BF92CF92DF92EF92C1
:10589000FF920F931F93DF93CF9300D000D00F920E
:1058A000CDB7DEB7D82EB62E20EA36E841E050E07C
:1058B00029833A834B835C8381E19D830E942A2C58
:1058C0008B2D0E942A2C81E1C82ECB0C9D810D2DA1
:1058D000192F09C07801F80181918F010E942A2CAB
:1058E000F7018081C80E802F8D198B1598F38C2DB0
:1058F0000E942A2C0E94322C29813A814B815C81A2
:10590000215030404040504029833A834B835C8390
:10591000863051F089819A81AB81BC810097A105C5
:10592000B10541F78FEF01C080E00F900F900F900D
:105930000F900F90CF91DF911F910F91FF90EF90FB
:10594000DF90CF90BF900895CF92DF92EF92FF92B9
:105950000F931F93DF93CF9300D000D0CDB7DEB766
:10596000F82E092F20EA36E841E050E029833A83F7
:105970004B835C8382E10E942A2C81E00E942A2CC6
:1059800083E50E942A2C86E60E942A2C0E94322C53
:1059900029813A814B815C81215030404040504008
:1059A00029833A834B835C83863061F029813A8175
:1059B0004B815C81211531054105510539F7EE24F4
:1059C000E39401C0EE240E94322C2FEF8F3F920708
:1059D000D1F38131910559F50E94322CEFEF8F3FC1
:1059E0009E07D1F3D82E91E1C92ECD0C802F0F2D1B
:1059F000182F0AC00E94322CFFEF8F3F9F07D1F370
:105A0000F80181938F01C80E802F8F198D1590F3A7
:105A10000E94322CFFEF8F3F9F07D1F32C2D30E0F7
:105A20008217930721F4EE2011F48D2D01C08FEF22
:105A30000F900F900F900F90CF91DF911F910F91CA
:105A4000FF90EF90DF90CF900895CF92DF92EF928A
:105A5000FF920F931F93DF93CF9300D000D0CDB769
:105A6000DEB78C017B0180E492E4AFE0B0E0898393
:105A70009A83AB83BC8382E10E942A2C81E00E943E
:105A80002A2C89E40E942A2C8CE50E942A2C0E9450
:105A9000322C29813A814B815C8121503040404039
:105AA000504029833A834B835C83863059F0898147
:105AB0009A81AB81BC810097A105B10541F7DD2436
:105AC000D39401C0DD240E94322C2FEF8F3F920728
:105AD000D1F38231910551F50E94322CEFEF8F3FC7
