:100000000C94C9040C94F3260C94E8040C94E804B2
:100010000C94E8040C94E8040C94E8040C94E804B0
:100020000C94E8040C9496260C94E8040C94E804D0
:100030000C94E8040C94E8040C94E8040C94122644
:100040000C9412260C94E8040C94E8040C94E80434
:100050000C94E8040C94E8040C94E8040C94E80470
:100060000C94E8040C94E8040C94E8040C94E80460
:100070000C94E8040C94E8040C94E8040C94E80450
:100080000C94E8040C94E8040C94E8045D166316E0
:10009000661669166C166F167516721678167B162C
:1000A0007E1687168A168D16901684165A166016B6
:1000B000931696168116571608000000BE92244922
:1000C000123EABAAAA2ABECDCCCC4C3E000000808A
:1000D000BEABAAAAAA3E00000000BF000000803FFD
:1000E0000000000000084178D3BB4387D1133D19BD
:1000F0000E3CC3BD4282AD2B3E68EC8276BED98FEA
:10010000E1A93E4C80EFFFBE01C4FF7F3F0000002D
:10011000000007634236B79BD8A71A39685618AE55
:10012000BAAB558C1D3CB7CC5763BD6DEDFD753E2C
:10013000F6177231BF000000803F554E4B4F574EAF
:100140000045787465726E616C2052657365740049
:1001500042726F776E204F757420446574656374C6
:10016000004661696C656420746F20637265617418
:10017000652053656D6170686F7265004661696CDA
:10018000656420746F2063726561746520536967CC
:100190006E616C004B65726E656C2066756E637483
:1001A000696F6E206E6F7420696D706C656D656E21
:1001B0007465640044657669636520447269766598
:1001C00072204572726F72005761746368646F6762
:1001D00020526573746172740053572057617463C1
:1001E00068646F6720526573746172740054696D3E
:1001F0006572204F766572666C6F7700556E686128
:100200006E646C656420496E7465727275707420DA
:10021000566563746F72004C6F7720566F6C746113
:100220006765004578747261205461736B20737444
:1002300061727465642C206973206E726B5F6366F3
:10024000672E68206F6B3F0049646C65206F7220D9
:100250004B65726E656C20537461636B204F7665DD
:1002600072666C6F7700556E65787065637465644F
:100270002052657374617274004475706C696361B7
:10028000746564205461736B20494400536368654E
:1002900064756C6572204D69737365642057616B7A
:1002A000657570005461736B205265736572766575
:1002B0002056696F6C61746564005265736572766F
:1002C00065204572726F7220696E205363686564A1
:1002D000756C657200496E76616C69642053746157
:1002E000636B20506F696E746572005461736B208C
:1002F000537461636B204F766572666C6F77005341
:100300007461636B20776173206E6F74206465661F
:10031000696E6564206173206C6172676520656E2B
:100320006F75676821005461736B20706572696F27
:100330006420746F6F206C617267652E2050657247
:10034000696F64206D757374206265206C657373CA
:10035000207468616E203631207365636F6E64733C
:100360002E00293A20002A4E524B204552524F521D
:1003700028000D0A535441434B2044554D500D0A5B
:10038000000A0D006E726B5F71756575653A20002D
:1003900008082A1C08081C2A080840444A51404002
:1003A000514A444014741C171410207F01010000AE
:1003B0000000000000000000081C2C08087F01015C
:1003C0000101010101017F7F404040404040404029
:1003D0007F0000000000000000000000000000009E
:1003E00079112711790000000000000000000000D2
:1003F000000000007F01010103605048447E3E4937
:1004000049493E700C030C706349494963017F01FF
:100410007F01635549414106017E010608557F551C
:10042000080F107F100F4E7101714E38444438444C
:10043000000000000000005F000003000300001443
:100440003E143E1426497F493262152A5423364908
:100450005620500003000000001C224100004122F1
:100460001C0000140E140008083E0808006000007C
:10047000000808080800004000000060100804039D
:100480003E4141413E04027F000062514945422203
:10049000414949360C0B087E084F494949313E49CC
:1004A0004949326111090503364949493626494906
:1004B000493E0022000000006100000008141422E0
:1004C00022141414141422221414080601590502CB
:1004D0003E415D555E7E0909097E7F494949363EA8
:1004E000414141227F4141413E7F494949417F0984
:1004F0000909013E414949327F0808087F00007F11
:100500000000204040403F7F081422417F4040408F
:10051000007F0204027F7F021C207F3E4141413E5A
:100520007F090909063E4151617E7F091929462646
:100530004949493201017F01013F4040403F1F20AE
:1005400040201F3F4030403F631408146303047889
:10055000040361514945437F410000000000000051
:1005600000000000417F060106000040404040407E
:10057000010200000020545454787F484848303825
:1005800044444428384444447F3854545418087E22
:100590000909010C5252523E7F04040478047D4044
:1005A0004020204040443D007F102844203E5149D7
:1005B000467C047C04787C0804047838444444383D
:1005C0007E1212120C0C1212127E047804040848D7
:1005D00054545424043F4444403C40403C401C207C
:1005E00040201C3C4030403C4428102844264848C9
:1005F000483E4464544C4400083E410000007F00E3
:100600000000413E08000000000000000000000063
:1006100000000000000000000000000000000020BA
:10062000483E090200000000000000000000040431
:100630007F04040000000000000000000000000033
:1006400000000000000000000000000000000000AA
:10065000000000000000000000000000000000009A
:100660000000000000000000000000000000000288
:100670000401020000000000000018180000000043
:10068000000000000000000000000000000000006A
:10069000000000000000000000000000000000005A
:1006A000000000000000000000000000000000004A
:1006B0000000000000000079000000000000004879
:1006C0007E494942000000000015167C1615000006
:1006D0000000000A5555552800010001003E635DE9
:1006E0006B3E000000000008142A142200000000E5
:1006F0000000000000003E41754B3E010101010178
:1007000000020502000000000000000000000000E0
:100710000000000000000000000000000000060FC4
:100720007F017F00000000000000000000000000CA
:100730000000070507000022142A14080F003C20BF
:10074000780F004864580000000000304845402001
:100750000000000000000000000000000000007227
:1007600029292A717825242578702A252A707E095E
:100770007F49490E5151711100000000007C545610
:1007800055440000000000000000000000000000D0
:100790000000000000000000000000000000000059
:1007A00000000000007A091122790000000000001A
:1007B0000000000000000000003A454546393D4277
:1007C00042423D22140814225C322A261D000000F9
:1007D0000000000000000000000000003C4140411B
:1007E0003C000000000000000000000000000000CD
:1007F0002055565478205456557820565556782210
:100800005155567920555455780000000000245465
:100810007854580C5252721238555654183854564F
:1008200055183856555618385554551800497A40B9
:100830000000487A4100004A794200004A784200AC
:1008400000000000007A11090A7130494A4830302E
:10085000484A4930304A494A303249494A31304A97
:10086000484A3008082A080818643C2618384142CB
:10087000207838404221783842412278384240225C
:1008800078000000000000000000000C5150513CB6
:100890006E616E00696E660000407A10F35A00A027
:1008A000724E18090010A5D4E80000E87648170039
:1008B00000E40B54020000CA9A3B000000E1F50579
:1008C000000080969800000040420F000000A086C3
:1008D00001000000102700000000E80300000000F5
:1008E0006400000000000A00000000000100000099
:1008F00000002C76D888DC674F0823DFC1DFAE59B3
:10090000E1B1B796E5E3E453C63AE651997696E845
:10091000E6C28426EB898C9B62ED407C6FFCEFBCC9
:100920009C9F40F2BAA56FA5F490055A2AF75C93F4
:100930006B6CF9676DC11BFCE0E40D47FEF520E62A
:10094000B500D0ED902E0300943577050080841E0D
:10095000080000204E0A000000C80C333333330F68
:10096000986E12831141EF8D2114893BE65516CF05
:10097000FEE6DB18D1844B381BF77C1D901DA4BB11
:10098000E424203284725E228100C9F124ECA1E5C6
:100990003D2711241FBECFEFD0E1DEBFCDBF13E056
:1009A000A0E0B1E0EAE9FAE800E00BBF02C007907E
:1009B0000D92A23EB107D9F718E0A2EEB3E001C054
:1009C0001D92AA30B107E1F70E94C0050C944B4577
:1009D0000C94E825EF92FF920F931F93CF93DF9330
:1009E00080E0E82E81E0F82EC3E0D0E000E311E0E3
:1009F00000D000D0EDB7FEB7F282E182D483C3838A
:100A00000E9400430F900F900F900F9080E291E0B2
:100A10000E94124300D000D0EDB7FEB712830183CD
:100A2000D483C3830E9400430F900F900F900F90C8
:100A30000E94381FDDCF4F925F926F927F928F920C
:100A40009F92AF92BF92CF92DF92EF92FF920F935D
:100A50001F93CF93DF9340E0842E41E0942EC2E0B9
:100A6000D0E030E1A32E37E2B32EC12CD12C2FE4FD
:100A7000622E21E0722E90E3492E91E0592E00D093
:100A800000D0EDB7FEB792828182D483C3830E94E7
:100A900000430F900F900F900F90EE24FF248701DA
:100AA000C801B701A60195010E94074161157105B2
:100AB00081059105A9F400D000D000D0EDB7FEB7B4
:100AC00072826182E382F482058316830E9400436E
:100AD0008DB79EB706960FB6F8949EBF0FBE8DBF1A
:100AE0000894E11CF11C011D111D91E3E91695E725
:100AF000F90690E0090790E0190791F600D000D0C0
:100B0000EDB7FEB752824182D483C3830E94004373
:100B10000F900F900F900F900E94381FB0CFEF9260
:100B2000FF920F931F93CF93DF9350E0E52E51E098
:100B3000F52EC1E0D0E000E311E000D000D0EDB729
:100B4000FEB7F282E182D483C3830E9400430F90F8
:100B50000F900F900F9080E291E00E94124300D01E
:100B600000D0EDB7FEB712830183D483C3830E9404
:100B700000430F900F900F900F900E94381FDDCF11
:100B80000F931F93CF93DF930E94B91187E090E0FA
:100B90000E9408120E94F71260E070E0CB0120E092
:100BA00030E0A9010E943C2111E010934B06109304
:100BB0004C0610934D0610934E068091790190914A
:100BC0007A01A0917B01B0917C0180934F069093B4
:100BD0005006A0935106B0935206109253061092FD
:100BE0005406109255061092560680917D01909100
:100BF0007E01A0917F01B091800180935706909370
:100C00005806A0935906B0935A0610925B061092AC
:100C10005C0610925D0610925E0610925F061092BE
:100C2000600610926106109262061092630610929E
:100C300064061092650610926606C4E4D6E0CE0102
:100C40006FE875E00E944227CE0163EF73E040E851
:100C500050E00E948827CE010E94801D1093FC0462
:100C600082E08093FD0403E00093FE041093FF04F0
:100C70008091810190918201A0918301B0918401C2
:100C80008093000590930105A0930205B09303059E
:100C900010920405109205051092060510920705A2
:100CA0008091850190918601A0918701B091880182
:100CB0008093080590930905A0930A05B0930B054E
:100CC00010920C0510920D0510920E0510920F0552
:100CD0001092100510921105109212051092130532
:100CE0001092140510921505109216051092170512
:100CF000C5EFD4E0CE016BE175E00E944227CE0142
:100D00006CE975E040E850E00E948827CE010E941F
:100D1000801D109325060093260610932706109336
:100D200028068091890190918A01A0918B01B09150
:100D30008C018093290690932A06A0932B06B093EA
:100D40002C0610922D0610922E0610922F0610924D
:100D5000300680918D0190918E01A0918F01B0910C
:100D600090018093310690933206A0933306B0939E
:100D700034061092350610923606109237061092FD
:100D800038061092390610923A0610923B061092DD
:100D90003C0610923D0610923E0610923F061092BD
:100DA0004006CEE1D6E0CE016AEE74E00E94422712
:100DB000CE0164E774E040E850E00E948827CE014D
:100DC0000E94801D0E94BD1380E090E0DF91CF91D2
:100DD0001F910F91089590E09C012B503040220FFD
:100DE000331F220F331F865A9E4B820F931FF89496
:100DF000C09828E12FB9779BFECF9FB9779BFECF94
:100E00008FB9779BFECFC09A78940895F894C098D4
:100E10001FB8779BFECF8FB1C09A789486FFF6CF2C
:100E200008958091AB010E94EB0F8091AA010E946E
:100E3000311008958091AB010E94EB0F8091AA01BF
:100E40000E94EB0F0895F894C09887E08FB9779BC4
:100E5000FECFC09AC09886E08FB9779BFECFC09A2C
:100E600078940895F894C09881E08FB9779BFECF6D
:100E7000C09A88EE93E00E944F257894089580915F
:100E8000FC060895FC01C09889EC8FB9779BFECFD2
:100E900080E88FB9779BFECF82E08150DF01A80FF9
:100EA000B11D9C919FB9779BFECF8823B1F7C09A63
:100EB000C0988BEC8FB9779BFECF80E88FB9779B7A
:100EC000FECF82E08150DF01A80FB11D12969C91E8
:100ED00012979FB9779BFECF8823A1F7C09A808194
:100EE0008093FD0681818093FE0682818093FF06B8
:100EF00083818093000708958F929F92AF92BF9253
:100F0000CF92DF92EF92FF920F931F93DF93CF93D5
:100F100000D000D0CDB7DEB7E82E092F84E690E0F0
:100F20000E944F25F02E20E031E08E010F5F1F4F11
:100F3000F3E0CF2ED12CCC0EDD1EF70191907F0176
:100F40008824808190E0882999299A83898384E67E
:100F500090E02B833C830E944F25C0982B813C81DD
:100F6000822F80688FB9779BFECFC90195958795B1
:100F7000807C8FB9779BFECF5801F80181918FB9A2
:100F8000779BFECFEC15FD05C9F7C09A2E5F3F4F4A
:100F9000F1E020313F0789F684E690E00E944F257A
:100FA00020E431E080E191E01A821982C098422F5A
:100FB00040684FB9779BFECFA90155954795407C76
:100FC0004FB9779BFECFF80141914FB9779BFECF88
:100FD000EC15FD05C9F7C09AC098482F40684FB975
:100FE000779BFECFAC0155954795407C4FB9779BD9
:100FF000FECFF80141914FB9779BFECFEC15FD056F
:10100000C9F7C09A02962E5F3F4F41E08E31940798
:1010100059F681E090E09A838983C0988EEC8FB96D
:10102000779BFECF80E88FB9779BFECFC8010296F1
:10103000F80121912FB9779BFECFE817F907C9F77F
:10104000C09AC0988EE98FB9779BFECF80E88FB9A0
:10105000779BFECF0E5F1F4FF50181915F018FB926
:10106000779BFECFA016B106B9F7C09A0F900F90EC
:101070000F900F90CF91DF911F910F91FF90EF9004
:10108000DF90CF90BF90AF909F908F900895C098C1
:1010900089E18FB9779BFECF83E08FB9779BFECF35
:1010A00086E08FB9779BFECFC09AC0988AE18FB94E
:1010B000779BFECF8EE08FB9779BFECF8EE08FB906
:1010C000779BFECFC09A81E08093ED060895C0988B
:1010D00089E18FB9779BFECF81E08FB9779BFECFF7
:1010E00084EC8FB9779BFECFC09A1092ED060895DD
:1010F0008091EB069091EC06089590E08F719070CE
:10110000806E906AC09825E12FB9779BFECF9FB97A
:10111000779BFECF8FB9779BFECFC09A08950E9430
:10112000EB0608958091EE069091EF0698609093FB
:10113000EF068093EE06C09881E18FB9779BFECFD2
:101140008091EF068FB9779BFECF8091EE068FB925
:10115000779BFECFC09A08958091EE069091EF069E
:10116000977F9093EF068093EE06C09881E18FB948
:10117000779BFECF8091EF068FB9779BFECF809152
:10118000EE068FB9779BFECFC09A089581E08093D9
:10119000FB068091EE069091EF0680619093EF063A
:1011A0008093EE06C09881E18FB9779BFECF809146
:1011B000EF068FB9779BFECF8091EE068FB9779BB4
:1011C000FECFC09A08951092FB068091EE06909192
:1011D000EF068F7E9093EF068093EE06C09881E134
:1011E0008FB9779BFECF8091EF068FB9779BFECFAB
:1011F0008091EE068FB9779BFECFC09A0895DF935A
:10120000CF9300D0CDB7DEB79A8389839093F7064A
:101210008093F60684EF91E00E944F25C0988AEEF5
:101220008FB9779BFECF80E88FB9779BFECFFE0109
:101230003196CE01039621912FB9779BFECFE81707
:10124000F907C9F7C09A84EF91E00E944F250F90EB
:101250000F90CF91DF910895CF93DF93EC01862F0C
:10126000C09898E09FB9779BFECFC09AC09898E04D
:101270009FB9779BFECFC09A0E94EB06D093F106F0
:10128000C093F006DF91CF910895DF92EF92FF9225
:101290000F931F93DF93CF9300D0CDB7DEB78C01B0
:1012A000D62E5A8349837901DD9A88EE93E00E9415
:1012B0004812DE9881E090E00E944812DE9A84E6AF
:1012C00090E00E944812F894C09881E08FB9779B13
:1012D000FECFC09A82EE92E09093EF068093EE06E6
:1012E000C09881E18FB9779BFECF8091EF068FB9CF
:1012F000779BFECF8091EE068FB9779BFECFC09A89
:10130000C09882E18FB9779BFECF85E08FB9779B3C
:10131000FECF1FB8779BFECFC09AC0988CE18FB9E3
:10132000779BFECF1FB8779BFECF8FE78FB9779B58
:10133000FECFC09AC09889E18FB9779BFECF81E03C
:101340008FB9779BFECF84EC8FB9779BFECFC09A85
:10135000C09887E18FB9779BFECF8AE18FB9779BE1
:10136000FECF86E58FB9779BFECFC09A84EF91E0E0
:101370000E944F25C09888EE8FB9779BFECF80E8FA
:101380008FB9779BFECFFE013196CE010396219156
:101390002FB9779BFECFE817F907C9F7C09A84EFFA
:1013A00091E00E944F2578948D2D0E94EB06789451
:1013B0001093F1060093F00689819A819093F506C7
:1013C0008093F406F092F706E092F6061092F20689
:1013D0001092F8060E9406071092FB061092ED0686
:1013E0001092FC060F900F90CF91DF911F910F91FB
:1013F000FF90EF90DF90089581E08093F806C09809
:1014000083E08FB9779BFECFC09AC09888E08FB9F0
:10141000779BFECFC09A10920107089581E08093D8
:10142000F806C09883E08FB9779BFECFC09AC0982A
:1014300088E08FB9779BFECFC09A1092010708957C
:101440001092F806C09886E08FB9779BFECFC09ABD
:10145000109201070895BF92CF92DF92EF92FF9210
:101460000F931F93DF93CF9300D00F92CDB7DEB7CA
:101470008C016B017A010E94E625C09888E08FB943
:10148000779BFECFC09AC09888E08FB9779BFECF3C
:10149000C09A0E99FECF8499FCCFF894C09889E049
:1014A0008FB9779BFECFC09AC09889E08FB9779BA0
:1014B000FECFC09AD80112965C911297252F332740
:1014C00027FD3095BB2440E00AC0D8011396ED916A
:1014D000FC911497E80FF91F8081B80E4F5F842F9D
:1014E00090E0821793078CF3545FC0988EE38FB916
:1014F000779BFECF5FB9779BFECFC09AF8018681BC
:10150000882319F081E698E802C081E498E89A837C
:101510008983C0988EE38FB9779BFECFFE01319609
:10152000CE01039621912FB9779BFECFE817F907DB
:10153000C9F7C09AC0988EE38FB9779BFECF809190
:10154000F2068FB9779BFECFC09AC0988EE38FB911
:10155000779BFECF80E090E0FC01E051F94F2481C1
:101560002FB9779BFECF019682309105A9F7C09ADB
:10157000C0988EE38FB9779BFECF80E090E0F801B2
:10158000E80FF91F20812FB9779BFECF019682309B
:101590009105A9F7C09AC0988EE38FB9779BFECFCB
:1015A00080E090E0FC01E051F94F26812FB9779B54
:1015B000FECF019682309105A9F7C09AC601B70106
:1015C0000E947225D80115968C9115978823A9F150
:1015D0008091F806882331F4C09883E08FB9779B17
:1015E000FECFC09AC0981FB8779BFECF8FB1C09A2C
:1015F00081FFF8CF20E0A5E0EA2EC098EFB8779BF6
:10160000FECFC09AC0981FB8779BFECFCFB0C09ACC
:101610002F5F253649F478948091EB069091EC0683
:101620000E94AE1A80E060C084E690E02B830E94A6
:1016300048122B81C3FEE1CF06C0C09884E08FB969
:10164000779BFECFC09AC0988EE38FB9779BFECF71
:1016500040E00CC0D8011396ED91FC911497E80F6F
:10166000F91F80818FB9779BFECF4F5F842F90E069
:10167000F8012281332727FD30958217930754F311
:10168000C09AC0988EE38FB9779BFECFBFB8779B87
:10169000FECFC09A849BFECFF8948499FECFC09869
:1016A00088E08FB9779BFECFC09AC09888E08FB949
:1016B000779BFECFC09AC09889E08FB9779BFECF09
:1016C000C09AC09889E08FB9779BFECFC09AC09826
:1016D00086E08FB9779BFECFC09A78948091F2060E
:1016E0008F5F8093F20681E00F900F900F90CF9163
:1016F000DF911F910F91FF90EF90DF90CF90BF90FF
:101700000895FF920F931F93DF93CF9300D0CDB72F
:10171000DEB7FC018091ED06882331F0C0988DE0A2
:101720008FB9779BFECFC09A3281432F552747FD53
:10173000509520E060E007C0A381B481A80FB91FD5
:101740008C91280F6F5F862F90E084179507A4F384
:10175000832F845F9091ED0691118C5FC09898E083
:101760009FB9779BFECFC09AC09898E09FB9779BAE
:10177000FECFC09A0E99FECF8499FCCFF894C09802
:1017800099E09FB9779BFECFC09AC09899E09FB926
:10179000779BFECFC09AC0989EE39FB9779BFECF00
:1017A0008FB9779BFECFC09A81E498E89A838983AA
:1017B0008091FB06882321F081E698E89A8389834B
:1017C0008091ED06882329F089819A8188609A8327
:1017D0008983C0988EE38FB9779BFECFDE01119687
:1017E000CE0103963D913FB9779BFECFA817B9076D
:1017F000C9F7C09AC0988EE38FB9779BFECF8091CE
:10180000F2068FB9779BFECFC09AC0988EE38FB94E
:10181000779BFECF80E090E0DC01A051B94F149699
:101820003C9114973FB9779BFECF0196823091058A
:1018300099F7C09AC0988EE38FB9779BFECF80E06E
:1018400090E0DF01A80FB91F3C913FB9779BFECF15
:10185000019682309105A9F7C09AC0988EE38FB99E
:10186000779BFECF80E090E0DC01A051B94F169647
:101870003C9116973FB9779BFECF01968230910538
:1018800099F7C09A8091ED06882381F0C0988EE385
:101890008FB9779BFECFADEFB6E08D918FB9779B77
:1018A000FECF87E0A130B807C1F7C09AC0988EE399
:1018B0008FB9779BFECF30E009C0A381B481A80F18
:1018C000B91F8C918FB9779BFECF3F5F832F90E03C
:1018D0004281552747FD50958417950774F3C09AA8
:1018E000C0988EE38FB9779BFECF2FB9779BFECF41
:1018F000C09A8581882391F18091F806882331F47C
:10190000C09883E08FB9779BFECFC09AC0981FB86C
:10191000779BFECF8FB1C09A81FFF8CF10E005E032
:10192000C0980FB9779BFECFC09AC0981FB8779B1D
:10193000FECFFFB0C09A1F5F153649F478948091AE
:10194000EB069091EC060E94AE1A80E043C084E65C
:1019500090E00E944812F3FEE3CF06C0C09884E0F6
:101960008FB9779BFECFC09A7894849BFECF8499E1
:10197000FECF8091FB068823F9F084EA92E00E9472
:101980004812B79B0BC0C0988FE78FB9779BFECFEB
:101990001FB8779BFECF8FB1C09A0EC0C09888E069
:1019A0008FB9779BFECFC09AC09888E08FB9779B9C
:1019B000FECFC09A80E001C081E0F894C09896E024
:1019C0009FB9779BFECFC09A78949091F2069F5F63
:1019D0009093F2060F900F90CF91DF911F910F918E
:1019E000FF90089581E0849B80E0089581E00E9B44
:1019F00080E0089581E0849B80E00895DF93CF9399
:101A000000D000D0CDB7DEB70E9BC7C11092FC0648
:101A10000E9B1AC0B79918C0C0988FE78FB9779BF3
:101A2000FECF1FB8779BFECF8FB1C09AC09888E0D9
:101A30008FB9779BFECFC09AC09888E08FB9779B0B
:101A4000FECFC09A8FEFAAC1C0988FE78FB9779B5E
:101A5000FECF1FB8779BFECF4FB1C09A4F77C1F42E
:101A6000C0988FE78FB9779BFECF1FB8779BFECFCB
:101A70008FB1C09AC09888E08FB9779BFECFC09A8B
:101A8000C09888E08FB9779BFECFC09A8EEF86C151
:101A90004C3084F0E091F006F091F106842F992704
:101AA00087FD90950B972481332727FD30952817C4
:101AB00039077CF5C0988FE78FB9779BFECF50E050
:101AC000842F992787FD909504C01FB8779BFECF80
:101AD0005F5F252F30E02817390714F4B799F5CF49
:101AE000C09AC0988FE78FB9779BFECF1FB8779BBE
:101AF000FECF8FB1C09AC09888E08FB9779BFECF98
:101B0000C09AC09888E08FB9779BFECFC09A8DEFBE
:101B100045C1E091F006F091F1064C504383C09826
:101B20008FE78FB9779BFECFFE013196CE010396EA
:101B30001FB8779BFECF2FB12193E817F907C1F7A4
:101B4000C09AE091F006F091F106998181E095FF4D
:101B500080E08783C0988FE78FB9779BFECF1FB84F
:101B6000779BFECFE091F006F091F1068FB1808374
:101B7000C09AC0988FE78FB9779BFECF84E005C0ED
:101B80001FB8779BFECF815011F0B799F9CFC09A5B
:101B9000C0988FE78FB9779BFECF80E090E01FB8A9
:101BA000779BFECFE091F006F091F1062FB1E80FA0
:101BB000F91F218301968230910589F7C09A8981A6
:101BC00083FF4DC0C0988FE78FB9779BFECFE7EEBC
:101BD000F6E01FB8779BFECF8FB1819386E0EB3E96
:101BE000F807B9F7C09AC09889E98FB9779BFECFFB
:101BF00080E88FB9779BFECF82E08150E82FF0E03C
:101C0000E951F94F90819FB9779BFECF8823A9F7BF
:101C1000C09AC0988BE98FB9779BFECF80E88FB9C7
:101C2000779BFECF82E08150E82FF0E0E751F94F3B
:101C300090819FB9779BFECF8823A9F7C09AC0985F
:101C40008CE08FB9779BFECFC09A81E08093FC0631
:101C5000E091F006F091F106838184508383C0986F
:101C60008FE78FB9779BFECF40E00FC01FB8779BFF
:101C7000FECFE091F006F091F1068FB10580F6817C
:101C8000E02DE40FF11D80834F5FE091F006F091AD
:101C9000F106242F30E08381992787FD909528173E
:101CA000390724F3C09AC0988FE78FB9779BFECF8E
:101CB0001FB8779BFECF6FB1C09AC0988FE78FB9DE
:101CC000779BFECFFE013396CE0105961FB8779B1A
:101CD000FECF2FB12193E817F907C1F7C09AE09121
:101CE000F006F091F1068B81808750E040E00CC057
:101CF000E091F006F091F1060580F681E02DE80F05
:101D0000F91F8081480F5F5FE091F006F091F106C6
:101D1000852F90E02381332727FD30958217930785
:101D20003CF34617C1F0C0988FE78FB9779BFECF81
:101D30001FB8779BFECF8FB1C09AC09888E08FB94B
:101D4000779BFECFC09AC09888E08FB9779BFECF73
:101D5000C09A8CEF23C08C8187FF07C08091010758
:101D60008F5F8093010781E019C0C0988FE78FB91A
:101D7000779BFECF1FB8779BFECF8FB1C09AC098DC
:101D800088E08FB9779BFECFC09AC09888E08FB962
:101D9000779BFECFC09A8BEF01C080E00F900F9031
:101DA0000F900F90CF91DF910895809101078823C4
:101DB00029F08091010710920107089580E00895AD
:101DC000C09888E08FB9779BFECFC09AC09888E012
:101DD0008FB9779BFECFC09A0895992787FD90957C
:101DE000982F88278068C09823E12FB9779BFECF72
:101DF0009FB9779BFECF8FB9779BFECFC09A08958E
:101E0000C09886E08FB9779BFECFC09AC09882E1D8
:101E10008FB9779BFECF85E08FB9779BFECF88E0A7
:101E20008FB9779BFECFC09AC0988EE28FB9779B0F
:101E3000FECF88E18FB9779BFECF1FB8779BFECF8F
:101E4000C09A0E94E00E0895C09886E08FB9779BF3
:101E5000FECFC09AC09882E18FB9779BFECF85E014
:101E60008FB9779BFECF1FB8779BFECFC09AC098E3
:101E70008EE28FB9779BFECF1FB8779BFECF1FB83E
:101E8000779BFECFC09A0E94E00E0895C09886E02E
:101E90008FB9779BFECFC09AC09882E18FB9779BAC
:101EA000FECF85E08FB9779BFECF81E08FB9779B1E
:101EB000FECFC09A0E94E00E0895C09882E18FB9CB
:101EC000779BFECF85E08FB9779BFECF84E08FB9FB
:101ED000779BFECFC09A0E94E00E089590E08F702D
:101EE00090702091EE063091EF06207F822B932B8D
:101EF0009093EF068093EE06C09881E18FB9779BAF
:101F0000FECF8091EF068FB9779BFECF8091EE06D2
:101F10008FB9779BFECFC09A089590E026E0880F96
:101F2000991F2A95E1F790702091EE063091EF0607
:101F30002F73822B932B9093EF068093EE06C0981D
:101F400081E18FB9779BFECF8091EF068FB9779BA8
:101F5000FECF8091EE068FB9779BFECFC09A089591
:101F6000C09884E08FB9779BFECFC09A0895C0983F
:101F700086E08FB9779BFECFC09A08955F9BFECF16
:101F80005F988CB108955D9BFECF5D988CB90895E4
:101F90008FEF0895882311F48BB104C0813031F4A0
:101FA00080919B00881F8827881F089580E00895EE
:101FB000CF93DF93EC0107C0609102087091030892
:101FC00090E00E94D442FE01219684918823A1F7DB
:101FD000DF91CF9108958F3F09F43FC0982F9695D8
:101FE0009695969521E030E002C0220F331F9A9516
:101FF000E2F790E08770907082309105D9F08330DD
:10200000910534F4009771F08130910541F50EC0CF
:1020100084309105C1F0843091058CF085309105B4
:10202000F1F415C08BB3822B8BBB07C088B3822B16
:1020300088BB03C085B3822B85BB81E0089582B342
:10204000822B82BBFACF83B1822B83B9F6CF8091EA
:102050006200822B80936200F0CF8FEF08958FEFA4
:1020600008958F3F09F440C0982F969596959695C0
:1020700021E030E002C0220F331F9A95E2F720954D
:1020800090E08770907082309105D9F0833091058F
:1020900034F4009771F08130910541F50EC0843021
:1020A0009105C1F0843091058CF085309105F1F4F3
:1020B00015C08BB382238BBB07C088B3822388BB38
:1020C00003C085B3822385BB81E0089582B3822358
:1020D00082BBFACF83B1822383B9F6CF80916200AD
:1020E000822380936200F0CF8FEF08958FEF0895E1
:1020F0008F3F89F1282F30E0277030702230310572
:10210000C1F0233031053CF42115310571F0213047
:10211000310509F50CC02430310579F02430310542
:1021200054F025303105B9F40AC029B309C026B3EB
:1021300007C023B305C020B303C021B101C020B143
:1021400030E086958695869502C0359527958A95C7
:10215000E2F7217001C02FEF822F0895882319F034
:1021600080B58B7F02C080B5846080BD81E008951A
:102170008F3F09F43FC0982F96959695969521E04C
:1021800030E002C0220F331F9A95E2F790E087708B
:10219000907082309105D9F08330910534F4009726
:1021A00071F08130910541F50EC084309105C1F088
:1021B000843091058CF085309105F1F415C08BB316
:1021C00082278BBB07C088B3822788BB03C085B337
:1021D000822785BB81E0089582B3822782BBFACF34
:1021E00083B1822783B9F6CF8091620082278093E2
:1021F0006200F0CF8FEF08958FEF08958F3F09F4BD
:102200008CC0982F96959695969521E030E002C067
:10221000220F331F9A95E2F790E0662309F04AC037
:10222000322F3095877090708230910519F183308C
:1022300091053CF4009781F08130910509F06DC063
:1022400012C08430910521F184309105D4F085309D
:10225000910509F062C023C08AB383238ABB8BB384
:10226000822B8BBB58C087B3832387BB88B3822B59
:1022700088BB51C084B3832384BB85B3822B85BBC9
:102280004AC081B3832381BB82B3822B82BB43C00C
:1022900082B1832382B983B1822B83B93CC0809100
:1022A000610083238093610080916200822B809380
:1022B000620031C08770907082309105D9F0833010
:1022C000910534F4009771F08130910541F50EC00D
:1022D00084309105B9F08430910584F08530910502
:1022E000F1F414C08AB3822B8ABB15C087B3822B4A
:1022F00087BB11C084B3822B84BB0DC081B3822BFA
:1023000081BB09C082B1822B82B905C08091610076
:10231000822B8093610081E008958FEF08958FEF05
:1023200008958FEF0895009711F480E009C081307F
:10233000910511F488E004C08230910529F480E110
:102340000E94B81081E008958FEF0895009711F46E
:1023500080E009C08130910511F488E004C082302A
:10236000910529F480E10E94EB0F81E008958FEF41
:10237000089580B5846080BD87E087BB88BB8FEF00
:1023800084BB15BA82E082B987E68ABB80E48BBB46
:1023900080E58DB981E08EB980E090E00E94A611C1
:1023A00081E090E00E94A61182E090E00E94A611D8
:1023B00083E090E00E94A6110895009711F480E058
:1023C00009C08130910511F488E004C08230910584
:1023D00029F480E10E94311081E008958FEF089583
:1023E00090919B0095FFFCCF90919B009F7D9093D7
:1023F0009B0080939C0008959093900089B986E09B
:10240000809395005298599A8AB188618AB9089543
:102410000F931F93CF93DF930E94FC11C3ECDFE077
:102420000EEB1FE0CE01B8010E94474290930308D3
:1024300080930208CE01B8010E94474290930108A0
:1024400080930008DF91CF911F910F910895909391
:1024500098008093990086E080939D00EAE9F0E07F
:1024600080818B7F8083ABE9B0E08C9182608C931C
:10247000808188618083089580919B0087FFFCCFD5
:1024800080919B008F7780939B0080919C000895A2
:1024900000000000000000000197D1F708950E949D
:1024A000D74308950E94DF4380E00895EF92FF92A2
:1024B0000F931F93CF93DF93E82EE7017E01F92E50
:1024C000E70180E090E00E94D743082F8B8381E0F2
:1024D00090E00E94D743E82E8A8382E090E00E9439
:1024E000D743F82E898383E090E00E94D743182FCA
:1024F000888384E090E00E94D743FE0CF00EF10E3A
:102500008F1511F481E001C08FEFDF91CF911F9102
:102510000F91FF90EF900895CF93DF93EC0185E04A
:1025200090E00E94D743888381E0DF91CF910895A6
:10253000FC0186E090E060810E94DF4381E0089525
:10254000CF93DF93EC0186E090E00E94D74388832D
:1025500081E0DF91CF9108950F931F93CF93DF9385
:10256000082F192FC8E0D0E0CE010E94D743F80110
:1025700081938F012196C831D105B1F781E0DF91B8
:10258000CF911F910F9108950F931F93CF93DF93D6
:10259000082F192FC8E0D0E0F80161918F01CE011A
:1025A0000E94DF432196C831D105B1F781E0DF9168
:1025B000CF911F910F910895CF93DF93EC0187E0A6
:1025C00090E00E94D743888381E0DF91CF91089506
:1025D000FC0187E090E060810E94DF4381E0089584
:1025E000F8940895789408950E94F012FFCF0F9305
:1025F0001F93DF93CF93CDB7DEB7A3970FB6F894B1
:10260000DEBF0FBECDBF0E946A188093C1078F3F07
:1026100021F48EE060E00E94ED160E94C826082F8B
:1026200081FF04C084E160E00E94ED1602FF04C057
:1026300083E160E00E94ED161092C4071092D20769
:102640001092D1071092C3071092C2071092D307BD
:102650001092D007E0EBF7E08FEF808382838183D5
:10266000339697E0EF3BF907C1F793E690930E0797
:1026700080930C079093300780932E079093520716
:1026800080935007909374078093720790939607F6
:1026900080939407E7EDF7E020E030E001C09A0175
:1026A000A9014F5F5F4FCA01880F991F880F991FBB
:1026B000840F951F8C52984F91838083C901880F96
:1026C000991F880F991F820F931F8C52984F9483E4
:1026D000838335964530510511F71092D607109235
:1026E000D5071092F1071092F0071092C7071092C9
:1026F000C60784ED97E090930307809302078E014D
:102700000F5F1F4FC8016CE972E20E944227C801A7
:1027100067E676E040E850E00E94882785E58093F0
:10272000670619861C861D861E861F86188A198ACA
:102730001A8A1B8A1C8A1D8A1E8A1F8A188E198E65
:102740001A8E1B8E1C8E1D8E1E8E1F8E18A219A215
:102750001AA21BA281E0888792E09A878B87C80122
:102760000E94801DA3960FB6F894DEBF0FBECDBFAA
:10277000CF91DF911F910F910895CF92DF92FF9239
:102780000F931F93DF93CF9300D0CDB7DEB71CE03C
:10279000C12E17E0D12E90E0F601F080FF2DFF3F13
:1027A000B1F00CE017E020E0921761F0F8018081B1
:1027B000F81641F485E06F2D29839A830E94ED1667
:1027C0009A8129812F5F0E5D1F4F253069F79F5F2A
:1027D00022E230E0C20ED31E9530F1F60E94321C88
:1027E000992787FD9095FC01EE0FFF1FA5E0880F4C
:1027F000991FAA95E1F7E80FF91FEC5FF84F828562
:102800008093D307F093D207E093D107F093C307E7
:10281000E093C2078093C4070E94BE270E94AE27A0
:102820000E940B33FFCFEF92FF920F931F93CF9332
:10283000DF93EC017B018A018985823021F0809150
:10284000BF07888301C018828091BF07853020F0C0
:1028500087E060E00E94ED168985823029F0809142
:10286000BF078F5F8093BF078091BF07882319F44C
:1028700081E08093BF078881992787FD9095FC01AF
:10288000EE0FFF1F75E0880F991F7A95E1F7E80FAB
:10289000F91FEC5FF84FF182E0828885828788819A
:1028A000992787FD9095FC01EE0FFF1F55E0880FDB
:1028B000991F5A95E1F7E80FF91FEC5FF84F83E095
:1028C00081872881822F992787FD9095FC01EE0F43
:1028D000FF1F35E0880F991F3A95E1F7E80FF91FC0
:1028E000EC5FF84F20878881992787FD90957C01C0
:1028F000EE0CFF1CB5E0880F991FBA95E1F7E80EC2
:10290000F91E84E097E0E80EF91EF7011582CE016A
:102910000B960E944D21F701948F838F8B859C85A8
:10292000AD85BE858E339105A105B10520F086E108
:1029300068810E94ED16E880FF24E7FCF094CE0148
:102940004B960E944D21F701EE0FFF1F75E0EE0C34
:10295000FF1C7A95E1F7EE0DFF1DEC5FF84F968BAB
:10296000858B8881992787FD90957C01EE0CFF1C53
:1029700055E0880F991F5A95E1F7E80EF91E84E09B
:1029800097E0E80EF91EF70185899689238D348D2D
:10299000820F931F908F878BCE0143960E944D210B
:1029A000F701968F858F8881992787FD9095FC0187
:1029B000EE0FFF1F35E0880F991F3A95E1F7E80FFA
:1029C000F91FEC5FF84F858D968D928F818F81E096
:1029D00090E090A3878F1383028381E084878881AE
:1029E000992787FD9095FC01EE0FFF1F05E0880FEA
:1029F000991F0A95E1F7E80FF91FEC5FF84F8985F9
:102A000081A381E0DF91CF911F910F91FF90EF9013
:102A100008950E94B722089585E690E00895E09118
:102A2000D107F091D20784870895E091D107F09102
:102A3000D2078485089520914306222341F0FB01AB
:102A4000208320917304FC01208381E0089580E0BD
:102A50000895DF93CF930F92CDB7DEB7198207C0E9
:102A600080ED97E00E944F2589818F5F898389815E
:102A70008436B0F30F90CF91DF91089581E090E01C
:102A80000E94DD110E94291581E090E00E94A611AC
:102A90000E942915089581E090E00E94DD110E94B6
:102AA00029150E9429150E94291581E090E00E94B5
:102AB000A6110E9429150895FF920F931F93DF938B
:102AC000CF9300D00F92CDB7DEB700D000D000D0AA
:102AD000EDB7FEB731968E010F5F1F4FADB7BEB792
:102AE00012961C930E93119724EB31E033832283CB
:102AF000848315820E944943EDB7FEB736960FB620
:102B0000F894FEBF0FBEEDBFFF2472C0800F911F6F
:102B1000DC018C918433D1F1853370F48133F9F089
:102B2000823320F4803309F05CC016C0823311F187
:102B3000833309F056C023C08733C9F1883330F49A
:102B4000853369F1863309F04CC02CC08833B1F16C
:102B5000893309F046C03BC00E944B1502C00E9459
:102B60003E150E944B150E944B150E944B150E946A
:102B70004B1537C00E943E150E943E15F4CF0E94AF
:102B80003E150E943E150E943E15EFCF0E943E1555
:102B90000E943E150E943E150E943E15E8CF0E94FD
:102BA0003E1502C00E944B150E943E1504C00E94B3
:102BB0004B150E944B150E943E1506C00E944B15F6
:102BC0000E944B150E944B150E943E1508C00E94A2
:102BD0004B150E944B150E944B150E944B150E94ED
:102BE0003E150E9429150E9429150E942915F3946B
:102BF000F80101900020E9F73197E01BF10B8F2DD0
:102C000090E08E179F0708F481CF0F900F900F90E0
:102C1000CF91DF911F910F91FF9008950F931F9314
:102C2000CF93DF9380914306882329F4DF91CF91DE
:102C30001F910F9108950E94F0120E94F0120E94BD
:102C4000F012C4EBD1E086E693E00E94D80F00D0EA
:102C500000D0EDB7FEB73196ADB7BEB71296DC9394
:102C6000CE93119780917304828313820E94004354
:102C70000F900F900F900F9082E693E00E94D80F74
:102C800080914306883110F01092430680914306EC
:102C900090E001978631910508F04BC08A5B9F4F09
:102CA000FC01EE0FFF1F0590F491E02D099486E2E0
:102CB00093E041C08FEF92E03EC08BEE92E03BC0CC
:102CC00085ED92E038C08AEB92E035C084EA92E06C
:102CD00032C08CE892E02FC089E792E02CC086E6F3
:102CE00092E029C088E492E026C083E292E023C00B
:102CF00087E192E020C08CEF91E01DC08DEE91E065
:102D00001AC089ED91E017C088EC91E014C084EB03
:102D100091E011C084E991E00EC08CE791E00BC016
:102D200081E691E008C080E591E005C081E491E092
:102D300002C08AE391E00E94D80F6091020870916E
:102D400003088DE090E00E94D442609102087091E7
:102D500003088AE090E00E94D44214E182E090E00F
:102D60000E94DD1183E090E00E94A61104E688EE47
:102D700093E00E944F250150D1F783E090E00E943C
:102D8000DD1182E090E00E94A61104E688EE93E057
:102D90000E944F250150D1F7115001F782E090E0D9
:102DA0000E94A61183E090E00E94A6118091730416
:102DB0000E945C150E94291582E090E00E94DD11BE
:102DC0000E94291582E090E00E94A6110E94291518
:102DD000809143060E945C1536CFEF92FF920F93CD
:102DE0001F93182FE62E80934306609373040E946E
:102DF0000E1600E021C082E090E00E94DD1183E029
:102E000090E00E94A61194E6F92E88EE93E00E94CD
:102E10004F25FA94D1F783E090E00E94DD1182E023
:102E200090E00E94A61184E6F82E88EE93E00E94BE
:102E30004F25FA94D1F70F5F0431E8F283E090E078
:102E40000E94A61182E090E00E94A6118E2D0E94A1
:102E50005C15812F0E945C1500E0CDCF8093430666
:102E6000E091D107F091D2078085809373040E948E
:102E70000E1608956F927F928F929F92AF92BF929B
:102E8000CF92DF92EF92FF920F931F93CF93DF9336
:102E900082E793E00E94D80F00D000D087EB91E04A
:102EA000ADB7BEB712969C938E931197E091D10760
:102EB000F091D2078085992787FD909514969C9371
:102EC0008E9313970E940043E091D107F091D207AF
:102ED000C281D38180EC91E0EDB7FEB7928381830C
:102EE000D483C3830E940043EDB7FEB73196ADECA7
:102EF000EA2EA1E0FA2EADB7BEB71296FC92EE9282
:102F000011978881828313820E940043EAEDCE2EBE
:102F1000E1E0DE2EEDB7FEB7D282C182E091D107AB
:102F2000F091D20780819181ADB7BEB714969C9382
:102F30008E9313970E94004374EEA72E71E0B72E74
:102F4000EDB7FEB7B282A1828091D1079091D207EE
:102F5000948383830E94004304E017E00F900F9056
:102F60000F900F90C0E0D0E064EF662E61E0762E07
:102F70004701C601DC2CC92EC501BA2CA92ED801E7
:102F80001296ED90FC90139700D000D000D0EDB7D2
:102F9000FEB73196ADB7BEB712967C926E9211977E
:102FA000D383C283F582E4820E9400430F900F9086
:102FB000EDB7FEB73196ADB7BEB711968C921197AB
:102FC00012969C92D7018C91828313820E940043B7
:102FD000EDB7FEB7D182C282D8018D919C919483C6
:102FE00083830E940043EDB7FEB7B182A282CE0177
:102FF000880F991F9E0145E0220F331F4A95E1F784
:10300000820F931F8C5F984F948383830E940043A9
:1030100021960E5D1F4F0F900F900F900F90C530AF
:10302000D10509F0ACCFDF91CF911F910F91FF90A7
:10303000EF90DF90CF90BF90AF909F908F907F9058
:103040006F900895CF93DF93E091D107F091D2076D
:10305000C281D3818881853539F00E943A1781E099
:103060000E942E1785E58883E091D107F091D20761
:103070008081918121E18030920728F00E943A17E7
:1030800082E10E942E17DF91CF910895992787FD45
:103090009095FC01EE0FFF1FB5E0880F991FBA95C0
:1030A000E1F7E80FF91FEC5FF84FA281B3818C9133
:1030B000853519F085E58C9309C08081918121E1E6
:1030C0008030920728F082E10E942E178FEF08953A
:1030D00081E00895609198057091990580919A0515
:1030E00090919B05E0E0F0E09B01AC010E2E04C046
:1030F00056954795379527950A94D2F720FD1AC023
:1031000021E030E040E050E00E2E04C0220F331FDB
:10311000441F551F0A94D2F7262B372B482B592BC7
:10312000209398053093990540939A0550939B05F9
:103130008E2F08953196E032F105B1F68FEF0895A4
:10314000E091D107F091D2076585768587859089D2
:103150000895DF92EF92FF920F931F93D82E81E094
:10316000E82EF12C012D112D0D2C04C0EE0CFF1CAE
:10317000001F111F0A94D2F780919805909199052C
:10318000A0919A05B0919B058E219F21A023B12388
:103190000097A105B10509F45DC00E94F012EBE0B3
:1031A000F7E0A8019701209530954095509563E090
:1031B00081818F3F39F186819781A085B1858E15F8
:1031C0009F05A007B10731F4128613861486158671
:1031D0001082628386819781A085B18582239323A3
:1031E000A423B52386839783A087B187828593859F
:1031F000A485B58582239323A423B523828793874F
:10320000A487B587B29687E0E53BF80789F62EEFED
:103210003FEF4FEF5FEF04C0220F331F441F551FD6
:10322000DA94D2F78091980590919905A0919A052A
:10323000B0919B0582239323A423B5238093980503
:1032400090939905A0939A05B0939B050E94F21262
:1032500081E001C08FEF1F910F91FF90EF90DF9001
:103260000895EF92FF920F931F9321E030E040E02A
:1032700050E004C0220F331F441F551F8A95D2F718
:10328000E091D107F091D20785859685A785B08911
:1032900079018A01E822F9220A231B23E114F104AF
:1032A00001051105D1F02095309540955095822368
:1032B0009323A423B52385879687A787B08B81891D
:1032C0009289A389B48982239323A423B523818B74
:1032D000928BA38BB48B81E001C08FEF1F910F9174
:1032E000FF90EF90089520919805309199054091B5
:1032F0009A0550919B05082E04C056954795379521
:1033000027950A94D2F72170307021153105E9F024
:10331000E091D107F091D20721E030E040E050E0A9
:1033200004C0220F331F441F551F8A95D2F785858D
:103330009685A785B089822B932BA42BB52B8587E7
:103340009687A787B08B81E008958FEF0895EF925D
:10335000FF920F931F93DF93CF930F92CDB7DEB7FA
:1033600091E0E92EF12C012D112D04C0EE0CFF1C73
:10337000001F111F8A95D2F78091980590919905A9
:10338000A0919A05B0919B058E219F21A023B12386
:103390000097A105B10511F481E03FC00E94F01231
:1033A000EBE0F7E020E033E080818130A9F4828512
:1033B0009385A485B5858E219F21A023B1230097F5
:1033C000A105B10549F03283178616861082E28680
:1033D000F3860487158721E08081823091F482850D
:1033E0009385A485B5858E159F05A007B10749F47F
:1033F00032831786168610821286138614861586E7
:1034000021E0B29687E0E53BF80771F629830E9438
:10341000F2122981222329F482E00E940F158FEFF6
:1034200001C081E00F90CF91DF911F910F91FF902C
:10343000EF900895E091D107F091D2072585368568
:1034400047855089262337234823592321153105E1
:103450004105510521F1618B728B838B948B21E0A7
:1034600027830090C10704C0969587957795679547
:103470000A94D2F7617070706115710519F00E949D
:10348000721E04C080E090E00E94991EE091D10776
:10349000F091D207218932894389548903C020E001
:1034A00030E0A901B901CA0108959091D007943084
:1034B000D0F4E0EBF7E020E030813F3F21F02F5FD8
:1034C00033962530C9F730E0F901EE0FFF1FE20F08
:1034D000F31FE055F84F8283808361839F5F909351
:1034E000D0079F0102C020E030E0C9010895BC016F
:1034F00020E030E0822FA901440F551F420F531FD7
:103500004055584F6417750731F02F5F3F4F2530F6
:10351000310581F78FEF08950E94771A8F3F11F4DC
:1035200081E003C0853029F482E00E940F158FEFFF
:103530000895992787FD9095FC01EE0FFF1FE80F76
:10354000F91FE055F84F8FEF80838283818380914C
:10355000D00781508093D00781E00895EF92FF92C9
:103560000F931F93DF93CF930F92CDB7DEB70E94D7
:10357000771A682F8F3F11F481E003C0853029F45A
:1035800082E00E940F158FEF8FC0082F112707FDD3
:1035900010957801EE0CFF1CE00EF11E80EB97E019
:1035A000E80EF91ED70112969C9112978C919817EC
:1035B0000CF079C069830E94F01200D000D000D0D6
:1035C000EDB7FEB7319685E092E0ADB7BEB7129683
:1035D0009C938E931197A091D107B091D207189622
:1035E0008C91992787FD909593838283158304831B
:1035F0000E940043F70182818F5F8283E091D107AF
:10360000F091D2071482E1EBF7E08DB79EB70696F2
:103610000FB6F8949EBF0FBE8DBF20E030E070E47F
:103620006981A901440F551F420F531F4055584F40
:1036300071F0A0814A2F552747FD5095872F90E0C4
:103640004817590724F48181882309F47A2F2F5FC2
:103650003F4F33962530310521F77093C007EBE0DB
:10366000F7E0862F992787FD9095A92FB92F63E062
:103670002081223089F42285338544855585281799
:1036800039074A075B0741F4628317861686108262
:103690001286138614861586B29627E0E53BF2075C
:1036A00039F70E94F21281E00F90CF91DF911F91C4
:1036B0000F91FF90EF9008950F931F93DF93CF9397
:1036C0000F92CDB7DEB70E94771A8F3F11F481E0D9
:1036D00003C0853029F482E00E940F158FEFA3C04C
:1036E00089830E94F0128981082F112707FD109508
:1036F000F801EE0FFF1FE00FF11FE055F84F928128
:103700001916B4F0E091D107F091D2079781926039
:103710009783992787FD9095A92FB92F818B928B3D
:10372000A38BB48B0E94F21280E090E00E94991E5D
:1037300000D000D000D0EDB7FEB7319684E292E021
:10374000ADB7BEB712969C938E931197A091D107F7
:10375000B091D20718968C91992787FD9095938305
:103760008283158304830E940043F801EE0FFF1F3C
:10377000E00FF11FE055F84F828181508283E1EB29
:10378000F7E08DB79EB706960FB6F8949EBF0FBEB2
:103790008DBF80E090E060E49C01220F331F280F72
:1037A000391F2055384F71F07081472F552747FD3D
:1037B0005095262F30E04217530724F4218122230D
:1037C00009F4672F019633968530910529F76093A8
:1037D000C00700D000D0EDB7FEB7319680E492E08C
:1037E000ADB7BEB712969C938E93119762831382E6
:1037F0000E940043A091D107B091D207F801EE0FCB
:10380000FF1FE00FF11FE055F84F81811B968C934D
:103810001B9781E014968C930F900F900F900F9050
:103820000E94F21281E00F90CF91DF911F910F91D2
:1038300008950E94771A8F3F11F481E003C085300C
:1038400029F482E00E940F158FEF0895992787FDD4
:103850009095FC01EE0FFF1FE80FF91FE055F84FA0
:1038600082810895E091C607F091C707808108958D
:103870000F931F93CF93DF93C091C607D091C707D3
:1038800084E893E00E94D80F03E512E01FC000D047
:1038900000D0EDB7FEB712830183288130E0C90163
:1038A000880F991F45E0220F331F4A95E1F7820FD9
:1038B000931F855E984F948383830E9400430B80FF
:1038C000DC81C02D0F900F900F900F902097F9F68C
:1038D00081E893E00E94D80FDF91CF911F910F9163
:1038E0000895BF92CF92DF92EF92FF920F931F93B2
:1038F000CF93DF93B82EC0910207D0910307209792
:1039000009F4A4C00091C6071091C707011511055D
:1039100009F453C0992787FD90959C01220F331F0E
:1039200045E0880F991F4A95E1F7280F391F2C5F52
:10393000384F97E1E92EF12CE20EF31E8AE0C82EF3
:10394000D12CC20ED31E87E592E00E941243D8010B
:103950004C91442391F1842F90E0FC01EE0FFF1F66
:10396000A5E0880F991FAA95E1F7E80FF91FEC5F12
:10397000F84F2789308DF701808191818217930755
:10398000E0F02817390799F4842F90E0FC01EE0F3E
:10399000FF1F65E0880F991F6A95E1F7E80FF91F8F
:1039A000EC5FF84F9285D6018C91981730F0F801B2
:1039B000038114810115110531F6B882E0910207E7
:1039C000F09103070380F481E02DF0930307E09367
:1039D00002078091C6079091C70708171907C1F41D
:1039E0000115110551F01C830B831A821982D8012D
:1039F0001296DC93CE93119706C01C821B821A820A
:103A00001982D283C183D093C707C093C6071EC053
:103A1000D80111968D919C9112970E171F0779F07E
:103A20009A8389831C830B831196ED91FC911297E5
:103A3000D483C3831296DC93CE93119707C01C8264
:103A40001B829A838983F801D283C183DF91CF914E
:103A50001F910F91FF90EF90DF90CF90BF9008954E
:103A6000CF93DF93E091C607F091C707309709F431
:103A700044C0992787FD9095208130E028173907A9
:103A800081F4A381B481B093C707A093C6071296AF
:103A90001C921E92119718C00380F481E02D30977C
:103AA00061F1208130E028173907B1F7C181D28157
:103AB000838194819C838B83A381B481109721F0AF
:103AC0001296DC93CE931197A0910207B091030751
:103AD000109739F4F0930307E093020714821382DE
:103AE0000AC0B483A3831296FC93EE931197F093CC
:103AF0000307E093020712821182DF91CF910895AC
:103B0000EF92FF920F931F93CF93DF93EC016981A4
:103B10007A814B815C818D819E810E945D27BC01F1
:103B20008F81882369F04B815C81CE0120E030E0F9
:103B300000E010E0EE24FF240E9413141F8215C041
:103B40008881992787FD9095FC01EE0FFF1FA5E066
:103B5000880F991FAA95E1F7E80FF91FEC5FF84F5E
:103B600081858330E1F4718360838881992787FDA3
:103B70009095FC01EE0FFF1F65E0880F991F6A9575
:103B8000E1F7E80FF91FEC5FF84F858996890097F8
:103B900041F482E0818788810E94711C02C08FEF0E
:103BA00001C081E0DF91CF911F910F91FF90EF90C5
:103BB00008951F93DF93CF93CDB7DEB728970FB645
:103BC000F894DEBF0FBECDBF29833A834B835C835D
:103BD0006D837E838F8398870E94F0120E94E62572
:103BE000182FCE0101960E944D219C018330910532
:103BF00060F0E091D107F091D207210F311D368B93
:103C0000258B0E94F21281E001C08FEF28960FB63B
:103C1000F894DEBF0FBECDBFCF91DF911F91089505
:103C20000E945227E091D107F091D2078581882325
:103C3000B9F70895FF920F931F93DF93CF93CDB7FA
:103C4000DEB728970FB6F894DEBF0FBECDBF29832D
:103C50003A834B835C836D837E838F8398870E9436
:103C600022180E94F012E091D107F091D20781E072
:103C7000858381E090E090A3878F0E94E625F82E4F
:103C8000CE0101960E944D21E091D107F091D2071B
:103C90000F2D10E09801280F391F368B258B8F2DA3
:103CA000883F78F40E94E0250F5F1F4F282F30E0F7
:103CB0000217130734F48F2D8E5F809342060E9403
:103CC000E3250E94F2120E94101E81E028960FB692
:103CD000F894DEBF0FBECDBFCF91DF911F910F9142
:103CE000FF9008951F930E94F012E091D107F09188
:103CF000D20781E0858386830E94E625182F883FBE
:103D000088F40E94E025212F30E02F5F3F4F482F9D
:103D100050E02417350734F4812F8E5F80934206DC
:103D20000E94E3250E94F2120E94101E81E01F9162
:103D300008951F93CF93DF93EC010E94F012E0915E
:103D4000D107F091D20781E08583D68BC58B0E9485
:103D5000E625182F883F88F40E94E025212F30E0C7
:103D60002F5F3F4F482F50E02417350734F4812F41
:103D70008E5F809342060E94E3250E94F2120E9409
:103D8000101E81E0DF91CF911F910895EF92FF9275
:103D90000F931F93DF93CF930F92CDB7DEB78C01B4
:103DA0000E94F012E091D107F091D20781E0858363
:103DB0000E94E625E091D107F091D207E82EFF247A
:103DC0000E0D1F1D168B058B883F90F489830E9472
:103DD000E0250894E11CF11C282F30E09981E216BF
:103DE000F30634F4892F8E5F809342060E94E32508
:103DF0000E94F2120E94101E81E00F90CF91DF917D
:103E00001F910F91FF90EF9008951F93CF93DF9331
:103E1000EC010E942218209711F4C1E0D0E00E942A
:103E2000F012E091D107F091D20781E08583D0A311
:103E3000C78F0E94E625182F883F88F40E94E0254E
:103E4000212F30E02F5F3F4F482F50E024173507D8
:103E500034F4812F8E5F809342060E94E3250E94F6
:103E6000F2120E94101E81E0DF91CF911F91089500
:103E70001F930E9422180E94F012E091D107F09146
:103E8000D20781E090E090A3878F81E085830E9434
:103E9000E625182F883F88F40E94E025212F30E086
:103EA0002F5F3F4F482F50E02417350734F4812F00
:103EB0008E5F809342060E94E3250E94F2120E94C8
:103EC000101E81E01F910895E091D107F091D20773
:103ED00080850E94301DE091D107F091D20784E0E7
:103EE00081870E94381F81E008958F929F92AF9240
:103EF000BF92CF92DF92EF92FF920F931F93DF93C7
:103F0000CF93CDB7DEB760970FB6F894DEBF0FBE84
:103F1000CDBF29873A874B875C876D877E878F87E0
:103F2000988BCE0101960E94D11FCE01099609857A
:103F30001A852B853C854D855E856F8578898980BE
:103F40009A80AB80BC80CD80DE80EF80F8840E94B8
:103F50002F208F3F61F029853A854B855C856D85E3
:103F60007E858F8598890E941A1E81E001C08FEF9F
:103F700060960FB6F894DEBF0FBECDBFCF91DF9134
:103F80001F910F91FF90EF90DF90CF90BF90AF9077
:103F90009F908F900895E091D107F091D20780858E
:103FA0000895EF92FF920F931F93CF93DF93EC014D
:103FB0001C821D821E821F828091C8079091C907B2
:103FC000A091CA07B091CB0788839983AA83BB834A
:103FD000E090CC07F090CD070091CE071091CF076D
:103FE000EC82FD820E831F830E94E625682F70E01D
:103FF00080E090E023EB36EE4EE050E00E94B240CD
:104000006E0D7F1D801F911F6C837D838E839F8328
:1040100013C080509A4CAA49BB438C839D83AE83C6
:10402000BF8388819981AA81BB810196A11DB11DA1
:1040300088839983AA83BB838C819D81AE81BF8154
:1040400080302AEC92072AE9A2072BE3B20708F78F
:10405000DF91CF911F910F91FF90EF9008958F9274
:104060009F92AF92BF92CF92DF92EF92FF920F9307
:104070001F93DF93CF93CDB7DEB760970FB6F89459
:10408000DEBF0FBECDBFFC0109831A832B833C83A7
:104090004D835E836F83788789869A86AB86BC86DC
:1040A000CD86DE86EF86F88AE980FA800B811C8156
:1040B0002D813E814F815885A984BA84CB84DC84CC
:1040C0008D859E85AF85B889EA14FB040C051D0516
:1040D00008F440C0AE14BF04C006D10691F42817FE
:1040E00039074A075B07B0F1281B390B4A0B5B0BFA
:1040F0002483358346835783108211821282138270
:1041000027C0281739074A075B0790F40894E1088D
:10411000F10801091109EA18FB080C091D09E082E0
:10412000F18202831383205036434546544C08C025
:10413000EA18FB080C091D09E082F182028313834F
:10414000281B390B4A0B5B0B24833583468357832B
:1041500081E001C08FEF60960FB6F894DEBF0FBE0E
:10416000CDBFCF91DF911F910F91FF90EF90DF9026
:10417000CF90BF90AF909F908F900895FC0114C096
:1041800020503A4C4A495B43248335834683578306
:1041900020813181428153812F5F3F4F4F4F5F4FCD
:1041A0002083318342835383248135814681578123
:1041B00020308AEC38078AE948078BE3580700F774
:1041C00008958F929F92AF92BF92CF92DF92EF921B
:1041D000FF920F931F93DF93CF93CDB7DEB7609716
:1041E0000FB6F894DEBF0FBECDBF09831A832B83B1
:1041F0003C834D835E836F83788789869A86AB86FE
:10420000BC86CD86DE86EF86F88A29853A854B8581
:104210005C85E980FA800B811C812E0D3F1D401FBB
:10422000511FFC0120833183428353832D853E85BA
:104230004F855889ED80FE800F8118852E0D3F1D1A
:10424000401F511F24833583468357830E94BE201D
:1042500081E060960FB6F894DEBF0FBECDBFCF9160
:10426000DF911F910F91FF90EF90DF90CF90BF9063
:10427000AF909F908F9008956093C8077093C9077F
:104280008093CA079093CB072093CC073093CD0738
:104290004093CE075093CF0708958F929F92AF928D
:1042A000BF92CF92DF92EF92FF920F931F93FC0188
:1042B000208131814281538164817581868197811A
:1042C000211531054105510509F461C0223431053C
:1042D0004105510508F062C05B016C01EE24FF242A
:1042E000870160E038C08A2CAB2DA653F1E0AB15F6
:1042F00008F0F0E08C2D865691E08C1508F090E0E7
:10430000F80F71E0F81708F070E0972B7D2D755CC1
:10431000E1E07D1508F0E0E0970F81E0971708F0E5
:1043200080E08E2B8E0DE1E08E1508F0E0E0EF0DC1
:1043300071E0EF1508F070E0700FB1E0701708F051
:10434000B0E0B10FA82CBA2ECF2ED92EE82EFE2E1B
:10435000072F1B2F6F5F862F90E0A0E0B0E0821741
:104360009307A407B50708F4BECF9501A601B701CE
:10437000C801A3EBAA2EF6EEBF2EEEE0CE2EDD2472
:10438000EE24FF2400E010E00E94363309C023EB46
:1043900036EE4EE050E00E94E54002C020E030E002
:1043A000C9011F910F91FF90EF90DF90CF90BF90C8
:1043B000AF909F908F900895EF92FF920F931F936D
:1043C000DF93CF93CDB7DEB728970FB6F894DEBF53
:1043D0000FBECDBF7B018C01BAE016950795F7940F
:1043E000E794BA95D1F7E982FA820B831C83737044
:1043F0008070907023EB36EE4EE050E00E94B240A9
:104400006D837E838F8398872E2D3A814B815C81CB
:1044100028960FB6F894DEBF0FBECDBFCF91DF91C7
:104420001F910F91FF90EF9008958F929F92AF92FE
:10443000BF92CF92DF92EF92FF920F931F93FC01F6
:104440002081318142815381648175818681978188
:10445000211531054105510509F45BC05B016C0173
:10446000EE24FF24870160E038C08A2CAB2DA653D0
:10447000F1E0AB1508F0F0E08C2D865691E08C153C
:1044800008F090E0F80F71E0F81708F070E0972B53
:104490007D2D755CE1E07D1508F0E0E0970F81E08F
:1044A000971708F080E08E2B8E0DE1E08E1508F056
:1044B000E0E0EF0D71E0EF1508F070E0700FB1E093
:1044C000701708F0B0E0B10FA82CBA2ECF2ED92E5D
:1044D000E82EFE2E072F1B2F6F5F862F90E0A0E0A7
:1044E000B0E082179307A407B50708F4BECF950183
:1044F000A601B701C801E3EBAE2E06EEB02E1EE01A
:10450000C12EDD24EE24FF2400E010E00E943633AB
:1045100006C023EB36EE4EE050E00E94E540B901C4
:10452000CA011F910F91FF90EF90DF90CF90BF9045
:10453000AF909F908F9008951F9311E00E942218D2
:104540000E94E025853110F41093C5070E94522780
:1045500080916706853519F088E00E942E178091BA
:104560001805853559F388E00E942E17E7CF2F9262
:104570003F924F925F926F927F928F929F92AF92F3
:10458000BF92CF92DF92EF92FF920F931F93DF9330
:10459000CF930F92CDB7DEB70E94DF250E94F012B5
:1045A0000E945B250E9461252C018AEF0E94E32571
:1045B0006091420670E080E090E023EB36EE4EE042
:1045C00050E00E94B2407B018C018091CC07909119
:1045D000CD07A091CE07B091CF07E80EF91E0A1FB4
:1045E0001B1FC801B7010E94E540E61AF70A080B35
:1045F000190B8091C8079091C907A091CA07B09183
:10460000CB07E3EBAE2EE6EEBE2EEEE0CE2ED12CA7
:1046100014C080E096E3A5E6B4ECE80EF91E0A1F8C
:104620001B1FC801B701A60195010E94E540E61ACB
:10463000F70A080B190BD401C3013C014D01089482
:10464000611C711C811C911CE0E0EE16EAECFE0678
:10465000EAE90E07EBE31E07E0F68093C8079093A4
:10466000C907A093CA07B093CB07E092CC07F0929A
:10467000CD070093CE071093CF07E091D107F091BB
:10468000D20785818823B9F081858430A1F08781A4
:10469000823029F0882341F08681882311F485E057
:1046A00001C083E0818704C083E08187178216827E
:1046B00080850E94301DE091D107F091D207858D51
:1046C000968D009709F48DC06085662309F489C032
:1046D0008185843009F485C0218D328D8091420618
:1046E00090E028173907C8F582E00E94ED16E091A6
:1046F000D107F091D20781A1833061F581858330A4
:1047000049F184E892E00E941243E091D107F091D0
:10471000D207858D968D928F818F838D948D908F0A
:10472000878B00D000D088E992E0ADB7BEB7129673
:104730009C938E9311978085992787FD9095149669
:104740009C938E9313970E9400430F900F900F90AD
:104750000F9007C0128E118E04C0281B390B328FA8
:10476000218FE091D107F091D2070085218D328D04
:1047700021153105B1F581A1813071F483E0602FFD
:104780000E94ED16E091D107F091D20783E0818776
:10479000802F0E94301D25C0833019F5818583301C
:1047A00001F100D000D022EB32E0EDB7FEB732834A
:1047B0002183802F992787FD9095948383830E947E
:1047C0000043E091D107F091D207858D968D928FAD
:1047D000818F838D948D908F878B0F900F900F908A
:1047E0000F9079E0272E77E0372E00E61AEE20E0D2
:1047F00061E0662E712C5AEFE52EF12C42E0942EEA
:1048000031E0A32EB12CC12CD12CD10113968C9167
:1048100013978F3F09F4C4C01C92882309F443C046
:1048200014968C9114978430F1F150964D915C91CF
:1048300051978091420690E04817590738F0481B7D
:10484000590B51965C934E93509703C0F101118A16
:10485000108AD10152964D915C9153974817590790
:1048600038F0481B590B53965C934E93529712C0E5
:10487000F101668977898617970728F4681B790BF9
:10488000738B628B07C00E94D140D10153969C93D9
:104890008E935297F10182899389009721F486893A
:1048A0009789938B828BD10114968C9114978330C6
:1048B00009F076C050968D919C915197009709F020
:1048C00066C012968C9112978823A9F011968C914C
:1048D0001197882381F0D601C5010090C10704C05B
:1048E000880F991FAA1FBB1F0A94D2F7F101848772
:1048F0009587A687B787D10112961C9212971196B9
:104900001C9211971C925A964D915C915B9756960A
:104910008D919C91579758966D917C915997413004
:104920005105D9F455967C936E93549714969C92A6
:10493000149752964D915C91539751965C934E9378
:104940005097009721F45196FC92EE925097822F47
:1049500029830E94711C29811AC0F101758B648B17
:10496000BA0161507040689FA001699F500D789F07
:10497000500D1124518B408B538B428B009711F4B7
:10498000F18AE08AD1015B967C926E925A97F1018E
:1049900080899189009721F08017910708F48C0194
:1049A0002F5F82E290E0280E391E253009F02DCFCE
:1049B0000E94321CE82E282F332727FD3095F9015D
:1049C000EE0FFF1F85E0220F331F8A95E1F7E20FFC
:1049D000F31FEC5FF84F82858093D307F093C307F2
:1049E000E093C207EE20B9F0258D368D21153105F3
:1049F00051F0218D328D2A3F310528F420173107DF
:104A000008F44BC00DC098010B3F110508F445C0D8
:104A10002AEF30E042C00B3F110510F00AEF10E022
:104A20008093C407F093D207E093D1070093420626
:104A30000E94E625282F30E02F5F3F4F20173107D7
:104A400040F00E94E625082F10E00E5F1F4F0093F4
:104A50004206EE2011F01092C507802F0E94E32538
:104A6000C2016EEE72E00E9472250E94A7270E948A
:104A70000B330F90CF91DF911F910F91FF90EF902B
:104A8000DF90CF90BF90AF909F908F907F906F906E
:104A90005F904F903F902F9008958901C1CF000003
:104AA0000000000000000197D1F708951EBC089592
:104AB00081E08EBD089580B5816080BD1DBC1CBCA9
:104AC0000895DF93CF9300D0CDB7DEB78CB59DB5F9
:104AD0009A83898329813A81C9010F900F90CF91E0
:104AE000DF910895EF92FF920F931F93CF93DF937F
:104AF000EC018FEFC937D80710F0C0E0D0E07E019D
:104B000000E010E080E090E0E60EF71E081F191F9D
:104B100091E0E91690E0F90691E0090790E01907A5
:104B200068F080E090E0AFEFBFEFE80EF91E0A1FDB
:104B30001B1F0E946125C817D907D8F30E94612561
:104B40008E159F05D8F3DF91CF911F910F91FF90A4
:104B5000EF90089582BF089513BE87B78D7F87BFFA
:104B600087B78E7F87BF08958BE083BF87B7836049
:104B700087BF089580B5826080BD12BE1092F40494
:104B80001092420608958EEF8093420698E090BFFF
:104B900081BF83E086BF8BE083BF80B5876080BD27
:104BA0001FBC81E08EBD1DBC1CBC80B5816080BD7A
:104BB0000E94BA250E94B4251092F4040895089525
:104BC00081B78F5F0895815081BF089582B708959E
:104BD0001F920F920FB60F920BB60F9211242F93C4
:104BE0003F934F935F936F937F938F939F93AF9375
:104BF000BF93EF93FF938AE060E00E94ED16FF9170
:104C0000EF91BF91AF919F918F917F916F915F9144
:104C10004F913F912F910F900BBE0F900FBE0F90B1
:104C20001F9018950F920FB60F921F922F923F92DE
:104C30004F925F926F927F928F929F92AF92BF92AC
:104C4000CF92DF92EF92FF920F931F932F933F9398
:104C50004F935F936F937F938F939F93AF93BF9384
:104C6000CF93DF93EF93FF93A091D107B091D20739
:104C70000DB60D920EB60D921F92A0911C06B0912A
:104C80001D061E90BEBFADBF0895882319F487B7D7
:104C90008F7787BF8FEF0895882319F414BC81E0C4
:104CA00008958FEF0895882319F424B530E002C0E9
:104CB00020E030E0C9010895882329F487B780688F
:104CC00087BF81E008958FEF0895882359F5CB01C0
:104CD00001978530910510F46093410688E085BD09
:104CE00043BD3093F2032093F1038091410681305C
:104CF00019F485B5816009C0823019F485B58260E8
:104D000004C0833029F485B5836085BD81E00895B2
:104D1000843019F485B58460F8CF853029F485B5E1
:104D20008560F3CF8FEF089581E008951F920F9271
:104D30000FB60F920BB60F9211242F933F934F9300
:104D40005F936F937F938F939F93AF93BF93EF93F3
:104D5000FF93E091F103F091F203309711F0099580
:104D600004C08AE060E00E94ED16FF91EF91BF91D0
:104D7000AF919F918F917F916F915F914F913F91F3
:104D80002F910F900BBE0F900FBE0F901F90189594
:104D900004B603FC02C080E001C080E104B602FE5C
:104DA00006C094B79B7F94BF04B600FE846004B62F
:104DB00001FE05C094B79D7F94BF8260089588234B
:104DC00059F404B600FE04C094B79E7F94BF01C09E
:104DD00081E093B79111816008958FEF08958FEF6F
:104DE00008958FEF08951F920F920FB60F920BB692
:104DF0000F9211242F933F934F935F936F937F9361
:104E00008F939F93AF93BF93EF93FF938AE060E0FC
:104E10000E94ED16FF91EF91BF91AF919F918F91FD
:104E20007F916F915F914F913F912F910F900BBEAA
:104E30000F900FBE0F901F9018950E94F012A8952A
:104E400084B7877F84BF81B5886181BD11BC0E9412
:104E5000F21208950E94F01284B7877F84BFA8954C
:104E600081B5886181BD8FE081BD0E94F2120895F5
:104E700004B603FC02C081E008958FEF0895A89561
:104E800008950895FC0176836583089585B7837E30
:104E9000886185BF85B7806285BF889585B78F7D1E
:104EA00085BF089585B7837E85BF85B7806285BF3E
:104EB000889585B78F7D85BF089525E5FA01208304
:104EC000FB01329790838183129212921292129276
:104ED00012921292129212921292129212921292B2
:104EE00012921292129212921292129212921292A2
:104EF0001292129212921292129212921292129292
:104F0000129212921292129212921292CF0108955C
:104F1000EF92FF920F931F93CF93DF93EC018B01DE
:104F20007A014032510518F481E10E942E1708944D
:104F3000E108F108E00EF11EFA82E9821C830B837E
:104F4000DF91CF911F910F91FF90EF90089589E02D
:104F500095E19093970580939805089585E5809352
:104F6000180587E995E090931D0680931C0689E05B
:104F700095E1909397058093980508950E94C32525
:104F80000E94F21208950E94192808951F93DF933A
:104F9000CF930F92CDB7DEB7142F83708C626983E5
:104FA0000E9484286981613011F480E001C080E8AA
:104FB0000E944C28812F0E944C280E9440280F906C
:104FC000CF91DF911F910895DF93CF9300D0CDB79C
:104FD000DEB780E487B986E086B9379A369A369983
:104FE000FECF84B195B19A8389830F900F90CF91B2
:104FF000DF9108953798089597B18F71907E892B2E
:1050000087B9369A3699FECF24B135B1C9010895D2
:105010008EE10E94FC27BC0180E090E00E94343EBB
:105020009B01AC0164EA70E78DE994E40E94A03D25
:105030000895E1E7F0E08081808381E08093700053
:1050400084E08093740008958091740087FFFCCF02
:105050000895E4E7F0E08081806880830895CF932D
:10506000DF93C4E7D0E08881806288830E9429288A
:105070000E94242888818F7D8883DF91CF910895B5
:10508000809174008061809374000E94292880912F
:10509000740084FDFCCF0895809373000E9429283A
:1050A0000E94242880917100887F883241F090917D
:1050B0007100987F81E0983119F480E0089580E0D4
:1050C0000895009721F080917400806403C080915E
:1050D00074008F7B809374000E9429280E942428EA
:1050E000809173000895DF93CF930F92CDB7DEB711
:1050F00089830E942F288981880F81600E944C2813
:105100000F90CF91DF910895DF93CF930F92CDB79A
:10511000DEB789830E942F288981880F0E944C283E
:105120000F90CF91DF9108950E94E42781E0809352
:10513000E20308958091E203882311F40E949428E9
:105140000E94FA270895DF93CF930F92CDB7DEB771
:105150009091E203992321F489830E949428898104
:10516000A898A098813019F41D9A159A02C01D982C
:1051700015980F90CF91DF910895DF93CF930F9201
:10518000CDB7DEB79091E203992321F489830E9481
:10519000942889811D981598813019F4A89AA09AAD
:1051A00002C0A898A0980F90CF91DF9108958091A8
:1051B000E203882311F40E94942881E00E94A3282E
:1051C00081E00E94FC2708958091E203882311F476
:1051D0000E94942881E00E94BD2881E00E94FC2763
:1051E0000895AF92BF92CF92DF92EF92FF920F930A
:1051F0001F930E94E428BC0180E090E00E94343EAE
:105200008B017C0160E070EC8FE794E4202F312F5C
:105210004E2D5F2D0E943B3D20E030E44CE156E4F2
:105220000E940B3F202F312F4E2D5F2D0E94A03D5D
:105230000E94CB3E7B018C0120E030E040E450E452
:105240000E946E3FD62EC72EB82EA92EC801B701D8
:1052500029E733EE4DE759E30E940B3F28EC32E695
:1052600044E85AE30E943C3D7B018C01A601950174
:10527000652F742F832F922F2DE234EC4CE154E3F1
:105280000E940B3F9B01AC01C801B7010E943C3D4D
:105290009B01AC0160E070E080E89FE30E94A03DCC
:1052A0001F910F91FF90EF90DF90CF90BF90AF9044
:1052B00008950E94F12823E333E948E853E40E946B
:1052C0003B3D08950E94E4270E94C32781E080931C
:1052D000E30308958091E303882311F40E94622977
:1052E0000E94FA270895DF93CF930F92CDB7DEB7D0
:1052F0009091E303992321F489830E946229898193
:10530000813011F4AC9A01C0AC980F90CF91DF912D
:105310000895DF93CF930F92CDB7DEB79091E3035B
:10532000992321F489830E9462298981813011F4B3
:10533000AD9A01C0AD980F90CF91DF9108951F9362
:10534000182F8091E303882311F40E94622980E0E2
:105350000E94B329113019F4A89AA09A02C0A89803
:10536000A0981F9108951F93182F8091E30388231D
:1053700011F40E94622980E00E949F29113019F4E3
:105380001D9A159A02C01D9815981F910895DF93D4
:10539000CF930F92CDB7DEB79091E303992321F419
:1053A00089830E9462298981813011F4AA9A01C0FF
:1053B000AA980F90CF91DF910895DF93CF930F922A
:1053C000CDB7DEB79091E303992321F489830E943E
:1053D00062298981813011F4AB9A01C0AB980F909A
:1053E000CF91DF910895DF93CF930F92CDB7DEB7C2
:1053F000482F8091E303882321F449830E94622986
:10540000498180E061E00E94C6270F90CF91DF9133
:105410000895DF93CF930F92CDB7DEB7482F8091D9
:10542000E303882321F449830E946229498180E0B3
:1054300062E00E94C6270F90CF91DF910895DF931D
:10544000CF930F92CDB7DEB7482F8091E303882327
:1054500021F449830E946229498181E061E00E9430
:10546000C6270F90CF91DF910895DF93CF930F92CE
:10547000CDB7DEB79091E303992321F489830E948D
:1054800062298981882311F4AE9A03C0813009F41E
:10549000AE980F90CF91DF9108958091E303882318
:1054A00011F40E94622981E00E94B32981E00E94E8
:1054B000FC2708958091E303882311F40E94622958
:1054C00081E00E949F2981E00E94FC27089580913D
:1054D000E303882311F40E94622982E00E94FC27E2
:1054E00008958091E303882311F40E94622983E0E8
:1054F0000E94FC2708958091E303882311F40E9401
:10550000622984E00E94FC2708958091E3038823A8
:1055100011F40E94622985E00E94FC270895809181
:10552000E303882311F40E94622986E00E94FC278D
:10553000089589E993E00197F1F700C0DC98D49AC7
:1055400089E993E00197F1F700C0D498DC9ACC9BED
:10555000FECF80E007C091E39A95F1F700008F5FDE
:105560008F3149F0CC99F7CF89E993E00197F1F7B2
:1055700000C080E008958FEF0895882361F4DC98DF
:10558000D49A84EC8A95F1F700C0D498DC9A81E330
:105590008A95F1F70BC0DC98D49A88E18A95F1F7E7
:1055A00000C0D498DC9A8DED8A95F1F7000008953B
:1055B000DC98D49A82E08A95F1F700C0D498DC9AFE
:1055C00096E19A95F1F7000089B394EC9A95F1F77A
:1055D00000C090E08071907024E0959587952A95A1
:1055E000E1F70895FF920F931F93CF93DF93F82E67
:1055F000C0E0D0E001E010E098010C2E02C0220FC4
:10560000331F0A94E2F78F2D82230E94BD2A219630
:10561000C830D10589F7DF91CF911F910F91FF908D
:1056200008951F93CF93DF93C0E0D0E010E00E9475
:10563000D82A282F30E00C2E02C0220F331F0A94E4
:10564000E2F7122B2196C830D10589F7812FDF911F
:10565000CF911F9108958FE00E94F22A089580B59E
:105660008B7F80BDD498DC9A86EF8A95F1F70895F8
:10567000EF92FF920F931F93DF93CF9300D000D050
:10568000CDB7DEB77C0119821A821B821C820E9470
:10569000992A882339F0282F332727FD3095432F67
:1056A000532F27C00E942B2B0E94112B813019F001
:1056B0008EEFF70180838E010F5F1F4F0E94112B29
:1056C00089830E94112BF80181830E94112BF8011C
:1056D00082830E94112BF80183830E94112B0E9468
:1056E000112B0E94112BF701108229813A814B81E5
:1056F0005C81B901CA010F900F900F900F90CF916C
:10570000DF911F910F91FF90EF900895AA989598BF
:1057100087FF02C0939A01C09398959A959886FF47
:1057200002C0939A01C09398959A959885FF02C0FC
:10573000939A01C09398959A959884FF02C0939A82
:1057400001C09398959A959883FF02C0939A01C0DF
:105750009398959A959882FF02C0939A01C0939866
:10576000959A959881FF02C0939A01C09398959A53
:10577000959880FF02C0939A01C09398959A959A44
:10578000AA9A0895DF93CF9300D00F92CDB7DEB7DA
:10579000A89A19821FC0A898898180550E94862BDB
:1057A00080E10E94862B80E00E94862BA89A1B82B3
:1057B0001A8208C080E00E94862B8A819B81019614
:1057C0009B838A838A819B81803891059CF38981A0
:1057D0008F5F898389818830F0F20F900F900F904E
:1057E000CF91DF910895C498BC9A85B3876085BB3B
:1057F00084B3876084BB81B3886281BB939A88E756
:1058000085BB84B3877884BBA898A9988FEF9FE362
:10581000A2E081509040A040E1F700C00000A99AAA
:105820008FEF9FE3A2E081509040A040E1F700C0DD
:10583000000080E40E94862B81EA0E94862B80EC87
:105840000E94862B86EA0E94862B82EA0E94862B83
:105850008FE20E94862B88EF0E94862B80E00E94B8
:10586000862B87E20E94862B81E80E94862B80E1AE
:105870000E94862B8CEA0E94862B80E00E94862B59
:105880008FEA0E94862B0E94C22B0895813011F46A
:10589000C49A0895C4980895EF92FF920F931F93AE
:1058A000DF93CF930F92CDB7DEB7082F162FA898AE
:1058B000842F805599830E94862B812F82958F702B
:1058C00080610E94862B812F8F700E94862BA89A60
:1058D0009981602F792F7B011AC000E010E0D70179
:1058E000EC91B5E0EB9FF0011124E00FF11FE057C0
:1058F000FC4F84910E94862B0F5F1F4F05301105CE
:1059000071F780E00E94862B0894E11CF11CF701DE
:105910008081882311F70F90CF91DF911F910F9114
:10592000FF90EF900895609102087091030890E055
:105930000E94D442089580E00E94CA0F882349F053
:1059400080910008909101080E949242282F30E037
:1059500002C02FEF3FEFC9010895BF92CF92DF92AF
:10596000EF92FF920F931F93DF93CF9300D000D05D
:105970000F92CDB7DEB7D82EB62E20EA36E841E03A
:1059800050E029833A834B835C8381E19D830E94AD
:10599000932C8B2D0E94932C81E1C82ECB0C9D81E2
:1059A0000D2D192F09C07801F80181918F010E94F6
:1059B000932CF7018081C80E802F8D198B1598F3D9
:1059C0008C2D0E94932C0E949B2C29813A814B8123
:1059D0005C81215030404040504029833A834B83C2
:1059E0005C83863051F089819A81AB81BC810097BC
:1059F000A105B10541F78FEF01C080E00F900F9036
:105A00000F900F900F90CF91DF911F910F91FF900A
:105A1000EF90DF90CF90BF900895CF92DF92EF92FA
:105A2000FF920F931F93DF93CF9300D000D0CDB799
:105A3000DEB7F82E092F20EA36E841E050E029834E
:105A40003A834B835C8382E10E94932C81E00E9425
:105A5000932C83E50E94932C86E60E94932C0E944F
:105A60009B2C29813A814B815C8121503040404000
:105A7000504029833A834B835C83863061F02981CF
:105A80003A814B815C81211531054105510539F77A
:105A9000EE24E39401C0EE240E949B2C2FEF8F3F55
:105AA0009207D1F38131910559F50E949B2CEFEFBC
:105AB0008F3F9E07D1F3D82E91E1C92ECD0C802FB8
:105AC0000F2D182F0AC00E949B2CFFEF8F3F9F07BE
:105AD000D1F3F80181938F01C80E802F8F198D1596
