:100000000C94F0010C94E41F0C940F020C940F025A
:100010000C940F020C940F020C940F020C940F021C
:100020000C940F020C94B21F0C940F020C940F024C
:100030000C940F020C94101E0C940F020C94101EC2
:100040000C940F020C940F020C940F020C940F02EC
:100050000C940F020C940F020C940F020C940F02DC
:100060000C940F020C940F020C940F020C940F02CC
:100070000C940F020C940F020C940F020C940F02BC
:100080000C94431E0C940F020C940F020C940F025C
:100090000C940F020C940F020C940F020C940F029C
:1000A0000C940F020C940F020C940F020C940F028C
:1000B0000C940F020C940F020C940F020C940F027C
:1000C0000C940F020C940F020C940F020C940F026C
:1000D0000C940F020C940F020C940F020C940F025C
:1000E0000C940F020C94DD060C94CE060C949E0624
:1000F0000C9440060C948F060C9480060C946E06AB
:100100000C945F060C940F020C940F020C940F02D7
:100110000C940F020C940F020C940F020C940F021B
:100120002B0F310F340F370F3A0F3D0F430F400F96
:10013000460F490F4C0F550F580F5B0F5E0F520FB4
:10014000280F2E0F610F640F4F0F250F0D0A676FD9
:1001500074207561727420646174613A2000525891
:10016000207369676E616C206572726F72004765FB
:1001700074205369676E616C204552524F52210DB5
:100180000A00554E4B4F574E0045787465726E61AC
:100190006C2052657365740042726F776E204F75E4
:1001A0007420446574656374004661696C656420FD
:1001B000746F206372656174652053656D6170684A
:1001C0006F7265004661696C656420746F206372AC
:1001D00065617465205369676E616C004B65726E72
:1001E000656C2066756E6374696F6E206E6F742027
:1001F000696D706C656D656E7465640044657669E3
:10020000636520447269766572204572726F720070
:100210005761746368646F672052657374617274A8
:10022000005357205761746368646F672052657389
:10023000746172740054696D6572204F76657266E0
:100240006C6F7700556E68616E646C656420496EF2
:100250007465727275707420566563746F72004CA9
:100260006F7720566F6C74616765004578747261B2
:10027000205461736B20737461727465642C2069FF
:1002800073206E726B5F6366672E68206F6B3F0032
:1002900049646C65206F72204B65726E656C2053EB
:1002A0007461636B204F766572666C6F7700556E74
:1002B00065787065637465642052657374617274E7
:1002C000004475706C696361746564205461736B7C
:1002D000204944005363686564756C6572204D69FC
:1002E000737365642057616B657570005461736B3F
:1002F00020526573657276652056696F6C6174650E
:10030000640052657365727665204572726F722063
:10031000696E205363686564756C657200496E761A
:10032000616C696420537461636B20506F696E74F3
:100330006572005461736B20537461636B204F7658
:100340006572666C6F7700537461636B20776173BD
:10035000206E6F7420646566696E65642061732029
:100360006C6172676520656E6F7567682100546106
:10037000736B20706572696F6420746F6F206C619D
:100380007267652E20506572696F64206D75737495
:10039000206265206C657373207468616E2036314D
:1003A000207365636F6E64732E00293A20002A4E15
:1003B000524B204552524F5228000D0A535441438C
:1003C0004B2044554D500D0A004546476566670071
:1003D000202B2D2E30313233343536373839680002
:1003E00011241FBECFEFD1E4DEBFCDBF13E0A0E0EC
:1003F000B2E0E8E8F8E500E00BBF02C007900D921C
:10040000AE3BB107D9F71AE0AEEBB3E001C01D92E5
:10041000A633B107E1F70E941E030C94422C0C9402
:10042000F81D0E94771700D000D0EDB7FEB73196C7
:1004300020E032E0ADB7BEB712963C932E931197F1
:10044000828313820E94EF290F900F900F900F90DC
:1004500083E090E00E949D0A0E94E416F9CFDF92AB
:10046000EF92FF920F931F9300D000D081E192E0B2
:10047000ADB7BEB712969C938E93119714961C92AB
:100480001E9213970E94EF290F900F900F900F90DC
:100490000E94771700D000D0EDB7FEB731962BE25F
:1004A00032E0ADB7BEB712963C932E93119782837C
:1004B00013820E94EF290F900F900F900F900E94CF
:1004C0002B07D82E8F3F21F48EE691E00E943C0747
:1004D0008D2D0E943F1281E0E82EF12C012D112D6F
:1004E00004C0EE0CFF1C001F111FDA94D2F716C0D7
:1004F00080912C0A90912D0A0E948129D82E90E09B
:100500000E94012ABD2DB83729F481E090E00E94B5
:10051000CD0A04C081E090E00E94B50A80E00E940C
:100520002D07882329F7C801B7010E94E6126E152E
:100530007F058007910721F08EE591E00E943C073E
:100540008CE491E00E943C07E9CF1F93CF93DF93A7
:100550008FE292E09093CA038093C903C4ECD3E086
:10056000CE016BEE75E040E052E00E945A2011E0AF
:1005700018871F8319871A878AE090E0A0E0B0E00F
:100580008B879C87AD87BE8780E892EBA6EEBEE0A6
:100590008F87988BA98BBA8B1B8A1C8A1D8A1E8A0F
:1005A00080E890EFAAEFB2E08F8B988FA98FBA8F77
:1005B0001B8E1C8E1D8E1E8E1F8E18A219A21AA2B3
:1005C000CE010E94301581E192E09093F60880936D
:1005D000F508C0EFD8E0CE0167EE73E040E052E0EE
:1005E0000E945A2082E088871F8319871A871B86FA
:1005F0001C861D861E8680E095E6ADECBDE18F87EA
:10060000988BA98BBA8B1B8A1C8A1D8A1E8A80E054
:1006100091EEA5EFB5E08F8B988FA98FBA8F1B8EC7
:100620001C8E1D8E1E8E1F8E18A219A21AA2CE011C
:100630000E943015DF91CF911F9108950E945C07B1
:1006400080E190E00E94200B8CE392E00E94082A57
:100650000E94F90B82E090E00E94B50A83E090E0EE
:100660000E94B50A81E090E00E94CD0A80E090E00F
:100670000E94B50A60E070E0CB0120E030E0A90103
:100680000E94E8180E94A5020E94B40C80E090E04D
:100690000895909141019F719F31D9F38093420158
:1006A0000895809141018F718F31D9F3809141017B
:1006B0008F71D1F08F30C1F0809141018F718830FE
:1006C00041F088E00E944903809141018F71883098
:1006D000D9F780913901826080933901809141017D
:1006E0008F7111F08F30D1F70895809141018F7192
:1006F0008F31D9F3809141018F7111F08F3051F416
:10070000809139018D7F80933901809141018F71F2
:100710008830D9F70895E5E4F1E09081907F9083E7
:1007200090818F70892B80830895E7E5F1E08081C7
:100730008D7F80830895E7E5F1E08081826080838A
:100740000895EEE6F1E080818F7E80830895EEE6E5
:10075000F1E08081806180830895809360019093AF
:1007600061019093220980932109089590931C09B7
:1007700080931B09E8E4F1E08081807E80838081A2
:10078000682B608308959093BF038093BE03089500
:100790001F9370E27093440170EC709345016062A6
:1007A0006093480165EC6093490167EA60934B01EF
:1007B00060E860934C0120936001309361014093A5
:1007C000620150936301E6E4F1E01081A081608151
:1007D00070811295169517701295110F110F107CDC
:1007E000729576957370172BA295A695A770B0E0B9
:1007F000A370B07074E0AA0FBB1F7A95E1F71A2BB3
:1008000062956695677070E063707070660F771F11
:10081000660F771F162B10936D016081E081E295C2
:10082000E695E370E06462956695677070E06370CA
:100830007070660F771FE62BE0936E0110926C01CB
:100840006FEF60934E0190931C0980931B091092E7
:100850001D0910921E095093200940931F093093DF
:100860002209209321091092230981E080932D0908
:1008700010923C0910922C091F91089586E10E9464
:100880004903089586E10E944903089588E00E9483
:10089000490310923C0908952F923F924F925F9224
:1008A0007F928F929F92AF92BF92CF92DF92EF9200
:1008B000FF920F931F93CF93DF93EC011B01809165
:1008C0002D09882309F401C18E8190911D099F5F34
:1008D00090931D09E1E8F1E081708295880F8072A4
:1008E00081648093810188E8818380911D098283DE
:1008F0009091630180916201392F20E090E0822B7A
:10090000932B9483838388819981968385839091A7
:10091000610180916001392F20E090E0822B932BC0
:10092000908787834A81242F332727FD30956B8159
:100930007C818AE891E0532F0E942D298A81855F6E
:1009400080938001709041018FE17822872D815042
:100950008230C0F3872D8131A9F3823199F38F3131
:1009600089F3883039F0863029F0863119F08930E2
:1009700009F0ABC086E10E9449038D81882369F0AC
:10098000809148018068809348018091410187FFF0
:10099000FCCF8091410186FF98C089E00E94490305
:1009A0008E81882319F089E10E94490321143104C2
:1009B000A9F184E299E00E947D1780912409909129
:1009C0002509A0912609B091270980932E099093BB
:1009D0002F09A0933009B0933109B10180E090E074
:1009E00020E432E44FE050E00E949628209128094C
:1009F0003091290940912A0950912B09620F731FE8
:100A0000841F951F609332097093330980933409D2
:100A1000909335098EE299E00E946A1810922C0991
:100A200082E00E9449034424552408C00894411CD4
:100A3000511C88EE48168DEF580621F080912C0944
:100A40008823A1F32114310459F184E299E00E9432
:100A50007D178DE399E000912E0910912F092091C7
:100A60003009309131094091320950913309609138
:100A70003409709135098090240990902509A0903F
:100A80002609B0902709C0902809D0902909E09044
:100A90002A09F0902B090E94DB178F3F09F0BECF87
:100AA0008E81882331F080914201829586958770EE
:100AB00029F488EE48168DEF580611F41FEF01C097
:100AC00011E0872D0E94490301C01FEF812FDF91A4
:100AD000CF911F910F91FF90EF90DF90CF90BF903B
:100AE000AF909F908F907F905F904F903F902F900E
:100AF000089560E070E00E944C0408950F931F93E6
:100B000080912D09882349F1109141011F71812F96
:100B100081508230C8F31131B9F31231A9F31F317A
:100B200099F3183021F0163011F01631B1F486E146
:100B30000E94490380914801806880934801809118
:100B4000410187FFFCCF00914101812F0E944903A1
:100B500081E006FD03C080E001C08FEF1F910F917F
:100B6000089580912D09882309F484C080913C095F
:100B7000882309F481C080917B01E0911B09F091E9
:100B80001C0990E002972481332727FD3095281710
:100B900039070CF473C0E0911B09F0911C09809196
:100BA00082018083E0911B09F0911C0980918701EB
:100BB0009091880192838183E0911B09F0911C0937
:100BC00080917B018B508383A0911B09B0911C09FC
:100BD000E0911B09F0911C0913969C911397848155
:100BE00089173CF0E0911B09F0911C09838187FF74
:100BF0000DC010923C0980914C018F7780934C017D
:100C000080914C01806880934C0134C0E0911B09B5
:100C1000F0911C09A0911B09B0911C0913964C91ED
:100C2000242F332727FD30958581968169E871E06F
:100C3000532F0E942D29E0911B09F0911C098091EE
:100C400080018295869581708783E0911B09F091E0
:100C50001C0980914701808710923C0980914C01CA
:100C60008F7780934C0180914C01806880934C0178
:100C700081E008958FEF089580E008958FEF089543
:100C80001F920F920FB60F9211248F939F9380E0C3
:100C900001C08F5F90917B018917D8F38091460145
:100CA00087FF03C081E080933C0988E080934F0177
:100CB0009F918F910F900FBE0F901F9018951F92CC
:100CC0000F920FB60F9211248F9380E880934F01FB
:100CD0008F910F900FBE0F901F9018951F920F923B
:100CE0000FB60F9211248F9381E080932C0980E43A
:100CF00080934F018F910F900FBE0F901F9018950A
:100D00001F920F920FB60F9211248F9380E280935F
:100D10004F018F910F900FBE0F901F9018951F924B
:100D20000F920FB60F9211248F9380E180934F01A1
:100D30008F910F900FBE0F901F9018951F920F92DA
:100D40000FB60F920BB60F9211242F933F934F9330
:100D50005F936F937F938F939F93AF93BF93EF9323
:100D6000FF9384E080934F01E091BE03F091BF03B5
:100D7000309709F00995FF91EF91BF91AF919F9145
:100D80008F917F916F915F914F913F912F910F9034
:100D90000BBE0F900FBE0F901F9018951F920F92D1
:100DA0000FB60F9211248F9382E080934F018F91A1
:100DB0000F900FBE0F901F9018951F920F920FB6B5
:100DC0000F9211248F9381E080934F018F910F90A8
:100DD0000FBE0F901F901895E9E4F1E09081907F8D
:100DE000908390818F70892B808308958FEF089571
:100DF0000895089508958FEF0895809117099091AF
:100E00001809089580E00895089581E0089581E02B
:100E1000089581E008950895089508950895089526
:100E20000895089508958091C00087FFFCCF8091B8
:100E3000C0008F778093C0008091C6000895909184
:100E4000C00095FFFCCF9091C0009F7D9093C000A3
:100E50008093C60008958FEF0895813019F4809132
:100E6000C80004C0882331F48091C000881F8827FF
:100E7000881F089580E00895CF93DF93EC0107C0A9
:100E800060912E0A70912F0A90E00E94C329FE0102
:100E9000219684918823A1F7DF91CF91089586E070
:100EA00084B985B988EF8AB980EF8BB982E08EB9B1
:100EB00080E681B9169A08950E944F0708958F3FE2
:100EC00009F471C0282F30E02770307022303105CE
:100ED00089F12330310544F42115310589F02130A1
:100EE000310509F062C01AC02430310509F43FC051
:100EF0002430310574F12530310509F056C045C064
:100F000092B186958695869541E050E002C0440FE7
:100F1000551F8A95E2F7942B92B919C095B1869521
:100F20008695869502C0220F331F8A95E2F7922B91
:100F300095B90DC098B186958695869541E050E0AB
:100F400002C0440F551F8A95E2F7942B98B981E0AF
:100F500008959BB186958695869541E050E002C044
:100F6000440F551F8A95E2F7942B9BB9F0CF9EB1A1
:100F700086958695869541E050E002C0440F551F46
:100F80008A95E2F7942B9EB9E2CF91B38695869528
:100F9000869541E050E002C0440F551F8A95E2F764
:100FA000942B91BBD4CF8FEF08958FEF08958F3F8F
:100FB00009F477C0282F30E02770307022303105D7
:100FC00099F12330310544F42115310589F02130A0
:100FD000310509F068C01BC02430310509F443C055
:100FE000243031058CF12530310509F05CC04AC050
:100FF00092B186958695869541E050E002C0440FF7
:10100000551F8A95E2F74095492342B91BC095B117
:1010100086958695869502C0220F331F8A95E2F742
:101020002095292325B90EC098B186958695869579
:1010300041E050E002C0440F551F8A95E2F7409509
:10104000492348B981E008959BB186958695869598
:1010500041E050E002C0440F551F8A95E2F74095E9
:1010600049234BB9EFCF9EB186958695869541E091
:1010700050E002C0440F551F8A95E2F7409549237E
:101080004EB9E0CF91B386958695869541E050E0C4
:1010900002C0440F551F8A95E2F74095492341BB92
:1010A000D1CF8FEF08958FEF08958F3F89F1282FCB
:1010B00030E02770307022303105C1F02330310527
:1010C0003CF42115310571F02130310509F50CC0D2
:1010D0002430310579F02430310554F025303105C4
:1010E000B9F40AC020B109C023B107C026B105C0B8
:1010F00029B103C02CB101C02FB130E0869586958F
:10110000869502C0359527958A95E2F7217001C032
:101110002FEF822F08958F3F09F4FAC0282F30E077
:10112000277030702230310509F459C02330310561
:1011300044F42115310591F02130310509F0EAC060
:1011400033C02430310509F497C0243031050CF444
:101150006CC02530310509F0DDC0B4C090B1869572
:1011600086958695282F892F90E0022E02C09595AE
:1011700087950A94E2F780FD0BC032B181E090E0E0
:1011800002C0880F991F2A95E2F7382B32B966C042
:1011900032B181E090E002C0880F991F2A95E2F7F2
:1011A0008095832382B95AC043B1869586958695EA
:1011B00050E0082E02C0559547950A94E2F702C008
:1011C000220F331F8A95E2F740FD04C085B1822BC0
:1011D00085B944C085B12095282325B93FC096B173
:1011E000869586958695282F892F90E0022E02C03D
:1011F000959587950A94E2F780FD0BC038B181E0A0
:1012000090E002C0880F991F2A95E2F7382B38B971
:1012100025C038B181E090E002C0880F991F2A955F
:10122000E2F78095832388B919C099B18695869590
:101230008695282F892F90E0022E02C095958795DC
:101240000A94E2F780FD0CC03BB181E090E002C05F
:10125000880F991F2A95E2F7382B3BB981E0089552
:101260003BB181E090E002C0880F991F2A95E2F718
:10127000809583238BB9F2CF9CB186958695869510
:10128000282F892F90E0022E02C0959587950A9409
:10129000E2F780FD0BC03EB181E090E002C0880F14
:1012A000991F2A95E2F7382B3EB9D8CF3EB181E09D
:1012B00090E002C0880F991F2A95E2F7809583235A
:1012C0008EB9CCCF9FB1869586958695282F892F8C
:1012D00090E0022E02C0959587950A94E2F780FD72
:1012E0000BC031B381E090E002C0880F991F2A95AE
:1012F000E2F7382B31BBB2CF31B381E090E002C0CE
:10130000880F991F2A95E2F78095832381BBA6CF8A
:101310008FEF08958FEF08958F3F09F401C1282FB3
:1013200030E0662309F08DC027703070223031051F
:10133000E1F12330310544F42115310591F02130DC
:10134000310509F0EDC020C02430310509F453C047
:10135000243031050CF43CC02530310509F0E0C0E3
:101360005DC091B186958695869541E050E002C0BA
:10137000440F551F8A95E2F7842F8095892381B900
:1013800082B1842B82B9CAC094B186958695869520
:1013900002C0220F331F8A95E2F7822F809589239E
:1013A00084B985B1822B85B9B9C097B186958695E8
:1013B000869541E050E002C0440F551F8A95E2F740
:1013C000842F8095892387B988B1842B88B9A6C0DA
:1013D0009AB186958695869541E050E002C0440F0B
:1013E000551F8A95E2F7842F809589238AB98BB19E
:1013F000842B8BB993C09DB186958695869541E0E7
:1014000050E002C0440F551F8A95E2F7842F809563
:1014100089238DB98EB1842B8EB980C090B3869507
:101420008695869541E050E002C0440F551F8A958D
:10143000E2F7842F8095892380BB81B3842B81BB05
:101440006DC0277030702230310589F123303105AD
:1014500044F42115310589F02130310509F062C0CD
:101460001AC02430310509F43EC0243031056CF136
:101470002530310509F056C044C091B18695869556
:10148000869541E050E002C0440F551F8A95E2F76F
:10149000942B91B943C094B186958695869502C0E8
:1014A000220F331F8A95E2F7922B94B937C097B178
:1014B00086958695869541E050E002C0440F551F01
:1014C0008A95E2F7942B97B929C09AB186958695AB
:1014D000869541E050E002C0440F551F8A95E2F71F
:1014E000942B9AB91BC09DB186958695869541E04F
:1014F00050E002C0440F551F8A95E2F7942B9DB926
:101500000DC090B386958695869541E050E002C067
:10151000440F551F8A95E2F7942B90BB81E0089504
:101520008FEF08958FEF0895882329F481E0019BC0
:1015300003C080E008958FEF0895009711F483E2CF
:101540000EC08130910511F48BE209C08230910503
:1015500011F483E304C08330910529F48BE30E94E6
:101560008B0881E008958FEF0895009711F483E2CE
:101570000EC08130910511F48BE209C082309105D3
:1015800011F483E304C08330910529F48BE30E94B6
:101590005F0781E008958FEF0895009711F483E2CB
:1015A0000EC08130910511F48BE209C082309105A3
:1015B00011F483E304C08330910529F48BE30E9486
:1015C000D70781E008958FEF0895882319F085B734
:1015D0008F7E02C085B7806185BF81E008959091BC
:1015E000C80095FFFCCF8093CE0008959093C5006E
:1015F0008093C40086E08093C200E1ECF0E080813B
:101600008B7F8083A0ECB0E08C9182608C93808192
:101610008861808308959093CD008093CC0086E00C
:101620008093CA00E9ECF0E080818B7F8083A8EC96
:10163000B0E08C9182608C93808188618083089572
:101640000F931F93CF93DF930E94F60ACFE1D7E069
:1016500003E117E0CE01B8010E94362990932F0ACA
:1016600080932E0ACE01B8010E94362990932D0A4C
:1016700080932C0ADF91CF911F910F910895809153
:10168000C80087FFFCCF8091C8008F778093C80087
:101690008091CE0008950000000000000000019736
:1016A000D1F708950E94CD2A08950E94D52A089561
:1016B000EF92FF920F931F93CF93DF93E82EE701F2
:1016C0007E01F92EE70180E090E00E94CD2A082FEC
:1016D0008B8381E090E00E94CD2AE82E8A8382E00D
:1016E00090E00E94CD2AF82E898383E090E00E944A
:1016F000CD2A182F888384E090E00E94CD2AFE0C2A
:10170000F00EF10E8F1511F481E001C08FEFDF9123
:10171000CF911F910F91FF90EF900895CF93DF939A
:10172000EC0185E090E00E94CD2A888381E0DF9182
:10173000CF910895FC0186E090E060810E94D52A57
:1017400081E00895CF93DF93EC0186E090E00E9462
:10175000CD2A888381E0DF91CF9108950F931F9365
:10176000CF93DF93082F192FC8E0D0E0CE010E945D
:10177000CD2AF80181938F012196C831D105B1F7A7
:1017800081E0DF91CF911F910F9108950F931F93E7
:10179000CF93DF93082F192FC8E0D0E0F8016191B3
:1017A0008F01CE010E94D52A2196C831D105B1F70B
:1017B00081E0DF91CF911F910F910895CF93DF9337
:1017C000EC0187E090E00E94CD2A888381E0DF91E0
:1017D000CF910895FC0187E090E060810E94D52AB6
:1017E00081E00895F8940895789408950E94F20B8A
:1017F000FFCF0F931F93DF93CF93CDB7DEB7A397A0
:101800000FB6F894DEBF0FBECDBF0E943611809395
:10181000F2098F3F21F48EE060E00E94BE0F0E942B
:101820007F1E80FF04C086E060E00E94BE0F109221
:10183000F5091092030A1092020A1092F40910920C
:10184000F3091092040A1092010A8FEF8093EE09B7
:101850008093F0098093EF0993E690935109809368
:101860004F09909372098093700990939309809324
:1018700091099093B4098093B2099093D50980930C
:10188000D309E8E0FAE020E030E001C09A01A901C4
:101890004F5F5F4FCA01880F991F880F991F840FF0
:1018A000951F8B5F954F91838083C901880F991F86
:1018B000880F991F820F931F8B5F954F94838383AB
:1018C00035964530510511F71092070A1092060A15
:1018D0001092220A1092210A1092F8091092F70928
:1018E00085E09AE090934609809345098E010F5F49
:1018F0001F4FC80168E47AE10E945620C80160EFDA
:1019000077E040E850E00E945A2085E58093F00798
:1019100019861C861D861E861F86188A198A1A8AB1
:101920001B8A1C8A1D8A1E8A1F8A188E198E1A8E7F
:101930001B8E1C8E1D8E1E8E1F8E18A219A21AA21F
:101940001BA281E0888792E09A878B87C8010E945A
:101950003015A3960FB6F894DEBF0FBECDBFCF9162
:10196000DF911F910F910895CF92DF92FF920F9315
:101970001F93DF93CF9300D0CDB7DEB7BFE4CB2E5C
:10198000B9E0DB2E90E0F601F080FF2DFF3FB1F0D3
:101990000FE419E020E0921761F0F8018081F81659
:1019A00041F485E06F2D29839A830E94BE0F9A81AE
:1019B00029812F5F0F5D1F4F253069F79F5F21E25F
:1019C00030E0C20ED31E9530F1F60E941E14992706
:1019D00087FD9095FC01A5E0EE0FFF1FAA95E1F7AA
:1019E000E80FF91FE95BF64F82858093040AF093B4
:1019F000030AE093020AF093F409E093F309809359
:101A0000F5090E94BA200E94A4200E94BF20FFCFA7
:101A1000EF92FF920F931F93CF93DF93EC017B0123
:101A20008A018985823021F08091F109888301C083
:101A300018828091F109853020F087E060E00E94F3
:101A4000BE0F8985823029F08091F1098F5F8093E4
:101A5000F1098091F109882319F481E08093F1095B
:101A60008881992787FD9095FC01A5E0EE0FFF1F67
:101A7000AA95E1F7E80FF91FE95BF64FF182E082E2
:101A8000888582878881992787FD9095FC0175E07C
:101A9000EE0FFF1F7A95E1F7E80FF91FE95BF64FAC
:101AA00083E081872881822F992787FD9095FC010B
:101AB00065E0EE0FFF1F6A95E1F7E80FF91FE95B9C
:101AC000F64F20878881992787FD90957C0155E006
:101AD000EE0CFF1C5A95E1F7E80EF91E87E499E039
:101AE000E80EF91EF7011582CE010B960E94F91837
:101AF000F701948F838F8B859C85AD85BE858E3352
:101B00009105A105B10520F086E168810E94BE0F14
:101B1000E880FF24E7FCF094CE014B960E94F91870
:101B2000F70145E0EE0FFF1F4A95E1F7EE0DFF1DAF
:101B3000E95BF64F968B858B8881992787FD909579
:101B40007C0135E0EE0CFF1C3A95E1F7E80EF91E3A
:101B500087E499E0E80EF91EF70185899689238DBF
:101B6000348D820F931F908F878BCE0143960E94F6
:101B7000F918F701968F858F8881992787FD9095B1
:101B8000FC0125E0EE0FFF1F2A95E1F7E80FF91F92
:101B9000E95BF64F858D968D928F818F81E090E085
:101BA00090A3878F1383028381E08487DF91CF9195
:101BB0001F910F91FF90EF9008950E94631A08956E
:101BC00085E690E00895E091020AF091030A848787
:101BD0000895E091020AF091030A84850895209106
:101BE000EF07222341F0FB0120832091C203FC0177
:101BF000208381E0089580E00895DF93CF930F92D2
:101C0000CDB7DEB7198207C080ED97E00E94AD1C0A
:101C100089818F5F898389818436B0F30F90CF915A
:101C2000DF91089582E090E00E94CD0A0E94FD0DB0
:101C300082E090E00E94B50A0E94FD0D089582E0C6
:101C400090E00E94CD0A0E94FD0D0E94FD0D0E94B1
:101C5000FD0D82E090E00E94B50A0E94FD0D0895FE
:101C6000FF920F931F93DF93CF9300D00F92CDB7C6
:101C7000DEB700D000D000D0EDB7FEB731968E01B0
:101C80000F5F1F4FADB7BEB712961C930E931197FF
:101C900026E632E033832283848315820E943F2A22
:101CA000EDB7FEB736960FB6F894FEBF0FBEEDBF88
:101CB000FF2472C0800F911FDC018C918433D1F11D
:101CC000853370F48133F9F0823320F4803309F0E6
:101CD0005CC016C0823311F1833309F056C023C0B3
:101CE0008733C9F1883330F4853369F1863309F0DD
:101CF0004CC02CC08833B1F1893309F046C03BC0D9
:101D00000E941F0E02C00E94120E0E941F0E0E940F
:101D10001F0E0E941F0E0E941F0E37C00E94120E3F
:101D20000E94120EF4CF0E94120E0E94120E0E9408
:101D3000120EEFCF0E94120E0E94120E0E94120E7F
:101D40000E94120EE8CF0E94120E02C00E941F0EC7
:101D50000E94120E04C00E941F0E0E941F0E0E94BD
:101D6000120E06C00E941F0E0E941F0E0E941F0E20
:101D70000E94120E08C00E941F0E0E941F0E0E9499
:101D80001F0E0E941F0E0E94120E0E94FD0D0E9447
:101D9000FD0D0E94FD0DF394F80101900020E9F77C
:101DA0003197E01BF10B8F2D90E08E179F0708F401
:101DB00081CF0F900F900F90CF91DF911F910F91D6
:101DC000FF9008950F931F938091EF07882319F4D4
:101DD0001F910F9108950E94F20B0E94F20B8EEA60
:101DE00093E00E943C0700D000D0EDB7FEB73196DB
:101DF00086E692E0ADB7BEB712969C938E9311978C
:101E00008091C203828313820E94EF290F900F906A
:101E10000F900F908AEA93E00E943C078091EF07B1
:101E2000883110F01092EF078091EF0790E0019752
:101E30008631910508F04BC080579F4FFC01EE0F93
:101E4000FF1F0590F491E02D09948EE693E041C0C8
:101E500087E493E03EC083E393E03BC08DE193E0F1
:101E600038C082E093E035C08CEE92E032C084ED61
:101E700092E02FC081EC92E02CC08EEA92E029C063
:101E800080E992E026C08BE692E023C08FE592E0E5
:101E900020C084E492E01DC085E392E01AC081E294
:101EA00092E017C080E192E014C08CEF91E011C085
:101EB0008CED91E00EC084EC91E00BC089EA91E0DA
:101EC00008C088E991E005C089E891E002C082E895
:101ED00091E00E943C0760912E0A70912F0A8DE0DC
:101EE00090E00E94C32960912E0A70912F0A8AE027
:101EF00090E00E94C32910E01FC082E090E00E94A1
:101F0000CD0A83E090E00E94B50A04E688EE93E0F3
:101F10000E94AD1C0150D1F783E090E00E94CD0AF1
:101F200082E090E00E94B50A04E688EE93E00E9409
:101F3000AD1C0150D1F71F5F1431FCF283E090E03B
:101F40000E94B50A82E090E00E94B50A8091C20327
:101F50000E94300E0E94FD0D82E090E00E94CD0AAA
:101F60000E94FD0D82E090E00E94B50A0E94FD0DE6
:101F70008091EF070E94300E10E0BFCFEF92FF92EA
:101F80000F931F93182FE62E8093EF076093C203E1
:101F90000E94E20E00E021C082E090E00E94CD0AA3
:101FA00083E090E00E94B50A94E6F92E88EE93E073
:101FB0000E94AD1CFA94D1F783E090E00E94CD0A14
:101FC00082E090E00E94B50A84E6F82E88EE93E065
:101FD0000E94AD1CFA94D1F70F5F0431E8F283E060
:101FE00090E00E94B50A82E090E00E94B50A8E2D32
:101FF0000E94300E812F0E94300E00E0CDCF8093E2
:10200000EF07E091020AF091030A80858093C203F2
:102010000E94E20E08956F927F928F929F92AF92EC
:10202000BF92CF92DF92EF92FF920F931F93CF93C5
:10203000DF938AEB93E00E943C0700D000D089E652
:1020400092E0ADB7BEB712969C938E931197E09134
:10205000020AF091030A8085992787FD90951496CE
:102060009C938E9313970E94EF29E091020AF091BE
:10207000030AC281D38182E792E0EDB7FEB7928373
:102080008183D483C3830E94EF29EDB7FEB73196D5
:102090006FE7E62E62E0F62EADB7BEB71296FC9261
:1020A000EE9211978881828313820E94EF295CE867
:1020B000C52E52E0D52EEDB7FEB7D282C182E09197
:1020C000020AF091030A80819181ADB7BEB71496E0
:1020D0009C938E9313970E94EF2946E9A42E42E029
:1020E000B42EEDB7FEB7B282A1828091020A909120
:1020F000030A948383830E94EF2907E419E00F9079
:102100000F900F900F90C0E0D0E036EA632E32E0DF
:10211000732E4701C601DC2CC92EC501BA2CA92E8D
:10212000D8011296ED90FC90139700D000D000D00B
:10213000EDB7FEB73196ADB7BEB712967C926E92F0
:102140001197D383C283F582E4820E94EF290F9016
:102150000F90EDB7FEB73196ADB7BEB711968C9222
:10216000119712969C92D7018C91828313820E94C0
:10217000EF29EDB7FEB7D182C282D8018D919C9133
:10218000948383830E94EF29EDB7FEB7B182A282C8
:10219000CE0125E0880F991F2A95E1F78C0F9D1F2E
:1021A000895B964F948383830E94EF2921960F5D6C
:1021B0001F4F0F900F900F900F90C530D10509F071
:1021C000AFCFDF91CF911F910F91FF90EF90DF90F4
:1021D000CF90BF90AF909F908F907F906F90089519
:1021E000CF93DF93E091020AF091030AC281D38179
:1021F0008881853539F00E940B1081E00E94FF0F25
:1022000085E58883E091020AF091030A808191813B
:1022100022E28030920728F00E940B1082E10E9497
:10222000FF0FDF91CF910895992787FD9095FC01CD
:1022300075E0EE0FFF1F7A95E1F7E80FF91FE95BF4
:10224000F64FA281B3818C91853519F085E58C9389
:1022500009C08081918122E28030920728F082E1DA
:102260000E94FF0F8FEF089581E008956091E705C8
:102270007091E8058091E9059091EA05E0E0F0E0D1
:102280009B01AC010E2E04C05695479537952795B6
:102290000A94D2F720FD1AC021E030E040E050E07F
:1022A0000E2E04C0220F331F441F551F0A94D2F76D
:1022B000262B372B482B592B2093E7053093E80525
:1022C0004093E9055093EA058E2F08953196E03248
:1022D000F105B1F68FEF0895E091020AF091030A3B
:1022E00065857685878590890895DF92EF92FF92C4
:1022F0000F931F93D82E81E0E82EF12C012D112D84
:102300000D2C04C0EE0CFF1C001F111F0A94D2F705
:102310008091E7059091E805A091E905B091EA0563
:102320008E219F21A023B1230097A105B10509F4B7
:102330005DC00E94F20BEEE4F9E0A8019701209540
:1023400030954095509563E081818F3F39F18681CA
:102350009781A085B1858E159F05A007B10731F43F
:102360001286138614861586108262838681978171
:10237000A085B18582239323A423B52386839783E5
:10238000A087B18782859385A485B5858223932311
:10239000A423B52382879387A487B587B19689E064
:1023A000E33FF80789F62EEF3FEF4FEF5FEF04C0F2
:1023B000220F331F441F551FDA94D2F78091E7058F
:1023C0009091E805A091E905B091EA058223932355
:1023D000A423B5238093E7059093E805A093E9052E
:1023E000B093EA050E94F40B81E001C08FEF1F91CA
:1023F0000F91FF90EF90DF900895EF92FF920F936F
:102400001F9321E030E040E050E004C0220F331F72
:10241000441F551F8A95D2F7E091020AF091030AF2
:1024200085859685A785B08979018A01E822F922F8
:102430000A231B23E114F10401051105D1F02095B5
:1024400030954095509582239323A423B523858707
:102450009687A787B08B81899289A389B4898223C3
:102460009323A423B523818B928BA38BB48B81E020
:1024700001C08FEF1F910F91FF90EF900895209171
:10248000E7053091E8054091E9055091EA05082EED
:1024900004C056954795379527950A94D2F7217031
:1024A000307021153105E9F0E091020AF091030A3C
:1024B00021E030E040E050E004C0220F331F441F11
:1024C000551F8A95D2F785859685A785B089822B79
:1024D000932BA42BB52B85879687A787B08B81E09C
:1024E00008958FEF0895EF92FF920F931F93DF935C
:1024F000CF930F92CDB7DEB791E0E92EF12C012DED
:10250000112D04C0EE0CFF1C001F111F8A95D2F77D
:102510008091E7059091E805A091E905B091EA0561
:102520008E219F21A023B1230097A105B10511F4AD
:1025300081E03FC00E94F20BEEE4F9E020E033E0DE
:1025400080818130A9F482859385A485B5858E210B
:102550009F21A023B1230097A105B10549F0328343
:10256000178616861082E286F3860487158721E097
:102570008081823091F482859385A485B5858E15FE
:102580009F05A007B10749F432831786168610828B
:10259000128613861486158621E0B19689E0E33F02
:1025A000F80771F629830E94F40B2981222329F46C
:1025B00082E00E94E30D8FEF01C081E00F90CF9188
:1025C000DF911F910F91FF90EF900895E091020A23
:1025D000F091030A258536854785508926233723C0
:1025E00048235923211531054105510521F1618BFE
:1025F000728B838B948B21E027830090F20904C0B7
:1026000096958795779567950A94D2F76170707063
:102610006115710519F00E941E1604C080E090E05B
:102620000E944516E091020AF091030A218932893D
:102630004389548903C020E030E0A901B901CA01EF
:10264000089580E090E0089529E08E3E920711F40D
:1026500080E008958FEF08950E9424138F3F11F4B6
:1026600081E003C0813029F482E00E94E30D8FEF06
:102670000895992787FD9095FC01EE0FFF1FE80F45
:10268000F91FE251F64F8FEF80838283818380911F
:10269000010A81508093010A81E008950F931F93EE
:1026A000DF93CF930F92CDB7DEB70E9424138F3FF5
:1026B00011F481E003C0813029F482E00E94E30D2F
:1026C0008FEF43C0282F332727FD30958901000F56
:1026D000111F020F131F0251164FD80112962C9191
:1026E00012979C91291784F589830E94F20BF801B7
:1026F00092819F5F9283E091020AF091030A148213
:10270000EEE4F9E08981992787FD9095A92FB92FEB
:1027100063E02081223089F4228533854485558504
:10272000281739074A075B0741F462831786168624
:1027300010821286138614861586B19629E0E33F2F
:10274000F20739F70E94F40B81E00F90CF91DF91EF
:102750001F910F9108950F931F93DF93CF930F92C3
:10276000CDB7DEB70E9424138F3F11F481E003C080
:10277000813029F482E00E94E30D8FEF40C089830D
:102780000E94F20B8981082F112707FD1095F8018F
:10279000EE0FFF1FE00FF11FE251F64F92819923D8
:1027A000B1F4E091020AF091030A97819260978355
:1027B000992787FD9095A92FB92F818B928BA38B99
:1027C000B48B0E94F40B80E090E00E944516F80163
:1027D000EE0FFF1FE00FF11FE251F64F8281815093
:1027E0008283A091020AB091030A81811B968C9387
:1027F0001B9781E014968C930E94F40B81E00F905C
:10280000CF91DF911F910F9108950E9424138F3F64
:1028100011F481E003C0813029F482E00E94E30DCD
:102820008FEF0895992787FD9095FC01EE0FFF1F0C
:10283000E80FF91FE251F64F82810895E091F70900
:10284000F091F80980810895E091F709F091F80975
:1028500003C00380F481E02D3097D9F70895DF920B
:10286000EF92FF920F931F93CF93DF93E09145096F
:10287000F0914609309709F49BC04091F7095091B7
:10288000F8094115510509F457C0DA01682F772777
:1028900067FD70959B0115E0220F331F1A95E1F734
:1028A000260F371F295B364FB901665F7F4F8901BD
:1028B0000C5F1F4F9BE0E92EF12CE20EF31E2C91D2
:1028C00030E0E90195E0CC0FDD1F9A95E1F7C20FEA
:1028D000D31FC95BD64F9C81992329F0DB84EB0180
:1028E0009881D91658F1E8019881992379F0E90186
:1028F00095E0CC0FDD1F9A95E1F7C20FD31FC95B9E
:10290000D64FDA84E7019881D916C0F0E90195E045
:10291000CC0FDD1F9A95E1F7C20FD31FC95BD64FCD
:102920002A85EB019881291748F013960D90BC91E8
:10293000A02D109721F602C0A0E0B0E08083C381F3
:10294000D481D0934609C0934509A417B507B1F4C3
:10295000109749F0B483A383128211821296FC93DC
:10296000EE93119706C01482138212821182FA83A9
:10297000E983F093F809E093F7091AC011968D9155
:102980009C911297AC17BD0759F092838183B48351
:10299000A3831196CD91DC911297FC83EB8304C045
:1029A00014821382928381831296FC93EE93119783
:1029B000DF91CF911F910F91FF90EF90DF900895DD
:1029C000CF93DF93E091F709F091F809309709F47C
:1029D00044C0992787FD9095208130E0281739075A
:1029E00081F4A381B481B093F809A093F7091296FA
:1029F0001C921E92119718C00380F481E02D30972D
:102A000061F1208130E028173907B1F7C181D28107
:102A1000838194819C838B83A381B481109721F05F
:102A20001296DC93CE931197A0914509B091460977
:102A3000109739F4F0934609E09345091482138204
:102A40000AC0B483A3831296FC93EE931197F0937C
:102A50004609E093450912821182DF91CF910895D2
:102A6000EF92FF920F931F93CF93DF93EC01698155
:102A70007A814B815C818D819E810E947920BC018D
:102A80008F81882369F04B815C81CE0120E030E0AA
:102A900000E010E0EE24FF240E94080D1F8213C006
:102AA0008881992787FD9095FC0125E0EE0FFF1F97
:102AB0002A95E1F7E80FF91FE95BF64F818583302E
:102AC000D1F4718360838881992787FD9095FC01FB
:102AD00005E0EE0FFF1F0A95E1F7E80FF91FE95B2C
:102AE000F64F85899689009741F482E08187888135
:102AF0000E942F1402C08FEF01C081E0DF91CF91BF
:102B00001F910F91FF90EF9008951F93DF93CF9344
:102B1000CDB7DEB728970FB6F894DEBF0FBECDBF96
:102B200029833A834B835C836D837E838F8398876D
:102B30000E94F20B0E94F51D182FCE0101960E94F3
:102B4000F9189C018330910560F0E091020AF09140
:102B5000030A210F311D368B258B0E94F40B81E077
:102B600001C08FEF28960FB6F894DEBF0FBECDBF21
:102B7000CF91DF911F9108950E944B20E091020AAE
:102B8000F091030A85818823B9F70895FF920F9386
:102B90001F93DF93CF93CDB7DEB728970FB6F89486
:102BA000DEBF0FBECDBF29833A834B835C836D8329
:102BB0007E838F8398870E94F0100E94F20BE09131
:102BC000020AF091030A81E0858381E090E090A3FE
:102BD000878F0E94F51DF82ECE0101960E94F918EC
:102BE000E091020AF091030A0F2D10E09801280FDE
:102BF000391F368B258B8F2D883F78F40E948C1DD2
:102C00000F5F1F4F282F30E00217130734F48F2D6A
:102C10008E5F8093EE070E94901D0E94F40B0E942D
:102C2000BC1581E028960FB6F894DEBF0FBECDBF6D
:102C3000CF91DF911F910F91FF9008951F930E94F4
:102C4000F20BE091020AF091030A81E0858386830A
:102C50000E94F51D182F883F88F40E948C1D212F9B
:102C600030E02F5F3F4F482F50E02417350734F4F2
:102C7000812F8E5F8093EE070E94901D0E94F40BBF
:102C80000E94BC1581E01F9108951F93CF93DF939D
:102C9000EC010E94F20BE091020AF091030A81E03C
:102CA0008583D68BC58B0E94F51D182F883F88F42D
:102CB0000E948C1D212F30E02F5F3F4F482F50E0A6
:102CC0002417350734F4812F8E5F8093EE070E941E
:102CD000901D0E94F40B0E94BC1581E0DF91CF9102
:102CE0001F910895EF92FF920F931F93DF93CF935D
:102CF0000F92CDB7DEB78C010E94F20BE091020A71
:102D0000F091030A81E085830E94F51DE091020A9B
:102D1000F091030AE82EFF240E0D1F1D168B058B64
:102D2000883F90F489830E948C1D0894E11CF11C5B
:102D3000282F30E09981E216F30634F4892F8E5F54
:102D40008093EE070E94901D0E94F40B0E94BC1518
:102D500081E00F90CF91DF911F910F91FF90EF9045
:102D600008951F93CF93DF93EC010E94F0102097FA
:102D700011F4C1E0D0E00E94F20BE091020AF09160
:102D8000030A81E08583D0A3C78F0E94F51D182F09
:102D9000883F88F40E948C1D212F30E02F5F3F4F29
:102DA000482F50E02417350734F4812F8E5F80932D
:102DB000EE070E94901D0E94F40B0E94BC1581E05A
:102DC000DF91CF911F9108951F930E94F0100E94F0
:102DD000F20BE091020AF091030A81E090E090A3E7
:102DE000878F81E085830E94F51D182F883F88F426
:102DF0000E948C1D212F30E02F5F3F4F482F50E065
:102E00002417350734F4812F8E5F8093EE070E94DC
:102E1000901D0E94F40B0E94BC1581E01F91089543
:102E2000E091020AF091030A80850E94E014E0918B
:102E3000020AF091030A84E081870E94E41681E08F
:102E400008958F929F92AF92BF92CF92DF92EF92AE
:102E5000FF920F931F93DF93CF93CDB7DEB76097A9
:102E60000FB6F894DEBF0FBECDBF29873A874B87D8
:102E70005C876D877E878F87988BCE0101960E9435
:102E80007D17CE01099609851A852B853C854D85D0
:102E90005E856F85788989809A80AB80BC80CD8083
:102EA000DE80EF80F8840E94DB178F3F61F0298578
:102EB0003A854B855C856D857E858F8598890E94D6
:102EC000C61581E001C08FEF60960FB6F894DEBFA3
:102ED0000FBECDBFCF91DF911F910F91FF90EF906B
:102EE000DF90CF90BF90AF909F908F900895E0912A
:102EF000020AF091030A80850895EF92FF920F93E2
:102F00001F93CF93DF93EC011C821D821E821F82D0
:102F10008091F9099091FA09A091FB09B091FC09FF
:102F200088839983AA83BB83E090FD09F090FE0912
:102F30000091FF091091000AEC82FD820E831F832D
:102F40000E94F51D682F70E080E090E023EB36EEE4
:102F50004EE050E00E9496286E0D7F1D801F911F4D
:102F60006C837D838E839F8313C080509A4CAA49C3
:102F7000BB438C839D83AE83BF8388819981AA8163
:102F8000BB810196A11DB11D88839983AA83BB8350
:102F90008C819D81AE81BF8180302AEC92072AE925
:102FA000A2072BE3B20708F7DF91CF911F910F9192
:102FB000FF90EF9008958F929F92AF92BF92CF9221
:102FC000DF92EF92FF920F931F93DF93CF93CDB7D2
:102FD000DEB760970FB6F894DEBF0FBECDBFFC0121
:102FE00009831A832B833C834D835E836F837887A9
:102FF00089869A86AB86BC86CD86DE86EF86F88A81
:10300000E980FA800B811C812D813E814F8158859A
:10301000A984BA84CB84DC848D859E85AF85B889EC
:10302000EA14FB040C051D0508F440C0AE14BF04EF
:10303000C006D10691F4281739074A075B07B0F19B
:10304000281B390B4A0B5B0B24833583468357833C
:10305000108211821282138227C0281739074A076B
:103060005B0790F40894E108F10801091109EA18D6
:10307000FB080C091D09E082F182028313832050B2
:1030800036434546544C08C0EA18FB080C091D0994
:10309000E082F18202831383281B390B4A0B5B0BFE
:1030A000248335834683578381E001C08FEF609688
:1030B0000FB6F894DEBF0FBECDBFCF91DF911F9149
:1030C0000F91FF90EF90DF90CF90BF90AF909F90C7
:1030D0008F900895FC0114C020503A4C4A495B433C
:1030E00024833583468357832081318142815381F4
:1030F0002F5F3F4F4F4F5F4F208331834283538376
:10310000248135814681578120308AEC38078AE94D
:1031100048078BE3580700F708958F929F92AF926C
:10312000BF92CF92DF92EF92FF920F931F93DF93A4
:10313000CF93CDB7DEB760970FB6F894DEBF0FBE62
:10314000CDBF09831A832B833C834D835E836F83BA
:10315000788789869A86AB86BC86CD86DE86EF86A2
:10316000F88A29853A854B855C85E980FA800B8150
:103170001C812E0D3F1D401F511FFC0120833183F8
:10318000428353832D853E854F855889ED80FE808F
:103190000F8118852E0D3F1D401F511F248335833D
:1031A000468357830E946A1881E060960FB6F894B0
:1031B000DEBF0FBECDBFCF91DF911F910F91FF906A
:1031C000EF90DF90CF90BF90AF909F908F90089539
:1031D0006093F9097093FA098093FB099093FC09B5
:1031E0002093FD093093FE094093FF095093000A94
:1031F00008958F929F92AF92BF92CF92DF92EF92FB
:10320000FF920F931F93FC012081318142815381F2
:1032100064817581868197812115310541055105AC
:1032200009F461C0223431054105510508F062C03E
:103230005B016C01EE24FF24870160E038C08A2C1A
:10324000AB2DA653F1E0AB1508F0F0E08C2D8656BF
:1032500091E08C1508F090E0F80F71E0F81708F095
:1032600070E0972B7D2D755CE1E07D1508F0E0E0C6
:10327000970F81E0971708F080E08E2B8E0DE1E02C
:103280008E1508F0E0E0EF0D71E0EF1508F070E04A
:10329000700FB1E0701708F0B0E0B10FA82CBA2E93
:1032A000CF2ED92EE82EFE2E072F1B2F6F5F862FD5
:1032B00090E0A0E0B0E082179307A407B50708F4F8
:1032C000BECF9501A601B701C801A3EBAA2EF6EE69
:1032D000BF2EEEE0CE2EDD24EE24FF2400E010E031
:1032E0000E94EA2009C023EB36EE4EE050E00E9437
:1032F000C92802C020E030E0C9011F910F91FF9062
:10330000EF90DF90CF90BF90AF909F908F900895F7
:10331000EF92FF920F931F93DF93CF93CDB7DEB75A
:1033200028970FB6F894DEBF0FBECDBF7B018C018E
:10333000BAE016950795F794E794BA95D1F7E98224
:10334000FA820B831C8373708070907023EB36EECF
:103350004EE050E00E9496286D837E838F8398878D
:103360002E2D3A814B815C8128960FB6F894DEBFF2
:103370000FBECDBFCF91DF911F910F91FF90EF90C6
:1033800008958F929F92AF92BF92CF92DF92EF9269
:10339000FF920F931F93FC01208131814281538161
:1033A000648175818681978121153105410551051B
:1033B00009F45BC05B016C01EE24FF24870160E02F
:1033C00038C08A2CAB2DA653F1E0AB1508F0F0E025
:1033D0008C2D865691E08C1508F090E0F80F71E086
:1033E000F81708F070E0972B7D2D755CE1E07D15F6
:1033F00008F0E0E0970F81E0971708F080E08E2B4F
:103400008E0DE1E08E1508F0E0E0EF0D71E0EF15B4
:1034100008F070E0700FB1E0701708F0B0E0B10F85
:10342000A82CBA2ECF2ED92EE82EFE2E072F1B2F1A
:103430006F5F862F90E0A0E0B0E082179307A407AB
:10344000B50708F4BECF9501A601B701C801E3EBAB
:10345000AE2E06EEB02E1EE0C12EDD24EE24FF249B
:1034600000E010E00E94EA2006C023EB36EE4EE0BA
:1034700050E00E94C928B901CA011F910F91FF9025
:10348000EF90DF90CF90BF90AF909F908F90089576
:103490001F9311E00E94F0100E948C1D8B3010F4DD
:1034A0001093F6090E944B208091F007853519F0A2
:1034B00088E00E94FF0F80917E21853559F388E0D6
:1034C0000E94FF0FE7CF2F923F924F925F926F9231
:1034D0007F928F929F92AF92BF92CF92DF92EF92A4
:1034E000FF920F931F93DF93CF930F92CDB7DEB769
:1034F0000E94A81C0E94F20B0E94D91C0E94E11C91
:103500002C018AEF0E94901D6091EE0770E080E030
:1035100090E023EB36EE4EE050E00E9496287B01CF
:103520008C018091FD099091FE09A091FF09B09155
:10353000000AE80EF91E0A1F1B1FC801B7010E94EE
:10354000C928E61AF70A080B190B8091F90990911E
:10355000FA09A091FB09B091FC0973EBA72E76EE56
:10356000B72E7EE0C72ED12C14C080E096E3A5E6EE
:10357000B4ECE80EF91E0A1F1B1FC801B701A60113
:1035800095010E94C928E61AF70A080B190BD40105
:10359000C3013C014D010894611C711C811C911CEC
:1035A000E0E0EE16EAECFE06EAE90E07EBE31E07A2
:1035B000E0F68093F9099093FA09A093FB09B09380
:1035C000FC09E092FD09F092FE090093FF091093B7
:1035D000000AE091020AF091030A85818823B9F07C
:1035E00081858430A1F08781823029F0882341F0E1
:1035F0008681882311F485E001C083E0818704C0BF
:1036000083E081871782168280850E94E014E09112
:10361000020AF091030A858D968D009799F16085D5
:10362000662381F18185843069F1218D328D80910D
:10363000EE0790E02817390750F482E00E94BE0F91
:10364000E091020AF091030A128E118E04C0281B29
:10365000390B328F218FE091020AF091030A008525
:10366000218D328D2115310569F483E0602F0E9490
:10367000BE0FE091020AF091030A83E08187802F58
:103680000E94E0146CE4262E69E0362E00E61AEE65
:1036900020E051E0652E712C4AEFE42EF12C32E04F
:1036A000932E91E0A92EB12CC12CD12CD1011396CF
:1036B0008C9113978F3F09F4C4C01C92882309F49E
:1036C00043C014968C9114978430F1F150964D912B
:1036D0005C9151978091EE0790E04817590738F0B8
:1036E000481B590B51965C934E93509703C0F101C0
:1036F000118A108AD10152964D915C9153974817C7
:10370000590738F0481B590B53965C934E935297C8
:1037100012C0F101668977898617970728F4681B1C
:10372000790B738B628B07C00E94B528D101539629
:103730009C938E935297F10182899389009721F48B
:1037400086899789938B828BD10114968C911497DB
:10375000833009F076C050968D919C9151970097D7
:1037600009F066C012968C9112978823A9F01196E1
:103770008C911197882381F0D601C5010090F20940
:1037800004C0880F991FAA1FBB1F0A94D2F7F1012A
:1037900084879587A687B787D10112961C921297C6
:1037A00011961C9211971C925A964D915C915B97C1
:1037B00056968D919C91579758966D917C915997FB
:1037C00041305105D9F455967C936E9354971496D5
:1037D0009C92149752964D915C91539751965C939D
:1037E0004E935097009721F45196FC92EE92509789
:1037F000822F29830E942F1429811AC0F101758B11
:10380000648BBA0161507040689FA001699F500DA0
:10381000789F500D1124518B408B538B428B009716
:1038200011F4F18AE08AD1015B967C926E925A97EC
:10383000F10180899189009721F08017910708F4A0
:103840008C012F5F81E290E0280E391E253009F0AF
:103850002DCF0E941E14E82E282F332727FD3095E8
:10386000F90185E0EE0FFF1F8A95E1F7E20FF31FE4
:10387000E95BF64F82858093040AF093F409E093A4
:10388000F309EE20B9F0258D368D2115310551F063
:10389000218D328D2A3F310528F42017310708F495
:1038A0004BC00DC098010B3F110508F445C02AEF2D
:1038B00030E042C00B3F110510F00AEF10E080939A
:1038C000F509F093030AE093020A0093EE070E94C1
:1038D000F51D282F30E02F5F3F4F2017310740F0B4
:1038E0000E94F51D082F10E00E5F1F4F0093EE079A
:1038F000EE2011F01092F609802F0E94901DC20157
:103900006EEE72E00E94F41C0E94B3200E94BF2061
:103910000F90CF91DF911F910F91FF90EF90DF906B
:10392000CF90BF90AF909F908F907F906F905F905F
:103930004F903F902F9008958901C1CF89E08093E7
:1039400021018DE89CE3909329018093280108953B
:10395000109225011092240108950000000000003B
:103960000000000000000000000000000000000057
:103970000000019791F70895109221010895DF93B7
:10398000CF9300D0CDB7DEB780912401909125016F
:103990009A83898329813A81C9010F900F90CF9131
:1039A000DF91089510928100089581E08093810055
:1039B000089583B5816083BD1092850010928400C4
:1039C0000895DF93CF9300D0CDB7DEB78091840008
:1039D000909185009A83898329813A81C9010F904A
:1039E0000F90CF91DF910895EF92FF920F931F9365
:1039F000CF93DF93EC01CC0FDD1F8FEFC937D807D2
:103A000010F0C0E0D0E07E0100E010E080E090E047
:103A1000E60EF71E081F191F91E0E91690E0F9065F
:103A200091E0090790E0190768F080E090E0AFEFBF
:103A3000BFEFE80EF91E0A1F1B1F0E94E11CC817EA
:103A4000D907D8F30E94E11C8E159F05D8F3DF91AA
:103A5000CF911F910F91FF90EF9008951092B100B8
:103A6000E0E7F0E080818D7F808380818E7F80839E
:103A700008958093B2000895E0E7F0E080818360CC
:103A8000808383E08093B100089583B5826083BD15
:103A90001092B2001092C3031092EE0708958EEFB9
:103AA0008093EE0790E29093B6008093B30083E09A
:103AB00087BB92E09093B0008093B10093B5926081
:103AC00093BD87BB84BD83B5826083BD10928000A7
:103AD00081E080938100109285001092840083B56C
:103AE000826083BD83B5816083BD109220011092F6
:103AF00025011092240183B5826083BD83B5816066
:103B000083BD0E94451D0E94A81C0E943C1D0E946E
:103B10009E1C1092C30308958091B3008F5F089597
:103B200081508093B3000895882311F4109271009E
:103B30008FEF0895882331F410929500109294002D
:103B400081E008958FEF0895882329F4209194004F
:103B50003091950002C020E030E0C901089588232B
:103B600029F482E08093710081E008958FEF089539
:103B70008823B9F5CB0101978530910510F4609346
:103B8000ED071092900088E0809391005093990087
:103B9000409398003093C1032093C0038091ED07B8
:103BA000813021F48091910081600BC0823021F43A
:103BB00080919100826005C0833039F4809191003A
:103BC00083608093910081E00895843021F4809196
:103BD00091008460F6CF853031F48091910085604A
:103BE000F0CF8FEF089581E008958091B20008959D
:103BF0001F920F920FB60F920BB60F9211242F93B4
:103C00003F934F935F936F937F938F939F93AF9364
:103C1000BF93EF93FF938AE060E00E94BE0FFFCF57
:103C20000F920FB60F921F922F923F924F925F9278
:103C30006F927F928F929F92AF92BF92CF92DF92BC
:103C4000EF92FF920F931F932F933F934F935F93A6
:103C50006F937F938F939F93AF93BF93CF93DF9394
:103C6000EF93FF93A091020AB091030A0DB60D9253
:103C70000EB60D921F92A091EB07B091EC071E902B
:103C8000BEBFADBF08951F920F920FB60F920BB635
:103C90000F9211242F933F934F935F936F937F93D2
:103CA0008F939F93AF93BF93EF93FF93E091C003E4
:103CB000F091C103309711F0099504C08AE060E0EB
:103CC0000E94BE0FFF91EF91BF91AF919F918F9195
:103CD0007F916F915F914F913F912F910F900BBE0C
:103CE0000F900FBE0F901F9018951F920F920FB656
:103CF0000F9211240F900FBE0F901F90189504B6CD
:103D000003FC02C080E001C080E104B602FE06C0F0
:103D100094B79B7F94BF04B600FE846004B601FE96
:103D200005C094B79D7F94BF82600895882361F495
:103D300004B600FE04C094B79E7F94BF01C081E02A
:103D40009091B000911181600895882311F4E89A50
:103D500039C0813011F4E99A0895823011F4EA9A59
:103D600031C0833021F480916B00816029C08430A0
:103D700021F480916B00826023C0853021F4809112
:103D80006B0084601DC0863021F480916B008860D8
:103D900017C0873021F480916B00806111C088309A
:103DA00021F480916B0080620BC0893021F48091F6
:103DB0006B00806405C08A3039F480916B008068A4
:103DC00080936B0081E008958FEF0895882311F4AC
:103DD000E89839C0813011F4E9980895823011F4DF
:103DE000E99831C0833021F480916B008E7F29C027
:103DF000843021F480916B008D7F23C0853021F4C5
:103E000080916B008B7F1DC0863021F480916B0008
:103E1000877F17C0873021F480916B008F7E11C09F
:103E2000883021F480916B008F7D0BC0893021F4A4
:103E300080916B008F7B05C08A3039F480916B00D4
:103E40008F7780936B0081E008958FEF089588232A
:103E500039F55093270A4093260A662321F480916E
:103E600069008C7F66C0613049F4809169008D7F64
:103E7000809369008091690081605BC0623049F481
:103E800080916900826080936900809169008E7FD3
:103E900050C0633009F062C080916900836049C0FE
:103EA000813031F55093250A4093240A662321F48A
:103EB00080916900837F3DC0613049F48091690041
:103EC000877F8093690080916900846032C062308E
:103ED00049F480916900886080936900809169004D
:103EE0008B7F27C06330D1F5809169008C6021C041
:103EF000823041F55093250A4093240A662321F429
:103F0000809169008F7C15C0613049F4809169000F
:103F10008F7D809369008091690080610AC0623062
:103F200059F48091690080628093690080916900F2
:103F30008F7E8093690012C0633081F480916900A4
:103F40008063F7CF8350883058F480916800816097
:103F50008093680050932B0A40932A0A81E00895C9
:103F60008FEF08951F920F920FB60F920BB60F921C
:103F700011242F933F934F935F936F937F938F936E
:103F80009F93AF93BF93EF93FF93E0912A0AF09131
:103F90002B0A309711F0099504C08AE060E00E9476
:103FA000BE0FFF91EF91BF91AF919F918F917F9144
:103FB0006F915F914F913F912F910F900BBE0F909A
:103FC0000FBE0F901F9018951F920F920FB60F9271
:103FD0000BB60F9211242F933F934F935F936F93E0
:103FE0007F938F939F93AF93BF93EF93FF93E09152
:103FF000260AF091270A309711F0099504C08AE04B
:1040000060E00E94BE0FFF91EF91BF91AF919F9131
:104010008F917F916F915F914F913F912F910F9071
:104020000BBE0F900FBE0F901F9018950E94F20BC1
:10403000A89584B7877F84BFE0E6F0E0808188613F
:10404000808310820E94F40B08950E94F20BA895C1
:1040500084B7877F84BFE0E6F0E080818861808359
:104060008DE080830E94F40B089504B603FC02C027
:1040700081E008958FEF0895A8950895089583B776
:10408000817F866083BF83B7816083BF889583B754
:104090008E7F83BF089583B7817F83BF83B781609D
:1040A00083BF889583B78E7F83BF0895FC01768395
:1040B00065830895EF92FF920F931F93CF93DF9341
:1040C000EC018B017A014032510518F481E10E9424
:1040D000FF0F0894E108F108E00EF11EFA82E98270
:1040E0001C830B83DF91CF911F910F91FF90EF9075
:1040F000089525E5FA012083FB013297908381839F
:10410000129212921292129212921292129212928F
:10411000129212921292129212921292129212927F
:10412000129212921292129212921292129212926F
:10413000129212921292129212921292129212925F
:1041400012921292CF01089585E580937E41EEEFA1
:10415000F1E4F093EC07E093EB078DED9DE09083A5
:104160008093FF4108958DED9DE09093FE418093F3
:10417000FF4108950E944F1D0E94F40B0895A091E5
:10418000F309B091F409CD91CDBFDD91DEBFFF9170
:10419000EF91DF91CF91BF91AF919F918F917F91DF
:1041A0006F915F914F913F912F911F910F91FF90D0
:1041B000EF90DF90CF90BF90AF909F908F907F90C7
:1041C0006F905F904F903F902F901F900F900FBE79
:1041D0000F901895A8E3B0E0E0EFF0E20C94EB2824
:1041E00029833A834B835C836D837E838F83988797
:1041F000A986BA86CB86DC86ED86FE860F87188B6D
:10420000E984FA840B851C852D853E854F85588968
:1042100029803A804B805C802DA23EA24FA258A6F6
:10422000AD80BE80CF80D884211531054105510570
:1042300009F0BEC3AE14BF04C006D10608F04FC1DA
:1042400020E0E21620E0F20621E0020720E012075B
:1042500058F43FEFE316F1040105110509F090F45D
:1042600020E030E0A90117C040E0E41640E0F40689
:1042700040E0040741E0140750F420E130E040E062
:1042800050E009C028E030E040E050E004C028E100
:1042900030E040E050E0D801C701022E04C0B695DE
:1042A000A795979587950A94D2F789549D4FDC017D
:1042B0006C9180E290E0A0E0B0E0821B930BA40B35
:1042C000B50B861B9109A109B1090097A105B1059C
:1042D000A1F1082E04C0EE0CFF1C001F111F0A9450
:1042E000D2F7A6019501082E04C0220F331F441FE8
:1042F000551F0A94D2F760E270E0681B790BADA0FD
:10430000BEA0CFA0D8A404C0D694C794B794A79455
:104310006A95D2F7A22AB32AC42AD52A2DA03EA094
:104320004FA058A404C0220C331C441C551C8A9571
:10433000D2F72DA23EA24FA258A638018824992474
:10434000A8019701407050702D8F3E8F4F8F58A35A
:10435000C601B501A40193010E94C928222E532E43
:10436000442E352E69A37AA38BA39CA3C601B50165
:10437000A40193010E94C928822D952DA42DB32D4F
:10438000898F9A8FAB8FBC8FBC01CD012D8D3E8D57
:104390004F8D58A10E9496285B016C0149A15AA13A
:1043A0006BA17CA1DA01992788272DA03EA04FA000
:1043B00058A4920144275527822B932BA42BB52B6D
:1043C0008A159B05AC05BD0530F5298D3A8D4B8DC1
:1043D0005C8D2150304040405040298F3A8F4B8FA8
:1043E0005C8F8E0D9F1DA01FB11F8E159F05A0070E
:1043F000B10788F08A159B05AC05BD0560F4215016
:10440000304040405040298F3A8F4B8F5C8F8E0D4B
:104410009F1DA01FB11FAC01BD014A195B096C09AA
:104420007D095A016B01CB01BA01A40193010E94DD
:10443000C928222E532E442E352E69A37AA38BA38E
:104440009CA3C601B501A40193010E94C928A22C16
:10445000B52CC42CD32CC601B5012D8D3E8D4F8DAE
:1044600058A10E9496283B014C0169A17AA18BA119
:104470009CA1AB01332722278DA19EA1AFA1B8A596
:10448000A070B070282B392B4A2B5B2B26153705D3
:1044900048055905C0F40894A108B108C108D1081D
:1044A0002E0D3F1D401F511F2E153F054007510780
:1044B00050F0261537054805590528F40894A10839
:1044C000B108C108D108898D9A8DAB8DBC8D8C0146
:1044D000FF24EE24EA28FB280C291D29B3C4E1148B
:1044E000F1040105110559F461E070E080E090E00D
:1044F000A80197010E94C92879018A0110C090E0A3
:10450000E91690E0F90691E0090790E0190758F4E0
:10451000AFEFEA16F1040105110509F090F420E06F
:1045200030E0A90117C0B0E0EB16B0E0FB06B0E048
:104530000B07B1E01B0750F420E130E040E050E011
:1045400009C028E030E040E050E004C028E130E05D
:1045500040E050E0D801C701022E04C0B695A795EF
:10456000979587950A94D2F789549D4FFC018081D5
:10457000280F311D411D511D80E290E0A0E0B0E008
:10458000821B930BA40BB50B61F4150126012E18A9
:104590003F08400A510A81E0A82EB12CC12CD12C31
:1045A00029C1082E04C0EE0CFF1C001F111F0A9425
:1045B000D2F715012601022E04C056944794379471
:1045C00027940A94D2F7298E3A8E4B8E5C8EB601D0
:1045D000A501082E04C0440F551F661F771F0A94BB
:1045E000D2F74D8F5E8F6F8F78A32DA03EA04FA086
:1045F00058A404C056944794379427942A95D2F728
:10460000AD8CBE8CCF8CD8A0A228B328C428D528C6
:10461000AD8EBE8ECF8ED8A22DA13EA14FA158A5A2
:1046200004C0220F331F441F551F8A95D2F72DA3B4
:104630003EA34FA358A7380188249924B801A701A5
:104640006070707049A35AA36BA37CA3698D7A8DA7
:104650008B8D9C8DA40193010E94C928222E532E7C
:10466000442E352E69A77AA78BA79CA7698D7A8DD2
:104670008B8D9C8DA40193010E94C928A22CB52C7E
:10468000C42CD32CA98EBA8ECB8EDC8EC601B5017C
:1046900029A13AA14BA15CA10E9496285B016C0163
:1046A00029A43AA44BA45CA4D101992788272D8C76
:1046B0003E8C4F8C58A0920144275527822B932B78
:1046C000A42BB52B8A159B05AC05BD0530F5298DAE
:1046D0003A8D4B8D5C8D2150304040405040298FA9
:1046E0003A8F4B8F5C8F8E0D9F1DA01FB11F8E15B3
:1046F0009F05A007B10788F08A159B05AC05BD058D
:1047000060F42150304040405040298F3A8F4B8F09
:104710005C8F8E0D9F1DA01FB11FAC01BD014A19FA
:104720005B096C097D095A016B01CB01BA01A40137
:1047300093010E94C928222E532E442E352E69A79C
:104740007AA78BA79CA7C601B501A40193010E947B
:10475000C928622C752C842C932CC401B30129A187
:104760003AA14BA15CA10E9496289B01AC0169A5CE
:104770007AA58BA59CA56B01BB24AA248D8D9E8D4B
:10478000AF8DB8A1A070B070A82AB92ACA2ADB2AB6
:10479000A216B306C406D506E0F4089461087108B1
:1047A00081089108AE0CBF1CC01ED11EAE14BF0400
:1047B000C006D10670F0A216B306C406D50648F4AA
:1047C00008946108710881089108AE0CBF1CC01ED6
:1047D000D11E15012601221A330A440A550A898D71
:1047E0009A8DAB8DBC8D6C01BB24AA24A628B7285A
:1047F000C828D9289801442755272D8F3E8F4F8FE1
:1048000058A3B801A7016070707049A35AA36BA3A5
:104810007CA3C201B1012D8D3E8D4F8D58A10E9408
:10482000C928622E932E842E752E69A77AA78BA78E
:104830009CA7C201B1012D8D3E8D4F8D58A10E94C4
:10484000C928862D992DA82DB72D898F9A8FAB8FCA
:10485000BC8FBC01CD0129A13AA14BA15CA10E9452
:1048600096283B014C0129A43AA44BA45CA4D10195
:10487000992788272DA03EA04FA058A49201442735
:104880005527822B932BA42BB52B86159705A805AE
:10489000B90530F5298D3A8D4B8D5C8D2150304016
:1048A00040405040298F3A8F4B8F5C8F8E0D9F1D5B
:1048B000A01FB11F8E159F05A007B10788F08615B0
:1048C0009705A805B90560F421503040404050409C
:1048D000298F3A8F4B8F5C8F8E0D9F1DA01FB11FAC
:1048E000AC01BD0146195709680979093A014B0124
:1048F000CB01BA012D8D3E8D4F8D58A10E94C92844
:10490000522E432E342E252E69A77AA78BA79CA75B
:10491000C401B3012D8D3E8D4F8D58A10E94C92831
:10492000652C742C832C922CC401B30129A13AA1CB
:104930004BA15CA10E9496281B012C0169A57AA5B8
:104940008BA59CA5AB01332722278DA19EA1AFA1EA
:10495000B8A5A070B070282B392B4A2B5B2B2215E1
:10496000330544055505C0F40894610871088108B1
:1049700091082E0D3F1D401F511F2E153F0540076A
:10498000510750F0221533054405550528F40894C5
:104990006108710881089108898D9A8DAB8DBC8D55
:1049A0008C01FF24EE24E628F728082919294DC296
:1049B000A216B306C406D50608F434C2203090E02F
:1049C000390791E0490790E0590750F42F3F31052E
:1049D0004105510509F090F466247724430119C07C
:1049E0002030A0E03A07A0E04A07A1E05A0760F4AF
:1049F00090E1692E712C812C912C0BC088E0682EDF
:104A0000712C812C912C05C0B8E16B2E712C812C5E
:104A1000912CDA01C901062C04C0B695A79597958B
:104A200087950A94D2F789549D4FFC018081680EC6
:104A3000711C811C911C80E290E0A0E0B0E086191E
:104A40009709A809B90989F42A153B054C055D05A4
:104A500008F4EFC12DA03EA04FA058A42E143F048F
:104A60004006510608F0E5C1DDC189A719012A01F8
:104A700004C0220C331C441C551C8A95D2F7D80163
:104A8000C701062C04C0B695A795979587950A94FB
:104A9000D2F7282A392A4A2A5B2AA801970109A4B1
:104AA00004C0220F331F441F551F0A94D2F729ABAD
:104AB0003AAB4BAB5CAB86017501062C04C0169576
:104AC0000795F794E7940A94D2F7B601A50109A4D3
:104AD00004C0440F551F661F771F0A94D2F74D8FED
:104AE0005E8F6F8F78A36DA17EA18FA198A504C062
:104AF00096958795779567956A94D2F73B014C0117
:104B00008D8D9E8DAF8DB8A186299729A829B929A9
:104B10008D8F9E8FAF8FB8A35201CC24DD24A9A224
:104B2000BAA2CBA2DCA2A2019101407050702DABC1
:104B30003EAB4FAB58AFC801B701A60195010E942B
:104B4000C928622EA32ED42EC52E6DA77EA78FA7AF
:104B500098ABC801B70129A13AA14BA15CA10E9461
:104B6000C928E62CFA2C0D2D1C2DE98EFA8E0B8F00
:104B70001C8FC801B7012DA93EA94FA958AD0E94AD
:104B80009628ADA4BEA4CFA4D8A88501FF24EE2406
:104B9000AD8CBE8CCF8CD8A0960144275527E22A35
:104BA000F32A042B152BE616F7060807190730F52C
:104BB000298D3A8D4B8D5C8D2150304040405040C6
:104BC000298F3A8F4B8F5C8FE20CF31C041D151D4F
:104BD000E214F3040405150588F0E616F706080745
:104BE000190760F42150304040405040298F3A8FDF
:104BF0004B8F5C8FE20CF31C041D151DE61AF70A9F
:104C0000080B190BC801B70129A13AA14BA15CA15E
:104C10000E94C928A22ED32EC42EB52E6DA77EA722
:104C20008FA798ABC801B70129A13AA14BA15CA1FC
:104C30000E94C9286A2C7D2C8C2C9B2CC401B301AA
:104C40002DA93EA94FA958AD0E9496289B01AC0101
:104C5000ADA4BEA4CFA4D8A8D50199278827AD8C30
:104C6000BE8CCF8CD8A06FEFE62E6FEFF62E012D05
:104C7000112DAE20BF20C022D1228A299B29AC2928
:104C8000BD2982179307A407B507E0F408946108CB
:104C9000710881089108820D931DA41DB51D821510
:104CA0009305A405B50570F082179307A407B5070F
:104CB00048F408946108710881089108820D931DD9
:104CC000A41DB51D1C012D01221A330A440A550AE0
:104CD0002D8E3E8E4F8E58A2A98CBA8CCB8CDC8C3C
:104CE0008501FF24EE24E628F72808291929AFEFCB
:104CF000AA2EAFEFBA2EC12CD12CAE20BF20C022DD
:104D0000D12218014424552469A87AA88BA89CA80C
:104D10002FEF3FEF40E050E0622273228422952281
:104D200069A97AA98BA99CA9AC0166277727498F25
:104D30005A8F6B8F7C8FC601B501A40193010E942D
:104D4000962869A37AA38BA39CA3C601B501298DDC
:104D50003A8D4B8D5C8D0E9496285B016C01C201DF
:104D6000B101A40193010E9496283B014C01C201AC
:104D7000B101298D3A8D4B8D5C8D0E9496289B0147
:104D8000AC01A60CB71CC81CD91C29A03AA04BA08A
:104D90005CA0C201AA27BB27A80EB91ECA1EDB1E33
:104DA000A614B704C804D90420F4205030404F4F53
:104DB0005F4FC601AA27BB27820F931FA41FB51FF1
:104DC0002D8D3E8D4F8D58A1281739074A075B0757
:104DD00018F182179307A407B507A1F56501BB2455
:104DE000AA2489A19AA1ABA1BCA1A070B070A80E01
:104DF000B91ECA1EDB1E8DA19EA1AFA1B8A509A434
:104E000004C0880F991FAA1FBB1F0A94D2F78A15E6
:104E10009B05AC05BD05B0F40894E108F108010953
:104E2000110910C0AA24BB246501EE24FF248701C8
:104E30000CC0AA24BB24650181E0E82EF12C012DD1
:104E4000112D03C0AA24BB246501FE01719688E0E0
:104E5000DF011D928A95E9F7E98AFA8A0B8B1C8B90
:104E6000AD8ABE8ACF8AD88E2E2D3A894B895C892D
:104E70006A2D7E898F89988DE896E2E10C94072946
:104E80006F927F928F929F92AF92BF92CF92DF925A
:104E9000EF92FF920F931F93DF93CF93CDB7DEB7BF
:104EA0002C970FB6F894DEBF0FBECDBF6C013B014F
:104EB0008A01FC0117821682838181FD03C01EC115
:104EC000850104C04E010894811C911CF601E38009
:104ED000F301E3FC8591E3FE81913F01882309F40E
:104EE00009C1853251F4E3FC2591E3FE21913F0194
:104EF000253211F0FF2423C085E290E0B6010E9424
:104F0000C3295801DDCF222309F489C080ED93E045
:104F1000622F70E02C870E9422292C85009749F48B
:104F2000233219F4F0E1FF2A04C02C3669F420E89A
:104F3000F22AF301E3FC2591E3FE21913F01F7FE04
:104F4000E2CF222309F43FC089EC93E0622F70E0A6
:104F50002C870E9422292C85009741F064E0A62E20
:104F6000B12CA00EB11E8FE390E00FC0233629F0C4
:104F7000233789F0233529F50CC052E0A52EB12C3A
:104F8000A00EB11EF80180819181B6010E94C32953
:104F900097CFF1E0FF2A42E0A42EB12CA00EB11E63
:104FA000F8010081118104C090E0B6010E94C3297C
:104FB000F801F0FC8591F0FE81918F018823A1F723
:104FC0007FCF243611F0293651F5F7FE0BC034E0BF
:104FD000A32EB12CA00EB11EF801608171818281D7
:104FE00093810CC022E0A22EB12CA00EB11EF801BC
:104FF00060817181882777FD8095982FFFEEFF22D1
:1050000097FF09C090958095709561957F4F8F4F60
:105010009F4F20E4F22AA4012AE030E03BC0203771
:1050200099F0213730F42835B1F02F3609F062C0FD
:1050300017C0253721F0283709F05CC007C08FEE74
:10504000F8222AE030E00EC0E0E1FE2AF4E2FF2A76
:1050500020E130E007C024E0F22A20E132E002C083
:1050600028E030E0F7FE0BC094E0A92EB12CA00E92
:10507000B11EF80160817181828193810AC082E052
:10508000A82EB12CA00EB11EF8016081718180E0C4
:1050900090E0A4010E946F2AE82EE8180F2D10E07E
:1050A000F6FE05C08DE290E0B6010E94C32904FF20
:1050B00015C0FE01EE0DF11D8081803379F080E393
:1050C00090E0B6010E94C32902FF08C0C8018072A7
:1050D0009070885A9F4FB6010E94C329EA94F40148
:1050E000EE0DF11D808190E0B6010E94C329EE20F3
:1050F000A9F7E6CEF6012681378102C02FEF3FEFF8
:10510000C9012C960FB6F894DEBF0FBECDBFCF916C
:10511000DF911F910F91FF90EF90DF90CF90BF90A4
:10512000AF909F908F907F906F900895629FD00175
:10513000739FF001829FE00DF11D649FE00DF11D52
:10514000929FF00D839FF00D749FF00D659FF00D01
:105150009927729FB00DE11DF91F639FB00DE11DEE
:10516000F91FBD01CF0111240895AA1BBB1B51E1FA
:1051700007C0AA1FBB1FA617B70710F0A61BB70BC7
:10518000881F991F5A95A9F780959095BC01CD016C
:105190000895A1E21A2EAA1BBB1BFD010DC0AA1F78
:1051A000BB1FEE1FFF1FA217B307E407F50720F090
:1051B000A21BB30BE40BF50B661F771F881F991F0B
:1051C0001A9469F760957095809590959B01AC0154
:1051D000BD01CF0108952F923F924F925F926F923F
:1051E0007F928F929F92AF92BF92CF92DF92EF9277
:1051F000FF920F931F93CF93DF93CDB7DEB7CA1BF8
:10520000DB0B0FB6F894DEBF0FBECDBF09942A8822
:10521000398848885F846E847D848C849B84AA84CA
:10522000B984C884DF80EE80FD800C811B81AA8157
:10523000B981CE0FD11D0FB6F894DEBF0FBECDBF22
:10524000ED010895FC010590061621F00020D9F724
:10525000C00108953197CF010895FB01DC0102C020
:1052600001900D9241505040D8F708950F931F932D
:10527000CF93DF938C01EB01009711F42097C9F1D4
:1052800081E090E06EE070E00E94E32AFC019C0166
:10529000009789F180E88383209771F0D387C287D4
:1052A00081E8838380912C0A90912D0A009721F444
:1052B000F0932D0AE0932C0A01151105E1F01187F6
:1052C000008783818260838380912E0A90912F0AC8
:1052D000009789F4F0932F0AE0932E0A8091300A08
:1052E0009091310A009739F4F093310AE093300A33
:1052F00002C020E030E0C901DF91CF911F910F91F2
:105300000895CF93DF93EC013B8130FF36C036FF29
:1053100009C03F7B3B838E819F8101969F838E8353
:105320002A8129C032FF0FC0E881F9818081992745
:1053300087FD9095009719F430623B831EC031962B
:10534000F983E88311C0EA85FB85CE01099597FFB3
:105350000BC02B813FEF8F3F930711F480E101C019
:1053600080E2822B8B8309C02E813F812F5F3F4FCC
:105370003F832E83282F30E002C02FEF3FEFC9017B
:10538000DF91CF9108950F931F93CF93DF938C01FB
:10539000EB018B8181FF1BC082FF0DC02E813F81FD
:1053A0008C819D812817390764F4E881F981019384
:1053B000F983E88306C0E885F985802F0995009771
:1053C00031F48E819F8101969F838E8302C00FEFFF
:1053D0001FEFC801DF91CF911F910F910895DF93C7
:1053E000CF93CDB7DEB7FE01359661917191809173
:1053F0002E0A90912F0AAF010E944027CF91DF9192
:10540000089560912E0A70912F0A0E94C329089571
:10541000EF92FF920F931F93CF93DF938C01E09154
:105420002E0AF0912F0A838181FF1FC0C0E0D0E0D7
:105430000AC0DB011896ED91FC9119970995009728
:1054400011F0CFEFDFEFF80181918F0160912E0A0B
:1054500070912F0A882369F7DB011896ED91FC9172
:1054600019978AE00995009711F0CFEFDFEFCE0191
:10547000DF91CF911F910F91FF90EF9008950F93BF
:105480001F93DF93CF93CDB7DEB72E970FB6F89467
:10549000DEBF0FBECDBF0D891E8986E08C831A83C7
:1054A00009838FEF9FE79E838D839E01275E3F4F89
:1054B000CE0101966F89788DA9010E944027EF8166
:1054C000F885E00FF11F10822E960FB6F894DEBF1C
:1054D0000FBECDBFCF91DF911F910F910895FA01BB
:1054E000AA27283051F1203181F1E8946F936E7F23
:1054F0006E5F7F4F8F4F9F4FAF4FB1E03ED0B4E014
:105500003CD0670F781F891F9A1FA11D680F791F54
:105510008A1F911DA11D6A0F711D811D911DA11D65
:1055200020D009F468943F912AE0269F1124301975
:10553000305D3193DEF6CF010895462F4770405D10
:105540004193B3E00FD0C9F7F6CF462F4F70405DBF
:105550004A3318F0495D31FD4052419302D0A9F71A
:10556000EACFB4E0A6959795879577956795BA9514
:10557000C9F700976105710508959B01AC010A2EDA
:1055800006945795479537952795BA95C9F7620FB1
:10559000731F841F951FA01D0895F999FECF92BD1A
:1055A00081BDF89A992780B50895262FF999FECFE5
:1055B0001FBA92BD81BD20BD0FB6F894FA9AF99A30
:1055C0000FBE01960895EF92FF920F931F93CF9312
:1055D000DF93689F8001699F100D789F100D112443
:1055E000C8010E94082BE82EE7017E01F92EE70191
:1055F000209731F08E2D60E070E0A8010E943B2CD6
:10560000CE01DF91CF911F910F91FF90EF90089500
:10561000CF93DF938230910510F482E090E0E09127
:10562000340AF091350A40E050E020E030E026C036
:105630006081718168177907E0F06817790781F454
:10564000828193812115310531F0D90113969C9304
:105650008E9312972BC09093350A8093340A26C0FC
:105660004115510519F06417750718F4AB01E901EC
:10567000DF019F0172816381E72FF62F3097C1F61A
:105680004115510501F1481B590B4430510580F477
:1056900012968D919C911397209719F09B838A8382
:1056A00004C09093350A8093340AFD01329646C0B7
:1056B000FD01E40FF51F81939193425050401196E4
:1056C0005C934E933BC02091320A3091330A2115EE
:1056D000310541F42091B9033091BA033093330A74
:1056E0002093320A2091BB033091BC032115310570
:1056F00041F42DB73EB74091B7035091B803241B36
:10570000350BE091320AF091330AE217F307A0F467
:105710002E1B3F0B2817390778F0AC014E5F5F4F07
:105720002417350748F04E0F5F1F5093330A4093FC
:10573000320A8193919302C0E0E0F0E0CF01DF9163
:10574000CF910895CF93DF93009709F491C0FC01A6
:105750003297138212826091340A7091350A611572
:10576000710581F420813181280F391F8091320A1F
:105770009091330A8217930799F5F093330AE093D7
:10578000320A76C0DB0180E090E002C0CD01D90191
:10579000AE17BF0748F412962D913C91139721152F
:1057A0003105A1F7CD0121C0B383A283EF01499157
:1057B00059919E01240F351FA217B30779F42D913B
:1057C0003C911197240F351F2E5F3F4F318320836B
:1057D00012962D913C91139733832283009729F4DD
:1057E000F093350AE093340A43C0DC011396FC932E
:1057F000EE9312974D915D91A40FB51FEA17FB0729
:1058000069F420813181240F351F2E5F3F4FEC0159
:1058100039832883228133813B832A83E0E0F0E0CF
:1058200002C0FB01BC01DB0112968D919C91139784
:105830000097B9F79B012E5F3F4F8D919C91119777
:10584000820F931F4091320A5091330A481759072B
:1058500079F4309729F41092350A1092340A02C074
:1058600013821282225030403093330A2093320A3E
:10587000DF91CF910895DC0101C06D9341505040FC
:08588000E0F70895F894FFCF52
:1058880074785F7461736B205049443D25640D0A38
:10589800004D79206E6F64652773206164647265BA
:1058A80073732069732025640D0A0072785F746130
:1058B800736B205049443D25640D0A00537461728E
:1058C80074696E672075702E2E2E0D00010911194E
:1058D800212931390B131B232B333B040C34050DC1
:1058E800151D252D353D2564006375723A20256404
:1058F8002000626F74746F6D203D2025782000634E
:10590800616E617279203D202578200073746B20C8
:105918003D20257820007463622061646472203D14
:105928002025780D0A0025643A20626F74746F6D23
:10593800203D202578200000010202030303030410
:105948000404040404040405050505050505050506
:1059580005050505050505060606060606060606E6
:1059680006060606060606060606060606060606CF
:1059780006060606060606070707070707070707B6
:10598800070707070707070707070707070707079F
:10599800070707070707070707070707070707078F
:1059A800070707070707070707070707070707077F
:1059B8000707070707070708080808080808080866
:1059C800080808080808080808080808080808084F
:1059D800080808080808080808080808080808083F
:1059E800080808080808080808080808080808082F
:1059F800080808080808080808080808080808081F
:105A0800080808080808080808080808080808080E
:105A180008080808080808080808080808080808FE
:105A280008080808080808080808080808080808EE
:0E5A3800080808080808082000360A000000C8
:00000001FF
