:100000000C9440050C94A62F0C945F050C945F058E
:100010000C945F050C945F050C945F050C945F05D0
:100020000C945F050C94492F0C945F050C945F05AC
:100030000C945F050C945F050C945F050C94C52E21
:100040000C94C52E0C945F050C945F050C945F0511
:100050000C945F050C945F050C945F050C945F0590
:100060000C945F050C945F050C945F050C945F0580
:100070000C945F050C945F050C945F050C945F0570
:100080000C945F050C945F050C945F053B1E411EAC
:10009000441E471E4A1E4D1E531E501E561E591EFC
:1000A0005C1E651E681E6B1E6E1E621E381E3E1E86
:1000B000711E741E5F1E351E08000000BE9224498A
:1000C000123EABAAAA2ABECDCCCC4C3E000000808A
:1000D000BEABAAAAAA3E00000000BF000000803FFD
:1000E0000000000000084178D3BB4387D1133D19BD
:1000F0000E3CC3BD4282AD2B3E68EC8276BED98FEA
:10010000E1A93E4C80EFFFBE01C4FF7F3F0000002D
:10011000000007634236B79BD8A71A39685618AE55
:10012000BAAB558C1D3CB7CC5763BD6DEDFD753E2C
:10013000F6177231BF000000803F4E616E6F2D5286
:100140004B2056657273696F6E20000D0A4E616E0A
:100150006F2D524B205461736B205374617469731B
:10016000746963733A0D0A000D0A000D0A202020FD
:100170004F766572666C6F77204572726F7220538E
:1001800074617475733A20000D0A2020204B65724B
:100190006E656C2056696F6C6174696F6E733A207E
:1001A000000D0A202020507265656D7074696F6EB5
:1001B000733A20000D0A202020537761702D696E5C
:1001C000733A20000D0A20202054696D65205B4D94
:1001D000696E2C4C6173742C4D61785D3A20000D72
:1001E0000A202020546F74616C204350553A20003F
:1001F0000D0A20202049646C65205461736B2044F3
:1002000065657020536C6565702054696D653A2092
:10021000000D0A202020546F74616C205379737490
:10022000656D20557074696D653A200020546173C6
:100230006B2049443A2000554E4B4F574E004578AD
:100240007465726E616C2052657365740042726FE2
:10025000776E204F75742044657465637400466141
:10026000696C656420746F206372656174652053E6
:10027000656D6170686F7265004661696C656420C8
:10028000746F20637265617465205369676E616C79
:10029000004B65726E656C2066756E6374696F6E77
:1002A000206E6F7420696D706C656D656E74656429
:1002B00000446576696365204472697665722045FD
:1002C00072726F72005761746368646F6720526561
:1002D0007374617274005357205761746368646F5C
:1002E0006720526573746172740054696D65722081
:1002F0004F766572666C6F7700556E68616E646CE0
:10030000656420496E7465727275707420566563F9
:10031000746F72004C6F7720566F6C746167650064
:100320004578747261205461736B207374617274C8
:1003300065642C206973206E726B5F6366672E683C
:10034000206F6B3F0049646C65206F72204B6572B3
:100350006E656C20537461636B204F766572666CBA
:100360006F7700556E6578706563746564205265BB
:100370007374617274004475706C69636174656450
:10038000205461736B204944005363686564756C45
:100390006572204D69737365642057616B65757074
:1003A000005461736B2052657365727665205669DF
:1003B0006F6C617465640052657365727665204583
:1003C00072726F7220696E205363686564756C6524
:1003D0007200496E76616C696420537461636B20AE
:1003E000506F696E746572005461736B2053746151
:1003F000636B204F766572666C6F77005374616330
:100400006B20776173206E6F7420646566696E651A
:1004100064206173206C6172676520656E6F75671B
:100420006821005461736B20706572696F64207479
:100430006F6F206C617267652E20506572696F6402
:10044000206D757374206265206C65737320746809
:10045000616E203631207365636F6E64732E0029E0
:100460003A20002A4E524B204552524F5228000D3E
:100470000A535441434B2044554D500D0A0008087F
:100480002A1C08081C2A080840444A514040514A86
:10049000444014741C171410207F01010000000058
:1004A000000000000000081C2C08087F0101010169
:1004B000010101017F7F40404040404040407F00BB
:1004C00000000000000000000000000000007911A2
:1004D000271179000000000000000000000000006B
:1004E00000007F01010103605048447E3E494949B4
:1004F0003E700C030C706349494963017F017F0121
:10050000635549414106017E010608557F55080F94
:10051000107F100F4E7101714E3844443844000072
:1005200000000000005F00000300030000143E1400
:100530003E1426497F493262152A542336495620F3
:10054000500003000000001C2241000041221C005A
:1005500000140E140008083E08080060000000089F
:1005600008080800004000000060100804033E4135
:1005700041413E04027F0000625149454222414907
:1005800049360C0B087E084F494949313E494949D3
:100590003261110905033649494936264949493E20
:1005A0000022000000006100000008141422221440
:1005B00014141414222214140806015905023E4191
:1005C0005D555E7E0909097E7F494949363E4141B4
:1005D00041227F4141413E7F494949417F09090903
:1005E000013E414949327F0808087F00007F000032
:1005F000204040403F7F081422417F404040007F20
:100600000204027F7F021C207F3E4141413E7F0960
:100610000909063E4151617E7F091929462649494B
:10062000493201017F01013F4040403F1F204020EF
:100630001F3F4030403F63140814630304780403F1
:1006400061514945437F4100000000000000000067
:100650000000417F0601060000404040404001028A
:1006600000000020545454787F48484830384444AF
:100670004428384444447F3854545418087E0909A7
:10068000010C5252523E7F04040478047D40402005
:10069000204040443D007F102844203E5149467C84
:1006A000047C04787C0804047838444444387E127E
:1006B00012120C0C1212127E0478040408485454CE
:1006C0005424043F4444403C40403C401C204020D3
:1006D0001C3C4030403C4428102844264848483EB2
:1006E0004464544C4400083E410000007F00000078
:1006F000413E080000000000000000000000000073
:100700000000000000000000000000000020483E43
:1007100009020000000000000000000004047F0443
:1007200004000000000000000000000000000000C5
:1007300000000000000000000000000000000000B9
:1007400000000000000000000000000000000000A9
:100750000000000000000000000000000002040192
:100760000200000000000000181800000000000057
:100770000000000000000000000000000000000079
:100780000000000000000000000000000000000069
:100790000000000000000000000000000000000059
:1007A00000000000007900000000000000487E49C1
:1007B0004942000000000015167C161500000000DC
:1007C000000A5555552800010001003E635D6B3E4F
:1007D000000000000008142A14220000000000009D
:1007E000000000003E41754B3E0101010101000285
:1007F00005020000000000000000000000000000F2
:10080000000000000000000000000000060F7F0153
:100810007F00000000000000000000000000000059
:10082000070507000022142A14080F003C20780F47
:100830000048645800000000003048454020000097
:1008400000000000000000000000000000722929E4
:100850002A717825242578702A252A707E097F49F7
:10086000490E5151711100000000007C545655444E
:100870000000000000000000000000000000000078
:100880000000000000000000000000000000000068
:100890000000007A09112279000000000000000029
:1008A000000000000000003A454546393D42424202
:1008B0003D22140814225C322A261D00000000008C
:1008C000000000000000000000003C4140413C00EE
:1008D00000000000000000000000000000002055A3
:1008E00056547820545655782056555678225155EE
:1008F000567920555455780000000000245478544F
:10090000580C5252721238555654183854565518BD
:100910003856555618385554551800497A40000035
:10092000487A4100004A794200004A7842000000BB
:100930000000007A11090A7130494A483030484AAB
:100940004930304A494A303249494A31304A484AA6
:100950003008082A080818643C26183841422078D4
:10096000384042217838424122783842402278008B
:100970000000000000000000000C5150513C6E616E
:100980006E00696E660000407A10F35A00A0724E45
:1009900018090010A5D4E80000E87648170000E424
:1009A0000B54020000CA9A3B000000E1F50500006C
:1009B00080969800000040420F000000A0860100D1
:1009C0000000102700000000E803000000006400A1
:1009D000000000000A00000000000100000000000C
:1009E0002C76D888DC674F0823DFC1DFAE59E1B130
:1009F000B796E5E3E453C63AE651997696E8E6C23F
:100A00008426EB898C9B62ED407C6FFCEFBC9C9F45
:100A100040F2BAA56FA5F490055A2AF75C936B6C67
:100A2000F9676DC11BFCE0E40D47FEF520E6B5005B
:100A3000D0ED902E0300943577050080841E0800C9
:100A400000204E0A000000C80C333333330F986E79
:100A500012831141EF8D2114893BE65516CFFEE636
:100A6000DB18D1844B381BF77C1D901DA4BBE424FC
:100A7000203284725E228100C9F124ECA1E53D2779
:100A800011241FBECFEFD0E1DEBFCDBF13E0A0E049
:100A9000B1E0EAE5FBE900E00BBF02C007900D9270
:100AA000A837B107D9F718E0A8E7B3E001C01D9255
:100AB000A938B107E1F70E94EF070C94AB4D0C94F5
:100AC0009B2E0F931F93CF93DF930E94122700D08A
:100AD00000D0EDB7FEB7319620E031E0ADB7BEB73C
:100AE00012963C932E931197828313820E94974B08
:100AF0000F900F900F900F90C0E0D0E00FE011E04A
:100B000082E090E00E94281300D000D0EDB7FEB73D
:100B100012830183D483C3830E94974B0F900F905D
:100B20000F900F900E947F262196EACF0F931F937C
:100B3000CF93DF930E94122700D000D0EDB7FEB70D
:100B400031962EE131E0ADB7BEB712963C932E93AD
:100B50001197828313820E94974B0F900F900F90F2
:100B60000F90C0E0D0E00DE211E081E090E00E9443
:100B7000281300D000D0EDB7FEB712830183D483D1
:100B8000C3830E94974B0F900F900F900F900E947D
:100B90007F262196EACF0F931F93CF93DF930E9476
:100BA000122700D000D0EDB7FEB731962CE331E02C
:100BB000ADB7BEB712963C932E93119782831382E2
:100BC0000E94974B0F900F900F900F90C0E0D0E0D5
:100BD0000BE411E08FEF90E00E94281300D000D0CA
:100BE000EDB7FEB712830183D483C3830E94974B72
:100BF0000F900F900F900F900E947F262197EACFC1
:100C0000CF92DF92EF92FF920F931F93DF93CF93D8
:100C1000CDB7DEB728970FB6F894DEBF0FBECDBFB5
:100C20008AE391E00E946D1100D000D081E691E04E
:100C3000ADB7BEB712969C938E93119785E690E060
:100C400014969C938E9313970E94974B86E691E09F
:100C5000EDB7FEB792838183148213820E94974B73
:100C60000F900F900F900F900E94122700D000D08D
:100C7000EDB7FEB7319620E831E0ADB7BEB71296BA
:100C80003C932E931197828313820E94974B85E0A9
:100C900090E0A0E0B0E089839A83AB83BC831D829F
:100CA0001E821F8218860F900F900F900F9080E089
:100CB00090E0BE016F5F7F4F40E050E00E941A2D30
:100CC00080E090E00E94A22D00E010E09FE8E92E75
:100CD00091E0F92E81E0C82ED12C80E090E00E94B6
:100CE000442D80E090E00E94281300D000D000D076
:100CF000EDB7FEB73196ADB7BEB71296FC92EE9245
:100D0000119713830283D582C4820E94974BEDB75B
:100D1000FEB736960FB6F894FEBF0FBEEDBF0E9429
:100D20007F260F5F1F4FD9CF8F929F92AF92BF92B6
:100D3000CF92DF92EF92FF921F93CF93DF93CFE298
:100D4000D4E0CE0160E076E00E94F52FCE0161E0B4
:100D500075E040E850E00E943B3011E0109337040A
:100D600010933604109338041093390410923A0407
:100D700010923B0410923C0410923D0480E892EBE8
:100D8000A6EEBEE080933E0490933F04A0934004FF
:100D9000B093410431E0832E912CA12CB12C809290
:100DA000420490924304A0924404B092450480E827
:100DB00090EFAAEFB2E08093460490934704A0938B
:100DC0004804B093490410924A0410924B041092C4
:100DD0004C0410924D0410924E0410924F04109245
:100DE000500410925104CE010E94CB24CCE1D7E0F4
:100DF000CE016BEC75E00E94F52FCE016AE574E040
:100E000040E850E00E943B3082E08093240710933A
:100E10002307109325071093260710922707109297
:100E200028071092290710922A0780E095E6ADEC7A
:100E3000BDE180932B0790932C07A0932D07B093CF
:100E40002E0710922F071092300710923107109240
:100E50003207C12C21EED22E25EFE22E25E0F22E14
:100E6000C0923307D0923407E0923507F0923607EC
:100E700010923707109238071092390710923A07EC
:100E800010923B0710923C0710923D0710923E07CC
:100E9000CE010E94CB24CEEDD4E0CE0166E975E010
:100EA0000E94F52FCE016DEA73E040E850E00E9409
:100EB0003B3083E08093E6041093E5041093E7044D
:100EC0001093E8048092E9049092EA04A092EB0463
:100ED000B092EC041092ED041092EE041092EF0424
:100EE0001092F0041092F1041092F2041092F304A4
:100EF0001092F404C092F504D092F604E092F70444
:100F0000F092F8041092F9041092FA041092FB0483
:100F10001092FC041092FD041092FE041092FF0443
:100F200010920005CE010E94CB24C8E8D3E0CE0188
:100F300061E675E00E94F52FCE016CE976E040E8AD
:100F400050E00E943B3084E08093900310938F0325
:100F5000109391031093920382E090E0A0E0B0E040
:100F60008093930390939403A0939503B093960377
:100F700010929703109298031092990310929A037B
:100F800010929B0310929C0310929D0310929E035B
:100F9000C0929F03D092A003E092A103F092A2031B
:100FA0001092A3031092A4031092A5031092A6031B
:100FB0001092A7031092A8031092A9031092AA03FB
:100FC000CE010E94CB24DF91CF911F91FF90EF9033
:100FD000DF90CF90BF90AF909F908F9008950E9428
:100FE0004E1387E090E00E949D130E948C1480E0D5
:100FF00090E00E943B138FEF90E00E943B1381E052
:1010000090E00E943B1382E090E00E943B1360E07E
:1010100070E0CB0120E030E0A9010E9483280E940B
:1010200094060E94551580E090E00895BF92CF92FB
:10103000DF92EF92FF920F931F93DF93CF93CDB781
:10104000DEB72A970FB6F894DEBF0FBECDBFB82E1D
:101050008E010F5F1F4FF80180E081938F5F8A3010
:10106000E1F75BE0E52EF12CEC0EFD1E4EEAC42EFE
:1010700041E0D42ED8018D918D0100D000D0EDB784
:10108000FEB73196ADB7BEB71296DC92CE921197ED
:10109000828313820E94974B0F900F900F900F90B6
:1010A0000E151F0539F700D000D0EDB7FEB7319609
:1010B00022EB31E0ADB7BEB712963C932E93119759
:1010C000B28213820E94974B0F900F900F900F9057
:1010D000BB2DB23020F08B2D81500E94160880E08D
:1010E0002A960FB6F894DEBF0FBECDBFCF91DF9129
:1010F0001F910F91FF90EF90DF90CF90BF900895D8
:1011000090E09C012B503040220F331F220F331FE1
:10111000865A9E4B820F931FF894C09828E12FB9EE
:10112000779BFECF9FB9779BFECF8FB9779BFECF82
:10113000C09A78940895F894C0981FB8779BFECF12
:101140008FB1C09A789486FFF6CF08958091DB0125
:101150000E9480118091DA010E94C6110895809149
:10116000DB010E9480118091DA010E9480110895B4
:10117000F894C09887E08FB9779BFECFC09AC0984B
:1011800086E08FB9779BFECFC09A78940895F89443
:10119000C09881E08FB9779BFECFC09A88EE93E02C
:1011A0000E94022E78940895809154070895FC01BE
:1011B000C09889EC8FB9779BFECF80E88FB9779B79
:1011C000FECF82E08150DF01A80FB11D9C919FB935
:1011D000779BFECF8823B1F7C09AC0988BEC8FB96C
:1011E000779BFECF80E88FB9779BFECF82E081505E
:1011F000DF01A80FB11D12969C9112979FB9779BA2
:10120000FECF8823A1F7C09A808180935507818102
:101210008093560782818093570783818093580774
:1012200008958F929F92AF92BF92CF92DF92EF92EA
:10123000FF920F931F93DF93CF9300D000D0CDB7D1
:10124000DEB7E82E092F84E690E00E94022EF02EF1
:1012500020E031E08E010F5F1F4FF3E0CF2ED12C45
:10126000CC0EDD1EF70191907F018824808190E0F3
:10127000882999299A83898384E690E02B833C838B
:101280000E94022EC0982B813C81822F80688FB9EA
:10129000779BFECFC90195958795807C8FB9779B09
:1012A000FECF5801F80181918FB9779BFECFEC15E5
:1012B000FD05C9F7C09A2E5F3F4FF1E020313F078F
:1012C00089F684E690E00E94022E20E431E080E17D
:1012D00091E01A821982C098422F40684FB9779BDB
:1012E000FECFA90155954795407C4FB9779BFECF1E
:1012F000F80141914FB9779BFECFEC15FD05C9F779
:10130000C09AC098482F40684FB9779BFECFAC0178
:1013100055954795407C4FB9779BFECFF801419199
:101320004FB9779BFECFEC15FD05C9F7C09A029621
:101330002E5F3F4F41E08E31940759F681E090E0F7
:101340009A838983C0988EEC8FB9779BFECF80E813
:101350008FB9779BFECFC8010296F80121912FB972
:10136000779BFECFE817F907C9F7C09AC0988EE9B6
:101370008FB9779BFECF80E88FB9779BFECF0E5F4A
:101380001F4FF50181915F018FB9779BFECFA016AA
:10139000B106B9F7C09A0F900F900F900F90CF91B0
:1013A000DF911F910F91FF90EF90DF90CF90BF9052
:1013B000AF909F908F900895C09889E18FB9779BE7
:1013C000FECF83E08FB9779BFECF86E08FB9779B06
:1013D000FECFC09AC0988AE18FB9779BFECF8EE08E
:1013E0008FB9779BFECF8EE08FB9779BFECFC09AE7
:1013F00081E0809345070895C09889E18FB9779B74
:10140000FECF81E08FB9779BFECF84EC8FB9779BBD
:10141000FECFC09A1092450708958091430790919E
:101420004407089590E08F719070806E906AC09824
:1014300025E12FB9779BFECF9FB9779BFECF8FB960
:10144000779BFECFC09A08950E94800808958091EE
:101450004607909147079860909347078093460707
:10146000C09881E18FB9779BFECF809147078FB9F4
:10147000779BFECF809146078FB9779BFECFC09AAE
:1014800008958091460790914707977F909347076B
:1014900080934607C09881E18FB9779BFECF8091FA
:1014A00047078FB9779BFECF809146078FB9779B0F
:1014B000FECFC09A089581E080935307809146073C
:1014C0009091470780619093470780934607C098A3
:1014D00081E18FB9779BFECF809147078FB9779BCA
:1014E000FECF809146078FB9779BFECFC09A0895B3
:1014F0001092530780914607909147078F7E9093F3
:10150000470780934607C09881E18FB9779BFECF4C
:10151000809147078FB9779BFECF809146078FB99F
:10152000779BFECFC09A0895DF93CF9300D0CDB7BD
:10153000DEB79A83898390934F0780934E0784EF99
:1015400091E00E94022EC0988AEE8FB9779BFECF61
:1015500080E88FB9779BFECFFE013196CE010396CE
:1015600021912FB9779BFECFE817F907C9F7C09AE9
:1015700084EF91E00E94022E0F900F90CF91DF91A7
:101580000895CF93DF93EC01862FC09898E09FB920
:10159000779BFECFC09AC09898E09FB9779BFECF0B
:1015A000C09A0E948008D0934907C0934807DF91F2
:1015B000CF910895DF92EF92FF920F931F93DF93E5
:1015C000CF9300D0CDB7DEB78C01D62E5A83498396
:1015D0007901DD9A88EE93E00E94DD13DE9881E0C8
:1015E00090E00E94DD13DE9A84E690E00E94DD1315
:1015F000F894C09881E08FB9779BFECFC09A82EEB5
:1016000092E09093470780934607C09881E18FB995
:10161000779BFECF809147078FB9779BFECF809154
:1016200046078FB9779BFECFC09AC09882E18FB9E9
:10163000779BFECF85E08FB9779BFECF1FB8779B56
:10164000FECFC09AC0988CE18FB9779BFECF1FB8B0
:10165000779BFECF8FE78FB9779BFECFC09AC0985C
:1016600089E18FB9779BFECF81E08FB9779BFECF61
:1016700084EC8FB9779BFECFC09AC09887E18FB971
:10168000779BFECF8AE18FB9779BFECF86E58FB936
:10169000779BFECFC09A84EF91E00E94022EC09803
:1016A00088EE8FB9779BFECF80E88FB9779BFECF0E
:1016B000FE013196CE01039621912FB9779BFECF83
:1016C000E817F907C9F7C09A84EF91E00E94022E4B
:1016D00078948D2D0E948008789410934907009388
:1016E000480789819A8190934D0780934C07F09227
:1016F0004F07E0924E0710924A07109250070E943F
:101700009B081092530710924507109254070F90B0
:101710000F90CF91DF911F910F91FF90EF90DF908D
:10172000089581E080935007C09883E08FB9779B3C
:10173000FECFC09AC09888E08FB9779BFECFC09A41
:1017400010925907089581E080935007C09883E074
:101750008FB9779BFECFC09AC09888E08FB9779BEE
:10176000FECFC09A10925907089510925007C09862
:1017700086E08FB9779BFECFC09A109259070895E3
:10178000BF92CF92DF92EF92FF920F931F93DF935E
:10179000CF9300D00F92CDB7DEB78C016B017A01E9
:1017A0000E94992EC09888E08FB9779BFECFC09A8F
:1017B000C09888E08FB9779BFECFC09A0E99FECF74
:1017C0008499FCCFF894C09889E08FB9779BFECFBD
:1017D000C09AC09889E08FB9779BFECFC09AD80194
:1017E00012965C911297252F332727FD3095BB2445
:1017F00040E00AC0D8011396ED91FC911497E80FD0
:10180000F91F8081B80E4F5F842F90E082179307F5
:101810008CF3545FC0988EE38FB9779BFECF5FB98E
:10182000779BFECFC09AF8018681882319F081E664
:1018300098E802C081E498E89A838983C0988EE38F
:101840008FB9779BFECFFE013196CE010396219191
:101850002FB9779BFECFE817F907C9F7C09AC09850
:101860008EE38FB9779BFECF80914A078FB9779B24
:10187000FECFC09AC0988EE38FB9779BFECF80E0F1
:1018800090E0FC01E85BF84F24812FB9779BFECFF5
:10189000019682309105A9F7C09AC0988EE38FB95E
:1018A000779BFECF80E090E0F801E80FF91F2081E0
:1018B0002FB9779BFECF019682309105A9F7C09A88
:1018C000C0988EE38FB9779BFECF80E090E0FC015B
:1018D000E85BF84F26812FB9779BFECF01968230C7
:1018E0009105A9F7C09AC601B7010E94252ED8011B
:1018F00015968C9115978823A9F18091500788231C
:1019000031F4C09883E08FB9779BFECFC09AC0981E
:101910001FB8779BFECF8FB1C09A81FFF8CF20E030
:10192000A5E0EA2EC098EFB8779BFECFC09AC0988A
:101930001FB8779BFECFCFB0C09A2F5F253649F4F2
:10194000789480914307909144070E94E92280E0B7
:1019500060C084E690E02B830E94DD132B81C3FEE0
:10196000E1CF06C0C09884E08FB9779BFECFC09AC4
:10197000C0988EE38FB9779BFECF40E00CC0D801B2
:101980001396ED91FC911497E80FF91F80818FB9A0
:10199000779BFECF4F5F842F90E0F80122813327A1
:1019A00027FD30958217930754F3C09AC0988EE3B1
:1019B0008FB9779BFECFBFB8779BFECFC09A849B31
:1019C000FECFF8948499FECFC09888E08FB9779BBA
:1019D000FECFC09AC09888E08FB9779BFECFC09A9F
:1019E000C09889E08FB9779BFECFC09AC09889E0F4
:1019F0008FB9779BFECFC09AC09886E08FB9779B4E
:101A0000FECFC09A789480914A078F5F80934A07EF
:101A100081E00F900F900F90CF91DF911F910F9168
:101A2000FF90EF90DF90CF90BF900895FF920F93BB
:101A30001F93DF93CF9300D0CDB7DEB7FC01809129
:101A40004507882331F0C0988DE08FB9779BFECF92
:101A5000C09A3281432F552747FD509520E060E022
:101A600007C0A381B481A80FB91F8C91280F6F5FA5
:101A7000862F90E084179507A4F3832F845F9091BD
:101A8000450791118C5FC09898E09FB9779BFECF76
:101A9000C09AC09898E09FB9779BFECFC09A0E99E4
:101AA000FECF8499FCCFF894C09899E09FB9779BBA
:101AB000FECFC09AC09899E09FB9779BFECFC09A9D
:101AC000C0989EE39FB9779BFECF8FB9779BFECFDF
:101AD000C09A81E498E89A83898380915307882388
:101AE00021F081E698E89A838983809145078823CD
:101AF00029F089819A8188609A838983C0988EE3CE
:101B00008FB9779BFECFDE011196CE0103963D91F2
:101B10003FB9779BFECFA817B907C9F7C09AC098FD
:101B20008EE38FB9779BFECF80914A078FB9779B61
:101B3000FECFC09AC0988EE38FB9779BFECF80E02E
:101B400090E0DC01A85BB84F14963C9114973FB924
:101B5000779BFECF01968230910599F7C09AC09885
:101B60008EE38FB9779BFECF80E090E0DF01A80F76
:101B7000B91F3C913FB9779BFECF0196823091050A
:101B8000A9F7C09AC0988EE38FB9779BFECF80E00B
:101B900090E0DC01A85BB84F16963C9116973FB9D0
:101BA000779BFECF01968230910599F7C09A80917C
:101BB0004507882381F0C0988EE38FB9779BFECFCD
:101BC000A5E5B7E08D918FB9779BFECF87E0A9356A
:101BD000B807C1F7C09AC0988EE38FB9779BFECF44
:101BE00030E009C0A381B481A80FB91F8C918FB9CF
:101BF000779BFECF3F5F832F90E04281552747FDC3
:101C000050958417950774F3C09AC0988EE38FB9E6
:101C1000779BFECF2FB9779BFECFC09A8581882313
:101C200091F180915007882331F4C09883E08FB9F7
:101C3000779BFECFC09AC0981FB8779BFECF8FB11D
:101C4000C09A81FFF8CF10E005E0C0980FB9779BEC
:101C5000FECFC09AC0981FB8779BFECFFFB0C09A46
:101C60001F5F153649F4789480914307909144079B
:101C70000E94E92280E043C084E690E00E94DD13E8
:101C8000F3FEE3CF06C0C09884E08FB9779BFECF08
:101C9000C09A7894849BFECF8499FECF809153079D
:101CA0008823F9F084EA92E00E94DD13B79B0BC011
:101CB000C0988FE78FB9779BFECF1FB8779BFECF79
:101CC0008FB1C09A0EC0C09888E08FB9779BFECFC5
:101CD000C09AC09888E08FB9779BFECFC09A80E009
:101CE00001C081E0F894C09896E09FB9779BFECF41
:101CF000C09A789490914A079F5F90934A070F90FB
:101D00000F90CF91DF911F910F91FF90089581E087
:101D1000849B80E0089581E00E9B80E0089581E03F
:101D2000849B80E00895DF93CF9300D000D0CDB79F
:101D3000DEB70E9BC7C1109254070E9B1AC0B7990D
:101D400018C0C0988FE78FB9779BFECF1FB8779BDD
:101D5000FECF8FB1C09AC09888E08FB9779BFECF35
:101D6000C09AC09888E08FB9779BFECFC09A8FEF5A
:101D7000AAC1C0988FE78FB9779BFECF1FB8779B1A
:101D8000FECF4FB1C09A4F77C1F4C0988FE78FB99B
:101D9000779BFECF1FB8779BFECF8FB1C09AC098BC
:101DA00088E08FB9779BFECFC09AC09888E08FB942
:101DB000779BFECFC09A8EEF86C14C3084F0E091C5
:101DC0004807F0914907842F992787FD90950B9735
:101DD0002481332727FD3095281739077CF5C098D3
:101DE0008FE78FB9779BFECF50E0842F992787FD2F
:101DF000909504C01FB8779BFECF5F5F252F30E022
:101E00002817390714F4B799F5CFC09AC0988FE70F
:101E10008FB9779BFECF1FB8779BFECF8FB1C09A4B
:101E2000C09888E08FB9779BFECFC09AC09888E0B1
:101E30008FB9779BFECFC09A8DEF45C1E0914807DF
:101E4000F09149074C504383C0988FE78FB9779B37
:101E5000FECFFE013196CE0103961FB8779BFECFD1
:101E60002FB12193E817F907C1F7C09AE09148070D
:101E7000F0914907998181E095FF80E08783C098C0
:101E80008FE78FB9779BFECF1FB8779BFECFE0918E
:101E90004807F09149078FB18083C09AC0988FE7B7
:101EA0008FB9779BFECF84E005C01FB8779BFECF2C
:101EB000815011F0B799F9CFC09AC0988FE78FB9C8
:101EC000779BFECF80E090E01FB8779BFECFE0913C
:101ED0004807F09149072FB1E80FF91F21830196B8
:101EE0008230910589F7C09A898183FF4DC0C098DF
:101EF0008FE78FB9779BFECFEFE3F7E01FB8779BB3
:101F0000FECF8FB1819387E0E334F807B9F7C09A29
:101F1000C09889E98FB9779BFECF80E88FB9779B0E
:101F2000FECF82E08150E82FF0E0E15CF84F908135
:101F30009FB9779BFECF8823A9F7C09AC0988BE9F9
:101F40008FB9779BFECF80E88FB9779BFECF82E079
:101F50008150E82FF0E0EF5BF84F90819FB9779BBD
:101F6000FECF8823A9F7C09AC0988CE08FB9779BE1
:101F7000FECFC09A81E080935407E0914807F0912A
:101F80004907838184508383C0988FE78FB9779BFB
:101F9000FECF40E00FC01FB8779BFECFE09148070F
:101FA000F09149078FB10580F681E02DE40FF11D16
:101FB00080834F5FE0914807F0914907242F30E07C
:101FC0008381992787FD90952817390724F3C09AB4
:101FD000C0988FE78FB9779BFECF1FB8779BFECF56
:101FE0006FB1C09AC0988FE78FB9779BFECFFE0183
:101FF0003396CE0105961FB8779BFECF2FB1219364
:10200000E817F907C1F7C09AE0914807F09149072E
:102010008B81808750E040E00CC0E0914807F09150
:1020200049070580F681E02DE80FF91F8081480FF0
:102030005F5FE0914807F0914907852F90E0238189
:10204000332727FD3095821793073CF34617C1F0DD
:10205000C0988FE78FB9779BFECF1FB8779BFECFD5
:102060008FB1C09AC09888E08FB9779BFECFC09A95
:10207000C09888E08FB9779BFECFC09A8CEF23C0C1
:102080008C8187FF07C0809159078F5F8093590724
:1020900081E019C0C0988FE78FB9779BFECF1FB83A
:1020A000779BFECF8FB1C09AC09888E08FB9779B9D
:1020B000FECFC09AC09888E08FB9779BFECFC09AB8
:1020C0008BEF01C080E00F900F900F900F90CF9199
:1020D000DF91089580915907882329F0809159074D
:1020E00010925907089580E00895C09888E08FB94C
:1020F000779BFECFC09AC09888E08FB9779BFECFC0
:10210000C09A0895992787FD9095982F8827806811
:10211000C09823E12FB9779BFECF9FB9779BFECF65
:102120008FB9779BFECFC09A0895C09886E08FB98B
:10213000779BFECFC09AC09882E18FB9779BFECF84
:1021400085E08FB9779BFECF88E08FB9779BFECF74
:10215000C09AC0988EE28FB9779BFECF88E18FB985
:10216000779BFECF1FB8779BFECFC09A0E94751059
:102170000895C09886E08FB9779BFECFC09AC0982B
:1021800082E18FB9779BFECF85E08FB9779BFECF39
:102190001FB8779BFECFC09AC0988EE28FB9779B0D
:1021A000FECF1FB8779BFECF1FB8779BFECFC09A9C
:1021B0000E9475100895C09886E08FB9779BFECF76
:1021C000C09AC09882E18FB9779BFECF85E08FB926
:1021D000779BFECF81E08FB9779BFECFC09A0E949C
:1021E00075100895C09882E18FB9779BFECF85E086
:1021F0008FB9779BFECF84E08FB9779BFECFC09AD3
:102200000E947510089590E08F709070209146079D
:1022100030914707207F822B932B90934707809321
:102220004607C09881E18FB9779BFECF8091470721
:102230008FB9779BFECF809146078FB9779BFECFF2
:10224000C09A089590E026E0880F991F2A95E1F73B
:10225000907020914607309147072F73822B932B64
:102260009093470780934607C09881E18FB9779B89
:10227000FECF809147078FB9779BFECF80914607AD
:102280008FB9779BFECFC09A0895C09884E08FB92C
:10229000779BFECFC09A0895C09886E08FB9779B50
:1022A000FECFC09A08955F9BFECF5F988CB10895D2
:1022B0005D9BFECF5D988CB908958FEF08958823BC
:1022C00011F48BB104C0813031F480919B00881FE0
:1022D0008827881F089580E00895CF93DF93EC014D
:1022E00007C0609181087091820890E00E946B4B5A
:1022F000FE01219684918823A1F7DF91CF91089563
:102300008F3F09F43FC0982F96959695969521E0BA
:1023100030E002C0220F331F9A95E2F790E08770F9
:10232000907082309105D9F08330910534F4009794
:1023300071F08130910541F50EC084309105C1F0F6
:10234000843091058CF085309105F1F415C08BB384
:10235000822B8BBB07C088B3822B88BB03C085B39D
:10236000822B85BB81E0089582B3822B82BBFACF9A
:1023700083B1822B83B9F6CF80916200822B809348
:102380006200F0CF8FEF08958FEF08958F3F09F42B
:1023900040C0982F96959695969521E030E002C022
:1023A000220F331F9A95E2F7209590E08770907086
:1023B00082309105D9F08330910534F4009771F0A3
:1023C0008130910541F50EC084309105C1F0843013
:1023D00091058CF085309105F1F415C08BB3822303
:1023E0008BBB07C088B3822388BB03C085B382231D
:1023F00085BB81E0089582B3822382BBFACF83B18B
:10240000822383B9F6CF8091620082238093620099
:10241000F0CF8FEF08958FEF08958F3F89F1282F28
:1024200030E02770307022303105C1F023303105A3
:102430003CF42115310571F02130310509F50CC04E
:102440002430310579F02430310554F02530310540
:10245000B9F40AC029B309C026B307C023B305C025
:1024600020B303C021B101C020B130E0869586952C
:10247000869502C0359527958A95E2F7217001C0AF
:102480002FEF822F0895882319F080B58B7F02C02B
:1024900080B5846080BD81E008958F3F09F43FC01E
:1024A000982F96959695969521E030E002C0220FE0
:1024B000331F9A95E2F790E0877090708230910513
:1024C000D9F08330910534F4009771F08130910593
:1024D00041F50EC084309105C1F0843091058CF037
:1024E00085309105F1F415C08BB382278BBB07C0F3
:1024F00088B3822788BB03C085B3822785BB81E070
:10250000089582B3822782BBFACF83B1822783B931
:10251000F6CF80916200822780936200F0CF8FEF28
:1025200008958FEF08958F3F09F48CC0982F9695EA
:102530009695969521E030E002C0220F331F9A95C0
:10254000E2F790E0662309F04AC0322F3095877099
:1025500090708230910519F1833091053CF4009719
:1025600081F08130910509F06DC012C08430910571
:1025700021F184309105D4F08530910509F062C0D5
:1025800023C08AB383238ABB8BB3822B8BBB58C0F7
:1025900087B3832387BB88B3822B88BB51C084B3A6
:1025A000832384BB85B3822B85BB4AC081B383233D
:1025B00081BB82B3822B82BB43C082B1832382B9A9
:1025C00083B1822B83B93CC08091610083238093C7
:1025D000610080916200822B8093620031C087701D
:1025E000907082309105D9F08330910534F40097D2
:1025F00071F08130910541F50EC084309105B9F03C
:102600008430910584F085309105F1F414C08AB3CB
:10261000822B8ABB15C087B3822B87BB11C084B3C2
:10262000822B84BB0DC081B3822B81BB09C082B1D8
:10263000822B82B905C080916100822B809361005A
:1026400081E008958FEF08958FEF08958FEF08953B
:10265000009711F480E009C08130910511F488E001
:1026600004C08230910529F480E10E944D1281E07E
:1026700008958FEF0895009711F480E009C081302C
:10268000910511F488E004C08230910529F480E1BD
:102690000E94801181E008958FEF089580B58460D5
:1026A00080BD87E087BB88BB8FEF84BB15BA82E013
:1026B00082B987E68ABB80E48BBB80E58DB981E077
:1026C0008EB980E090E00E943B1381E090E00E9490
:1026D0003B1382E090E00E943B1383E090E00E9475
:1026E0003B130895009711F480E009C081309105F3
:1026F00011F488E004C08230910529F480E10E9441
:10270000C61181E008958FEF089590919B0095FF89
:10271000FCCF90919B009F7D90939B0080939C00A9
:1027200008959093900089B986E08093950052981F
:10273000599A8AB188618AB908950F931F93CF93EC
:10274000DF930E949113C8E5D1E103E511E1CE01C9
:10275000B8010E94DE4A9093820880938108CE01DE
:10276000B8010E94DE4A9093800880937F08DF9131
:10277000CF911F910F9108959093980080939900A5
:1027800086E080939D00EAE9F0E080818B7F808382
:10279000ABE9B0E08C9182608C938081886180830A
:1027A000089580919B0087FFFCCF80919B008F77DD
:1027B00080939B0080919C00089500000000000021
:1027C00000000197D1F708950E94374C08950E94A8
:1027D0003F4C80E00895EF92FF920F931F93CF93A9
:1027E000DF93E82EE7017E01F92EE70180E090E01B
:1027F0000E94374C082F8B8381E090E00E94374C79
:10280000E82E8A8382E090E00E94374CF82E89837C
:1028100083E090E00E94374C182F888384E090E09A
:102820000E94374CFE0CF00EF10E8F1511F481E072
:1028300001C08FEFDF91CF911F910F91FF90EF902B
:102840000895CF93DF93EC0185E090E00E94374C30
:10285000888381E0DF91CF910895FC0186E090E0CC
:1028600060810E943F4C81E00895CF93DF93EC019B
:1028700086E090E00E94374C888381E0DF91CF9121
:1028800008950F931F93CF93DF93082F192FC8E05C
:10289000D0E0CE010E94374CF80181938F01219640
:1028A000C831D105B1F781E0DF91CF911F910F9130
:1028B00008950F931F93CF93DF93082F192FC8E02C
:1028C000D0E0F80161918F01CE010E943F4C21962A
:1028D000C831D105B1F781E0DF91CF911F910F9100
:1028E0000895CF93DF93EC0187E090E00E94374C8E
:1028F000888381E0DF91CF910895FC0187E090E02B
:1029000060810E943F4C81E00895F8940895789486
:1029100008950E948514FFCF0F931F93DF93CF93E9
:10292000CDB7DEB7A3970FB6F894DEBF0FBECDBF0D
:102930000E94D120809307088F3F21F48EE060E051
:102940000E949C1E0E947B2F80FF04C086E060E0F6
:102950000E949C1E0E94EB2F8F3F31F40E94D02FCB
:1029600080E160E00E949C1E0E94DD2F10920A0808
:10297000109218081092170810920908109208086F
:10298000109219080E948416109216088FEF8093F7
:102990000308809305088093040893E690936607E4
:1029A0008093640790938707809385079093A80787
:1029B0008093A6079093C9078093C7079093EA076F
:1029C0008093E807E6E5F8E020E030E001C09A01F6
:1029D000A9014F5F5F4FCA01880F991F880F991F88
:1029E000840F951F8D5A974F91838083C901880F5B
:1029F000991F880F991F820F931F8D5A974F9483A9
:102A0000838335964530510511F710925508109281
:102A100054081092700810926F0810920D081092CE
:102A20000C0883E598E090935B0780935A078E012A
:102A30000F5F1F4FC80163EE79E20E94F52FC801B6
:102A40006CE176E040E850E00E943B3085E5809301
:102A50001C0619861C861D861E861F86188A198AE2
:102A60001A8A1B8A1C8A1D8A1E8A1F8A188E198E32
:102A70001A8E1B8E1C8E1D8E1E8E1F8E18A219A2E2
:102A80001AA21BA281E0888792E09A878B87C801EF
:102A90000E94CB24A3960FB6F894DEBF0FBECDBF25
:102AA000CF91DF911F910F910895CF92DF92FF9206
:102AB0000F931F93DF93CF9300D0CDB7DEB7B4E66B
:102AC000CB2EB7E0DB2E90E0F601F080FF2DFF3F2C
:102AD000B1F004E617E020E0921761F0F801808180
:102AE000F81641F485E06F2D29839A830E949C1E7D
:102AF0009A8129812F5F0F5D1F4F253069F79F5FF6
:102B000021E230E0C20ED31E9530F1F60E94B923C7
:102B1000992787FD9095FC01A5E0EE0FFF1FAA9570
:102B2000E1F7E80FF91FE45AF84F828580931908FE
:102B3000F0931808E0931708F0930908E093080849
:102B400080930A080E9470300E9461300E94BD3B51
:102B5000FFCFEF92FF920F931F93CF93DF93EC0180
:102B60007B018A018985823021F080910608888363
:102B700001C0188280910608853020F087E060E06F
:102B80000E949C1E8985823029F0809106088F5F03
:102B90008093060880910608882319F481E08093C9
:102BA00006088881992787FD9095FC01A5E0EE0F26
:102BB000FF1FAA95E1F7E80FF91FE45AF84FF182D9
:102BC000E082888582878881992787FD9095FC011E
:102BD00075E0EE0FFF1F7A95E1F7E80FF91FE45A51
:102BE000F84F83E081872881822F992787FD909570
:102BF000FC0165E0EE0FFF1F6A95E1F7E80FF91F92
:102C0000E45AF84F20878881992787FD90957C01A9
:102C100055E0EE0CFF1C5A95E1F7E80EF91E8CE525
:102C200097E0E80EF91EF7011582CE010B960E947F
:102C30009428F701948F838F8B859C85AD85BE8505
:102C40008E339105A105B10520F086E168810E94CF
:102C50009C1EE880FF24E7FCF094CE014B960E9476
:102C60009428F70145E0EE0FFF1F4A95E1F7EE0DBE
:102C7000FF1DE45AF84F968B858B8881992787FD35
:102C800090957C0135E0EE0CFF1C3A95E1F7E80EDB
:102C9000F91E8CE597E0E80EF91EF7018589968903
:102CA000238D348D820F931F908F878BCE01439697
:102CB0000E949428F701968F858F8881992787FD38
:102CC0009095FC0125E0EE0FFF1F2A95E1F7E80F34
:102CD000F91FE45AF84F858D968D928F818F81E090
:102CE00090E090A3878F1383028381E08487DF9134
:102CF000CF911F910F91FF90EF9008950E94092AA4
:102D0000089585E690E008951092520410925304BD
:102D100010925404109255041092560410925704C5
:102D20001092580410925904E5E8F5E010821182DF
:102D300012821382108611861286138614821582DF
:102D4000168217821486158616861786108A118AAF
:102D5000128A138A108E118E128E138E148E158E77
:102D60007E9686E0EB31F80709F70895682F70E04A
:102D700080E090E023EB36EE4EE050E00E946449A4
:102D800020915604309157044091580450915904B1
:102D9000620F731F841F951F60935604709357042E
:102DA000809358049093590482E594E00E9405288A
:102DB0000895FC0120915204309153044091540431
:102DC00050915504208331834283538320915604CC
:102DD000309157044091580450915904248335830D
:102DE000468357830895E82FF0E09F01220F331F99
:102DF000A5E0EE0FFF1FAA95E1F7E21BF30BEB57DF
:102E0000FA4F958D913089F1E82FF0E09F01220F64
:102E1000331F65E0EE0FFF1F6A95E1F7E21BF30B2E
:102E2000EB57FA4F948D9F5FE82FF0E09F01220F40
:102E3000331F45E0EE0FFF1F4A95E1F7E21BF30B4E
:102E4000EB57FA4F948F9F3F81F4E82FF0E0CF01CA
:102E5000880F991F25E0EE0FFF1F2A95E1F7E81B69
:102E6000F90BEB57FA4F81E0858F0895E82FF0E0DA
:102E70009F01220F331F75E0EE0FFF1F7A95E1F7D8
:102E8000E21BF30BEB57FA4F958D913009F452C0CA
:102E9000E82FF0E09F01220F331F55E0EE0FFF1FD8
:102EA0005A95E1F7E21BF30BEB57FA4F148A158A98
:102EB000168A178AE82FF0E09F01220F331F95E052
:102EC000EE0FFF1F9A95E1F7E21BF30BEB57FA4F5A
:102ED00020893189428953892F5F3F4F4F4F5F4F80
:102EE000E82FF0E0BF01660F771FA5E0EE0FFF1F90
:102EF000AA95E1F7E61BF70BEB57FA4F208B318BC6
:102F0000428B538B2E3F9FEF39079FEF49079FEF6F
:102F1000590781F4E82FF0E0CF01880F991F25E0D1
:102F2000EE0FFF1F2A95E1F7E81BF90BEB57FA4F5D
:102F300081E0858F0895EF92FF92CF93DF93A82FC2
:102F4000E82FF0E0CF01880F991F75E0EE0FFF1F0B
:102F50007A95E1F7E81BF90BEB57FA4F858D813035
:102F600009F4B1C0EA2FF0E0CF01880F991F45E0C6
:102F7000EE0FFF1F4A95E1F7E81BF90BEB57FA4FED
:102F8000EA2EE7017E0120E0F22EE701C701880F5B
:102F9000991F25E0CC0FDD1F2A95E1F7C81BD90B3F
:102FA000CB57DA4F288D398D4A8D5B8D2F5F3F4F80
:102FB0004F4F5F4F208F318F428F538F70E080E0F3
:102FC00090E0EA2FF0E09F01220F331F55E0EE0F53
:102FD000FF1F5A95E1F7E21BF30BEB57FA4FEA2E6E
:102FE000E7017E0120E0F22EE7019701220F331F57
:102FF000B5E0CC0FDD1FBA95E1F7C21BD30BCB5761
:10300000DA4F2C893D894E895F89260F371F481F6B
:10301000591F248B358B468B578BEA2FF0E09F018D
:10302000220F331F45E0EE0FFF1F4A95E1F7E21B29
:10303000F30BEB57FA4FEA2EE7017E0120E0F22E68
:10304000E7019701220F331F55E0CC0FDD1F5A9582
:10305000E1F7C21BD30BCB57DA4F288139814A8164
:103060005B81260F371F481F591F208331834283FE
:103070005383EA2FF0E0CF01880F991F35E0EE0F60
:10308000FF1F3A95E1F7E81BF90BEB57FA4F208D3C
:10309000318D428D538D2E3F8FEF38078FEF4807CC
:1030A0008FEF580781F4EA2FF0E0CF01880F991FC6
:1030B000B5E0EE0FFF1FBA95E1F7E81BF90BEB57F0
:1030C000FA4F81E0858FDF91CF91FF90EF900895C7
:1030D000EF92FF92CF93DF93E82FA82FB0E0CD01BE
:1030E000880F991F75E0AA0FBB1F7A95E1F7A81BFF
:1030F000B90BAB57BA4F5D968C915D97813009F44F
:10310000FAC070E080E090E0AE2FB0E09D01220FA9
:10311000331F45E0AA0FBB1F4A95E1F7A21BB30B73
:10312000AB57BA4FEE2EE7017E0120E0F22EE70109
:103130009701220F331F55E0CC0FDD1F5A95E1F7A1
:10314000C21BD30BCB57DA4F2C893D894E895F893F
:10315000260F371F481F591F1C962D933D934D93E3
:103160005C931F97AE2FB0E09D01220F331FF5E057
:10317000AA0FBB1FFA95E1F7A21BB30BAB57BA4FCF
:10318000EE2EE7017E0120E0F22EE7019701220FEB
:10319000331F45E0CC0FDD1F4A95E1F7C21BD30B6F
:1031A000CB57DA4F288139814A815B81260F371F3F
:1031B000481F591F2D933D934D935C931397AE2F4A
:1031C000B0E0CD01880F991FF5E0AA0FBB1FFA955B
:1031D000E1F7A81BB90BAB57BA4F14962D913D914F
:1031E0004D915C9117972115310541055105C9F0A5
:1031F000AE2FB0E0CD01880F991F65E0AA0FBB1F6D
:103200006A95E1F7A81BB90BAB57BA4F1C968D9185
:103210009D910D90BC91A02D82179307A407B5072F
:1032200050F58E2FEC017E0120E0F22EE701C70160
:10323000880F991F45E0CC0FDD1F4A95E1F7C81BA9
:10324000D90BCB57DA4FAE2FB0E0CD01880F991FC5
:1032500025E0AA0FBB1F2A95E1F7A81BB90BAB57B6
:10326000BA4F1C968D919D910D90BC91A02D8C8391
:103270009D83AE83BF83AE2FB0E0CD01880F991F31
:1032800075E0AA0FBB1F7A95E1F7A81BB90BAB57E6
:10329000BA4F1C962D913D914D915C911F97AE2F89
:1032A000B0E0CD01880F991FF5E0AA0FBB1FFA957A
:1032B000E1F7A81BB90BAB57BA4F18966D917D91EA
:1032C0008D919C911B97621773078407950798F45B
:1032D0008E2F90E0BC01660F771FFC0185E0EE0F9A
:1032E000FF1F8A95E1F7E61BF70BEB57FA4F208794
:1032F000318742875387DF91CF91FF90EF900895F8
:103300008F929F92AF92BF92CF92DF92EF92FF92F5
:103310001F93DF93CF93CDB7DEB760970FB6F894C6
:10332000DEBF0FBECDBF182F8CE292E00E946D1160
:1033300000D000D0EDB7FEB7319684EE91E0ADB786
:10334000BEB712969C938E931197128313820E949C
:10335000974B0F900F900F900F90112309F085C09D
:1033600081E192E00E946D11CE0101960E94182722
:10337000EDB7FEB73A970FB6F894FEBF0FBEEDBF9C
:103380008DB69EB60894811C911C37EEA32E31E0B9
:10339000B32EB282A18289819A81AB81BC81F40172
:1033A00082839383A483B5836D817E818F81988589
:1033B00020E4C22E22E4D22E2FE0E22EF12CA7012F
:1033C00096010E949749D40116962D933D934D93F3
:1033D0005C9319970E94974BEDB7FEB73A960FB6DC
:1033E000F894FEBF0FBEEDBF80EF91E00E946D111B
:1033F0008DB79EB70A970FB6F8949EBF0FBE8DBFCC
:103400008DB69EB60894811C911CADB7BEB71296BE
:10341000BC92AE9211978091520490915304A09166
:103420005404B0915504F40182839383A483B5833B
:1034300060915604709157048091580490915904FA
:10344000A70196010E949749D40116962D933D93AA
:103450004D935C9319970E94974BEDB7FEB73A9640
:103460000FB6F894FEBF0FBEEDBF8FED91E00E9446
:103470006D11E12FF0E0CF01880F991FA5E0EE0F4D
:10348000FF1FAA95E1F7E81BF90BEB57FA4F608194
:103490007181828193810E94232929873A874B87F2
:1034A0005C876D877E878F87988BDE011196FE0182
:1034B000399688E001900D928150E1F78DB79EB763
:1034C0000A970FB6F8949EBF0FBE8DBFCDB6DEB67D
:1034D0000894C11CD11C87EE91E0ADB7BEB712961F
:1034E0009C938E93119789819A81AB81BC81F6015F
:1034F00082839383A483B5836D817E818F81988538
:1035000020E432E44FE050E00E949749D60116963D
:103510002D933D934D935C9319970E94974BEDB774
:10352000FEB73A960FB6F894FEBF0FBEEDBF84EC1F
:1035300091E00E946D11E12FF0E0CF01880F991FFB
:1035400065E0EE0FFF1F6A95E1F7E81BF90BEB57FB
:10355000FA4F64817581868197810E94232929878A
:103560003A874B875C876D877E878F87988BDE01D4
:103570001196FE01399688E001900D928150E1F795
:103580008DB79EB70A970FB6F8949EBF0FBE8DBF3A
:10359000CDB6DEB60894C11CD11C87EF91E0ADB763
:1035A000BEB712969C938E93119789819A81AB81B5
:1035B000BC81F60182839383A483B5836D817E8170
:1035C0008F81988520E432E44FE050E00E949749D3
:1035D000D60116962D933D934D935C9319970E94B7
:1035E000974BEDB7FEB73A960FB6F894FEBF0FBEF5
:1035F000EDBFE12FF0E0CF01880F991F45E0EE0FFE
:10360000FF1F4A95E1F7E81BF90BEB57FA4F64856A
:103610007585868597850E94232929873A874B8758
:103620005C876D877E878F87988BDE011196FE0100
:10363000399688E001900D928150E1F78DB79EB7E1
:103640000A970FB6F8949EBF0FBE8DBFCDB6DEB6FB
:103650000894C11CD11C87EF91E0ADB7BEB712969C
:103660009C938E93119789819A81AB81BC81F601DD
:1036700082839383A483B5836D817E818F819885B6
:1036800020E432E44FE050E00E949749D6011696BC
:103690002D933D934D935C9319970E94974BEDB7F3
:1036A000FEB73A960FB6F894FEBF0FBEEDBFE12FFE
:1036B000F0E0CF01880F991F25E0EE0FFF1F2A953C
:1036C000E1F7E81BF90BEB57FA4F608571858285AE
:1036D00093850E94232929873A874B875C876D87CA
:1036E0007E878F87988BDE011196FE01399688E0E0
:1036F00001900D928150E1F78DB79EB70A970FB6F2
:10370000F8949EBF0FBE8DBFCDB6DEB60894C11C27
:10371000D11C87EE91E0ADB7BEB712969C938E9305
:10372000119789819A81AB81BC81F6018283938351
:10373000A483B5836D817E818F81988520E432E4F6
:103740004FE050E00E949749D60116962D933D9385
:103750004D935C9319970E94974BEDB7FEB73A963D
:103760000FB6F894FEBF0FBEEDBF84EB91E00E9450
:103770006D1100D000D000D089E0C82E82E0D82E94
:10378000ADB7BEB71296DC92CE921197E12FF0E062
:10379000CF01880F991FA5E0EE0FFF1FAA95E1F753
:1037A000E81BF90BEB57FA4F80899189A289B389FD
:1037B000EDB7FEB783839483A583B6830E94974BAE
:1037C0008DB79EB706960FB6F8949EBF0FBE8DBFFD
:1037D00081EA91E00E946D1100D000D000D0ADB719
:1037E000BEB71296DC92CE921197E12FF0E0CF0196
:1037F000880F991F65E0EE0FFF1F6A95E1F7E81B40
:10380000F90BEB57FA4F808D918DA28DB38DEDB7EB
:10381000FEB783839483A583B6830E94974B8DB7AD
:103820009EB706960FB6F8949EBF0FBE8DBF88E870
:1038300091E00E946D1100D000D0ADB7BEB71196D7
:103840005DE0C52E52E0D52EEDB7FEB7D282C18223
:10385000E12FF0E0CF01880F991F35E0EE0FFF1F39
:103860003A95E1F7E81BF90BEB57FA4F848D129666
:103870008C93129713961C920E94974B0F900F9067
:103880000F900F908BE691E00E946D1100D000D058
:10389000ADB7BEB71196EDB7FEB7D282C182E12FA8
:1038A000F0E0CF01880F991F15E0EE0FFF1F1A956A
:1038B000E1F7E81BF90BEB57FA4F858D12968C93C5
:1038C000129713961C920E94974B0F900F900F9097
:1038D0000F9088E691E00E946D1160960FB6F89403
:1038E000DEBF0FBECDBFCF91DF911F91FF90EF9054
:1038F000DF90CF90BF90AF909F908F9008958BE412
:1039000091E00E946D1180E00E94801981E00E9488
:10391000801982E00E94801983E00E94801984E06F
:103920000E9480190895FB01853008F0CBC0A82FB4
:10393000B0E09D01220F331F55E0AA0FBB1F5A951F
:10394000E1F7A21BB30BAB57BA4F2D913D914D91AF
:103950005C912083318342835383A82FB0E09D0183
:10396000220F331F95E0AA0FBB1F9A95E1F7A21B08
:10397000B30BAB57BA4F14962D913D914D915C917D
:1039800017972483358346835783A82FB0E09D0182
:10399000220F331F65E0AA0FBB1F6A95E1F7A21B38
:1039A000B30BAB57BA4F18962D913D914D915C9149
:1039B0001B972087318742875387A82FB0E09D014E
:1039C000220F331F45E0AA0FBB1F4A95E1F7A21B48
:1039D000B30BAB57BA4F1C962D913D914D915C9115
:1039E0001F972487358746875787A82FB0E09D010A
:1039F000220F331F75E0AA0FBB1F7A95E1F7A21BB8
:103A0000B30BAB57BA4F50962D913D914D915C91B0
:103A10005397208B318B428B538BA82FB0E09D01A5
:103A2000220F331F55E0AA0FBB1F5A95E1F7A21BC7
:103A3000B30BAB57BA4F54962D913D914D915C917C
:103A40005797248B358B468B578BA82FB0E09D0161
:103A5000220F331F95E0AA0FBB1F9A95E1F7A21B17
:103A6000B30BAB57BA4F58962D913D914D915C9148
:103A70005B97208F318F428F538FA82FB0E09D012D
:103A8000220F331F65E0AA0FBB1F6A95E1F7A21B47
:103A9000B30BAB57BA4F5C969C91948FA82FB0E0B4
:103AA000CD01880F991F45E0AA0FBB1F4A95E1F78A
:103AB000A81BB90BAB57BA4F5D968C915D97858F5C
:103AC00081E008958FEF0895E0911708F0911808AC
:103AD00084870895E0911708F09118088485089567
:103AE000FF920F931F93F82E062F80E092E00E9422
:103AF000E4138F5F809378038F3F11F41092780363
:103B00002091780316E0219F90011124C9018F5F55
:103B10009D4F6F2D0E94E71380917803819FC00114
:103B200011248E5F9D4F602F0E94E71380917803D0
:103B3000819FC001112420910E0830910F084091FF
:103B4000100850911108252F3327442755278D5FE2
:103B50009D4F622F0E94E71380917803819FC001DF
:103B6000112420910E0830910F08409110085091B7
:103B700011089A01442755278C5F9D4F622F0E94A0
:103B8000E71380917803819FC001112420910E08D2
:103B900030910F084091100850911108232F342FB5
:103BA000452F55278B5F9D4F622F0E94E713809111
:103BB0007803819FC00111248A5F9D4F60910E0898
:103BC0000E94E71380E092E0609178030E94E7137F
:103BD0001F910F91FF90089520911B06222341F021
:103BE000FB01208320912D04FC01208381E00895B6
:103BF00080E0089580911B06882309F49BC083E62A
:103C000094E00E946D1100D000D0EDB7FEB7319660
:103C100080E192E0ADB7BEB712969C938E93119758
:103C200080912D04828313820E94974B0F900F90F6
:103C30000F900F908FE594E00E946D1180911B060C
:103C4000883110F010921B0680911B0690E00197BE
:103C50008631910508F04BC08A5B9F4FFC01EE0F47
:103C6000FF1F0590F491E02D099483E294E041C098
:103C70008CEF93E03EC088EE93E03BC082ED93E092
:103C800038C087EB93E035C081EA93E032C089E821
:103C900093E02FC086E793E02CC083E693E029C031
:103CA00085E493E026C080E293E023C084E193E0C2
:103CB00020C089EF92E01DC08AEE92E01AC086ED26
:103CC00092E017C085EC92E014C081EB92E011C045
:103CD00081E992E00EC089E792E00BC08EE592E0A8
:103CE00008C08DE492E005C08EE392E002C087E355
:103CF00092E00E946D1160918108709182088DE0C0
:103D000090E00E946B4B60918108709182088AE07C
:103D100090E00E946B4B80911B06803149F083310B
:103D200039F0843129F00E94DD2F0E948514FFCFE5
:103D300010921B0680E008951F93182F80931B0696
:103D400060932D040E94701D0E94FA1D103149F0ED
:103D5000133139F0143129F00E94DD2F0E948514AF
:103D6000FFCF1F91089580931B06E0911708F091F3
:103D70001808608560932D040E94701D0E94FA1D32
:103D80000895DF93CF930F92CDB7DEB7198207C0A6
:103D900080ED97E00E94022E89818F5F898389815F
:103DA0008436B0F30F90CF91DF91089581E090E0D9
:103DB0000E9472130E94C11E81E090E00E943B139A
:103DC0000E94C11E089581E090E00E9472130E943B
:103DD000C11E0E94C11E0E94C11E81E090E00E948F
:103DE0003B130E94C11E0895FF920F931F93DF9310
:103DF000CF9300D00F92CDB7DEB700D000D000D067
:103E0000EDB7FEB731968E010F5F1F4FADB7BEB74E
:103E100012961C930E93119720E132E03383228394
:103E2000848315820E94A94BEDB7FEB736960FB674
:103E3000F894FEBF0FBEEDBFFF2472C0800F911F2C
:103E4000DC018C918433D1F1853370F48133F9F046
:103E5000823320F4803309F05CC016C0823311F144
:103E6000833309F056C023C08733C9F1883330F457
:103E7000853369F1863309F04CC02CC08833B1F129
:103E8000893309F046C03BC00E94E31E02C00E9475
:103E9000D61E0E94E31E0E94E31E0E94E31E0E94A3
:103EA000E31E37C00E94D61E0E94D61EF4CF0E9489
:103EB000D61E0E94D61E0E94D61EEFCF0E94D61E8E
:103EC0000E94D61E0E94D61E0E94D61EE8CF0E94D7
:103ED000D61E02C00E94E31E0E94D61E04C00E948D
:103EE000E31E0E94E31E0E94D61E06C00E94E31E2F
:103EF0000E94E31E0E94E31E0E94D61E08C00E947C
:103F0000E31E0E94E31E0E94E31E0E94E31E0E9425
:103F1000D61E0E94C11E0E94C11E0E94C11EF394A3
:103F2000F80101900020E9F73197E01BF10B8F2D8C
:103F300090E08E179F0708F481CF0F900F900F909D
:103F4000CF91DF911F910F91FF9008956F927F9213
:103F50008F929F92AF92BF92CF92DF92EF92FF9299
:103F60000F931F93CF93DF938FE694E00E946D1120
:103F700000D000D083E192E0ADB7BEB712969C931B
:103F80008E931197E0911708F09118088085992772
:103F900087FD909514969C938E9313970E94974B50
:103FA000E0911708F0911808C281D3818CE192E06A
:103FB000EDB7FEB792838183D483C3830E94974B6E
:103FC000EDB7FEB7319669E2E62E62E0F62EADB7A8
:103FD000BEB71296FC92EE9211978881828313826B
:103FE0000E94974B56E3C52E52E0D52EEDB7FEB793
:103FF000D282C182E0911708F091180880819181E6
:10400000ADB7BEB714969C938E9313970E94974BAF
:1040100040E4A42E42E0B42EEDB7FEB7B282A182F6
:104020008091170890911808948383830E94974B7E
:104030000CE517E00F900F900F900F90C0E0D0E0CC
:1040400030E5632E32E0732E4701C601DC2CC92E09
:10405000C501BA2CA92ED8011296ED90FC901397A9
:1040600000D000D000D0EDB7FEB73196ADB7BEB7E7
:1040700012967C926E921197D383C283F582E4826A
:104080000E94974B0F900F90EDB7FEB73196ADB7EA
:10409000BEB711968C92119712969C92D7018C9173
:1040A000828313820E94974BEDB7FEB7D182C28202
:1040B000D8018D919C91948383830E94974BEDB797
:1040C000FEB7B182A282CE0125E0880F991F2A9502
:1040D000E1F78C0F9D1F845A984F948383830E942D
:1040E000974B21960F5D1F4F0F900F900F900F90E1
:1040F000C530D10509F0AFCFDF91CF911F910F915E
:10410000FF90EF90DF90CF90BF90AF909F908F90F7
:104110007F906F900895CF93DF93E0911708F0910F
:104120001808C281D3818881853539F00E94A61F85
:1041300081E00E94B31E85E58883E0911708F09125
:1041400018088081918121E18030920728F00E9437
:10415000A61F82E10E94B31EDF91CF910895992797
:1041600087FD9095FC0175E0EE0FFF1F7A95E1F752
:10417000E80FF91FE45AF84FA281B3818C9185357D
:1041800019F085E58C9309C08081918121E180300F
:10419000920728F082E10E94B31E8FEF089581E01C
:1041A00008956091DA047091DB048091DC049091B1
:1041B000DD04E0E0F0E09B01AC010E2E04C056955A
:1041C0004795379527950A94D2F720FD1AC021E02C
:1041D00030E040E050E00E2E04C0220F331F441F99
:1041E000551F0A94D2F7262B372B482B592B209397
:1041F000DA043093DB044093DC045093DD048E2F0B
:1042000008953196E032F105B1F68FEF0895E0910F
:104210001708F09118086585768587859089089537
:10422000DF92EF92FF920F931F93D82E81E0E82E3A
:10423000F12C012D112D0D2C04C0EE0CFF1C001FC4
:10424000111F0A94D2F78091DA049091DB04A091B7
:10425000DC04B091DD048E219F21A023B1230097BF
:10426000A105B10509F45DC00E948514E3E6F7E0FD
:10427000A8019701209530954095509563E0818184
:104280008F3F39F186819781A085B1858E159F0575
:10429000A007B10731F412861386148615861082A2
:1042A000628386819781A085B18582239323A4238D
:1042B000B52386839783A087B18782859385A4855C
:1042C000B58582239323A423B52382879387A4876C
:1042D000B587B19688E0E830F80789F62EEF3FEF12
:1042E0004FEF5FEF04C0220F331F441F551FDA94B6
:1042F000D2F78091DA049091DB04A091DC04B091B4
:10430000DD0482239323A423B5238093DA049093BE
:10431000DB04A093DC04B093DD040E94871481E0E9
:1043200001C08FEF1F910F91FF90EF90DF900895E4
:10433000EF92FF920F931F9321E030E040E050E0B6
:1043400004C0220F331F441F551F8A95D2F7E091F6
:104350001708F091180885859685A785B089790199
:104360008A01E822F9220A231B23E114F104010542
:104370001105D1F0209530954095509582239323D7
:10438000A423B52385879687A787B08B81899289D7
:10439000A389B48982239323A423B523818B928B91
:1043A000A38BB48B81E001C08FEF1F910F91FF9021
:1043B000EF9008952091DA043091DB044091DC0401
:1043C0005091DD04082E04C05695479537952795E2
:1043D0000A94D2F72170307021153105E9F0E0918F
:1043E0001708F091180821E030E040E050E004C0E8
:1043F000220F331F441F551F8A95D2F78585968556
:10440000A785B089822B932BA42BB52B8587968704
:10441000A787B08B81E008958FEF0895EF92FF9208
:104420000F931F93DF93CF930F92CDB7DEB791E039
:10443000E92EF12C012D112D04C0EE0CFF1C001FE4
:10444000111F8A95D2F78091DA049091DB04A09134
:10445000DC04B091DD048E219F21A023B1230097BD
:10446000A105B10511F481E03FC00E948514E3E687
:10447000F7E020E033E080818130A9F482859385E4
:10448000A485B5858E219F21A023B1230097A10586
:10449000B10549F03283178616861082E286F386CC
:1044A0000487158721E08081823091F4828593858D
:1044B000A485B5858E159F05A007B10749F4328301
:1044C000178616861082128613861486158621E0BA
:1044D000B19688E0E830F80771F629830E948714C6
:1044E0002981222329F482E00E94641D8FEF01C0FC
:1044F00081E00F90CF91DF911F910F91FF90EF908E
:104500000895E0911708F0911808258536854785AC
:104510005089262337234823592321153105410586
:10452000510521F1618B728B838B948B21E0278362
:104530000090070804C096958795779567950A942B
:10454000D2F7617070706115710519F00E94B9257C
:1045500004C080E090E00E94E025E0911708F0910F
:104560001808218932894389548903C020E030E04A
:10457000A901B901CA01089580E090E0089528E0FA
:104580008330920711F480E008958FEF08950E9420
:10459000BF228F3F11F481E003C0813029F482E013
:1045A0000E94641D8FEF0895992787FD9095FC0167
:1045B000EE0FFF1FE80FF91FED5FF74F8FEF8083BE
:1045C000828381838091160881508093160881E050
:1045D00008950F931F93DF93CF930F92CDB7DEB75C
:1045E0000E94BF228F3F11F481E003C0813029F483
:1045F00082E00E94641D8FEF43C0282F332727FDE0
:1046000030958901000F111F020F131F0D5F174F07
:10461000D80112962C9112979C91291784F58983C1
:104620000E948514F80192819F5F9283E0911708A0
:10463000F09118081482E3E6F7E08981992787FD55
:104640009095A92FB92F63E02081223089F422852B
:10465000338544855585281739074A075B0741F498
:104660006283178616861082128613861486158634
:10467000B19628E0E830F20739F70E94871481E00C
:104680000F90CF91DF911F910F9108950F931F937A
:10469000DF93CF930F92CDB7DEB70E94BF228F3F3B
:1046A00011F481E003C0813029F482E00E94641D8E
:1046B0008FEF40C089830E9485148981082F1127BC
:1046C00007FD1095F801EE0FFF1FE00FF11FED5FE2
:1046D000F74F92819923B1F4E0911708F0911808EF
:1046E000978192609783992787FD9095A92FB92F7D
:1046F000818B928BA38BB48B0E94871480E090E017
:104700000E94E025F801EE0FFF1FE00FF11FED5FA3
:10471000F74F828181508283A0911708B0911808C9
:1047200081811B968C931B9781E014968C930E9439
:10473000871481E00F90CF91DF911F910F91089521
:104740000E94BF228F3F11F481E003C0813029F421
:1047500082E00E94641D8FEF0895992787FD909550
:10476000FC01EE0FFF1FE80FF91FED5FF74F82818D
:104770000895E0910C08F0910D0880810895E09172
:104780000C08F0910D0803C00380F481E02D3097F0
:10479000D9F70895DF92EF92FF920F931F93CF9373
:1047A000DF93E0915A07F0915B07309709F49BC0C3
:1047B00040910C0850910D084115510509F457C05E
:1047C000DA01682F772767FD70959B0115E0220FAE
:1047D000331F1A95E1F7260F371F245A384FB901B6
:1047E000665F7F4F89010C5F1F4F9BE0E92EF12C24
:1047F000E20EF31E2C9130E0E90195E0CC0FDD1FB5
:104800009A95E1F7C20FD31FC45AD84F9C819923C0
:1048100029F0DB84EB019881D91658F1E8019881E1
:10482000992379F0E90195E0CC0FDD1F9A95E1F726
:10483000C20FD31FC45AD84FDA84E7019881D91622
:10484000C0F0E90195E0CC0FDD1F9A95E1F7C20FAA
:10485000D31FC45AD84F2A85EB019881291748F0F5
:1048600013960D90BC91A02D109721F602C0A0E0E8
:10487000B0E08083C381D481D0935B07C0935A0793
:10488000A417B507B1F4109749F0B483A38312823B
:1048900011821296FC93EE93119706C01482138234
:1048A00012821182FA83E983F0930D08E0930C08D9
:1048B0001AC011968D919C911297AC17BD0759F0B3
:1048C00092838183B483A3831196CD91DC91129757
:1048D000FC83EB8304C0148213829283818312963B
:1048E000FC93EE931197DF91CF911F910F91FF9061
:1048F000EF90DF900895CF93DF93E0910C08F09153
:104900000D08309709F444C0992787FD90952081C0
:1049100030E02817390781F4A381B481B0930D08E2
:10492000A0930C0812961C921E92119718C0038037
:10493000F481E02D309761F1208130E028173907AC
:10494000B1F7C181D281838194819C838B83A381C0
:10495000B481109721F01296DC93CE931197A09119
:104960005A07B0915B07109739F4F0935B07E09317
:104970005A07148213820AC0B483A3831296FC934D
:10498000EE931197F0935B07E0935A07128211821E
:10499000DF91CF910895EF92FF920F931F93CF93E2
:1049A000DF93EC0169817A814B815C818D819E81ED
:1049B0000E941030BC018F81882369F04B815C819B
:1049C000CE0120E030E000E010E0EE24FF240E9461
:1049D000A9151F8213C08881992787FD9095FC0136
:1049E00025E0EE0FFF1F2A95E1F7E80FF91FE45AC3
:1049F000F84F81858330D1F4718360838881992752
:104A000087FD9095FC0105E0EE0FFF1F0A95E1F789
:104A1000E80FF91FE45AF84F85899689009741F409
:104A200082E0818788810E94CA2302C08FEF01C083
:104A300081E0DF91CF911F910F91FF90EF9008954A
:104A40001F93DF93CF93CDB7DEB728970FB6F894B7
:104A5000DEBF0FBECDBF29833A834B835C836D835A
:104A60007E838F8398870E9485140E94992E182F29
:104A7000CE0101960E9494289C018330910560F03C
:104A8000E0911708F0911808210F311D368B258B06
:104A90000E94871481E001C08FEF28960FB6F8942A
:104AA000DEBF0FBECDBFCF91DF911F9108950E9451
:104AB0000530E0911708F091180885818823B9F72F
:104AC0000895FF920F931F93DF93CF93CDB7DEB777
:104AD00028970FB6F894DEBF0FBECDBF29833A8367
:104AE0004B835C836D837E838F8398870E948B20AA
:104AF0000E948514E0911708F091180881E08583E1
:104B000081E090E090A3878F0E94992EF82ECE012D
:104B100001960E949428E0911708F09118080F2D33
:104B200010E09801280F391F368B258B8F2D883F79
:104B300078F40E94932E0F5F1F4F282F30E002174A
:104B4000130734F48F2D8E5F809384050E94962E78
:104B50000E9487140E94572581E028960FB6F8948A
:104B6000DEBF0FBECDBFCF91DF911F910F91FF90A0
:104B700008951F930E948514E0911708F09118087A
:104B800081E0858386830E94992E182F883F88F4C0
:104B90000E94932E212F30E02F5F3F4F482F50E08F
:104BA0002417350734F4812F8E5F809384050E948B
:104BB000962E0E9487140E94572581E01F91089528
:104BC0001F93CF93DF93EC010E948514E0911708A7
:104BD000F091180881E08583D68BC58B0E94992EB1
:104BE000182F883F88F40E94932E212F30E02F5FEA
:104BF0003F4F482F50E02417350734F4812F8E5F44
:104C0000809384050E94962E0E9487140E94572547
:104C100081E0DF91CF911F910895EF92FF920F9362
:104C20001F93DF93CF930F92CDB7DEB78C010E9415
:104C30008514E0911708F091180881E085830E949F
:104C4000992EE0911708F0911808E82EFF240E0D18
:104C50001F1D168B058B883F90F489830E94932E2D
:104C60000894E11CF11C282F30E09981E216F3062C
:104C700034F4892F8E5F809384050E94962E0E94C3
:104C800087140E94572581E00F90CF91DF911F91EB
:104C90000F91FF90EF9008951F93CF93DF93EC0156
:104CA0000E948B20209711F4C1E0D0E00E9485146F
:104CB000E0911708F091180881E08583D0A3C78F91
:104CC0000E94992E182F883F88F40E94932E212F3E
:104CD00030E02F5F3F4F482F50E02417350734F462
:104CE000812F8E5F809384050E94962E0E948714E8
:104CF0000E94572581E0DF91CF911F9108951F9366
:104D00000E948B200E948514E0911708F0911808EA
:104D100081E090E090A3878F81E085830E94992EA7
:104D2000182F883F88F40E94932E212F30E02F5FA8
:104D30003F4F482F50E02417350734F4812F8E5F02
:104D4000809384050E94962E0E9487140E94572506
:104D500081E01F910895E0911708F091180880856F
:104D60000E947B24E0911708F091180884E0818765
:104D70000E947F2681E008958F929F92AF92BF920A
:104D8000CF92DF92EF92FF920F931F93DF93CF9317
:104D9000CDB7DEB760970FB6F894DEBF0FBECDBFBC
:104DA00029873A874B875C876D877E878F87988BAB
:104DB000CE0101960E941827CE01099609851A8511
:104DC0002B853C854D855E856F85788989809A80A5
:104DD000AB80BC80CD80DE80EF80F8840E94762797
:104DE0008F3F61F029853A854B855C856D857E8591
:104DF0008F8598890E94612581E001C08FEF6096C0
:104E00000FB6F894DEBF0FBECDBFCF91DF911F91DB
:104E10000F91FF90EF90DF90CF90BF90AF909F9059
:104E20008F900895E0911708F091180880850895F3
:104E3000EF92FF920F931F93CF93DF93EC011C82AD
:104E40001D821E821F8280910E0890910F08A091F2
:104E50001008B091110888839983AA83BB83E090DE
:104E60001208F09013080091140810911508EC82B4
:104E7000FD820E831F830E94992E682F70E080E0D0
:104E800090E023EB36EE4EE050E00E9464496E0D58
:104E90007F1D801F911F6C837D838E839F8313C032
:104EA00080509A4CAA49BB438C839D83AE83BF83B9
:104EB00088819981AA81BB810196A11DB11D88833A
:104EC0009983AA83BB838C819D81AE81BF81803011
:104ED0002AEC92072AE9A2072BE3B20708F7DF9131
:104EE000CF911F910F91FF90EF9008958F929F9215
:104EF000AF92BF92CF92DF92EF92FF920F931F93E8
:104F0000DF93CF93CDB7DEB760970FB6F894DEBFCF
:104F10000FBECDBFFC0109831A832B833C834D83D5
:104F20005E836F83788789869A86AB86BC86CD86BA
:104F3000DE86EF86F88AE980FA800B811C812D815C
:104F40003E814F815885A984BA84CB84DC848D85C9
:104F50009E85AF85B889EA14FB040C051D0508F48D
:104F600040C0AE14BF04C006D10691F4281739071B
:104F70004A075B07B0F1281B390B4A0B5B0B2483F4
:104F8000358346835783108211821282138227C091
:104F9000281739074A075B0790F40894E108F108DD
:104FA00001091109EA18FB080C091D09E082F182C8
:104FB00002831383205036434546544C08C0EA18F8
:104FC000FB080C091D09E082F18202831383281B70
:104FD000390B4A0B5B0B248335834683578381E06F
:104FE00001C08FEF60960FB6F894DEBF0FBECDBF45
:104FF000CF91DF911F910F91FF90EF90DF90CF90B5
:10500000BF90AF909F908F900895FC0114C02050E6
:105010003A4C4A495B432483358346835783208136
:105020003181428153812F5F3F4F4F4F5F4F20832C
:1050300031834283538324813581468157812030D7
:105040008AEC38078AE948078BE3580700F7089588
:105050008F929F92AF92BF92CF92DF92EF92FF9288
:105060000F931F93DF93CF93CDB7DEB760970FB643
:10507000F894DEBF0FBECDBF09831A832B833C8318
:105080004D835E836F83788789869A86AB86BC86DC
:10509000CD86DE86EF86F88A29853A854B855C8544
:1050A000E980FA800B811C812E0D3F1D401F511F8E
:1050B000FC0120833183428353832D853E854F85B8
:1050C0005889ED80FE800F8118852E0D3F1D401FF1
:1050D000511F24833583468357830E94052881E02E
:1050E00060960FB6F894DEBF0FBECDBFCF91DF91B3
:1050F0001F910F91FF90EF90DF90CF90BF90AF90F6
:105100009F908F90089560930E0870930F0880937E
:1051100010089093110820931208309313084093BD
:1051200014085093150808958F929F92AF92BF92E2
:10513000CF92DF92EF92FF920F931F93FC01208199
:1051400031814281538164817581868197812115E6
:1051500031054105510509F461C02234310541058D
:10516000510508F062C05B016C01EE24FF24870149
:1051700060E038C08A2CAB2DA653F1E0AB1508F0E7
:10518000F0E08C2D865691E08C1508F090E0F80F39
:1051900071E0F81708F070E0972B7D2D755CE1E069
:1051A0007D1508F0E0E0970F81E0971708F080E0A8
:1051B0008E2B8E0DE1E08E1508F0E0E0EF0D71E032
:1051C000EF1508F070E0700FB1E0701708F0B0E074
:1051D000B10FA82CBA2ECF2ED92EE82EFE2E072FD7
:1051E0001B2F6F5F862F90E0A0E0B0E0821793073F
:1051F000A407B50708F4BECF9501A601B701C80101
:10520000A3EBAA2EF6EEBF2EEEE0CE2EDD24EE248A
:10521000FF2400E010E00E94E83B09C023EB36EEDB
:105220004EE050E00E94974902C020E030E0C90102
:105230001F910F91FF90EF90DF90CF90BF90AF90B4
:105240009F908F900895EF92FF920F931F93DF939B
:10525000CF93CDB7DEB728970FB6F894DEBF0FBE59
:10526000CDBF7B018C01BAE016950795F794E794C2
:10527000BA95D1F7E982FA820B831C837370807030
:10528000907023EB36EE4EE050E00E9464496D834F
:105290007E838F8398872E2D3A814B815C8128965F
:1052A0000FB6F894DEBF0FBECDBFCF91DF911F9137
:1052B0000F91FF90EF9008958F929F92AF92BF92BF
:1052C000CF92DF92EF92FF920F931F93FC01208108
:1052D0003181428153816481758186819781211555
:1052E00031054105510509F45BC05B016C01EE24F9
:1052F000FF24870160E038C08A2CAB2DA653F1E073
:10530000AB1508F0F0E08C2D865691E08C1508F076
:1053100090E0F80F71E0F81708F070E0972B7D2D02
:10532000755CE1E07D1508F0E0E0970F81E09717EC
:1053300008F080E08E2B8E0DE1E08E1508F0E0E0A5
:10534000EF0D71E0EF1508F070E0700FB1E070172D
:1053500008F0B0E0B10FA82CBA2ECF2ED92EE82E2F
:10536000FE2E072F1B2F6F5F862F90E0A0E0B0E08E
:1053700082179307A407B50708F4BECF9501A601CD
:10538000B701C801E3EBAE2E06EEB02E1EE0C12E33
:10539000DD24EE24FF2400E010E00E94E83B06C07C
:1053A00023EB36EE4EE050E00E949749B901CA0166
:1053B0001F910F91FF90EF90DF90CF90BF90AF9033
:1053C0009F908F9008950F931F9301E012E00E9429
:1053D0008B200E94932E853128F400930B080E94A5
:1053E000053008C08AE090E00E94022E10930B085E
:1053F0000E94F92F80911C06853519F088E00E94E3
:10540000B31E80917E10853511F388E00E94B31E93
:10541000DECF4F925F926F927F928F929F92AF9268
:10542000BF92CF92DF92EF92FF920F931F93DF9381
:10543000CF930F92CDB7DEB70E94922E0E948514B3
:105440008AEF0E94962E0E94F22F0E94922C0091C9
:105450008405602F70E080E090E023EB36EE4EE0B4
:1054600050E00E9464496B017C0180911208909188
:105470001308A0911408B0911508C80ED91EEA1E91
:10548000FB1EC701B6010E949749C61AD70AE80A4F
:10549000F90AC0921208D0921308E0921408F09210
:1054A0001508E0911708F09118088085882381F588
:1054B00080910B08823019F4802F0E94B616E0917B
:1054C0001708F09118088085609184050E949B1749
:1054D000E0911708F0911808808560E00E94681834
:1054E00080910E0890910F08A0911008B0911108BA
:1054F000C0901208D0901308E0901408F09015089E
:1055000073EB872E76EE972E7EE0A72EB12C1DC072
:105510009581992311F0602FE1CF602F0E949B1796
:10552000DFCF80E096E3A5E6B4ECC80ED91EEA1EF4
:10553000FB1EC701B601A50194010E949749C61A36
:10554000D70AE80AF90AD301C2012C013D010894E7
:10555000411C511C611C711CE0E0CE16EAECDE0619
:10556000EAE9EE06EBE3FE06E0F680930E08909380
:105570000F08A0931008B0931108C0921208D0929F
:105580001308E0921408F0921508E0911708F091C2
:10559000180885818823B9F081858430A1F087813E
:1055A000823029F0882341F08681882311F485E038
:1055B00001C083E0818704C083E08187178216825F
:1055C00080850E947B24E0911708F0911808858D52
:1055D000968D0097E9F180858823D1F191859430EB
:1055E000B9F1418D528D2091840530E04217530767
:1055F00088F40E94F316E0911708F091180882E0F1
:1056000060850E949C1EE0911708F0911808128E88
:10561000118E04C0421B530B528F418FE09117082B
:10562000F09118080085218D328D2115310581F406
:10563000802F0E94F31683E0602F0E949C1EE09151
:105640001708F091180883E08187802F0E947B243F
:1056500061E6662E67E0762E00E61AEE20E051E065
:10566000452E512C4AEFC42ED12C32E0F32E91E07E
:10567000892E912CA12CB12CD30113968C911397C8
:105680008F3F09F4C4C01C92882309F443C01496C8
:105690008C9114978430F1F150964D915C91519713
:1056A0008091840590E04817590738F0481B590B42
:1056B00051965C934E93509703C0F301118A108A60
:1056C000D30152964D915C9153974817590738F082
:1056D000481B590B53965C934E93529712C0F3019B
:1056E000668977898617970728F4681B790B738B6F
:1056F000628B07C00E948349D30153969C938E937B
:105700005297F30182899389009721F486899789BA
:10571000938B828BD30114968C911497833009F06C
:1057200076C050968D919C915197009709F066C074
:1057300012968C9112978823A9F011968C9111974B
:10574000882381F0D501C4010090070804C0880FA8
:10575000991FAA1FBB1F0A94D2F7F301848795876C
:10576000A687B787D30112961C92129711961C92A6
:1057700011971C925A964D915C915B9756968D911C
:105780009C91579758966D917C915997413051054E
:10579000D9F455967C936E9354971496FC92149773
:1057A00052964D915C91539751965C934E935097BE
:1057B000009721F45196DC92CE925097822F298344
:1057C0000E94CA2329811AC0F301758B648BBA0128
:1057D00061507040689FA001699F500D789F500DE7
:1057E0001124518B408B538B428B009711F4D18A3B
:1057F000C08AD3015B965C924E925A97F3018089DE
:105800009189009721F08017910708F48C012F5F90
:1058100081E290E0680E791E253009F02DCFE091ED
:105820001708F091180880850E9436170E94B92346
:10583000F82E282F332727FD3095F90185E0EE0F4C
:10584000FF1F8A95E1F7E20FF31FE45AF84F8285B4
:1058500080931908F0930908E0930808FF2099F055
:10586000258D368D2115310551F0218D328D2A3F40
:10587000310528F420173107F8F489011DC00B3FCA
:105880001105D0F014C005311105B0F09801245174
:1058900030402A3F310538F489012331310560F465
:1058A00003E110E009C091E00E30190719F00AEF8A
:1058B00010E002C006EE10E080930A08F09318088A
:1058C000E0931708009384050E94992E282F30E05A
:1058D0002F5F3F4F2017310740F00E94992E082F6D
:1058E00010E00E5F1F4F00938405FF2011F010920F
:1058F0000B08802F0E94962E0E945A300E94BD3BBA
:105900000F90CF91DF911F910F91FF90EF90DF905B
:10591000CF90BF90AF909F908F907F906F905F904F
:105920004F9008952F923F924F925F926F927F9285
:105930008F929F92AF92BF92CF92DF92EF92FF929F
:105940000F931F93DF93CF93CDB7DEB760970FB65A
:10595000F894DEBF0FBECDBFCE0101960E9418277E
:105960009AE1492E98E0592E6624772489E0282E62
:10597000312C2C0E3D1ED20112968C911297813043
:1059800071F583E190E0689EF001699EF00D789ECC
:10599000F00D1124EB5DF74FC101008111812281CF
:1059A0003381448155816681778189809A80AB807B
:1059B000BC80CD80DE80EF80F8840E9476278F3F08
:1059C00071F485E1662D0E949C1ED201ED91FC913F
:1059D0001197309719F40E94891401C00995089411
:1059E000611C711CE3E1F0E04E0E5F1EF3E06F16E8
:1059F000710409F660960FB6F894DEBF0FBECDBFF6
:105A0000CF91DF911F910F91FF90EF90DF90CF909A
:105A1000BF90AF909F908F907F906F905F904F90CE
:105A20003F902F90089510921C0810922F0810920A
:105A300042080895CF93DF93FB01833008F590E08F
:105A400023E130E0829FE001839FD00D929FD00D33
:105A50001124C65ED74F5983488380819181A281EA
:105A6000B3818B839C83AD83BE8384819581A68122
:105A7000B7818F839887A987BA871A8281E001C08E
:105A80008FEFDF91CF910895CF92DF92EF92FF9247
:105A90000F931F93DF93CF93CDB7DEB728970FB641
:105AA000F894DEBF0FBECDBF082F8330D8F5CE01EE
:105AB00001960E941827402F50E023E130E0429FDA
:105AC000C001439F900D529F900D11248C01065EE2
:105AD000174FF8012381348145815681C980DA80CE
