:100000000C94C9040C9456240C94E8040C94E80451
:100010000C94E8040C94E8040C94E8040C94E804B0
:100020000C94E8040C94F9230C94E8040C94E80470
:100030000C94E8040C94E8040C94E8040C947523E4
:100040000C9475230C94E8040C94E8040C94E804D4
:100050000C94E8040C94E8040C94E8040C94E80470
:100060000C94E8040C94E8040C94E8040C94E80460
:100070000C94E8040C94E8040C94E8040C94E80450
:100080000C94E8040C94E8040C94E8044215481518
:100090004B154E15511554155A1557155D1560150C
:1000A00063156C156F157215751569153F15451596
:1000B00078157B1566153C1508000000BE92244992
:1000C000123EABAAAA2ABECDCCCC4C3E000000808A
:1000D000BEABAAAAAA3E00000000BF000000803FFD
:1000E0000000000000084178D3BB4387D1133D19BD
:1000F0000E3CC3BD4282AD2B3E68EC8276BED98FEA
:10010000E1A93E4C80EFFFBE01C4FF7F3F0000002D
:10011000000007634236B79BD8A71A39685618AE55
:10012000BAAB558C1D3CB7CC5763BD6DEDFD753E2C
:10013000F6177231BF000000803F554E4B4F574EAF
:100140000045787465726E616C2052657365740049
:1001500042726F776E204F757420446574656374C6
:10016000004661696C656420746F20637265617418
:10017000652053656D6170686F7265004661696CDA
:10018000656420746F2063726561746520536967CC
:100190006E616C004B65726E656C2066756E637483
:1001A000696F6E206E6F7420696D706C656D656E21
:1001B0007465640044657669636520447269766598
:1001C00072204572726F72005761746368646F6762
:1001D00020526573746172740053572057617463C1
:1001E00068646F6720526573746172740054696D3E
:1001F0006572204F766572666C6F7700556E686128
:100200006E646C656420496E7465727275707420DA
:10021000566563746F72004C6F7720566F6C746113
:100220006765004578747261205461736B20737444
:1002300061727465642C206973206E726B5F6366F3
:10024000672E68206F6B3F0049646C65206F7220D9
:100250004B65726E656C20537461636B204F7665DD
:1002600072666C6F7700556E65787065637465644F
:100270002052657374617274004475706C696361B7
:10028000746564205461736B20494400536368654E
:1002900064756C6572204D69737365642057616B7A
:1002A000657570005461736B205265736572766575
:1002B0002056696F6C61746564005265736572766F
:1002C00065204572726F7220696E205363686564A1
:1002D000756C657200496E76616C69642053746157
:1002E000636B20506F696E746572005461736B208C
:1002F000537461636B204F766572666C6F77005341
:100300007461636B20776173206E6F74206465661F
:10031000696E6564206173206C6172676520656E2B
:100320006F75676821005461736B20706572696F27
:100330006420746F6F206C617267652E2050657247
:10034000696F64206D757374206265206C657373CA
:10035000207468616E203631207365636F6E64733C
:100360002E00293A20002A4E524B204552524F521D
:1003700028000D0A535441434B2044554D500D0A5B
:10038000000A0D006E726B5F71756575653A20002D
:1003900008082A1C08081C2A080840444A51404002
:1003A000514A444014741C171410207F01010000AE
:1003B0000000000000000000081C2C08087F01015C
:1003C0000101010101017F7F404040404040404029
:1003D0007F0000000000000000000000000000009E
:1003E00079112711790000000000000000000000D2
:1003F000000000007F01010103605048447E3E4937
:1004000049493E700C030C706349494963017F01FF
:100410007F01635549414106017E010608557F551C
:10042000080F107F100F4E7101714E38444438444C
:10043000000000000000005F000003000300001443
:100440003E143E1426497F493262152A5423364908
:100450005620500003000000001C224100004122F1
:100460001C0000140E140008083E0808006000007C
:10047000000808080800004000000060100804039D
:100480003E4141413E04027F000062514945422203
:10049000414949360C0B087E084F494949313E49CC
:1004A0004949326111090503364949493626494906
:1004B000493E0022000000006100000008141422E0
:1004C00022141414141422221414080601590502CB
:1004D0003E415D555E7E0909097E7F494949363EA8
:1004E000414141227F4141413E7F494949417F0984
:1004F0000909013E414949327F0808087F00007F11
:100500000000204040403F7F081422417F4040408F
:10051000007F0204027F7F021C207F3E4141413E5A
:100520007F090909063E4151617E7F091929462646
:100530004949493201017F01013F4040403F1F20AE
:1005400040201F3F4030403F631408146303047889
:10055000040361514945437F410000000000000051
:1005600000000000417F060106000040404040407E
:10057000010200000020545454787F484848303825
:1005800044444428384444447F3854545418087E22
:100590000909010C5252523E7F04040478047D4044
:1005A0004020204040443D007F102844203E5149D7
:1005B000467C047C04787C0804047838444444383D
:1005C0007E1212120C0C1212127E047804040848D7
:1005D00054545424043F4444403C40403C401C207C
:1005E00040201C3C4030403C4428102844264848C9
:1005F000483E4464544C4400083E410000007F00E3
:100600000000413E08000000000000000000000063
:1006100000000000000000000000000000000020BA
:10062000483E090200000000000000000000040431
:100630007F04040000000000000000000000000033
:1006400000000000000000000000000000000000AA
:10065000000000000000000000000000000000009A
:100660000000000000000000000000000000000288
:100670000401020000000000000018180000000043
:10068000000000000000000000000000000000006A
:10069000000000000000000000000000000000005A
:1006A000000000000000000000000000000000004A
:1006B0000000000000000079000000000000004879
:1006C0007E494942000000000015167C1615000006
:1006D0000000000A5555552800010001003E635DE9
:1006E0006B3E000000000008142A142200000000E5
:1006F0000000000000003E41754B3E010101010178
:1007000000020502000000000000000000000000E0
:100710000000000000000000000000000000060FC4
:100720007F017F00000000000000000000000000CA
:100730000000070507000022142A14080F003C20BF
:10074000780F004864580000000000304845402001
:100750000000000000000000000000000000007227
:1007600029292A717825242578702A252A707E095E
:100770007F49490E5151711100000000007C545610
:1007800055440000000000000000000000000000D0
:100790000000000000000000000000000000000059
:1007A00000000000007A091122790000000000001A
:1007B0000000000000000000003A454546393D4277
:1007C00042423D22140814225C322A261D000000F9
:1007D0000000000000000000000000003C4140411B
:1007E0003C000000000000000000000000000000CD
:1007F0002055565478205456557820565556782210
:100800005155567920555455780000000000245465
:100810007854580C5252721238555654183854564F
:1008200055183856555618385554551800497A40B9
:100830000000487A4100004A794200004A784200AC
:1008400000000000007A11090A7130494A4830302E
:10085000484A4930304A494A303249494A31304A97
:10086000484A3008082A080818643C2618384142CB
:10087000207838404221783842412278384240225C
:1008800078000000000000000000000C5150513CB6
:100890006E616E00696E660000407A10F35A00A027
:1008A000724E18090010A5D4E80000E87648170039
:1008B00000E40B54020000CA9A3B000000E1F50579
:1008C000000080969800000040420F000000A086C3
:1008D00001000000102700000000E80300000000F5
:1008E0006400000000000A00000000000100000099
:1008F00000002C76D888DC674F0823DFC1DFAE59B3
:10090000E1B1B796E5E3E453C63AE651997696E845
:10091000E6C28426EB898C9B62ED407C6FFCEFBCC9
:100920009C9F40F2BAA56FA5F490055A2AF75C93F4
:100930006B6CF9676DC11BFCE0E40D47FEF520E62A
:10094000B500D0ED902E0300943577050080841E0D
:10095000080000204E0A000000C80C333333330F68
:10096000986E12831141EF8D2114893BE65516CF05
:10097000FEE6DB18D1844B381BF77C1D901DA4BB11
:10098000E424203284725E228100C9F124ECA1E5C6
:100990003D2711241FBECFEFD0E1DEBFCDBF12E057
:1009A000A0E0B1E0EAEBF4E800E00BBF02C0079082
:1009B0000D92A23BB107D9F715E0A2EBB2E001C05E
:1009C0001D92A53AB107E1F70E941C050C945B4209
:1009D0000C944B230F931F93CF93DF9300E011E010
:1009E000C2E0D0E00E94F61C00D000D0EDB7FEB708
:1009F00012830183D483C3830E9447400F900F90DA
:100A00000F900F90EFCF0F931F93CF93DF9300E0E2
:100A100011E0C1E0D0E00E94F61C00D000D0EDB79C
:100A2000FEB712830183D483C3830E9447400F9093
:100A30000F900F900F90EFCF1F93CF93DF930E94F3
:100A4000CA1087E090E00E9419110E94081280E00D
:100A500090E00E94B7108FEF90E00E94B71081E005
:100A600090E00E94B71082E090E00E94B71060E032
:100A700070E0CB0120E030E0A9010E94FA1E89E07D
:100A80008093F90311E01093F8031093FA03109385
:100A9000FB038091130190911401A0911501B09175
:100AA00016018093FC039093FD03A093FE03B09383
:100AB000FF0310920004109201041092020410929D
:100AC00003048091170190911801A0911901B09130
:100AD0001A018093040490930504A0930604B09334
:100AE0000704109208041092090410920A0410924C
:100AF0000B0410920C0410920D0410920E0410922C
:100B00000F0410921004109211041092120410920B
:100B10001304C1EFD3E0CE0163E075E00E94A52489
:100B2000CE0163EC72E040E850E00E94EB24CE017D
:100B30000E94421B88E080934D0310934C03109356
:100B40004E0310934F0380911B0190911C01A091C3
:100B50001D01B0911E018093500390935103A09307
:100B60005203B09353031092540310925503109202
:100B700056031092570380911F0190912001A0917C
:100B80002101B09122018093580390935903A093BF
:100B90005A03B0935B0310925C0310925D031092B2
:100BA0005E0310925F031092600310926103109233
:100BB0006203109263031092640310926503109213
:100BC000660310926703C5E4D3E0CE016AEE74E0D9
:100BD0000E94A524CE016CE673E040E850E00E943C
:100BE000EB24CE010E94421B0E94C91280E090E0DB
:100BF000DF91CF911F91089590E09C012B503040E0
:100C0000220F331F220F331F865A9E4B820F931FD2
:100C1000F894C09828E12FB9779BFECF9FB9779BB6
:100C2000FECF8FB9779BFECFC09A78940895F89441
:100C3000C0981FB8779BFECF8FB1C09A789486FF7B
:100C4000F6CF089580913D010E94FC0E80913C01F9
:100C50000E94420F089580913D010E94FC0E8091F8
:100C60003C010E94FC0E0895F894C09887E08FB96B
:100C7000779BFECFC09AC09886E08FB9779BFECF56
:100C8000C09A78940895F894C09881E08FB9779BC2
:100C9000FECFC09A88EE93E00E94B2227894089525
:100CA0008091A9040895FC01C09889EC8FB9779BC5
:100CB000FECF80E88FB9779BFECF82E08150DF01C5
:100CC000A80FB11D9C919FB9779BFECF8823B1F7E8
:100CD000C09AC0988BEC8FB9779BFECF80E88FB914
:100CE000779BFECF82E08150DF01A80FB11D1296E5
:100CF0009C9112979FB9779BFECF8823A1F7C09A4A
:100D000080818093AA0481818093AB048281809347
:100D1000AC0483818093AD0408958F929F92AF922B
:100D2000BF92CF92DF92EF92FF920F931F93DF93C8
:100D3000CF9300D000D0CDB7DEB7E82E092F84E6E0
:100D400090E00E94B222F02E20E031E08E010F5F91
:100D50001F4FF3E0CF2ED12CCC0EDD1EF70191906A
:100D60007F018824808190E0882999299A8389834A
:100D700084E690E02B833C830E94B222C0982B81B2
:100D80003C81822F80688FB9779BFECFC9019595F2
:100D90008795807C8FB9779BFECF5801F8018191B0
:100DA0008FB9779BFECFEC15FD05C9F7C09A2E5F72
:100DB0003F4FF1E020313F0789F684E690E00E9442
:100DC000B22220E431E080E191E01A821982C098D9
:100DD000422F40684FB9779BFECFA90155954795A3
:100DE000407C4FB9779BFECFF80141914FB9779B7B
:100DF000FECFEC15FD05C9F7C09AC098482F406892
:100E00004FB9779BFECFAC0155954795407C4FB9C4
:100E1000779BFECFF80141914FB9779BFECFEC1540
:100E2000FD05C9F7C09A02962E5F3F4F41E08E3113
:100E3000940759F681E090E09A838983C0988EECFC
:100E40008FB9779BFECF80E88FB9779BFECFC80123
:100E50000296F80121912FB9779BFECFE817F90789
:100E6000C9F7C09AC0988EE98FB9779BFECF80E80A
:100E70008FB9779BFECF0E5F1F4FF50181915F0108
:100E80008FB9779BFECFA016B106B9F7C09A0F9025
:100E90000F900F900F90CF91DF911F910F91FF90C6
:100EA000EF90DF90CF90BF90AF909F908F9008957C
:100EB000C09889E18FB9779BFECF83E08FB9779B8C
:100EC000FECF86E08FB9779BFECFC09AC0988AE1AB
:100ED0008FB9779BFECF8EE08FB9779BFECF8EE0E8
:100EE0008FB9779BFECFC09A81E080939A040895D2
:100EF000C09889E18FB9779BFECF81E08FB9779B4E
:100F0000FECF84EC8FB9779BFECFC09A10929A04E3
:100F100008958091980490919904089590E08F71BC
:100F20009070806E906AC09825E12FB9779BFECFB4
:100F30009FB9779BFECF8FB9779BFECFC09A08955C
:100F40000E94FC05089580919B0490919C049860F8
:100F500090939C0480939B04C09881E18FB9779B08
:100F6000FECF80919C048FB9779BFECF80919B042C
:100F70008FB9779BFECFC09A089580919B04909182
:100F80009C04977F90939C0480939B04C09881E17C
:100F90008FB9779BFECF80919C048FB9779BFECF52
:100FA00080919B048FB9779BFECFC09A089581E012
:100FB0008093A80480919B0490919C0480619093FD
:100FC0009C0480939B04C09881E18FB9779BFECFEE
:100FD00080919C048FB9779BFECF80919B048FB941
:100FE000779BFECFC09A08951092A80480919B042D
:100FF00090919C048F7E90939C0480939B04C09856
:1010000081E18FB9779BFECF80919C048FB9779B4C
:10101000FECF80919B048FB9779BFECFC09A089535
:10102000DF93CF9300D0CDB7DEB79A8389839093B7
:10103000A4048093A30484EF91E00E94B222C0989C
:101040008AEE8FB9779BFECF80E88FB9779BFECF72
:10105000FE013196CE01039621912FB9779BFECFE9
:10106000E817F907C9F7C09A84EF91E00E94B2220D
:101070000F900F90CF91DF910895CF93DF93EC0104
:10108000862FC09898E09FB9779BFECFC09AC098F2
:1010900098E09FB9779BFECFC09A0E94FC05D09341
:1010A0009E04C0939D04DF91CF910895DF92EF924B
:1010B000FF920F931F93DF93CF9300D0CDB7DEB78E
:1010C0008C01D62E5A8349837901DD9A88EE93E00C
:1010D0000E945911DE9881E090E00E945911DE9A39
:1010E00084E690E00E945911F894C09881E08FB98D
:1010F000779BFECFC09A82EE92E090939C048093FF
:101100009B04C09881E18FB9779BFECF80919C04AE
:101110008FB9779BFECF80919B048FB9779BFECFD1
:10112000C09AC09882E18FB9779BFECF85E08FB9D6
:10113000779BFECF1FB8779BFECFC09AC0988CE1FB
:101140008FB9779BFECF1FB8779BFECF8FE78FB904
:10115000779BFECFC09AC09889E18FB9779BFECF6D
:1011600081E08FB9779BFECF84EC8FB9779BFECF60
:10117000C09AC09887E18FB9779BFECF8AE18FB97B
:10118000779BFECF86E58FB9779BFECFC09A84EF21
:1011900091E00E94B222C09888EE8FB9779BFECF73
:1011A00080E88FB9779BFECFFE013196CE01039682
:1011B00021912FB9779BFECFE817F907C9F7C09A9D
:1011C00084EF91E00E94B22278948D2D0E94FC055C
:1011D000789410939E0400939D0489819A81909342
:1011E000A2048093A104F092A404E092A3041092BC
:1011F0009F041092A5040E9417061092A804109252
:101200009A041092A9040F900F90CF91DF911F9133
:101210000F91FF90EF90DF90089581E08093A504F7
:10122000C09883E08FB9779BFECFC09AC09888E0C2
:101230008FB9779BFECFC09A1092AE04089581E0DB
:101240008093A504C09883E08FB9779BFECFC09AA6
:10125000C09888E08FB9779BFECFC09A1092AE04F9
:1012600008951092A504C09886E08FB9779BFECFB1
:10127000C09A1092AE040895BF92CF92DF92EF927F
:10128000FF920F931F93DF93CF9300D00F92CDB7B0
:10129000DEB78C016B017A010E944923C09888E077
:1012A0008FB9779BFECFC09AC09888E08FB9779BA3
:1012B000FECFC09A0E99FECF8499FCCFF894C098C7
:1012C00089E08FB9779BFECFC09AC09889E08FB92B
:1012D000779BFECFC09AD80112965C911297252F6A
:1012E000332727FD3095BB2440E00AC0D801139670
:1012F000ED91FC911497E80FF91F8081B80E4F5FB4
:10130000842F90E0821793078CF3545FC0988EE38C
:101310008FB9779BFECF5FB9779BFECFC09AF8015C
:101320008681882319F081E698E802C081E498E874
:101330009A838983C0988EE38FB9779BFECFFE0195
:101340003196CE01039621912FB9779BFECFE817F6
:10135000F907C9F7C09AC0988EE38FB9779BFECF83
:1013600080919F048FB9779BFECFC09AC0988EE37F
:101370008FB9779BFECF80E090E0FC01E356FB4FF6
:1013800024812FB9779BFECF019682309105A9F772
:10139000C09AC0988EE38FB9779BFECF80E090E033
:1013A000F801E80FF91F20812FB9779BFECF019636
:1013B00082309105A9F7C09AC0988EE38FB9779BC8
:1013C000FECF80E090E0FC01E356FB4F26812FB971
:1013D000779BFECF019682309105A9F7C09AC6018E
:1013E000B7010E94D522D80115968C9115978823B4
:1013F000A9F18091A504882331F4C09883E08FB9C6
:10140000779BFECFC09AC0981FB8779BFECF8FB155
:10141000C09A81FFF8CF20E0A5E0EA2EC098EFB88F
:10142000779BFECFC09AC0981FB8779BFECFCFB0F6
:10143000C09A2F5F253649F4789480919804909152
:1014400099040E94651980E060C084E690E02B83D7
:101450000E9459112B81C3FEE1CF06C0C09884E0E1
:101460008FB9779BFECFC09AC0988EE38FB9779BD8
:10147000FECF40E00CC0D8011396ED91FC9114977B
:10148000E80FF91F80818FB9779BFECF4F5F842FC4
:1014900090E0F8012281332727FD309582179307CA
:1014A00054F3C09AC0988EE38FB9779BFECFBFB834
:1014B000779BFECFC09A849BFECFF8948499FECF91
:1014C000C09888E08FB9779BFECFC09AC09888E01B
:1014D0008FB9779BFECFC09AC09889E08FB9779B70
:1014E000FECFC09AC09889E08FB9779BFECFC09A93
:1014F000C09886E08FB9779BFECFC09A7894809190
:101500009F048F5F80939F0481E00F900F900F9056
:10151000CF91DF911F910F91FF90EF90DF90CF90CF
:10152000BF900895FF920F931F93DF93CF9300D046
:10153000CDB7DEB7FC0180919A04882331F0C098C2
:101540008DE08FB9779BFECFC09A3281432F55270C
:1015500047FD509520E060E007C0A381B481A80F4B
:10156000B91F8C91280F6F5F862F90E08417950725
:10157000A4F3832F845F90919A0491118C5FC0989B
:1015800098E09FB9779BFECFC09AC09898E09FB92A
:10159000779BFECFC09A0E99FECF8499FCCFF8942A
:1015A000C09899E09FB9779BFECFC09AC09899E008
:1015B0009FB9779BFECFC09AC0989EE39FB9779B57
:1015C000FECF8FB9779BFECFC09A81E498E89A83CB
:1015D00089838091A804882321F081E698E89A8382
:1015E000898380919A04882329F089819A8188606F
:1015F0009A838983C0988EE38FB9779BFECFDE01F3
:101600001196CE0103963D913FB9779BFECFA81767
:10161000B907C9F7C09AC0988EE38FB9779BFECF00
:1016200080919F048FB9779BFECFC09AC0988EE3BC
:101630008FB9779BFECF80E090E0DC01A356BB4FD3
:1016400014963C9114973FB9779BFECF0196823058
:10165000910599F7C09AC0988EE38FB9779BFECF1A
:1016600080E090E0DF01A80FB91F3C913FB9779B64
:10167000FECF019682309105A9F7C09AC0988EE3FB
:101680008FB9779BFECF80E090E0DC01A356BB4F83
:1016900016963C9116973FB9779BFECF0196823004
:1016A000910599F7C09A80919A04882381F0C09897
:1016B0008EE38FB9779BFECFAAEAB4E08D918FB904
:1016C000779BFECF84E0AE3AB807C1F7C09AC098C6
:1016D0008EE38FB9779BFECF30E009C0A381B48140
:1016E000A80FB91F8C918FB9779BFECF3F5F832FD7
:1016F00090E04281552747FD50958417950774F374
:10170000C09AC0988EE38FB9779BFECF2FB9779B95
:10171000FECFC09A8581882391F18091A50488230A
:1017200031F4C09883E08FB9779BFECFC09AC09800
:101730001FB8779BFECF8FB1C09A81FFF8CF10E022
:1017400005E0C0980FB9779BFECFC09AC0981FB82C
:10175000779BFECFFFB0C09A1F5F153649F478948F
:1017600080919804909199040E94651980E043C08B
:1017700084E690E00E945911F3FEE3CF06C0C098C2
:1017800084E08FB9779BFECFC09A7894849BFECF7C
:101790008499FECF8091A8048823F9F084EA92E02E
:1017A0000E945911B79B0BC0C0988FE78FB9779BE8
:1017B000FECF1FB8779BFECF8FB1C09A0EC0C098E6
:1017C00088E08FB9779BFECFC09AC09888E08FB928
:1017D000779BFECFC09A80E001C081E0F894C0986A
:1017E00096E09FB9779BFECFC09A789490919F0422
:1017F0009F5F90939F040F900F90CF91DF911F9167
:101800000F91FF90089581E0849B80E0089581E02E
:101810000E9B80E0089581E0849B80E00895DF9333
:10182000CF9300D000D0CDB7DEB70E9BC7C11092CA
:10183000A9040E9B1AC0B79918C0C0988FE78FB93A
:10184000779BFECF1FB8779BFECF8FB1C09AC09811
:1018500088E08FB9779BFECFC09AC09888E08FB997
:10186000779BFECFC09A8FEFAAC1C0988FE78FB940
:10187000779BFECF1FB8779BFECF4FB1C09A4F77B3
:10188000C1F4C0988FE78FB9779BFECF1FB8779BC5
:10189000FECF8FB1C09AC09888E08FB9779BFECFFA
:1018A000C09AC09888E08FB9779BFECFC09A8EEF20
:1018B00086C14C3084F0E0919D04F0919E04842F09
:1018C000992787FD90950B972481332727FD309525
:1018D000281739077CF5C0988FE78FB9779BFECF23
:1018E00050E0842F992787FD909504C01FB8779BFF
:1018F000FECF5F5F252F30E02817390714F4B79922
:10190000F5CFC09AC0988FE78FB9779BFECF1FB8ED
:10191000779BFECF8FB1C09AC09888E08FB9779B34
:10192000FECFC09AC09888E08FB9779BFECFC09A4F
:101930008DEF45C1E0919D04F0919E044C5043838E
:10194000C0988FE78FB9779BFECFFE013196CE010D
:1019500003961FB8779BFECF2FB12193E817F907A5
:10196000C1F7C09AE0919D04F0919E04998181E0B5
:1019700095FF80E08783C0988FE78FB9779BFECF74
:101980001FB8779BFECFE0919D04F0919E048FB12C
:101990008083C09AC0988FE78FB9779BFECF84E091
:1019A00005C01FB8779BFECF815011F0B799F9CFD2
:1019B000C09AC0988FE78FB9779BFECF80E090E008
:1019C0001FB8779BFECFE0919D04F0919E042FB14C
:1019D000E80FF91F218301968230910589F7C09A9B
:1019E000898183FF4DC0C0988FE78FB9779BFECF69
:1019F000E4E9F4E01FB8779BFECF8FB1819384E0D8
:101A0000E839F807B9F7C09AC09889E98FB9779B88
:101A1000FECF80E88FB9779BFECF82E08150E82F20
:101A2000F0E0EC56FB4F90819FB9779BFECF882367
:101A3000A9F7C09AC0988BE98FB9779BFECF80E851
:101A40008FB9779BFECF82E08150E82FF0E0EA5615
:101A5000FB4F90819FB9779BFECF8823A9F7C09A4F
:101A6000C0988CE08FB9779BFECFC09A81E08093BD
:101A7000A904E0919D04F0919E04838184508383A6
:101A8000C0988FE78FB9779BFECF40E00FC01FB89B
:101A9000779BFECFE0919D04F0919E048FB105806D
:101AA000F681E02DE40FF11D80834F5FE0919D04EE
:101AB000F0919E04242F30E08381992787FD909533
:101AC0002817390724F3C09AC0988FE78FB9779BFE
:101AD000FECF1FB8779BFECF6FB1C09AC0988FE73B
:101AE0008FB9779BFECFFE013396CE0105961FB8C6
:101AF000779BFECF2FB12193E817F907C1F7C09A62
:101B0000E0919D04F0919E048B81808750E040E03D
:101B10000CC0E0919D04F0919E040580F681E02DBB
:101B2000E80FF91F8081480F5F5FE0919D04F091FD
:101B30009E04852F90E02381332727FD309582175F
:101B400093073CF34617C1F0C0988FE78FB9779B96
:101B5000FECF1FB8779BFECF8FB1C09AC09888E0A8
:101B60008FB9779BFECFC09AC09888E08FB9779BDA
:101B7000FECFC09A8CEF23C08C8187FF07C0809175
:101B8000AE048F5F8093AE0481E019C0C0988FE7E8
:101B90008FB9779BFECF1FB8779BFECF8FB1C09ACE
:101BA000C09888E08FB9779BFECFC09AC09888E034
:101BB0008FB9779BFECFC09A8BEF01C080E00F906A
:101BC0000F900F900F90CF91DF9108958091AE0408
:101BD000882329F08091AE041092AE04089580E02D
:101BE0000895C09888E08FB9779BFECFC09AC098BF
:101BF00088E08FB9779BFECFC09A0895992787FD1B
:101C00009095982F88278068C09823E12FB9779BFB
:101C1000FECF9FB9779BFECF8FB9779BFECFC09A3F
:101C20000895C09886E08FB9779BFECFC09AC09880
:101C300082E18FB9779BFECF85E08FB9779BFECF8E
:101C400088E08FB9779BFECFC09AC0988EE28FB99B
:101C5000779BFECF88E18FB9779BFECF1FB8779B2C
:101C6000FECFC09A0E94F10D0895C09886E08FB90A
:101C7000779BFECFC09AC09882E18FB9779BFECF49
:101C800085E08FB9779BFECF1FB8779BFECFC09AB8
:101C9000C0988EE28FB9779BFECF1FB8779BFECF9F
:101CA0001FB8779BFECFC09A0E94F10D0895C0988F
:101CB00086E08FB9779BFECFC09AC09882E18FB93A
:101CC000779BFECF85E08FB9779BFECF81E08FB900
:101CD000779BFECFC09A0E94F10D0895C09882E1D3
:101CE0008FB9779BFECF85E08FB9779BFECF84E0DD
:101CF0008FB9779BFECFC09A0E94F10D089590E0B6
:101D00008F70907020919B0430919C04207F822BD7
:101D1000932B90939C0480939B04C09881E18FB98E
:101D2000779BFECF80919C048FB9779BFECF8091EB
:101D30009B048FB9779BFECFC09A089590E026E070
:101D4000880F991F2A95E1F7907020919B0430919C
:101D50009C042F73822B932B90939C0480939B0461
:101D6000C09881E18FB9779BFECF80919C048FB999
:101D7000779BFECF80919B048FB9779BFECFC09A53
:101D80000895C09884E08FB9779BFECFC09A0895DC
:101D9000C09886E08FB9779BFECFC09A08955F9B6D
:101DA000FECF5F988CB108955D9BFECF5D988CB996
:101DB00008958FEF0895882311F48BB104C081300A
:101DC00031F480919B00881F8827881F089580E048
:101DD0000895CF93DF93EC0107C060919D0570914A
:101DE0009E0590E00E941B40FE012196849188236D
:101DF000A1F7DF91CF9108958F3F09F43FC0982F4D
:101E000096959695969521E030E002C0220F331FFB
:101E10009A95E2F790E08770907082309105D9F042
:101E20008330910534F4009771F08130910541F5CC
:101E30000EC084309105C1F0843091058CF085305E
:101E40009105F1F415C08BB3822B8BBB07C088B30F
:101E5000822B88BB03C085B3822B85BB81E00895AC
:101E600082B3822B82BBFACF83B1822B83B9F6CFA8
:101E700080916200822B80936200F0CF8FEF0895F3
:101E80008FEF08958F3F09F440C0982F969596954F
:101E9000969521E030E002C0220F331F9A95E2F7B9
:101EA000209590E08770907082309105D9F0833052
:101EB000910534F4009771F08130910541F50EC021
:101EC00084309105C1F0843091058CF08530910506
:101ED000F1F415C08BB382238BBB07C088B3822378
:101EE00088BB03C085B3822385BB81E0089582B39C
:101EF000822382BBFACF83B1822383B9F6CF80914C
:101F00006200822380936200F0CF8FEF08958FEFFD
:101F100008958F3F89F1282F30E0277030702230EC
:101F20003105C1F0233031053CF42115310571F044
:101F30002130310509F50CC02430310579F0243009
:101F4000310554F025303105B9F40AC029B309C070
:101F500026B307C023B305C020B303C021B101C01D
:101F600020B130E086958695869502C035952795F7
:101F70008A95E2F7217001C02FEF822F0895882300
:101F800019F080B58B7F02C080B5846080BD81E090
:101F900008958F3F09F43FC0982F96959695969592
:101FA00021E030E002C0220F331F9A95E2F790E063
:101FB0008770907082309105D9F08330910534F4A8
:101FC000009771F08130910541F50EC08430910584
:101FD000C1F0843091058CF085309105F1F415C085
:101FE0008BB382278BBB07C088B3822788BB03C013
:101FF00085B3822785BB81E0089582B3822782BBA7
:10200000FACF83B1822783B9F6CF8091620082270D
:1020100080936200F0CF8FEF08958FEF08958F3F88
:1020200009F48CC0982F96959695969521E030E00E
:1020300002C0220F331F9A95E2F790E0662309F061
:102040004AC0322F3095877090708230910519F117
:10205000833091053CF4009781F08130910509F0BF
:102060006DC012C08430910521F184309105D4F007
:102070008530910509F062C023C08AB383238ABBEF
:102080008BB3822B8BBB58C087B3832387BB88B3AA
:10209000822B88BB51C084B3832384BB85B3822B3E
:1020A00085BB4AC081B3832381BB82B3822B82BBB1
:1020B00043C082B1832382B983B1822B83B93CC0F0
:1020C0008091610083238093610080916200822B64
:1020D0008093620031C08770907082309105D9F092
:1020E0008330910534F4009771F08130910541F50A
:1020F0000EC084309105B9F08430910584F08530AC
:102100009105F1F414C08AB3822B8ABB15C087B342
:10211000822B87BB11C084B3822B84BB0DC081B3DB
:10212000822B81BB09C082B1822B82B905C080910C
:102130006100822B8093610081E008958FEF089504
:102140008FEF08958FEF0895009711F480E009C094
:102150008130910511F488E004C08230910529F4A2
:1021600080E10E94C90F81E008958FEF08950097E4
:1021700011F480E009C08130910511F488E004C0B9
:102180008230910529F480E10E94FC0E81E00895DF
:102190008FEF089580B5846080BD87E087BB88BBE2
:1021A0008FEF84BB15BA82E082B987E68ABB80E4F0
:1021B0008BBB80E58DB981E08EB980E090E00E9414
:1021C000B71081E090E00E94B71082E090E00E949A
:1021D000B71083E090E00E94B7100895009711F4C3
:1021E00080E009C08130910511F488E004C082309C
:1021F000910529F480E10E94420F81E008958FEF5C
:10220000089590919B0095FFFCCF90919B009F7D3E
:1022100090939B0080939C0008959093900089B9BF
:1022200086E0809395005298599A8AB188618AB95C
:1022300008950F931F93CF93DF930E940D11C4ED68
:10224000DEE00FEC1EE0CE01B8010E948E3F9093BD
:102250009E0580939D05CE01B8010E948E3F90930C
:102260009C0580939B05DF91CF911F910F9108955D
:10227000909398008093990086E080939D00EAE90E
:10228000F0E080818B7F8083ABE9B0E08C9182604D
:102290008C93808188618083089580919B0087FF63
:1022A000FCCF80919B008F7780939B0080919C0056
:1022B000089500000000000000000197D1F7089584
:1022C0000E94E74008950E94EF4080E00895EF9259
:1022D000FF920F931F93CF93DF93E82EE7017E01C8
:1022E000F92EE70180E090E00E94E740082F8B8301
:1022F00081E090E00E94E740E82E8A8382E090E04F
:102300000E94E740F82E898383E090E00E94E74036
:10231000182F888384E090E00E94E740FE0CF00EC6
:10232000F10E8F1511F481E001C08FEFDF91CF9195
:102330001F910F91FF90EF900895CF93DF93EC01E1
:1023400085E090E00E94E740888381E0DF91CF91B3
:102350000895FC0186E090E060810E94EF4081E0FA
:102360000895CF93DF93EC0186E090E00E94E74070
:10237000888381E0DF91CF9108950F931F93CF93CE
:10238000DF93082F192FC8E0D0E0CE010E94E7406C
:10239000F80181938F012196C831D105B1F781E011
:1023A000DF91CF911F910F9108950F931F93CF93BA
:1023B000DF93082F192FC8E0D0E0F80161918F0159
:1023C000CE010E94EF402196C831D105B1F781E0DE
:1023D000DF91CF911F910F910895CF93DF93EC017F
:1023E00087E090E00E94E740888381E0DF91CF9111
:1023F0000895FC0187E090E060810E94EF4081E059
:102400000895F8940895789408950E940112FFCFDA
:102410000F931F93DF93CF93CDB7DEB7A3970FB67C
:10242000F894DEBF0FBECDBF0E944D1780935C05B0
:102430008F3F21F48EE060E00E94D5150E942B248E
:102440000E949B248F3F31F40E94802480E160E051
:102450000E94D5150E948D2410925F0510926D0583
:1024600010926C0510925E0510925D0510926E053B
:1024700010926B058FEF8093580580935A058093D7
:10248000590593E69093BB048093B9049093DC04C0
:102490008093DA049093FD048093FB0490931E05CF
:1024A00080931C0590933F0580933D05E2E7F5E09E
:1024B00020E030E001C09A01A9014F5F5F4FCA01DF
:1024C000880F991F880F991F840F951F81599A4F64
:1024D00091838083C901880F991F880F991F820FEC
:1024E000931F81599A4F94838383359645305105C4
:1024F00011F7109271051092700510928C051092D0
:102500008B0510926205109261058FE695E090931D
:10251000B0048093AF048E010F5F1F4FC8016AE5BE
:1025200070E20E94A524C80164E174E040E850E034
:102530000E94EB2485E58093140419861C861D8671
:102540001E861F86188A198A1A8A1B8A1C8A1D8A67
:102550001E8A1F8A188E198E1A8E1B8E1C8E1D8E37
:102560001E8E1F8E18A219A21AA21BA281E08887B4
:1025700092E09A878B87C8010E94421BA3960FB6F0
:10258000F894DEBF0FBECDBFCF91DF911F910F91A9
:102590000895CF92DF92FF920F931F93DF93CF9313
:1025A00000D0CDB7DEB7B9EBCB2EB4E0DB2E90E098
:1025B000F601F080FF2DFF3FB1F009EB14E020E0C1
:1025C000921761F0F8018081F81641F485E06F2DD3
:1025D00029839A830E94D5159A8129812F5F0F5DE7
:1025E0001F4F253069F79F5F21E230E0C20ED31EF6
:1025F0009530F1F60E94351A992787FD9095FC01D8
:10260000A5E0EE0FFF1FAA95E1F7E80FF91FEF54C1
:10261000FB4F828580936E05F0936D05E0936C050A
:10262000F0935E05E0935D0580935F050E94202591
:102630000E9411250E946D30FFCFEF92FF920F9301
:102640001F93CF93DF93EC017B018A018985823050
:1026500021F080915B05888301C0188280915B0521
:10266000853020F087E060E00E94D51589858230B2
:1026700029F080915B058F5F80935B0580915B05FE
:10268000882319F481E080935B058881992787FD71
:102690009095FC01A5E0EE0FFF1FAA95E1F7E80F6A
:1026A000F91FEF54FB4FF182E08288858287888191
:1026B000992787FD9095FC0175E0EE0FFF1F7A9535
:1026C000E1F7E80FF91FEF54FB4F83E08187288182
:1026D000822F992787FD9095FC0165E0EE0FFF1F83
:1026E0006A95E1F7E80FF91FEF54FB4F20878881C7
:1026F000992787FD90957C0155E0EE0CFF1C5A95BB
:10270000E1F7E80EF91E81EB94E0E80EF91EF701FF
:102710001582CE010B960E940B1FF701948F838FB9
:102720008B859C85AD85BE858E339105A105B10550
:1027300020F086E168810E94D515E880FF24E7FC3F
:10274000F094CE014B960E940B1FF70145E0EE0F6F
:10275000FF1F4A95E1F7EE0DFF1DEF54FB4F968BDF
:10276000858B8881992787FD90957C0135E0EE0C5B
:10277000FF1C3A95E1F7E80EF91E81EB94E0E80EB4
:10278000F91EF70185899689238D348D820F931F59
:10279000908F878BCE0143960E940B1FF701968F77
:1027A000858F8881992787FD9095FC0125E0EE0FA4
:1027B000FF1F2A95E1F7E80FF91FEF54FB4F858DB6
:1027C000968D928F818F81E090E090A3878F138305
:1027D000028381E08487DF91CF911F910F91FF9059
:1027E000EF9008950E947520089585E690E0089581
:1027F000E0916C05F0916D0584870895E0916C057A
:10280000F0916D05848508952091F003222341F015
:10281000FB01208320914303FC01208381E0089584
:1028200080E00895DF93CF930F92CDB7DEB7198282
:1028300007C080ED97E00E94B22289818F5F898373
:1028400089818436B0F30F90CF91DF91089581E0B4
:1028500090E00E94EE100E94121481E090E00E942D
:10286000B7100E941214089581E090E00E94EE10CB
:102870000E9412140E9412140E94121481E090E02F
:102880000E94B7100E9412140895FF920F931F9395
:10289000DF93CF9300D00F92CDB7DEB700D000D03A
:1028A00000D0EDB7FEB731968E010F5F1F4FADB769
:1028B000BEB712961C930E93119726E431E0338332
:1028C0002283848315820E945940EDB7FEB7369665
:1028D0000FB6F894FEBF0FBEEDBFFF2472C0800F8D
:1028E000911FDC018C918433D1F1853370F48133F5
:1028F000F9F0823320F4803309F05CC016C08233D3
:1029000011F1833309F056C023C08733C9F18833EE
:1029100030F4853369F1863309F04CC02CC088331C
:10292000B1F1893309F046C03BC00E94341402C0A3
:102930000E9427140E9434140E9434140E943414FC
:102940000E94341437C00E9427140E942714F4CF29
:102950000E9427140E9427140E942714EFCF0E9480
:1029600027140E9427140E9427140E942714E8CFDE
:102970000E94271402C00E9434140E94271404C02D
:102980000E9434140E9434140E94271406C00E942E
:1029900034140E9434140E9434140E94271408C076
:1029A0000E9434140E9434140E9434140E9434147F
:1029B0000E9427140E9412140E9412140E941214E2
:1029C000F394F80101900020E9F73197E01BF10B37
:1029D0008F2D90E08E179F0708F481CF0F900F90F6
:1029E0000F90CF91DF911F910F91FF9008950F935A
:1029F0001F938091F003882319F41F910F9108957C
:102A00000E9401120E9480240E94011286E693E037
:102A10000E94E90E00D000D0EDB7FEB7319686E4F3
:102A200091E0ADB7BEB712969C938E9311978091AB
:102A30004303828313820E9447400F900F900F90B0
:102A40000F9082E693E00E94E90E8091F0038831B6
:102A500010F01092F0038091F00390E0019786311E
:102A6000910508F04BC08A5B9F4FFC01EE0FFF1FE2
:102A70000590F491E02D099486E293E041C08FEF38
:102A800092E03EC08BEE92E03BC085ED92E038C014
:102A90008AEB92E035C084EA92E032C08CE892E0A2
:102AA0002FC089E792E02CC086E692E029C088E436
:102AB00092E026C083E292E023C087E192E020C04A
:102AC0008CEF91E01DC08DEE91E01AC089ED91E090
:102AD00017C088EC91E014C084EB91E011C084E948
:102AE00091E00EC08CE791E00BC081E691E008C058
:102AF00080E591E005C081E491E002C08AE391E0C5
:102B00000E94E90E60919D0570919E058DE090E018
:102B10000E941B4060919D0570919E058AE090E0A7
:102B20000E941B4010E01FC082E090E00E94EE1067
:102B300083E090E00E94B71004E688EE93E00E94E4
:102B4000B2220150D1F783E090E00E94EE1082E0C3
:102B500090E00E94B71004E688EE93E00E94B22253
:102B60000150D1F71F5F1431FCF283E090E00E9426
:102B7000B71082E090E00E94B710809143030E945A
:102B800045140E94121482E090E00E94EE100E9410
:102B9000121482E090E00E94B7100E9412148091FB
:102BA000F0030E94451410E0BFCFEF92FF920F9305
:102BB0001F93182FE62E8093F003609343030E9427
:102BC000F71400E021C082E090E00E94EE1083E064
:102BD00090E00E94B71094E6F92E88EE93E00E94F0
:102BE000B222FA94D1F783E090E00E94EE1082E0E6
:102BF00090E00E94B71084E6F82E88EE93E00E94E1
:102C0000B222FA94D1F70F5F0431E8F283E090E04A
:102C10000E94B71082E090E00E94B7108E2D0E94B3
:102C20004514812F0E94451400E0CDCF8093F0031E
:102C3000E0916C05F0916D058085809343030E94BF
:102C4000F71408956F927F928F929F92AF92BF92E6
:102C5000CF92DF92EF92FF920F931F93CF93DF9368
:102C600082E793E00E94E90E00D000D089E491E071
:102C7000ADB7BEB712969C938E931197E0916C05F9
:102C8000F0916D058085992787FD909514969C930A
:102C90008E9313970E944740E0916C05F0916D056B
:102CA000C281D38182E591E0EDB7FEB79283818343
:102CB000D483C3830E944740EDB7FEB731966FE5DA
:102CC000E62E61E0F62EADB7BEB71296FC92EE92FC
:102CD00011978881828313820E9447405CE6C52E4B
:102CE00051E0D52EEDB7FEB7D282C182E0916C05DE
:102CF000F0916D0580819181ADB7BEB714969C931C
:102D00008E9313970E94474046E7A42E41E0B42ECD
:102D1000EDB7FEB7B282A18280916C0590916D05EE
:102D2000948383830E94474001EB14E00F900F903F
:102D30000F900F90C0E0D0E036E8632E31E0732EA4
:102D40004701C601DC2CC92EC501BA2CA92ED80119
:102D50001296ED90FC90139700D000D000D0EDB704
:102D6000FEB73196ADB7BEB712967C926E921197B0
:102D7000D383C283F582E4820E9447400F900F9074
:102D8000EDB7FEB73196ADB7BEB711968C921197DD
:102D900012969C92D7018C91828313820E944740A5
:102DA000EDB7FEB7D182C282D8018D919C919483F8
:102DB00083830E944740EDB7FEB7B182A282CE0165
:102DC00025E0880F991F2A95E1F78C0F9D1F8F54DE
:102DD0009B4F948383830E94474021960F5D1F4F32
:102DE0000F900F900F900F90C530D10509F0AFCF25
:102DF000DF91CF911F910F91FF90EF90DF90CF90D7
:102E0000BF90AF909F908F907F906F900895CF93D9
:102E1000DF93E0916C05F0916D05C281D3818881CB
:102E2000853539F00E94221681E00E94161685E54C
:102E30008883E0916C05F0916D058081918121E19D
:102E40008030920728F00E94221682E10E94161616
:102E5000DF91CF910895992787FD9095FC0175E04A
:102E6000EE0FFF1F7A95E1F7E80FF91FEF54FB4FC4
:102E7000A281B3818C91853519F085E58C9309C0C9
:102E80008081918121E18030920728F082E10E94C7
:102E900016168FEF089581E0089560916803709190
:102EA000690380916A0390916B03E0E0F0E09B017D
:102EB000AC010E2E04C056954795379527950A9478
:102EC000D2F720FD1AC021E030E040E050E00E2EA5
:102ED00004C0220F331F441F551F0A94D2F7262B1C
:102EE000372B482B592B2093680330936903409369
:102EF0006A0350936B038E2F08953196E032F105EB
:102F0000B1F68FEF0895E0916C05F0916D05658540
:102F10007685878590890895DF92EF92FF920F93CF
:102F20001F93D82E81E0E82EF12C012D112D0D2CB0
:102F300004C0EE0CFF1C001F111F0A94D2F78091F1
:102F4000680390916903A0916A03B0916B038E218D
:102F50009F21A023B1230097A105B10509F45DC00D
:102F60000E940112E8EBF4E0A8019701209530954A
:102F70004095509563E081818F3F39F1868197813B
:102F8000A085B1858E159F05A007B10731F4128683
:102F90001386148615861082628386819781A085A8
:102FA000B18582239323A423B52386839783A087A7
:102FB000B18782859385A485B58582239323A42335
:102FC000B52382879387A487B587B19685E0ED35D1
:102FD000F80789F62EEF3FEF4FEF5FEF04C0220FA7
:102FE000331F441F551FDA94D2F7809168039091E4
:102FF0006903A0916A03B0916B0382239323A423F6
:10300000B5238093680390936903A0936A03B093F8
:103010006B030E94031281E001C08FEF1F910F919B
:10302000FF90EF90DF900895EF92FF920F931F9320
:1030300021E030E040E050E004C0220F331F441F85
:10304000551F8A95D2F7E0916C05F0916D05858545
:103050009685A785B08979018A01E822F9220A2399
:103060001B23E114F10401051105D1F020953095E1
:103070004095509582239323A423B5238587968773
:10308000A787B08B81899289A389B48982239323EE
:10309000A423B523818B928BA38BB48B81E001C0D9
:1030A0008FEF1F910F91FF90EF900895209168038B
:1030B0003091690340916A0350916B03082E04C05C
:1030C00056954795379527950A94D2F72170307019
:1030D00021153105E9F0E0916C05F0916D0521E0D5
:1030E00030E040E050E004C0220F331F441F551F62
:1030F0008A95D2F785859685A785B089822B932BF3
:10310000A42BB52B85879687A787B08B81E0089580
:103110008FEF0895EF92FF920F931F93DF93CF935A
:103120000F92CDB7DEB791E0E92EF12C012D112DD4
:1031300004C0EE0CFF1C001F111F8A95D2F780916E
:10314000680390916903A0916A03B0916B038E218B
:103150009F21A023B1230097A105B10511F481E0BF
:103160003FC00E940112E8EBF4E020E033E08081F0
:103170008130A9F482859385A485B5858E219F2110
:10318000A023B1230097A105B10549F0328317862A
:1031900016861082E286F3860487158721E08081F7
:1031A000823091F482859385A485B5858E159F051F
:1031B000A007B10749F4328317861686108212865B
:1031C00013861486158621E0B19685E0ED35F80763
:1031D00071F629830E9403122981222329F482E0B7
:1031E0000E94F8138FEF01C081E00F90CF91DF9123
:1031F0001F910F91FF90EF900895E0916C05F09171
:103200006D05258536854785508926233723482334
:103210005923211531054105510521F1618B728B2F
:10322000838B948B21E0278300905C0504C09695E6
:103230008795779567950A94D2F7617070706115DC
:10324000710519F00E94301C04C080E090E00E94DB
:10325000571CE0916C05F0916D05218932894389F5
:10326000548903C020E030E0A901B901CA010895E2
:1032700080E090E0089525E08835920711F480E021
:1032800008958FEF08950E943B198F3F11F481E05C
:1032900003C0813029F482E00E94F8138FEF089573
:1032A000992787FD9095FC01EE0FFF1FE80FF91F8E
:1032B000E85AFA4F8FEF80838283818380916B0578
:1032C000815080936B0581E008950F931F93DF93E6
:1032D000CF930F92CDB7DEB70E943B198F3F11F409
:1032E00081E003C0813029F482E00E94F8138FEF5F
:1032F00043C0282F332727FD30958901000F111F68
:10330000020F131F085A1A4FD80112962C911297C8
:103310009C91291784F589830E940112F8019281FA
:103320009F5F9283E0916C05F0916D051482E8EB4C
:10333000F4E08981992787FD9095A92FB92F63E043
:103340002081223089F422853385448555852817CC
:1033500039074A075B0741F4628317861686108295
:103360001286138614861586B19625E0ED35F20790
:1033700039F70E94031281E00F90CF91DF911F91E6
:103380000F9108950F931F93DF93CF930F92CDB7B3
:10339000DEB70E943B198F3F11F481E003C08130FA
:1033A00029F482E00E94F8138FEF40C089830E94C5
:1033B00001128981082F112707FD1095F801EE0FE2
:1033C000FF1FE00FF11FE85AFA4F92819923B1F4E1
:1033D000E0916C05F0916D05978192609783992734
:1033E00087FD9095A92FB92F818B928BA38BB48BDE
:1033F0000E94031280E090E00E94571CF801EE0F3B
:10340000FF1FE00FF11FE85AFA4F8281815082833B
:10341000A0916C05B0916D0581811B968C931B97D3
:1034200081E014968C930E94031281E00F90CF915B
:10343000DF911F910F9108950E943B198F3F11F466
:1034400081E003C0813029F482E00E94F8138FEFFD
:103450000895992787FD9095FC01EE0FFF1FE80F57
:10346000F91FE85AFA4F82810895E0916105F091C1
:103470006205808108950F931F93CF93DF93C091CE
:103480006105D091620584E893E00E94E90E07E9A6
:1034900011E01DC000D000D0EDB7FEB7128301834C
:1034A000288130E0C90145E0880F991F4A95E1F76E
:1034B000820F931F88539B4F948383830E944740BE
:1034C0000B80DC81C02D0F900F900F900F902097F4
:1034D00009F781E893E00E94E90EDF91CF911F91F7
:1034E0000F9108950F931F93CF93DF93E091AF0453
:1034F000F091B004309709F470C04091610550918B
:1035000062054115510569F1DA01282F332727FD9E
:103510003095890165E0000F111F6A95E1F7020FF0
:10352000131F08531B4F6C916623E9F070E09B0159
:1035300095E0220F331F9A95E1F7260F371F2F547E
:103540003B4FE9016F89788DE80128813981261781
:10355000370748F013960D90BC91A02D109719F7DE
:1035600002C0A0E0B0E08083C381D481D093B004D6
:10357000C093AF04A417B507B1F4109749F0B48312
:10358000A383128211821296FC93EE93119706C0C8
:103590001482138212821182FA83E983F093620506
:1035A000E09361051AC011968D919C911297AC170A
:1035B000BD0759F092838183B483A3831196CD9183
:1035C000DC911297FC83EB8304C0148213829283F4
:1035D00081831296FC93EE931197DF91CF911F9107
:1035E0000F910895CF93DF93E0916105F09162050B
:1035F000309709F444C0992787FD9095208130E0E9
:103600002817390781F4A381B481B0936205A09390
:10361000610512961C921E92119718C00380F481C6
:10362000E02D309761F1208130E028173907B1F79C
:10363000C181D281838194819C838B83A381B48156
:10364000109721F01296DC93CE931197A091AF04BE
:10365000B091B004109739F4F093B004E093AF0444
:10366000148213820AC0B483A3831296FC93EE9350
:103670001197F093B004E093AF0412821182DF91AE
:10368000CF910895EF92FF920F931F93CF93DF9303
:10369000EC0169817A814B815C818D819E810E94E0
:1036A000C024BC018F81882369F04B815C81CE01ED
:1036B00020E030E000E010E0EE24FF240E941D1323
:1036C0001F8213C08881992787FD9095FC01A5E092
:1036D000EE0FFF1FAA95E1F7E80FF91FEF54FB4F1C
:1036E00081858330D1F4718360838881992787FD38
:1036F0009095FC0175E0EE0FFF1F7A95E1F7E80F5A
:10370000F91FEF54FB4F85899689009741F482E0B9
:10371000818788810E94721A02C08FEF01C081E008
:10372000DF91CF911F910F91FF90EF9008951F931C
:10373000DF93CF93CDB7DEB728970FB6F894DEBFEF
:103740000FBECDBF29833A834B835C836D837E8319
:103750008F8398870E9401120E944923182FCE015F
:1037600001960E940B1F9C018330910560F0E0914F
:103770006C05F0916D05210F311D368B258B0E9454
:10378000031281E001C08FEF28960FB6F894DEBFD8
:103790000FBECDBFCF91DF911F9108950E94B52438
:1037A000E0916C05F0916D0585818823B9F7089546
:1037B000FF920F931F93DF93CF93CDB7DEB7289778
:1037C0000FB6F894DEBF0FBECDBF29833A834B837B
:1037D0005C836D837E838F8398870E9407170E9486
:1037E0000112E0916C05F0916D0581E0858381E027
:1037F00090E090A3878F0E944923F82ECE01019676
:103800000E940B1FE0916C05F0916D050F2D10E0EB
:103810009801280F391F368B258B8F2D883F78F420
:103820000E9443230F5F1F4F282F30E0021713071A
:1038300034F48F2D8E5F8093EF030E9446230E9405
:1038400003120E94CE1B81E028960FB6F894DEBFCB
:103850000FBECDBFCF91DF911F910F91FF900895C3
:103860001F930E940112E0916C05F0916D0581E0BB
:10387000858386830E944923182F883F88F40E94FD
:103880004323212F30E02F5F3F4F482F50E0241774
:10389000350734F4812F8E5F8093EF030E94462317
:1038A0000E9403120E94CE1B81E01F9108951F9376
:1038B000CF93DF93EC010E940112E0916C05F0912F
:1038C0006D0581E08583D68BC58B0E944923182F17
:1038D000883F88F40E944323212F30E02F5F3F4F21
:1038E000482F50E02417350734F4812F8E5F8093E2
:1038F000EF030E9446230E9403120E94CE1B81E028
:10390000DF91CF911F910895EF92FF920F931F9334
:10391000DF93CF930F92CDB7DEB78C010E940112D7
:10392000E0916C05F0916D0581E085830E9449234B
:10393000E0916C05F0916D05E82EFF240E0D1F1D22
:10394000168B058B883F90F489830E94432308944B
:10395000E11CF11C282F30E09981E216F30634F4C3
:10396000892F8E5F8093EF030E9446230E940312EB
:103970000E94CE1B81E00F90CF91DF911F910F919C
:10398000FF90EF9008951F93CF93DF93EC010E9477
:103990000717209711F4C1E0D0E00E940112E091D6
:1039A0006C05F0916D0581E08583D0A3C78F0E94DF
:1039B0004923182F883F88F40E944323212F30E0A9
:1039C0002F5F3F4F482F50E02417350734F4812FE5
:1039D0008E5F8093EF030E9446230E9403120E9491
:1039E000CE1B81E0DF91CF911F9108951F930E941C
:1039F00007170E940112E0916C05F0916D0581E0BE
:103A000090E090A3878F81E085830E944923182F3F
:103A1000883F88F40E944323212F30E02F5F3F4FDF
:103A2000482F50E02417350734F4812F8E5F8093A0
:103A3000EF030E9446230E9403120E94CE1B81E0E6
:103A40001F910895E0916C05F0916D0580850E94AD
:103A5000F21AE0916C05F0916D0584E081870E9477
:103A6000F61C81E008958F929F92AF92BF92CF9201
:103A7000DF92EF92FF920F931F93DF93CF93CDB717
:103A8000DEB760970FB6F894DEBF0FBECDBF2987B3
:103A90003A874B875C876D877E878F87988BCE01AF
:103AA00001960E948F1DCE01099609851A852B85E6
:103AB0003C854D855E856F85788989809A80AB804D
:103AC000BC80CD80DE80EF80F8840E94ED1D8F3FAA
:103AD00061F029853A854B855C856D857E858F856E
:103AE00098890E94D81B81E001C08FEF60960FB6C5
:103AF000F894DEBF0FBECDBFCF91DF911F910F9124
:103B0000FF90EF90DF90CF90BF90AF909F908F90FD
:103B10000895E0916C05F0916D0580850895EF9210
:103B2000FF920F931F93CF93DF93EC011C821D82B2
:103B30001E821F828091630590916405A0916505A6
:103B4000B091660588839983AA83BB83E09067055B
:103B5000F09068050091690510916A05EC82FD827C
:103B60000E831F830E944923682F70E080E090E05D
:103B700023EB36EE4EE050E00E94143E6E0D7F1DAA
:103B8000801F911F6C837D838E839F8313C0805021
:103B90009A4CAA49BB438C839D83AE83BF838881A3
:103BA0009981AA81BB810196A11DB11D888399834A
:103BB000AA83BB838C819D81AE81BF8180302AEC3A
:103BC00092072AE9A2072BE3B20708F7DF91CF910A
:103BD0001F910F91FF90EF9008958F929F92AF9257
:103BE000BF92CF92DF92EF92FF920F931F93DF93DA
:103BF000CF93CDB7DEB760970FB6F894DEBF0FBE98
:103C0000CDBFFC0109831A832B833C834D835E83E4
:103C10006F83788789869A86AB86BC86CD86DE865A
:103C2000EF86F88AE980FA800B811C812D813E8124
:103C30004F815885A984BA84CB84DC848D859E8588
:103C4000AF85B889EA14FB040C051D0508F440C0D3
:103C5000AE14BF04C006D10691F4281739074A07ED
:103C60005B07B0F1281B390B4A0B5B0B24833583B0
:103C700046835783108211821282138227C028172D
:103C800039074A075B0790F40894E108F108010935
:103C90001109EA18FB080C091D09E082F182028370
:103CA0001383205036434546544C08C0EA18FB089D
:103CB0000C091D09E082F18202831383281B390B52
:103CC0004A0B5B0B248335834683578381E001C015
:103CD0008FEF60960FB6F894DEBF0FBECDBFCF91C9
:103CE000DF911F910F91FF90EF90DF90CF90BF90E9
:103CF000AF909F908F900895FC0114C020503A4CD3
:103D00004A495B432483358346835783208131812D
:103D1000428153812F5F3F4F4F4F5F4F208331834D
:103D200042835383248135814681578120308AEC38
:103D300038078AE948078BE3580700F708958F9200
:103D40009F92AF92BF92CF92DF92EF92FF920F932A
:103D50001F93DF93CF93CDB7DEB760970FB6F8947C
:103D6000DEBF0FBECDBF09831A832B833C834D83F7
:103D70005E836F83788789869A86AB86BC86CD867C
:103D8000DE86EF86F88A29853A854B855C85E98051
:103D9000FA800B811C812E0D3F1D401F511FFC011D
:103DA00020833183428353832D853E854F855889F7
:103DB000ED80FE800F8118852E0D3F1D401F511F85
:103DC00024833583468357830E947C1E81E060965E
:103DD0000FB6F894DEBF0FBECDBFCF91DF911F911C
:103DE0000F91FF90EF90DF90CF90BF90AF909F909A
:103DF0008F900895609363057093640580936505C3
:103E00009093660520936705309368054093690594
:103E100050936A0508958F929F92AF92BF92CF926E
:103E2000DF92EF92FF920F931F93FC01208131816B
:103E30004281538164817581868197812115310585
:103E40004105510509F461C0223431054105510590
:103E500008F062C05B016C01EE24FF24870160E082
:103E600038C08A2CAB2DA653F1E0AB1508F0F0E07A
:103E70008C2D865691E08C1508F090E0F80F71E0DB
:103E8000F81708F070E0972B7D2D755CE1E07D154B
:103E900008F0E0E0970F81E0971708F080E08E2BA4
:103EA0008E0DE1E08E1508F0E0E0EF0D71E0EF150A
:103EB00008F070E0700FB1E0701708F0B0E0B10FDB
:103EC000A82CBA2ECF2ED92EE82EFE2E072F1B2F70
:103ED0006F5F862F90E0A0E0B0E082179307A40701
:103EE000B50708F4BECF9501A601B701C801A3EB41
:103EF000AA2EF6EEBF2EEEE0CE2EDD24EE24FF2419
:103F000000E010E00E94983009C023EB36EE4EE04E
:103F100050E00E94473E02C020E030E0C9011F91FE
:103F20000F91FF90EF90DF90CF90BF90AF909F9058
:103F30008F900895EF92FF920F931F93DF93CF938B
:103F4000CDB7DEB728970FB6F894DEBF0FBECDBF52
:103F50007B018C01BAE016950795F794E794BA9522
:103F6000D1F7E982FA820B831C83737080709070A2
:103F700023EB36EE4EE050E00E94143E6D837E83CC
:103F80008F8398872E2D3A814B815C8128960FB6BE
:103F9000F894DEBF0FBECDBFCF91DF911F910F917F
:103FA000FF90EF9008958F929F92AF92BF92CF9221
:103FB000DF92EF92FF920F931F93FC0120813181DA
:103FC00042815381648175818681978121153105F4
:103FD0004105510509F45BC05B016C01EE24FF242F
:103FE000870160E038C08A2CAB2DA653F1E0AB15F9
:103FF00008F0F0E08C2D865691E08C1508F090E0EA
:10400000F80F71E0F81708F070E0972B7D2D755CC4
:10401000E1E07D1508F0E0E0970F81E0971708F0E8
:1040200080E08E2B8E0DE1E08E1508F0E0E0EF0DC4
:1040300071E0EF1508F070E0700FB1E0701708F054
:10404000B0E0B10FA82CBA2ECF2ED92EE82EFE2E1E
:10405000072F1B2F6F5F862F90E0A0E0B0E0821744
:104060009307A407B50708F4BECF9501A601B701D1
:10407000C801E3EBAE2E06EEB02E1EE0C12EDD240D
:10408000EE24FF2400E010E00E94983006C023EBED
:1040900036EE4EE050E00E94473EB901CA011F9142
:1040A0000F91FF90EF90DF90CF90BF90AF909F90D7
:1040B0008F9008951F9311E00E9407170E944323D9
:1040C000853110F4109360050E94B524809114048A
:1040D000853519F088E00E94161680917E1085358E
:1040E00059F388E00E941616E7CF2F923F924F9225
:1040F0005F926F927F928F929F92AF92BF92CF9278
:10410000DF92EF92FF920F931F93DF93CF930F9263
:10411000CDB7DEB70E9442230E9401120E94BE2248
:104120000E94C4222C018AEF0E9446230E94A224EE
:104130006091EF0370E080E090E023EB36EE4EE01C
:1041400050E00E94143E7B018C01809167059091A4
:104150006805A0916905B0916A05E80EF91E0A1F6D
:104160001B1FC801B7010E94473EE61AF70A080B59
:10417000190B8091630590916405A0916505B0913C
:10418000660573EBA72E76EEB72E7EE0C72ED12CF8
:1041900014C080E096E3A5E6B4ECE80EF91E0A1F11
:1041A0001B1FC801B701A60195010E94473EE61AF0
:1041B000F70A080B190BD401C3013C014D01089407
:1041C000611C711C811C911CE0E0EE16EAECFE06FD
:1041D000EAE90E07EBE31E07E0F680936305909390
:1041E0006405A0936505B0936605E0926705F092BB
:1041F00068050093690510936A05E0916C05F091DC
:104200006D0585818823B9F081858430A1F087818F
:10421000823029F0882341F08681882311F485E0DB
:1042200001C083E0818704C083E081871782168202
:1042300080850E94F21AE0916C05F0916D05858DE4
:10424000968D009799F16085662381F18185843090
:1042500069F1218D328D8091EF0390E028173907A5
:1042600050F482E00E94D515E0916C05F0916D0547
:10427000128E118E04C0281B390B328F218FE091D2
:104280006C05F0916D050085218D328D211531056C
:1042900069F483E0602F0E94D515E0916C05F091E0
:1042A0006D0583E08187802F0E94F21A66EB262E2F
:1042B00064E0362E00E61AEE20E051E0652E712C07
:1042C0004AEFE42EF12C32E0932E91E0A92EB12C8E
:1042D000C12CD12CD10113968C9113978F3F09F4E7
:1042E000C4C01C92882309F443C014968C9114977F
:1042F0008430F1F150964D915C9151978091EF038C
:1043000090E04817590738F0481B590B51965C93B9
:104310004E93509703C0F101118A108AD101529631
:104320004D915C9153974817590738F0481B590B2A
:1043300053965C934E93529712C0F1016689778928
:104340008617970728F4681B790B738B628B07C05D
:104350000E94333ED10153969C938E935297F10164
:1043600082899389009721F486899789938B828B20
:10437000D10114968C911497833009F076C0509631
:104380008D919C915197009709F066C012968C917F
:1043900012978823A9F011968C911197882381F0A8
:1043A000D601C50100905C0504C0880F991FAA1FA3
:1043B000BB1F0A94D2F7F10184879587A687B78738
:1043C000D10112961C92129711961C9211971C9271
:1043D0005A964D915C915B9756968D919C9157970B
:1043E00058966D917C91599741305105D9F4559665
:1043F0007C936E93549714969C92149752964D9179
:104400005C91539751965C934E935097009721F48B
:104410005196FC92EE925097822F29830E94721A35
:1044200029811AC0F101758B648BBA01615070400B
:10443000689FA001699F500D789F500D1124518BEA
:10444000408B538B428B009711F4F18AE08AD101A3
:104450005B967C926E925A97F101808991890097C0
:1044600021F08017910708F48C012F5F81E290E022
:10447000280E391E253009F02DCF0E94351AE82E5E
:10448000282F332727FD3095F90185E0EE0FFF1F18
:104490008A95E1F7E20FF31FEF54FB4F828580937B
:1044A0006E05F0935E05E0935D05EE20B9F0258D75
:1044B000368D2115310551F0218D328D2A3F310580
:1044C00028F42017310708F44BC00DC098010B3FAA
:1044D000110508F445C02AEF30E042C00B3F11053A
:1044E00010F00AEF10E080935F05F0936D05E09304
:1044F0006C050093EF030E944923282F30E02F5FC3
:104500003F4F2017310740F00E944923082F10E049
:104510000E5F1F4F0093EF03EE2011F01092600525
:10452000802F0E944623C2016EEE72E00E94D522C7
:104530000E940A250E946D300F90CF91DF911F914C
:104540000F91FF90EF90DF90CF90BF90AF909F9032
:104550008F907F906F905F904F903F902F90089535
:104560008901C1CF00000000000000000197D1F7D1
:1045700008951EBC089581E08EBD089580B58160C8
:1045800080BD1DBC1CBC0895DF93CF9300D0CDB778
:10459000DEB78CB59DB59A83898329813A81C9019B
:1045A0000F900F90CF91DF910895EF92FF920F93AC
:1045B0001F93CF93DF93EC018FEFC937D80710F02B
:1045C000C0E0D0E07E0100E010E080E090E0E60E88
:1045D000F71E081F191F91E0E91690E0F90691E017
:1045E000090790E0190768F080E090E0AFEFBFEFB7
:1045F000E80EF91E0A1F1B1F0E94C422C817D90704
:10460000D8F30E94C4228E159F05D8F3DF91CF9175
:104610001F910F91FF90EF90089582BF089513BEF0
:1046200087B78D7F87BF87B78E7F87BF08958BE061
:1046300083BF87B7836087BF089580B5826080BDE0
:1046400012BE109244031092EF0308958EEF8093F0
:10465000EF0398E090BF81BF83E086BF8BE083BF0C
:1046600080B5876080BD1FBC81E08EBD1DBC1CBCB9
:1046700080B5816080BD0E941D230E941723109287
:1046800044030895089581B78F5F0895815081BFD5
:10469000089582B708951F920F920FB60F920BB62E
:1046A0000F9211242F933F934F935F936F937F93B8
:1046B0008F939F93AF93BF93EF93FF938AE060E054
:1046C0000E94D515FF91EF91BF91AF919F918F916E
:1046D0007F916F915F914F913F912F910F900BBE02
:1046E0000F900FBE0F901F9018950F920FB60F925C
:1046F0001F922F923F924F925F926F927F928F9272
:104700009F92AF92BF92CF92DF92EF92FF920F9360
:104710001F932F933F934F935F936F937F938F9349
:104720009F93AF93BF93CF93DF93EF93FF93A091AA
:104730006C05B0916D050DB60D920EB60D921F92DF
:10474000A091EC03B091ED031E90BEBFADBF0895E4
:10475000882319F487B78F7787BF8FEF0895882351
:1047600019F414BC81E008958FEF0895882319F49B
:1047700024B530E002C020E030E0C901089588236C
:1047800029F487B7806887BF81E008958FEF089587
:10479000882359F5CB0101978530910510F460937A
:1047A000EE0388E085BD43BD3093C2022093C10271
:1047B0008091EE03813019F485B5816009C08230A3
:1047C00019F485B5826004C0833029F485B583600F
:1047D00085BD81E00895843019F485B58460F8CFF3
:1047E000853029F485B58560F3CF8FEF089581E09A
:1047F00008951F920F920FB60F920BB60F921124CD
:104800002F933F934F935F936F937F938F939F93D8
:10481000AF93BF93EF93FF93E091C102F091C20277
:10482000309711F0099504C08AE060E00E94D51528
:10483000FF91EF91BF91AF919F918F917F916F9178
:104840005F914F913F912F910F900BBE0F900FBE34
:104850000F901F90189504B603FC02C080E001C0C1
:1048600080E104B602FE06C094B79B7F94BF04B6F5
:1048700000FE846004B601FE05C094B79D7F94BF1E
:1048800082600895882359F404B600FE04C094B7EA
:104890009E7F94BF01C081E093B79111816008951C
:1048A0008FEF08958FEF08958FEF08951F920F9265
:1048B0000FB60F920BB60F9211242F933F934F9385
:1048C0005F936F937F938F939F93AF93BF93EF9378
:1048D000FF938AE060E00E94D515FF91EF91BF91B0
:1048E000AF919F918F917F916F915F914F913F9188
:1048F0002F910F900BBE0F900FBE0F901F90189529
:104900000E940112A89584B7877F84BF81B5886112
:1049100081BD11BC0E94031208950E94011284B748
:10492000877F84BFA89581B5886181BD8FE081BDF7
:104930000E940312089504B603FC02C081E00895AA
:104940008FEF0895A89508950895FC0176836583F7
:10495000089585B7837E886185BF85B7806285BFEE
:10496000889585B78F7D85BF089585B7837E85BF80
:1049700085B7806285BF889585B78F7D85BF08958F
:1049800025E5FA012083FB013297908381831292FF
:1049900012921292129212921292129212921292F7
:1049A00012921292129212921292129212921292E7
:1049B00012921292129212921292129212921292D7
:1049C00012921292129212921292129212921292C7
:1049D0001292CF010895EF92FF920F931F93CF93FE
:1049E000DF93EC018B017A014032510518F481E12B
:1049F0000E9416160894E108F108E00EF11EFA82F2
:104A0000E9821C830B83DF91CF911F910F91FF905F
:104A1000EF90089582EF93E19093FE108093FF1042
:104A2000089585E580937E10EEEFF0E1F093ED03BD
:104A3000E093EC0382EF93E190838093FF1008955D
:104A40000E9426230E94031208950E947B25089548
:104A50001F93DF93CF930F92CDB7DEB7142F8370E0
:104A60008C6269830E94E6256981613011F480E0DF
:104A700001C080E80E94AE25812F0E94AE250E94D1
:104A8000A2250F90CF91DF911F910895DF93CF93CF
:104A900000D0CDB7DEB780E487B986E086B9379A13
:104AA000369A3699FECF84B195B19A8389830F9057
:104AB0000F90CF91DF9108953798089597B18F7136
:104AC000907E892B87B9369A3699FECF24B135B1BD
:104AD000C90108958EE10E945E25BC0180E090E04E
:104AE0000E94963B9B01AC0164EA70E78DE994E477
:104AF0000E94023B0895E1E7F0E08081808381E03D
:104B00008093700084E08093740008958091740015
:104B100087FFFCCF0895E4E7F0E080818068808320
:104B20000895CF93DF93C4E7D0E0888180628883C3
:104B30000E948B250E94862588818F7D8883DF9146
:104B4000CF910895809174008061809374000E94D9
:104B50008B258091740084FDFCCF089580937300B1
:104B60000E948B250E94862580917100887F883263
:104B700041F090917100987F81E0983119F480E0C4
:104B8000089580E00895009721F08091740080647A
:104B900003C0809174008F7B809374000E948B25EA
:104BA0000E948625809173000895DF93CF930F9222
:104BB000CDB7DEB789830E9491258981880F8160F6
:104BC0000E94AE250F90CF91DF910895DF93CF9390
:104BD0000F92CDB7DEB789830E9491258981880F16
:104BE0000E94AE250F90CF91DF9108950E94462537
:104BF00081E08093B20208958091B202882311F47B
:104C00000E94F6250E945C250895DF93CF930F92B2
:104C1000CDB7DEB79091B202992321F489830E9427
:104C2000F6258981A898A098813019F41D9A159AC3
:104C300002C01D9815980F90CF91DF910895DF93D2
:104C4000CF930F92CDB7DEB79091B202992321F4A2
:104C500089830E94F62589811D981598813019F461
:104C6000A89AA09A02C0A898A0980F90CF91DF911F
:104C700008958091B202882311F40E94F62581E004
:104C80000E94052681E00E945E2508958091B2026F
:104C9000882311F40E94F62581E00E941F2681E0FE
:104CA0000E945E250895AF92BF92CF92DF92EF925D
:104CB000FF920F931F930E944626BC0180E090E074
:104CC0000E94963B8B017C0160E070EC8FE794E4DE
:104CD000202F312F4E2D5F2D0E949D3A20E030E491
:104CE0004CE156E40E946D3C202F312F4E2D5F2D5C
:104CF0000E94023B0E942D3C7B018C0120E030E0B1
:104D000040E450E40E94D03CD62EC72EB82EA92EE7
:104D1000C801B70129E733EE4DE759E30E946D3C26
:104D200028EC32E644E85AE30E949E3A7B018C016B
:104D3000A6019501652F742F832F922F2DE234EC5D
:104D40004CE154E30E946D3C9B01AC01C801B701EA
:104D50000E949E3A9B01AC0160E070E080E89FE316
:104D60000E94023B1F910F91FF90EF90DF90CF9038
:104D7000BF90AF9008950E94532623E333E948E89B
:104D800053E40E949D3A08950E9446250E942525DD
:104D900081E08093B30208958091B302882311F4D7
:104DA0000E94C4260E945C250895DF93CF930F9242
:104DB000CDB7DEB79091B302992321F489830E9485
:104DC000C4268981813011F4AC9A01C0AC980F904F
:104DD000CF91DF910895DF93CF930F92CDB7DEB7D8
:104DE0009091B302992321F489830E94C42689817A
:104DF000813011F4AD9A01C0AD980F90CF91DF9141
:104E000008951F93182F8091B302882311F40E94F4
:104E1000C42680E00E941527113019F4A89AA09AA0
:104E200002C0A898A0981F9108951F93182F8091F1
:104E3000B302882311F40E94C42680E00E94012757
:104E4000113019F41D9A159A02C01D9815981F91DA
:104E50000895DF93CF930F92CDB7DEB79091B30251
:104E6000992321F489830E94C4268981813011F419
:104E7000AA9A01C0AA980F90CF91DF910895DF936D
:104E8000CF930F92CDB7DEB79091B302992321F45F
:104E900089830E94C4268981813011F4AB9A01C0B4
:104EA000AB980F90CF91DF910895DF93CF930F923E
:104EB000CDB7DEB7482F8091B302882321F4498310
:104EC0000E94C426498180E061E00E9428250F905D
:104ED000CF91DF910895DF93CF930F92CDB7DEB7D7
:104EE000482F8091B302882321F449830E94C4266D
:104EF000498180E062E00E9428250F90CF91DF91E8
:104F00000895DF93CF930F92CDB7DEB7482F8091EE
:104F1000B302882321F449830E94C426498181E099
:104F200061E00E9428250F90CF91DF910895DF93D3
:104F3000CF930F92CDB7DEB79091B302992321F4AE
:104F400089830E94C4268981882311F4AE9A03C004
:104F5000813009F4AE980F90CF91DF910895809140
:104F6000B302882311F40E94C42681E00E94152711
:104F700081E00E945E2508958091B302882311F498
:104F80000E94C42681E00E94012781E00E945E25E4
:104F900008958091B302882311F40E94C42682E010
:104FA0000E945E2508958091B302882311F40E9427
:104FB000C42683E00E945E2508958091B302882371
:104FC00011F40E94C42684E00E945E250895809119
:104FD000B302882311F40E94C42685E00E945E2556
:104FE00008958091B302882311F40E94C42686E0BC
:104FF0000E945E25089589E993E00197F1F700C0CA
:10500000DC98D49A89E993E00197F1F700C0D4982D
:10501000DC9ACC9BFECF80E007C091E39A95F1F734
:1050200000008F5F8F3149F0CC99F7CF89E993E089
:105030000197F1F700C080E008958FEF089588236D
:1050400061F4DC98D49A84EC8A95F1F700C0D49886
:10505000DC9A81E38A95F1F70BC0DC98D49A88E159
:105060008A95F1F700C0D498DC9A8DED8A95F1F716
:1050700000000895DC98D49A82E08A95F1F700C088
:10508000D498DC9A96E19A95F1F7000089B394ECF4
:105090009A95F1F700C090E08071907024E09595AA
:1050A00087952A95E1F70895FF920F931F93CF9369
:1050B000DF93F82EC0E0D0E001E010E098010C2E64
:1050C00002C0220F331F0A94E2F78F2D82230E9421
:1050D0001F282196C830D10589F7DF91CF911F9104
:1050E0000F91FF9008951F93CF93DF93C0E0D0E01E
:1050F00010E00E943A28282F30E00C2E02C0220F28
:10510000331F0A94E2F7122B2196C830D10589F794
:10511000812FDF91CF911F9108958FE00E94542835
:10512000089580B58B7F80BDD498DC9A86EF8A95F0
:10513000F1F70895EF92FF920F931F93DF93CF93B0
:1051400000D000D0CDB7DEB77C0119821A821B8255
:105150001C820E94FB27882339F0282F332727FD44
:105160003095432F532F27C00E948D280E9473280B
:10517000813019F08EEFF70180838E010F5F1F4F92
:105180000E94732889830E947328F80181830E94FA
:105190007328F80182830E947328F80183830E9498
:1051A00073280E9473280E947328F70110822981B6
:1051B0003A814B815C81B901CA010F900F900F9029
:1051C0000F90CF91DF911F910F91FF90EF90089575
:1051D000AA98959887FF02C0939A01C09398959AD0
:1051E000959886FF02C0939A01C09398959A9598D6
:1051F00085FF02C0939A01C09398959A959884FF71
:1052000002C0939A01C09398959A959883FF02C023
:10521000939A01C09398959A959882FF02C0939AA9
:1052200001C09398959A959881FF02C0939A01C006
:105230009398959A959880FF02C0939A01C093988D
:10524000959A959AAA9A0895DF93CF9300D00F92DA
:10525000CDB7DEB7A89A19821FC0A898898180555A
:105260000E94E82880E10E94E82880E00E94E82867
:10527000A89A1B821A8208C080E00E94E8288A81CE
:105280009B8101969B838A838A819B8180389105CB
:105290009CF389818F5F898389818830F0F20F9038
:1052A0000F900F90CF91DF910895C498BC9A85B369
:1052B000876085BB84B3876084BB81B3886281BB10
:1052C000939A88E785BB84B3877884BBA898A9980C
:1052D0008FEF9FE3A2E081509040A040E1F700C033
:1052E0000000A99A8FEF9FE3A2E081509040A04078
:1052F000E1F700C0000080E40E94E82881EA0E94F3
:10530000E82880EC0E94E82886EA0E94E82882EAE1
:105310000E94E8288FE20E94E82888EF0E94E8288F
:1053200080E00E94E82887E20E94E82881E80E9445
:10533000E82880E10E94E8288CEA0E94E82880E0C2
:105340000E94E8288FEA0E94E8280E9424290895F4
:10535000813011F4C49A0895C4980895EF92FF9291
:105360000F931F93DF93CF930F92CDB7DEB7082F24
:10537000162FA898842F805599830E94E828812FA2
:1053800082958F7080610E94E828812F8F700E9423
:10539000E828A89A9981602F792F7B011AC000E034
:1053A00010E0D701EC91B5E0EB9FF0011124E00F84
:1053B000F11FE057FC4F84910E94E8280F5F1F4FB8
:1053C0000530110571F780E00E94E8280894E11C7F
:1053D000F11CF7018081882311F70F90CF91DF91A5
:1053E0001F910F91FF90EF90089560919D0570912E
:1053F0009E0590E00E941B40089580E00E94DB0E15
:10540000882349F080919B0590919C050E94D93F8B
:10541000282F30E002C02FEF3FEFC9010895BF925F
:10542000CF92DF92EF92FF920F931F93DF93CF9370
:1054300000D000D00F92CDB7DEB7D82EB62E20EA1E
:1054400036E841E050E029833A834B835C8381E175
:105450009D830E94F5298B2D0E94F52981E1C82E9C
:10546000CB0C9D810D2D192F09C07801F801819178
:105470008F010E94F529F7018081C80E802F8D19B8
:105480008B1598F38C2D0E94F5290E94FD29298106
:105490003A814B815C81215030404040504029830B
:1054A0003A834B835C83863051F089819A81AB814A
:1054B000BC810097A105B10541F78FEF01C080E0E5
:1054C0000F900F900F900F900F90CF91DF911F9141
:1054D0000F91FF90EF90DF90CF90BF900895CF9203
:1054E000DF92EF92FF920F931F93DF93CF9300D041
:1054F00000D0CDB7DEB7F82E092F20EA36E841E01C
:1055000050E029833A834B835C8382E10E94F52932
:1055100081E00E94F52983E50E94F52986E60E9434
:10552000F5290E94FD2929813A814B815C81215016
:1055300030404040504029833A834B835C8386301F
:1055400061F029813A814B815C812115310541054A
:10555000510539F7EE24E39401C0EE240E94FD29A1
:105560002FEF8F3F9207D1F38131910559F50E94BA
:10557000FD29EFEF8F3F9E07D1F3D82E91E1C92E81
:10558000CD0C802F0F2D182F0AC00E94FD29FFEF90
:105590008F3F9F07D1F3F80181938F01C80E802FB1
:1055A0008F198D1590F30E94FD29FFEF8F3F9F0704
:1055B000D1F32C2D30E08217930721F4EE2011F463
:1055C0008D2D01C08FEF0F900F900F900F90CF9106
:1055D000DF911F910F91FF90EF90DF90CF90089592
:1055E000CF92DF92EF92FF920F931F93DF93CF93AF
:1055F00000D000D0CDB7DEB78C017B0180E492E40F
:10560000AFE0B0E089839A83AB83BC8382E10E94E0
:10561000F52981E00E94F52989E40E94F5298CE5AD
:105620000E94F5290E94FD2929813A814B815C81E4
:10563000215030404040504029833A834B835C8363
:10564000863059F089819A81AB81BC810097A10590
:10565000B10541F7DD24D39401C0DD240E94FD296A
:105660002FEF8F3F9207D1F38231910551F50E94C0
:10567000FD29EFEF8F3F9E07D1F3823011F50E9495
:10568000FD29FFEF8F3F9F07D1F324E1C22EC80E03
:10569000F80180830E94FD29FFEF8F3F9F07D1F320
:1056A0000C2D080FF70180830E94FD29FFEF8F3F2B
:1056B0009F07D1F3202F30E08217930711F4DD20EC
:1056C00011F08FEF01C080E00F900F900F900F90BE
:1056D000CF91DF911F910F91FF90EF90DF90CF90CE
:1056E00008950F931F93DF93CF9300D000D0CDB7D1
:1056F000DEB7182F062F20E432E44FE050E0298374
:105700003A834B835C8382E10E94F52983E00E9407
:10571000F52984E40E94F529812F0E94F529802F24
:105720000E94F529812F875A800F0E94F5290E9437
:10573000FD2929813A814B815C81215030404040D4
:10574000504029833A834B835C83863051F08981B2
:105750009A81AB81BC810097A105B10541F78FEF1C
:1057600001C080E00F900F900F900F90CF91DF91CC
:105770001F910F910895BF92CF92DF92EF92FF9207
:105780000F931F93DF93CF9300D000D0CDB7DEB738
:105790006C018B017A0180E492E4AFE0B0E0898390
:1057A0009A83AB83BC8382E10E94F52981E00E9449
:1057B000F52980E50E94F52983E60E94F5290E94DB
:1057C000FD2929813A814B815C8121503040404044
:1057D000504029833A834B835C83863049F089812A
:1057E0009A81AB81BC810097A105B10541F73BC00F
:1057F0000E94FD292FEF8F3F9207D1F3823191054F
:1058000091F50E94FD29EFEF8F3F9E07D1F3833082
:1058100051F50E94FD29FFEF8F3F9F07D1F335E13E
:10582000B32EB80EF60180830E94FD29FFEF8F3F53
:105830009F07D1F3CB2CC80EF80180830E94FD296D
:10584000FFEF8F3F9F07D1F30C2D080FF7018083E7
:105850000E94FD29FFEF8F3F9F07D1F3202F30E0FB
:105860008217930711F08FEF01C080E00F900F9027
:105870000F900F90CF91DF911F910F91FF90EF90BC
:10588000DF90CF90BF900895EF92FF920F931F93F8
:10589000DF93CF9300D000D0CDB7DEB7F82E092F1D
:1058A00020E432E44FE050E029833A834B835C8369
:1058B00082E10E94F52981E00E94F52982E50E949B
:1058C000F52985E60E94F5290E94FD2929813A8162
:1058D0004B815C81215030404040504029833A83C5
:1058E0004B835C83863059F029813A814B815C81FE
:1058F000211531054105510539F78FEF28C00E9468
:10590000FD292FEF8F3F9207D1F381319105F1F4FB
:105910000E94FD29EFEF8F3F9E07D1F3E82E802FE5
:105920000F2D182F09C00E94FD29FFEF8F3F9F0701
:10593000D1F3F80181938F01802F8F198E1598F381
:105940000E94FD29FFEF8F3F9F07D1F380E00F906A
:105950000F900F900F90CF91DF911F910F91FF90BB
:10596000EF9008951F93DF93CF9300D000D0CDB771
:10597000DEB7182F20E432E44FE050E029833A8369
:105980004B835C8382E10E94F52983E00E94F52924
:1059900081E40E94F52983E50E94F529812F0E9468
:1059A000F529812F87550E94F5290E94FD2929811B
:1059B0003A814B815C8121503040404050402983E6
:1059C0003A834B835C83863051F089819A81AB8125
:1059D000BC810097A105B10541F78FEF01C080E0C0
:1059E0000F900F900F900F90CF91DF911F9108951E
:1059F0001F93DF93CF9300D000D0CDB7DEB7182F21
:105A000020E432E44FE050E029833A834B835C8307
:105A100082E10E94F52983E00E94F52981E40E9439
:105A2000F52984E40E94F529812F0E94F529812F10
:105A300086560E94F5290E94FD2929813A814B81D1
:105A40005C81215030404040504029833A834B8351
:105A50005C83863051F089819A81AB81BC8100974B
:105A6000A105B10541F78FEF01C080E00F900F90C5
:105A70000F900F90CF91DF911F910895DC010D9051
:105A80000020E9F7BD0161507040681B790B0E944E
:105A90000F2A0895DC010D900020E9F76A2F681B9A
:105AA0000E940F2A08958370880F23E030E0082EAB
:105AB00002C0220F331F0A94E2F7922F9095409173
:105AC000BE02942301C0660F8A95EAF76223962BE3
:105AD0009093BE020895482F4370440F83E090E0F6
