:100000000C94C2040C941A240C94E1040C94E104A2
:100010000C94E1040C94E1040C94E1040C94E104CC
:100020000C94E1040C94BD230C94E1040C94E104C1
:100030000C94E1040C94E1040C94E1040C94392335
:100040000C9439230C94E1040C94E1040C94E10425
:100050000C94E1040C94E1040C94E1040C94E1048C
:100060000C94E1040C94E1040C94E1040C94E1047C
:100070000C94E1040C94E1040C94E1040C94E1046C
:100080000C94E1040C94E1040C94E10401150715AF
:100090000A150D1510151315191516151C151F1514
:1000A00022152B152E15311534152815FE1404159F
:1000B00037153A152515FB1408000000BE92244997
:1000C000123EABAAAA2ABECDCCCC4C3E000000808A
:1000D000BEABAAAAAA3E00000000BF000000803FFD
:1000E0000000000000084178D3BB4387D1133D19BD
:1000F0000E3CC3BD4282AD2B3E68EC8276BED98FEA
:10010000E1A93E4C80EFFFBE01C4FF7F3F0000002D
:10011000000007634236B79BD8A71A39685618AE55
:10012000BAAB558C1D3CB7CC5763BD6DEDFD753E2C
:10013000F6177231BF000000803F554E4B4F574EAF
:100140000045787465726E616C2052657365740049
:1001500042726F776E204F757420446574656374C6
:10016000004661696C656420746F20637265617418
:10017000652053656D6170686F7265004661696CDA
:10018000656420746F2063726561746520536967CC
:100190006E616C004B65726E656C2066756E637483
:1001A000696F6E206E6F7420696D706C656D656E21
:1001B0007465640044657669636520447269766598
:1001C00072204572726F72005761746368646F6762
:1001D00020526573746172740053572057617463C1
:1001E00068646F6720526573746172740054696D3E
:1001F0006572204F766572666C6F7700556E686128
:100200006E646C656420496E7465727275707420DA
:10021000566563746F72004C6F7720566F6C746113
:100220006765004578747261205461736B20737444
:1002300061727465642C206973206E726B5F6366F3
:10024000672E68206F6B3F0049646C65206F7220D9
:100250004B65726E656C20537461636B204F7665DD
:1002600072666C6F7700556E65787065637465644F
:100270002052657374617274004475706C696361B7
:10028000746564205461736B20494400536368654E
:1002900064756C6572204D69737365642057616B7A
:1002A000657570005461736B205265736572766575
:1002B0002056696F6C61746564005265736572766F
:1002C00065204572726F7220696E205363686564A1
:1002D000756C657200496E76616C69642053746157
:1002E000636B20506F696E746572005461736B208C
:1002F000537461636B204F766572666C6F77005341
:100300007461636B20776173206E6F74206465661F
:10031000696E6564206173206C6172676520656E2B
:100320006F75676821005461736B20706572696F27
:100330006420746F6F206C617267652E2050657247
:10034000696F64206D757374206265206C657373CA
:10035000207468616E203631207365636F6E64733C
:100360002E00293A20002A4E524B204552524F521D
:1003700028000D0A535441434B2044554D500D0A5B
:100380000008082A1C08081C2A080840444A514052
:1003900040514A444014741C171410207F0101007E
:1003A000000000000000000000081C2C08087F016D
:1003B000010101010101017F7F4040404040404078
:1003C000407F00000000000000000000000000006E
:1003D00000791127117900000000000000000000E2
:1003E00000000000007F01010103605048447E3E90
:1003F0004949493E700C030C706349494963017FC8
:10040000017F01635549414106017E010608557F80
:1004100055080F107F100F4E7101714E384444384B
:1004200044000000000000005F0000030003000023
:10043000143E143E1426497F493262152A5423364D
:10044000495620500003000000001C2241000041DA
:10045000221C0000140E140008083E08080060006A
:1004600000000808080800004000000060100804B0
:10047000033E4141413E04027F0000625149454232
:1004800022414949360C0B087E084F494949313E03
:100490004949493261110905033649494936264916
:1004A00049493E00220000000061000000081414C9
:1004B00022221414141414222214140806015905BB
:1004C000023E415D555E7E0909097E7F49494936F4
:1004D0003E414141227F4141413E7F494949417F5F
:1004E000090909013E414949327F0808087F000097
:1004F0007F0000204040403F7F081422417F404061
:1005000040007F0204027F7F021C207F3E41414168
:100510003E7F090909063E4151617E7F091929463E
:10052000264949493201017F01013F4040403F1FB8
:100530002040201F3F4030403F63140814630304F1
:1005400078040361514945437F41000000000000E9
:100550000000000000417F060106000040404040CE
:1005600040010200000020545454787F484848302D
:100570003844444428384444447F38545454180878
:100580007E0909010C5252523E7F04040478047D16
:10059000404020204040443D007F102844203E51F0
:1005A00049467C047C04787C08040478384444443C
:1005B000387E1212120C0C1212127E0478040408F7
:1005C0004854545424043F4444403C40403C401C64
:1005D0002040201C3C4030403C4428102844264801
:1005E00048483E4464544C4400083E410000007FAB
:1005F000000000413E080000000000000000000074
:1006000000000000000000000000000000000000EA
:1006100020483E0902000000000000000000000425
:10062000047F04040000000000000000000000003F
:1006300000000000000000000000000000000000BA
:1006400000000000000000000000000000000000AA
:10065000000000000000000000000000000000009A
:100660000204010200000000000000181800000051
:10067000000000000000000000000000000000007A
:10068000000000000000000000000000000000006A
:10069000000000000000000000000000000000005A
:1006A00000000000000000007900000000000000D1
:1006B000487E494942000000000015167C161500CE
:1006C000000000000A5555552800010001003E6356
:1006D0005D6B3E000000000008142A142200000098
:1006E000000000000000003E41754B3E0101010189
:1006F00001000205020000000000000000000000F0
:1007000000000000000000000000000000000006E3
:100710000F7F017F000000000000000000000000CB
:10072000000000070507000022142A14080F003CEF
:1007300020780F0048645800000000003048454011
:100740002000000000000000000000000000000089
:100750007229292A717825242578702A252A707E05
:10076000097F49490E5151711100000000007C546D
:10077000565544000000000000000000000000008A
:100780000000000000000000000000000000000069
:100790000000000000007A0911227900000000002A
:1007A000000000000000000000003A454546393DC9
:1007B0004242423D22140814225C322A261D0000C7
:1007C000000000000000000000000000003C41406C
:1007D000413C00000000000000000000000000009C
:1007E0000020555654782054565578205655567842
:1007F00022515556792055545578000000000024A8
:10080000547854580C525272123855565418385461
:100810005655183856555618385554551800497AB3
:10082000400000487A4100004A794200004A78427C
:100830000000000000007A11090A7130494A48306E
:1008400030484A4930304A494A303249494A3130C1
:100850004A484A3008082A080818643C26183841D3
:10086000422078384042217838424122783842404C
:100870002278000000000000000000000C515051E0
:100880003C6E616E00696E660000407A10F35A009B
:10089000A0724E18090010A5D4E80000E8764817A9
:1008A0000000E40B54020000CA9A3B000000E1F58E
:1008B00005000080969800000040420F000000A054
:1008C0008601000000102700000000E8030000007F
:1008D000006400000000000A0000000000010000A9
:1008E0000000002C76D888DC674F0823DFC1DFAE1C
:1008F00059E1B1B796E5E3E453C63AE651997696E5
:10090000E8E6C28426EB898C9B62ED407C6FFCEFAD
:10091000BC9C9F40F2BAA56FA5F490055A2AF75CDB
:10092000936B6CF9676DC11BFCE0E40D47FEF5208D
:10093000E6B500D0ED902E03009435770500808455
:100940001E080000204E0A000000C80C3333333369
:100950000F986E12831141EF8D2114893BE65516D5
:10096000CFFEE6DB18D1844B381BF77C1D901DA40D
:10097000BBE424203284725E228100C9F124ECA100
:10098000E53D270011241FBECFEFD0E1DEBFCDBF74
:1009900012E0A0E0B1E0E0EBF4E800E00BBF02C041
:1009A00007900D92A03CB107D9F715E0A0ECB2E09A
:1009B00001C01D92A33BB107E1F70E94A2050C9470
:1009C00056420C940F2380E091E00E941D400E944B
:1009D000BA1CF9CF8BE191E00E941D400E94BA1C25
:1009E000F9CF1F938AEE94E09093D9028093D802B6
:1009F0008AEF93E09093D5028093D4028AE793E044
:100A00009093D7028093D60211E01093DB021093EB
:100A1000DA021093DC021093DD021092DE021092D3
:100A2000DF021092E0021092E10280E892EBA6EE63
:100A3000BEE08093E2029093E302A093E402B093BD
:100A4000E5021092E6021092E7021092E80210927C
:100A5000E90280E890EFAAEFB2E08093EA02909377
:100A6000EB02A093EC02B093ED021092EE02109212
:100A7000EF021092F0021092F1021092F202109224
:100A8000F3021092F4021092F50283ED92E00E94BC
:100A9000061B83EE94E0909385048093840486E79C
:100AA00093E0909381048093800486EF92E090938A
:100AB00083048093820482E08093870410938604E9
:100AC000109388041093890410928A0410928B0466
:100AD00010928C0410928D0480E095E6ADECBDE19F
:100AE00080938E0490938F04A0939004B09391040C
:100AF0001092920410929304109294041092950410
:100B000080E091EEA5EFB5E0809396049093970472
:100B1000A0939804B093990410929A0410929B04A5
:100B200010929C0410929D0410929E0410929F04B7
:100B30001092A0041092A1048FE794E00E94061B7B
:100B40001F9108950E9483100E94C11160E070E01F
:100B5000CB0120E030E0A9010E94BE1E0E94F104FA
:100B60000E94881280E090E0089590E09C012B5054
:100B70003040220F331F220F331F865A9E4B820FA5
:100B8000931FF894C09828E12FB9779BFECF9FB9A7
:100B9000779BFECF8FB9779BFECFC09A789408954C
:100BA000F894C0981FB8779BFECF8FB1C09A789405
:100BB00086FFF6CF0895809150010E94B50E809176
:100BC0004F010E94FB0E0895809150010E94B50EC6
:100BD00080914F010E94B50E0895F894C09887E067
:100BE0008FB9779BFECFC09AC09886E08FB9779B6C
:100BF000FECFC09A78940895F894C09881E08FB998
:100C0000779BFECFC09A88EE93E00E94762278947C
:100C100008958091B7040895FC01C09889EC8FB9BC
:100C2000779BFECF80E88FB9779BFECF82E0815023
:100C3000DF01A80FB11D9C919FB9779BFECF882340
:100C4000B1F7C09AC0988BEC8FB9779BFECF80E844
:100C50008FB9779BFECF82E08150DF01A80FB11DD5
:100C600012969C9112979FB9779BFECF8823A1F78C
:100C7000C09A80818093B80481818093B904828175
:100C80008093BA0483818093BB0408958F929F92CE
:100C9000AF92BF92CF92DF92EF92FF920F931F938A
:100CA000DF93CF9300D000D0CDB7DEB7E82E092F69
:100CB00084E690E00E947622F02E20E031E08E0162
:100CC0000F5F1F4FF3E0CF2ED12CCC0EDD1EF701AE
:100CD00091907F018824808190E0882999299A83C6
:100CE000898384E690E02B833C830E947622C0981F
:100CF0002B813C81822F80688FB9779BFECFC90101
:100D000095958795807C8FB9779BFECF5801F80128
:100D100081918FB9779BFECFEC15FD05C9F7C09A7D
:100D20002E5F3F4FF1E020313F0789F684E690E0E7
:100D30000E94762220E431E080E191E01A8219825B
:100D4000C098422F40684FB9779BFECFA9015595B7
:100D50004795407C4FB9779BFECFF80141914FB941
:100D6000779BFECFEC15FD05C9F7C09AC098482FB8
:100D700040684FB9779BFECFAC0155954795407CB5
:100D80004FB9779BFECFF80141914FB9779BFECFCA
:100D9000EC15FD05C9F7C09A02962E5F3F4F41E062
:100DA0008E31940759F681E090E09A838983C09848
:100DB0008EEC8FB9779BFECF80E88FB9779BFECF03
:100DC000C8010296F80121912FB9779BFECFE81751
:100DD000F907C9F7C09AC0988EE98FB9779BFECF03
:100DE00080E88FB9779BFECF0E5F1F4FF501819191
:100DF0005F018FB9779BFECFA016B106B9F7C09AF5
:100E00000F900F900F900F90CF91DF911F910F9146
:100E1000FF90EF90DF90CF90BF90AF909F908F901A
:100E20000895C09889E18FB9779BFECF83E08FB991
:100E3000779BFECF86E08FB9779BFECFC09AC09894
:100E40008AE18FB9779BFECF8EE08FB9779BFECF7B
:100E50008EE08FB9779BFECFC09A81E08093A80483
:100E60000895C09889E18FB9779BFECF81E08FB953
:100E7000779BFECF84EC8FB9779BFECFC09A109200
:100E8000A80408958091A6049091A704089590E085
:100E90008F719070806E906AC09825E12FB9779B12
:100EA000FECF9FB9779BFECF8FB9779BFECFC09ABD
:100EB00008950E94B50508958091A9049091AA040F
:100EC00098609093AA048093A904C09881E18FB997
:100ED000779BFECF8091AA048FB9779BFECF80913C
:100EE000A9048FB9779BFECFC09A08958091A90479
:100EF0009091AA04977F9093AA048093A904C09824
:100F000081E18FB9779BFECF8091AA048FB9779B3F
:100F1000FECF8091A9048FB9779BFECFC09A089528
:100F200081E08093B6048091A9049091AA04806125
:100F30009093AA048093A904C09881E18FB9779B0C
:100F4000FECF8091AA048FB9779BFECF8091A90430
:100F50008FB9779BFECFC09A08951092B604809106
:100F6000A9049091AA048F7E9093AA048093A90467
:100F7000C09881E18FB9779BFECF8091AA048FB989
:100F8000779BFECF8091A9048FB9779BFECFC09A43
:100F90000895DF93CF9300D0CDB7DEB79A838983CE
:100FA0009093B2048093B10484EF91E00E94762282
:100FB000C0988AEE8FB9779BFECF80E88FB9779B78
:100FC000FECFFE013196CE01039621912FB9779B7A
:100FD000FECFE817F907C9F7C09A84EF91E00E94A5
:100FE00076220F900F90CF91DF910895CF93DF93EA
:100FF000EC01862FC09898E09FB9779BFECFC09AEE
:10100000C09898E09FB9779BFECFC09A0E94B50523
:10101000D093AC04C093AB04DF91CF910895DF92DD
:10102000EF92FF920F931F93DF93CF9300D0CDB732
:10103000DEB78C01D62E5A8349837901DD9A88EE7A
:1010400093E00E941211DE9881E090E00E9412115C
:10105000DE9A84E690E00E941211F894C09881E034
:101060008FB9779BFECFC09A82EE92E09093AA044C
:101070008093A904C09881E18FB9779BFECF8091BE
:10108000AA048FB9779BFECF8091A9048FB9779B73
:10109000FECFC09AC09882E18FB9779BFECF85E0E2
:1010A0008FB9779BFECF1FB8779BFECFC09AC098B1
:1010B0008CE18FB9779BFECF1FB8779BFECF8FE770
:1010C0008FB9779BFECFC09AC09889E18FB9779B83
:1010D000FECF81E08FB9779BFECF84EC8FB9779BF1
:1010E000FECFC09AC09887E18FB9779BFECF8AE187
:1010F0008FB9779BFECF86E58FB9779BFECFC09ADD
:1011000084EF91E00E947622C09888EE8FB9779B99
:10111000FECF80E88FB9779BFECFFE013196CE01DE
:10112000039621912FB9779BFECFE817F907C9F7EE
:10113000C09A84EF91E00E94762278948D2D0E94CF
:10114000B50578941093AC040093AB0489819A811F
:101150009093B0048093AF04F092B204E092B10493
:101160001092AD041092B3040E94D0051092B60400
:101170001092A8041092B7040F900F90CF91DF91B6
:101180001F910F91FF90EF90DF90089581E0809381
:10119000B304C09883E08FB9779BFECFC09AC09804
:1011A00088E08FB9779BFECFC09A1092BC04089557
:1011B00081E08093B304C09883E08FB9779BFECF22
:1011C000C09AC09888E08FB9779BFECFC09A1092E2
:1011D000BC0408951092B304C09886E08FB9779B41
:1011E000FECFC09A1092BC040895BF92CF92DF92B6
:1011F000EF92FF920F931F93DF93CF9300D00F9244
:10120000CDB7DEB78C016B017A010E940D23C09827
:1012100088E08FB9779BFECFC09AC09888E08FB9DD
:10122000779BFECFC09A0E99FECF8499FCCFF8949D
:10123000C09889E08FB9779BFECFC09AC09889E0AB
:101240008FB9779BFECFC09AD80112965C91129706
:10125000252F332727FD3095BB2440E00AC0D80155
:101260001396ED91FC911497E80FF91F8081B80E49
:101270004F5F842F90E0821793078CF3545FC098E0
:101280008EE38FB9779BFECF5FB9779BFECFC09A75
:10129000F8018681882319F081E698E802C081E48C
:1012A00098E89A838983C0988EE38FB9779BFECFA5
:1012B000FE013196CE01039621912FB9779BFECF87
:1012C000E817F907C9F7C09AC0988EE38FB9779BE2
:1012D000FECF8091AD048FB9779BFECFC09AC098A6
:1012E0008EE38FB9779BFECF80E090E0FC01E5555F
:1012F000FB4F24812FB9779BFECF01968230910559
:10130000A9F7C09AC0988EE38FB9779BFECF80E093
:1013100090E0F801E80FF91F20812FB9779BFECFED
:10132000019682309105A9F7C09AC0988EE38FB9D3
:10133000779BFECF80E090E0FC01E555FB4F2681D6
:101340002FB9779BFECF019682309105A9F7C09AFD
:10135000C601B7010E949922D80115968C91159764
:101360008823A9F18091B304882331F4C09883E0E5
:101370008FB9779BFECFC09AC0981FB8779BFECFDE
:101380008FB1C09A81FFF8CF20E0A5E0EA2EC09887
:10139000EFB8779BFECFC09AC0981FB8779BFECF5F
:1013A000CFB0C09A2F5F253649F478948091A60477
:1013B0009091A7040E94241980E060C084E690E028
:1013C0002B830E9412112B81C3FEE1CF06C0C0986F
:1013D00084E08FB9779BFECFC09AC0988EE38FB917
:1013E000779BFECF40E00CC0D8011396ED91FC91A5
:1013F0001497E80FF91F80818FB9779BFECF4F5F5D
:10140000842F90E0F8012281332727FD3095821741
:10141000930754F3C09AC0988EE38FB9779BFECFA1
:10142000BFB8779BFECFC09A849BFECFF894849977
:10143000FECFC09888E08FB9779BFECFC09AC09846
:1014400088E08FB9779BFECFC09AC09889E08FB9AA
:10145000779BFECFC09AC09889E08FB9779BFECF6B
:10146000C09AC09886E08FB9779BFECFC09A7894D7
:101470008091AD048F5F8093AD0481E00F900F9059
:101480000F90CF91DF911F910F91FF90EF90DF9020
:10149000CF90BF900895FF920F931F93DF93CF9348
:1014A00000D0CDB7DEB7FC018091A804882331F0CD
:1014B000C0988DE08FB9779BFECFC09A3281432FC1
:1014C000552747FD509520E060E007C0A381B48117
:1014D000A80FB91F8C91280F6F5F862F90E084179B
:1014E0009507A4F3832F845F9091A80491118C5FDA
:1014F000C09898E09FB9779BFECFC09AC09898E0BB
:101500009FB9779BFECFC09A0E99FECF8499FCCFEE
:10151000F894C09899E09FB9779BFECFC09AC09885
:1015200099E09FB9779BFECFC09AC0989EE39FB980
:10153000779BFECF8FB9779BFECFC09A81E498E866
:101540009A8389838091B604882321F081E698E804
:101550009A8389838091A804882329F089819A81BC
:1015600088609A838983C0988EE38FB9779BFECF7A
:10157000DE011196CE0103963D913FB9779BFECFD8
:10158000A817B907C9F7C09AC0988EE38FB9779B9F
:10159000FECF8091AD048FB9779BFECFC09AC098E3
:1015A0008EE38FB9779BFECF80E090E0DC01A555FC
:1015B000BB4F14963C9114973FB9779BFECF019691
:1015C0008230910599F7C09AC0988EE38FB9779BC6
:1015D000FECF80E090E0DF01A80FB91F3C913FB93A
:1015E000779BFECF019682309105A9F7C09AC098EB
:1015F0008EE38FB9779BFECF80E090E0DC01A555AC
:10160000BB4F16963C9116973FB9779BFECF01963C
:101610008230910599F7C09A8091A804882381F0BF
:10162000C0988EE38FB9779BFECFA8EBB4E08D9185
:101630008FB9779BFECF84E0AC3BB807C1F7C09A67
:10164000C0988EE38FB9779BFECF30E009C0A381AD
:10165000B481A80FB91F8C918FB9779BFECF3F5FE4
:10166000832F90E04281552747FD509584179507B9
:1016700074F3C09AC0988EE38FB9779BFECF2FB9D1
:10168000779BFECFC09A8581882391F18091B30426
:10169000882331F4C09883E08FB9779BFECFC09A3E
:1016A000C0981FB8779BFECF8FB1C09A81FFF8CF4B
:1016B00010E005E0C0980FB9779BFECFC09AC098A4
:1016C0001FB8779BFECFFFB0C09A1F5F153649F455
:1016D00078948091A6049091A7040E94241980E038
:1016E00043C084E690E00E941211F3FEE3CF06C0EF
:1016F000C09884E08FB9779BFECFC09A7894849B82
:10170000FECF8499FECF8091B6048823F9F084EA55
:1017100092E00E941211B79B0BC0C0988FE78FB95F
:10172000779BFECF1FB8779BFECF8FB1C09A0EC0BC
:10173000C09888E08FB9779BFECFC09AC09888E0A8
:101740008FB9779BFECFC09A80E001C081E0F8940A
:10175000C09896E09FB9779BFECFC09A78949091FD
:10176000AD049F5F9093AD040F900F90CF91DF91E8
:101770001F910F91FF90089581E0849B80E0089570
:1017800081E00E9B80E0089581E0849B80E00895D5
:10179000DF93CF9300D000D0CDB7DEB70E9BC7C18B
:1017A0001092B7040E9B1AC0B79918C0C0988FE763
:1017B0008FB9779BFECF1FB8779BFECF8FB1C09AB2
:1017C000C09888E08FB9779BFECFC09AC09888E018
:1017D0008FB9779BFECFC09A8FEFAAC1C0988FE7D1
:1017E0008FB9779BFECF1FB8779BFECF4FB1C09AC2
:1017F0004F77C1F4C0988FE78FB9779BFECF1FB8A2
:10180000779BFECF8FB1C09AC09888E08FB9779B45
:10181000FECFC09AC09888E08FB9779BFECFC09A60
:101820008EEF86C14C3084F0E091AB04F091AC04B3
:10183000842F992787FD90950B972481332727FDC7
:101840003095281739077CF5C0988FE78FB9779BBB
:10185000FECF50E0842F992787FD909504C01FB8D4
:10186000779BFECF5F5F252F30E02817390714F4F0
:10187000B799F5CFC09AC0988FE78FB9779BFECF05
:101880001FB8779BFECF8FB1C09AC09888E08FB900
:10189000779BFECFC09AC09888E08FB9779BFECF28
:1018A000C09A8DEF45C1E091AB04F091AC044C506F
:1018B0004383C0988FE78FB9779BFECFFE013196A7
:1018C000CE0103961FB8779BFECF2FB12193E81767
:1018D000F907C1F7C09AE091AB04F091AC0499818B
:1018E00081E095FF80E08783C0988FE78FB9779B71
:1018F000FECF1FB8779BFECFE091AB04F091AC0414
:101900008FB18083C09AC0988FE78FB9779BFECF45
:1019100084E005C01FB8779BFECF815011F0B799C6
:10192000F9CFC09AC0988FE78FB9779BFECF80E040
:1019300090E01FB8779BFECFE091AB04F091AC0430
:101940002FB1E80FF91F218301968230910589F7A5
:10195000C09A898183FF4DC0C0988FE78FB9779B6C
:10196000FECFE2EAF4E01FB8779BFECF8FB1819300
:1019700084E0E63AF807B9F7C09AC09889E98FB9C8
:10198000779BFECF80E88FB9779BFECF82E08150B6
:10199000E82FF0E0EE55FB4F90819FB9779BFECF8B
:1019A0008823A9F7C09AC0988BE98FB9779BFECF9F
:1019B00080E88FB9779BFECF82E08150E82FF0E07E
:1019C000EC55FB4F90819FB9779BFECF8823A9F7F9
:1019D000C09AC0988CE08FB9779BFECFC09A81E007
:1019E0008093B704E091AB04F091AC048381845000
:1019F0008383C0988FE78FB9779BFECF40E00FC0FD
:101A00001FB8779BFECFE091AB04F091AC048FB18F
:101A10000580F681E02DE40FF11D80834F5FE0919A
:101A2000AB04F091AC04242F30E08381992787FD2B
:101A300090952817390724F3C09AC0988FE78FB97B
:101A4000779BFECF1FB8779BFECF6FB1C09AC0982F
:101A50008FE78FB9779BFECFFE013396CE010596B7
:101A60001FB8779BFECF2FB12193E817F907C1F775
:101A7000C09AE091AB04F091AC048B81808750E078
:101A800040E00CC0E091AB04F091AC040580F6811D
:101A9000E02DE80FF91F8081480F5F5FE091AB04F4
:101AA000F091AC04852F90E02381332727FD3095FA
:101AB000821793073CF34617C1F0C0988FE78FB9A0
:101AC000779BFECF1FB8779BFECF8FB1C09AC0988F
:101AD00088E08FB9779BFECFC09AC09888E08FB915
:101AE000779BFECFC09A8CEF23C08C8187FF07C005
:101AF0008091BC048F5F8093BC0481E019C0C098C2
:101B00008FE78FB9779BFECF1FB8779BFECF8FB142
:101B1000C09AC09888E08FB9779BFECFC09AC098D2
:101B200088E08FB9779BFECFC09A8BEF01C080E031
:101B30000F900F900F900F90CF91DF9108958091AB
:101B4000BC04882329F08091BC041092BC04089541
:101B500080E00895C09888E08FB9779BFECFC09A47
:101B6000C09888E08FB9779BFECFC09A08959927D7
:101B700087FD9095982F88278068C09823E12FB91A
:101B8000779BFECF9FB9779BFECF8FB9779BFECF18
:101B9000C09A0895C09886E08FB9779BFECFC09A0F
:101BA000C09882E18FB9779BFECF85E08FB9779B94
:101BB000FECF88E08FB9779BFECFC09AC0988EE2A7
:101BC0008FB9779BFECF88E18FB9779BFECF1FB887
:101BD000779BFECFC09A0E94AA0D0895C09886E018
:101BE0008FB9779BFECFC09AC09882E18FB9779B5F
:101BF000FECF85E08FB9779BFECF1FB8779BFECFD6
:101C0000C09AC0988EE28FB9779BFECF1FB8779BA2
:101C1000FECF1FB8779BFECFC09A0E94AA0D0895F1
:101C2000C09886E08FB9779BFECFC09AC09882E1BA
:101C30008FB9779BFECF85E08FB9779BFECF81E090
:101C40008FB9779BFECFC09A0E94AA0D0895C098C5
:101C500082E18FB9779BFECF85E08FB9779BFECF6E
:101C600084E08FB9779BFECFC09A0E94AA0D089599
:101C700090E08F7090702091A9043091AA04207F89
:101C8000822B932B9093AA048093A904C09881E19E
:101C90008FB9779BFECF8091AA048FB9779BFECF37
:101CA0008091A9048FB9779BFECFC09A089590E0E8
:101CB00026E0880F991F2A95E1F790702091A904DA
:101CC0003091AA042F73822B932B9093AA048093B4
:101CD000A904C09881E18FB9779BFECF8091AA04B7
:101CE0008FB9779BFECF8091A9048FB9779BFECFE8
:101CF000C09A0895C09884E08FB9779BFECFC09AB0
:101D00000895C09886E08FB9779BFECFC09A08955A
:101D10005F9BFECF5F988CB108955D9BFECF5D9871
:101D20008CB908958FEF0895882311F48BB104C006
:101D3000813031F480919B00881F8827881F089587
:101D400080E00895CF93DF93EC0107C06091AB056D
:101D50007091AC0590E00E94DF3FFE0121968491D6
:101D60008823A1F7DF91CF9108958F3F09F43FC0F9
:101D7000982F96959695969521E030E002C0220F17
:101D8000331F9A95E2F790E087709070823091054A
:101D9000D9F08330910534F4009771F081309105CA
:101DA00041F50EC084309105C1F0843091058CF06E
:101DB00085309105F1F415C08BB3822B8BBB07C026
:101DC00088B3822B88BB03C085B3822B85BB81E09F
:101DD000089582B3822B82BBFACF83B1822B83B961
:101DE000F6CF80916200822B80936200F0CF8FEF5C
:101DF00008958FEF08958F3F09F440C0982F96956E
:101E00009695969521E030E002C0220F331F9A95F7
:101E1000E2F7209590E08770907082309105D9F0BC
:101E20008330910534F4009771F08130910541F5CC
:101E30000EC084309105C1F0843091058CF085305E
:101E40009105F1F415C08BB382238BBB07C088B317
:101E5000822388BB03C085B3822385BB81E00895BC
:101E600082B3822382BBFACF83B1822383B9F6CFB8
:101E700080916200822380936200F0CF8FEF0895FB
:101E80008FEF08958F3F89F1282F30E02770307051
:101E900022303105C1F0233031053CF421153105E4
:101EA00071F02130310509F50CC02430310579F08D
:101EB0002430310554F025303105B9F40AC029B376
:101EC00009C026B307C023B305C020B303C021B1A6
:101ED00001C020B130E086958695869502C0359583
:101EE00027958A95E2F7217001C02FEF822F089580
:101EF000882319F080B58B7F02C080B5846080BDD7
:101F000081E008958F3F09F43FC0982F96959695EC
:101F1000969521E030E002C0220F331F9A95E2F738
:101F200090E08770907082309105D9F083309105F0
:101F300034F4009771F08130910541F50EC0843082
:101F40009105C1F0843091058CF085309105F1F454
:101F500015C08BB382278BBB07C088B3822788BB91
:101F600003C085B3822785BB81E0089582B38227B1
:101F700082BBFACF83B1822783B9F6CF809162000A
:101F8000822780936200F0CF8FEF08958FEF08953E
:101F90008F3F09F48CC0982F96959695969521E0E1
:101FA00030E002C0220F331F9A95E2F790E06623DB
:101FB00009F04AC0322F30958770907082309105B9
:101FC00019F1833091053CF4009781F0813091053F
:101FD00009F06DC012C08430910521F18430910563
:101FE000D4F08530910509F062C023C08AB3832301
:101FF0008ABB8BB3822B8BBB58C087B3832387BB31
:1020000088B3822B88BB51C084B3832384BB85B340
:10201000822B85BB4AC081B3832381BB82B3822BD1
:1020200082BB43C082B1832382B983B1822B83B93F
:102030003CC08091610083238093610080916200A5
:10204000822B8093620031C087709070823091053E
:10205000D9F08330910534F4009771F08130910507
:1020600041F50EC084309105B9F08430910584F0BB
:1020700085309105F1F414C08AB3822B8ABB15C058
:1020800087B3822B87BB11C084B3822B84BB0DC066
:1020900081B3822B81BB09C082B1822B82B905C07A
:1020A00080916100822B8093610081E008958FEF21
:1020B00008958FEF08958FEF0895009711F480E051
:1020C00009C08130910511F488E004C08230910587
:1020D00029F480E10E94820F81E008958FEF089536
:1020E000009711F480E009C08130910511F488E077
:1020F00004C08230910529F480E10E94B50E81E090
:1021000008958FEF089580B5846080BD87E087BB18
:1021100088BB8FEF84BB15BA82E082B987E68ABBA1
:1021200080E48BBB80E58DB981E08EB980E090E0E2
:102130000E94701081E090E00E94701082E090E0B8
:102140000E94701083E090E00E9470100895009744
:1021500011F480E009C08130910511F488E004C0D9
:102160008230910529F480E10E94FB0E81E0089500
:102170008FEF089590919B0095FFFCCF90919B006D
:102180009F7D90939B0080939C0008959093900076
:1021900089B986E0809395005298599A8AB18861EE
:1021A0008AB908950F931F93CF93DF930E94C610AF
:1021B000CDE8DEE008E81EE0CE01B8010E94523F03
:1021C0009093AC058093AB05CE01B8010E94523FBD
:1021D0009093AA058093A905DF91CF911F910F914C
:1021E0000895909398008093990086E080939D00D5
:1021F000EAE9F0E080818B7F8083ABE9B0E08C91ED
:1022000082608C93808188618083089580919B0097
:1022100087FFFCCF80919B008F7780939B008091FC
:102220009C00089500000000000000000197D1F715
:1022300008950E94E24008950E94EA4080E00895D7
:10224000EF92FF920F931F93CF93DF93E82EE70156
:102250007E01F92EE70180E090E00E94E240082F25
:102260008B8381E090E00E94E240E82E8A8382E046
:1022700090E00E94E240F82E898383E090E00E9483
:10228000E240182F888384E090E00E94E240FE0C38
:10229000F00EF10E8F1511F481E001C08FEFDF9188
:1022A000CF911F910F91FF90EF900895CF93DF93FF
:1022B000EC0185E090E00E94E240888381E0DF91BC
:1022C000CF910895FC0186E090E060810E94EA4091
:1022D00081E00895CF93DF93EC0186E090E00E94C7
:1022E000E240888381E0DF91CF9108950F931F939F
:1022F000CF93DF93082F192FC8E0D0E0CE010E94C2
:10230000E240F80181938F012196C831D105B1F7E0
:1023100081E0DF91CF911F910F9108950F931F934B
:10232000CF93DF93082F192FC8E0D0E0F801619117
:102330008F01CE010E94EA402196C831D105B1F744
:1023400081E0DF91CF911F910F910895CF93DF939B
:10235000EC0187E090E00E94E240888381E0DF9119
:10236000CF910895FC0187E090E060810E94EA40EF
:1023700081E00895F8940895789408950E94BA1120
:10238000FFCF0F931F93DF93CF93CDB7DEB7A39704
:102390000FB6F894DEBF0FBECDBF0E940C1780931E
:1023A0006A058F3F21F48EE060E00E9494150E9440
:1023B000EF2380FF04C086E060E00E9494150E9435
:1023C0005F248F3F31F40E94442480E160E00E944A
:1023D00094150E94512410926D0510927B05109265
:1023E0007A0510926C0510926B0510927C05109284
:1023F00079058FEF80936605809368058093670564
:1024000093E69093C9048093C7049093EA04809361
:10241000E80490930B058093090590932C05809315
:102420002A0590934D0580934B05E0E8F5E020E008
:1024300030E001C09A01A9014F5F5F4FCA01880FC8
:10244000991F880F991F840F951F83589A4F918366
:102450008083C901880F991F880F991F820F931FCE
:1024600083589A4F9483838335964530510511F7ED
:1024700010927F0510927E0510929A051092990590
:102480001092700510926F058DE795E09093BE0451
:102490008093BD048E010F5F1F4FC8016EE170E293
:1024A0000E946924C8016FEF73E040E850E00E9489
:1024B000AF2485E58093FF0319861C861D861E8642
:1024C0001F86188A198A1A8A1B8A1C8A1D8A1E8AE4
:1024D0001F8A188E198E1A8E1B8E1C8E1D8E1E8EB4
:1024E0001F8E18A219A21AA21BA281E0888792E06F
:1024F0009A878B87C8010E94061BA3960FB6F89493
:10250000DEBF0FBECDBFCF91DF911F910F91089518
:10251000CF92DF92FF920F931F93DF93CF9300D060
:10252000CDB7DEB7B7ECCB2EB4E0DB2E90E0F601F2
:10253000F080FF2DFF3FB1F007EC14E020E0921790
:1025400061F0F8018081F81641F485E06F2D298350
:102550009A830E9494159A8129812F5F0F5D1F4FE6
:10256000253069F79F5F21E230E0C20ED31E95301F
:10257000F1F60E94F419992787FD9095FC01A5E0DA
:10258000EE0FFF1FAA95E1F7E80FF91FE154FB4F8B
:10259000828580937C05F0937B05E0937A05F09328
:1025A0006C05E0936B0580936D050E94E4240E9406
:1025B000D5240E943130FFCFEF92FF920F931F93EB
:1025C000CF93DF93EC017B018A018985823021F072
:1025D00080916905888301C01882809169058530E2
:1025E00020F087E060E00E9494158985823029F010
:1025F000809169058F5F80936905809169058823C3
:1026000019F481E0809369058881992787FD909569
:10261000FC01A5E0EE0FFF1FAA95E1F7E80FF91FF7
:10262000E154FB4FF182E082888582878881992777
:1026300087FD9095FC0175E0EE0FFF1F7A95E1F79D
:10264000E80FF91FE154FB4F83E081872881822F37
:10265000992787FD9095FC0165E0EE0FFF1F6A95B5
:10266000E1F7E80FF91FE154FB4F20878881992794
:1026700087FD90957C0155E0EE0CFF1C5A95E1F723
:10268000E80EF91E8FEB94E0E80EF91EF7011582B3
:10269000CE010B960E94CF1EF701948F838F8B85FE
:1026A0009C85AD85BE858E339105A105B10520F0D1
:1026B00086E168810E949415E880FF24E7FCF0948D
:1026C000CE014B960E94CF1EF70145E0EE0FFF1F93
:1026D0004A95E1F7EE0DFF1DE154FB4F968B858B7C
:1026E0008881992787FD90957C0135E0EE0CFF1CD1
:1026F0003A95E1F7E80EF91E8FEB94E0E80EF91E2B
:10270000F70185899689238D348D820F931F908FD1
:10271000878BCE0143960E94CF1EF701968F858F3F
:102720008881992787FD9095FC0125E0EE0FFF1F1A
:102730002A95E1F7E80FF91FE154FB4F858D968D3F
:10274000928F818F81E090E090A3878F1383028323
:1027500081E08487DF91CF911F910F91FF90EF90DF
:1027600008950E943920089585E690E00895E0914B
:102770007A05F0917B0584870895E0917A05F091C0
:102780007B05848508952091FE03222341F0FB01FF
:1027900020832091D102FC01208381E0089580E014
:1027A0000895DF93CF930F92CDB7DEB7198207C09C
:1027B00080ED97E00E94762289818F5F89838981ED
:1027C0008436B0F30F90CF91DF91089581E090E0CF
:1027D0000E94A7100E94D11381E090E00E94701027
:1027E0000E94D113089581E090E00E94A7100E94FA
:1027F000D1130E94D1130E94D11381E090E00E9476
:1028000070100E94D1130895FF920F931F93DF93CE
:10281000CF9300D00F92CDB7DEB700D000D000D05C
:10282000EDB7FEB731968E010F5F1F4FADB7BEB744
:1028300012961C930E93119729E531E0338322837E
:10284000848315820E945440EDB7FEB736960FB6CA
:10285000F894FEBF0FBEEDBFFF2472C0800F911F22
:10286000DC018C918433D1F1853370F48133F9F03C
:10287000823320F4803309F05CC016C0823311F13A
:10288000833309F056C023C08733C9F1883330F44D
:10289000853369F1863309F04CC02CC08833B1F11F
:1028A000893309F046C03BC00E94F31302C00E9466
:1028B000E6130E94F3130E94F3130E94F3130E9485
:1028C000F31337C00E94E6130E94E613F4CF0E9470
:1028D000E6130E94E6130E94E613EFCF0E94E61370
:1028E0000E94E6130E94E6130E94E613E8CF0E94BE
:1028F000E61302C00E94F3130E94E61304C00E9474
:10290000F3130E94F3130E94E61306C00E94F31310
:102910000E94F3130E94F3130E94E61308C00E9462
:10292000F3130E94F3130E94F3130E94F3130E9407
:10293000E6130E94D1130E94D1130E94D113F39485
:10294000F80101900020E9F73197E01BF10B8F2D82
:1029500090E08E179F0708F481CF0F900F900F9093
:10296000CF91DF911F910F91FF9008950F931F93C7
:102970008091FE03882319F41F910F9108950E94FE
:10298000BA110E9444240E94BA1186E693E00E9484
:10299000A20E00D000D0EDB7FEB7319689E591E0E8
:1029A000ADB7BEB712969C938E9311978091D102CA
:1029B000828313820E940B400F900F900F900F9014
:1029C00082E693E00E94A20E8091FE03883110F00F
:1029D0001092FE038091FE0390E0019786319105ED
:1029E00008F04BC08A5B9F4FFC01EE0FFF1F059064
:1029F000F491E02D099486E293E041C08FEF92E0DC
:102A00003EC08BEE92E03BC085ED92E038C08AEB91
:102A100092E035C084EA92E032C08CE892E02FC0A8
:102A200089E792E02CC086E692E029C088E492E033
:102A300026C083E292E023C087E192E020C08CEFC1
:102A400091E01DC08DEE91E01AC089ED91E017C0B4
:102A500088EC91E014C084EB91E011C084E991E02E
:102A60000EC08CE791E00BC081E691E008C080E5E4
:102A700091E005C081E491E002C08AE391E00E9408
:102A8000A20E6091AB057091AC058DE090E00E94C4
:102A9000DF3F6091AB057091AC058AE090E00E9449
:102AA000DF3F10E01FC082E090E00E94A71083E0AB
:102AB00090E00E94701004E688EE93E00E94762277
:102AC0000150D1F783E090E00E94A71082E090E0EF
:102AD0000E94701004E688EE93E00E947622015076
:102AE000D1F71F5F1431FCF283E090E00E94701078
:102AF00082E090E00E9470108091D1020E94041444
:102B00000E94D11382E090E00E94A7100E94D1138E
:102B100082E090E00E9470100E94D1138091FE0329
:102B20000E94041410E0BFCFEF92FF920F931F9307
:102B3000182FE62E8093FE036093D1020E94B614F4
:102B400000E021C082E090E00E94A71083E090E0C6
:102B50000E94701094E6F92E88EE93E00E9476228F
:102B6000FA94D1F783E090E00E94A71082E090E011
:102B70000E94701084E6F82E88EE93E00E94762280
:102B8000FA94D1F70F5F0431E8F283E090E00E94FD
:102B9000701082E090E00E9470108E2D0E9404144C
:102BA000812F0E94041400E0CDCF8093FE03E091BA
:102BB0007A05F0917B0580858093D1020E94B6143E
:102BC00008956F927F928F929F92AF92BF92CF9211
:102BD000DF92EF92FF920F931F93CF93DF9382E7E1
:102BE00093E00E94A20E00D000D08CE591E0ADB73A
:102BF000BEB712969C938E931197E0917A05F0914F
:102C00007B058085992787FD909514969C938E93DC
:102C100013970E940B40E0917A05F0917B05C281E9
:102C2000D38185E691E0EDB7FEB792838183D483AB
:102C3000C3830E940B40EDB7FEB7319662E7E62EE4
:102C400061E0F62EADB7BEB71296FC92EE921197E8
:102C50008881828313820E940B405FE7C52E51E07A
:102C6000D52EEDB7FEB7D282C182E0917A05F09100
:102C70007B0580819181ADB7BEB714969C938E93EE
:102C800013970E940B4049E8A42E41E0B42EEDB703
:102C9000FEB7B282A18280917A0590917B059483E0
:102CA00083830E940B400FEB14E00F900F900F9066
:102CB0000F90C0E0D0E039E9632E31E0732E470178
:102CC000C601DC2CC92EC501BA2CA92ED80112963A
:102CD000ED90FC90139700D000D000D0EDB7FEB778
:102CE0003196ADB7BEB712967C926E921197D38390
:102CF000C283F582E4820E940B400F900F90EDB7E3
:102D0000FEB73196ADB7BEB711968C921197129659
:102D10009C92D7018C91828313820E940B40EDB765
:102D2000FEB7D182C282D8018D919C919483838316
:102D30000E940B40EDB7FEB7B182A282CE0125E022
:102D4000880F991F2A95E1F78C0F9D1F81549B4F87
:102D5000948383830E940B4021960F5D1F4F0F9039
:102D60000F900F900F90C530D10509F0AFCFDF91D4
:102D7000CF911F910F91FF90EF90DF90CF90BF9078
:102D8000AF909F908F907F906F900895CF93DF9337
:102D9000E0917A05F0917B05C281D38188818535E8
:102DA00039F00E94E11581E00E94D51585E5888300
:102DB000E0917A05F0917B058081918121E180305D
:102DC000920728F00E94E11582E10E94D515DF915B
:102DD000CF910895992787FD9095FC0175E0EE0F3E
:102DE000FF1F7A95E1F7E80FF91FE154FB4FA2812D
:102DF000B3818C91853519F085E58C9309C080816C
:102E0000918121E18030920728F082E10E94D5155E
:102E10008FEF089581E008956091760370917703B4
:102E20008091780390917903E0E0F0E09B01AC01A0
:102E30000E2E04C056954795379527950A94D2F7DC
:102E400020FD1AC021E030E040E050E00E2E04C02A
:102E5000220F331F441F551F0A94D2F7262B372BFE
:102E6000482B592B209376033093770340937803B4
:102E7000509379038E2F08953196E032F105B1F623
:102E80008FEF0895E0917A05F0917B056585768551
:102E9000878590890895DF92EF92FF920F931F9399
:102EA000D82E81E0E82EF12C012D112D0D2C04C01F
:102EB000EE0CFF1C001F111F0A94D2F780917603BD
:102EC00090917703A0917803B09179038E219F218F
:102ED000A023B1230097A105B10509F45DC00E94AC
:102EE000BA11E6ECF4E0A8019701209530954095E1
:102EF000509563E081818F3F39F186819781A0856C
:102F0000B1858E159F05A007B10731F4128613868F
:102F1000148615861082628386819781A085B1858B
:102F200082239323A423B52386839783A087B18725
:102F300082859385A485B58582239323A423B52315
:102F400082879387A487B587B19685E0EB36F8072B
:102F500089F62EEF3FEF4FEF5FEF04C0220F331FD4
:102F6000441F551FDA94D2F780917603909177032E
:102F7000A0917803B091790382239323A423B523EE
:102F80008093760390937703A0937803B0937903AB
:102F90000E94BC1181E001C08FEF1F910F91FF9043
:102FA000EF90DF900895EF92FF920F931F9321E02F
:102FB00030E040E050E004C0220F331F441F551F93
:102FC0008A95D2F7E0917A05F0917B058585968503
:102FD000A785B08979018A01E822F9220A231B23F7
:102FE000E114F10401051105D1F0209530954095CB
:102FF000509582239323A423B52385879687A7879B
:10300000B08B81899289A389B48982239323A423D5
:10301000B523818B928BA38BB48B81E001C08FEFA2
:103020001F910F91FF90EF900895209176033091BA
:1030300077034091780350917903082E04C0569588
:103040004795379527950A94D2F72170307021154E
:103050003105E9F0E0917A05F0917B0521E030E05F
:1030600040E050E004C0220F331F441F551F8A95D3
:10307000D2F785859685A785B089822B932BA42BC3
:10308000B52B85879687A787B08B81E008958FEF52
:103090000895EF92FF920F931F93DF93CF930F92B8
:1030A000CDB7DEB791E0E92EF12C012D112D04C032
:1030B000EE0CFF1C001F111F8A95D2F7809176033A
:1030C00090917703A0917803B09179038E219F218D
:1030D000A023B1230097A105B10511F481E03FC001
:1030E0000E94BA11E6ECF4E020E033E08081813008
:1030F000A9F482859385A485B5858E219F21A0237F
:10310000B1230097A105B10549F0328317861686D1
:103110001082E286F3860487158721E08081823061
:1031200091F482859385A485B5858E159F05A007AA
:10313000B10749F4328317861686108212861386E9
:103140001486158621E0B19685E0EB36F80771F616
:1031500029830E94BC112981222329F482E00E9444
:10316000B7138FEF01C081E00F90CF91DF911F91D6
:103170000F91FF90EF900895E0917A05F0917B0513
:1031800025853685478550892623372348235923AB
:10319000211531054105510521F1618B728B838B1E
:1031A000948B21E0278300906A0504C0969587954B
:1031B000779567950A94D2F7617070706115710503
:1031C00019F00E94F41B04C080E090E00E941B1CD8
:1031D000E0917A05F0917B052189328943895489F0
:1031E00003C020E030E0A901B901CA01089580E0E0
:1031F00090E0089525E08636920711F480E0089566
:103200008FEF08950E94FA188F3F11F481E003C0F8
:10321000813029F482E00E94B7138FEF0895992737
:1032200087FD9095FC01EE0FFF1FE80FF91FEA598B
:10323000FA4F8FEF8083828381838091790581505B
:103240008093790581E008950F931F93DF93CF93C7
:103250000F92CDB7DEB70E94FA188F3F11F481E0CC
:1032600003C0813029F482E00E94B7138FEF43C07E
:10327000282F332727FD30958901000F111F020FDA
:10328000131F0A591A4FD80112962C9112979C912C
:10329000291784F589830E94BA11F80192819F5FF2
:1032A0009283E0917A05F0917B051482E6ECF4E0DC
:1032B0008981992787FD9095A92FB92F63E02081F7
:1032C000223089F4228533854485558528173907AE
:1032D0004A075B0741F462831786168610821286BE
:1032E000138614861586B19625E0EB36F20739F77A
:1032F0000E94BC1181E00F90CF91DF911F910F913F
:1033000008950F931F93DF93CF930F92CDB7DEB73E
:103310000E94FA188F3F11F481E003C0813029F434
:1033200082E00E94B7138FEF40C089830E94BA11D8
:103330008981082F112707FD1095F801EE0FFF1F57
:10334000E00FF11FEA59FA4F92819923B1F4E0910D
:103350007A05F0917B05978192609783992787FD85
:103360009095A92FB92F818B928BA38BB48B0E9440
:10337000BC1180E090E00E941B1CF801EE0FFF1FC3
:10338000E00FF11FEA59FA4F828181508283A091A8
:103390007A05B0917B0581811B968C931B9781E008
:1033A00014968C930E94BC1181E00F90CF91DF9115
:1033B0001F910F9108950E94FA188F3F11F481E038
:1033C00003C0813029F482E00E94B7138FEF089583
:1033D000992787FD9095FC01EE0FFF1FE80FF91F5D
:1033E000EA59FA4F82810895E0916F05F0917005D6
:1033F00080810895E0916F05F091700503C003800E
:10340000F481E02D3097D9F70895DF92EF92FF9283
:103410000F931F93CF93DF93E091BD04F091BE040F
:10342000309709F49BC040916F055091700541158C
:10343000510509F457C0DA01682F772767FD7095A9
:103440009B0115E0220F331F1A95E1F7260F371F56
:1034500021543B4FB901665F7F4F89010C5F1F4FBD
:103460009BE0E92EF12CE20EF31E2C9130E0E901F5
:1034700095E0CC0FDD1F9A95E1F7C20FD31FC15421
:10348000DB4F9C81992329F0DB84EB019881D916CD
:1034900058F1E8019881992379F0E90195E0CC0F82
:1034A000DD1F9A95E1F7C20FD31FC154DB4FDA84B9
:1034B000E7019881D916C0F0E90195E0CC0FDD1F36
:1034C0009A95E1F7C20FD31FC154DB4F2A85EB0158
:1034D0009881291748F013960D90BC91A02D109754
:1034E00021F602C0A0E0B0E08083C381D481D093F4
:1034F000BE04C093BD04A417B507B1F4109749F0FA
:10350000B483A383128211821296FC93EE931197D7
:1035100006C01482138212821182FA83E983F09327
:103520007005E0936F051AC011968D919C911297CA
:10353000AC17BD0759F092838183B483A38311969E
:10354000CD91DC911297FC83EB8304C0148213822B
:10355000928381831296FC93EE931197DF91CF9122
:103560001F910F91FF90EF90DF900895CF93DF931D
:10357000E0916F05F0917005309709F444C09927E8
:1035800087FD9095208130E02817390781F4A381C9
:10359000B481B0937005A0936F0512961C921E9291
:1035A000119718C00380F481E02D309761F12081DC
:1035B00030E028173907B1F7C181D2818381948126
:1035C0009C838B83A381B481109721F01296DC93A6
:1035D000CE931197A091BD04B091BE04109739F419
:1035E000F093BE04E093BD04148213820AC0B48336
:1035F000A3831296FC93EE931197F093BE04E0938D
:10360000BD0412821182DF91CF910895EF92FF9253
:103610000F931F93CF93DF93EC0169817A814B81E4
:103620005C818D819E810E948424BC018F818823CE
:1036300069F04B815C81CE0120E030E000E010E0D9
:10364000EE24FF240E94DC121F8213C08881992778
:1036500087FD9095FC0125E0EE0FFF1F2A95E1F70D
:10366000E80FF91FE154FB4F81858330D1F471835A
:1036700060838881992787FD9095FC0105E0EE0F16
:10368000FF1F0A95E1F7E80FF91FE154FB4F858909
:103690009689009741F482E0818788810E94051A0B
:1036A00002C08FEF01C081E0DF91CF911F910F9198
:1036B000FF90EF9008951F93DF93CF93CDB7DEB7C0
:1036C00028970FB6F894DEBF0FBECDBF29833A838B
:1036D0004B835C836D837E838F8398870E94BA11AE
:1036E0000E940D23182FCE0101960E94CF1E9C012F
:1036F0008330910560F0E0917A05F0917B05210F10
:10370000311D368B258B0E94BC1181E001C08FEFEB
:1037100028960FB6F894DEBF0FBECDBFCF91DF91D4
:103720001F9108950E947924E0917A05F0917B051C
:1037300085818823B9F70895FF920F931F93DF9334
:10374000CF93CDB7DEB728970FB6F894DEBF0FBE84
:10375000CDBF29833A834B835C836D837E838F83C4
:1037600098870E94C6160E94BA11E0917A05F091DE
:103770007B0581E0858381E090E090A3878F0E94A4
:103780000D23F82ECE0101960E94CF1EE0917A05FE
:10379000F0917B050F2D10E09801280F391F368B13
:1037A000258B8F2D883F78F40E9407230F5F1F4FD2
:1037B000282F30E00217130734F48F2D8E5F80938B
:1037C000FD030E940A230E94BC110E94921B81E00B
:1037D00028960FB6F894DEBF0FBECDBFCF91DF9114
:1037E0001F910F91FF9008951F930E94BA11E091CD
:1037F0007A05F0917B0581E0858386830E940D2305
:10380000182F883F88F40E940723212F30E02F5F74
:103810003F4F482F50E02417350734F4812F8E5F37
:103820008093FD030E940A230E94BC110E94921BF8
:1038300081E01F9108951F93CF93DF93EC010E94C5
:10384000BA11E0917A05F0917B0581E08583D68BF2
:10385000C58B0E940D23182F883F88F40E940723F0
:10386000212F30E02F5F3F4F482F50E024173507BE
:1038700034F4812F8E5F8093FD030E940A230E94FF
:10388000BC110E94921B81E0DF91CF911F9108959E
:10389000EF92FF920F931F93DF93CF930F92CDB7C9
:1038A000DEB78C010E94BA11E0917A05F0917B0598
:1038B00081E085830E940D23E0917A05F0917B05DC
:1038C000E82EFF240E0D1F1D168B058B883F90F4EC
:1038D00089830E9407230894E11CF11C282F30E003
:1038E0009981E216F30634F4892F8E5F8093FD03ED
:1038F0000E940A230E94BC110E94921B81E00F903B
:10390000CF91DF911F910F91FF90EF9008951F933A
:10391000CF93DF93EC010E94C616209711F4C1E00B
:10392000D0E00E94BA11E0917A05F0917B0581E028
:103930008583D0A3C78F0E940D23182F883F88F45A
:103940000E940723212F30E02F5F3F4F482F50E088
:103950002417350734F4812F8E5F8093FD030E9476
:103960000A230E94BC110E94921B81E0DF91CF913B
:103970001F9108951F930E94C6160E94BA11E091EC
:103980007A05F0917B0581E090E090A3878F81E03C
:1039900085830E940D23182F883F88F40E940723F7
:1039A000212F30E02F5F3F4F482F50E0241735077D
:1039B00034F4812F8E5F8093FD030E940A230E94BE
:1039C000BC110E94921B81E01F910895E0917A053D
:1039D000F0917B0580850E94B61AE0917A05F091FE
:1039E0007B0584E081870E94BA1C81E008958F9254
:1039F0009F92AF92BF92CF92DF92EF92FF920F937E
:103A00001F93DF93CF93CDB7DEB760970FB6F894CF
:103A1000DEBF0FBECDBF29873A874B875C876D8796
:103A20007E878F87988BCE0101960E94531DCE0111
:103A3000099609851A852B853C854D855E856F85A0
:103A4000788989809A80AB80BC80CD80DE80EF80D1
:103A5000F8840E94B11D8F3F61F029853A854B851E
:103A60005C856D857E858F8598890E949C1B81E091
:103A700001C08FEF60960FB6F894DEBF0FBECDBFCA
:103A8000CF91DF911F910F91FF90EF90DF90CF903A
:103A9000BF90AF909F908F900895E0917A05F0913C
:103AA0007B0580850895EF92FF920F931F93CF932C
:103AB000DF93EC011C821D821E821F8280917105A2
:103AC00090917205A0917305B091740588839983D4
:103AD000AA83BB83E0907505F09076050091770589
:103AE00010917805EC82FD820E831F830E940D23C6
:103AF000682F70E080E090E023EB36EE4EE050E07F
:103B00000E94D83D6E0D7F1D801F911F6C837D83A9
:103B10008E839F8313C080509A4CAA49BB438C83E9
:103B20009D83AE83BF8388819981AA81BB810196E1
:103B3000A11DB11D88839983AA83BB838C819D813C
:103B4000AE81BF8180302AEC92072AE9A2072BE3DD
:103B5000B20708F7DF91CF911F910F91FF90EF907F
:103B600008958F929F92AF92BF92CF92DF92EF9281
:103B7000FF920F931F93DF93CF93CDB7DEB760977C
:103B80000FB6F894DEBF0FBECDBFFC0109831A83C8
:103B90002B833C834D835E836F83788789869A86E7
:103BA000AB86BC86CD86DE86EF86F88AE980FA8011
:103BB0000B811C812D813E814F815885A984BA8457
:103BC000CB84DC848D859E85AF85B889EA14FB049F
:103BD0000C051D0508F440C0AE14BF04C006D10694
:103BE00091F4281739074A075B07B0F1281B390BF6
:103BF0004A0B5B0B248335834683578310821182E3
:103C00001282138227C0281739074A075B0790F4EE
:103C10000894E108F10801091109EA18FB080C09E8
:103C20001D09E082F182028313832050364345460A
:103C3000544C08C0EA18FB080C091D09E082F18207
:103C400002831383281B390B4A0B5B0B24833583B8
:103C50004683578381E001C08FEF60960FB6F894DA
:103C6000DEBF0FBECDBFCF91DF911F910F91FF90AF
:103C7000EF90DF90CF90BF90AF909F908F9008957E
:103C8000FC0114C020503A4C4A495B4324833583DD
:103C90004683578320813181428153812F5F3F4F7B
:103CA0004F4F5F4F2083318342835383248135817B
:103CB0004681578120308AEC38078AE948078BE330
:103CC000580700F708958F929F92AF92BF92CF92BC
:103CD000DF92EF92FF920F931F93DF93CF93CDB7B5
:103CE000DEB760970FB6F894DEBF0FBECDBF098375
:103CF0001A832B833C834D835E836F837887898609
:103D00009A86AB86BC86CD86DE86EF86F88A2985C4
:103D10003A854B855C85E980FA800B811C812E0DEC
:103D20003F1D401F511FFC01208331834283538379
:103D30002D853E854F855889ED80FE800F81188541
:103D40002E0D3F1D401F511F24833583468357830B
:103D50000E94401E81E060960FB6F894DEBF0FBE51
:103D6000CDBFCF91DF911F910F91FF90EF90DF902A
:103D7000CF90BF90AF909F908F9008956093710502
:103D80007093720580937305909374052093750565
:103D900030937605409377055093780508958F9278
:103DA0009F92AF92BF92CF92DF92EF92FF920F93CA
:103DB0001F93FC012081318142815381648175818F
:103DC00086819781211531054105510509F461C0AE
:103DD000223431054105510508F062C05B016C01D8
:103DE000EE24FF24870160E038C08A2CAB2DA65357
:103DF000F1E0AB1508F0F0E08C2D865691E08C15C3
:103E000008F090E0F80F71E0F81708F070E0972BD9
:103E10007D2D755CE1E07D1508F0E0E0970F81E015
:103E2000971708F080E08E2B8E0DE1E08E1508F0DC
:103E3000E0E0EF0D71E0EF1508F070E0700FB1E019
:103E4000701708F0B0E0B10FA82CBA2ECF2ED92EE3
:103E5000E82EFE2E072F1B2F6F5F862F90E0A0E02D
:103E6000B0E082179307A407B50708F4BECF950109
:103E7000A601B701C801A3EBAA2EF6EEBF2EEEE015
:103E8000CE2EDD24EE24FF2400E010E00E945C3002
:103E900009C023EB36EE4EE050E00E940B3E02C01C
:103EA00020E030E0C9011F910F91FF90EF90DF906B
:103EB000CF90BF90AF909F908F900895EF92FF9218
:103EC0000F931F93DF93CF93CDB7DEB728970FB62D
:103ED000F894DEBF0FBECDBF7B018C01BAE0169512
:103EE0000795F794E794BA95D1F7E982FA820B83A4
:103EF0001C8373708070907023EB36EE4EE050E0C0
:103F00000E94D83D6D837E838F8398872E2D3A81C2
:103F10004B815C8128960FB6F894DEBF0FBECDBFF3
:103F2000CF91DF911F910F91FF90EF9008958F92A5
:103F30009F92AF92BF92CF92DF92EF92FF920F9338
:103F40001F93FC01208131814281538164817581FD
:103F500086819781211531054105510509F45BC022
:103F60005B016C01EE24FF24870160E038C08A2CDD
:103F7000AB2DA653F1E0AB1508F0F0E08C2D865682
:103F800091E08C1508F090E0F80F71E0F81708F058
:103F900070E0972B7D2D755CE1E07D1508F0E0E089
:103FA000970F81E0971708F080E08E2B8E0DE1E0EF
:103FB0008E1508F0E0E0EF0D71E0EF1508F070E00D
:103FC000700FB1E0701708F0B0E0B10FA82CBA2E56
:103FD000CF2ED92EE82EFE2E072F1B2F6F5F862F98
:103FE00090E0A0E0B0E082179307A407B50708F4BB
:103FF000BECF9501A601B701C801E3EBAE2E06EED8
:10400000B02E1EE0C12EDD24EE24FF2400E010E0DF
:104010000E945C3006C023EB36EE4EE050E00E947A
:104020000B3EB901CA011F910F91FF90EF90DF90F5
:10403000CF90BF90AF909F908F9008951F9311E005
:104040000E94C6160E940723853110F410936E0556
:104050000E9479248091FF03853519F088E00E9441
:10406000D51580917E10853559F388E00E94D515CD
:10407000E7CF2F923F924F925F926F927F928F92F3
:104080009F92AF92BF92CF92DF92EF92FF920F93E7
:104090001F93DF93CF930F92CDB7DEB70E94062315
:1040A0000E94BA110E9482220E9488222C018AEF6B
:1040B0000E940A230E9466246091FD0370E080E064
:1040C00090E023EB36EE4EE050E00E94D83D7B01BD
:1040D0008C018091750590917605A0917705B0913E
:1040E0007805E80EF91E0A1F1B1FC801B7010E94C0
:1040F0000B3EE61AF70A080B190B80917105909197
:104100007205A0917305B091740573EBA72E76EE3E
:10411000B72E7EE0C72ED12C14C080E096E3A5E632
:10412000B4ECE80EF91E0A1F1B1FC801B701A60157
:1041300095010E940B3EE61AF70A080B190BD401F1
:10414000C3013C014D010894611C711C811C911C30
:10415000E0E0EE16EAECFE06EAE90E07EBE31E07E6
:10416000E0F68093710590937205A0937305B09368
:104170007405E0927505F09276050093770510932B
:104180007805E0917A05F0917B0585818823B9F067
:1041900081858430A1F08781823029F0882341F025
:1041A0008681882311F485E001C083E0818704C003
:1041B00083E081871782168280850E94B61AE0917B
:1041C0007A05F0917B05858D968D009799F1608534
:1041D000662381F18185843069F1218D328D809152
:1041E000FD0390E02817390750F482E00E949415EF
:1041F000E0917A05F0917B05128E118E04C0281B88
:10420000390B328F218FE0917A05F0917B05008583
:10421000218D328D2115310569F483E0602F0E94D4
:104220009415E0917A05F0917B0583E08187802FDA
:104230000E94B61A64EC262E64E0362E00E61AEED2
:1042400020E051E0652E712C4AEFE42EF12C32E093
:10425000932E91E0A92EB12CC12CD12CD101139613
:104260008C9113978F3F09F4C4C01C92882309F4E2
:1042700043C014968C9114978430F1F150964D916F
:104280005C9151978091FD0390E04817590738F0F1
:10429000481B590B51965C934E93509703C0F10104
:1042A000118A108AD10152964D915C91539748170B
:1042B000590738F0481B590B53965C934E9352970D
:1042C00012C0F101668977898617970728F4681B61
:1042D000790B738B628B07C00E94F73DD101539617
:1042E0009C938E935297F10182899389009721F4D0
:1042F00086899789938B828BD10114968C91149720
:10430000833009F076C050968D919C91519700971B
:1043100009F066C012968C9112978823A9F0119625
:104320008C911197882381F0D601C50100906A0510
:1043300004C0880F991FAA1FBB1F0A94D2F7F1016E
:1043400084879587A687B787D10112961C9212970A
:1043500011961C9211971C925A964D915C915B9705
:1043600056968D919C91579758966D917C9159973F
:1043700041305105D9F455967C936E935497149619
:104380009C92149752964D915C91539751965C93E1
:104390004E935097009721F45196FC92EE925097CD
:1043A000822F29830E94051A29811AC0F101758B79
:1043B000648BBA0161507040689FA001699F500DE5
:1043C000789F500D1124518B408B538B428B00975B
:1043D00011F4F18AE08AD1015B967C926E925A9731
:1043E000F10180899189009721F08017910708F4E5
:1043F0008C012F5F81E290E0280E391E253009F0F4
:104400002DCF0E94F419E82E282F332727FD309551
:10441000F90185E0EE0FFF1F8A95E1F7E20FF31F28
:10442000E154FB4F828580937C05F0936C05E0930B
:104430006B05EE20B9F0258D368D2115310551F033
:10444000218D328D2A3F310528F42017310708F4D9
:104450004BC00DC098010B3F110508F445C02AEF71
:1044600030E042C00B3F110510F00AEF10E08093DE
:104470006D05F0937B05E0937A050093FD030E94A0
:104480000D23282F30E02F5F3F4F2017310740F0DA
:104490000E940D23082F10E00E5F1F4F0093FD03B5
:1044A000EE2011F010926E05802F0E940A23C201A7
:1044B0006EEE72E00E9499220E94CE240E9431305A
:1044C0000F90CF91DF911F910F91FF90EF90DF90B0
:1044D000CF90BF90AF909F908F907F906F905F90A4
:1044E0004F903F902F9008958901C1CF00000000A8
:1044F000000000000197D1F708951EBC089581E0E7
:104500008EBD089580B5816080BD1DBC1CBC089522
:10451000DF93CF9300D0CDB7DEB78CB59DB59A832E
:10452000898329813A81C9010F900F90CF91DF9142
:104530000895EF92FF920F931F93CF93DF93EC01B7
:104540008FEFC937D80710F0C0E0D0E07E0100E05F
:1045500010E080E090E0E60EF71E081F191F91E0C2
:10456000E91690E0F90691E0090790E0190768F074
:1045700080E090E0AFEFBFEFE80EF91E0A1F1B1FAF
:104580000E948822C817D907D8F30E9488228E1566
:104590009F05D8F3DF91CF911F910F91FF90EF907E
:1045A000089582BF089513BE87B78D7F87BF87B7F1
:1045B0008E7F87BF08958BE083BF87B7836087BFF7
:1045C000089580B5826080BD12BE1092D202109212
:1045D000FD0308958EEF8093FD0398E090BF81BFA7
:1045E00083E086BF8BE083BF80B5876080BD1FBC42
:1045F00081E08EBD1DBC1CBC80B5816080BD0E9469
:10460000E1220E94DB221092D2020895089581B720
:104610008F5F0895815081BF089582B708951F92DA
:104620000F920FB60F920BB60F9211242F933F9358
:104630004F935F936F937F938F939F93AF93BF93AA
:10464000EF93FF938AE060E00E949415FF91EF9151
:10465000BF91AF919F918F917F916F915F914F919A
:104660003F912F910F900BBE0F900FBE0F901F9098
:1046700018950F920FB60F921F922F923F924F9262
:104680005F926F927F928F929F92AF92BF92CF92E2
:10469000DF92EF92FF920F931F932F933F934F93CD
:1046A0005F936F937F938F939F93AF93BF93CF93BA
:1046B000DF93EF93FF93A0917A05B0917B050DB640
:1046C0000D920EB60D921F92A091FA03B091FB03CA
:1046D0001E90BEBFADBF0895882319F487B78F77AA
:1046E00087BF8FEF0895882319F414BC81E00895E3
:1046F0008FEF0895882319F424B530E002C020E03C
:1047000030E0C9010895882329F487B7806887BFFE
:1047100081E008958FEF0895882359F5CB01019723
:104720008530910510F46093FC0388E085BD43BD9E
:104730003093D0022093CF028091FC03813019F492
:1047400085B5816009C0823019F485B5826004C0E6
:10475000833029F485B5836085BD81E00895843078
:1047600019F485B58460F8CF853029F485B5856066
:10477000F3CF8FEF089581E008951F920F920FB647
:104780000F920BB60F9211242F933F934F935F9389
:104790006F937F938F939F93AF93BF93EF93FF9309
:1047A000E091CF02F091D002309711F0099504C04A
:1047B0008AE060E00E949415FF91EF91BF91AF9164
:1047C0009F918F917F916F915F914F913F912F9129
:1047D0000F900BBE0F900FBE0F901F90189504B650
:1047E00003FC02C080E001C080E104B602FE06C006
:1047F00094B79B7F94BF04B600FE846004B601FEAC
:1048000005C094B79D7F94BF82600895882359F4B2
:1048100004B600FE04C094B79E7F94BF01C081E03F
:1048200093B79111816008958FEF08958FEF0895E8
:104830008FEF08951F920F920FB60F920BB60F9243
:1048400011242F933F934F935F936F937F938F9395
:104850009F93AF93BF93EF93FF938AE060E00E9432
:104860009415FF91EF91BF91AF919F918F917F919F
:104870006F915F914F913F912F910F900BBE0F90D1
:104880000FBE0F901F9018950E94BA11A89584B77B
:10489000877F84BF81B5886181BD11BC0E94BC1136
:1048A00008950E94BA1184B7877F84BFA89581B507
:1048B000886181BD8FE081BD0E94BC11089504B65E
:1048C00003FC02C081E008958FEF0895A895089534
:1048D0000895FC0176836583089585B7837E88619A
:1048E00085BF85B7806285BF889585B78F7D85BF79
:1048F000089585B7837E85BF85B7806285BF88951B
:1049000085B78F7D85BF089525E5FA012083FB01DA
:104910003297908381831292129212921292129283
:104920001292129212921292129212921292129267
:104930001292129212921292129212921292129257
:104940001292129212921292129212921292129247
:1049500012921292129212921292CF010895EF9235
:10496000FF920F931F93CF93DF93EC018B017A019A
:104970004032510518F481E10E94D5150894E108F0
:10498000F108E00EF11EFA82E9821C830B83DF91AD
:10499000CF911F910F91FF90EF90089581EB93E1DC
:1049A0009093FE108093FF10089585E580937E100C
:1049B000EEEFF0E1F093FB03E093FA0381EB93E178
:1049C00090838093FF1008950E94EA220E94BC11F8
:1049D00008950E943F2508951F93DF93CF930F9270
:1049E000CDB7DEB7142F83708C6269830E94AA252D
:1049F0006981613011F480E001C080E80E94722575
:104A0000812F0E9472250E9466250F90CF91DF9121
:104A10001F910895DF93CF9300D0CDB7DEB780E428
:104A200087B986E086B9379A369A3699FECF84B12F
:104A300095B19A8389830F900F90CF91DF9108955C
:104A40003798089597B18F71907E892B87B9369AE0
:104A50003699FECF24B135B1C90108958EE10E9487
:104A60002225BC0180E090E00E945A3B9B01AC01F2
:104A700064EA70E78DE994E40E94C63A0895E1E79C
:104A8000F0E08081808381E08093700084E08093F7
:104A9000740008958091740087FFFCCF0895E4E7C7
:104AA000F0E08081806880830895CF93DF93C4E72E
:104AB000D0E08881806288830E944F250E944A2529
:104AC00088818F7D8883DF91CF91089580917400D4
:104AD0008061809374000E944F258091740084FD52
:104AE000FCCF0895809373000E944F250E944A25B1
:104AF00080917100887F883241F090917100987F99
:104B000081E0983119F480E0089580E008950097DD
:104B100021F080917400806403C0809174008F7BC9
:104B2000809374000E944F250E944A258091730053
:104B30000895DF93CF930F92CDB7DEB789830E949C
:104B400055258981880F81600E9472250F90CF9131
:104B5000DF910895DF93CF930F92CDB7DEB78983AE
:104B60000E9455258981880F0E9472250F90CF9150
:104B7000DF9108950E940A2581E08093C002089584
:104B80008091C002882311F40E94BA250E9420253A
:104B90000895DF93CF930F92CDB7DEB79091C00207
:104BA000992321F489830E94BA258981A898A09825
:104BB000813019F41D9A159A02C01D9815980F900E
:104BC000CF91DF910895DF93CF930F92CDB7DEB7EA
:104BD0009091C002992321F489830E94BA2589818A
:104BE0001D981598813019F4A89AA09A02C0A89827
:104BF000A0980F90CF91DF9108958091C0028823F3
:104C000011F40E94BA2581E00E94C92581E00E942A
:104C1000222508958091C002882311F40E94BA25AC
:104C200081E00E94E32581E00E9422250895AF9251
:104C3000BF92CF92DF92EF92FF920F931F930E9449
:104C40000A26BC0180E090E00E945A3B8B017C0167
:104C500060E070EC8FE794E4202F312F4E2D5F2D14
:104C60000E94613A20E030E44CE156E40E94313C7D
:104C7000202F312F4E2D5F2D0E94C63A0E94F13B0E
:104C80007B018C0120E030E040E450E40E94943C41
:104C9000D62EC72EB82EA92EC801B70129E733EEAC
:104CA0004DE759E30E94313C28EC32E644E85AE3F0
:104CB0000E94623A7B018C01A6019501652F742F39
:104CC000832F922F2DE234EC4CE154E30E94313CCF
:104CD0009B01AC01C801B7010E94623A9B01AC0183
:104CE00060E070E080E89FE30E94C63A1F910F9158
:104CF000FF90EF90DF90CF90BF90AF9008950E940B
:104D0000172623E333E948E853E40E94613A089503
:104D10000E940A250E94E92481E08093C10208953F
:104D20008091C102882311F40E9488260E942025C8
:104D30000895DF93CF930F92CDB7DEB79091C10264
:104D4000992321F489830E9488268981813011F476
:104D5000AC9A01C0AC980F90CF91DF910895DF938A
:104D6000CF930F92CDB7DEB79091C102992321F472
:104D700089830E9488268981813011F4AD9A01C00F
:104D8000AD980F90CF91DF9108951F93182F8091C8
:104D9000C102882311F40E94882680E00E94D9264F
:104DA000113019F4A89AA09A02C0A898A0981F914F
:104DB00008951F93182F8091C102882311F40E9437
:104DC000882680E00E94C526113019F41D9A159A94
:104DD00002C01D9815981F910895DF93CF930F92ED
:104DE000CDB7DEB79091C102992321F489830E9447
:104DF00088268981813011F4AA9A01C0AA980F905F
:104E0000CF91DF910895DF93CF930F92CDB7DEB7A7
:104E10009091C102992321F489830E948826898177
:104E2000813011F4AB9A01C0AB980F90CF91DF9114
:104E30000895DF93CF930F92CDB7DEB7482F8091BF
:104E4000C102882321F449830E948826498180E099
:104E500061E00E94EC240F90CF91DF910895DF93E1
:104E6000CF930F92CDB7DEB7482F8091C102882330
:104E700021F449830E948826498180E062E00E94F3
:104E8000EC240F90CF91DF910895DF93CF930F9291
:104E9000CDB7DEB7482F8091C102882321F4498322
:104EA0000E948826498181E061E00E94EC240F90F5
:104EB000CF91DF910895DF93CF930F92CDB7DEB7F7
:104EC0009091C102992321F489830E9488268981C7
:104ED000882311F4AE9A03C0813009F4AE980F9084
:104EE000CF91DF9108958091C102882311F40E942F
:104EF000882681E00E94D92681E00E94222508951B
:104F00008091C102882311F40E94882681E00E94CA
:104F1000C52681E00E94222508958091C102882340
:104F200011F40E94882682E00E9422250895809133
:104F3000C102882311F40E94882683E00E94222562
:104F400008958091C102882311F40E94882684E08C
:104F50000E94222508958091C102882311F40E94A5
:104F6000882685E00E94222508958091C102882329
:104F700011F40E94882686E00E942225089589E97E
:104F800093E00197F1F700C0DC98D49A89E993E0A7
:104F90000197F1F700C0D498DC9ACC9BFECF80E05B
:104FA00007C091E39A95F1F700008F5F8F3149F0C8
:104FB000CC99F7CF89E993E00197F1F700C080E041
:104FC00008958FEF0895882361F4DC98D49A84ECD7
:104FD0008A95F1F700C0D498DC9A81E38A95F1F7BD
:104FE0000BC0DC98D49A88E18A95F1F700C0D49878
:104FF000DC9A8DED8A95F1F700000895DC98D49A3B
:1050000082E08A95F1F700C0D498DC9A96E19A95EF
:10501000F1F7000089B394EC9A95F1F700C090E0A5
:105020008071907024E0959587952A95E1F7089511
:10503000FF920F931F93CF93DF93F82EC0E0D0E041
:1050400001E010E098010C2E02C0220F331F0A94D9
:10505000E2F78F2D82230E94E3272196C830D105E5
:1050600089F7DF91CF911F910F91FF9008951F93C2
:10507000CF93DF93C0E0D0E010E00E94FE27282FFE
:1050800030E00C2E02C0220F331F0A94E2F7122BDD
:105090002196C830D10589F7812FDF91CF911F91DB
:1050A00008958FE00E941828089580B58B7F80BDF9
:1050B000D498DC9A86EF8A95F1F70895EF92FF92E3
:1050C0000F931F93DF93CF9300D000D0CDB7DEB7FF
:1050D0007C0119821A821B821C820E94BF278823AE
:1050E00039F0282F332727FD3095432F532F27C022
:1050F0000E9451280E943728813019F08EEFF70165
:1051000080838E010F5F1F4F0E94372889830E9482
:105110003728F80181830E943728F80182830E9492
:105120003728F80183830E9437280E9437280E947D
:105130003728F701108229813A814B815C81B901BE
:10514000CA010F900F900F900F90CF91DF911F9198
:105150000F91FF90EF900895AA98959887FF02C04D
:10516000939A01C09398959A959886FF02C0939A56
:1051700001C09398959A959885FF02C0939A01C0B3
:105180009398959A959884FF02C0939A01C093983A
:10519000959A959883FF02C0939A01C09398959A27
:1051A000959882FF02C0939A01C09398959A95981A
:1051B00081FF02C0939A01C09398959A959880FFB9
:1051C00002C0939A01C09398959A959AAA9A0895C5
:1051D000DF93CF9300D00F92CDB7DEB7A89A198294
:1051E0001FC0A898898180550E94AC2880E10E9448
:1051F000AC2880E00E94AC28A89A1B821A8208C0C2
:1052000080E00E94AC288A819B8101969B838A83DF
:105210008A819B81803891059CF389818F5F898386
:1052200089818830F0F20F900F900F90CF91DF912D
:105230000895C498BC9A85B3876085BB84B38760A2
:1052400084BB81B3886281BB939A88E785BB84B3B2
:10525000877884BBA898A9988FEF9FE3A2E081503C
:105260009040A040E1F700C00000A99A8FEF9FE3B3
:10527000A2E081509040A040E1F700C0000080E42F
:105280000E94AC2881EA0E94AC2880EC0E94AC28E5
:1052900086EA0E94AC2882EA0E94AC288FE20E9433
:1052A000AC2888EF0E94AC2880E00E94AC2887E2FE
:1052B0000E94AC2881E80E94AC2880E10E94AC28C2
:1052C0008CEA0E94AC2880E00E94AC288FEA0E9401
:1052D000AC280E94E8280895813011F4C49A0895FA
:1052E000C4980895EF92FF920F931F93DF93CF938B
:1052F0000F92CDB7DEB7082F162FA898842F8055B0
:1053000099830E94AC28812F82958F7080610E94C2
:10531000AC28812F8F700E94AC28A89A9981602FA9
:10532000792F7B011AC000E010E0D701EC91B5E0C5
:10533000EB9FF0011124E00FF11FEF57FC4F849118
:105340000E94AC280F5F1F4F0530110571F780E0F8
:105350000E94AC280894E11CF11CF701808188238D
:1053600011F70F90CF91DF911F910F91FF90EF9068
:1053700008956091AB057091AC0590E00E94DF3F0D
:10538000089580E00E94940E882349F08091A90539
:105390009091AA050E949D3F282F30E002C02FEF78
:1053A0003FEFC9010895BF92CF92DF92EF92FF9233
:1053B0000F931F93DF93CF9300D000D00F92CDB700
:1053C000DEB7D82EB62E20EA36E841E050E0298339
:1053D0003A834B835C8381E19D830E94B9298B2DA5
:1053E0000E94B92981E1C82ECB0C9D810D2D192F6A
:1053F00009C07801F80181918F010E94B929F70154
:105400008081C80E802F8D198B1598F38C2D0E94EA
:10541000B9290E94C12929813A814B815C8121509F
:1054200030404040504029833A834B835C83863030
:1054300051F089819A81AB81BC810097A105B105AA
:1054400041F78FEF01C080E00F900F900F900F9009
:105450000F90CF91DF911F910F91FF90EF90DF9010
:10546000CF90BF900895CF92DF92EF92FF920F936B
:105470001F93DF93CF9300D000D0CDB7DEB7F82EC7
:10548000092F20EA36E841E050E029833A834B8334
:105490005C8382E10E94B92981E00E94B92983E5F9
:1054A0000E94B92986E60E94B9290E94C129298152
:1054B0003A814B815C8121503040404050402983EB
:1054C0003A834B835C83863061F029813A814B813A
:1054D0005C81211531054105510539F7EE24E3942E
:1054E00001C0EE240E94C1292FEF8F3F9207D1F314
:1054F0008131910559F50E94C129EFEF8F3F9E0739
:10550000D1F3D82E91E1C92ECD0C802F0F2D182F5D
:105510000AC00E94C129FFEF8F3F9F07D1F3F80116
:1055200081938F01C80E802F8F198D1590F30E94E3
:10553000C129FFEF8F3F9F07D1F32C2D30E0821759
:10554000930721F4EE2011F48D2D01C08FEF0F9001
:105550000F900F900F90CF91DF911F910F91FF90BF
:10556000EF90DF90CF900895CF92DF92EF92FF926D
:105570000F931F93DF93CF9300D000D0CDB7DEB74A
:105580008C017B0180E492E4AFE0B0E089839A83F0
:10559000AB83BC8382E10E94B92981E00E94B929D2
:1055A00089E40E94B9298CE50E94B9290E94C12989
:1055B00029813A814B815C812150304040405040EC
:1055C00029833A834B835C83863059F089819A81A1
:1055D000AB81BC810097A105B10541F7DD24D394CF
:1055E00001C0DD240E94C1292FEF8F3F9207D1F324
:1055F0008231910551F50E94C129EFEF8F3F9E073F
:10560000D1F3823011F50E94C129FFEF8F3F9F0730
:10561000D1F324E1C22EC80EF80180830E94C12973
:10562000FFEF8F3F9F07D1F30C2D080FF701808309
:105630000E94C129FFEF8F3F9F07D1F3202F30E059
:105640008217930711F4DD2011F08FEF01C080E085
:105650000F900F900F900F90CF91DF911F910F91AE
:10566000FF90EF90DF90CF9008950F931F93DF93FB
:10567000CF9300D000D0CDB7DEB7182F062F20E48F
:1056800032E44FE050E029833A834B835C8382E12C
:105690000E94B92983E00E94B92984E40E94B929B3
:1056A000812F0E94B929802F0E94B929812F875A02
:1056B000800F0E94B9290E94C12929813A814B811A
:1056C0005C81215030404040504029833A834B83D5
:1056D0005C83863051F089819A81AB81BC810097CF
:1056E000A105B10541F78FEF01C080E00F900F9049
:1056F0000F900F90CF91DF911F910F910895BF925E
:10570000CF92DF92EF92FF920F931F93DF93CF938D
:1057100000D000D0CDB7DEB76C018B017A0180E4F8
:1057200092E4AFE0B0E089839A83AB83BC8382E1EB
:105730000E94B92981E00E94B92980E50E94B92917
:1057400083E60E94B9290E94C12929813A814B81AF
:105750005C81215030404040504029833A834B8344
:105760005C83863049F089819A81AB81BC81009746
:10577000A105B10541F73BC00E94C1292FEF8F3F22
:105780009207D1F38231910591F50E94C129EFEF83
:105790008F3F9E07D1F3833051F50E94C129FFEF5F
:1057A0008F3F9F07D1F335E1B32EB80EF60180830A
:1057B0000E94C129FFEF8F3F9F07D1F3CB2CC80E6A
:1057C000F80180830E94C129FFEF8F3F9F07D1F32B
:1057D0000C2D080FF70180830E94C129FFEF8F3F36
:1057E0009F07D1F3202F30E08217930711F08FEF3E
:1057F00001C080E00F900F900F900F90CF91DF913C
:105800001F910F91FF90EF90DF90CF90BF90089580
:10581000EF92FF920F931F93DF93CF9300D000D0AE
:10582000CDB7DEB7F82E092F20E432E44FE050E088
:1058300029833A834B835C8382E10E94B92981E00A
:105840000E94B92982E50E94B92985E60E94B929FA
:105850000E94C12929813A814B815C8121503040CD
:105860004040504029833A834B835C83863059F013
:1058700029813A814B815C81211531054105510512
:1058800039F78FEF28C00E94C1292FEF8F3F920771
:10589000D1F381319105F1F40E94C129EFEF8F3FDF
:1058A0009E07D1F3E82E802F0F2D182F09C00E94DC
:1058B000C129FFEF8F3F9F07D1F3F80181938F013B
:1058C000802F8F198E1598F30E94C129FFEF8F3F0B
:1058D0009F07D1F380E00F900F900F900F90CF9122
:1058E000DF911F910F91FF90EF9008951F93DF9329
:1058F000CF9300D000D0CDB7DEB7182F20E432E42C
:105900004FE050E029833A834B835C8382E10E941D
:10591000B92983E00E94B92981E40E94B92983E56D
:105920000E94B929812F0E94B929812F87550E9491
:10593000B9290E94C12929813A814B815C8121507A
:1059400030404040504029833A834B835C8386300B
:1059500051F089819A81AB81BC810097A105B10585
:1059600041F78FEF01C080E00F900F900F900F90E4
:10597000CF91DF911F9108951F93DF93CF9300D0B4
:1059800000D0CDB7DEB7182F20E432E44FE050E06E
:1059900029833A834B835C8382E10E94B92983E0A7
:1059A0000E94B92981E40E94B92984E40E94B9299E
:1059B000812F0E94B929812F86560E94B9290E9401
:1059C000C12929813A814B815C812150304040407E
:1059D000504029833A834B835C83863051F0898120
:1059E0009A81AB81BC810097A105B10541F78FEF8A
:1059F00001C080E00F900F900F900F90CF91DF913A
:105A00001F910895DC010D900020E9F7BD01615060
:105A10007040681B790B0E94D3290895DC010D901A
:105A20000020E9F76A2F681B0E94D329089583702C
:105A3000880F23E030E0082E02C0220F331F0A94A3
:105A4000E2F7922F90954091CC02942301C0660F0B
:105A50008A95EAF76223962B9093CC020895482FFB
:105A60004370440F83E090E0042E02C0880F991F1A
:105A70000A94E2F72091CC0230E08223932302C003
:105A8000959587954A95E2F70895682F70E080E034
:105A900090E00E945A3B2091B4013091B5014091B1
:105AA000B6015091B7010E94313C20E030E040E85F
:105AB0005BE30E94313C089520E030E040E853E48D
:105AC0000E94313C2091B4013091B5014091B60162
:105AD0005091B7010E94C63A0E942E3B862F08952E
