:100000000C94D4040C94A5250C94F3040C94F304E0
:100010000C94F3040C94F3040C94F3040C94F30484
:100020000C94F3040C9448250C94F3040C94F304FE
:100030000C94F3040C94F3040C94F3040C94C42473
:100040000C94C4240C94F3040C94F3040C94F30463
:100050000C94F3040C94F3040C94F3040C94F30444
:100060000C94F3040C94F3040C94F3040C94F30434
:100070000C94F3040C94F3040C94F3040C94F30424
:100080000C94F3040C94F3040C94F3046E1574159F
:1000900077157A157D1580158615831589158C15AC
:1000A0008F1598159B159E15A11595156B15711536
:1000B000A415A7159215681508000000BE922449E2
:1000C000123EABAAAA2ABECDCCCC4C3E000000808A
:1000D000BEABAAAAAA3E00000000BF000000803FFD
:1000E0000000000000084178D3BB4387D1133D19BD
:1000F0000E3CC3BD4282AD2B3E68EC8276BED98FEA
:10010000E1A93E4C80EFFFBE01C4FF7F3F0000002D
:10011000000007634236B79BD8A71A39685618AE55
:10012000BAAB558C1D3CB7CC5763BD6DEDFD753E2C
:10013000F6177231BF000000803F4572726F722067
:100140006372656174696E672073656D0D0A005591
:100150004E4B4F574E0045787465726E616C20525D
:10016000657365740042726F776E204F757420441A
:100170006574656374004661696C656420746F2002
:100180006372656174652053656D6170686F726537
:10019000004661696C656420746F206372656174E8
:1001A00065205369676E616C004B65726E656C20EB
:1001B00066756E6374696F6E206E6F7420696D7002
:1001C0006C656D656E746564004465766963652071
:1001D000447269766572204572726F72005761745D
:1001E0006368646F6720526573746172740053575B
:1001F000205761746368646F67205265737461721D
:10020000740054696D6572204F766572666C6F7705
:1002100000556E68616E646C656420496E74657229
:100220007275707420566563746F72004C6F77201E
:10023000566F6C7461676500457874726120546113
:10024000736B20737461727465642C206973206E03
:10025000726B5F6366672E68206F6B3F0049646C4A
:1002600065206F72204B65726E656C2053746163FC
:100270006B204F766572666C6F7700556E6578708F
:1002800065637465642052657374617274004475AB
:10029000706C696361746564205461736B204944B8
:1002A000005363686564756C6572204D697373658E
:1002B000642057616B657570005461736B205265E3
:1002C00073657276652056696F6C6174656400525F
:1002D000657365727665204572726F7220696E2053
:1002E0005363686564756C657200496E76616C690C
:1002F0006420537461636B20506F696E7465720083
:100300005461736B20537461636B204F7665726622
:100310006C6F7700537461636B20776173206E6F2D
:100320007420646566696E6564206173206C617217
:10033000676520656E6F75676821005461736B2077
:10034000706572696F6420746F6F206C617267658D
:100350002E20506572696F64206D7573742062651C
:10036000206C657373207468616E2036312073656C
:10037000636F6E64732E00293A20002A4E524B2080
:100380004552524F5228000D0A535441434B2044CA
:10039000554D500D0A000A0D006E726B5F71756548
:1003A00075653A200008082A1C08081C2A0808401D
:1003B000444A514040514A444014741C17141020C0
:1003C0007F010100000000000000000000081C2C5C
:1003D00008087F01010101010101017F7F404040C8
:1003E00040404040407F000000000000000000004E
:1003F00000000000007911271179000000000000C2
:100400000000000000000000007F010101036050B7
:1004100048447E3E4949493E700C030C706349498B
:100420004963017F017F01635549414106017E0116
:100430000608557F55080F107F100F4E7101714E41
:100440003844443844000000000000005F0000030E
:1004500000030000143E143E1426497F4932621501
:100460002A542336495620500003000000001C2265
:1004700041000041221C0000140E140008083E0830
:1004800008006000000008080808000040000000A4
:1004900060100804033E4141413E04027F000062B7
:1004A0005149454222414949360C0B087E084F49C3
:1004B0004949313E494949326111090503364949E3
:1004C0004936264949493E002200000000610000EB
:1004D00000081414222214141414142222141408D0
:1004E00006015905023E415D555E7E0909097E7F80
:1004F000494949363E414141227F4141413E7F4980
:100500004949417F090909013E414949327F0808AB
:10051000087F00007F0000204040403F7F081422F9
:10052000417F404040007F0204027F7F021C207F09
:100530003E4141413E7F090909063E4151617E7FAE
:1005400009192946264949493201017F01013F40E5
:1005500040403F1F2040201F3F4030403F63140871
:100560001463030478040361514945437F4100004B
:10057000000000000000000000417F0601060000AE
:100580004040404040010200000020545454787F15
:10059000484848303844444428384444447F385418
:1005A000545418087E0909010C5252523E7F04042B
:1005B0000478047D404020204040443D007F1028C6
:1005C00044203E5149467C047C04787C080404782D
:1005D00038444444387E1212120C0C1212127E045B
:1005E000780404084854545424043F4444403C4094
:1005F000403C401C2040201C3C4030403C442810E3
:100600002844264848483E4464544C4400083E412F
:100610000000007F000000413E08000000000000D4
:1006200000000000000000000000000000000000CA
:100630000000000020483E09020000000000000009
:1006400000000004047F040400000000000000001B
:10065000000000000000000000000000000000009A
:10066000000000000000000000000000000000008A
:10067000000000000000000000000000000000007A
:100680000000000002040102000000000000001849
:100690001800000000000000000000000000000042
:1006A000000000000000000000000000000000004A
:1006B000000000000000000000000000000000003A
:1006C00000000000000000000000000079000000B1
:1006D00000000000487E4949420000000000151655
:1006E0007C161500000000000A5555552800010031
:1006F00001003E635D6B3E000000000008142A14F8
:1007000022000000000000000000003E41754B3E4A
:1007100001010101010002050200000000000000CB
:1007200000000000000000000000000000000000C9
:10073000000000060F7F017F0000000000000000A5
:1007400000000000000000070507000022142A1422
:10075000080F003C20780F0048645800000000009B
:10076000304845402000000000000000000000006C
:10077000000000007229292A717825242578702A22
:10078000252A707E097F49490E51517111000000E0
:1007900000007C545655440000000000000000009A
:1007A0000000000000000000000000000000000049
:1007B000000000000000000000007A09112279000A
:1007C00000000000000000000000000000003A45AA
:1007D0004546393D4242423D22140814225C322AE9
:1007E000261D0000000000000000000000000000C6
:1007F000003C4140413C00000000000000000000BF
:10080000000000000020555654782054565578209A
:100810005655567822515556792055545578000032
:1008200000000024547854580C5252721238555615
:100830005418385456551838565556183855545576
:100840001800497A400000487A4100004A79420085
:10085000004A78420000000000007A11090A713055
:10086000494A483030484A4930304A494A3032498A
:10087000494A31304A484A3008082A080818643C76
:1008800026183841422078384042217838424122A7
:10089000783842402278000000000000000000008C
:1008A0000C5150513C6E616E00696E660000407ADA
:1008B00010F35A00A0724E18090010A5D4E80000E9
:1008C000E87648170000E40B54020000CA9A3B0087
:1008D0000000E1F505000080969800000040420FFE
:1008E000000000A08601000000102700000000E8C2
:1008F00003000000006400000000000A0000000087
:10090000000100000000002C76D888DC674F082327
:10091000DFC1DFAE59E1B1B796E5E3E453C63AE68D
:1009200051997696E8E6C28426EB898C9B62ED406D
:100930007C6FFCEFBC9C9F40F2BAA56FA5F49005BC
:100940005A2AF75C936B6CF9676DC11BFCE0E40DF0
:1009500047FEF520E6B500D0ED902E0300943577E4
:10096000050080841E080000204E0A000000C80C0C
:10097000333333330F986E12831141EF8D21148975
:100980003BE65516CFFEE6DB18D1844B381BF77CCF
:100990001D901DA4BBE424203284725E228100C914
:1009A000F124ECA1E53D270011241FBECFEFD0E1DB
:1009B000DEBFCDBF13E0A0E0B1E0E4EDF7E800E07A
:1009C0000BBF02C007900D92A031B107D9F716E016
:1009D000A0E1B3E001C01D92A731B107E1F70E9489
:1009E0001B050C94E8430C949A2480912103909168
:1009F00022030E94701A80912103909122030E9489
:100A0000C2190E94221E8AE090E00E94A841EDCF08
:100A100080912103909122030E94701A80912103FA
:100A2000909122030E94C2190E94221E8AE090E047
:100A30000E94A841EDCF1F930E94D01087E090E064
:100A40000E941F1180E091E00E94AF410E940E12AF
:100A500060E070E0CB0120E030E0A9010E94262098
:100A600011E01093580483EA93E090935304809329
:100A7000520483E293E090935504809354041093BE
:100A80005A0488E095E0909357048093560410939D
:100A90005B04109359048091100190911101A09171
:100AA0001201B091130180935C0490935D04A093B4
:100AB0005E04B0935F04109260041092610410927F
:100AC0006204109263048091140190911501A09129
:100AD0001601B09117018093640490936504A0936C
:100AE0006604B0936704109268041092690410922F
:100AF0006A0410926B0410926C0410926D041092B0
:100B00006E0410926F04109270041092710410928F
:100B100072041092730481E594E00E946A1C1093A1
:100B2000AC038CE494E09093A7038093A6038CEC31
:100B300093E09093A9038093A8031093AE0385EFED
:100B400094E09093AB038093AA031093AF0382E0E9
:100B50008093AD038091180190911901A0911A0121
:100B6000B0911B018093B0039093B103A093B203A3
:100B7000B093B3031092B4031092B5031092B6036E
:100B80001092B70380911C0190911D01A0911E014C
:100B9000B0911F018093B8039093B903A093BA0357
:100BA000B093BB031092BC031092BD031092BE031E
:100BB0001092BF031092C0031092C1031092C2039F
:100BC0001092C3031092C4031092C5031092C6037F
:100BD0001092C70385EA93E00E946A1C81E064E0FA
:100BE0000E9469199093220380932103009721F4B6
:100BF0008AE391E00E94EF0E0E94D41280E090E020
:100C00001F91089590E09C012B503040220F331F1C
:100C1000220F331F865A9E4B820F931FF894C09861
:100C200028E12FB9779BFECF9FB9779BFECF8FB975
:100C3000779BFECFC09A78940895F894C0981FB817
:100C4000779BFECF8FB1C09A789486FFF6CF089538
:100C500080913A010E94020F809139010E94480F51
:100C6000089580913A010E94020F809139010E94FB
:100C7000020F0895F894C09887E08FB9779BFECF54
:100C8000C09AC09886E08FB9779BFECFC09A7894BF
:100C90000895F894C09881E08FB9779BFECFC09AF1
:100CA00088EE93E00E9401247894089580910905CC
:100CB0000895FC01C09889EC8FB9779BFECF80E83E
:100CC0008FB9779BFECF82E08150DF01A80FB11D65
:100CD0009C919FB9779BFECF8823B1F7C09AC098AB
:100CE0008BEC8FB9779BFECF80E88FB9779BFECFD7
:100CF00082E08150DF01A80FB11D12969C911297DE
:100D00009FB9779BFECF8823A1F7C09A80818093FB
:100D10000A05818180930B05828180930C05838174
:100D200080930D0508958F929F92AF92BF92CF92BC
:100D3000DF92EF92FF920F931F93DF93CF9300D038
:100D400000D0CDB7DEB7E82E092F84E690E00E94F0
:100D50000124F02E20E031E08E010F5F1F4FF3E001
:100D6000CF2ED12CCC0EDD1EF70191907F0188246F
:100D7000808190E0882999299A83898384E690E08C
:100D80002B833C830E940124C0982B813C81822FBD
:100D900080688FB9779BFECFC90195958795807C38
:100DA0008FB9779BFECF5801F80181918FB9779B5E
:100DB000FECFEC15FD05C9F7C09A2E5F3F4FF1E05D
:100DC00020313F0789F684E690E00E94012420E468
:100DD00031E080E191E01A821982C098422F406888
:100DE0004FB9779BFECFA90155954795407C4FB9E8
:100DF000779BFECFF80141914FB9779BFECFEC1561
:100E0000FD05C9F7C09AC098482F40684FB9779B35
:100E1000FECFAC0155954795407C4FB9779BFECFEF
:100E2000F80141914FB9779BFECFEC15FD05C9F74D
:100E3000C09A02962E5F3F4F41E08E31940759F6DB
:100E400081E090E09A838983C0988EEC8FB9779B7C
:100E5000FECF80E88FB9779BFECFC8010296F801DC
:100E600021912FB9779BFECFE817F907C9F7C09AF0
:100E7000C0988EE98FB9779BFECF80E88FB9779BBA
:100E8000FECF0E5F1F4FF50181915F018FB9779BF8
:100E9000FECFA016B106B9F7C09A0F900F900F9031
:100EA0000F90CF91DF911F910F91FF90EF90DF9006
:100EB000CF90BF90AF909F908F900895C09889E198
:100EC0008FB9779BFECF83E08FB9779BFECF86E00B
:100ED0008FB9779BFECFC09AC0988AE18FB9779B74
:100EE000FECF8EE08FB9779BFECF8EE08FB9779BD8
:100EF000FECFC09A81E08093FA040895C09889E1FA
:100F00008FB9779BFECF81E08FB9779BFECF84ECC2
:100F10008FB9779BFECFC09A1092FA040895809102
:100F2000F8049091F904089590E08F719070806EAC
:100F3000906AC09825E12FB9779BFECF9FB9779B28
:100F4000FECF8FB9779BFECFC09A08950E9402060C
:100F500008958091FB049091FC0498609093FC04A8
:100F60008093FB04C09881E18FB9779BFECF80917D
:100F7000FC048FB9779BFECF8091FB048FB9779BE0
:100F8000FECFC09A08958091FB049091FC04977F56
:100F90009093FC048093FB04C09881E18FB9779B08
:100FA000FECF8091FC048FB9779BFECF8091FB042C
:100FB0008FB9779BFECFC09A089581E08093080592
:100FC0008091FB049091FC0480619093FC048093D9
:100FD000FB04C09881E18FB9779BFECF8091FC0420
:100FE0008FB9779BFECF8091FB048FB9779BFECFA3
:100FF000C09A0895109208058091FB049091FC041A
:101000008F7E9093FC048093FB04C09881E18FB99C
:10101000779BFECF8091FC048FB9779BFECF8091A8
:10102000FB048FB9779BFECFC09A0895DF93CF93CF
:1010300000D0CDB7DEB79A8389839093040580935F
:10104000030584EF91E00E940124C0988AEE8FB9D5
:10105000779BFECF80E88FB9779BFECFFE0131965C
:10106000CE01039621912FB9779BFECFE817F907A0
:10107000C9F7C09A84EF91E00E9401240F900F906D
:10108000CF91DF910895CF93DF93EC01862FC09825
:1010900098E09FB9779BFECFC09AC09898E09FB91F
:1010A000779BFECFC09A0E940206D093FE04C093A5
:1010B000FD04DF91CF910895DF92EF92FF920F939D
:1010C0001F93DF93CF9300D0CDB7DEB78C01D62E20
:1010D0005A8349837901DD9A88EE93E00E945F117B
:1010E000DE9881E090E00E945F11DE9A84E690E055
:1010F0000E945F11F894C09881E08FB9779BFECF72
:10110000C09A82EE92E09093FC048093FB04C09816
:1011100081E18FB9779BFECF8091FC048FB9779BDB
:10112000FECF8091FB048FB9779BFECFC09AC09809
:1011300082E18FB9779BFECF85E08FB9779BFECF99
:101140001FB8779BFECFC09AC0988CE18FB9779B70
:10115000FECF1FB8779BFECF8FE78FB9779BFECF6F
:10116000C09AC09889E18FB9779BFECF81E08FB993
:10117000779BFECF84EC8FB9779BFECFC09AC09847
:1011800087E18FB9779BFECF8AE18FB9779BFECF3E
:1011900086E58FB9779BFECFC09A84EF91E00E94DD
:1011A0000124C09888EE8FB9779BFECF80E88FB975
:1011B000779BFECFFE013196CE01039621912FB988
:1011C000779BFECFE817F907C9F7C09A84EF91E043
:1011D0000E94012478948D2D0E9402067894109329
:1011E000FE040093FD0489819A8190930205809307
:1011F0000105F0920405E09203051092FF0410929D
:1012000005050E941D06109208051092FA0410921E
:1012100009050F900F90CF91DF911F910F91FF90D3
:10122000EF90DF90089581E080930505C09883E0FA
:101230008FB9779BFECFC09AC09888E08FB9779B13
:10124000FECFC09A10920E05089581E080930505A7
:10125000C09883E08FB9779BFECFC09AC09888E092
:101260008FB9779BFECFC09A10920E050895109209
:101270000505C09886E08FB9779BFECFC09A109283
:101280000E050895BF92CF92DF92EF92FF920F93D7
:101290001F93DF93CF9300D00F92CDB7DEB78C01B1
:1012A0006B017A010E949824C09888E08FB9779BDF
:1012B000FECFC09AC09888E08FB9779BFECFC09AC6
:1012C0000E99FECF8499FCCFF894C09889E08FB92D
:1012D000779BFECFC09AC09889E08FB9779BFECFED
:1012E000C09AD80112965C911297252F332727FDBB
:1012F0003095BB2440E00AC0D8011396ED91FC91D3
:101300001497E80FF91F8081B80E4F5F842F90E08B
:10131000821793078CF3545FC0988EE38FB9779B45
:10132000FECF5FB9779BFECFC09AF80186818823F4
:1013300019F081E698E802C081E498E89A838983ED
:10134000C0988EE38FB9779BFECFFE013196CE0118
:10135000039621912FB9779BFECFE817F907C9F7BC
:10136000C09AC0988EE38FB9779BFECF8091FF041F
:101370008FB9779BFECFC09AC0988EE38FB9779BC9
:10138000FECF80E090E0FC01E350FB4F24812FB9B9
:10139000779BFECF019682309105A9F7C09AC0983D
:1013A0008EE38FB9779BFECF80E090E0F801E80FE5
:1013B000F91F20812FB9779BFECF019682309105CE
:1013C000A9F7C09AC0988EE38FB9779BFECF80E0D3
:1013D00090E0FC01E350FB4F26812FB9779BFECFB5
:1013E000019682309105A9F7C09AC601B7010E9403
:1013F0002424D80115968C9115978823A9F1809102
:101400000505882331F4C09883E08FB9779BFECF20
:10141000C09AC0981FB8779BFECF8FB1C09A81FF4A
:10142000F8CF20E0A5E0EA2EC098EFB8779BFECF7A
:10143000C09AC0981FB8779BFECFCFB0C09A2F5FDD
:10144000253649F478948091F8049091F9040E942B
:10145000C21980E060C084E690E02B830E945F1197
:101460002B81C3FEE1CF06C0C09884E08FB9779B83
:10147000FECFC09AC0988EE38FB9779BFECF40E035
:101480000CC0D8011396ED91FC911497E80FF91F49
:1014900080818FB9779BFECF4F5F842F90E0F8015A
:1014A0002281332727FD30958217930754F3C09A82
:1014B000C0988EE38FB9779BFECFBFB8779BFECFE6
:1014C000C09A849BFECFF8948499FECFC09888E0A0
:1014D0008FB9779BFECFC09AC09888E08FB9779B71
:1014E000FECFC09AC09889E08FB9779BFECFC09A93
:1014F000C09889E08FB9779BFECFC09AC09886E0EC
:101500008FB9779BFECFC09A78948091FF048F5F4C
:101510008093FF0481E00F900F900F90CF91DF91A7
:101520001F910F91FF90EF90DF90CF90BF900895A3
:10153000FF920F931F93DF93CF9300D0CDB7DEB709
:10154000FC018091FA04882331F0C0988DE08FB9B6
:10155000779BFECFC09A3281432F552747FD509588
:1015600020E060E007C0A381B481A80FB91F8C916F
:10157000280F6F5F862F90E084179507A4F3832FC1
:10158000845F9091FA0491118C5FC09898E09FB9A4
:10159000779BFECFC09AC09898E09FB9779BFECF0B
:1015A000C09A0E99FECF8499FCCFF894C09899E028
:1015B0009FB9779BFECFC09AC09899E09FB9779B5F
:1015C000FECFC09AC0989EE39FB9779BFECF8FB99C
:1015D000779BFECFC09A81E498E89A8389838091B3
:1015E0000805882321F081E698E89A838983809111
:1015F000FA04882329F089819A8188609A838983F3
:10160000C0988EE38FB9779BFECFDE011196CE0195
:1016100003963D913FB9779BFECFA817B907C9F74D
:10162000C09AC0988EE38FB9779BFECF8091FF045C
:101630008FB9779BFECFC09AC0988EE38FB9779B06
:10164000FECF80E090E0DC01A350BB4F14963C91AC
:1016500014973FB9779BFECF01968230910599F799
:10166000C09AC0988EE38FB9779BFECF80E090E060
:10167000DF01A80FB91F3C913FB9779BFECF0196C0
:1016800082309105A9F7C09AC0988EE38FB9779BF5
:10169000FECF80E090E0DC01A350BB4F16963C915A
:1016A00016973FB9779BFECF01968230910599F747
:1016B000C09A8091FA04882381F0C0988EE38FB994
:1016C000779BFECFAAE0B5E08D918FB9779BFECFD7
:1016D00085E0AE30B807C1F7C09AC0988EE38FB9E5
:1016E000779BFECF30E009C0A381B481A80FB91F5A
:1016F0008C918FB9779BFECF3F5F832F90E0428123
:10170000552747FD50958417950774F3C09AC098E4
:101710008EE38FB9779BFECF2FB9779BFECFC09A10
:101720008581882391F180910505882331F4C09843
:1017300083E08FB9779BFECFC09AC0981FB8779B84
:10174000FECF8FB1C09A81FFF8CF10E005E0C098BE
:101750000FB9779BFECFC09AC0981FB8779BFECF7A
:10176000FFB0C09A1F5F153649F478948091F80451
:101770009091F9040E94C21980E043C084E690E091
:101780000E945F11F3FEE3CF06C0C09884E08FB9DA
:10179000779BFECFC09A7894849BFECF8499FECF2E
:1017A000809108058823F9F084EA92E00E945F1195
:1017B000B79B0BC0C0988FE78FB9779BFECF1FB840
:1017C000779BFECF8FB1C09A0EC0C09888E08FB9CA
:1017D000779BFECFC09AC09888E08FB9779BFECFE9
:1017E000C09A80E001C081E0F894C09896E09FB96B
:1017F000779BFECFC09A78949091FF049F5F90935F
:10180000FF040F900F90CF91DF911F910F91FF90E8
:10181000089581E0849B80E0089581E00E9B80E044
:10182000089581E0849B80E00895DF93CF9300D0FA
:1018300000D0CDB7DEB70E9BC7C1109209050E9B35
:101840001AC0B79918C0C0988FE78FB9779BFECFA1
:101850001FB8779BFECF8FB1C09AC09888E08FB930
:10186000779BFECFC09AC09888E08FB9779BFECF58
:10187000C09A8FEFAAC1C0988FE78FB9779BFECF30
:101880001FB8779BFECF4FB1C09A4F77C1F4C09875
:101890008FE78FB9779BFECF1FB8779BFECF8FB1B5
:1018A000C09AC09888E08FB9779BFECFC09AC09845
:1018B00088E08FB9779BFECFC09A8EEF86C14C30FF
:1018C00084F0E091FD04F091FE04842F992787FDB8
:1018D00090950B972481332727FD309528173907DA
:1018E0007CF5C0988FE78FB9779BFECF50E0842FAF
:1018F000992787FD909504C01FB8779BFECF5F5F47
:10190000252F30E02817390714F4B799F5CFC09A7E
:10191000C0988FE78FB9779BFECF1FB8779BFECF1C
:101920008FB1C09AC09888E08FB9779BFECFC09ADC
:10193000C09888E08FB9779BFECFC09A8DEF45C1E4
:10194000E091FD04F091FE044C504383C0988FE772
:101950008FB9779BFECFFE013196CE0103961FB85B
:10196000779BFECF2FB12193E817F907C1F7C09AF3
:10197000E091FD04F091FE04998181E095FF80E003
:101980008783C0988FE78FB9779BFECF1FB8779B6F
:10199000FECFE091FD04F091FE048FB18083C09AE8
:1019A000C0988FE78FB9779BFECF84E005C01FB842
:1019B000779BFECF815011F0B799F9CFC09AC098AC
:1019C0008FE78FB9779BFECF80E090E01FB8779BC1
:1019D000FECFE091FD04F091FE042FB1E80FF91F56
:1019E000218301968230910589F7C09A898183FF0E
:1019F0004DC0C0988FE78FB9779BFECFE4EFF4E03E
:101A00001FB8779BFECF8FB1819384E0E83FF80742
:101A1000B9F7C09AC09889E98FB9779BFECF80E863
:101A20008FB9779BFECF82E08150E82FF0E0EC5039
:101A3000FB4F90819FB9779BFECF8823A9F7C09A6F
:101A4000C0988BE98FB9779BFECF80E88FB9779BE1
:101A5000FECF82E08150E82FF0E0EA50FB4F90810A
:101A60009FB9779BFECF8823A9F7C09AC0988CE0D6
:101A70008FB9779BFECFC09A81E080930905E091F2
:101A8000FD04F091FE04838184508383C0988FE726
:101A90008FB9779BFECF40E00FC01FB8779BFECF7A
:101AA000E091FD04F091FE048FB10580F681E02DF8
:101AB000E40FF11D80834F5FE091FD04F091FE047F
:101AC000242F30E08381992787FD909528173907C7
:101AD00024F3C09AC0988FE78FB9779BFECF1FB8C9
:101AE000779BFECF6FB1C09AC0988FE78FB9779B75
:101AF000FECFFE013396CE0105961FB8779BFECF31
:101B00002FB12193E817F907C1F7C09AE091FD04BE
:101B1000F091FE048B81808750E040E00CC0E091A2
:101B2000FD04F091FE040580F681E02DE80FF91F19
:101B30008081480F5F5FE091FD04F091FE04852FE6
:101B400090E02381332727FD3095821793073CF3DC
:101B50004617C1F0C0988FE78FB9779BFECF1FB8AB
:101B6000779BFECF8FB1C09AC09888E08FB9779BE2
:101B7000FECFC09AC09888E08FB9779BFECFC09AFD
:101B80008CEF23C08C8187FF07C080910E058F5F8B
:101B900080930E0581E019C0C0988FE78FB9779BBD
:101BA000FECF1FB8779BFECF8FB1C09AC09888E058
:101BB0008FB9779BFECFC09AC09888E08FB9779B8A
:101BC000FECFC09A8BEF01C080E00F900F900F9076
:101BD0000F90CF91DF91089580910E05882329F011
:101BE00080910E0510920E05089580E00895C0982A
:101BF00088E08FB9779BFECFC09AC09888E08FB9F4
:101C0000779BFECFC09A0895992787FD9095982FCE
:101C100088278068C09823E12FB9779BFECF9FB9B2
:101C2000779BFECF8FB9779BFECFC09A0895C0985F
:101C300086E08FB9779BFECFC09AC09882E18FB9BA
:101C4000779BFECF85E08FB9779BFECF88E08FB979
:101C5000779BFECFC09AC0988EE28FB9779BFECF5C
:101C600088E18FB9779BFECF1FB8779BFECFC09AD4
:101C70000E94F70D0895C09886E08FB9779BFECF3C
:101C8000C09AC09882E18FB9779BFECF85E08FB96B
:101C9000779BFECF1FB8779BFECFC09AC0988EE28D
:101CA0008FB9779BFECF1FB8779BFECF1FB8779B6E
:101CB000FECFC09A0E94F70D0895C09886E08FB9B4
:101CC000779BFECFC09AC09882E18FB9779BFECFF9
:101CD00085E08FB9779BFECF81E08FB9779BFECFF0
:101CE000C09A0E94F70D0895C09882E18FB9779B42
:101CF000FECF85E08FB9779BFECF84E08FB9779BCD
:101D0000FECFC09A0E94F70D089590E08F709070FA
:101D10002091FB043091FC04207F822B932B909325
:101D2000FC048093FB04C09881E18FB9779BFECFC0
:101D30008091FC048FB9779BFECF8091FB048FB913
:101D4000779BFECFC09A089590E026E0880F991FF8
:101D50002A95E1F790702091FB043091FC042F73D9
:101D6000822B932B9093FC048093FB04C09881E119
:101D70008FB9779BFECF8091FC048FB9779BFECF04
:101D80008091FB048FB9779BFECFC09A0895C098CD
:101D900084E08FB9779BFECFC09A0895C09886E003
:101DA0008FB9779BFECFC09A08955F9BFECF5F9857
:101DB0008CB108955D9BFECF5D988CB908958FEF2F
:101DC0000895882311F48BB104C0813031F48091DF
:101DD0009B00881F8827881F089580E00895CF936F
:101DE000DF93EC0107C060910F067091100690E040
:101DF0000E946A41FE01219684918823A1F7DF9118
:101E0000CF9108958F3F09F43FC0982F96959695EE
:101E1000969521E030E002C0220F331F9A95E2F739
:101E200090E08770907082309105D9F083309105F1
:101E300034F4009771F08130910541F50EC0843083
:101E40009105C1F0843091058CF085309105F1F455
:101E500015C08BB3822B8BBB07C088B3822B88BB8A
:101E600003C085B3822B85BB81E0089582B3822BAA
:101E700082BBFACF83B1822B83B9F6CF8091620007
:101E8000822B80936200F0CF8FEF08958FEF08953B
:101E90008F3F09F440C0982F96959695969521E02E
:101EA00030E002C0220F331F9A95E2F7209590E0B0
:101EB0008770907082309105D9F08330910534F4A9
:101EC000009771F08130910541F50EC08430910585
:101ED000C1F0843091058CF085309105F1F415C086
:101EE0008BB382238BBB07C088B3822388BB03C01C
:101EF00085B3822385BB81E0089582B3822382BBB0
:101F0000FACF83B1822383B9F6CF80916200822316
:101F100080936200F0CF8FEF08958FEF08958F3F89
:101F200089F1282F30E02770307022303105C1F060
:101F3000233031053CF42115310571F02130310594
:101F400009F50CC02430310579F02430310554F006
:101F500025303105B9F40AC029B309C026B307C03A
:101F600023B305C020B303C021B101C020B130E0CC
:101F700086958695869502C0359527958A95E2F7D0
:101F8000217001C02FEF822F0895882319F080B5AA
:101F90008B7F02C080B5846080BD81E008958F3F53
:101FA00009F43FC0982F96959695969521E030E0DC
:101FB00002C0220F331F9A95E2F790E0877090706D
:101FC00082309105D9F08330910534F4009771F097
:101FD0008130910541F50EC084309105C1F0843007
:101FE00091058CF085309105F1F415C08BB38227F3
:101FF0008BBB07C088B3822788BB03C085B3822709
:1020000085BB81E0089582B3822782BBFACF83B17A
:10201000822783B9F6CF8091620082278093620085
:10202000F0CF8FEF08958FEF08958F3F09F48CC0A4
:10203000982F96959695969521E030E002C0220F54
:10204000331F9A95E2F790E0662309F04AC0322FD9
:102050003095877090708230910519F18330910529
:102060003CF4009781F08130910509F06DC012C0F9
:102070008430910521F184309105D4F085309105AB
:1020800009F062C023C08AB383238ABB8BB3822B3F
:102090008BBB58C087B3832387BB88B3822B88BB95
:1020A00051C084B3832384BB85B3822B85BB4AC0D4
:1020B00081B3832381BB82B3822B82BB43C082B1B5
:1020C000832382B983B1822B83B93CC080916100A4
:1020D00083238093610080916200822B8093620051
:1020E00031C08770907082309105D9F083309105AE
:1020F00034F4009771F08130910541F50EC08430C1
:102100009105B9F08430910584F085309105F1F4A2
:1021100014C08AB3822B8ABB15C087B3822B87BBBE
:1021200011C084B3822B84BB0DC081B3822B81BBD1
:1021300009C082B1822B82B905C080916100822BD7
:102140008093610081E008958FEF08958FEF0895E7
:102150008FEF0895009711F480E009C08130910558
:1021600011F488E004C08230910529F480E10E94D6
:10217000CF0F81E008958FEF0895009711F480E06C
:1021800009C08130910511F488E004C082309105C6
:1021900029F480E10E94020F81E008958FEF0895F5
:1021A00080B5846080BD87E087BB88BB8FEF84BB30
:1021B00015BA82E082B987E68ABB80E48BBB80E5F2
:1021C0008DB981E08EB980E090E00E94BD1081E081
:1021D00090E00E94BD1082E090E00E94BD1083E07C
:1021E00090E00E94BD100895009711F480E009C0AE
:1021F0008130910511F488E004C08230910529F402
:1022000080E10E94480F81E008958FEF089590913A
:102210009B0095FFFCCF90919B009F7D90939B002E
:1022200080939C0008959093900089B986E08093F4
:1022300095005298599A8AB188618AB908950F9386
:102240001F93CF93DF930E941311CAEDDEE005EDDB
:102250001EE0CE01B8010E94DD40909310068093ED
:102260000F06CE01B8010E94DD4090930E068093C8
:102270000D06DF91CF911F910F91089590939800D3
:102280008093990086E080939D00EAE9F0E08081E8
:102290008B7F8083ABE9B0E08C9182608C938081EE
:1022A00088618083089580919B0087FFFCCF809197
:1022B0009B008F7780939B0080919C000895000085
:1022C0000000000000000197D1F708950E947442B9
:1022D00008950E947C4280E00895EF92FF920F9350
:1022E0001F93CF93DF93E82EE7017E01F92EE701DC
:1022F00080E090E00E947442082F8B8381E090E0A0
:102300000E947442E82E8A8382E090E00E94744228
:10231000F82E898383E090E00E947442182F88830E
:1023200084E090E00E947442FE0CF00EF10E8F15D6
:1023300011F481E001C08FEFDF91CF911F910F91D8
:10234000FF90EF900895CF93DF93EC0185E090E04C
:102350000E947442888381E0DF91CF910895FC014F
:1023600086E090E060810E947C4281E00895CF93F6
:10237000DF93EC0186E090E00E947442888381E064
:10238000DF91CF9108950F931F93CF93DF93082F81
:10239000192FC8E0D0E0CE010E947442F801819369
:1023A0008F012196C831D105B1F781E0DF91CF913E
:1023B0001F910F9108950F931F93CF93DF93082FD1
:1023C000192FC8E0D0E0F80161918F01CE010E9481
:1023D0007C422196C831D105B1F781E0DF91CF91E0
:1023E0001F910F910895CF93DF93EC0187E090E068
:1023F0000E947442888381E0DF91CF910895FC01AF
:1024000087E090E060810E947C4281E00895F8942A
:102410000895789408950E940712FFCF0F931F9399
:10242000DF93CF93CDB7DEB7A3970FB6F894DEBF97
:102430000FBECDBF0E947E178093CE058F3F21F443
:102440008EE060E00E9401160E947A25082F81FF2D
:1024500004C084E160E00E94011602FF04C083E131
:1024600060E00E9401161092D1051092DF051092D3
:10247000DE051092D0051092CF051092E005109263
:10248000DD05EDEBF5E08FEF80838283818333966A
:1024900095E0EC3CF907C1F793E690931B05809318
:1024A000190590933D0580933B0590935F058093BC
:1024B0005D059093810580937F059093A30580939C
:1024C000A105E4EEF5E020E030E001C09A01A901A9
:1024D0004F5F5F4FCA01880F991F880F991F840FA4
:1024E000951F8F519A4F91838083C901880F991F3F
:1024F000880F991F820F931F8F519A4F9483838364
:1025000035964530510511F71092E3051092E2051A
:102510001092FE051092FD051092D4051092D3057D
:1025200081EE95E09093100580930F058E010F5F6B
:102530001F4FC80166E871E20E94F425C80164E7F4
:1025400074E040E850E00E943A2685E580937404E8
:1025500019861C861D861E861F86188A198A1A8A65
:102560001B8A1C8A1D8A1E8A1F8A188E198E1A8E33
:102570001B8E1C8E1D8E1E8E1F8E18A219A21AA2D3
:102580001BA281E0888792E09A878B87C8010E940E
:102590006A1CA3960FB6F894DEBF0FBECDBFCF91D5
:1025A000DF911F910F910895CF92DF92FF920F93C9
:1025B0001F93DF93CF9300D0CDB7DEB719E1C12EC3
:1025C00015E0D12E90E0F601F080FF2DFF3FB1F035
:1025D00009E115E020E0921761F0F8018081F8161A
:1025E00041F485E06F2D29839A830E9401169A8118
:1025F00029812F5F0E5D1F4F253069F79F5F22E213
:1026000030E0C20ED31E9530F1F60E94461B99278A
:1026100087FD9095FC01EE0FFF1FA5E0880F991F25
:10262000AA95E1F7E80FF91FEF5EFA4F82858093D4
:10263000E005F093DF05E093DE05F093D005E0932D
:10264000CF058093D1050E946F260E9460260E94CC
:10265000BC31FFCFEF92FF920F931F93CF93DF9385
:10266000EC017B018A018985823021F08091CC05C3
:10267000888301C018828091CC05853020F087E0E6
:1026800060E00E9401168985823029F08091CC0596
:102690008F5F8093CC058091CC05882319F481E06D
:1026A0008093CC058881992787FD9095FC01EE0FDA
:1026B000FF1F75E0880F991F7A95E1F7E80FF91F62
:1026C000EF5EFA4FF182E0828885828788819927C0
:1026D00087FD9095FC01EE0FFF1F55E0880F991FB5
:1026E0005A95E1F7E80FF91FEF5EFA4F83E0818713
:1026F0002881822F992787FD9095FC01EE0FFF1FFF
:1027000035E0880F991F3A95E1F7E80FF91FEF5E62
:10271000FA4F20878881992787FD90957C01EE0CE0
:10272000FF1CB5E0880F991FBA95E1F7E80EF91E76
:1027300081E195E0E80EF91EF7011582CE010B96B6
:102740000E943720F701948F838F8B859C85AD8500
:10275000BE858E339105A105B10520F086E1688123
:102760000E940116E880FF24E7FCF094CE014B960E
:102770000E943720F701EE0FFF1F75E0EE0CFF1CE3
:102780007A95E1F7EE0DFF1DEF5EFA4F968B858B84
:102790008881992787FD90957C01EE0CFF1C55E000
:1027A000880F991F5A95E1F7E80EF91E81E195E02F
:1027B000E80EF91EF70185899689238D348D820FE5
:1027C000931F908F878BCE0143960E943720F7018D
:1027D000968F858F8881992787FD9095FC01EE0F54
:1027E000FF1F35E0880F991F3A95E1F7E80FF91FB1
:1027F000EF5EFA4F858D968D928F818F81E090E00C
:1028000090A3878F1383028381E08487888199272F
:1028100087FD9095FC01EE0FFF1F05E0880F991FC3
:102820000A95E1F7E80FF91FEF5EFA4F898581A35A
:1028300081E0DF91CF911F910F91FF90EF9008956C
:102840000E94A121089585E690E00895E091DE05BB
:10285000F091DF0584870895E091DE05F091DF05B2
:102860008485089520915004222341F0FB012083A8
:102870002091A303FC01208381E0089580E0089566
:10288000DF93CF930F92CDB7DEB7198207C080EDEB
:1028900097E00E94012489818F5F89838981843632
:1028A000B0F30F90CF91DF91089581E090E00E9406
:1028B000F4100E94401481E090E00E94BD100E943C
:1028C0004014089581E090E00E94F4100E944014AA
:1028D0000E9440140E94401481E090E00E94BD10CC
:1028E0000E9440140895FF920F931F93DF93CF939C
:1028F00000D00F92CDB7DEB700D000D000D0EDB73A
:10290000FEB731968E010F5F1F4FADB7BEB712965F
:102910001C930E93119723E431E033832283848345
:1029200015820E94E641EDB7FEB736960FB6F894D1
:10293000FEBF0FBEEDBFFF2472C0800F911FDC01F0
:102940008C918433D1F1853370F48133F9F0823383
:1029500020F4803309F05CC016C0823311F1833358
:1029600009F056C023C08733C9F1883330F485336A
:1029700069F1863309F04CC02CC08833B1F189333A
:1029800009F046C03BC00E94621402C00E94551468
:102990000E9462140E9462140E9462140E946214D7
:1029A00037C00E9455140E945514F4CF0E9455144C
:1029B0000E9455140E945514EFCF0E9455140E9496
:1029C00055140E9455140E945514E8CF0E945514C6
:1029D00002C00E9462140E94551404C00E94621436
:1029E0000E9462140E94551406C00E9462140E9444
:1029F00062140E9462140E94551408C00E9462145E
:102A00000E9462140E9462140E9462140E94551473
:102A10000E9440140E9440140E944014F394F80154
:102A200001900020E9F73197E01BF10B8F2D90E02A
:102A30008E179F0708F481CF0F900F900F90CF91C2
:102A4000DF911F910F91FF9008950F931F93809135
:102A50005004882319F41F910F9108950E940712C2
:102A60000E9407128BE793E00E94EF0E00D000D087
:102A7000EDB7FEB7319683E491E0ADB7BEB71296DD
:102A80009C938E9311978091A303828313820E945B
:102A900096410F900F900F900F9087E793E00E9460
:102AA000EF0E80915004883110F010925004809104
:102AB000500490E001978631910508F04BC08A5B85
:102AC0009F4FFC01EE0FFF1F0590F491E02D09943C
:102AD0008BE393E041C084E193E03EC080E093E06B
:102AE0003BC08AEE92E038C08FEC92E035C089EBB3
:102AF00092E032C081EA92E02FC08EE892E02CC0D2
:102B00008BE792E029C08DE592E026C088E392E051
:102B100023C08CE292E020C081E192E01DC082E0FF
:102B200092E01AC08EEE91E017C08DED91E014C0D6
:102B300089EC91E011C089EA91E00EC081E991E051
:102B40000BC086E791E008C085E691E005C086E508
:102B500091E002C08FE491E00E94EF0E60910F06B9
:102B6000709110068DE090E00E946A4160910F061E
:102B7000709110068AE090E00E946A4110E01FC048
:102B800082E090E00E94F41083E090E00E94BD108B
:102B900004E688EE93E00E9401240150D1F783E01F
:102BA00090E00E94F41082E090E00E94BD1004E6E4
:102BB00088EE93E00E9401240150D1F71F5F143189
:102BC000FCF283E090E00E94BD1082E090E00E9461
:102BD000BD108091A3030E9473140E94401482E0F0
:102BE00090E00E94F4100E94401482E090E00E9465
:102BF000BD100E944014809150040E94731410E094
:102C0000BFCFEF92FF920F931F93182FE62E809362
:102C100050046093A3030E94251500E021C082E0C8
:102C200090E00E94F41083E090E00E94BD1094E6D2
:102C3000F92E88EE93E00E940124FA94D1F783E004
:102C400090E00E94F41082E090E00E94BD1084E6C3
:102C5000F82E88EE93E00E940124FA94D1F70F5FDA
:102C60000431E8F283E090E00E94BD1082E090E041
:102C70000E94BD108E2D0E947314812F0E94731428
:102C800000E0CDCF80935004E091DE05F091DF05A8
:102C900080858093A3030E94251508956F927F92EB
:102CA0008F929F92AF92BF92CF92DF92EF92FF925C
:102CB0000F931F93CF93DF9387E893E00E94EF0E6B
:102CC00000D000D086E491E0ADB7BEB712969C93D9
:102CD0008E931197E091DE05F091DF0580859927AD
:102CE00087FD909514969C938E9313970E9496411E
:102CF000E091DE05F091DF05C281D3818FE491E0A0
:102D0000EDB7FEB792838183D483C3830E9496413B
:102D1000EDB7FEB73196ACE5EA2EA1E0FA2EADB7DD
:102D2000BEB71296FC92EE9211978881828313822D
:102D30000E949641E9E6CE2EE1E0DE2EEDB7FEB729
:102D4000D282C182E091DE05F091DF058081918120
:102D5000ADB7BEB714969C938E9313970E9496417D
:102D600073E7A72E71E0B72EEDB7FEB7B282A1824E
:102D70008091DE059091DF05948383830E949641C4
:102D800001E115E00F900F900F900F90C0E0D0E0A0
:102D900063E8662E61E0762E4701C601DC2CC92E61
:102DA000C501BA2CA92ED8011296ED90FC9013976C
:102DB00000D000D000D0EDB7FEB73196ADB7BEB7AA
:102DC00012967C926E921197D383C283F582E4822D
:102DD0000E9496410F900F90EDB7FEB73196ADB7B8
:102DE000BEB711968C92119712969C92D7018C9136
:102DF000828313820E949641EDB7FEB7D182C282D0
:102E0000D8018D919C91948383830E949641EDB764
:102E1000FEB7B182A282CE01880F991F9E0145E0C4
:102E2000220F331F4A95E1F7820F931F8F5E9A4F4F
:102E3000948383830E94964121960E5D1F4F0F90CD
:102E40000F900F900F90C530D10509F0ACCFDF91F6
:102E5000CF911F910F91FF90EF90DF90CF90BF9097
:102E6000AF909F908F907F906F900895CF93DF9356
:102E7000E091DE05F091DF05C281D381888185353F
:102E800039F00E944E1681E00E94421685E5888343
:102E9000E091DE05F091DF058081918121E18030B4
:102EA000920728F00E944E1682E10E944216DF919E
:102EB000CF910895992787FD9095FC01EE0FFF1F94
:102EC000B5E0880F991FBA95E1F7E80FF91FEF5E9B
:102ED000FA4FA281B3818C91853519F085E58C93E9
:102EE00009C08081918121E18030920728F082E140
:102EF0000E9442168FEF089581E008956091C80303
:102F00007091C9038091CA039091CB03E0E0F0E097
:102F10009B01AC010E2E04C0569547953795279519
:102F20000A94D2F720FD1AC021E030E040E050E0E2
:102F30000E2E04C0220F331F441F551F0A94D2F7D0
:102F4000262B372B482B592B2093C8033093C903CA
:102F50004093CA035093CB038E2F08953196E032ED
:102F6000F105B1F68FEF0895E091DE05F091DF05F0
:102F700065857685878590890895DF92EF92FF9227
:102F80000F931F93D82E81E0E82EF12C012D112DE7
:102F90000D2C04C0EE0CFF1C001F111F0A94D2F769
:102FA0008091C8039091C903A091CA03B091CB034B
:102FB0008E219F21A023B1230097A105B10509F41B
:102FC0005DC00E940712E8E1F5E0A8019701209595
:102FD00030954095509563E081818F3F39F186812E
:102FE0009781A085B1858E159F05A007B10731F4A3
:102FF00012861386148615861082628386819781D5
:10300000A085B18582239323A423B5238683978348
:10301000A087B18782859385A485B5858223932374
:10302000A423B52382879387A487B587B29685E0CA
:10303000E23CF80789F62EEF3FEF4FEF5FEF04C059
:10304000220F331F441F551FDA94D2F78091C80313
:103050009091C903A091CA03B091CB03822393231B
:10306000A423B5238093C8039093C903A093CA03F4
:10307000B093CB030E94091281E001C08FEF1F9132
:103080000F91FF90EF90DF900895EF92FF920F93D2
:103090001F9321E030E040E050E004C0220F331FD6
:1030A000441F551F8A95D2F7E091DE05F091DF05A8
:1030B00085859685A785B08979018A01E822F9225C
:1030C0000A231B23E114F10401051105D1F0209519
:1030D00030954095509582239323A423B52385876B
:1030E0009687A787B08B81899289A389B489822327
:1030F0009323A423B523818B928BA38BB48B81E084
:1031000001C08FEF1F910F91FF90EF9008952091D4
:10311000C8033091C9034091CA035091CB03082ED4
:1031200004C056954795379527950A94D2F7217094
:10313000307021153105E9F0E091DE05F091DF05F1
:1031400021E030E040E050E004C0220F331F441F74
:10315000551F8A95D2F785859685A785B089822BDC
:10316000932BA42BB52B85879687A787B08B81E0FF
:1031700008958FEF0895EF92FF920F931F93DF93BF
:10318000CF930F92CDB7DEB791E0E92EF12C012D50
:10319000112D04C0EE0CFF1C001F111F8A95D2F7E1
:1031A0008091C8039091C903A091CA03B091CB0349
:1031B0008E219F21A023B1230097A105B10511F411
:1031C00081E03FC00E940712E8E1F5E020E033E033
:1031D00080818130A9F482859385A485B5858E216F
:1031E0009F21A023B1230097A105B10549F03283A7
:1031F000178616861082E286F3860487158721E0FB
:103200008081823091F482859385A485B5858E1561
:103210009F05A007B10749F43283178616861082EE
:10322000128613861486158621E0B29685E0E23C6C
:10323000F80771F629830E9409122981222329F4B3
:1032400082E00E9426148FEF01C081E00F90CF91A1
:10325000DF911F910F91FF90EF900895E091DE05AF
:10326000F091DF052585368547855089262337234C
:1032700048235923211531054105510521F1618B61
:10328000728B838B948B21E027830090CE0504C042
:1032900096958795779567950A94D2F761707070C7
:1032A0006115710519F00E945C1D04C080E090E07A
:1032B0000E94831DE091DE05F091DF0521893289AE
:1032C0004389548903C020E030E0A901B901CA0153
:1032D00008959091DD059430D0F4EDEBF5E020E019
:1032E00030813F3F21F02F5F33962530C9F730E022
:1032F000F901EE0FFF1FE20FF31FE354FA4F828331
:10330000808361839F5F9093DD059F0102C020E071
:1033100030E0C9010895BC0120E030E0822FA9010E
:10332000440F551F420F531F43545A4F64177507DC
:1033300031F02F5F3F4F2530310581F78FEF089532
:103340000E948B198F3F11F481E003C0853029F46E
:1033500082E00E9426148FEF0895992787FD9095AB
:10336000FC01EE0FFF1FE80FF91FE354FA4F8FEF38
:103370008083828381838091DD0581508093DD0588
:1033800081E00895EF92FF920F931F93DF93CF9305
:103390000F92CDB7DEB70E948B19682F8F3F11F4C3
:1033A00081E003C0853029F482E00E9426148FEF6B
:1033B0008FC0082F112707FD10957801EE0CFF1C18
:1033C000E00EF11E8DEB95E0E80EF91ED701129686
:1033D0009C9112978C9198170CF079C069830E9488
:1033E000071200D000D000D0EDB7FEB7319684E9C7
:1033F00091E0ADB7BEB712969C938E931197A091B2
:10340000DE05B091DF0518968C91992787FD909580
:1034100093838283158304830E949641F7018281FE
:103420008F5F8283E091DE05F091DF051482EEEB81
:10343000F5E08DB79EB706960FB6F8949EBF0FBE07
:103440008DBF20E030E070E46981A901440F551F71
:10345000420F531F43545A4F71F0A0814A2F5527F2
:1034600047FD5095872F90E04817590724F4818134
:10347000882309F47A2F2F5F3F4F3396253031058B
:1034800021F77093CD05E8E1F5E0862F992787FDB8
:103490009095A92FB92F63E02081223089F42285ED
:1034A000338544855585281739074A075B0741F45A
:1034B00062831786168610821286138614861586F6
:1034C000B29625E0E23CF20739F70E94091281E04A
:1034D0000F90CF91DF911F910F91FF90EF90089582
:1034E0000F931F93DF93CF930F92CDB7DEB70E9458
:1034F0008B198F3F11F481E003C0853029F482E0FD
:103500000E9426148FEFA3C089830E94071289812D
:10351000082F112707FD1095F801EE0FFF1FE00F90
:10352000F11FE354FA4F92811916B4F0E091DE05D1
:10353000F091DF05978192609783992787FD909599
:10354000A92FB92F818B928BA38BB48B0E94091268
:1035500080E090E00E94831D00D000D000D0EDB745
:10356000FEB7319683EB91E0ADB7BEB712969C9350
:103570008E931197A091DE05B091DF0518968C917E
:10358000992787FD909593838283158304830E94F6
:103590009641F801EE0FFF1FE00FF11FE354FA4FC1
:1035A000828181508283EEEBF5E08DB79EB706965F
:1035B0000FB6F8949EBF0FBE8DBF80E090E060E430
:1035C0009C01220F331F280F391F23543A4F71F0EB
:1035D0007081472F552747FD5095262F30E0421721
:1035E000530724F42181222309F4672F019633968F
:1035F0008530910529F76093CD0500D000D0EDB757
:10360000FEB731968FEC91E0ADB7BEB712969C93A2
:103610008E931197628313820E949641A091DE05DA
:10362000B091DF05F801EE0FFF1FE00FF11FE3542B
:10363000FA4F81811B968C931B9781E014968C9393
:103640000F900F900F900F900E94091281E00F9041
:10365000CF91DF911F910F9108950E948B198F3F99
:1036600011F481E003C0853029F482E00E94261421
:103670008FEF0895992787FD9095FC01EE0FFF1FAE
:10368000E80FF91FE354FA4F82810895E091D305C2
:10369000F091D405808108950F931F93CF93DF930A
:1036A000C091D305D091D40589E993E00E94EF0E33
:1036B00002EE11E01FC000D000D0EDB7FEB71283BC
:1036C0000183288130E0C901880F991F45E0220F4E
:1036D000331F4A95E1F7820F931F885D9A4F9483B9
:1036E00083830E9496410B80DC81C02D0F900F9048
:1036F0000F900F902097F9F686E993E00E94EF0E65
:10370000DF91CF911F910F910895CF92DF92EF92A9
:10371000FF920F931F93CF93DF93E0910F05F091EA
:103720001005309709F47DC06091D3057091D405E0
:1037300061157105D1F1E090CD05FF24DB01282F43
:10374000332727FD30956901CC0CDD1C45E0220FA5
:10375000331F4A95E1F7C20ED31E28E235E0C20EB0
:10376000D31E9C91992319F1E60108811981492FF3
:1037700050E09A01220F331F95E0440F551F9A9590
:10378000E1F7240F351F2F5E3A4FE9012F89388D5D
:103790000217130718F40E151F0548F013960D9025
:1037A000BC91A02D1097E9F602C0A0E0B0E08083A4
:1037B000C381D481D0931005C0930F05A617B70716
:1037C000B1F4109749F0B483A38312821182129648
:1037D000FC93EE93119706C0148213821282118219
:1037E000FA83E983F093D405E093D3051AC01196C8
:1037F0008D919C911297AC17BD0759F092838183EC
:10380000B483A3831196CD91DC911297FC83EB8353
:1038100004C014821382928381831296FC93EE93E8
:103820001197DF91CF911F910F91FF90EF90DF9053
:10383000CF900895CF93DF93E091D305F091D40515
:10384000309709F444C0992787FD9095208130E096
:103850002817390781F4A381B481B093D405A093CC
:10386000D30512961C921E92119718C00380F48102
:10387000E02D309761F1208130E028173907B1F74A
:10388000C181D281838194819C838B83A381B48104
:10389000109721F01296DC93CE931197A0910F050B
:1038A000B0911005109739F4F0931005E0930F05CF
:1038B000148213820AC0B483A3831296FC93EE93FE
:1038C0001197F0931005E0930F0512821182DF919A
:1038D000CF910895EF92FF920F931F93CF93DF93B1
:1038E000EC0169817A814B815C818D819E810E948E
:1038F0000F26BC018F81882369F04B815C81CE014A
:1039000020E030E000E010E0EE24FF240E942A13C3
:103910001F8215C08881992787FD9095FC01EE0FC5
:10392000FF1FA5E0880F991FAA95E1F7E80FF91F7F
:10393000EF5EFA4F81858330E1F471836083888183
:10394000992787FD9095FC01EE0FFF1F65E0880F1A
:10395000991F6A95E1F7E80FF91FEF5EFA4F858925
:103960009689009741F482E0818788810E94851BB7
:1039700002C08FEF01C081E0DF91CF911F910F91C5
:10398000FF90EF9008951F93DF93CF93CDB7DEB7ED
:1039900028970FB6F894DEBF0FBECDBF29833A83B8
:1039A0004B835C836D837E838F8398870E9407128D
:1039B0000E949824182FCE0101960E9437209C0166
:1039C0008330910560F0E091DE05F091DF05210F75
:1039D000311D368B258B0E94091281E001C08FEFCB
:1039E00028960FB6F894DEBF0FBECDBFCF91DF9102
:1039F0001F9108950E940426E091DE05F091DF05F5
:103A000085818823B9F70895FF920F931F93DF9361
:103A1000CF93CDB7DEB728970FB6F894DEBF0FBEB1
:103A2000CDBF29833A834B835C836D837E838F83F1
:103A300098870E9436170E940712E091DE05F091E8
:103A4000DF0581E0858381E090E090A3878F0E946D
:103A50009824F82ECE0101960E943720E091DE05D1
:103A6000F091DF050F2D10E09801280F391F368BDC
:103A7000258B8F2D883F78F40E9492240F5F1F4F73
:103A8000282F30E00217130734F48F2D8E5F8093B8
:103A90004F040E9495240E9409120E94FA1C81E0A2
:103AA00028960FB6F894DEBF0FBECDBFCF91DF9141
:103AB0001F910F91FF9008951F930E940712E091AC
:103AC000DE05F091DF0581E0858386830E949824DE
:103AD000182F883F88F40E949224212F30E02F5F16
:103AE0003F4F482F50E02417350734F4812F8E5F65
:103AF00080934F040E9495240E9409120E94FA1C90
:103B000081E01F9108951F93CF93DF93EC010E94F2
:103B10000712E091DE05F091DF0581E08583D68B09
:103B2000C58B0E949824182F883F88F40E94922405
:103B3000212F30E02F5F3F4F482F50E024173507EB
:103B400034F4812F8E5F80934F040E9495240E944D
:103B500009120E94FA1C81E0DF91CF911F91089514
:103B6000EF92FF920F931F93DF93CF930F92CDB7F6
:103B7000DEB78C010E940712E091DE05F091DF05AF
:103B800081E085830E949824E091DE05F091DF05B5
:103B9000E82EFF240E0D1F1D168B058B883F90F419
:103BA00089830E9492240894E11CF11C282F30E0A4
:103BB0009981E216F30634F4892F8E5F80934F04C7
:103BC0000E9495240E9409120E94FA1C81E00F9025
:103BD000CF91DF911F910F91FF90EF9008951F9368
:103BE000CF93DF93EC010E943617209711F4C1E0C8
:103BF000D0E00E940712E091DE05F091DF0581E040
:103C00008583D0A3C78F0E949824182F883F88F4FB
:103C10000E949224212F30E02F5F3F4F482F50E029
:103C20002417350734F4812F8E5F80934F040E9450
:103C300095240E9409120E94FA1C81E0DF91CF9125
:103C40001F9108951F930E9436170E940712E0915A
:103C5000DE05F091DF0581E090E090A3878F81E0A1
:103C600085830E949824182F883F88F40E9492240C
:103C7000212F30E02F5F3F4F482F50E024173507AA
:103C800034F4812F8E5F80934F040E9495240E940C
:103C900009120E94FA1C81E01F910895E091DE054F
:103CA000F091DF0580850E941A1CE091DE05F091FD
:103CB000DF0584E081870E94221E81E008958F92B3
:103CC0009F92AF92BF92CF92DF92EF92FF920F93AB
:103CD0001F93DF93CF93CDB7DEB760970FB6F894FD
:103CE000DEBF0FBECDBF29873A874B875C876D87C4
:103CF0007E878F87988BCE0101960E94BB1ECE01D6
:103D0000099609851A852B853C854D855E856F85CD
:103D1000788989809A80AB80BC80CD80DE80EF80FE
:103D2000F8840E94191F8F3F61F029853A854B85E1
:103D30005C856D857E858F8598890E94041D81E054
:103D400001C08FEF60960FB6F894DEBF0FBECDBFF7
:103D5000CF91DF911F910F91FF90EF90DF90CF9067
:103D6000BF90AF909F908F900895E091DE05F09105
:103D7000DF0580850895EF92FF920F931F93CF93F5
:103D8000DF93EC011C821D821E821F828091D5056B
:103D90009091D605A091D705B091D80588839983D5
:103DA000AA83BB83E090D905F090DA050091DB058A
:103DB0001091DC05EC82FD820E831F830E94982403
:103DC000682F70E080E090E023EB36EE4EE050E0AC
:103DD0000E94633F6E0D7F1D801F911F6C837D834A
:103DE0008E839F8313C080509A4CAA49BB438C8317
:103DF0009D83AE83BF8388819981AA81BB8101960F
:103E0000A11DB11D88839983AA83BB838C819D8169
:103E1000AE81BF8180302AEC92072AE9A2072BE30A
:103E2000B20708F7DF91CF911F910F91FF90EF90AC
:103E300008958F929F92AF92BF92CF92DF92EF92AE
:103E4000FF920F931F93DF93CF93CDB7DEB76097A9
:103E50000FB6F894DEBF0FBECDBFFC0109831A83F5
:103E60002B833C834D835E836F83788789869A8614
:103E7000AB86BC86CD86DE86EF86F88AE980FA803E
:103E80000B811C812D813E814F815885A984BA8484
:103E9000CB84DC848D859E85AF85B889EA14FB04CC
:103EA0000C051D0508F440C0AE14BF04C006D106C1
:103EB00091F4281739074A075B07B0F1281B390B23
:103EC0004A0B5B0B24833583468357831082118210
:103ED0001282138227C0281739074A075B0790F41C
:103EE0000894E108F10801091109EA18FB080C0916
:103EF0001D09E082F1820283138320503643454638
:103F0000544C08C0EA18FB080C091D09E082F18234
:103F100002831383281B390B4A0B5B0B24833583E5
:103F20004683578381E001C08FEF60960FB6F89407
:103F3000DEBF0FBECDBFCF91DF911F910F91FF90DC
:103F4000EF90DF90CF90BF90AF909F908F900895AB
:103F5000FC0114C020503A4C4A495B43248335830A
:103F60004683578320813181428153812F5F3F4FA8
:103F70004F4F5F4F208331834283538324813581A8
:103F80004681578120308AEC38078AE948078BE35D
:103F9000580700F708958F929F92AF92BF92CF92E9
:103FA000DF92EF92FF920F931F93DF93CF93CDB7E2
:103FB000DEB760970FB6F894DEBF0FBECDBF0983A2
:103FC0001A832B833C834D835E836F837887898636
:103FD0009A86AB86BC86CD86DE86EF86F88A2985F2
:103FE0003A854B855C85E980FA800B811C812E0D1A
:103FF0003F1D401F511FFC012083318342835383A7
:104000002D853E854F855889ED80FE800F8118856E
:104010002E0D3F1D401F511F248335834683578338
:104020000E94A81F81E060960FB6F894DEBF0FBE15
:10403000CDBFCF91DF911F910F91FF90EF90DF9057
:10404000CF90BF90AF909F908F9008956093D505CB
:104050007093D6058093D7059093D8052093D90502
:104060003093DA054093DB055093DC0508958F9279
:104070009F92AF92BF92CF92DF92EF92FF920F93F7
:104080001F93FC01208131814281538164817581BC
:1040900086819781211531054105510509F461C0DB
:1040A000223431054105510508F062C05B016C0105
:1040B000EE24FF24870160E038C08A2CAB2DA65384
:1040C000F1E0AB1508F0F0E08C2D865691E08C15F0
:1040D00008F090E0F80F71E0F81708F070E0972B07
:1040E0007D2D755CE1E07D1508F0E0E0970F81E043
:1040F000971708F080E08E2B8E0DE1E08E1508F00A
:10410000E0E0EF0D71E0EF1508F070E0700FB1E046
:10411000701708F0B0E0B10FA82CBA2ECF2ED92E10
:10412000E82EFE2E072F1B2F6F5F862F90E0A0E05A
:10413000B0E082179307A407B50708F4BECF950136
:10414000A601B701C801A3EBAA2EF6EEBF2EEEE042
:10415000CE2EDD24EE24FF2400E010E00E94E731A3
:1041600009C023EB36EE4EE050E00E94963F02C0BD
:1041700020E030E0C9011F910F91FF90EF90DF9098
:10418000CF90BF90AF909F908F900895EF92FF9245
:104190000F931F93DF93CF93CDB7DEB728970FB65A
:1041A000F894DEBF0FBECDBF7B018C01BAE016953F
:1041B0000795F794E794BA95D1F7E982FA820B83D1
:1041C0001C8373708070907023EB36EE4EE050E0ED
:1041D0000E94633F6D837E838F8398872E2D3A8163
:1041E0004B815C8128960FB6F894DEBF0FBECDBF21
:1041F000CF91DF911F910F91FF90EF9008958F92D3
:104200009F92AF92BF92CF92DF92EF92FF920F9365
:104210001F93FC012081318142815381648175812A
:1042200086819781211531054105510509F45BC04F
:104230005B016C01EE24FF24870160E038C08A2C0A
:10424000AB2DA653F1E0AB1508F0F0E08C2D8656AF
:1042500091E08C1508F090E0F80F71E0F81708F085
:1042600070E0972B7D2D755CE1E07D1508F0E0E0B6
:10427000970F81E0971708F080E08E2B8E0DE1E01C
:104280008E1508F0E0E0EF0D71E0EF1508F070E03A
:10429000700FB1E0701708F0B0E0B10FA82CBA2E83
:1042A000CF2ED92EE82EFE2E072F1B2F6F5F862FC5
:1042B00090E0A0E0B0E082179307A407B50708F4E8
:1042C000BECF9501A601B701C801E3EBAE2E06EE05
:1042D000B02E1EE0C12EDD24EE24FF2400E010E00D
:1042E0000E94E73106C023EB36EE4EE050E00E941C
:1042F000963FB901CA011F910F91FF90EF90DF9097
:10430000CF90BF90AF909F908F9008951F9311E032
:104310000E9436170E949224853110F41093D20522
:104320000E94042680917404853519F088E00E946B
:10433000421680917E10853559F388E00E9442161E
:10434000E7CF2F923F924F925F926F927F928F9220
:104350009F92AF92BF92CF92DF92EF92FF920F9314
:104360001F93DF93CF930F92CDB7DEB70E949124B6
:104370000E9407120E940D240E9413242C018AEF30
:104380000E94952460914F0470E080E090E023EB60
:1043900036EE4EE050E00E94633F7B018C0180913D
:1043A000D9059091DA05A091DB05B091DC05E80E06
:1043B000F91E0A1F1B1FC801B7010E94963FE61A8B
:1043C000F70A080B190B8091D5059091D605A0919D
:1043D000D705B091D805E3EBAE2EE6EEBE2EEEE0AB
:1043E000CE2ED12C14C080E096E3A5E6B4ECE80E06
:1043F000F91E0A1F1B1FC801B701A60195010E94E3
:10440000963FE61AF70A080B190BD401C3013C01C9
:104410004D010894611C711C811C911CE0E0EE169A
:10442000EAECFE06EAE90E07EBE31E07E0F68093EE
:10443000D5059093D605A093D705B093D805E09203
:10444000D905F092DA050093DB051093DC05E091C5
:10445000DE05F091DF0585818823B9F08185843000
:10446000A1F08781823029F0882341F0868188235A
:1044700011F485E001C083E0818704C083E0818777
:104480001782168280850E941A1CE091DE05F09149
:10449000DF05858D968D009709F455C060856623EC
:1044A00009F451C08185843009F44DC0218D328DCD
:1044B00080914F0490E028173907F0F482E00E94C1
:1044C0000116E091DE05F091DF0581A1833089F4CA
:1044D00086EE91E00E94AF41E091DE05F091DF05AC
:1044E000858D968D928F818F838D948D908F878B04
:1044F00007C0128E118E04C0281B390B328F218FFA
:10450000E091DE05F091DF050085218D328D2115CA
:104510003105C9F481A1813071F483E0602F0E94DC
:104520000116E091DE05F091DF0583E08187802FA1
:104530000E941A1C08C0858D968D928F818F838D65
:10454000948D908F878B76E1272E75E0372E00E6CD
:104550001AEE20E061E0662E712C5AEFE52EF12C68
:1045600042E0942E31E0A32EB12CC12CD12CD101EC
:1045700013968C9113978F3F09F4C4C01C92882323
:1045800009F443C014968C9114978430F1F150963D
:104590004D915C91519780914F0490E048175907D5
:1045A00038F0481B590B51965C934E93509703C0BB
:1045B000F101118A108AD10152964D915C91539765
:1045C0004817590738F0481B590B53965C934E9384
:1045D000529712C0F101668977898617970728F4E8
:1045E000681B790B738B628B07C00E94823FD101DD
:1045F00053969C938E935297F101828993890097E9
:1046000021F486899789938B828BD10114968C91A2
:104610001497833009F076C050968D919C915197F4
:10462000009709F066C012968C9112978823A9F022
:1046300011968C911197882381F0D601C5010090C5
:10464000CE0504C0880F991FAA1FBB1F0A94D2F77A
:10465000F10184879587A687B787D10112961C92AE
:10466000129711961C9211971C925A964D915C913B
:104670005B9756968D919C91579758966D917C912A
:10468000599741305105D9F455967C936E935497C0
:1046900014969C92149752964D915C915397519613
:1046A0005C934E935097009721F45196FC92EE92B2
:1046B0005097822F29830E94851B29811AC0F101FE
:1046C000758B648BBA0161507040689FA001699F2F
:1046D000500D789F500D1124518B408B538B428B82
:1046E000009711F4F18AE08AD1015B967C926E9278
:1046F0005A97F10180899189009721F080179107DD
:1047000008F48C012F5F82E290E0280E391E2530DC
:1047100009F02DCF0E94461BE82E282F332727FDB6
:104720003095F901EE0FFF1F85E0220F331F8A95A8
:10473000E1F7E20FF31FEF5EFA4F82858093E00509
:10474000F093D005E093CF05EE20B9F0258D368D9E
:104750002115310551F0218D328D2A3F310528F484
:104760002017310708F44BC00DC098010B3F11050D
:1047700008F445C02AEF30E042C00B3F110510F0AD
:104780000AEF10E08093D105F093DF05E093DE059A
:1047900000934F040E949824282F30E02F5F3F4F52
:1047A0002017310740F00E949824082F10E00E5F78
:1047B0001F4F00934F04EE2011F01092D205802F6E
:1047C0000E949524C2016EEE72E00E9424240E9491
:1047D00059260E94BC310F90CF91DF911F910F910C
:1047E000FF90EF90DF90CF90BF90AF909F908F9011
:1047F0007F906F905F904F903F902F900895890128
:10480000C1CF00000000000000000197D1F708951B
:104810001EBC089581E08EBD089580B5816080BD85
:104820001DBC1CBC0895DF93CF9300D0CDB7DEB77D
:104830008CB59DB59A83898329813A81C9010F90EE
:104840000F90CF91DF910895EF92FF920F931F93F6
:10485000CF93DF93EC018FEFC937D80710F0C0E09A
:10486000D0E07E0100E010E080E090E0E60EF71E70
:10487000081F191F91E0E91690E0F90691E0090779
:1048800090E0190768F080E090E0AFEFBFEFE80E2E
:10489000F91E0A1F1B1F0E941324C817D907D8F33B
:1048A0000E9413248E159F05D8F3DF91CF911F919D
:1048B0000F91FF90EF90089582BF089513BE87B7C0
:1048C0008D7F87BF87B78E7F87BF08958BE083BFBB
:1048D00087B7836087BF089580B5826080BD12BEB0
:1048E0001092A40310924F0408958EEF80934F040A
:1048F00098E090BF81BF83E086BF8BE083BF80B527
:10490000876080BD1FBC81E08EBD1DBC1CBC80B516
:10491000816080BD0E946C240E9466241092A403D2
:104920000895089581B78F5F0895815081BF0895DC
:1049300082B708951F920F920FB60F920BB60F9287
:1049400011242F933F934F935F936F937F938F9394
:104950009F93AF93BF93EF93FF938AE060E00E9431
:104960000116FF91EF91BF91AF919F918F917F9130
:104970006F915F914F913F912F910F900BBE0F90D0
:104980000FBE0F901F9018950F920FB60F921F92A7
:104990002F923F924F925F926F927F928F929F924F
:1049A000AF92BF92CF92DF92EF92FF920F931F933D
:1049B0002F933F934F935F936F937F938F939F9327
:1049C000AF93BF93CF93DF93EF93FF93A091DE0557
:1049D000B091DF050DB60D920EB60D921F92A0910B
:1049E0004C04B0914D041E90BEBFADBF0895882306
:1049F00019F487B78F7787BF8FEF0895882319F44D
:104A000014BC81E008958FEF0895882319F424B52C
:104A100030E002C020E030E0C9010895882329F485
:104A200087B7806887BF81E008958FEF0895882356
:104A300059F5CB0101978530910510F460934E0430
:104A400088E085BD43BD3093200320931F038091F0
:104A50004E04813019F485B5816009C0823019F4A3
:104A600085B5826004C0833029F485B5836085BD37
:104A700081E00895843019F485B58460F8CF8530DD
:104A800029F485B58560F3CF8FEF089581E008950F
:104A90001F920F920FB60F920BB60F9211242F9305
:104AA0003F934F935F936F937F938F939F93AF93B6
:104AB000BF93EF93FF93E0911F03F0912003309792
:104AC00011F0099504C08AE060E00E940116FF9190
:104AD000EF91BF91AF919F918F917F916F915F9176
:104AE0004F913F912F910F900BBE0F900FBE0F90E3
:104AF0001F90189504B603FC02C080E001C080E15D
:104B000004B602FE06C094B79B7F94BF04B600FEB5
:104B1000846004B601FE05C094B79D7F94BF826097
:104B20000895882359F404B600FE04C094B79E7F0C
:104B300094BF01C081E093B79111816008958FEF18
:104B400008958FEF08958FEF08951F920F920FB67B
:104B50000F920BB60F9211242F933F934F935F93B5
:104B60006F937F938F939F93AF93BF93EF93FF9335
:104B70008AE060E00E940116FF91EF91BF91AF9132
:104B80009F918F917F916F915F914F913F912F9165
:104B90000F900BBE0F900FBE0F901F9018950E94A4
:104BA0000712A89584B7877F84BF81B5886181BDCE
:104BB00011BC0E94091208950E94071284B7877FD2
:104BC00084BFA89581B5886181BD8FE081BD0E94B9
:104BD0000912089504B603FC02C081E008958FEF26
:104BE0000895A89508950895FC0176836583089536
:104BF00085B7837E886185BF85B7806285BF8895CC
:104C000085B78F7D85BF089585B7837E85BF85B7BE
:104C1000806285BF889585B78F7D85BF089525E51E
:104C2000FA012083FB0132979083818312921292C2
:104C30001292129212921292129212921292129254
:104C40001292129212921292129212921292129244
:104C50001292129212921292129212921292129234
:104C60001292129212921292129212921292129224
:104C7000CF010895EF92FF920F931F93CF93DF938D
:104C8000EC018B017A014032510518F481E10E9458
:104C900042160894E108F108E00EF11EFA82E9825A
:104CA0001C830B83DF91CF911F910F91FF90EF90A9
:104CB000089580E294E19093FE108093FF10089590
:104CC00085E580937E10EEEFF0E1F0934D04E093E4
:104CD0004C0480E294E190838093FF1008950E9439
:104CE00075240E94091208950E94CA2608951F93F0
:104CF000DF93CF930F92CDB7DEB7142F83708C6202
:104D000069830E9435276981613011F480E001C018
:104D100080E80E94FD26812F0E94FD260E94F12638
:104D20000F90CF91DF911F910895DF93CF9300D023
:104D3000CDB7DEB780E487B986E086B9379A369A70
:104D40003699FECF84B195B19A8389830F900F90E5
:104D5000CF91DF9108953798089597B18F71907E24
:104D6000892B87B9369A3699FECF24B135B1C9015E
:104D700008958EE10E94AD26BC0180E090E00E9483
:104D8000E53C9B01AC0164EA70E78DE994E40E9484
:104D9000513C0895E1E7F0E08081808381E08093D9
:104DA000700084E08093740008958091740087FF00
:104DB000FCCF0895E4E7F0E0808180688083089567
:104DC000CF93DF93C4E7D0E08881806288830E941C
:104DD000DA260E94D52688818F7D8883DF91CF9146
:104DE0000895809174008061809374000E94DA2697
:104DF0008091740084FDFCCF0895809373000E941D
:104E0000DA260E94D52680917100887F883241F091
:104E100090917100987F81E0983119F480E00895B5
:104E200080E00895009721F080917400806403C0B1
:104E3000809174008F7B809374000E94DA260E9418
:104E4000D526809173000895DF93CF930F92CDB74D
:104E5000DEB789830E94E0268981880F81600E94E5
:104E6000FD260F90CF91DF910895DF93CF930F929E
:104E7000CDB7DEB789830E94E0268981880F0E9422
:104E8000FD260F90CF91DF9108950E94952681E035
:104E900080931003089580911003882311F40E94D9
:104EA00045270E94AB260895DF93CF930F92CDB78D
:104EB000DEB790911003992321F489830E9445273E
:104EC0008981A898A098813019F41D9A159A02C07A
:104ED0001D9815980F90CF91DF910895DF93CF9390
:104EE0000F92CDB7DEB790911003992321F48983F7
:104EF0000E94452789811D981598813019F4A89A38
:104F0000A09A02C0A898A0980F90CF91DF91089521
:104F100080911003882311F40E94452781E00E94AC
:104F2000542781E00E94AD260895809110038823C4
:104F300011F40E94452781E00E946E2781E00E94C3
:104F4000AD260895AF92BF92CF92DF92EF92FF927B
:104F50000F931F930E949527BC0180E090E00E9470
:104F6000E53C8B017C0160E070EC8FE794E4202F3E
:104F7000312F4E2D5F2D0E94EC3B20E030E44CE1C0
:104F800056E40E94BC3D202F312F4E2D5F2D0E94F4
:104F9000513C0E947C3D7B018C0120E030E040E4EC
:104FA00050E40E941F3ED62EC72EB82EA92EC8014F
:104FB000B70129E733EE4DE759E30E94BC3D28ECE9
:104FC00032E644E85AE30E94ED3B7B018C01A601E6
:104FD0009501652F742F832F922F2DE234EC4CE135
:104FE00054E30E94BC3D9B01AC01C801B7010E9483
:104FF000ED3B9B01AC0160E070E080E89FE30E9424
:10500000513C1F910F91FF90EF90DF90CF90BF9098
:10501000AF9008950E94A22723E333E948E853E4C0
:105020000E94EC3B08950E9495260E94742681E020
:1050300080931103089580911103882311F40E9435
:1050400013280E94AB260895DF93CF930F92CDB71C
:10505000DEB790911103992321F489830E941328CC
:105060008981813011F4AC9A01C0AC980F90CF9136
:10507000DF910895DF93CF930F92CDB7DEB7909174
:105080001103992321F489830E9413288981813097
:1050900011F4AD9A01C0AD980F90CF91DF910895B2
:1050A0001F93182F80911103882311F40E94132855
:1050B00080E00E946428113019F4A89AA09A02C0D6
:1050C000A898A0981F9108951F93182F80911103FD
:1050D000882311F40E94132880E00E945028113088
:1050E00019F41D9A159A02C01D9815981F910895DC
:1050F000DF93CF930F92CDB7DEB790911103992331
:1051000021F489830E9413288981813011F4AA9A9D
:1051100001C0AA980F90CF91DF910895DF93CF93AC
:105120000F92CDB7DEB790911103992321F48983B3
:105130000E9413288981813011F4AB9A01C0AB9889
:105140000F90CF91DF910895DF93CF930F92CDB75A
:10515000DEB7482F80911103882321F449830E94F0
:105160001328498180E061E00E9477260F90CF915B
:10517000DF910895DF93CF930F92CDB7DEB7482F1D
:1051800080911103882321F449830E9413284981C7
:1051900080E062E00E9477260F90CF91DF91089522
:1051A000DF93CF930F92CDB7DEB7482F80911103D5
:1051B000882321F449830E941328498181E061E01A
:1051C0000E9477260F90CF91DF910895DF93CF93C0
:1051D0000F92CDB7DEB790911103992321F4898303
:1051E0000E9413288981882311F4AE9A03C081306C
:1051F00009F4AE980F90CF91DF910895809111033B
:10520000882311F40E94132881E00E94642881E021
:105210000E94AD26089580911103882311F40E9405
:10522000132881E00E94502881E00E94AD26089555
:1052300080911103882311F40E94132882E00E94B8
:10524000AD26089580911103882311F40E9413283C
:1052500083E00E94AD26089580911103882311F404
:105260000E94132884E00E94AD26089580911103C6
:10527000882311F40E94132885E00E94AD2608952A
:1052800080911103882311F40E94132886E00E9464
:10529000AD26089589E993E00197F1F700C0DC9805
:1052A000D49A89E993E00197F1F700C0D498DC9A89
:1052B000CC9BFECF80E007C091E39A95F1F7000008
:1052C0008F5F8F3149F0CC99F7CF89E993E001974F
:1052D000F1F700C080E008958FEF0895882361F40E
:1052E000DC98D49A84EC8A95F1F700C0D498DC9AC3
:1052F00081E38A95F1F70BC0DC98D49A88E18A950E
:10530000F1F700C0D498DC9A8DED8A95F1F7000092
:105310000895DC98D49A82E08A95F1F700C0D49879
:10532000DC9A96E19A95F1F7000089B394EC9A958E
:10533000F1F700C090E08071907024E0959587951A
:105340002A95E1F70895FF920F931F93CF93DF9370
:10535000F82EC0E0D0E001E010E098010C2E02C071
:10536000220F331F0A94E2F78F2D82230E946E29A9
:105370002196C830D10589F7DF91CF911F910F9108
:10538000FF9008951F93CF93DF93C0E0D0E010E02B
:105390000E948929282F30E00C2E02C0220F331FD3
:1053A0000A94E2F7122B2196C830D10589F7812F94
:1053B000DF91CF911F9108958FE00E94A329089556
:1053C00080B58B7F80BDD498DC9A86EF8A95F1F703
:1053D0000895EF92FF920F931F93DF93CF9300D026
:1053E00000D0CDB7DEB77C0119821A821B821C82E5
:1053F0000E944A29882339F0282F332727FD30952A
:10540000432F532F27C00E94DC290E94C2298130DC
:1054100019F08EEFF70180838E010F5F1F4F0E94FE
:10542000C22989830E94C229F80181830E94C2296E
:10543000F80182830E94C229F80183830E94C22955
:105440000E94C2290E94C229F701108229813A8153
:105450004B815C81B901CA010F900F900F900F90A2
:10546000CF91DF911F910F91FF90EF900895AA982F
:10547000959887FF02C0939A01C09398959A959842
:1054800086FF02C0939A01C09398959A959885FFDC
:1054900002C0939A01C09398959A959884FF02C090
:1054A000939A01C09398959A959883FF02C0939A16
:1054B00001C09398959A959882FF02C0939A01C073
:1054C0009398959A959881FF02C0939A01C09398FA
:1054D000959A959880FF02C0939A01C09398959AE7
:1054E000959AAA9A0895DF93CF9300D00F92CDB7E3
:1054F000DEB7A89A19821FC0A898898180550E949A
:10550000372A80E10E94372A80E00E94372AA89A31
:105510001B821A8208C080E00E94372A8A819B8100
:1055200001969B838A838A819B81803891059CF3B5
:1055300089818F5F898389818830F0F20F900F9085
:105540000F90CF91DF910895C498BC9A85B387607E
:1055500085BB84B3876084BB81B3886281BB939A27
:1055600088E785BB84B3877884BBA898A9988FEF18
:105570009FE3A2E081509040A040E1F700C000000E
:10558000A99A8FEF9FE3A2E081509040A040E1F7FD
:1055900000C0000080E40E94372A81EA0E94372A76
:1055A00080EC0E94372A86EA0E94372A82EA0E940B
:1055B000372A8FE20E94372A88EF0E94372A80E03C
:1055C0000E94372A87E20E94372A81E80E94372A00
:1055D00080E10E94372A8CEA0E94372A80E00E94EC
:1055E000372A8FEA0E94372A0E94732A0895813051
:1055F00011F4C49A0895C4980895EF92FF920F93FE
:105600001F93DF93CF930F92CDB7DEB7082F162FDE
:10561000A898842F805599830E94372A812F8295DC
:105620008F7080610E94372A812F8F700E94372AE5
:10563000A89A9981602F792F7B011AC000E010E0B1
:10564000D701EC91B5E0EB9FF0011124E00FF11FC1
:10565000EB55FC4F84910E94372A0F5F1F4F053096
:10566000110571F780E00E94372A0894E11CF11CB3
:10567000F7018081882311F70F90CF91DF911F915F
:105680000F91FF90EF90089560910F0670911006B2
:1056900090E00E946A41089580E00E94E10E882314
:1056A00049F080910D0690910E060E942841282F06
:1056B00030E002C02FEF3FEFC9010895BF92CF92B3
:1056C000DF92EF92FF920F931F93DF93CF9300D05F
:1056D00000D00F92CDB7DEB7D82EB62E20EA36E82E
:1056E00041E050E029833A834B835C8381E19D83D1
:1056F0000E94442B8B2D0E94442B81E1C82ECB0CA1
:105700009D810D2D192F09C07801F80181918F011C
:105710000E94442BF7018081C80E802F8D198B15B4
:1057200098F38C2D0E94442B0E944C2B29813A81A6
:105730004B815C81215030404040504029833A8366
:105740004B835C83863051F089819A81AB81BC8127
:105750000097A105B10541F78FEF01C080E00F90E0
:105760000F900F900F900F90CF91DF911F910F919D
:10577000FF90EF90DF90CF90BF900895CF92DF928F
:10578000EF92FF920F931F93DF93CF9300D000D03F
:10579000CDB7DEB7F82E092F20EA36E841E050E019
:1057A00029833A834B835C8382E10E94442B81E00E
:1057B0000E94442B83E50E94442B86E60E94442BE2
:1057C0000E944C2B29813A814B815C8121503040D1
:1057D0004040504029833A834B835C83863061F09C
:1057E00029813A814B815C812115310541055105A3
:1057F00039F7EE24E39401C0EE240E944C2B2FEFE6
:105800008F3F9207D1F38131910559F50E944C2BBE
:10581000EFEF8F3F9E07D1F3D82E91E1C92ECD0C2B
:10582000802F0F2D182F0AC00E944C2BFFEF8F3FA7
:105830009F07D1F3F80181938F01C80E802F8F1934
:105840008D1590F30E944C2BFFEF8F3F9F07D1F3F4
:105850002C2D30E08217930721F4EE2011F48D2DCA
:1058600001C08FEF0F900F900F900F90CF91DF91AD
:105870001F910F91FF90EF90DF90CF900895CF92FE
:10588000DF92EF92FF920F931F93DF93CF9300D09D
:1058900000D0CDB7DEB78C017B0180E492E4AFE0AD
:1058A000B0E089839A83AB83BC8382E10E94442B5E
:1058B00081E00E94442B89E40E94442B8CE50E94E5
:1058C000442B0E944C2B29813A814B815C812150D1
:1058D00030404040504029833A834B835C8386307C
:1058E00059F089819A81AB81BC810097A105B105EE
:1058F00041F7DD24D39401C0DD240E944C2B2FEF0F
:105900008F3F9207D1F38231910551F50E944C2BC4
:10591000EFEF8F3F9E07D1F3823011F50E944C2BA1
:10592000FFEF8F3F9F07D1F324E1C22EC80EF8018D
:1059300080830E944C2BFFEF8F3F9F07D1F30C2DEC
:10594000080FF70180830E944C2BFFEF8F3F9F07CA
:10595000D1F3202F30E08217930711F4DD2011F0EE
:105960008FEF01C080E00F900F900F900F90CF91BC
:10597000DF911F910F91FF90EF90DF90CF900895EE
:105980000F931F93DF93CF9300D000D0CDB7DEB736
:10599000182F062F20E432E44FE050E029833A83A9
:1059A0004B835C8382E10E94442B83E00E94442B62
:1059B00084E40E94442B812F0E94442B802F0E945C
:1059C000442B812F875A800F0E94442B0E944C2B1E
:1059D00029813A814B815C812150304040405040C8
:1059E00029833A834B835C83863051F089819A8185
:1059F000AB81BC810097A105B10541F78FEF01C0D4
:105A000080E00F900F900F900F90CF91DF911F913A
:105A10000F910895BF92CF92DF92EF92FF920F9372
:105A20001F93DF93CF9300D000D0CDB7DEB76C01CA
:105A30008B017A0180E492E4AFE0B0E089839A833D
:105A4000AB83BC8382E10E94442B81E00E94442B03
:105A500080E50E94442B83E60E94442B0E944C2B3D
:105A600029813A814B815C81215030404040504037
:105A700029833A834B835C83863049F089819A81FC
:105A8000AB81BC810097A105B10541F73BC00E94E5
:105A90004C2B2FEF8F3F9207D1F38231910591F577
:105AA0000E944C2BEFEF8F3F9E07D1F3833051F5CF
:105AB0000E944C2BFFEF8F3F9F07D1F335E1B32EB0
:105AC000B80EF60180830E944C2BFFEF8F3F9F079B
:105AD000D1F3CB2CC80EF80180830E944C2BFFEF32
