:100000000C94D4040C944D250C94F3040C94F30438
:100010000C94F3040C94F3040C94F3040C94F30484
:100020000C94F3040C94F0240C94F3040C94F30457
:100030000C94F3040C94F3040C94F3040C946C24CB
:100040000C946C240C94F3040C94F3040C94F304BB
:100050000C94F3040C94F3040C94F3040C94F30444
:100060000C94F3040C94F3040C94F3040C94F30434
:100070000C94F3040C94F3040C94F3040C94F30424
:100080000C94F3040C94F3040C94F3044B155115E5
:10009000541557155A155D156315601566156915C4
:1000A0006C15751578157B157E15721548154E154E
:1000B000811584156F15451508000000BE9224496E
:1000C000123EABAAAA2ABECDCCCC4C3E000000808A
:1000D000BEABAAAAAA3E00000000BF000000803FFD
:1000E0000000000000084178D3BB4387D1133D19BD
:1000F0000E3CC3BD4282AD2B3E68EC8276BED98FEA
:10010000E1A93E4C80EFFFBE01C4FF7F3F0000002D
:10011000000007634236B79BD8A71A39685618AE55
:10012000BAAB558C1D3CB7CC5763BD6DEDFD753E2C
:10013000F6177231BF000000803F4572726F722067
:100140006372656174696E672073656D0D0A005591
:100150004E4B4F574E0045787465726E616C20525D
:10016000657365740042726F776E204F757420441A
:100170006574656374004661696C656420746F2002
:100180006372656174652053656D6170686F726537
:10019000004661696C656420746F206372656174E8
:1001A00065205369676E616C004B65726E656C20EB
:1001B00066756E6374696F6E206E6F7420696D7002
:1001C0006C656D656E746564004465766963652071
:1001D000447269766572204572726F72005761745D
:1001E0006368646F6720526573746172740053575B
:1001F000205761746368646F67205265737461721D
:10020000740054696D6572204F766572666C6F7705
:1002100000556E68616E646C656420496E74657229
:100220007275707420566563746F72004C6F77201E
:10023000566F6C7461676500457874726120546113
:10024000736B20737461727465642C206973206E03
:10025000726B5F6366672E68206F6B3F0049646C4A
:1002600065206F72204B65726E656C2053746163FC
:100270006B204F766572666C6F7700556E6578708F
:1002800065637465642052657374617274004475AB
:10029000706C696361746564205461736B204944B8
:1002A000005363686564756C6572204D697373658E
:1002B000642057616B657570005461736B205265E3
:1002C00073657276652056696F6C6174656400525F
:1002D000657365727665204572726F7220696E2053
:1002E0005363686564756C657200496E76616C690C
:1002F0006420537461636B20506F696E7465720083
:100300005461736B20537461636B204F7665726622
:100310006C6F7700537461636B20776173206E6F2D
:100320007420646566696E6564206173206C617217
:10033000676520656E6F75676821005461736B2077
:10034000706572696F6420746F6F206C617267658D
:100350002E20506572696F64206D7573742062651C
:10036000206C657373207468616E2036312073656C
:10037000636F6E64732E00293A20002A4E524B2080
:100380004552524F5228000D0A535441434B2044CA
:10039000554D500D0A000A0D006E726B5F71756548
:1003A00075653A200008082A1C08081C2A0808401D
:1003B000444A514040514A444014741C17141020C0
:1003C0007F010100000000000000000000081C2C5C
:1003D00008087F01010101010101017F7F404040C8
:1003E00040404040407F000000000000000000004E
:1003F00000000000007911271179000000000000C2
:100400000000000000000000007F010101036050B7
:1004100048447E3E4949493E700C030C706349498B
:100420004963017F017F01635549414106017E0116
:100430000608557F55080F107F100F4E7101714E41
:100440003844443844000000000000005F0000030E
:1004500000030000143E143E1426497F4932621501
:100460002A542336495620500003000000001C2265
:1004700041000041221C0000140E140008083E0830
:1004800008006000000008080808000040000000A4
:1004900060100804033E4141413E04027F000062B7
:1004A0005149454222414949360C0B087E084F49C3
:1004B0004949313E494949326111090503364949E3
:1004C0004936264949493E002200000000610000EB
:1004D00000081414222214141414142222141408D0
:1004E00006015905023E415D555E7E0909097E7F80
:1004F000494949363E414141227F4141413E7F4980
:100500004949417F090909013E414949327F0808AB
:10051000087F00007F0000204040403F7F081422F9
:10052000417F404040007F0204027F7F021C207F09
:100530003E4141413E7F090909063E4151617E7FAE
:1005400009192946264949493201017F01013F40E5
:1005500040403F1F2040201F3F4030403F63140871
:100560001463030478040361514945437F4100004B
:10057000000000000000000000417F0601060000AE
:100580004040404040010200000020545454787F15
:10059000484848303844444428384444447F385418
:1005A000545418087E0909010C5252523E7F04042B
:1005B0000478047D404020204040443D007F1028C6
:1005C00044203E5149467C047C04787C080404782D
:1005D00038444444387E1212120C0C1212127E045B
:1005E000780404084854545424043F4444403C4094
:1005F000403C401C2040201C3C4030403C442810E3
:100600002844264848483E4464544C4400083E412F
:100610000000007F000000413E08000000000000D4
:1006200000000000000000000000000000000000CA
:100630000000000020483E09020000000000000009
:1006400000000004047F040400000000000000001B
:10065000000000000000000000000000000000009A
:10066000000000000000000000000000000000008A
:10067000000000000000000000000000000000007A
:100680000000000002040102000000000000001849
:100690001800000000000000000000000000000042
:1006A000000000000000000000000000000000004A
:1006B000000000000000000000000000000000003A
:1006C00000000000000000000000000079000000B1
:1006D00000000000487E4949420000000000151655
:1006E0007C161500000000000A5555552800010031
:1006F00001003E635D6B3E000000000008142A14F8
:1007000022000000000000000000003E41754B3E4A
:1007100001010101010002050200000000000000CB
:1007200000000000000000000000000000000000C9
:10073000000000060F7F017F0000000000000000A5
:1007400000000000000000070507000022142A1422
:10075000080F003C20780F0048645800000000009B
:10076000304845402000000000000000000000006C
:10077000000000007229292A717825242578702A22
:10078000252A707E097F49490E51517111000000E0
:1007900000007C545655440000000000000000009A
:1007A0000000000000000000000000000000000049
:1007B000000000000000000000007A09112279000A
:1007C00000000000000000000000000000003A45AA
:1007D0004546393D4242423D22140814225C322AE9
:1007E000261D0000000000000000000000000000C6
:1007F000003C4140413C00000000000000000000BF
:10080000000000000020555654782054565578209A
:100810005655567822515556792055545578000032
:1008200000000024547854580C5252721238555615
:100830005418385456551838565556183855545576
:100840001800497A400000487A4100004A79420085
:10085000004A78420000000000007A11090A713055
:10086000494A483030484A4930304A494A3032498A
:10087000494A31304A484A3008082A080818643C76
:1008800026183841422078384042217838424122A7
:10089000783842402278000000000000000000008C
:1008A0000C5150513C6E616E00696E660000407ADA
:1008B00010F35A00A0724E18090010A5D4E80000E9
:1008C000E87648170000E40B54020000CA9A3B0087
:1008D0000000E1F505000080969800000040420FFE
:1008E000000000A08601000000102700000000E8C2
:1008F00003000000006400000000000A0000000087
:10090000000100000000002C76D888DC674F082327
:10091000DFC1DFAE59E1B1B796E5E3E453C63AE68D
:1009200051997696E8E6C28426EB898C9B62ED406D
:100930007C6FFCEFBC9C9F40F2BAA56FA5F49005BC
:100940005A2AF75C936B6CF9676DC11BFCE0E40DF0
:1009500047FEF520E6B500D0ED902E0300943577E4
:10096000050080841E080000204E0A000000C80C0C
:10097000333333330F986E12831141EF8D21148975
:100980003BE65516CFFEE6DB18D1844B381BF77CCF
:100990001D901DA4BBE424203284725E228100C914
:1009A000F124ECA1E53D270011241FBECFEFD0E1DB
:1009B000DEBFCDBF12E0A0E0B1E0E4E2F7E800E086
:1009C0000BBF02C007900D92AC3FB107D9F715E0FD
:1009D000ACEFB2E001C01D92AE3FB107E1F70E945B
:1009E0001B050C9490430C94422480910D0390912C
:1009F0000E030E94481A80910D0390910E030E94ED
:100A00009A190E94EF1D8AE090E00E945041EDCFBC
:100A100080910D0390910E030E94481A80910D035E
:100A200090910E030E949A190E94EF1D8AE090E0B7
:100A30000E945041EDCF1F930E94D01087E090E0BC
:100A40000E941F1180E091E00E9457410E940E1207
:100A500060E070E0CB0120E030E0A9010E94F31FCC
:100A600011E0109344048FE893E090933F04809347
:100A70003E048FE093E090934104809340041093F0
:100A8000460488E095E090934304809342041093D9
:100A90004704109345048091100190911101A09199
:100AA0001201B09113018093480490934904A093DC
:100AB0004A04B0934B0410924C0410924D041092CF
:100AC0004E0410924F048091140190911501A09151
:100AD0001601B09117018093500490935104A09394
:100AE0005204B0935304109254041092550410927F
:100AF0005604109257041092580410925904109200
:100B00005A0410925B0410925C0410925D041092DF
:100B10005E0410925F048DE394E00E943B1C1093EE
:100B2000980388E394E0909393038093920388EB77
:100B300093E0909395038093940310939A0385EF29
:100B400094E0909397038093960310939B0382E025
:100B5000809399038091180190911901A0911A0135
:100B6000B0911B0180939C0390939D03A0939E03DF
:100B7000B0939F031092A0031092A1031092A203BE
:100B80001092A30380911C0190911D01A0911E0160
:100B9000B0911F018093A4039093A503A093A60393
:100BA000B093A7031092A8031092A9031092AA036E
:100BB0001092AB031092AC031092AD031092AE03EF
:100BC0001092AF031092B0031092B1031092B203CF
:100BD0001092B30381E993E00E943B1C81E064E042
:100BE0000E94411990930E0380930D03009721F406
:100BF0008AE391E00E94EF0E0E94D41280E090E020
:100C00001F91089590E09C012B503040220F331F1C
:100C1000220F331F865A9E4B820F931FF894C09861
:100C200028E12FB9779BFECF9FB9779BFECF8FB975
:100C3000779BFECFC09A78940895F894C0981FB817
:100C4000779BFECF8FB1C09A789486FFF6CF089538
:100C500080913A010E94020F809139010E94480F51
:100C6000089580913A010E94020F809139010E94FB
:100C7000020F0895F894C09887E08FB9779BFECF54
:100C8000C09AC09886E08FB9779BFECFC09A7894BF
:100C90000895F894C09881E08FB9779BFECFC09AF1
:100CA00088EE93E00E94A923789408958091F5043A
:100CB0000895FC01C09889EC8FB9779BFECF80E83E
:100CC0008FB9779BFECF82E08150DF01A80FB11D65
:100CD0009C919FB9779BFECF8823B1F7C09AC098AB
:100CE0008BEC8FB9779BFECF80E88FB9779BFECFD7
:100CF00082E08150DF01A80FB11D12969C911297DE
:100D00009FB9779BFECF8823A1F7C09A80818093FB
:100D1000F60481818093F70482818093F8048381B3
:100D20008093F90408958F929F92AF92BF92CF92D1
:100D3000DF92EF92FF920F931F93DF93CF9300D038
:100D400000D0CDB7DEB7E82E092F84E690E00E94F0
:100D5000A923F02E20E031E08E010F5F1F4FF3E05A
:100D6000CF2ED12CCC0EDD1EF70191907F0188246F
:100D7000808190E0882999299A83898384E690E08C
:100D80002B833C830E94A923C0982B813C81822F16
:100D900080688FB9779BFECFC90195958795807C38
:100DA0008FB9779BFECF5801F80181918FB9779B5E
:100DB000FECFEC15FD05C9F7C09A2E5F3F4FF1E05D
:100DC00020313F0789F684E690E00E94A92320E4C1
:100DD00031E080E191E01A821982C098422F406888
:100DE0004FB9779BFECFA90155954795407C4FB9E8
:100DF000779BFECFF80141914FB9779BFECFEC1561
:100E0000FD05C9F7C09AC098482F40684FB9779B35
:100E1000FECFAC0155954795407C4FB9779BFECFEF
:100E2000F80141914FB9779BFECFEC15FD05C9F74D
:100E3000C09A02962E5F3F4F41E08E31940759F6DB
:100E400081E090E09A838983C0988EEC8FB9779B7C
:100E5000FECF80E88FB9779BFECFC8010296F801DC
:100E600021912FB9779BFECFE817F907C9F7C09AF0
:100E7000C0988EE98FB9779BFECF80E88FB9779BBA
:100E8000FECF0E5F1F4FF50181915F018FB9779BF8
:100E9000FECFA016B106B9F7C09A0F900F900F9031
:100EA0000F90CF91DF911F910F91FF90EF90DF9006
:100EB000CF90BF90AF909F908F900895C09889E198
:100EC0008FB9779BFECF83E08FB9779BFECF86E00B
:100ED0008FB9779BFECFC09AC0988AE18FB9779B74
:100EE000FECF8EE08FB9779BFECF8EE08FB9779BD8
:100EF000FECFC09A81E08093E6040895C09889E10E
:100F00008FB9779BFECF81E08FB9779BFECF84ECC2
:100F10008FB9779BFECFC09A1092E6040895809116
:100F2000E4049091E504089590E08F719070806ED4
:100F3000906AC09825E12FB9779BFECF9FB9779B28
:100F4000FECF8FB9779BFECFC09A08950E9402060C
:100F500008958091E7049091E80498609093E804E4
:100F60008093E704C09881E18FB9779BFECF809191
:100F7000E8048FB9779BFECF8091E7048FB9779B08
:100F8000FECFC09A08958091E7049091E804977F7E
:100F90009093E8048093E704C09881E18FB9779B30
:100FA000FECF8091E8048FB9779BFECF8091E70454
:100FB0008FB9779BFECFC09A089581E08093F404A7
:100FC0008091E7049091E80480619093E804809315
:100FD000E704C09881E18FB9779BFECF8091E80448
:100FE0008FB9779BFECF8091E7048FB9779BFECFB7
:100FF000C09A08951092F4048091E7049091E80457
:101000008F7E9093E8048093E704C09881E18FB9C4
:10101000779BFECF8091E8048FB9779BFECF8091BC
:10102000E7048FB9779BFECFC09A0895DF93CF93E3
:1010300000D0CDB7DEB79A8389839093F004809374
:10104000EF0484EF91E00E94A923C0988AEE8FB943
:10105000779BFECF80E88FB9779BFECFFE0131965C
:10106000CE01039621912FB9779BFECFE817F907A0
:10107000C9F7C09A84EF91E00E94A9230F900F90C6
:10108000CF91DF910895CF93DF93EC01862FC09825
:1010900098E09FB9779BFECFC09AC09898E09FB91F
:1010A000779BFECFC09A0E940206D093EA04C093B9
:1010B000E904DF91CF910895DF92EF92FF920F93B1
:1010C0001F93DF93CF9300D0CDB7DEB78C01D62E20
:1010D0005A8349837901DD9A88EE93E00E945F117B
:1010E000DE9881E090E00E945F11DE9A84E690E055
:1010F0000E945F11F894C09881E08FB9779BFECF72
:10110000C09A82EE92E09093E8048093E704C0983E
:1011100081E18FB9779BFECF8091E8048FB9779BEF
:10112000FECF8091E7048FB9779BFECFC09AC0981D
:1011300082E18FB9779BFECF85E08FB9779BFECF99
:101140001FB8779BFECFC09AC0988CE18FB9779B70
:10115000FECF1FB8779BFECF8FE78FB9779BFECF6F
:10116000C09AC09889E18FB9779BFECF81E08FB993
:10117000779BFECF84EC8FB9779BFECFC09AC09847
:1011800087E18FB9779BFECF8AE18FB9779BFECF3E
:1011900086E58FB9779BFECFC09A84EF91E00E94DD
:1011A000A923C09888EE8FB9779BFECF80E88FB9CE
:1011B000779BFECFFE013196CE01039621912FB988
:1011C000779BFECFE817F907C9F7C09A84EF91E043
:1011D0000E94A92378948D2D0E9402067894109382
:1011E000EA040093E90489819A819093EE04809344
:1011F000ED04F092F004E092EF041092EB041092F0
:10120000F1040E941D061092F4041092E60410925C
:10121000F5040F900F90CF91DF911F910F91FF90E8
:10122000EF90DF90089581E08093F104C09883E00F
:101230008FB9779BFECFC09AC09888E08FB9779B13
:10124000FECFC09A1092FA04089581E08093F104D1
:10125000C09883E08FB9779BFECFC09AC09888E092
:101260008FB9779BFECFC09A1092FA04089510921E
:10127000F104C09886E08FB9779BFECFC09A109298
:10128000FA040895BF92CF92DF92EF92FF920F93EC
:101290001F93DF93CF9300D00F92CDB7DEB78C01B1
:1012A0006B017A010E944024C09888E08FB9779B37
:1012B000FECFC09AC09888E08FB9779BFECFC09AC6
:1012C0000E99FECF8499FCCFF894C09889E08FB92D
:1012D000779BFECFC09AC09889E08FB9779BFECFED
:1012E000C09AD80112965C911297252F332727FDBB
:1012F0003095BB2440E00AC0D8011396ED91FC91D3
:101300001497E80FF91F8081B80E4F5F842F90E08B
:10131000821793078CF3545FC0988EE38FB9779B45
:10132000FECF5FB9779BFECFC09AF80186818823F4
:1013300019F081E698E802C081E498E89A838983ED
:10134000C0988EE38FB9779BFECFFE013196CE0118
:10135000039621912FB9779BFECFE817F907C9F7BC
:10136000C09AC0988EE38FB9779BFECF8091EB0433
:101370008FB9779BFECFC09AC0988EE38FB9779BC9
:10138000FECF80E090E0FC01E751FB4F24812FB9B4
:10139000779BFECF019682309105A9F7C09AC0983D
:1013A0008EE38FB9779BFECF80E090E0F801E80FE5
:1013B000F91F20812FB9779BFECF019682309105CE
:1013C000A9F7C09AC0988EE38FB9779BFECF80E0D3
:1013D00090E0FC01E751FB4F26812FB9779BFECFB0
:1013E000019682309105A9F7C09AC601B7010E9403
:1013F000CC23D80115968C9115978823A9F180915B
:10140000F104882331F4C09883E08FB9779BFECF35
:10141000C09AC0981FB8779BFECF8FB1C09A81FF4A
:10142000F8CF20E0A5E0EA2EC098EFB8779BFECF7A
:10143000C09AC0981FB8779BFECFCFB0C09A2F5FDD
:10144000253649F478948091E4049091E5040E9453
:101450009A1980E060C084E690E02B830E945F11BF
:101460002B81C3FEE1CF06C0C09884E08FB9779B83
:10147000FECFC09AC0988EE38FB9779BFECF40E035
:101480000CC0D8011396ED91FC911497E80FF91F49
:1014900080818FB9779BFECF4F5F842F90E0F8015A
:1014A0002281332727FD30958217930754F3C09A82
:1014B000C0988EE38FB9779BFECFBFB8779BFECFE6
:1014C000C09A849BFECFF8948499FECFC09888E0A0
:1014D0008FB9779BFECFC09AC09888E08FB9779B71
:1014E000FECFC09AC09889E08FB9779BFECFC09A93
:1014F000C09889E08FB9779BFECFC09AC09886E0EC
:101500008FB9779BFECFC09A78948091EB048F5F60
:101510008093EB0481E00F900F900F90CF91DF91BB
:101520001F910F91FF90EF90DF90CF90BF900895A3
:10153000FF920F931F93DF93CF9300D0CDB7DEB709
:10154000FC018091E604882331F0C0988DE08FB9CA
:10155000779BFECFC09A3281432F552747FD509588
:1015600020E060E007C0A381B481A80FB91F8C916F
:10157000280F6F5F862F90E084179507A4F3832FC1
:10158000845F9091E60491118C5FC09898E09FB9B8
:10159000779BFECFC09AC09898E09FB9779BFECF0B
:1015A000C09A0E99FECF8499FCCFF894C09899E028
:1015B0009FB9779BFECFC09AC09899E09FB9779B5F
:1015C000FECFC09AC0989EE39FB9779BFECF8FB99C
:1015D000779BFECFC09A81E498E89A8389838091B3
:1015E000F404882321F081E698E89A838983809126
:1015F000E604882329F089819A8188609A83898307
:10160000C0988EE38FB9779BFECFDE011196CE0195
:1016100003963D913FB9779BFECFA817B907C9F74D
:10162000C09AC0988EE38FB9779BFECF8091EB0470
:101630008FB9779BFECFC09AC0988EE38FB9779B06
:10164000FECF80E090E0DC01A751BB4F14963C91A7
:1016500014973FB9779BFECF01968230910599F799
:10166000C09AC0988EE38FB9779BFECF80E090E060
:10167000DF01A80FB91F3C913FB9779BFECF0196C0
:1016800082309105A9F7C09AC0988EE38FB9779BF5
:10169000FECF80E090E0DC01A751BB4F16963C9155
:1016A00016973FB9779BFECF01968230910599F747
:1016B000C09A8091E604882381F0C0988EE38FB9A8
:1016C000779BFECFA6EFB4E08D918FB9779BFECFCD
:1016D00084E0AA3FB807C1F7C09AC0988EE38FB9DB
:1016E000779BFECF30E009C0A381B481A80FB91F5A
:1016F0008C918FB9779BFECF3F5F832F90E0428123
:10170000552747FD50958417950774F3C09AC098E4
:101710008EE38FB9779BFECF2FB9779BFECFC09A10
:101720008581882391F18091F104882331F4C09858
:1017300083E08FB9779BFECFC09AC0981FB8779B84
:10174000FECF8FB1C09A81FFF8CF10E005E0C098BE
:101750000FB9779BFECFC09AC0981FB8779BFECF7A
:10176000FFB0C09A1F5F153649F478948091E40465
:101770009091E5040E949A1980E043C084E690E0CD
:101780000E945F11F3FEE3CF06C0C09884E08FB9DA
:10179000779BFECFC09A7894849BFECF8499FECF2E
:1017A0008091F4048823F9F084EA92E00E945F11AA
:1017B000B79B0BC0C0988FE78FB9779BFECF1FB840
:1017C000779BFECF8FB1C09A0EC0C09888E08FB9CA
:1017D000779BFECFC09AC09888E08FB9779BFECFE9
:1017E000C09A80E001C081E0F894C09896E09FB96B
:1017F000779BFECFC09A78949091EB049F5F909373
:10180000EB040F900F90CF91DF911F910F91FF90FC
:10181000089581E0849B80E0089581E00E9B80E044
:10182000089581E0849B80E00895DF93CF9300D0FA
:1018300000D0CDB7DEB70E9BC7C11092F5040E9B4A
:101840001AC0B79918C0C0988FE78FB9779BFECFA1
:101850001FB8779BFECF8FB1C09AC09888E08FB930
:10186000779BFECFC09AC09888E08FB9779BFECF58
:10187000C09A8FEFAAC1C0988FE78FB9779BFECF30
:101880001FB8779BFECF4FB1C09A4F77C1F4C09875
:101890008FE78FB9779BFECF1FB8779BFECF8FB1B5
:1018A000C09AC09888E08FB9779BFECFC09AC09845
:1018B00088E08FB9779BFECFC09A8EEF86C14C30FF
:1018C00084F0E091E904F091EA04842F992787FDE0
:1018D00090950B972481332727FD309528173907DA
:1018E0007CF5C0988FE78FB9779BFECF50E0842FAF
:1018F000992787FD909504C01FB8779BFECF5F5F47
:10190000252F30E02817390714F4B799F5CFC09A7E
:10191000C0988FE78FB9779BFECF1FB8779BFECF1C
:101920008FB1C09AC09888E08FB9779BFECFC09ADC
:10193000C09888E08FB9779BFECFC09A8DEF45C1E4
:10194000E091E904F091EA044C504383C0988FE79A
:101950008FB9779BFECFFE013196CE0103961FB85B
:10196000779BFECF2FB12193E817F907C1F7C09AF3
:10197000E091E904F091EA04998181E095FF80E02B
:101980008783C0988FE78FB9779BFECF1FB8779B6F
:10199000FECFE091E904F091EA048FB18083C09A10
:1019A000C0988FE78FB9779BFECF84E005C01FB842
:1019B000779BFECF815011F0B799F9CFC09AC098AC
:1019C0008FE78FB9779BFECF80E090E01FB8779BC1
:1019D000FECFE091E904F091EA042FB1E80FF91F7E
:1019E000218301968230910589F7C09A898183FF0E
:1019F0004DC0C0988FE78FB9779BFECFE0EEF4E043
:101A00001FB8779BFECF8FB1819384E0E43EF80747
:101A1000B9F7C09AC09889E98FB9779BFECF80E863
:101A20008FB9779BFECF82E08150E82FF0E0E05243
:101A3000FB4F90819FB9779BFECF8823A9F7C09A6F
:101A4000C0988BE98FB9779BFECF80E88FB9779BE1
:101A5000FECF82E08150E82FF0E0EE51FB4F908105
:101A60009FB9779BFECF8823A9F7C09AC0988CE0D6
:101A70008FB9779BFECFC09A81E08093F504E09107
:101A8000E904F091EA04838184508383C0988FE74E
:101A90008FB9779BFECF40E00FC01FB8779BFECF7A
:101AA000E091E904F091EA048FB10580F681E02D20
:101AB000E40FF11D80834F5FE091E904F091EA04A7
:101AC000242F30E08381992787FD909528173907C7
:101AD00024F3C09AC0988FE78FB9779BFECF1FB8C9
:101AE000779BFECF6FB1C09AC0988FE78FB9779B75
:101AF000FECFFE013396CE0105961FB8779BFECF31
:101B00002FB12193E817F907C1F7C09AE091E904D2
:101B1000F091EA048B81808750E040E00CC0E091B6
:101B2000E904F091EA040580F681E02DE80FF91F41
:101B30008081480F5F5FE091E904F091EA04852F0E
:101B400090E02381332727FD3095821793073CF3DC
:101B50004617C1F0C0988FE78FB9779BFECF1FB8AB
:101B6000779BFECF8FB1C09AC09888E08FB9779BE2
:101B7000FECFC09AC09888E08FB9779BFECFC09AFD
:101B80008CEF23C08C8187FF07C08091FA048F5FA0
:101B90008093FA0481E019C0C0988FE78FB9779BD2
:101BA000FECF1FB8779BFECF8FB1C09AC09888E058
:101BB0008FB9779BFECFC09AC09888E08FB9779B8A
:101BC000FECFC09A8BEF01C080E00F900F900F9076
:101BD0000F90CF91DF9108958091FA04882329F026
:101BE0008091FA041092FA04089580E00895C09854
:101BF00088E08FB9779BFECFC09AC09888E08FB9F4
:101C0000779BFECFC09A0895992787FD9095982FCE
:101C100088278068C09823E12FB9779BFECF9FB9B2
:101C2000779BFECF8FB9779BFECFC09A0895C0985F
:101C300086E08FB9779BFECFC09AC09882E18FB9BA
:101C4000779BFECF85E08FB9779BFECF88E08FB979
:101C5000779BFECFC09AC0988EE28FB9779BFECF5C
:101C600088E18FB9779BFECF1FB8779BFECFC09AD4
:101C70000E94F70D0895C09886E08FB9779BFECF3C
:101C8000C09AC09882E18FB9779BFECF85E08FB96B
:101C9000779BFECF1FB8779BFECFC09AC0988EE28D
:101CA0008FB9779BFECF1FB8779BFECF1FB8779B6E
:101CB000FECFC09A0E94F70D0895C09886E08FB9B4
:101CC000779BFECFC09AC09882E18FB9779BFECFF9
:101CD00085E08FB9779BFECF81E08FB9779BFECFF0
:101CE000C09A0E94F70D0895C09882E18FB9779B42
:101CF000FECF85E08FB9779BFECF84E08FB9779BCD
:101D0000FECFC09A0E94F70D089590E08F709070FA
:101D10002091E7043091E804207F822B932B90934D
:101D2000E8048093E704C09881E18FB9779BFECFE8
:101D30008091E8048FB9779BFECF8091E7048FB93B
:101D4000779BFECFC09A089590E026E0880F991FF8
:101D50002A95E1F790702091E7043091E8042F7301
:101D6000822B932B9093E8048093E704C09881E141
:101D70008FB9779BFECF8091E8048FB9779BFECF18
:101D80008091E7048FB9779BFECFC09A0895C098E1
:101D900084E08FB9779BFECFC09A0895C09886E003
:101DA0008FB9779BFECFC09A08955F9BFECF5F9857
:101DB0008CB108955D9BFECF5D988CB908958FEF2F
:101DC0000895882311F48BB104C0813031F48091DF
:101DD0009B00881F8827881F089580E00895CF936F
:101DE000DF93EC0107C06091F6057091F70590E074
:101DF0000E941241FE01219684918823A1F7DF9170
:101E0000CF9108958F3F09F43FC0982F96959695EE
:101E1000969521E030E002C0220F331F9A95E2F739
:101E200090E08770907082309105D9F083309105F1
:101E300034F4009771F08130910541F50EC0843083
:101E40009105C1F0843091058CF085309105F1F455
:101E500015C08BB3822B8BBB07C088B3822B88BB8A
:101E600003C085B3822B85BB81E0089582B3822BAA
:101E700082BBFACF83B1822B83B9F6CF8091620007
:101E8000822B80936200F0CF8FEF08958FEF08953B
:101E90008F3F09F440C0982F96959695969521E02E
:101EA00030E002C0220F331F9A95E2F7209590E0B0
:101EB0008770907082309105D9F08330910534F4A9
:101EC000009771F08130910541F50EC08430910585
:101ED000C1F0843091058CF085309105F1F415C086
:101EE0008BB382238BBB07C088B3822388BB03C01C
:101EF00085B3822385BB81E0089582B3822382BBB0
:101F0000FACF83B1822383B9F6CF80916200822316
:101F100080936200F0CF8FEF08958FEF08958F3F89
:101F200089F1282F30E02770307022303105C1F060
:101F3000233031053CF42115310571F02130310594
:101F400009F50CC02430310579F02430310554F006
:101F500025303105B9F40AC029B309C026B307C03A
:101F600023B305C020B303C021B101C020B130E0CC
:101F700086958695869502C0359527958A95E2F7D0
:101F8000217001C02FEF822F0895882319F080B5AA
:101F90008B7F02C080B5846080BD81E008958F3F53
:101FA00009F43FC0982F96959695969521E030E0DC
:101FB00002C0220F331F9A95E2F790E0877090706D
:101FC00082309105D9F08330910534F4009771F097
:101FD0008130910541F50EC084309105C1F0843007
:101FE00091058CF085309105F1F415C08BB38227F3
:101FF0008BBB07C088B3822788BB03C085B3822709
:1020000085BB81E0089582B3822782BBFACF83B17A
:10201000822783B9F6CF8091620082278093620085
:10202000F0CF8FEF08958FEF08958F3F09F48CC0A4
:10203000982F96959695969521E030E002C0220F54
:10204000331F9A95E2F790E0662309F04AC0322FD9
:102050003095877090708230910519F18330910529
:102060003CF4009781F08130910509F06DC012C0F9
:102070008430910521F184309105D4F085309105AB
:1020800009F062C023C08AB383238ABB8BB3822B3F
:102090008BBB58C087B3832387BB88B3822B88BB95
:1020A00051C084B3832384BB85B3822B85BB4AC0D4
:1020B00081B3832381BB82B3822B82BB43C082B1B5
:1020C000832382B983B1822B83B93CC080916100A4
:1020D00083238093610080916200822B8093620051
:1020E00031C08770907082309105D9F083309105AE
:1020F00034F4009771F08130910541F50EC08430C1
:102100009105B9F08430910584F085309105F1F4A2
:1021100014C08AB3822B8ABB15C087B3822B87BBBE
:1021200011C084B3822B84BB0DC081B3822B81BBD1
:1021300009C082B1822B82B905C080916100822BD7
:102140008093610081E008958FEF08958FEF0895E7
:102150008FEF0895009711F480E009C08130910558
:1021600011F488E004C08230910529F480E10E94D6
:10217000CF0F81E008958FEF0895009711F480E06C
:1021800009C08130910511F488E004C082309105C6
:1021900029F480E10E94020F81E008958FEF0895F5
:1021A00080B5846080BD87E087BB88BB8FEF84BB30
:1021B00015BA82E082B987E68ABB80E48BBB80E5F2
:1021C0008DB981E08EB980E090E00E94BD1081E081
:1021D00090E00E94BD1082E090E00E94BD1083E07C
:1021E00090E00E94BD100895009711F480E009C0AE
:1021F0008130910511F488E004C08230910529F402
:1022000080E10E94480F81E008958FEF089590913A
:102210009B0095FFFCCF90919B009F7D90939B002E
:1022200080939C0008959093900089B986E08093F4
:1022300095005298599A8AB188618AB908950F9386
:102240001F93CF93DF930E941311CAEDDEE005EDDB
:102250001EE0CE01B8010E9485409093F70580935F
:10226000F605CE01B8010E9485409093F505809354
:10227000F405DF91CF911F910F91089590939800ED
:102280008093990086E080939D00EAE9F0E08081E8
:102290008B7F8083ABE9B0E08C9182608C938081EE
:1022A00088618083089580919B0087FFFCCF809197
:1022B0009B008F7780939B0080919C000895000085
:1022C0000000000000000197D1F708950E941C4211
:1022D00008950E94244280E00895EF92FF920F93A8
:1022E0001F93CF93DF93E82EE7017E01F92EE701DC
:1022F00080E090E00E941C42082F8B8381E090E0F8
:102300000E941C42E82E8A8382E090E00E941C42D8
:10231000F82E898383E090E00E941C42182F888366
:1023200084E090E00E941C42FE0CF00EF10E8F152E
:1023300011F481E001C08FEFDF91CF911F910F91D8
:10234000FF90EF900895CF93DF93EC0185E090E04C
:102350000E941C42888381E0DF91CF910895FC01A7
:1023600086E090E060810E94244281E00895CF934E
:10237000DF93EC0186E090E00E941C42888381E0BC
:10238000DF91CF9108950F931F93CF93DF93082F81
:10239000192FC8E0D0E0CE010E941C42F8018193C1
:1023A0008F012196C831D105B1F781E0DF91CF913E
:1023B0001F910F9108950F931F93CF93DF93082FD1
:1023C000192FC8E0D0E0F80161918F01CE010E9481
:1023D00024422196C831D105B1F781E0DF91CF9138
:1023E0001F910F910895CF93DF93EC0187E090E068
:1023F0000E941C42888381E0DF91CF910895FC0107
:1024000087E090E060810E94244281E00895F89482
:102410000895789408950E940712FFCF0F931F9399
:10242000DF93CF93CDB7DEB7A3970FB6F894DEBF97
:102430000FBECDBF0E9456178093B5058F3F21F484
:102440008EE060E00E94DE150E942225082F81FFA9
:1024500004C084E160E00E94DE1502FF04C083E155
:1024600060E00E94DE151092B8051092C605109229
:10247000C5051092B7051092B6051092C7051092C7
:10248000C405E4EAF5E08FEF80838283818333968D
:1024900095E0E33BF907C1F793E690930705809336
:1024A0000505909328058093260590934905809310
:1024B000470590936A058093680590938B058093F8
:1024C0008905EBECF5E020E030E001C09A01A901BC
:1024D0004F5F5F4FCA01880F991F880F991F840FA4
:1024E000951F88539A4F91838083C901880F991F44
:1024F000880F991F820F931F88539A4F9483838369
:1025000035964530510511F71092CA051092C9054C
:102510001092E5051092E4051092BB051092BA05E1
:1025200088EC95E09093FC048093FB048E010F5F90
:102530001F4FC80163E571E20E949C25C80160E657
:1025400074E040E850E00E94E22585E58093600455
:1025500019861C861D861E861F86188A198A1A8A65
:102560001B8A1C8A1D8A1E8A1F8A188E198E1A8E33
:102570001B8E1C8E1D8E1E8E1F8E18A219A21AA2D3
:102580001BA281E0888792E09A878B87C8010E940E
:102590003B1CA3960FB6F894DEBF0FBECDBFCF9104
:1025A000DF911F910F910895CF92DF92FF920F93C9
:1025B0001F93DF93CF9300D0CDB7DEB7B5E0CB2E1E
:1025C000B5E0DB2E90E0F601F080FF2DFF3FB1F08B
:1025D00005E015E020E0921761F0F8018081F8161F
:1025E00041F485E06F2D29839A830E94DE159A813C
:1025F00029812F5F0F5D1F4F253069F79F5F21E213
:1026000030E0C20ED31E9530F1F60E941E1B9927B2
:1026100087FD9095FC01A5E0EE0FFF1FAA95E1F75D
:10262000E80FF91FE350FB4F82858093C705F093B5
:10263000C605E093C505F093B705E093B605809312
:10264000B8050E9417260E9408260E946431FFCF19
:10265000EF92FF920F931F93CF93DF93EC017B01D7
:102660008A018985823021F08091B305888301C079
:1026700018828091B305853020F087E060E00E94E9
:10268000DE158985823029F08091B3058F5F8093B4
:10269000B3058091B305882319F481E08093B305D5
:1026A0008881992787FD9095FC01A5E0EE0FFF1F1B
:1026B000AA95E1F7E80FF91FE350FB4FF182E082A2
:1026C000888582878881992787FD9095FC0175E030
:1026D000EE0FFF1F7A95E1F7E80FF91FE350FB4F6C
:1026E00083E081872881822F992787FD9095FC01BF
:1026F00065E0EE0FFF1F6A95E1F7E80FF91FE35061
:10270000FB4F20878881992787FD90957C0155E0B4
:10271000EE0CFF1C5A95E1F7E80EF91E8DEF94E0E0
:10272000E80EF91EF7011582CE010B960E940420D7
:10273000F701948F838F8B859C85AD85BE858E3305
:102740009105A105B10520F086E168810E94DE15A2
:10275000E880FF24E7FCF094CE014B960E94042011
:10276000F70145E0EE0FFF1F4A95E1F7EE0DFF1D63
:10277000E350FB4F968B858B8881992787FD909539
:102780007C0135E0EE0CFF1C3A95E1F7E80EF91EEE
:102790008DEF94E0E80EF91EF70185899689238D67
:1027A000348D820F931F908F878BCE0143960E94AA
:1027B0000420F701968F858F8881992787FD909552
:1027C000FC0125E0EE0FFF1F2A95E1F7E80FF91F46
:1027D000E350FB4F858D968D928F818F81E090E045
:1027E00090A3878F1383028381E08487DF91CF9149
:1027F0001F910F91FF90EF9008950E946E21089510
:1028000085E690E00895E091C505F091C6058487BE
:102810000895E091C505F091C6058485089520913D
:102820003C04222341F0FB01208320918F03FC0113
:10283000208381E0089580E00895DF93CF930F9285
:10284000CDB7DEB7198207C080ED97E00E94A923BB
:1028500089818F5F898389818436B0F30F90CF910E
:10286000DF91089581E090E00E94F4100E941D1411
:1028700081E090E00E94BD100E941D14089581E047
:1028800090E00E94F4100E941D140E941D140E94EA
:102890001D1481E090E00E94BD100E941D14089557
:1028A000FF920F931F93DF93CF9300D00F92CDB77A
:1028B000DEB700D000D000D0EDB7FEB731968E0164
:1028C0000F5F1F4FADB7BEB712961C930E931197B3
:1028D00023E431E033832283848315820E948E4176
:1028E000EDB7FEB736960FB6F894FEBF0FBEEDBF3C
:1028F000FF2472C0800F911FDC018C918433D1F1D1
:10290000853370F48133F9F0823320F4803309F099
:102910005CC016C0823311F1833309F056C023C066
:102920008733C9F1883330F4853369F1863309F090
:102930004CC02CC08833B1F1893309F046C03BC08C
:102940000E943F1402C00E9432140E943F140E9451
:102950003F140E943F140E943F1437C00E9432145B
:102960000E943214F4CF0E9432140E9432140E944A
:102970003214EFCF0E9432140E9432140E9432149B
:102980000E943214E8CF0E94321402C00E943F1409
:102990000E94321404C00E943F140E943F140E94FF
:1029A000321406C00E943F140E943F140E943F143C
:1029B0000E94321408C00E943F140E943F140E94DB
:1029C0003F140E943F140E9432140E941D140E9462
:1029D0001D140E941D14F394F80101900020E9F7E2
:1029E0003197E01BF10B8F2D90E08E179F0708F4B5
:1029F00081CF0F900F900F90CF91DF911F910F918A
:102A0000FF9008950F931F9380913C04882319F43D
:102A10001F910F9108950E9407120E9407128BE7E1
:102A200093E00E94EF0E00D000D0EDB7FEB73196D4
:102A300083E491E0ADB7BEB712969C938E93119745
:102A400080918F03828313820E943E410F900F90EA
:102A50000F900F9087E793E00E94EF0E80913C0467
:102A6000883110F010923C0480913C0490E0019772
:102A70008631910508F04BC08A5B9F4FFC01EE0F39
:102A8000FF1F0590F491E02D09948BE393E041C082
:102A900084E193E03EC080E093E03BC08AEE92E0A8
:102AA00038C08FEC92E035C089EB92E032C081EA09
:102AB00092E02FC08EE892E02CC08BE792E029C014
:102AC0008DE592E026C088E392E023C08CE292E09C
:102AD00020C081E192E01DC082E092E01AC08EEE3B
:102AE00091E017C08DED91E014C089EC91E011C028
:102AF00089EA91E00EC081E991E00BC086E791E0A0
:102B000008C085E691E005C086E591E002C08FE44B
:102B100091E00E94EF0E6091F6057091F7058DE04F
:102B200090E00E9412416091F6057091F7058AE0ED
:102B300090E00E94124110E01FC082E090E00E94ED
:102B4000F41083E090E00E94BD1004E688EE93E06C
:102B50000E94A9230150D1F783E090E00E94F41075
:102B600082E090E00E94BD1004E688EE93E00E94AF
:102B7000A9230150D1F71F5F1431FCF283E090E0EC
:102B80000E94BD1082E090E00E94BD1080918F03F2
:102B90000E9450140E941D1482E090E00E94F410E4
:102BA0000E941D1482E090E00E94BD100E941D143E
:102BB00080913C040E94501410E0BFCFEF92FF922E
:102BC0000F931F93182FE62E80933C0460938F037E
:102BD0000E94021500E021C082E090E00E94F41003
:102BE00083E090E00E94BD1094E6F92E88EE93E019
:102BF0000E94A923FA94D1F783E090E00E94F41098
:102C000082E090E00E94BD1084E6F82E88EE93E00A
:102C10000E94A923FA94D1F70F5F0431E8F283E010
:102C200090E00E94BD1082E090E00E94BD108E2DC9
:102C30000E945014812F0E94501400E0CDCF809349
:102C40003C04E091C505F091C605808580938F0313
:102C50000E94021508956F927F928F929F92AF9279
:102C6000BF92CF92DF92EF92FF920F931F93CF9379
:102C7000DF9387E893E00E94EF0E00D000D086E457
:102C800091E0ADB7BEB712969C938E931197E091E9
:102C9000C505F091C6058085992787FD9095149606
:102CA0009C938E9313970E943E41E091C505F0914D
:102CB000C605C281D3818FE491E0EDB7FEB7928360
:102CC0008183D483C3830E943E41EDB7FEB7319622
:102CD0006CE5E62E61E0F62EADB7BEB71296FC921B
:102CE000EE9211978881828313820E943E4159E6B9
:102CF000C52E51E0D52EEDB7FEB7D282C182E0914C
:102D0000C505F091C60580819181ADB7BEB7149617
:102D10009C938E9313970E943E4143E7A42E41E07B
:102D2000B42EEDB7FEB7B282A1828091C505909115
:102D3000C605948383830E943E410DEF14E00F90FB
:102D40000F900F900F90C0E0D0E033E8632E31E099
:102D5000732E4701C601DC2CC92EC501BA2CA92E41
:102D6000D8011296ED90FC90139700D000D000D0BF
:102D7000EDB7FEB73196ADB7BEB712967C926E92A4
:102D80001197D383C283F582E4820E943E410F9063
:102D90000F90EDB7FEB73196ADB7BEB711968C92D6
:102DA000119712969C92D7018C91828313820E9474
:102DB0003E41EDB7FEB7D182C282D8018D919C9180
:102DC000948383830E943E41EDB7FEB7B182A28215
:102DD000CE0125E0880F991F2A95E1F78C0F9D1FE2
:102DE00083509B4F948383830E943E4121960F5DC5
:102DF0001F4F0F900F900F900F90C530D10509F025
:102E0000AFCFDF91CF911F910F91FF90EF90DF90A7
:102E1000CF90BF90AF909F908F907F906F900895CC
:102E2000CF93DF93E091C505F091C605C281D381B0
:102E30008881853539F00E942B1681E00E941F168B
:102E400085E58883E091C505F091C6058081918173
:102E500021E18030920728F00E942B1682E10E9427
:102E60001F16DF91CF910895992787FD9095FC015A
:102E700075E0EE0FFF1F7A95E1F7E80FF91FE350B9
:102E8000FB4FA281B3818C91853519F085E58C9338
:102E900009C08081918121E18030920728F082E190
:102EA0000E941F168FEF089581E008956091B4038A
:102EB0007091B5038091B6039091B703E0E0F0E024
:102EC0009B01AC010E2E04C056954795379527956A
:102ED0000A94D2F720FD1AC021E030E040E050E033
:102EE0000E2E04C0220F331F441F551F0A94D2F721
:102EF000262B372B482B592B2093B4033093B50343
:102F00004093B6035093B7038E2F08953196E03265
:102F1000F105B1F68FEF0895E091C505F091C60572
:102F200065857685878590890895DF92EF92FF9277
:102F30000F931F93D82E81E0E82EF12C012D112D37
:102F40000D2C04C0EE0CFF1C001F111F0A94D2F7B9
:102F50008091B4039091B503A091B603B091B703EB
:102F60008E219F21A023B1230097A105B10509F46B
:102F70005DC00E940712E4E0F5E0A80197012095EA
:102F800030954095509563E081818F3F39F186817E
:102F90009781A085B1858E159F05A007B10731F4F3
:102FA0001286138614861586108262838681978125
:102FB000A085B18582239323A423B5238683978399
:102FC000A087B18782859385A485B58582239323C5
:102FD000A423B52382879387A487B587B19685E01C
:102FE000E93AF80789F62EEF3FEF4FEF5FEF04C0A5
:102FF000220F331F441F551FDA94D2F78091B40378
:103000009091B503A091B603B091B70382239323A7
:10301000A423B5238093B4039093B503A093B60380
:10302000B093B7030E94091281E001C08FEF1F9196
:103030000F91FF90EF90DF900895EF92FF920F9322
:103040001F9321E030E040E050E004C0220F331F26
:10305000441F551F8A95D2F7E091C505F091C6052A
:1030600085859685A785B08979018A01E822F922AC
:103070000A231B23E114F10401051105D1F0209569
:1030800030954095509582239323A423B5238587BB
:103090009687A787B08B81899289A389B489822377
:1030A0009323A423B523818B928BA38BB48B81E0D4
:1030B00001C08FEF1F910F91FF90EF900895209125
:1030C000B4033091B5034091B6035091B703082E75
:1030D00004C056954795379527950A94D2F72170E5
:1030E000307021153105E9F0E091C505F091C60574
:1030F00021E030E040E050E004C0220F331F441FC5
:10310000551F8A95D2F785859685A785B089822B2C
:10311000932BA42BB52B85879687A787B08B81E04F
:1031200008958FEF0895EF92FF920F931F93DF930F
:10313000CF930F92CDB7DEB791E0E92EF12C012DA0
:10314000112D04C0EE0CFF1C001F111F8A95D2F731
:103150008091B4039091B503A091B603B091B703E9
:103160008E219F21A023B1230097A105B10511F461
:1031700081E03FC00E940712E4E0F5E020E033E088
:1031800080818130A9F482859385A485B5858E21BF
:103190009F21A023B1230097A105B10549F03283F7
:1031A000178616861082E286F3860487158721E04B
:1031B0008081823091F482859385A485B5858E15B2
:1031C0009F05A007B10749F432831786168610823F
:1031D000128613861486158621E0B19685E0E93AB9
:1031E000F80771F629830E9409122981222329F404
:1031F00082E00E9403148FEF01C081E00F90CF9115
:10320000DF911F910F91FF90EF900895E091C50518
:10321000F091C605258536854785508926233723B5
:1032200048235923211531054105510521F1618BB1
:10323000728B838B948B21E027830090B50504C0AB
:1032400096958795779567950A94D2F76170707017
:103250006115710519F00E94291D04C080E090E0FD
:103260000E94501DE091C505F091C6052189328963
:103270004389548903C020E030E0A901B901CA01A3
:1032800008959091C4059430D0F4E4EAF5E020E08C
:1032900030813F3F21F02F5F33962530C9F730E072
:1032A000F901EE0FFF1FE20FF31FEC55FA4F828377
:1032B000808361839F5F9093C4059F0102C020E0DB
:1032C00030E0C9010895BC0120E030E0822FA9015F
:1032D000440F551F420F531F4C555A4F6417750723
:1032E00031F02F5F3F4F2530310581F78FEF089583
:1032F0000E9463198F3F11F481E003C0853029F4E7
:1033000082E00E9403148FEF0895992787FD90951E
:10331000FC01EE0FFF1FE80FF91FEC55FA4F8FEF7E
:103320008083828381838091C40581508093C4050A
:1033300081E00895EF92FF920F931F93DF93CF9355
:103340000F92CDB7DEB70E946319682F8F3F11F43B
:1033500081E003C0853029F482E00E9403148FEFDE
:103360008FC0082F112707FD10957801EE0CFF1C68
:10337000E00EF11E84EA95E0E80EF91ED7011296E0
:103380009C9112978C9198170CF079C069830E94D8
:10339000071200D000D000D0EDB7FEB7319684E917
:1033A00091E0ADB7BEB712969C938E931197A09102
:1033B000C505B091C60518968C91992787FD909503
:1033C00093838283158304830E943E41F7018281A7
:1033D0008F5F8283E091C505F091C6051482E5EA0E
:1033E000F5E08DB79EB706960FB6F8949EBF0FBE58
:1033F0008DBF20E030E070E46981A901440F551FC2
:10340000420F531F4C555A4F71F0A0814A2F552738
:1034100047FD5095872F90E04817590724F4818184
:10342000882309F47A2F2F5F3F4F339625303105DB
:1034300021F77093B405E4E0F5E0862F992787FD26
:103440009095A92FB92F63E02081223089F422853D
:10345000338544855585281739074A075B0741F4AA
:103460006283178616861082128613861486158646
:10347000B19625E0E93AF20739F70E94091281E096
:103480000F90CF91DF911F910F91FF90EF900895D2
:103490000F931F93DF93CF930F92CDB7DEB70E94A8
:1034A00063198F3F11F481E003C0853029F482E075
:1034B0000E9403148FEFA3C089830E9407128981A1
:1034C000082F112707FD1095F801EE0FFF1FE00FE1
:1034D000F11FEC55FA4F92811916B4F0E091C50531
:1034E000F091C605978192609783992787FD909503
:1034F000A92FB92F818B928BA38BB48B0E940912B9
:1035000080E090E00E94501D00D000D000D0EDB7C8
:10351000FEB7319683EB91E0ADB7BEB712969C93A0
:103520008E931197A091C505B091C60518968C9100
:10353000992787FD909593838283158304830E9446
:103540003E41F801EE0FFF1FE00FF11FEC55FA4F5F
:10355000828181508283E5EAF5E08DB79EB70696B9
:103560000FB6F8949EBF0FBE8DBF80E090E060E480
:103570009C01220F331F280F391F2C553A4F71F031
:103580007081472F552747FD5095262F30E0421771
:10359000530724F42181222309F4672F01963396DF
:1035A0008530910529F76093B40500D000D0EDB7C0
:1035B000FEB731968FEC91E0ADB7BEB712969C93F3
:1035C0008E931197628313820E943E41A091C5059C
:1035D000B091C605F801EE0FFF1FE00FF11FEC558B
:1035E000FA4F81811B968C931B9781E014968C93E4
:1035F0000F900F900F900F900E94091281E00F9092
:10360000CF91DF911F910F9108950E9463198F3F11
:1036100011F481E003C0853029F482E00E94031494
:103620008FEF0895992787FD9095FC01EE0FFF1FFE
:10363000E80FF91FEC55FA4F82810895E091BA0521
:10364000F091BB05808108950F931F93CF93DF9373
:10365000C091BA05D091BB0589E993E00E94EF0EB5
:1036600002EE11E01DC000D000D0EDB7FEB712830E
:103670000183288130E0C90145E0880F991F4A95F0
:10368000E1F7820F931F8C5E9A4F948383830E948D
:103690003E410B80DC81C02D0F900F900F900F905A
:1036A000209709F786E993E00E94EF0EDF91CF9112
:1036B0001F910F910895CF92DF92EF92FF920F9397
:1036C0001F93CF93DF93E091FB04F091FC043097BC
:1036D00009F478C04091BA055091BB0541155105D8
:1036E000A9F1E090B405FF24DA01282F332727FD44
:1036F0003095690165E0CC0CDD1C6A95E1F7C20EDE
:10370000D31E24E135E0C20ED31E0C91002301F13B
:10371000E6016881798110E0980195E0220F331F5E
:103720009A95E1F7200F311F23503B4FE9012F8974
:10373000388D6217730718F46E157F0548F01396DD
:103740000D90BC91A02D109701F702C0A0E0B0E051
:103750008083C381D481D093FC04C093FB04A4175D
:10376000B507B1F4109749F0B483A3831282118294
:103770001296FC93EE93119706C014821382128264
:103780001182FA83E983F093BB05E093BA051AC06E
:1037900011968D919C911297AC17BD0759F09283A9
:1037A0008183B483A3831196CD91DC911297FC831E
:1037B000EB8304C014821382928381831296FC935C
:1037C000EE931197DF91CF911F910F91FF90EF90A2
:1037D000DF90CF900895CF93DF93E091BA05F091F9
:1037E000BB05309709F444C0992787FD9095208147
:1037F00030E02817390781F4A381B481B093BB0569
:10380000A093BA0512961C921E92119718C00380BD
:10381000F481E02D309761F1208130E028173907DD
:10382000B1F7C181D281838194819C838B83A381F1
:10383000B481109721F01296DC93CE931197A0914A
:10384000FB04B091FC04109739F4F093FC04E0936E
:10385000FB04148213820AC0B483A3831296FC93E0
:10386000EE931197F093FC04E093FB041282118213
:10387000DF91CF910895EF92FF920F931F93CF9313
:10388000DF93EC0169817A814B815C818D819E811E
:103890000E94B725BC018F81882369F04B815C8130
:1038A000CE0120E030E000E010E0EE24FF240E9492
:1038B00028131F8213C08881992787FD9095FC01EA
:1038C000A5E0EE0FFF1FAA95E1F7E80FF91FE350FF
:1038D000FB4F81858330D1F4718360838881992780
:1038E00087FD9095FC0175E0EE0FFF1F7A95E1F7DB
:1038F000E80FF91FE350FB4F85899689009741F443
:1039000082E0818788810E945B1B02C08FEF01C02B
:1039100081E0DF91CF911F910F91FF90EF9008957B
:103920001F93DF93CF93CDB7DEB728970FB6F894E8
:10393000DEBF0FBECDBF29833A834B835C836D838B
:103940007E838F8398870E9407120E944024182F3D
:10395000CE0101960E9404209C018330910560F005
:10396000E091C505F091C605210F311D368B258BE1
:103970000E94091281E001C08FEF28960FB6F894DB
:10398000DEBF0FBECDBFCF91DF911F9108950E9482
:10399000AC25E091C505F091C60585818823B9F76E
:1039A0000895FF920F931F93DF93CF93CDB7DEB7A8
:1039B00028970FB6F894DEBF0FBECDBF29833A8398
:1039C0004B835C836D837E838F8398870E9410175F
:1039D0000E940712E091C505F091C60581E085833C
:1039E00081E090E090A3878F0E944024F82ECE01C2
:1039F00001960E940420E091C505F091C6050F2DA7
:103A000010E09801280F391F368B258B8F2D883FAA
:103A100078F40E943A240F5F1F4F282F30E00217DE
:103A2000130734F48F2D8E5F80933B040E943D2456
:103A30000E9409120E94C71C81E028960FB6F894D4
:103A4000DEBF0FBECDBFCF91DF911F910F91FF90D1
:103A500008951F930E940712E091C505F091C605D5
:103A600081E0858386830E944024182F883F88F454
:103A70000E943A24212F30E02F5F3F4F482F50E023
:103A80002417350734F4812F8E5F80933B040E9406
:103A90003D240E9409120E94C71C81E01F910895D5
:103AA0001F93CF93DF93EC010E940712E091C505AD
:103AB000F091C60581E08583D68BC58B0E9440249A
:103AC000182F883F88F40E943A24212F30E02F5F7E
:103AD0003F4F482F50E02417350734F4812F8E5F75
:103AE00080933B040E943D240E9409120E94C71C3F
:103AF00081E0DF91CF911F910895EF92FF920F9394
:103B00001F93DF93CF930F92CDB7DEB78C010E9446
:103B10000712E091C505F091C60581E085830E94FA
:103B20004024E091C505F091C605E82EFF240E0D56
:103B30001F1D168B058B883F90F489830E943A24C1
:103B40000894E11CF11C282F30E09981E216F3065D
:103B500034F4892F8E5F80933B040E943D240E94A1
:103B600009120E94C71C81E00F90CF91DF911F9135
:103B70000F91FF90EF9008951F93CF93DF93EC0187
:103B80000E941017209711F4C1E0D0E00E940712A4
:103B9000E091C505F091C60581E08583D0A3C78F6C
:103BA0000E944024182F883F88F40E943A24212F35
:103BB00030E02F5F3F4F482F50E02417350734F493
:103BC000812F8E5F80933B040E943D240E94091246
:103BD0000E94C71C81E0DF91CF911F9108951F9330
:103BE0000E9410170E940712E091C505F091C605CA
:103BF00081E090E090A3878F81E085830E9440243C
:103C0000182F883F88F40E943A24212F30E02F5F3C
:103C10003F4F482F50E02417350734F4812F8E5F33
:103C200080933B040E943D240E9409120E94C71CFD
:103C300081E01F910895E091C505F091C60580854A
:103C40000E94EB1BE091C505F091C60584E08187D9
:103C50000E94EF1D81E008958F929F92AF92BF92D4
:103C6000CF92DF92EF92FF920F931F93DF93CF9348
:103C7000CDB7DEB760970FB6F894DEBF0FBECDBFED
:103C800029873A874B875C876D877E878F87988BDC
:103C9000CE0101960E94881ECE01099609851A85DB
:103CA0002B853C854D855E856F85788989809A80D6
:103CB000AB80BC80CD80DE80EF80F8840E94E61E61
:103CC0008F3F61F029853A854B855C856D857E85C2
:103CD0008F8598890E94D11C81E001C08FEF60968A
:103CE0000FB6F894DEBF0FBECDBFCF91DF911F910D
:103CF0000F91FF90EF90DF90CF90BF90AF909F908B
:103D00008F900895E091C505F091C60580850895CE
:103D1000EF92FF920F931F93CF93DF93EC011C82DE
:103D20001D821E821F828091BC059091BD05A091CD
:103D3000BE05B091BF0588839983AA83BB83E090B9
:103D4000C005F090C1050091C2051091C305EC8239
:103D5000FD820E831F830E944024682F70E080E064
:103D600090E023EB36EE4EE050E00E940B3F6E0DEC
:103D70007F1D801F911F6C837D838E839F8313C063
:103D800080509A4CAA49BB438C839D83AE83BF83EA
:103D900088819981AA81BB810196A11DB11D88836B
:103DA0009983AA83BB838C819D81AE81BF81803042
:103DB0002AEC92072AE9A2072BE3B20708F7DF9162
:103DC000CF911F910F91FF90EF9008958F929F9246
:103DD000AF92BF92CF92DF92EF92FF920F931F9319
:103DE000DF93CF93CDB7DEB760970FB6F894DEBF01
:103DF0000FBECDBFFC0109831A832B833C834D8307
:103E00005E836F83788789869A86AB86BC86CD86EB
:103E1000DE86EF86F88AE980FA800B811C812D818D
:103E20003E814F815885A984BA84CB84DC848D85FA
:103E30009E85AF85B889EA14FB040C051D0508F4BE
:103E400040C0AE14BF04C006D10691F4281739074C
:103E50004A075B07B0F1281B390B4A0B5B0B248325
:103E6000358346835783108211821282138227C0C2
:103E7000281739074A075B0790F40894E108F1080E
:103E800001091109EA18FB080C091D09E082F182F9
:103E900002831383205036434546544C08C0EA1829
:103EA000FB080C091D09E082F18202831383281BA1
:103EB000390B4A0B5B0B248335834683578381E0A0
:103EC00001C08FEF60960FB6F894DEBF0FBECDBF76
:103ED000CF91DF911F910F91FF90EF90DF90CF90E6
:103EE000BF90AF909F908F900895FC0114C0205018
:103EF0003A4C4A495B432483358346835783208168
:103F00003181428153812F5F3F4F4F4F5F4F20835D
:103F10003183428353832481358146815781203008
:103F20008AEC38078AE948078BE3580700F70895B9
:103F30008F929F92AF92BF92CF92DF92EF92FF92B9
:103F40000F931F93DF93CF93CDB7DEB760970FB674
:103F5000F894DEBF0FBECDBF09831A832B833C8349
:103F60004D835E836F83788789869A86AB86BC860D
:103F7000CD86DE86EF86F88A29853A854B855C8575
:103F8000E980FA800B811C812E0D3F1D401F511FBF
:103F9000FC0120833183428353832D853E854F85E9
:103FA0005889ED80FE800F8118852E0D3F1D401F22
:103FB000511F24833583468357830E94751F81E0F8
:103FC00060960FB6F894DEBF0FBECDBFCF91DF91E4
:103FD0001F910F91FF90EF90DF90CF90BF90AF9027
:103FE0009F908F9008956093BC057093BD0580935A
:103FF000BE059093BF052093C0053093C105409343
:10400000C2055093C30508958F929F92AF92BF92BD
:10401000CF92DF92EF92FF920F931F93FC012081CA
:104020003181428153816481758186819781211517
:1040300031054105510509F461C0223431054105BE
:10404000510508F062C05B016C01EE24FF2487017A
:1040500060E038C08A2CAB2DA653F1E0AB1508F018
:10406000F0E08C2D865691E08C1508F090E0F80F6A
:1040700071E0F81708F070E0972B7D2D755CE1E09A
:104080007D1508F0E0E0970F81E0971708F080E0D9
:104090008E2B8E0DE1E08E1508F0E0E0EF0D71E063
:1040A000EF1508F070E0700FB1E0701708F0B0E0A5
:1040B000B10FA82CBA2ECF2ED92EE82EFE2E072F08
:1040C0001B2F6F5F862F90E0A0E0B0E08217930770
:1040D000A407B50708F4BECF9501A601B701C80132
:1040E000A3EBAA2EF6EEBF2EEEE0CE2EDD24EE24BC
:1040F000FF2400E010E00E948F3109C023EB36EE70
:104100004EE050E00E943E3F02C020E030E0C90196
:104110001F910F91FF90EF90DF90CF90BF90AF90E5
:104120009F908F900895EF92FF920F931F93DF93CC
:10413000CF93CDB7DEB728970FB6F894DEBF0FBE8A
:10414000CDBF7B018C01BAE016950795F794E794F3
:10415000BA95D1F7E982FA820B831C837370807061
:10416000907023EB36EE4EE050E00E940B3F6D83E3
:104170007E838F8398872E2D3A814B815C81289690
:104180000FB6F894DEBF0FBECDBFCF91DF911F9168
:104190000F91FF90EF9008958F929F92AF92BF92F0
:1041A000CF92DF92EF92FF920F931F93FC01208139
:1041B0003181428153816481758186819781211586
:1041C00031054105510509F45BC05B016C01EE242A
:1041D000FF24870160E038C08A2CAB2DA653F1E0A4
:1041E000AB1508F0F0E08C2D865691E08C1508F0A8
:1041F00090E0F80F71E0F81708F070E0972B7D2D34
:10420000755CE1E07D1508F0E0E0970F81E097171D
:1042100008F080E08E2B8E0DE1E08E1508F0E0E0D6
:10422000EF0D71E0EF1508F070E0700FB1E070175E
:1042300008F0B0E0B10FA82CBA2ECF2ED92EE82E60
:10424000FE2E072F1B2F6F5F862F90E0A0E0B0E0BF
:1042500082179307A407B50708F4BECF9501A601FE
:10426000B701C801E3EBAE2E06EEB02E1EE0C12E64
:10427000DD24EE24FF2400E010E00E948F3106C010
:1042800023EB36EE4EE050E00E943E3FB901CA01FA
:104290001F910F91FF90EF90DF90CF90BF90AF9064
:1042A0009F908F9008951F9311E00E9410170E9415
:1042B0003A24853110F41093B9050E94AC25809101
:1042C0006004853519F088E00E941F1680917E10E9
:1042D000853559F388E00E941F16E7CF2F923F9251
:1042E0004F925F926F927F928F929F92AF92BF9206
:1042F000CF92DF92EF92FF920F931F93DF93CF93B2
:104300000F92CDB7DEB70E9439240E9407120E9497
:10431000B5230E94BB232C018AEF0E943D246091AB
:104320003B0470E080E090E023EB36EE4EE050E09E
:104330000E940B3F7B018C018091C0059091C105CB
:10434000A091C205B091C305E80EF91E0A1F1B1FFC
:10435000C801B7010E943E3FE61AF70A080B190B85
:104360008091BC059091BD05A091BE05B091BF059F
:1043700073EBA72E76EEB72E7EE0C72ED12C14C09D
:1043800080E096E3A5E6B4ECE80EF91E0A1F1B1FB9
:10439000C801B701A60195010E943E3FE61AF70A3F
:1043A000080B190BD401C3013C014D010894611C99
:1043B000711C811C911CE0E0EE16EAECFE06EAE9B5
:1043C0000E07EBE31E07E0F68093BC059093BD0556
:1043D000A093BE05B093BF05E092C005F092C10561
:1043E0000093C2051093C305E091C505F091C60581
:1043F00085818823B9F081858430A1F0878182305E
:1044000029F0882341F08681882311F485E001C0DA
:1044100083E0818704C083E08187178216828085CC
:104420000E94EB1BE091C505F091C605858D968D28
:10443000009799F16085662381F18185843069F167
:10444000218D328D80913B0490E02817390750F47C
:1044500082E00E94DE15E091C505F091C605128E3E
:10446000118E04C0281B390B328F218FE091C505B6
:10447000F091C6050085218D328D2115310569F435
:1044800083E0602F0E94DE15E091C505F091C6051E
:1044900083E08187802F0E94EB1B62E0262E65E07F
:1044A000362E00E61AEE20E051E0652E712C4AEF20
:1044B000E42EF12C32E0932E91E0A92EB12CC12CE8
:1044C000D12CD10113968C9113978F3F09F4C4C05E
:1044D0001C92882309F443C014968C91149784305D
:1044E000F1F150964D915C91519780913B0490E091
:1044F0004817590738F0481B590B51965C934E9357
:10450000509703C0F101118A108AD10152964D9142
:104510005C9153974817590738F0481B590B53962D
:104520005C934E93529712C0F10166897789861782
:10453000970728F4681B790B738B628B07C00E9466
:104540002A3FD10153969C938E935297F101828911
:104550009389009721F486899789938B828BD10167
:1045600014968C911497833009F076C050968D91F3
:104570009C915197009709F066C012968C91129702
:104580008823A9F011968C911197882381F0D60188
:10459000C5010090B50504C0880F991FAA1FBB1F55
:1045A0000A94D2F7F10184879587A687B787D1014E
:1045B00012961C92129711961C9211971C925A9661
:1045C0004D915C915B9756968D919C91579758961B
:1045D0006D917C91599741305105D9F455967C9352
:1045E0006E93549714969C92149752964D915C91A9
:1045F000539751965C934E935097009721F45196A0
:10460000FC92EE925097822F29830E945B1B298196
:104610001AC0F101758B648BBA0161507040689FBC
:10462000A001699F500D789F500D1124518B408B34
:10463000538B428B009711F4F18AE08AD1015B968B
:104640007C926E925A97F10180899189009721F0AE
:104650008017910708F48C012F5F81E290E0280E0B
:10466000391E253009F02DCF0E941E1BE82E282F61
:10467000332727FD3095F90185E0EE0FFF1F8A955E
:10468000E1F7E20FF31FE350FB4F82858093C705EC
:10469000F093B705E093B605EE20B9F0258D368D81
:1046A0002115310551F0218D328D2A3F310528F435
:1046B0002017310708F44BC00DC098010B3F1105BE
:1046C00008F445C02AEF30E042C00B3F110510F05E
:1046D0000AEF10E08093B805F093C605E093C50596
:1046E00000933B040E944024282F30E02F5F3F4F6F
:1046F0002017310740F00E944024082F10E00E5F81
:104700001F4F00933B04EE2011F01092B905802F4B
:104710000E943D24C2016EEE72E00E94CC230E94F2
:1047200001260E9464310F90CF91DF911F910F916C
:10473000FF90EF90DF90CF90BF90AF909F908F90C1
:104740007F906F905F904F903F902F9008958901D8
:10475000C1CF00000000000000000197D1F70895CC
:104760001EBC089581E08EBD089580B5816080BD36
:104770001DBC1CBC0895DF93CF9300D0CDB7DEB72E
:104780008CB59DB59A83898329813A81C9010F909F
:104790000F90CF91DF910895EF92FF920F931F93A7
:1047A000CF93DF93EC018FEFC937D80710F0C0E04B
:1047B000D0E07E0100E010E080E090E0E60EF71E21
:1047C000081F191F91E0E91690E0F90691E009072A
:1047D00090E0190768F080E090E0AFEFBFEFE80EDF
:1047E000F91E0A1F1B1F0E94BB23C817D907D8F345
:1047F0000E94BB238E159F05D8F3DF91CF911F91A7
:104800000F91FF90EF90089582BF089513BE87B770
:104810008D7F87BF87B78E7F87BF08958BE083BF6B
:1048200087B7836087BF089580B5826080BD12BE60
:104830001092900310923B0408958EEF80933B04F6
:1048400098E090BF81BF83E086BF8BE083BF80B5D7
:10485000876080BD1FBC81E08EBD1DBC1CBC80B5C7
:10486000816080BD0E9414240E940E241092900347
:104870000895089581B78F5F0895815081BF08958D
:1048800082B708951F920F920FB60F920BB60F9238
:1048900011242F933F934F935F936F937F938F9345
:1048A0009F93AF93BF93EF93FF938AE060E00E94E2
:1048B000DE15FF91EF91BF91AF919F918F917F9105
:1048C0006F915F914F913F912F910F900BBE0F9081
:1048D0000FBE0F901F9018950F920FB60F921F9258
:1048E0002F923F924F925F926F927F928F929F9200
:1048F000AF92BF92CF92DF92EF92FF920F931F93EE
:104900002F933F934F935F936F937F938F939F93D7
:10491000AF93BF93CF93DF93EF93FF93A091C50520
:10492000B091C6050DB60D920EB60D921F92A091D4
:104930003804B09139041E90BEBFADBF08958823DE
:1049400019F487B78F7787BF8FEF0895882319F4FD
:1049500014BC81E008958FEF0895882319F424B5DD
:1049600030E002C020E030E0C9010895882329F436
:1049700087B7806887BF81E008958FEF0895882307
:1049800059F5CB0101978530910510F460933A04F5
:1049900088E085BD43BD30930C0320930B038091C9
:1049A0003A04813019F485B5816009C0823019F468
:1049B00085B5826004C0833029F485B5836085BDE8
:1049C00081E00895843019F485B58460F8CF85308E
:1049D00029F485B58560F3CF8FEF089581E00895C0
:1049E0001F920F920FB60F920BB60F9211242F93B6
:1049F0003F934F935F936F937F938F939F93AF9367
:104A0000BF93EF93FF93E0910B03F0910C0330976A
:104A100011F0099504C08AE060E00E94DE15FF9164
:104A2000EF91BF91AF919F918F917F916F915F9126
:104A30004F913F912F910F900BBE0F900FBE0F9093
:104A40001F90189504B603FC02C080E001C080E10D
:104A500004B602FE06C094B79B7F94BF04B600FE66
:104A6000846004B601FE05C094B79D7F94BF826048
:104A70000895882359F404B600FE04C094B79E7FBD
:104A800094BF01C081E093B79111816008958FEFC9
:104A900008958FEF08958FEF08951F920F920FB62C
:104AA0000F920BB60F9211242F933F934F935F9366
:104AB0006F937F938F939F93AF93BF93EF93FF93E6
:104AC0008AE060E00E94DE15FF91EF91BF91AF9107
:104AD0009F918F917F916F915F914F913F912F9116
:104AE0000F900BBE0F900FBE0F901F9018950E9455
:104AF0000712A89584B7877F84BF81B5886181BD7F
:104B000011BC0E94091208950E94071284B7877F82
:104B100084BFA89581B5886181BD8FE081BD0E9469
:104B20000912089504B603FC02C081E008958FEFD6
:104B30000895A89508950895FC01768365830895E6
:104B400085B7837E886185BF85B7806285BF88957C
:104B500085B78F7D85BF089585B7837E85BF85B76F
:104B6000806285BF889585B78F7D85BF089525E5CF
:104B7000FA012083FB013297908381831292129273
:104B80001292129212921292129212921292129205
:104B900012921292129212921292129212921292F5
:104BA00012921292129212921292129212921292E5
:104BB00012921292129212921292129212921292D5
:104BC000CF010895EF92FF920F931F93CF93DF933E
:104BD000EC018B017A014032510518F481E10E9409
:104BE0001F160894E108F108E00EF11EFA82E9822E
:104BF0001C830B83DF91CF911F910F91FF90EF905A
:104C000008958DEF93E19093FE108093FF10089527
:104C100085E580937E10EEEFF0E1F0933904E093A8
:104C200038048DEF93E190838093FF1008950E94E4
:104C30001D240E94091208950E94722608951F9350
:104C4000DF93CF930F92CDB7DEB7142F83708C62B2
:104C500069830E94DD266981613011F480E001C022
:104C600080E80E94A526812F0E94A5260E949926F1
:104C70000F90CF91DF911F910895DF93CF9300D0D4
:104C8000CDB7DEB780E487B986E086B9379A369A21
:104C90003699FECF84B195B19A8389830F900F9096
:104CA000CF91DF9108953798089597B18F71907ED5
:104CB000892B87B9369A3699FECF24B135B1C9010F
:104CC00008958EE10E945526BC0180E090E00E948C
:104CD0008D3C9B01AC0164EA70E78DE994E40E948D
:104CE000F93B0895E1E7F0E08081808381E08093E3
:104CF000700084E08093740008958091740087FFB1
:104D0000FCCF0895E4E7F0E0808180688083089517
:104D1000CF93DF93C4E7D0E08881806288830E94CC
:104D200082260E947D2688818F7D8883DF91CF91A6
:104D30000895809174008061809374000E9482269F
:104D40008091740084FDFCCF0895809373000E94CD
:104D500082260E947D2680917100887F883241F0F2
:104D600090917100987F81E0983119F480E0089566
:104D700080E00895009721F080917400806403C062
:104D8000809174008F7B809374000E9482260E9421
:104D90007D26809173000895DF93CF930F92CDB756
:104DA000DEB789830E9488268981880F81600E94EE
:104DB000A5260F90CF91DF910895DF93CF930F92A7
:104DC000CDB7DEB789830E9488268981880F0E942B
:104DD000A5260F90CF91DF9108950E943D2681E096
:104DE0008093FC0208958091FC02882311F40E94B4
:104DF000ED260E9453260895DF93CF930F92CDB7EF
:104E0000DEB79091FC02992321F489830E94ED265C
:104E10008981A898A098813019F41D9A159A02C02A
:104E20001D9815980F90CF91DF910895DF93CF9340
:104E30000F92CDB7DEB79091FC02992321F48983BC
:104E40000E94ED2689811D981598813019F4A89A41
:104E5000A09A02C0A898A0980F90CF91DF910895D2
:104E60008091FC02882311F40E94ED2681E00E94CB
:104E7000FC2681E00E94552608958091FC0288233B
:104E800011F40E94ED2681E00E94162781E00E9425
:104E900055260895AF92BF92CF92DF92EF92FF9284
:104EA0000F931F930E943D27BC0180E090E00E9479
:104EB0008D3C8B017C0160E070EC8FE794E4202F47
:104EC000312F4E2D5F2D0E94943B20E030E44CE1C9
:104ED00056E40E94643D202F312F4E2D5F2D0E94FD
:104EE000F93B0E94243D7B018C0120E030E040E44E
:104EF00050E40E94C73DD62EC72EB82EA92EC80159
:104F0000B70129E733EE4DE759E30E94643D28ECF1
:104F100032E644E85AE30E94953B7B018C01A601EE
:104F20009501652F742F832F922F2DE234EC4CE1E5
:104F300054E30E94643D9B01AC01C801B7010E948B
:104F4000953B9B01AC0160E070E080E89FE30E942C
:104F5000F93B1F910F91FF90EF90DF90CF90BF90A2
:104F6000AF9008950E944A2723E333E948E853E4C9
:104F70000E94943B08950E943D260E941C2681E0D9
:104F80008093FD0208958091FD02882311F40E9410
:104F9000BB270E9453260895DF93CF930F92CDB77E
:104FA000DEB79091FD02992321F489830E94BB27EB
:104FB0008981813011F4AC9A01C0AC980F90CF91E7
:104FC000DF910895DF93CF930F92CDB7DEB7909125
:104FD000FD02992321F489830E94BB2789818130B6
:104FE00011F4AD9A01C0AD980F90CF91DF91089563
:104FF0001F93182F8091FD02882311F40E94BB2774
:1050000080E00E940C28113019F4A89AA09A02C0DE
:10501000A898A0981F9108951F93182F8091FD02C2
:10502000882311F40E94BB2780E00E94F8271130EA
:1050300019F41D9A159A02C01D9815981F9108958C
:10504000DF93CF930F92CDB7DEB79091FD029923F6
:1050500021F489830E94BB278981813011F4AA9AA7
:1050600001C0AA980F90CF91DF910895DF93CF935D
:105070000F92CDB7DEB79091FD02992321F4898379
:105080000E94BB278981813011F4AB9A01C0AB9893
:105090000F90CF91DF910895DF93CF930F92CDB70B
:1050A000DEB7482F8091FD02882321F449830E94B6
:1050B000BB27498180E061E00E941F260F90CF91BD
:1050C000DF910895DF93CF930F92CDB7DEB7482FCE
:1050D0008091FD02882321F449830E94BB274981E6
:1050E00080E062E00E941F260F90CF91DF9108952B
:1050F000DF93CF930F92CDB7DEB7482F8091FD029B
:10510000882321F449830E94BB27498181E061E023
:105110000E941F260F90CF91DF910895DF93CF93C8
:105120000F92CDB7DEB79091FD02992321F48983C8
:105130000E94BB278981882311F4AE9A03C0813075
:1051400009F4AE980F90CF91DF9108958091FD0200
:10515000882311F40E94BB2781E00E940C2881E083
:105160000E94552608958091FD02882311F40E9423
:10517000BB2781E00E94F82781E00E945526089510
:105180008091FD02882311F40E94BB2782E00E94D7
:10519000552608958091FD02882311F40E94BB27B3
:1051A00083E00E94552608958091FD02882311F422
:1051B0000E94BB2784E00E94552608958091FD023D
:1051C000882311F40E94BB2785E00E94552608958C
:1051D0008091FD02882311F40E94BB2786E00E9483
:1051E0005526089589E993E00197F1F700C0DC980E
:1051F000D49A89E993E00197F1F700C0D498DC9A3A
:10520000CC9BFECF80E007C091E39A95F1F70000B8
:105210008F5F8F3149F0CC99F7CF89E993E00197FF
:10522000F1F700C080E008958FEF0895882361F4BE
:10523000DC98D49A84EC8A95F1F700C0D498DC9A73
:1052400081E38A95F1F70BC0DC98D49A88E18A95BE
:10525000F1F700C0D498DC9A8DED8A95F1F7000043
:105260000895DC98D49A82E08A95F1F700C0D4982A
:10527000DC9A96E19A95F1F7000089B394EC9A953F
:10528000F1F700C090E08071907024E095958795CB
:105290002A95E1F70895FF920F931F93CF93DF9321
:1052A000F82EC0E0D0E001E010E098010C2E02C022
:1052B000220F331F0A94E2F78F2D82230E941629B2
:1052C0002196C830D10589F7DF91CF911F910F91B9
:1052D000FF9008951F93CF93DF93C0E0D0E010E0DC
:1052E0000E943129282F30E00C2E02C0220F331FDC
:1052F0000A94E2F7122B2196C830D10589F7812F45
:10530000DF91CF911F9108958FE00E944B2908955E
:1053100080B58B7F80BDD498DC9A86EF8A95F1F7B3
:105320000895EF92FF920F931F93DF93CF9300D0D6
:1053300000D0CDB7DEB77C0119821A821B821C8295
:105340000E94F228882339F0282F332727FD309533
:10535000432F532F27C00E9484290E946A2981303D
:1053600019F08EEFF70180838E010F5F1F4F0E94AF
:105370006A2989830E946A29F80181830E946A2927
:10538000F80182830E946A29F80183830E946A29B6
:105390000E946A290E946A29F701108229813A81B4
:1053A0004B815C81B901CA010F900F900F900F9053
:1053B000CF91DF911F910F91FF90EF900895AA98E0
:1053C000959887FF02C0939A01C09398959A9598F3
:1053D00086FF02C0939A01C09398959A959885FF8D
:1053E00002C0939A01C09398959A959884FF02C041
:1053F000939A01C09398959A959883FF02C0939AC7
:1054000001C09398959A959882FF02C0939A01C023
:105410009398959A959881FF02C0939A01C09398AA
:10542000959A959880FF02C0939A01C09398959A97
:10543000959AAA9A0895DF93CF9300D00F92CDB793
:10544000DEB7A89A19821FC0A898898180550E944A
:10545000DF2980E10E94DF2980E00E94DF29A89AED
:105460001B821A8208C080E00E94DF298A819B810A
:1054700001969B838A838A819B81803891059CF366
:1054800089818F5F898389818830F0F20F900F9036
:105490000F90CF91DF910895C498BC9A85B387602F
:1054A00085BB84B3876084BB81B3886281BB939AD8
:1054B00088E785BB84B3877884BBA898A9988FEFC9
:1054C0009FE3A2E081509040A040E1F700C00000BF
:1054D000A99A8FEF9FE3A2E081509040A040E1F7AE
:1054E00000C0000080E40E94DF2981EA0E94DF29D9
:1054F00080EC0E94DF2986EA0E94DF2982EA0E946E
:10550000DF298FE20E94DF2988EF0E94DF2980E0F7
:105510000E94DF2987E20E94DF2981E80E94DF29BB
:1055200080E10E94DF298CEA0E94DF2980E00E944E
:10553000DF298FEA0E94DF290E941B2A089581300B
:1055400011F4C49A0895C4980895EF92FF920F93AE
:105550001F93DF93CF930F92CDB7DEB7082F162F8F
:10556000A898842F805599830E94DF29812F8295E6
:105570008F7080610E94DF29812F8F700E94DF2948
:10558000A89A9981602F792F7B011AC000E010E062
:10559000D701EC91B5E0EB9FF0011124E00FF11F72
:1055A000EB55FC4F84910E94DF290F5F1F4F0530A0
:1055B000110571F780E00E94DF290894E11CF11CBD
:1055C000F7018081882311F70F90CF91DF911F9110
:1055D0000F91FF90EF9008956091F6057091F70597
:1055E00090E00E941241089580E00E94E10E88231D
:1055F00049F08091F4059091F5050E94D040282F44
:1056000030E002C02FEF3FEFC9010895BF92CF9263
:10561000DF92EF92FF920F931F93DF93CF9300D00F
:1056200000D00F92CDB7DEB7D82EB62E20EA36E8DE
:1056300041E050E029833A834B835C8381E19D8381
:105640000E94EC2A8B2D0E94EC2A81E1C82ECB0C03
:105650009D810D2D192F09C07801F80181918F01CD
:105660000E94EC2AF7018081C80E802F8D198B15BE
:1056700098F38C2D0E94EC2A0E94F42A29813A8109
:105680004B815C81215030404040504029833A8317
:105690004B835C83863051F089819A81AB81BC81D8
:1056A0000097A105B10541F78FEF01C080E00F9091
:1056B0000F900F900F900F90CF91DF911F910F914E
:1056C000FF90EF90DF90CF90BF900895CF92DF9240
:1056D000EF92FF920F931F93DF93CF9300D000D0F0
:1056E000CDB7DEB7F82E092F20EA36E841E050E0CA
:1056F00029833A834B835C8382E10E94EC2A81E018
:105700000E94EC2A83E50E94EC2A86E60E94EC2A9D
:105710000E94F42A29813A814B815C8121503040DA
:105720004040504029833A834B835C83863061F04C
:1057300029813A814B815C81211531054105510553
:1057400039F7EE24E39401C0EE240E94F42A2FEFEF
:105750008F3F9207D1F38131910559F50E94F42AC8
:10576000EFEF8F3F9E07D1F3D82E91E1C92ECD0CDC
:10577000802F0F2D182F0AC00E94F42AFFEF8F3FB1
:105780009F07D1F3F80181938F01C80E802F8F19E5
:105790008D1590F30E94F42AFFEF8F3F9F07D1F3FE
:1057A0002C2D30E08217930721F4EE2011F48D2D7B
:1057B00001C08FEF0F900F900F900F90CF91DF915E
:1057C0001F910F91FF90EF90DF90CF900895CF92AF
:1057D000DF92EF92FF920F931F93DF93CF9300D04E
:1057E00000D0CDB7DEB78C017B0180E492E4AFE05E
:1057F000B0E089839A83AB83BC8382E10E94EC2A68
:1058000081E00E94EC2A89E40E94EC2A8CE50E9447
:10581000EC2A0E94F42A29813A814B815C81215033
:1058200030404040504029833A834B835C8386302C
:1058300059F089819A81AB81BC810097A105B1059E
:1058400041F7DD24D39401C0DD240E94F42A2FEF18
:105850008F3F9207D1F38231910551F50E94F42ACE
:10586000EFEF8F3F9E07D1F3823011F50E94F42AAB
:10587000FFEF8F3F9F07D1F324E1C22EC80EF8013E
:1058800080830E94F42AFFEF8F3F9F07D1F30C2DF6
:10589000080FF70180830E94F42AFFEF8F3F9F07D4
:1058A000D1F3202F30E08217930711F4DD2011F09F
:1058B0008FEF01C080E00F900F900F900F90CF916D
:1058C000DF911F910F91FF90EF90DF90CF9008959F
:1058D0000F931F93DF93CF9300D000D0CDB7DEB7E7
:1058E000182F062F20E432E44FE050E029833A835A
:1058F0004B835C8382E10E94EC2A83E00E94EC2AC5
:1059000084E40E94EC2A812F0E94EC2A802F0E94BE
:10591000EC2A812F875A800F0E94EC2A0E94F42AD9
:1059200029813A814B815C81215030404040504078
:1059300029833A834B835C83863051F089819A8135
:10594000AB81BC810097A105B10541F78FEF01C084
:1059500080E00F900F900F900F90CF91DF911F91EB
:105960000F910895BF92CF92DF92EF92FF920F9323
:105970001F93DF93CF9300D000D0CDB7DEB76C017B
:105980008B017A0180E492E4AFE0B0E089839A83EE
:10599000AB83BC8382E10E94EC2A81E00E94EC2A66
:1059A00080E50E94EC2A83E60E94EC2A0E94F42AF9
:1059B00029813A814B815C812150304040405040E8
:1059C00029833A834B835C83863049F089819A81AD
:1059D000AB81BC810097A105B10541F73BC00E9496
:1059E000F42A2FEF8F3F9207D1F38231910591F581
:1059F0000E94F42AEFEF8F3F9E07D1F3833051F5D9
:105A00000E94F42AFFEF8F3F9F07D1F335E1B32EB9
:105A1000B80EF60180830E94F42AFFEF8F3F9F07A4
:105A2000D1F3CB2CC80EF80180830E94F42AFFEF3B
:105A30008F3F9F07D1F30C2D080FF70180830E9441
:105A4000F42AFFEF8F3F9F07D1F3202F30E082171A
:105A5000930711F08FEF01C080E00F900F900F902F
:105A60000F90CF91DF911F910F91FF90EF90DF90FA
:105A7000CF90BF900895EF92FF920F931F93DF9303
:105A8000CF9300D000D0CDB7DEB7F82E092F20E499
:105A900032E44FE050E029833A834B835C8382E118
:105AA0000E94EC2A81E00E94EC2A82E50E94EC2A06
:105AB00085E60E94EC2A0E94F42A29813A814B81D2
:105AC0005C81215030404040504029833A834B83D1
:105AD0005C83863059F029813A814B815C812115A4
