:100000000C94C9040C94AC260C94E8040C94E804F9
:100010000C94E8040C94E8040C94E8040C94E804B0
:100020000C94E8040C944F260C94E8040C94E80417
:100030000C94E8040C94E8040C94E8040C94CB258C
:100040000C94CB250C94E8040C94E8040C94E8047C
:100050000C94E8040C94E8040C94E8040C94E80470
:100060000C94E8040C94E8040C94E8040C94E80460
:100070000C94E8040C94E8040C94E8040C94E80450
:100080000C94E8040C94E8040C94E8043F1645161C
:1000900048164B164E165116571654165A165D161C
:1000A000601669166C166F16721666163C164216A6
:1000B000751678166316391608000000BE9224499A
:1000C000123EABAAAA2ABECDCCCC4C3E000000808A
:1000D000BEABAAAAAA3E00000000BF000000803FFD
:1000E0000000000000084178D3BB4387D1133D19BD
:1000F0000E3CC3BD4282AD2B3E68EC8276BED98FEA
:10010000E1A93E4C80EFFFBE01C4FF7F3F0000002D
:10011000000007634236B79BD8A71A39685618AE55
:10012000BAAB558C1D3CB7CC5763BD6DEDFD753E2C
:10013000F6177231BF000000803F554E4B4F574EAF
:100140000045787465726E616C2052657365740049
:1001500042726F776E204F757420446574656374C6
:10016000004661696C656420746F20637265617418
:10017000652053656D6170686F7265004661696CDA
:10018000656420746F2063726561746520536967CC
:100190006E616C004B65726E656C2066756E637483
:1001A000696F6E206E6F7420696D706C656D656E21
:1001B0007465640044657669636520447269766598
:1001C00072204572726F72005761746368646F6762
:1001D00020526573746172740053572057617463C1
:1001E00068646F6720526573746172740054696D3E
:1001F0006572204F766572666C6F7700556E686128
:100200006E646C656420496E7465727275707420DA
:10021000566563746F72004C6F7720566F6C746113
:100220006765004578747261205461736B20737444
:1002300061727465642C206973206E726B5F6366F3
:10024000672E68206F6B3F0049646C65206F7220D9
:100250004B65726E656C20537461636B204F7665DD
:1002600072666C6F7700556E65787065637465644F
:100270002052657374617274004475706C696361B7
:10028000746564205461736B20494400536368654E
:1002900064756C6572204D69737365642057616B7A
:1002A000657570005461736B205265736572766575
:1002B0002056696F6C61746564005265736572766F
:1002C00065204572726F7220696E205363686564A1
:1002D000756C657200496E76616C69642053746157
:1002E000636B20506F696E746572005461736B208C
:1002F000537461636B204F766572666C6F77005341
:100300007461636B20776173206E6F74206465661F
:10031000696E6564206173206C6172676520656E2B
:100320006F75676821005461736B20706572696F27
:100330006420746F6F206C617267652E2050657247
:10034000696F64206D757374206265206C657373CA
:10035000207468616E203631207365636F6E64733C
:100360002E00293A20002A4E524B204552524F521D
:1003700028000D0A535441434B2044554D500D0A5B
:10038000000A0D006E726B5F71756575653A20002D
:1003900008082A1C08081C2A080840444A51404002
:1003A000514A444014741C171410207F01010000AE
:1003B0000000000000000000081C2C08087F01015C
:1003C0000101010101017F7F404040404040404029
:1003D0007F0000000000000000000000000000009E
:1003E00079112711790000000000000000000000D2
:1003F000000000007F01010103605048447E3E4937
:1004000049493E700C030C706349494963017F01FF
:100410007F01635549414106017E010608557F551C
:10042000080F107F100F4E7101714E38444438444C
:10043000000000000000005F000003000300001443
:100440003E143E1426497F493262152A5423364908
:100450005620500003000000001C224100004122F1
:100460001C0000140E140008083E0808006000007C
:10047000000808080800004000000060100804039D
:100480003E4141413E04027F000062514945422203
:10049000414949360C0B087E084F494949313E49CC
:1004A0004949326111090503364949493626494906
:1004B000493E0022000000006100000008141422E0
:1004C00022141414141422221414080601590502CB
:1004D0003E415D555E7E0909097E7F494949363EA8
:1004E000414141227F4141413E7F494949417F0984
:1004F0000909013E414949327F0808087F00007F11
:100500000000204040403F7F081422417F4040408F
:10051000007F0204027F7F021C207F3E4141413E5A
:100520007F090909063E4151617E7F091929462646
:100530004949493201017F01013F4040403F1F20AE
:1005400040201F3F4030403F631408146303047889
:10055000040361514945437F410000000000000051
:1005600000000000417F060106000040404040407E
:10057000010200000020545454787F484848303825
:1005800044444428384444447F3854545418087E22
:100590000909010C5252523E7F04040478047D4044
:1005A0004020204040443D007F102844203E5149D7
:1005B000467C047C04787C0804047838444444383D
:1005C0007E1212120C0C1212127E047804040848D7
:1005D00054545424043F4444403C40403C401C207C
:1005E00040201C3C4030403C4428102844264848C9
:1005F000483E4464544C4400083E410000007F00E3
:100600000000413E08000000000000000000000063
:1006100000000000000000000000000000000020BA
:10062000483E090200000000000000000000040431
:100630007F04040000000000000000000000000033
:1006400000000000000000000000000000000000AA
:10065000000000000000000000000000000000009A
:100660000000000000000000000000000000000288
:100670000401020000000000000018180000000043
:10068000000000000000000000000000000000006A
:10069000000000000000000000000000000000005A
:1006A000000000000000000000000000000000004A
:1006B0000000000000000079000000000000004879
:1006C0007E494942000000000015167C1615000006
:1006D0000000000A5555552800010001003E635DE9
:1006E0006B3E000000000008142A142200000000E5
:1006F0000000000000003E41754B3E010101010178
:1007000000020502000000000000000000000000E0
:100710000000000000000000000000000000060FC4
:100720007F017F00000000000000000000000000CA
:100730000000070507000022142A14080F003C20BF
:10074000780F004864580000000000304845402001
:100750000000000000000000000000000000007227
:1007600029292A717825242578702A252A707E095E
:100770007F49490E5151711100000000007C545610
:1007800055440000000000000000000000000000D0
:100790000000000000000000000000000000000059
:1007A00000000000007A091122790000000000001A
:1007B0000000000000000000003A454546393D4277
:1007C00042423D22140814225C322A261D000000F9
:1007D0000000000000000000000000003C4140411B
:1007E0003C000000000000000000000000000000CD
:1007F0002055565478205456557820565556782210
:100800005155567920555455780000000000245465
:100810007854580C5252721238555654183854564F
:1008200055183856555618385554551800497A40B9
:100830000000487A4100004A794200004A784200AC
:1008400000000000007A11090A7130494A4830302E
:10085000484A4930304A494A303249494A31304A97
:10086000484A3008082A080818643C2618384142CB
:10087000207838404221783842412278384240225C
:1008800078000000000000000000000C5150513CB6
:100890006E616E00696E660000407A10F35A00A027
:1008A000724E18090010A5D4E80000E87648170039
:1008B00000E40B54020000CA9A3B000000E1F50579
:1008C000000080969800000040420F000000A086C3
:1008D00001000000102700000000E80300000000F5
:1008E0006400000000000A00000000000100000099
:1008F00000002C76D888DC674F0823DFC1DFAE59B3
:10090000E1B1B796E5E3E453C63AE651997696E845
:10091000E6C28426EB898C9B62ED407C6FFCEFBCC9
:100920009C9F40F2BAA56FA5F490055A2AF75C93F4
:100930006B6CF9676DC11BFCE0E40D47FEF520E62A
:10094000B500D0ED902E0300943577050080841E0D
:10095000080000204E0A000000C80C333333330F68
:10096000986E12831141EF8D2114893BE65516CF05
:10097000FEE6DB18D1844B381BF77C1D901DA4BB11
:10098000E424203284725E228100C9F124ECA1E5C6
:100990003D2711241FBECFEFD0E1DEBFCDBF13E056
:1009A000A0E0B1E0EEEEFAE800E00BBF02C0079075
:1009B0000D92A83CB107D9F717E0A8ECB3E001C04D
:1009C0001D92AF34B107E1F70E94ED050C94754517
:1009D0000C94A1252F923F924F925F926F927F923B
:1009E0008F929F92AF92BF92CF92DF92EF92FF923F
:1009F0000F931F93CF93DF93E0911607F0911707A2
:100A00008085992787FD9095E0E08E2EE1E09E2E6F
:100A100072E0A72EB12C60E2662E61E0762E50EDDA
:100A2000452E57E0552E43E3242E41E0342E6C0131
:100A3000CC0CDD1C25E0880F991F2A95E1F7C80E24
:100A4000D91E82E696E0C80ED91E00D000D0ADB700
:100A5000BEB712969C928E9211971496BC92AE924B
:100A600013970E940F430F900F900F900F900E94CA
:100A700058417C01EE0CFF1CEE0CFF1C0027F7FC1C
:100A80000095102F17FF08C010950095F094E09482
:100A9000E11CF11C011D111D00D000D000D0EDB7EC
:100AA000FEB772826182ADB7BEB71396ED92FD922A
:100AB0000D931C9316970E940F43EDB7FEB7369621
:100AC0000FB6F894FEBF0FBEEDBFC0E0D0E035C05A
:100AD000CE01B2010E949E40009771F500D000D077
:100AE000ADB7BEB712963C922E921197F601808157
:100AF000918114969C938E9313970E940F4300D07C
:100B000000D0EDB7FEB7319685E491E0ADB7BEB742
:100B100012969C938E931197D383C283E482F582BD
:100B2000068317830E940F43ADB7BEB718960FB662
:100B3000F894BEBF0FBEADBF2196CE01AA2797FD88
:100B4000A095BA2FE816F9060A071B070CF600D085
:100B500000D08CE691E0EDB7FEB792838183B4823A
:100B6000A3820E940F430F900F900F900F900E944E
:100B7000001F6BCFEF92FF920F931F93CF93DF93E2
:100B8000F0E0EF2EF1E0FF2EC1E0D0E00CE611E046
:100B900000D000D0EDB7FEB7F282E182D483C383E8
:100BA0000E940F430F900F900F900F900E9458419A
:100BB0008BE891E00E94214300D000D0EDB7FEB752
:100BC00012830183D483C3830E940F430F900F903D
:100BD0000F900F900E94001FDBCF1F93CF93DF93E6
:100BE0000E949B1187E090E00E94EA110E94D912B6
:100BF00060E070E0CB0120E030E0A9010E94042118
:100C000080910205909103050E94991FE0910205D1
:100C1000F091030564817581868197810E945D4111
:100C200011E0109390051093910510939205109385
:100C3000930580919B0190919C01A0919D01B091A1
:100C40009E018093940590939505A0939605B0938B
:100C50009705109298051092990510929A05109296
:100C60009B0580919F019091A001A091A101B0915D
:100C7000A20180939C0590939D05A0939E05B0933F
:100C80009F051092A0051092A1051092A205109246
:100C9000A3051092A4051092A5051092A605109226
:100CA000A7051092A8051092A9051092AA05109206
:100CB000AB05C9E8D5E0CE016AEB75E00E94FB26E2
:100CC000CE0169ED73E040E850E00E944127CE017B
:100CD0000E94481D1093620482E08093630483E0C5
:100CE00080936404109365048091A3019091A40102
:100CF000A091A501B091A60180936604909367042A
:100D0000A0936804B093690410926A0410926B0473
:100D100010926C0410926D048091A7019091A8012B
:100D2000A091A901B091AA0180936E0490936F04E1
:100D3000A0937004B0937104109272041092730423
:100D40001092740410927504109276041092770435
:100D5000109278041092790410927A0410927B0415
:100D600010927C0410927D04CBE5D4E0CE016AEEB3
:100D700074E00E94FB26CE0164E075E040E850E09C
:100D80000E944127CE010E94481D0E949F1380E0CF
:100D900090E0DF91CF911F91089590E09C012B503E
:100DA0003040220F331F220F331F865A9E4B820F73
:100DB000931FF894C09828E12FB9779BFECF9FB975
:100DC000779BFECF8FB9779BFECFC09A789408951A
:100DD000F894C0981FB8779BFECF8FB1C09A7894D3
:100DE00086FFF6CF08958091C5010E94CD0F8091B6
:100DF000C4010E94131008958091C5010E94CD0F77
:100E00008091C4010E94CD0F0895F894C09887E0A6
:100E10008FB9779BFECFC09AC09886E08FB9779B39
:100E2000FECFC09A78940895F894C09881E08FB965
:100E3000779BFECFC09A88EE93E00E9408257894B5
:100E40000895809141060895FC01C09889EC8FB9FE
:100E5000779BFECF80E88FB9779BFECF82E08150F1
:100E6000DF01A80FB11D9C919FB9779BFECF88230E
:100E7000B1F7C09AC0988BEC8FB9779BFECF80E812
:100E80008FB9779BFECF82E08150DF01A80FB11DA3
:100E900012969C9112979FB9779BFECF8823A1F75A
:100EA000C09A80818093420681818093430682812B
:100EB0008093440683818093450608958F929F9284
:100EC000AF92BF92CF92DF92EF92FF920F931F9358
:100ED000DF93CF9300D000D0CDB7DEB7E82E092F37
:100EE00084E690E00E940825F02E20E031E08E019B
:100EF0000F5F1F4FF3E0CF2ED12CCC0EDD1EF7017C
:100F000091907F018824808190E0882999299A8393
:100F1000898384E690E02B833C830E940825C09857
:100F20002B813C81822F80688FB9779BFECFC901CE
:100F300095958795807C8FB9779BFECF5801F801F6
:100F400081918FB9779BFECFEC15FD05C9F7C09A4B
:100F50002E5F3F4FF1E020313F0789F684E690E0B5
:100F60000E94082520E431E080E191E01A82198294
:100F7000C098422F40684FB9779BFECFA901559585
:100F80004795407C4FB9779BFECFF80141914FB90F
:100F9000779BFECFEC15FD05C9F7C09AC098482F86
:100FA00040684FB9779BFECFAC0155954795407C83
:100FB0004FB9779BFECFF80141914FB9779BFECF98
:100FC000EC15FD05C9F7C09A02962E5F3F4F41E030
:100FD0008E31940759F681E090E09A838983C09816
:100FE0008EEC8FB9779BFECF80E88FB9779BFECFD1
:100FF000C8010296F80121912FB9779BFECFE8171F
:10100000F907C9F7C09AC0988EE98FB9779BFECFD0
:1010100080E88FB9779BFECF0E5F1F4FF50181915E
:101020005F018FB9779BFECFA016B106B9F7C09AC2
:101030000F900F900F900F90CF91DF911F910F9114
:10104000FF90EF90DF90CF90BF90AF909F908F90E8
:101050000895C09889E18FB9779BFECF83E08FB95F
:10106000779BFECF86E08FB9779BFECFC09AC09862
:101070008AE18FB9779BFECF8EE08FB9779BFECF49
:101080008EE08FB9779BFECFC09A81E080933206C5
:101090000895C09889E18FB9779BFECF81E08FB921
:1010A000779BFECF84EC8FB9779BFECFC09A1092CE
:1010B000320608958091300690913106089590E0AF
:1010C0008F719070806E906AC09825E12FB9779BE0
:1010D000FECF9FB9779BFECF8FB9779BFECFC09A8B
:1010E00008950E94CD0608958091330690913406AC
:1010F00098609093340680933306C09881E18FB94D
:10110000779BFECF809134068FB9779BFECF80917D
:1011100033068FB9779BFECFC09A0895809133062E
:1011200090913406977F9093340680933306C0984D
:1011300081E18FB9779BFECF809134068FB9779B81
:10114000FECF809133068FB9779BFECFC09A08956A
:1011500081E080934006809133069091340680614F
:101160009093340680933306C09881E18FB9779BC2
:10117000FECF809134068FB9779BFECF80913306E6
:101180008FB9779BFECFC09A089510924006809148
:101190003306909134068F7E909334068093330605
:1011A000C09881E18FB9779BFECF809134068FB9CB
:1011B000779BFECF809133068FB9779BFECFC09A85
:1011C0000895DF93CF9300D0CDB7DEB79A8389839C
:1011D00090933C0680933B0684EF91E00E940825A3
:1011E000C0988AEE8FB9779BFECF80E88FB9779B46
:1011F000FECFFE013196CE01039621912FB9779B48
:10120000FECFE817F907C9F7C09A84EF91E00E9472
:1012100008250F900F90CF91DF910895CF93DF9322
:10122000EC01862FC09898E09FB9779BFECFC09ABB
:10123000C09898E09FB9779BFECFC09A0E94CD06D8
:10124000D0933606C0933506DF91CF910895DF9293
:10125000EF92FF920F931F93DF93CF9300D0CDB700
:10126000DEB78C01D62E5A8349837901DD9A88EE48
:1012700093E00E942A12DE9881E090E00E942A12F8
:10128000DE9A84E690E00E942A12F894C09881E0E9
:101290008FB9779BFECFC09A82EE92E0909334068E
:1012A00080933306C09881E18FB9779BFECF809100
:1012B00034068FB9779BFECF809133068FB9779B29
:1012C000FECFC09AC09882E18FB9779BFECF85E0B0
:1012D0008FB9779BFECF1FB8779BFECFC09AC0987F
:1012E0008CE18FB9779BFECF1FB8779BFECF8FE73E
:1012F0008FB9779BFECFC09AC09889E18FB9779B51
:10130000FECF81E08FB9779BFECF84EC8FB9779BBE
:10131000FECFC09AC09887E18FB9779BFECF8AE154
:101320008FB9779BFECF86E58FB9779BFECFC09AAA
:1013300084EF91E00E940825C09888EE8FB9779BD2
:10134000FECF80E88FB9779BFECFFE013196CE01AC
:10135000039621912FB9779BFECFE817F907C9F7BC
:10136000C09A84EF91E00E94082578948D2D0E9408
:10137000CD067894109336060093350689819A81BC
:1013800090933A0680933906F0923C06E0923B0631
:101390001092370610923D060E94E8061092400611
:1013A00010923206109241060F900F90CF91DF916C
:1013B0001F910F91FF90EF90DF90089581E080934F
:1013C0003D06C09883E08FB9779BFECFC09AC09846
:1013D00088E08FB9779BFECFC09A10924606089599
:1013E00081E080933D06C09883E08FB9779BFECF64
:1013F000C09AC09888E08FB9779BFECFC09A1092B0
:101400004606089510923D06C09886E08FB9779BF6
:10141000FECFC09A109246060895BF92CF92DF92F7
:10142000EF92FF920F931F93DF93CF9300D00F9211
:10143000CDB7DEB78C016B017A010E949F25C09861
:1014400088E08FB9779BFECFC09AC09888E08FB9AB
:10145000779BFECFC09A0E99FECF8499FCCFF8946B
:10146000C09889E08FB9779BFECFC09AC09889E079
:101470008FB9779BFECFC09AD80112965C911297D4
:10148000252F332727FD3095BB2440E00AC0D80123
:101490001396ED91FC911497E80FF91F8081B80E17
:1014A0004F5F842F90E0821793078CF3545FC098AE
:1014B0008EE38FB9779BFECF5FB9779BFECFC09A43
:1014C000F8018681882319F081E698E802C081E45A
:1014D00098E89A838983C0988EE38FB9779BFECF73
:1014E000FE013196CE01039621912FB9779BFECF55
:1014F000E817F907C9F7C09AC0988EE38FB9779BB0
:10150000FECF809137068FB9779BFECFC09AC098E7
:101510008EE38FB9779BFECF80E090E0FC01EB5C1F
:10152000F94F24812FB9779BFECF01968230910528
:10153000A9F7C09AC0988EE38FB9779BFECF80E061
:1015400090E0F801E80FF91F20812FB9779BFECFBB
:10155000019682309105A9F7C09AC0988EE38FB9A1
:10156000779BFECF80E090E0FC01EB5CF94F268199
:101570002FB9779BFECF019682309105A9F7C09ACB
:10158000C601B7010E942B25D80115968C9115979D
:101590008823A9F180913D06882331F4C09883E027
:1015A0008FB9779BFECFC09AC0981FB8779BFECFAC
:1015B0008FB1C09A81FFF8CF20E0A5E0EA2EC09855
:1015C000EFB8779BFECFC09AC0981FB8779BFECF2D
:1015D000CFB0C09A2F5F253649F4789480913006B9
:1015E000909131060E94901A80E060C084E690E0FD
:1015F0002B830E942A122B81C3FEE1CF06C0C09824
:1016000084E08FB9779BFECFC09AC0988EE38FB9E4
:10161000779BFECF40E00CC0D8011396ED91FC9172
:101620001497E80FF91F80818FB9779BFECF4F5F2A
:10163000842F90E0F8012281332727FD309582170F
:10164000930754F3C09AC0988EE38FB9779BFECF6F
:10165000BFB8779BFECFC09A849BFECFF894849945
:10166000FECFC09888E08FB9779BFECFC09AC09814
:1016700088E08FB9779BFECFC09AC09889E08FB978
:10168000779BFECFC09AC09889E08FB9779BFECF39
:10169000C09AC09886E08FB9779BFECFC09A7894A5
:1016A000809137068F5F8093370681E00F900F900F
:1016B0000F90CF91DF911F910F91FF90EF90DF90EE
:1016C000CF90BF900895FF920F931F93DF93CF9316
:1016D00000D0CDB7DEB7FC0180913206882331F00F
:1016E000C0988DE08FB9779BFECFC09A3281432F8F
:1016F000552747FD509520E060E007C0A381B481E5
:10170000A80FB91F8C91280F6F5F862F90E0841768
:101710009507A4F3832F845F9091320691118C5F1B
:10172000C09898E09FB9779BFECFC09AC09898E088
:101730009FB9779BFECFC09A0E99FECF8499FCCFBC
:10174000F894C09899E09FB9779BFECFC09AC09853
:1017500099E09FB9779BFECFC09AC0989EE39FB94E
:10176000779BFECF8FB9779BFECFC09A81E498E834
:101770009A83898380914006882321F081E698E846
:101780009A83898380913206882329F089819A81FE
:1017900088609A838983C0988EE38FB9779BFECF48
:1017A000DE011196CE0103963D913FB9779BFECFA6
:1017B000A817B907C9F7C09AC0988EE38FB9779B6D
:1017C000FECF809137068FB9779BFECFC09AC09825
:1017D0008EE38FB9779BFECF80E090E0DC01AB5CBD
:1017E000B94F14963C9114973FB9779BFECF019661
:1017F0008230910599F7C09AC0988EE38FB9779B94
:10180000FECF80E090E0DF01A80FB91F3C913FB907
:10181000779BFECF019682309105A9F7C09AC098B8
:101820008EE38FB9779BFECF80E090E0DC01AB5C6C
:10183000B94F16963C9116973FB9779BFECF01960C
:101840008230910599F7C09A80913206882381F001
:10185000C0988EE38FB9779BFECFA2E4B6E08D915E
:101860008FB9779BFECF86E0A634B807C1F7C09A40
:10187000C0988EE38FB9779BFECF30E009C0A3817B
:10188000B481A80FB91F8C918FB9779BFECF3F5FB2
:10189000832F90E04281552747FD50958417950787
:1018A00074F3C09AC0988EE38FB9779BFECF2FB99F
:1018B000779BFECFC09A8581882391F180913D0668
:1018C000882331F4C09883E08FB9779BFECFC09A0C
:1018D000C0981FB8779BFECF8FB1C09A81FFF8CF19
:1018E00010E005E0C0980FB9779BFECFC09AC09872
:1018F0001FB8779BFECFFFB0C09A1F5F153649F423
:10190000789480913006909131060E94901A80E080
:1019100043C084E690E00E942A12F3FEE3CF06C0A3
:10192000C09884E08FB9779BFECFC09A7894849B4F
:10193000FECF8499FECF809140068823F9F084EA97
:1019400092E00E942A12B79B0BC0C0988FE78FB914
:10195000779BFECF1FB8779BFECF8FB1C09A0EC08A
:10196000C09888E08FB9779BFECFC09AC09888E076
:101970008FB9779BFECFC09A80E001C081E0F894D8
:10198000C09896E09FB9779BFECFC09A78949091CB
:1019900037069F5F909337060F900F90CF91DF919E
:1019A0001F910F91FF90089581E0849B80E008953E
:1019B00081E00E9B80E0089581E0849B80E00895A3
:1019C000DF93CF9300D000D0CDB7DEB70E9BC7C159
:1019D000109241060E9B1AC0B79918C0C0988FE7A5
:1019E0008FB9779BFECF1FB8779BFECF8FB1C09A80
:1019F000C09888E08FB9779BFECFC09AC09888E0E6
:101A00008FB9779BFECFC09A8FEFAAC1C0988FE79E
:101A10008FB9779BFECF1FB8779BFECF4FB1C09A8F
:101A20004F77C1F4C0988FE78FB9779BFECF1FB86F
:101A3000779BFECF8FB1C09AC09888E08FB9779B13
:101A4000FECFC09AC09888E08FB9779BFECFC09A2E
:101A50008EEF86C14C3084F0E0913506F091360669
:101A6000842F992787FD90950B972481332727FD95
:101A70003095281739077CF5C0988FE78FB9779B89
:101A8000FECF50E0842F992787FD909504C01FB8A2
:101A9000779BFECF5F5F252F30E02817390714F4BE
:101AA000B799F5CFC09AC0988FE78FB9779BFECFD3
:101AB0001FB8779BFECF8FB1C09AC09888E08FB9CE
:101AC000779BFECFC09AC09888E08FB9779BFECFF6
:101AD000C09A8DEF45C1E0913506F09136064C5025
:101AE0004383C0988FE78FB9779BFECFFE01319675
:101AF000CE0103961FB8779BFECF2FB12193E81735
:101B0000F907C1F7C09AE0913506F0913606998140
:101B100081E095FF80E08783C0988FE78FB9779B3E
:101B2000FECF1FB8779BFECFE0913506F0913606C9
:101B30008FB18083C09AC0988FE78FB9779BFECF13
:101B400084E005C01FB8779BFECF815011F0B79994
:101B5000F9CFC09AC0988FE78FB9779BFECF80E00E
:101B600090E01FB8779BFECFE0913506F0913606E6
:101B70002FB1E80FF91F218301968230910589F773
:101B8000C09A898183FF4DC0C0988FE78FB9779B3A
:101B9000FECFECE2F6E01FB8779BFECF8FB18193CA
:101BA00086E0E033F807B9F7C09AC09889E98FB9A1
:101BB000779BFECF80E88FB9779BFECF82E0815084
:101BC000E82FF0E0E45DF94F90819FB9779BFECF5D
:101BD0008823A9F7C09AC0988BE98FB9779BFECF6D
:101BE00080E88FB9779BFECF82E08150E82FF0E04C
:101BF000E25DF94F90819FB9779BFECF8823A9F7CB
:101C0000C09AC0988CE08FB9779BFECFC09A81E0D4
:101C100080934106E0913506F09136068381845029
:101C20008383C0988FE78FB9779BFECF40E00FC0CA
:101C30001FB8779BFECFE0913506F09136068FB145
:101C40000580F681E02DE40FF11D80834F5FE09168
:101C50003506F0913606242F30E08381992787FDE1
:101C600090952817390724F3C09AC0988FE78FB949
:101C7000779BFECF1FB8779BFECF6FB1C09AC098FD
:101C80008FE78FB9779BFECFFE013396CE01059685
:101C90001FB8779BFECF2FB12193E817F907C1F743
:101CA000C09AE0913506F09136068B81808750E02E
:101CB00040E00CC0E0913506F09136060580F681D3
:101CC000E02DE80FF91F8081480F5F5FE091350636
:101CD000F0913606852F90E02381332727FD30953C
:101CE000821793073CF34617C1F0C0988FE78FB96E
:101CF000779BFECF1FB8779BFECF8FB1C09AC0985D
:101D000088E08FB9779BFECFC09AC09888E08FB9E2
:101D1000779BFECFC09A8CEF23C08C8187FF07C0D2
:101D2000809146068F5F8093460681E019C0C09877
:101D30008FE78FB9779BFECF1FB8779BFECF8FB110
:101D4000C09AC09888E08FB9779BFECFC09AC098A0
:101D500088E08FB9779BFECFC09A8BEF01C080E0FF
:101D60000F900F900F900F90CF91DF910895809179
:101D70004606882329F0809146061092460608956B
:101D800080E00895C09888E08FB9779BFECFC09A15
:101D9000C09888E08FB9779BFECFC09A08959927A5
:101DA00087FD9095982F88278068C09823E12FB9E8
:101DB000779BFECF9FB9779BFECF8FB9779BFECFE6
:101DC000C09A0895C09886E08FB9779BFECFC09ADD
:101DD000C09882E18FB9779BFECF85E08FB9779B62
:101DE000FECF88E08FB9779BFECFC09AC0988EE275
:101DF0008FB9779BFECF88E18FB9779BFECF1FB855
:101E0000779BFECFC09A0E94C20E0895C09886E0CC
:101E10008FB9779BFECFC09AC09882E18FB9779B2C
:101E2000FECF85E08FB9779BFECF1FB8779BFECFA3
:101E3000C09AC0988EE28FB9779BFECF1FB8779B70
:101E4000FECF1FB8779BFECFC09A0E94C20E0895A6
:101E5000C09886E08FB9779BFECFC09AC09882E188
:101E60008FB9779BFECF85E08FB9779BFECF81E05E
:101E70008FB9779BFECFC09A0E94C20E0895C0987A
:101E800082E18FB9779BFECF85E08FB9779BFECF3C
:101E900084E08FB9779BFECFC09A0E94C20E08954E
:101EA00090E08F7090702091330630913406207F3F
:101EB000822B932B9093340680933306C09881E154
:101EC0008FB9779BFECF809134068FB9779BFECF79
:101ED000809133068FB9779BFECFC09A089590E02A
:101EE00026E0880F991F2A95E1F79070209133061C
:101EF000309134062F73822B932B9093340680936A
:101F00003306C09881E18FB9779BFECF809134066C
:101F10008FB9779BFECF809133068FB9779BFECF29
:101F2000C09A0895C09884E08FB9779BFECFC09A7D
:101F30000895C09886E08FB9779BFECFC09A089528
:101F40005F9BFECF5F988CB108955D9BFECF5D983F
:101F50008CB908958FEF0895882311F48BB104C0D4
:101F6000813031F480919B00881F8827881F089555
:101F700080E00895CF93DF93EC0107C0609147079D
:101F80007091480790E00E94E342FE0121968491FF
:101F90008823A1F7DF91CF9108958F3F09F43FC0C7
:101FA000982F96959695969521E030E002C0220FE5
:101FB000331F9A95E2F790E0877090708230910518
:101FC000D9F08330910534F4009771F08130910598
:101FD00041F50EC084309105C1F0843091058CF03C
:101FE00085309105F1F415C08BB3822B8BBB07C0F4
:101FF00088B3822B88BB03C085B3822B85BB81E06D
:10200000089582B3822B82BBFACF83B1822B83B92E
:10201000F6CF80916200822B80936200F0CF8FEF29
:1020200008958FEF08958F3F09F440C0982F96953B
:102030009695969521E030E002C0220F331F9A95C5
:10204000E2F7209590E08770907082309105D9F08A
:102050008330910534F4009771F08130910541F59A
:102060000EC084309105C1F0843091058CF085302C
:102070009105F1F415C08BB382238BBB07C088B3E5
:10208000822388BB03C085B3822385BB81E008958A
:1020900082B3822382BBFACF83B1822383B9F6CF86
:1020A00080916200822380936200F0CF8FEF0895C9
:1020B0008FEF08958F3F89F1282F30E0277030701F
:1020C00022303105C1F0233031053CF421153105B2
:1020D00071F02130310509F50CC02430310579F05B
:1020E0002430310554F025303105B9F40AC029B344
:1020F00009C026B307C023B305C020B303C021B174
:1021000001C020B130E086958695869502C0359550
:1021100027958A95E2F7217001C02FEF822F08954D
:10212000882319F080B58B7F02C080B5846080BDA4
:1021300081E008958F3F09F43FC0982F96959695BA
:10214000969521E030E002C0220F331F9A95E2F706
:1021500090E08770907082309105D9F083309105BE
:1021600034F4009771F08130910541F50EC0843050
:102170009105C1F0843091058CF085309105F1F422
:1021800015C08BB382278BBB07C088B3822788BB5F
:1021900003C085B3822785BB81E0089582B382277F
:1021A00082BBFACF83B1822783B9F6CF80916200D8
:1021B000822780936200F0CF8FEF08958FEF08950C
:1021C0008F3F09F48CC0982F96959695969521E0AF
:1021D00030E002C0220F331F9A95E2F790E06623A9
:1021E00009F04AC0322F3095877090708230910587
:1021F00019F1833091053CF4009781F0813091050D
:1022000009F06DC012C08430910521F18430910530
:10221000D4F08530910509F062C023C08AB38323CE
:102220008ABB8BB3822B8BBB58C087B3832387BBFE
:1022300088B3822B88BB51C084B3832384BB85B30E
:10224000822B85BB4AC081B3832381BB82B3822B9F
:1022500082BB43C082B1832382B983B1822B83B90D
:102260003CC0809161008323809361008091620073
:10227000822B8093620031C087709070823091050C
:10228000D9F08330910534F4009771F081309105D5
:1022900041F50EC084309105B9F08430910584F089
:1022A00085309105F1F414C08AB3822B8ABB15C026
:1022B00087B3822B87BB11C084B3822B84BB0DC034
:1022C00081B3822B81BB09C082B1822B82B905C048
:1022D00080916100822B8093610081E008958FEFEF
:1022E00008958FEF08958FEF0895009711F480E01F
:1022F00009C08130910511F488E004C08230910555
:1023000029F480E10E949A1081E008958FEF0895EA
:10231000009711F480E009C08130910511F488E044
:1023200004C08230910529F480E10E94CD0F81E044
:1023300008958FEF089580B5846080BD87E087BBE6
:1023400088BB8FEF84BB15BA82E082B987E68ABB6F
:1023500080E48BBB80E58DB981E08EB980E090E0B0
:102360000E94881181E090E00E94881182E090E054
:102370000E94881183E090E00E94881108950097E0
:1023800011F480E009C08130910511F488E004C0A7
:102390008230910529F480E10E94131081E00895B4
:1023A0008FEF089590919B0095FFFCCF90919B003B
:1023B0009F7D90939B0080939C0008959093900044
:1023C00089B986E0809395005298599A8AB18861BC
:1023D0008AB908950F931F93CF93DF930E94DE1164
:1023E000C5EADFE000EA1FE0CE01B8010E945642D4
:1023F0009093480780934707CE01B8010E94564248
:102400009093460780934507DF91CF911F910F91DD
:102410000895909398008093990086E080939D00A2
:10242000EAE9F0E080818B7F8083ABE9B0E08C91BA
:1024300082608C93808188618083089580919B0065
:1024400087FFFCCF80919B008F7780939B008091CA
:102450009C00089500000000000000000197D1F7E3
:1024600008950E94E64308950E94EE4380E0089597
:10247000EF92FF920F931F93CF93DF93E82EE70124
:102480007E01F92EE70180E090E00E94E643082FEC
:102490008B8381E090E00E94E643E82E8A8382E00D
:1024A00090E00E94E643F82E898383E090E00E944A
:1024B000E643182F888384E090E00E94E643FE0CF8
:1024C000F00EF10E8F1511F481E001C08FEFDF9156
:1024D000CF911F910F91FF90EF900895CF93DF93CD
:1024E000EC0185E090E00E94E643888381E0DF9183
:1024F000CF910895FC0186E090E060810E94EE4358
:1025000081E00895CF93DF93EC0186E090E00E9494
:10251000E643888381E0DF91CF9108950F931F9365
:10252000CF93DF93082F192FC8E0D0E0CE010E948F
:10253000E643F80181938F012196C831D105B1F7A7
:1025400081E0DF91CF911F910F9108950F931F9319
:10255000CF93DF93082F192FC8E0D0E0F8016191E5
:102560008F01CE010E94EE432196C831D105B1F70B
:1025700081E0DF91CF911F910F910895CF93DF9369
:10258000EC0187E090E00E94E643888381E0DF91E0
:10259000CF910895FC0187E090E060810E94EE43B6
:1025A00081E00895F8940895789408950E94D212D5
:1025B000FFCF0F931F93DF93CF93CDB7DEB7A397D2
:1025C0000FB6F894DEBF0FBECDBF0E944C188093AB
:1025D00006078F3F21F48EE060E00E94CF160E9434
:1025E0008126082F81FF04C084E160E00E94CF169D
:1025F00002FF04C083E160E00E94CF161092090739
:1026000010921707109216071092080710920707EA
:102610001092180710921507E5EFF6E08FEF808310
:1026200082838183339697E0E430F907C1F793E61C
:10263000909353068093510690937506809373068A
:1026400090939706809395069093B9068093B7066A
:102650009093DB068093D906ECE1F7E020E030E0D0
:1026600001C09A01A9014F5F5F4FCA01880F991FEE
:10267000880F991F840F951F875E984F91838083E1
:10268000C901880F991F880F991F820F931F875EBA
:10269000984F9483838335964530510511F71092F6
:1026A0001B0710921A0710923607109235071092E6
:1026B0000C0710920B0789E197E0909348068093EE
:1026C00047068E010F5F1F4FC80164E672E20E9449
:1026D000FB26C8016CEA75E040E850E00E94412703
:1026E00085E58093AC0519861C861D861E861F868F
:1026F000188A198A1A8A1B8A1C8A1D8A1E8A1F8AAE
:10270000188E198E1A8E1B8E1C8E1D8E1E8E1F8E7D
:1027100018A219A21AA21BA281E0888792E09A87C8
:102720008B87C8010E94481DA3960FB6F894DEBFA0
:102730000FBECDBFCF91DF911F910F910895CF9222
:10274000DF92FF920F931F93DF93CF9300D0CDB70B
:10275000DEB711E5C12E16E0D12E90E0F601F08033
:10276000FF2DFF3FB1F001E516E020E0921761F088
:10277000F8018081F81641F485E06F2D29839A8352
:102780000E94CF169A8129812F5F0E5D1F4F253041
:1027900069F79F5F22E230E0C20ED31E9530F1F65A
:1027A0000E94141C992787FD9095FC01EE0FFF1FD6
:1027B000A5E0880F991FAA95E1F7E80FF91FE75BDD
:1027C000F94F828580931807F0931707E093160757
:1027D000F0930807E0930707809309070E94772783
:1027E0000E9467270E94C432FFCFEF92FF920F939F
:1027F0001F93CF93DF93EC017B018A01898582309F
:1028000021F080910407888301C018828091040719
:10281000853020F087E060E00E94CF168985823005
:1028200029F0809104078F5F80930407809104074B
:10283000882319F481E0809304078881992787FD14
:102840009095FC01EE0FFF1F75E0880F991F7A9598
:10285000E1F7E80FF91FE75BF94FF182E082888525
:1028600082878881992787FD9095FC01EE0FFF1FD5
:1028700055E0880F991F5A95E1F7E80FF91FE75BBC
:10288000F94F83E081872881822F992787FD9095D2
:10289000FC01EE0FFF1F35E0880F991F3A95E1F715
:1028A000E80FF91FE75BF94F20878881992787FD9B
:1028B00090957C01EE0CFF1CB5E0880F991FBA952E
:1028C000E1F7E80EF91E89E496E0E80EF91EF7013B
:1028D0001582CE010B960E941521F701948F838FEC
:1028E0008B859C85AD85BE858E339105A105B1058F
:1028F00020F086E168810E94CF16E880FF24E7FC83
:10290000F094CE014B960E941521F701EE0FFF1FA8
:1029100075E0EE0CFF1C7A95E1F7EE0DFF1DE75B0D
:10292000F94F968B858B8881992787FD90957C013F
:10293000EE0CFF1C55E0880F991F5A95E1F7E80E41
:10294000F91E89E496E0E80EF91EF701858996895B
:10295000238D348D820F931F908F878BCE014396EA
:102960000E941521F701968F858F8881992787FD11
:102970009095FC01EE0FFF1F35E0880F991F3A95E7
:10298000E1F7E80FF91FE75BF94F858D968D928F80
:10299000818F81E090E090A3878F1383028381E091
:1029A00084878881992787FD9095FC01EE0FFF1F92
:1029B00005E0880F991F0A95E1F7E80FF91FE75B1B
:1029C000F94F898581A381E0DF91CF911F910F910C
:1029D000FF90EF9008950E947F22089585E690E091
:1029E0000895E0911607F091170784870895E09104
:1029F0001607F091170784850895209188052223F2
:102A000041F0FB01208320915904FC01208381E0E7
:102A1000089580E00895DF93CF930F92CDB7DEB78E
:102A2000198207C080ED97E00E94082589818F5F99
:102A3000898389818436B0F30F90CF91DF91089517
:102A400081E090E00E94BF110E940B1581E090E0B0
:102A50000E9488110E940B15089581E090E00E9469
:102A6000BF110E940B150E940B150E940B1581E0EF
:102A700090E00E9488110E940B150895FF920F9319
:102A80001F93DF93CF9300D00F92CDB7DEB700D066
:102A900000D000D0EDB7FEB731968E010F5F1F4F0B
:102AA000ADB7BEB712961C930E9311972EEC31E082
:102AB00033832283848315820E945843EDB7FEB787
:102AC00036960FB6F894FEBF0FBEEDBFFF2472C05E
:102AD000800F911FDC018C918433D1F1853370F428
:102AE0008133F9F0823320F4803309F05CC016C0E2
:102AF000823311F1833309F056C023C08733C9F103
:102B0000883330F4853369F1863309F04CC02CC02A
:102B10008833B1F1893309F046C03BC00E942D15BE
:102B200002C00E9420150E942D150E942D150E94A2
:102B30002D150E942D1537C00E9420150E942015CA
:102B4000F4CF0E9420150E9420150E942015EFCF7F
:102B50000E9420150E9420150E9420150E94201519
:102B6000E8CF0E94201502C00E942D150E9420155A
:102B700004C00E942D150E942D150E94201506C02C
:102B80000E942D150E942D150E942D150E942015C2
:102B900008C00E942D150E942D150E942D150E941F
:102BA0002D150E9420150E940B150E940B150E94E6
:102BB0000B15F394F80101900020E9F73197E01B21
:102BC000F10B8F2D90E08E179F0708F481CF0F90A7
:102BD0000F900F90CF91DF911F910F91FF9008956B
:102BE0000F931F93CF93DF9380918805882329F457
:102BF000DF91CF911F910F9108950E94D2120E94F0
:102C0000D2120E94D212CEECD1E086E693E00E946E
:102C1000BA0F00D000D0EDB7FEB73196ADB7BEB752
:102C20001296DC93CE93119780915904828313827C
:102C30000E940F430F900F900F900F9082E693E049
:102C40000E94BA0F80918805883110F01092880593
:102C50008091880590E001978631910508F04BC07E
:102C60008A5B9F4FFC01EE0FFF1F0590F491E02D52
:102C7000099486E293E041C08FEF92E03EC08BEE74
:102C800092E03BC085ED92E038C08AEB92E035C01F
:102C900084EA92E032C08CE892E02FC089E792E0AB
:102CA0002CC086E692E029C088E492E026C083E248
:102CB00092E023C087E192E020C08CEF91E01DC03C
:102CC0008DEE91E01AC089ED91E017C088EC91E09B
:102CD00014C084EB91E011C084E991E00EC08CE750
:102CE00091E00BC081E691E008C080E591E005C06D
:102CF00081E491E002C08AE391E00E94BA0F609102
:102D00004707709148078DE090E00E94E342609190
:102D10004707709148078AE090E00E94E34214E17F
:102D200082E090E00E94BF1183E090E00E94881151
:102D300004E688EE93E00E9408250150D1F783E075
:102D400090E00E94BF1182E090E00E94881104E6AA
:102D500088EE93E00E9408250150D1F7115001F749
:102D600082E090E00E94881183E090E00E94881148
:102D7000809159040E943E150E940B1582E090E05C
:102D80000E94BF110E940B1582E090E00E94881102
:102D90000E940B15809188050E943E1536CFEF9258
:102DA000FF920F931F93182FE62E80938805609350
:102DB00059040E94F01500E021C082E090E00E94DA
:102DC000BF1183E090E00E94881194E6F92E88EE0E
:102DD00093E00E940825FA94D1F783E090E00E94E6
:102DE000BF1182E090E00E94881184E6F82E88EE00
:102DF00093E00E940825FA94D1F70F5F0431E8F2BE
:102E000083E090E00E94881182E090E00E948811A7
:102E10008E2D0E943E15812F0E943E1500E0CDCFE1
:102E200080938805E0911607F091170780858093BD
:102E300059040E94F01508956F927F928F929F928D
:102E4000AF92BF92CF92DF92EF92FF920F931F93B8
:102E5000CF93DF9382E793E00E94BA0F00D000D0B7
:102E600081ED91E0ADB7BEB712969C938E9311970A
:102E7000E0911607F09117078085992787FD9095B7
:102E800014969C938E9313970E940F43E09116071C
:102E9000F0911707C281D3818AED91E0EDB7FEB7BB
:102EA00092838183D483C3830E940F43EDB7FEB71F
:102EB0003196A7EEEA2EA1E0FA2EADB7BEB7129674
:102EC000FC92EE9211978881828313820E940F43B5
:102ED000E4EFCE2EE1E0DE2EEDB7FEB7D282C18266
:102EE000E0911607F091170780819181ADB7BEB7C9
:102EF00014969C938E9313970E940F437EEFA72EF8
:102F000071E0B72EEDB7FEB7B282A18280911607AD
:102F100090911707948383830E940F4309E416E07E
:102F20000F900F900F900F90C0E0D0E06EE0662EF3
:102F300062E0762E4701C601DC2CC92EC501BA2CF1
:102F4000A92ED8011296ED90FC90139700D000D0D6
:102F500000D0EDB7FEB73196ADB7BEB712967C92F2
:102F60006E921197D383C283F582E4820E940F434D
:102F70000F900F90EDB7FEB73196ADB7BEB7119673
:102F80008C92119712969C92D7018C918283138216
:102F90000E940F43EDB7FEB7D182C282D8018D9156
:102FA0009C91948383830E940F43EDB7FEB7B18257
:102FB000A282CE01880F991F9E0145E0220F331F88
:102FC0004A95E1F7820F931F875B994F9483838320
:102FD0000E940F4321960E5D1F4F0F900F900F9090
:102FE0000F90C530D10509F0ACCFDF91CF911F9183
:102FF0000F91FF90EF90DF90CF90BF90AF909F9098
:103000008F907F906F900895CF93DF93E091160794
:10301000F0911707C281D3818881853539F00E94EC
:103020001C1781E00E94101785E58883E091160740
:10303000F09117078081918121E18030920728F07B
:103040000E941C1782E10E941017DF91CF91089512
:10305000992787FD9095FC01EE0FFF1FB5E0880FC3
:10306000991FBA95E1F7E80FF91FE75BF94FA281C5
:10307000B3818C91853519F085E58C9309C08081E9
:10308000918121E18030920728F082E10E9410179F
:103090008FEF089581E008956091FE047091FF0420
:1030A0008091000590910105E0E0F0E09B01AC010A
:1030B0000E2E04C056954795379527950A94D2F75A
:1030C00020FD1AC021E030E040E050E00E2E04C0A8
:1030D000220F331F441F551F0A94D2F7262B372B7C
:1030E000482B592B2093FE043093FF044093000596
:1030F000509301058E2F08953196E032F105B1F617
:103100008FEF0895E0911607F09117076585768592
:10311000878590890895DF92EF92FF920F931F9316
:10312000D82E81E0E82EF12C012D112D0D2C04C09C
:10313000EE0CFF1C001F111F0A94D2F78091FE04B1
:103140009091FF04A0910005B09101058E219F216F
:10315000A023B1230097A105B10509F45DC00E9429
:10316000D212E0E5F6E0A801970120953095409550
:10317000509563E081818F3F39F186819781A085E9
:10318000B1858E159F05A007B10731F4128613860D
:10319000148615861082628386819781A085B18509
:1031A00082239323A423B52386839783A087B187A3
:1031B00082859385A485B58582239323A423B52393
:1031C00082879387A487B587B29686E0EA3FF8079F
:1031D00089F62EEF3FEF4FEF5FEF04C0220F331F52
:1031E000441F551FDA94D2F78091FE049091FF049A
:1031F000A0910005B091010582239323A423B52358
:103200008093FE049093FF04A0930005B093010502
:103210000E94D41281E001C08FEF1F910F91FF90A7
:10322000EF90DF900895EF92FF920F931F9321E0AC
:1032300030E040E050E004C0220F331F441F551F10
:103240008A95D2F7E0911607F09117078585968544
:10325000A785B08979018A01E822F9220A231B2374
:10326000E114F10401051105D1F020953095409548
:10327000509582239323A423B52385879687A78718
:10328000B08B81899289A389B48982239323A42353
:10329000B523818B928BA38BB48B81E001C08FEF20
:1032A0001F910F91FF90EF9008952091FE043091AF
:1032B000FF044091000550910105082E04C0569569
:1032C0004795379527950A94D2F7217030702115CC
:1032D0003105E9F0E0911607F091170721E030E0A1
:1032E00040E050E004C0220F331F441F551F8A9551
:1032F000D2F785859685A785B089822B932BA42B41
:10330000B52B85879687A787B08B81E008958FEFCF
:103310000895EF92FF920F931F93DF93CF930F9235
:10332000CDB7DEB791E0E92EF12C012D112D04C0AF
:10333000EE0CFF1C001F111F8A95D2F78091FE042E
:103340009091FF04A0910005B09101058E219F216D
:10335000A023B1230097A105B10511F481E03FC07E
:103360000E94D212E0E5F6E020E033E08081813077
:10337000A9F482859385A485B5858E219F21A023FC
:10338000B1230097A105B10549F03283178616864F
:103390001082E286F3860487158721E080818230DF
:1033A00091F482859385A485B5858E159F05A00728
:1033B000B10749F432831786168610821286138667
:1033C0001486158621E0B29686E0EA3FF80771F68A
:1033D00029830E94D4122981222329F482E00E94A9
:1033E000F1148FEF01C081E00F90CF91DF911F9119
:1033F0000F91FF90EF900895E0911607F091170755
:103400002585368547855089262337234823592328
:10341000211531054105510521F1618B728B838B9B
:10342000948B21E027830090060704C0969587952A
:10343000779567950A94D2F7617070706115710580
:1034400019F00E943A1E04C080E090E00E94611EC4
:10345000E0911607F0911707218932894389548931
:1034600003C020E030E0A901B901CA01089590919C
:1034700015079430D0F4E5EFF6E020E030813F3FCF
:1034800021F02F5F33962530C9F730E0F901EE0FB8
:10349000FF1FE20FF31FEB50F94F8283808361839C
:1034A0009F5F909315079F0102C020E030E0C901A3
:1034B0000895BC0120E030E0822FA901440F551F80
:1034C000420F531F4B50594F6417750731F02F5F50
:1034D0003F4F2530310581F78FEF08950E94591A2B
:1034E0008F3F11F481E003C0853029F482E00E940F
:1034F000F1148FEF0895992787FD9095FC01EE0F49
:10350000FF1FE80FF91FEB50F94F8FEF8083828385
:1035100081838091150781508093150781E008957C
:10352000EF92FF920F931F93DF93CF930F92CDB73C
:10353000DEB70E94591A682F8F3F11F481E003C053
:10354000853029F482E00E94F1148FEF8FC0082F9C
:10355000112707FD10957801EE0CFF1CE00EF11EFF
:1035600085EF96E0E80EF91ED70112969C9112970E
:103570008C9198170CF079C069830E94D21200D008
:1035800000D000D0EDB7FEB731968FE192E0ADB735
:10359000BEB712969C938E931197A0911607B09187
:1035A000170718968C91992787FD909593838283AE
:1035B000158304830E940F43F70182818F5F82830A
:1035C000E0911607F09117071482E6EFF6E08DB749
:1035D0009EB706960FB6F8949EBF0FBE8DBF20E033
:1035E00030E070E46981A901440F551F420F531F59
:1035F0004B50594F71F0A0814A2F552747FD5095E8
:10360000872F90E04817590724F48181882309F413
:103610007A2F2F5F3F4F33962530310521F7709376
:103620000507E0E5F6E0862F992787FD9095A92FFD
:10363000B92F63E02081223089F4228533854485C7
:103640005585281739074A075B0741F462831786B7
:10365000168610821286138614861586B29626E088
:10366000EA3FF20739F70E94D41281E00F90CF9120
:10367000DF911F910F91FF90EF9008950F931F938B
:10368000DF93CF930F92CDB7DEB70E94591A8F3FC9
:1036900011F481E003C0853029F482E00E94F11426
:1036A0008FEFA3C089830E94D2128981082F11272E
:1036B00007FD1095F801EE0FFF1FE00FF11FEB5013
:1036C000F94F92811916B4F0E0911607F09117079F
:1036D000978192609783992787FD9095A92FB92F9D
:1036E000818B928BA38BB48B0E94D41280E090E0EC
:1036F0000E94611E00D000D000D0EDB7FEB7319619
:103700008EE392E0ADB7BEB712969C938E9311975D
:10371000A0911607B091170718968C91992787FDED
:10372000909593838283158304830E940F43F8014D
:10373000EE0FFF1FE00FF11FEB50F94F8281815018
:103740008283E6EFF6E08DB79EB706960FB6F89443
:103750009EBF0FBE8DBF80E090E060E49C01220F11
:10376000331F280F391F2B50394F71F07081472FAD
:10377000552747FD5095262F30E04217530724F474
:103780002181222309F4672F019633968530910514
:1037900029F76093050700D000D0EDB7FEB731964A
:1037A0008AE592E0ADB7BEB712969C938E931197BF
:1037B000628313820E940F43A0911607B0911707EE
:1037C000F801EE0FFF1FE00FF11FEB50F94F818161
:1037D0001B968C931B9781E014968C930F900F90FF
:1037E0000F900F900E94D41281E00F90CF91DF9143
:1037F0001F910F9108950E94591A8F3F11F481E093
:1038000003C0853029F482E00E94F1148FEF0895FF
:10381000992787FD9095FC01EE0FFF1FE80FF91F18
:10382000EB50F94F82810895E0910B07F0910C075E
:10383000808108950F931F93CF93DF93C0910B075F
:10384000D0910C0784E893E00E94BA0F0DE612E0D5
:103850001FC000D000D0EDB7FEB7128301832881CE
:1038600030E0C901880F991F45E0220F331F4A95A8
:10387000E1F7820F931F805A994F948383830E94AC
:103880000F430B80DC81C02D0F900F900F900F9095
:103890002097F9F681E893E00E94BA0FDF91CF916B
:1038A0001F910F910895EF92FF920F931F93CF9363
:1038B000DF93E0914706F0914806309709F491C0F4
:1038C00040910B0750910C074115510509F44DC06B
:1038D000DA01682F772767FD70959B01220F331F50
:1038E00095E0660F771F9A95E1F7260F371F275B44
:1038F000394FB901695E7F4F265F3F4F9C919923F5
:10390000B1F1092F10E0E801CC0FDD1F689414F825
:10391000000F111F1694E1F7C00FD11FC75BD94FDD
:103920000F89188DEB01E880F980E016F106F8F0B8
:103930000E151F0599F4092F10E0E801CC0FDD1FCB
:1039400095E0000F111F9A95E1F7C00FD11FC75BDB
:10395000D94F0A85E9019881091748F013960D900F
:10396000BC91A02D109751F602C0A0E0B0E080837A
:10397000C381D481D0934806C0934706A417B507E6
:10398000B1F4109749F0B483A38312821182129686
:10399000FC93EE93119706C0148213821282118257
:1039A000FA83E983F0930C07E0930B071AC0119692
:1039B0008D919C911297AC17BD0759F0928381832A
:1039C000B483A3831196CD91DC911297FC83EB8392
:1039D00004C014821382928381831296FC93EE9327
:1039E0001197DF91CF911F910F91FF90EF90089564
:1039F000CF93DF93E0910B07F0910C07309709F418
:103A000044C0992787FD9095208130E02817390719
:103A100081F4A381B481B0930C07A0930B07129695
:103A20001C921E92119718C00380F481E02D3097EC
:103A300061F1208130E028173907B1F7C181D281C7
:103A4000838194819C838B83A381B481109721F01F
:103A50001296DC93CE931197A0914706B091480639
:103A6000109739F4F0934806E093470614821382C6
:103A70000AC0B483A3831296FC93EE931197F0933C
:103A80004806E093470612821182DF91CF91089594
:103A9000EF92FF920F931F93CF93DF93EC01698115
:103AA0007A814B815C818D819E810E941627BC01A9
:103AB0008F81882369F04B815C81CE0120E030E06A
:103AC00000E010E0EE24FF240E94F5131F8215C0D1
:103AD0008881992787FD9095FC01EE0FFF1F35E047
:103AE000880F991F3A95E1F7E80FF91FE75BF94F47
:103AF00081858330E1F4718360838881992787FD14
:103B00009095FC01EE0FFF1F05E0880F991F0A95A5
:103B1000E1F7E80FF91FE75BF94F85899689009770
:103B200041F482E0818788810E94531C02C08FEF9C
:103B300001C081E0DF91CF911F910F91FF90EF9035
:103B400008951F93DF93CF93CDB7DEB728970FB6B5
:103B5000F894DEBF0FBECDBF29833A834B835C83CD
:103B60006D837E838F8398870E94D2120E949F2547
:103B7000182FCE0101960E9415219C0183309105DA
:103B800060F0E0911607F0911707210F311D368B79
:103B9000258B0E94D41281E001C08FEF28960FB6CA
:103BA000F894DEBF0FBECDBFCF91DF911F91089576
:103BB0000E940B27E0911607F09117078581882353
:103BC000B9F70895FF920F931F93DF93CF93CDB76B
:103BD000DEB728970FB6F894DEBF0FBECDBF29839E
:103BE0003A834B835C836D837E838F8398870E94A7
:103BF00004180E94D212E0911607F091170781E095
:103C0000858381E090E090A3878F0E949F25F82E06
:103C1000CE0101960E941521E0911607F091170739
:103C20000F2D10E09801280F391F368B258B8F2D13
:103C3000883F78F40E9499250F5F1F4F282F30E0AE
:103C40000217130734F48F2D8E5F809387050E942F
:103C50009C250E94D4120E94D81D81E028960FB6A0
:103C6000F894DEBF0FBECDBFCF91DF911F910F91B2
:103C7000FF9008951F930E94D212E0911607F091D1
:103C8000170781E0858386830E949F25182F883F30
:103C900088F40E949925212F30E02F5F3F4F482F55
:103CA00050E02417350734F4812F8E5F8093870509
:103CB0000E949C250E94D4120E94D81D81E01F9171
:103CC00008951F93CF93DF93EC010E94D212E091ED
:103CD0001607F091170781E08583D68BC58B0E946C
:103CE0009F25182F883F88F40E949925212F30E0C6
:103CF0002F5F3F4F482F50E02417350734F4812FB2
:103D00008E5F809387050E949C250E94D4120E949A
:103D1000D81D81E0DF91CF911F910895EF92FF921E
:103D20000F931F93DF93CF930F92CDB7DEB78C0124
:103D30000E94D212E0911607F091170781E0858367
:103D40000E949F25E0911607F0911707E82EFF24A7
:103D50000E0D1F1D168B058B883F90F489830E94E2
:103D600099250894E11CF11C282F30E09981E21676
:103D7000F30634F4892F8E5F809387050E949C257B
:103D80000E94D4120E94D81D81E00F90CF91DF9144
:103D90001F910F91FF90EF9008951F93CF93DF93A2
:103DA000EC010E940418209711F4C1E0D0E00E94B9
:103DB000D212E0911607F091170781E08583D0A316
:103DC000C78F0E949F25182F883F88F40E9499254D
:103DD000212F30E02F5F3F4F482F50E02417350749
:103DE00034F4812F8E5F809387050E949C250E946A
:103DF000D4120E94D81D81E0DF91CF911F910895C8
:103E00001F930E9404180E94D212E0911607F091AD
:103E1000170781E090E090A3878F81E085830E945F
:103E20009F25182F883F88F40E949925212F30E084
:103E30002F5F3F4F482F50E02417350734F4812F70
:103E40008E5F809387050E949C250E94D4120E9459
:103E5000D81D81E01F910895E0911607F091170792
:103E600080850E94F81CE0911607F091170784E006
:103E700081870E94001F81E008958F929F92AF92E8
:103E8000BF92CF92DF92EF92FF920F931F93DF9337
:103E9000CF93CDB7DEB760970FB6F894DEBF0FBEF5
:103EA000CDBF29873A874B875C876D877E878F8751
:103EB000988BCE0101960E94991FCE010996098523
:103EC0001A852B853C854D855E856F85788989802F
:103ED0009A80AB80BC80CD80DE80EF80F8840E9429
:103EE000F71F8F3F61F029853A854B855C856D858D
:103EF0007E858F8598890E94E21D81E001C08FEF49
:103F000060960FB6F894DEBF0FBECDBFCF91DF91A4
:103F10001F910F91FF90EF90DF90CF90BF90AF90E7
:103F20009F908F900895E0911607F0911707808574
:103F30000895EF92FF920F931F93CF93DF93EC01BD
:103F40001C821D821E821F8280910D0790910E0798
:103F5000A0910F07B091100788839983AA83BB8330
:103F6000E0901107F09012070091130710911407C9
:103F7000EC82FD820E831F830E949F25682F70E0D4
:103F800080E090E023EB36EE4EE050E00E946B4084
:103F90006E0D7F1D801F911F6C837D838E839F8399
:103FA00013C080509A4CAA49BB438C839D83AE8337
:103FB000BF8388819981AA81BB810196A11DB11D12
:103FC00088839983AA83BB838C819D81AE81BF81C5
:103FD00080302AEC92072AE9A2072BE3B20708F700
:103FE000DF91CF911F910F91FF90EF9008958F92E5
:103FF0009F92AF92BF92CF92DF92EF92FF920F9378
:104000001F93DF93CF93CDB7DEB760970FB6F894C9
:10401000DEBF0FBECDBFFC0109831A832B833C8317
:104020004D835E836F83788789869A86AB86BC864C
:10403000CD86DE86EF86F88AE980FA800B811C81C6
:104040002D813E814F815885A984BA84CB84DC843C
:104050008D859E85AF85B889EA14FB040C051D0586
:1040600008F440C0AE14BF04C006D10691F428176E
:1040700039074A075B07B0F1281B390B4A0B5B0B6A
:1040800024833583468357831082118212821382E0
:1040900027C0281739074A075B0790F40894E108FE
:1040A000F10801091109EA18FB080C091D09E08251
:1040B000F18202831383205036434546544C08C096
:1040C000EA18FB080C091D09E082F18202831383C0
:1040D000281B390B4A0B5B0B24833583468357839C
:1040E00081E001C08FEF60960FB6F894DEBF0FBE7F
:1040F000CDBFCF91DF911F910F91FF90EF90DF9097
:10410000CF90BF90AF909F908F900895FC0114C006
:1041100020503A4C4A495B43248335834683578376
:1041200020813181428153812F5F3F4F4F4F5F4F3D
:104130002083318342835383248135814681578193
:1041400020308AEC38078AE948078BE3580700F7E4
:1041500008958F929F92AF92BF92CF92DF92EF928B
:10416000FF920F931F93DF93CF93CDB7DEB7609786
:104170000FB6F894DEBF0FBECDBF09831A832B8321
:104180003C834D835E836F83788789869A86AB866E
:10419000BC86CD86DE86EF86F88A29853A854B85F2
:1041A0005C85E980FA800B811C812E0D3F1D401F2C
:1041B000511FFC0120833183428353832D853E852B
:1041C0004F855889ED80FE800F8118852E0D3F1D8B
:1041D000401F511F24833583468357830E948620C6
:1041E00081E060960FB6F894DEBF0FBECDBFCF91D1
:1041F000DF911F910F91FF90EF90DF90CF90BF90D4
:10420000AF909F908F90089560930D0770930E0765
:1042100080930F0790931007209311073093120794
:10422000409313075093140708958F929F92AF9273
:10423000BF92CF92DF92EF92FF920F931F93FC01F8
:10424000208131814281538164817581868197818A
:10425000211531054105510509F461C022343105AC
:104260004105510508F062C05B016C01EE24FF249A
:10427000870160E038C08A2CAB2DA653F1E0AB1566
:1042800008F0F0E08C2D865691E08C1508F090E057
:10429000F80F71E0F81708F070E0972B7D2D755C32
:1042A000E1E07D1508F0E0E0970F81E0971708F056
:1042B00080E08E2B8E0DE1E08E1508F0E0E0EF0D32
:1042C00071E0EF1508F070E0700FB1E0701708F0C2
:1042D000B0E0B10FA82CBA2ECF2ED92EE82EFE2E8C
:1042E000072F1B2F6F5F862F90E0A0E0B0E08217B2
:1042F0009307A407B50708F4BECF9501A601B7013F
:10430000C801A3EBAA2EF6EEBF2EEEE0CE2EDD24E2
:10431000EE24FF2400E010E00E94EF3209C023EBFE
:1043200036EE4EE050E00E94B14002C020E030E0A6
:10433000C9011F910F91FF90EF90DF90CF90BF9038
:10434000AF909F908F900895EF92FF920F931F93DD
:10435000DF93CF93CDB7DEB728970FB6F894DEBFC3
:104360000FBECDBF7B018C01BAE016950795F7947F
:10437000E794BA95D1F7E982FA820B831C837370B4
:104380008070907023EB36EE4EE050E00E946B4060
:104390006D837E838F8398872E2D3A814B815C813C
:1043A00028960FB6F894DEBF0FBECDBFCF91DF9138
:1043B0001F910F91FF90EF9008958F929F92AF926F
:1043C000BF92CF92DF92EF92FF920F931F93FC0167
:1043D00020813181428153816481758186819781F9
:1043E000211531054105510509F45BC05B016C01E4
:1043F000EE24FF24870160E038C08A2CAB2DA65341
:10440000F1E0AB1508F0F0E08C2D865691E08C15AC
:1044100008F090E0F80F71E0F81708F070E0972BC3
:104420007D2D755CE1E07D1508F0E0E0970F81E0FF
:10443000971708F080E08E2B8E0DE1E08E1508F0C6
:10444000E0E0EF0D71E0EF1508F070E0700FB1E003
:10445000701708F0B0E0B10FA82CBA2ECF2ED92ECD
:10446000E82EFE2E072F1B2F6F5F862F90E0A0E017
:10447000B0E082179307A407B50708F4BECF9501F3
:10448000A601B701C801E3EBAE2E06EEB02E1EE08A
:10449000C12EDD24EE24FF2400E010E00E94EF3264
:1044A00006C023EB36EE4EE050E00E94B140B90169
:1044B000CA011F910F91FF90EF90DF90CF90BF90B6
:1044C000AF909F908F9008951F9311E00E94041861
:1044D0000E949925853110F410930A070E940B273A
:1044E0008091AC05853519F088E00E941017809105
:1044F0007E04853559F388E00E941017E7CF2F928C
:104500003F924F925F926F927F928F929F92AF9263
:10451000BF92CF92DF92EF92FF920F931F93DF93A0
:10452000CF930F92CDB7DEB70E9498250E94D2128A
:104530000E9414250E941A252C018AEF0E949C25B6
:104540006091870570E080E090E023EB36EE4EE06E
:1045500050E00E946B407B018C018091110790918B
:104560001207A0911307B0911407E80EF91E0A1F55
:104570001B1FC801B7010E94B140E61AF70A080BD9
:10458000190B80910D0790910E07A0910F07B09124
:104590001007E3EBAE2EE6EEBE2EEEE0CE2ED12CD3
:1045A00014C080E096E3A5E6B4ECE80EF91E0A1FFD
:1045B0001B1FC801B701A60195010E94B140E61A70
:1045C000F70A080B190BD401C3013C014D010894F3
:1045D000611C711C811C911CE0E0EE16EAECFE06E9
:1045E000EAE90E07EBE31E07E0F680930D079093D0
:1045F0000E07A0930F07B0931007E0921107F092F7
:1046000012070093130710931407E0911607F09117
:10461000170785818823B9F081858430A1F08781CF
:10462000823029F0882341F08681882311F485E0C7
:1046300001C083E0818704C083E0818717821682EE
:1046400080850E94F81CE0911607F0911707458DB0
:10465000568D4115510509F47DC06085662309F426
:1046600079C07185743009F475C0218D328D8091C7
:10467000870590E02817390748F581A1833001F5B7
:104680007330F1F0838D948D908F878B528F418F93
:1046900000D000D081E792E0ADB7BEB712969C93F0
:1046A0008E931197772767FD709514967C936E9380
:1046B00013970E940F430F900F900F900F900AC016
:1046C000128E118E82E00E94CF1604C0281B390B77
:1046D000328F218FE0911607F09117070085218D09
:1046E000328D21153105B1F581A1813071F483E05E
:1046F000602F0E94CF16E0911607F091170783E014
:104700008187802F0E94F81C25C0833019F5818590
:10471000833001F100D000D02BE832E0EDB7FEB7D6
:1047200032832183802F992787FD909594838383FB
:104730000E940F43E0911607F0911707838D948D27
:10474000908F878B858D968D928F818F0F900F9094
:104750000F900F907EE4272E76E0372E00E61AEEBB
:1047600020E061E0662E712C5AEFE52EF12C42E03C
:10477000942E31E0A32EB12CC12CD12CD101139653
:104780008C9113978F3F09F4C4C01C92882309F4BD
:1047900043C014968C9114978430F1F150964D914A
:1047A0005C9151978091870590E04817590738F040
:1047B000481B590B51965C934E93509703C0F101DF
:1047C000118A108AD10152964D915C9153974817E6
:1047D000590738F0481B590B53965C934E935297E8
:1047E00012C0F101668977898617970728F4681B3C
:1047F000790B738B628B07C00E948A40D10153965C
:104800009C938E935297F10182899389009721F4AA
:1048100086899789938B828BD10114968C911497FA
:10482000833009F076C050968D919C9151970097F6
:1048300009F066C012968C9112978823A9F0119600
:104840008C911197882381F0D601C501009006074D
:1048500004C0880F991FAA1FBB1F0A94D2F7F10149
:1048600084879587A687B787D10112961C921297E5
:1048700011961C9211971C925A964D915C915B97E0
:1048800056968D919C91579758966D917C9159971A
:1048900041305105D9F455967C936E9354971496F4
:1048A0009C92149752964D915C91539751965C93BC
:1048B0004E935097009721F45196FC92EE925097A8
:1048C000822F29830E94531C29811AC0F101758B04
:1048D000648BBA0161507040689FA001699F500DC0
:1048E000789F500D1124518B408B538B428B009736
:1048F00011F4F18AE08AD1015B967C926E925A970C
:10490000F10180899189009721F08017910708F4BF
:104910008C012F5F82E290E0280E391E253009F0CD
:104920002DCF0E94141CE82E282F332727FD309509
:10493000F901EE0FFF1F85E0220F331F8A95E1F783
:10494000E20FF31FE75BF94F828580931807F0931E
:104950000807E0930707EE20B9F0258D368D211565
:10496000310551F0218D328D2A3F310528F4201771
:10497000310708F44BC00DC098010B3F110508F436
:1049800045C02AEF30E042C00B3F110510F00AEF9E
:1049900010E080930907F0931707E0931607009340
:1049A00087050E949F25282F30E02F5F3F4F20175B
:1049B000310740F00E949F25082F10E00E5F1F4F27
:1049C00000938705EE2011F010920A07802F0E94B5
:1049D0009C25C2016EEE72E00E942B250E9460278A
:1049E0000E94C4320F90CF91DF911F910F91FF90E1
:1049F000EF90DF90CF90BF90AF909F908F907F907F
:104A00006F905F904F903F902F9008958901C1CF94
:104A100000000000000000000197D1F708951EBCBF
:104A2000089581E08EBD089580B5816080BD1DBC74
:104A30001CBC0895DF93CF9300D0CDB7DEB78CB503
:104A40009DB59A83898329813A81C9010F900F907E
:104A5000CF91DF910895EF92FF920F931F93CF9321
:104A6000DF93EC018FEFC937D80710F0C0E0D0E03A
:104A70007E0100E010E080E090E0E60EF71E081FE7
:104A8000191F91E0E91690E0F90691E0090790E01E
:104A9000190768F080E090E0AFEFBFEFE80EF91E75
:104AA0000A1F1B1F0E941A25C817D907D8F30E9496
:104AB0001A258E159F05D8F3DF91CF911F910F9185
:104AC000FF90EF90089582BF089513BE87B78D7F42
:104AD00087BF87B78E7F87BF08958BE083BF87B777
:104AE000836087BF089580B5826080BD12BE10923A
:104AF0005A041092870508958EEF8093870598E0F9
:104B000090BF81BF83E086BF8BE083BF80B58760A5
:104B100080BD1FBC81E08EBD1DBC1CBC80B581600A
:104B200080BD0E9473250E946D2510925A0408953D
:104B3000089581B78F5F0895815081BF089582B72E
:104B400008951F920F920FB60F920BB60F92112479
:104B50002F933F934F935F936F937F938F939F9385
:104B6000AF93BF93EF93FF938AE060E00E94CF166C
:104B7000FF91EF91BF91AF919F918F917F916F9135
:104B80005F914F913F912F910F900BBE0F900FBEF1
:104B90000F901F9018950F920FB60F921F922F92A1
:104BA0003F924F925F926F927F928F929F92AF92BD
:104BB000BF92CF92DF92EF92FF920F931F932F93AA
:104BC0003F934F935F936F937F938F939F93AF9395
:104BD000BF93CF93DF93EF93FF93A0911607B0910C
:104BE00017070DB60D920EB60D921F92A091840577
:104BF000B09185051E90BEBFADBF0895882319F4FE
:104C000087B78F7787BF8FEF0895882319F414BC77
:104C100081E008958FEF0895882319F424B530E0DA
:104C200002C020E030E0C9010895882329F487B745
:104C3000806887BF81E008958FEF0895882359F534
:104C4000CB0101978530910510F46093860588E0CB
:104C500085BD43BD3093D8032093D703809186054B
:104C6000813019F485B5816009C0823019F485B5A9
:104C7000826004C0833029F485B5836085BD81E0FE
:104C80000895843019F485B58460F8CF853029F40F
:104C900085B58560F3CF8FEF089581E008951F9269
:104CA0000F920FB60F920BB60F9211242F933F93D2
:104CB0004F935F936F937F938F939F93AF93BF9324
:104CC000EF93FF93E091D703F091D803309711F061
:104CD000099504C08AE060E00E94CF16FF91EF9131
:104CE000BF91AF919F918F917F916F915F914F9104
:104CF0003F912F910F900BBE0F900FBE0F901F9002
:104D0000189504B603FC02C080E001C080E104B63F
:104D100002FE06C094B79B7F94BF04B600FE846079
:104D200004B601FE05C094B79D7F94BF82600895CC
:104D3000882359F404B600FE04C094B79E7F94BF44
:104D400001C081E093B79111816008958FEF0895BC
:104D50008FEF08958FEF08951F920F920FB60F9265
:104D60000BB60F9211242F933F934F935F936F9342
:104D70007F938F939F93AF93BF93EF93FF938AE0BB
:104D800060E00E94CF16FF91EF91BF91AF919F918C
:104D90008F917F916F915F914F913F912F910F90E4
:104DA0000BBE0F900FBE0F901F9018950E94D2124D
:104DB000A89584B7877F84BF81B5886181BD11BC08
:104DC0000E94D41208950E94D21284B7877F84BFB4
:104DD000A89581B5886181BD8FE081BD0E94D41204
:104DE000089504B603FC02C081E008958FEF089592
:104DF000A89508950895FC0176836583089585B785
:104E0000837E886185BF85B7806285BF889585B7B9
:104E10008F7D85BF089585B7837E85BF85B7806206
:104E200085BF889585B78F7D85BF089525E5FA01F3
:104E30002083FB0132979083818312921292129207
:104E40001292129212921292129212921292129242
:104E50001292129212921292129212921292129232
:104E60001292129212921292129212921292129222
:104E70001292129212921292129212921292CF01E6
:104E80000895EF92FF920F931F93CF93DF93EC015E
:104E90008B017A014032510518F481E10E9410170C
:104EA0000894E108F108E00EF11EFA82E9821C8301
:104EB0000B83DF91CF911F910F91FF90EF90089599
:104EC0008BEE94E19093FD048093FE04089585E5B4
:104ED00080937E048DEF94E0909385058093840504
:104EE0008BEE94E19093FD048093FE0408950E945C
:104EF0007C250E94D41208950E94D22708951F9302
:104F0000DF93CF930F92CDB7DEB7142F83708C62EF
:104F100069830E943D286981613011F480E001C0FD
:104F200080E80E940528812F0E9405280E94F92709
:104F30000F90CF91DF911F910895DF93CF9300D011
:104F4000CDB7DEB780E487B986E086B9379A369A5E
:104F50003699FECF84B195B19A8389830F900F90D3
:104F6000CF91DF9108953798089597B18F71907E12
:104F7000892B87B9369A3699FECF24B135B1C9014C
:104F800008958EE10E94B527BC0180E090E00E9468
:104F9000ED3D9B01AC0164EA70E78DE994E40E9469
:104FA000593D0895E1E7F0E08081808381E08093BE
:104FB000700084E08093740008958091740087FFEE
:104FC000FCCF0895E4E7F0E0808180688083089555
:104FD000CF93DF93C4E7D0E08881806288830E940A
:104FE000E2270E94DD2788818F7D8883DF91CF9122
:104FF0000895809174008061809374000E94E2277C
:105000008091740084FDFCCF0895809373000E940A
:10501000E2270E94DD2780917100887F883241F06D
:1050200090917100987F81E0983119F480E00895A3
:1050300080E00895009721F080917400806403C09F
:10504000809174008F7B809374000E94E2270E94FD
:10505000DD27809173000895DF93CF930F92CDB732
:10506000DEB789830E94E8278981880F81600E94CA
:1050700005280F90CF91DF910895DF93CF930F9282
:10508000CDB7DEB789830E94E8278981880F0E9407
:1050900005280F90CF91DF9108950E949D2781E010
:1050A0008093C80308958091C803882311F40E9457
:1050B0004D280E94B3270895DF93CF930F92CDB769
:1050C000DEB79091C803992321F489830E944D286B
:1050D0008981A898A098813019F41D9A159A02C068
:1050E0001D9815980F90CF91DF910895DF93CF937E
:1050F0000F92CDB7DEB79091C803992321F489832D
:105100000E944D2889811D981598813019F4A89A1C
:10511000A09A02C0A898A0980F90CF91DF9108950F
:105120008091C803882311F40E944D2881E00E94D9
:105130005C2881E00E94B52708958091C8038823E8
:1051400011F40E944D2881E00E94762881E00E949F
:10515000B5270895AF92BF92CF92DF92EF92FF9260
:105160000F931F930E949D28BC0180E090E00E9455
:10517000ED3D8B017C0160E070EC8FE794E4202F23
:10518000312F4E2D5F2D0E94F43C20E030E44CE1A5
:1051900056E40E94C43E202F312F4E2D5F2D0E94D9
:1051A000593D0E94843E7B018C0120E030E040E4C8
:1051B00050E40E94273FD62EC72EB82EA92EC80134
:1051C000B70129E733EE4DE759E30E94C43E28ECCE
:1051D00032E644E85AE30E94F53C7B018C01A601CB
:1051E0009501652F742F832F922F2DE234EC4CE123
:1051F00054E30E94C43E9B01AC01C801B7010E9468
:10520000F53C9B01AC0160E070E080E89FE30E9408
:10521000593D1F910F91FF90EF90DF90CF90BF907D
:10522000AF9008950E94AA2823E333E948E853E4A5
:105230000E94F43C08950E949D270E947C2781E0F3
:105240008093C90308958091C903882311F40E94B3
:105250001B290E94B3270895DF93CF930F92CDB7F8
:10526000DEB79091C903992321F489830E941B29F9
:105270008981813011F4AC9A01C0AC980F90CF9124
:10528000DF910895DF93CF930F92CDB7DEB7909162
:10529000C903992321F489830E941B2989818130C4
:1052A00011F4AD9A01C0AD980F90CF91DF910895A0
:1052B0001F93182F8091C903882311F40E941B2982
:1052C00080E00E946C29113019F4A89AA09A02C0BB
:1052D000A898A0981F9108951F93182F8091C90333
:1052E000882311F40E941B2980E00E945829113064
:1052F00019F41D9A159A02C01D9815981F910895CA
:10530000DF93CF930F92CDB7DEB79091C903992366
:1053100021F489830E941B298981813011F4AA9A82
:1053200001C0AA980F90CF91DF910895DF93CF939A
:105330000F92CDB7DEB79091C903992321F48983E9
:105340000E941B298981813011F4AB9A01C0AB986E
:105350000F90CF91DF910895DF93CF930F92CDB748
:10536000DEB7482F8091C903882321F449830E9426
:105370001B29498180E061E00E947F270F90CF9137
:10538000DF910895DF93CF930F92CDB7DEB7482F0B
:105390008091C903882321F449830E941B294981F4
:1053A00080E062E00E947F270F90CF91DF91089507
:1053B000DF93CF930F92CDB7DEB7482F8091C9030B
:1053C000882321F449830E941B29498181E061E0FF
:1053D0000E947F270F90CF91DF910895DF93CF93A5
:1053E0000F92CDB7DEB79091C903992321F4898339
:1053F0000E941B298981882311F4AE9A03C0813051
:1054000009F4AE980F90CF91DF9108958091C90370
:10541000882311F40E941B2981E00E946C2981E0FD
:105420000E94B52708958091C903882311F40E9432
:105430001B2981E00E94582981E00E94B527089528
:105440008091C903882311F40E941B2982E00E94E5
:10545000B52708958091C903882311F40E941B2960
:1054600083E00E94B52708958091C903882311F431
:105470000E941B2984E00E94B52708958091C903EA
:10548000882311F40E941B2985E00E94B527089506
:105490008091C903882311F40E941B2986E00E9491
:1054A000B527089589E993E00197F1F700C0DC98EA
:1054B000D49A89E993E00197F1F700C0D498DC9A77
:1054C000CC9BFECF80E007C091E39A95F1F70000F6
:1054D0008F5F8F3149F0CC99F7CF89E993E001973D
:1054E000F1F700C080E008958FEF0895882361F4FC
:1054F000DC98D49A84EC8A95F1F700C0D498DC9AB1
:1055000081E38A95F1F70BC0DC98D49A88E18A95FB
:10551000F1F700C0D498DC9A8DED8A95F1F7000080
:105520000895DC98D49A82E08A95F1F700C0D49867
:10553000DC9A96E19A95F1F7000089B394EC9A957C
:10554000F1F700C090E08071907024E09595879508
:105550002A95E1F70895FF920F931F93CF93DF935E
:10556000F82EC0E0D0E001E010E098010C2E02C05F
:10557000220F331F0A94E2F78F2D82230E94762A8E
:105580002196C830D10589F7DF91CF911F910F91F6
:10559000FF9008951F93CF93DF93C0E0D0E010E019
:1055A0000E94912A282F30E00C2E02C0220F331FB8
:1055B0000A94E2F7122B2196C830D10589F7812F82
:1055C000DF91CF911F9108958FE00E94AB2A08953B
:1055D00080B58B7F80BDD498DC9A86EF8A95F1F7F1
:1055E0000895EF92FF920F931F93DF93CF9300D014
:1055F00000D0CDB7DEB77C0119821A821B821C82D3
:105600000E94522A882339F0282F332727FD30950E
:10561000432F532F27C00E94E42A0E94CA2A8130B8
:1056200019F08EEFF70180838E010F5F1F4F0E94EC
:10563000CA2A89830E94CA2AF80181830E94CA2A41
:10564000F80182830E94CA2AF80183830E94CA2A31
:105650000E94CA2A0E94CA2AF701108229813A812F
:105660004B815C81B901CA010F900F900F900F9090
:10567000CF91DF911F910F91FF90EF900895AA981D
:10568000959887FF02C0939A01C09398959A959830
:1056900086FF02C0939A01C09398959A959885FFCA
:1056A00002C0939A01C09398959A959884FF02C07E
:1056B000939A01C09398959A959883FF02C0939A04
:1056C00001C09398959A959882FF02C0939A01C061
:1056D0009398959A959881FF02C0939A01C09398E8
:1056E000959A959880FF02C0939A01C09398959AD5
:1056F000959AAA9A0895DF93CF9300D00F92CDB7D1
:10570000DEB7A89A19821FC0A898898180550E9487
:105710003F2B80E10E943F2B80E00E943F2BA89A04
:105720001B821A8208C080E00E943F2B8A819B81E5
:1057300001969B838A838A819B81803891059CF3A3
:1057400089818F5F898389818830F0F20F900F9073
:105750000F90CF91DF910895C498BC9A85B387606C
:1057600085BB84B3876084BB81B3886281BB939A15
:1057700088E785BB84B3877884BBA898A9988FEF06
:105780009FE3A2E081509040A040E1F700C00000FC
:10579000A99A8FEF9FE3A2E081509040A040E1F7EB
:1057A00000C0000080E40E943F2B81EA0E943F2B52
:1057B00080EC0E943F2B86EA0E943F2B82EA0E94E7
:1057C0003F2B8FE20E943F2B88EF0E943F2B80E00F
:1057D0000E943F2B87E20E943F2B81E80E943F2BD3
:1057E00080E10E943F2B8CEA0E943F2B80E00E94C8
:1057F0003F2B8FEA0E943F2B0E947B2B0895813024
:1058000011F4C49A0895C4980895EF92FF920F93EB
:105810001F93DF93CF930F92CDB7DEB7082F162FCC
:10582000A898842F805599830E943F2B812F8295C1
:105830008F7080610E943F2B812F8F700E943F2BC1
:10584000A89A9981602F792F7B011AC000E010E09F
:10585000D701EC91B5E0EB9FF0011124E00FF11FAF
:10586000E057FC4F84910E943F2B0F5F1F4F053084
:10587000110571F780E00E943F2B0894E11CF11C98
:10588000F7018081882311F70F90CF91DF911F914D
:105890000F91FF90EF90089560914707709148072E
:1058A00090E00E94E342089580E00E94AC0F8823BC
:1058B00049F080914507909146070E94A142282F08
:1058C00030E002C02FEF3FEFC9010895BF92CF92A1
:1058D000DF92EF92FF920F931F93DF93CF9300D04D
:1058E00000D00F92CDB7DEB7D82EB62E20EA36E81C
:1058F00041E050E029833A834B835C8381E19D83BF
:105900000E944C2C8B2D0E944C2C81E1C82ECB0C7C
:105910009D810D2D192F09C07801F80181918F010A
:105920000E944C2CF7018081C80E802F8D198B1599
:1059300098F38C2D0E944C2C0E94542C29813A8182
:105940004B815C81215030404040504029833A8354
:105950004B835C83863051F089819A81AB81BC8115
:105960000097A105B10541F78FEF01C080E00F90CE
:105970000F900F900F900F90CF91DF911F910F918B
:10598000FF90EF90DF90CF90BF900895CF92DF927D
:10599000EF92FF920F931F93DF93CF9300D000D02D
:1059A000CDB7DEB7F82E092F20EA36E841E050E007
:1059B00029833A834B835C8382E10E944C2C81E0F3
:1059C0000E944C2C83E50E944C2C86E60E944C2CB5
:1059D0000E94542C29813A814B815C8121503040B6
:1059E0004040504029833A834B835C83863061F08A
:1059F00029813A814B815C81211531054105510591
:105A000039F7EE24E39401C0EE240E94542C2FEFCA
:105A10008F3F9207D1F38131910559F50E94542CA3
:105A2000EFEF8F3F9E07D1F3D82E91E1C92ECD0C19
:105A3000802F0F2D182F0AC00E94542CFFEF8F3F8C
:105A40009F07D1F3F80181938F01C80E802F8F1922
:105A50008D1590F30E94542CFFEF8F3F9F07D1F3D9
:105A60002C2D30E08217930721F4EE2011F48D2DB8
:105A700001C08FEF0F900F900F900F90CF91DF919B
:105A80001F910F91FF90EF90DF90CF900895CF92EC
:105A9000DF92EF92FF920F931F93DF93CF9300D08B
:105AA00000D0CDB7DEB78C017B0180E492E4AFE09B
:105AB000B0E089839A83AB83BC8382E10E944C2C43
:105AC00081E00E944C2C89E40E944C2C8CE50E94C1
:105AD0004C2C0E94542C29813A814B815C812150AD
