:100000000C94C9040C94D3280C94E8040C94E804D0
:100010000C94E8040C94E8040C94E8040C94E804B0
:100020000C94E8040C9476280C94E8040C94E804EE
:100030000C94E8040C94E8040C94E8040C94F22763
:100040000C94F2270C94E8040C94E8040C94E80453
:100050000C94E8040C94E8040C94E8040C94E80470
:100060000C94E8040C94E8040C94E8040C94E80460
:100070000C94E8040C94E8040C94E8040C94E80450
:100080000C94E8040C94E8040C94E8041C17221760
:10009000251728172B172E173417311737173A172C
:1000A0003D17461749174C174F17431719171F17B6
:1000B000521755174017161708000000BE92244922
:1000C000123EABAAAA2ABECDCCCC4C3E000000808A
:1000D000BEABAAAAAA3E00000000BF000000803FFD
:1000E0000000000000084178D3BB4387D1133D19BD
:1000F0000E3CC3BD4282AD2B3E68EC8276BED98FEA
:10010000E1A93E4C80EFFFBE01C4FF7F3F0000002D
:10011000000007634236B79BD8A71A39685618AE55
:10012000BAAB558C1D3CB7CC5763BD6DEDFD753E2C
:10013000F6177231BF000000803F554E4B4F574EAF
:100140000045787465726E616C2052657365740049
:1001500042726F776E204F757420446574656374C6
:10016000004661696C656420746F20637265617418
:10017000652053656D6170686F7265004661696CDA
:10018000656420746F2063726561746520536967CC
:100190006E616C004B65726E656C2066756E637483
:1001A000696F6E206E6F7420696D706C656D656E21
:1001B0007465640044657669636520447269766598
:1001C00072204572726F72005761746368646F6762
:1001D00020526573746172740053572057617463C1
:1001E00068646F6720526573746172740054696D3E
:1001F0006572204F766572666C6F7700556E686128
:100200006E646C656420496E7465727275707420DA
:10021000566563746F72004C6F7720566F6C746113
:100220006765004578747261205461736B20737444
:1002300061727465642C206973206E726B5F6366F3
:10024000672E68206F6B3F0049646C65206F7220D9
:100250004B65726E656C20537461636B204F7665DD
:1002600072666C6F7700556E65787065637465644F
:100270002052657374617274004475706C696361B7
:10028000746564205461736B20494400536368654E
:1002900064756C6572204D69737365642057616B7A
:1002A000657570005461736B205265736572766575
:1002B0002056696F6C61746564005265736572766F
:1002C00065204572726F7220696E205363686564A1
:1002D000756C657200496E76616C69642053746157
:1002E000636B20506F696E746572005461736B208C
:1002F000537461636B204F766572666C6F77005341
:100300007461636B20776173206E6F74206465661F
:10031000696E6564206173206C6172676520656E2B
:100320006F75676821005461736B20706572696F27
:100330006420746F6F206C617267652E2050657247
:10034000696F64206D757374206265206C657373CA
:10035000207468616E203631207365636F6E64733C
:100360002E00293A20002A4E524B204552524F521D
:1003700028000D0A535441434B2044554D500D0A5B
:10038000000A0D006E726B5F71756575653A20002D
:1003900008082A1C08081C2A080840444A51404002
:1003A000514A444014741C171410207F01010000AE
:1003B0000000000000000000081C2C08087F01015C
:1003C0000101010101017F7F404040404040404029
:1003D0007F0000000000000000000000000000009E
:1003E00079112711790000000000000000000000D2
:1003F000000000007F01010103605048447E3E4937
:1004000049493E700C030C706349494963017F01FF
:100410007F01635549414106017E010608557F551C
:10042000080F107F100F4E7101714E38444438444C
:10043000000000000000005F000003000300001443
:100440003E143E1426497F493262152A5423364908
:100450005620500003000000001C224100004122F1
:100460001C0000140E140008083E0808006000007C
:10047000000808080800004000000060100804039D
:100480003E4141413E04027F000062514945422203
:10049000414949360C0B087E084F494949313E49CC
:1004A0004949326111090503364949493626494906
:1004B000493E0022000000006100000008141422E0
:1004C00022141414141422221414080601590502CB
:1004D0003E415D555E7E0909097E7F494949363EA8
:1004E000414141227F4141413E7F494949417F0984
:1004F0000909013E414949327F0808087F00007F11
:100500000000204040403F7F081422417F4040408F
:10051000007F0204027F7F021C207F3E4141413E5A
:100520007F090909063E4151617E7F091929462646
:100530004949493201017F01013F4040403F1F20AE
:1005400040201F3F4030403F631408146303047889
:10055000040361514945437F410000000000000051
:1005600000000000417F060106000040404040407E
:10057000010200000020545454787F484848303825
:1005800044444428384444447F3854545418087E22
:100590000909010C5252523E7F04040478047D4044
:1005A0004020204040443D007F102844203E5149D7
:1005B000467C047C04787C0804047838444444383D
:1005C0007E1212120C0C1212127E047804040848D7
:1005D00054545424043F4444403C40403C401C207C
:1005E00040201C3C4030403C4428102844264848C9
:1005F000483E4464544C4400083E410000007F00E3
:100600000000413E08000000000000000000000063
:1006100000000000000000000000000000000020BA
:10062000483E090200000000000000000000040431
:100630007F04040000000000000000000000000033
:1006400000000000000000000000000000000000AA
:10065000000000000000000000000000000000009A
:100660000000000000000000000000000000000288
:100670000401020000000000000018180000000043
:10068000000000000000000000000000000000006A
:10069000000000000000000000000000000000005A
:1006A000000000000000000000000000000000004A
:1006B0000000000000000079000000000000004879
:1006C0007E494942000000000015167C1615000006
:1006D0000000000A5555552800010001003E635DE9
:1006E0006B3E000000000008142A142200000000E5
:1006F0000000000000003E41754B3E010101010178
:1007000000020502000000000000000000000000E0
:100710000000000000000000000000000000060FC4
:100720007F017F00000000000000000000000000CA
:100730000000070507000022142A14080F003C20BF
:10074000780F004864580000000000304845402001
:100750000000000000000000000000000000007227
:1007600029292A717825242578702A252A707E095E
:100770007F49490E5151711100000000007C545610
:1007800055440000000000000000000000000000D0
:100790000000000000000000000000000000000059
:1007A00000000000007A091122790000000000001A
:1007B0000000000000000000003A454546393D4277
:1007C00042423D22140814225C322A261D000000F9
:1007D0000000000000000000000000003C4140411B
:1007E0003C000000000000000000000000000000CD
:1007F0002055565478205456557820565556782210
:100800005155567920555455780000000000245465
:100810007854580C5252721238555654183854564F
:1008200055183856555618385554551800497A40B9
:100830000000487A4100004A794200004A784200AC
:1008400000000000007A11090A7130494A4830302E
:10085000484A4930304A494A303249494A31304A97
:10086000484A3008082A080818643C2618384142CB
:10087000207838404221783842412278384240225C
:1008800078000000000000000000000C5150513CB6
:100890006E616E00696E660000407A10F35A00A027
:1008A000724E18090010A5D4E80000E87648170039
:1008B00000E40B54020000CA9A3B000000E1F50579
:1008C000000080969800000040420F000000A086C3
:1008D00001000000102700000000E80300000000F5
:1008E0006400000000000A00000000000100000099
:1008F00000002C76D888DC674F0823DFC1DFAE59B3
:10090000E1B1B796E5E3E453C63AE651997696E845
:10091000E6C28426EB898C9B62ED407C6FFCEFBCC9
:100920009C9F40F2BAA56FA5F490055A2AF75C93F4
:100930006B6CF9676DC11BFCE0E40D47FEF520E62A
:10094000B500D0ED902E0300943577050080841E0D
:10095000080000204E0A000000C80C333333330F68
:10096000986E12831141EF8D2114893BE65516CF05
:10097000FEE6DB18D1844B381BF77C1D901DA4BB11
:10098000E424203284725E228100C9F124ECA1E5C6
:100990003D2711241FBECFEFD0E1DEBFCDBF14E055
:1009A000A0E0B1E0ECE3FFE800E00BBF02C007907D
:1009B0000D92A235B107D9F718E0A2E5B4E001C065
:1009C0001D92A039B107E1F70E9483060C949C4761
:1009D0000C94C8272F923F924F925F926F927F9212
:1009E0008F929F92AF92BF92CF92DF92EF92FF923F
:1009F0000F931F93CF93DF93E0915708F09158081E
:100A00002085332727FD309570E0872E71E0972EE3
:100A100063E0A62EB12C50E2252E51E0352E40E3A6
:100A2000C42E45E7D42EE12CF12C86E290E0289FDD
:100A30008001299F100D389F100D11240157184F68
:100A400095E4692E91E0792E8BE6482E81E0582EB0
:100A500000D000D0ADB7BEB712969C928E9211977F
:100A60001496BC92AE9213970E94364500D0EDB713
:100A7000FEB732822182ADB7BEB71396CD92DD921A
:100A8000ED92FC9216970E943645EDB7FEB736966A
:100A90000FB6F894FEBF0FBEEDBFC0E0D0E0CE01B0
:100AA00060ED77E00E94C542009771F500D000D05C
:100AB000E3E3F1E0ADB7BEB71296FC93EE93119766
:100AC000D8018D919C91EDB7FEB7948383830E94EA
:100AD000364500D000D0EDB7FEB73196ADB7BEB702
:100AE00012967C926E921197D383C283C482D58270
:100AF000E682F7820E943645EDB7FEB738960FB60C
:100B0000F894FEBF0FBEEDBF2196F5E7C133DF07B6
:100B100031F600D000D0ADB7BEB712965C924E92BF
:100B200011971496BC92AE9213970E9436450F907F
:100B30000F900F900F900E94DF1F8ACF2F923F924D
:100B40004F925F926F927F928F929F92AF92BF92DD
:100B5000CF92DF92EF92FF920F931F93CF93DF9389
:100B6000E0915708F09158082085332727FD3095EC
:100B700000E0802E01E0902E11E0A12EB12CB0E219
:100B80002B2EB1E03B2EA0E3CA2EA5E7DA2EE12CF6
:100B9000F12C86E290E0289F8001299F100D389F5C
:100BA000100D11240157184FF5E46F2EF1E07F2E40
:100BB000EBE64E2EE1E05E2E00D000D0ADB7BEB722
:100BC00012969C928E9211971496BC92AE921397A5
:100BD0000E94364500D0EDB7FEB732822182ADB714
:100BE000BEB71396CD92DD92ED92FC9216970E94BD
:100BF0003645EDB7FEB736960FB6F894FEBF0FBE7A
:100C0000EDBFC0E0D0E0CE0160ED77E00E94C542CC
:100C1000009771F500D000D0E3E3F1E0ADB7BEB7C7
:100C20001296FC93EE931197D8018D919C91EDB79C
:100C3000FEB7948383830E94364500D000D0EDB781
:100C4000FEB73196ADB7BEB712967C926E921197F1
:100C5000D383C283C482D582E682F7820E9436455E
:100C6000EDB7FEB738960FB6F894FEBF0FBEEDBFD6
:100C70002196F5E7C133DF0731F600D000D0ADB7DC
:100C8000BEB712965C924E9211971496BC92AE9299
:100C900013970E9436450F900F900F900F900E946F
:100CA000DF1F8ACFEF92FF920F931F93CF93DF93B3
:100CB00080E0E82E81E0F82EC2E0D0E00BE611E003
:100CC00000D000D0EDB7FEB7F282E182D483C383B7
:100CD0000E9436450F900F900F900F908AE891E098
:100CE0000E94484500D000D0EDB7FEB712830183C3
:100CF000D483C3830E9436450F900F900F900F90BE
:100D00000E94DF1FDDCF0F931F93CF93DF930E94CD
:100D10008C1287E090E00E94DB120E94CA1360E010
:100D200070E0CB0120E030E0A9010E94E321809136
:100D30000C0690910D060E947820E0910C06F0912F
:100D40000D0664817581868197810E94844311E03C
:100D50001093BD061093BE0603E00093BF061093E8
:100D6000C00680919A0190919B01A0919C01B09145
:100D70009D018093C1069093C206A093C306B093D1
:100D8000C4061092C5061092C6061092C7061092AD
:100D9000C80680919E0190919F01A091A001B09101
:100DA000A1018093C9069093CA06A093CB06B09385
:100DB000CC061092CD061092CE061092CF0610925D
:100DC000D0061092D1061092D2061092D30610923D
:100DD000D4061092D5061092D6061092D70610921D
:100DE000D806C6EBD6E0CE016EE975E00E94222956
:100DF000CE0163E674E040E850E00E946829CE012D
:100E00000E94291E10936C0582E080936D0510935B
:100E10006E0510936F058091A2019091A301A0919E
:100E2000A401B091A5018093700590937105A093E2
:100E30007205B093730510927405109275051092A7
:100E40007605109277058091A6019091A701A09157
:100E5000A801B091A9018093780590937905A0939A
:100E60007A05B0937B0510927C0510927D05109257
:100E70007E0510927F0510928005109281051092D8
:100E800082051092830510928405109285051092B8
:100E9000860510928705C5E6D5E0CE0162E576E0CD
:100EA0000E942229CE016EE076E040E850E00E94E8
:100EB0006829CE010E94291E109397060093980678
:100EC0000093990610939A068091AA019091AB0124
:100ED000A091AC01B091AD0180939B0690939C06CC
:100EE000A0939D06B0939E0610929F061092A006B6
:100EF0001092A1061092A2068091AE019091AF01CE
:100F0000A091B001B091B1018093A3069093A40683
:100F1000A093A506B093A6061092A7061092A80665
:100F20001092A9061092AA061092AB061092AC0677
:100F30001092AD061092AE061092AF061092B00657
:100F40001092B1061092B206C0E9D6E0CE016AEE68
:100F500074E00E942229CE0164EE74E040E850E083
:100F60000E946829CE010E94291E0E94901480E0F0
:100F700090E0DF91CF911F910F91089590E09C0137
:100F80002B503040220F331F220F331F865A9E4BA7
:100F9000820F931FF894C09828E12FB9779BFECF5A
:100FA0009FB9779BFECF8FB9779BFECFC09A78947D
:100FB0000895F894C0981FB8779BFECF8FB1C09A60
:100FC000789486FFF6CF08958091CC010E94BE10E0
:100FD0008091CB010E94041108958091CC010E9460
:100FE000BE108091CB010E94BE100895F894C09865
:100FF00087E08FB9779BFECFC09AC09886E08FB903
:10100000779BFECFC09A78940895F894C09881E0B9
:101010008FB9779BFECFC09A88EE93E00E942F276E
:101020007894089580916E070895FC01C09889EC2A
:101030008FB9779BFECF80E88FB9779BFECF82E098
:101040008150DF01A80FB11D9C919FB9779BFECF06
:101050008823B1F7C09AC0988BEC8FB9779BFECFED
:1010600080E88FB9779BFECF82E08150DF01A80F27
:10107000B11D12969C9112979FB9779BFECF882342
:10108000A1F7C09A808180936F0781818093700758
:1010900082818093710783818093720708958F9274
:1010A0009F92AF92BF92CF92DF92EF92FF920F93F7
:1010B0001F93DF93CF9300D000D0CDB7DEB7E82EDB
:1010C000092F84E690E00E942F27F02E20E031E0E7
:1010D0008E010F5F1F4FF3E0CF2ED12CCC0EDD1E03
:1010E000F70191907F018824808190E088299929D7
:1010F0009A83898384E690E02B833C830E942F2788
:10110000C0982B813C81822F80688FB9779BFECF5E
:10111000C90195958795807C8FB9779BFECF580143
:10112000F80181918FB9779BFECFEC15FD05C9F7CA
:10113000C09A2E5F3F4FF1E020313F0789F684E6E9
:1011400090E00E942F2720E431E080E191E01A82B4
:101150001982C098422F40684FB9779BFECFA901F2
:1011600055954795407C4FB9779BFECFF80141914B
:101170004FB9779BFECFEC15FD05C9F7C09AC09813
:10118000482F40684FB9779BFECFAC0155954795E6
:10119000407C4FB9779BFECFF80141914FB9779BC7
:1011A000FECFEC15FD05C9F7C09A02962E5F3F4FA2
:1011B00041E08E31940759F681E090E09A8389836B
:1011C000C0988EEC8FB9779BFECF80E88FB9779B64
:1011D000FECFC8010296F80121912FB9779BFECF6F
:1011E000E817F907C9F7C09AC0988EE98FB9779BBD
:1011F000FECF80E88FB9779BFECF0E5F1F4FF501C2
:1012000081915F018FB9779BFECFA016B106B9F728
:10121000C09A0F900F900F900F90CF91DF911F9178
:101220000F91FF90EF90DF90CF90BF90AF909F9085
:101230008F900895C09889E18FB9779BFECF83E0A6
:101240008FB9779BFECF86E08FB9779BFECFC09A90
:10125000C0988AE18FB9779BFECF8EE08FB9779BDC
:10126000FECF8EE08FB9779BFECFC09A81E080934E
:101270005F070895C09889E18FB9779BFECF81E021
:101280008FB9779BFECF84EC8FB9779BFECFC09A46
:1012900010925F07089580915D0790915E07089511
:1012A00090E08F719070806E906AC09825E12FB9A0
:1012B000779BFECF9FB9779BFECF8FB9779BFECFF1
:1012C000C09A08950E94BE0708958091600790918A
:1012D000610798609093610780936007C09881E1EF
:1012E0008FB9779BFECF809161078FB9779BFECF37
:1012F000809160078FB9779BFECFC09A0895809147
:10130000600790916107977F9093610780936007D2
:10131000C09881E18FB9779BFECF809161078FB92B
:10132000779BFECF809160078FB9779BFECFC09AE5
:10133000089581E080936D07809160079091610727
:1013400080619093610780936007C09881E18FB9B5
:10135000779BFECF809161078FB9779BFECF8091FD
:1013600060078FB9779BFECFC09A089510926D07E2
:1013700080916007909161078F7E909361078093C1
:101380006007C09881E18FB9779BFECF809161079C
:101390008FB9779BFECF809160078FB9779BFECF87
:1013A000C09A0895DF93CF9300D0CDB7DEB79A836C
:1013B0008983909369078093680784EF91E00E9486
:1013C0002F27C0988AEE8FB9779BFECF80E88FB920
:1013D000779BFECFFE013196CE01039621912FB966
:1013E000779BFECFE817F907C9F7C09A84EF91E021
:1013F0000E942F270F900F90CF91DF910895CF93E8
:10140000DF93EC01862FC09898E09FB9779BFECFC1
:10141000C09AC09898E09FB9779BFECFC09A0E946F
:10142000BE07D0936307C0936207DF91CF91089501
:10143000DF92EF92FF920F931F93DF93CF9300D031
:10144000CDB7DEB78C01D62E5A8349837901DD9A58
:1014500088EE93E00E941B13DE9881E090E00E94EA
:101460001B13DE9A84E690E00E941B13F894C09848
:1014700081E08FB9779BFECFC09A82EE92E0909385
:10148000610780936007C09881E18FB9779BFECF99
:10149000809161078FB9779BFECF809160078FB9EC
:1014A000779BFECFC09AC09882E18FB9779BFECF21
:1014B00085E08FB9779BFECF1FB8779BFECFC09A90
:1014C000C0988CE18FB9779BFECF1FB8779BFECF7A
:1014D0008FE78FB9779BFECFC09AC09889E18FB90B
:1014E000779BFECF81E08FB9779BFECF84EC8FB9DD
:1014F000779BFECFC09AC09887E18FB9779BFECFCC
:101500008AE18FB9779BFECF86E58FB9779BFECFB7
:10151000C09A84EF91E00E942F27C09888EE8FB97F
:10152000779BFECF80E88FB9779BFECFFE01319687
:10153000CE01039621912FB9779BFECFE817F907CB
:10154000C9F7C09A84EF91E00E942F2778948D2DDF
:101550000E94BE0778941093630700936207898105
:101560009A819093670780936607F0926907E092EB
:1015700068071092640710926A070E94D9071092B8
:101580006D0710925F0710926E070F900F90CF912A
:10159000DF911F910F91FF90EF90DF90089581E010
:1015A00080936A07C09883E08FB9779BFECFC09A7B
:1015B000C09888E08FB9779BFECFC09A10927307CE
:1015C000089581E080936A07C09883E08FB9779B84
:1015D000FECFC09AC09888E08FB9779BFECFC09AA3
:1015E00010927307089510926A07C09886E08FB929
:1015F000779BFECFC09A109273070895BF92CF9247
:10160000DF92EF92FF920F931F93DF93CF9300D05F
:101610000F92CDB7DEB78C016B017A010E94C6270D
:10162000C09888E08FB9779BFECFC09AC09888E0B9
:101630008FB9779BFECFC09A0E99FECF8499FCCFCD
:10164000F894C09889E08FB9779BFECFC09AC09874
:1016500089E08FB9779BFECFC09AD80112965C9132
:101660001297252F332727FD3095BB2440E00AC071
:10167000D8011396ED91FC911497E80FF91F808122
:10168000B80E4F5F842F90E0821793078CF3545F5E
:10169000C0988EE38FB9779BFECF5FB9779BFECF63
:1016A000C09AF8018681882319F081E698E802C083
:1016B00081E498E89A838983C0988EE38FB9779BF9
:1016C000FECFFE013196CE01039621912FB9779B73
:1016D000FECFE817F907C9F7C09AC0988EE38FB913
:1016E000779BFECF809164078FB9779BFECFC09A1E
:1016F000C0988EE38FB9779BFECF80E090E0FC012D
:10170000EE59F84F24812FB9779BFECF0196823096
:101710009105A9F7C09AC0988EE38FB9779BFECF49
:1017200080E090E0F801E80FF91F20812FB9779B46
:10173000FECF019682309105A9F7C09AC0988EE33A
:101740008FB9779BFECF80E090E0FC01EE59F84F17
:1017500026812FB9779BFECF019682309105A9F79C
:10176000C09AC601B7010E945227D80115968C91E4
:1017700015978823A9F180916A07882331F4C098CE
:1017800083E08FB9779BFECFC09AC0981FB8779B34
:10179000FECF8FB1C09A81FFF8CF20E0A5E0EA2EFE
:1017A000C098EFB8779BFECFC09AC0981FB8779BC0
:1017B000FECFCFB0C09A2F5F253649F47894809140
:1017C0005D0790915E070E946F1B80E060C084E619
:1017D00090E02B830E941B132B81C3FEE1CF06C038
:1017E000C09884E08FB9779BFECFC09AC0988EE3F3
:1017F0008FB9779BFECF40E00CC0D8011396ED91D6
:10180000FC911497E80FF91F80818FB9779BFECF69
:101810004F5F842F90E0F8012281332727FD309518
:101820008217930754F3C09AC0988EE38FB9779BC1
:10183000FECFBFB8779BFECFC09A849BFECFF894B3
:101840008499FECFC09888E08FB9779BFECFC09A6D
:10185000C09888E08FB9779BFECFC09AC09889E086
:101860008FB9779BFECFC09AC09889E08FB9779BDC
:10187000FECFC09AC09886E08FB9779BFECFC09A02
:101880007894809164078F5F8093640781E00F9064
:101890000F900F90CF91DF911F910F91FF90EF90DC
:1018A000DF90CF90BF900895FF920F931F93DF9327
:1018B000CF9300D0CDB7DEB7FC0180915F078823BE
:1018C00031F0C0988DE08FB9779BFECFC09A3281FE
:1018D000432F552747FD509520E060E007C0A381C6
:1018E000B481A80FB91F8C91280F6F5F862F90E0ED
:1018F00084179507A4F3832F845F90915F0791115C
:101900008C5FC09898E09FB9779BFECFC09AC09833
:1019100098E09FB9779BFECFC09A0E99FECF84992D
:10192000FCCFF894C09899E09FB9779BFECFC09AFE
:10193000C09899E09FB9779BFECFC09AC0989EE36C
:101940009FB9779BFECF8FB9779BFECFC09A81E47A
:1019500098E89A83898380916D07882321F081E636
:1019600098E89A83898380915F07882329F0898189
:101970009A8188609A838983C0988EE38FB9779B18
:10198000FECFDE011196CE0103963D913FB9779BC4
:10199000FECFA817B907C9F7C09AC0988EE38FB9D0
:1019A000779BFECF809164078FB9779BFECFC09A5B
:1019B000C0988EE38FB9779BFECF80E090E0DC018A
:1019C000AE59B84F14963C9114973FB9779BFECF10
:1019D00001968230910599F7C09AC0988EE38FB92D
:1019E000779BFECF80E090E0DF01A80FB91F3C910C
:1019F0003FB9779BFECF019682309105A9F7C09A37
:101A0000C0988EE38FB9779BFECF80E090E0DC0139
:101A1000AE59B84F16963C9116973FB9779BFECFBB
:101A200001968230910599F7C09A80915F078823CB
:101A300081F0C0988EE38FB9779BFECFAFE6B7E019
:101A40008D918FB9779BFECF87E0A337B807C1F799
:101A5000C09AC0988EE38FB9779BFECF30E009C063
:101A6000A381B481A80FB91F8C918FB9779BFECF4A
:101A70003F5F832F90E04281552747FD50958417A3
:101A8000950774F3C09AC0988EE38FB9779BFECF09
:101A90002FB9779BFECFC09A8581882391F18091E1
:101AA0006A07882331F4C09883E08FB9779BFECF13
:101AB000C09AC0981FB8779BFECF8FB1C09A81FFA4
:101AC000F8CF10E005E0C0980FB9779BFECFC09A21
:101AD000C0981FB8779BFECFFFB0C09A1F5F153626
:101AE00049F4789480915D0790915E070E946F1B86
:101AF00080E043C084E690E00E941B13F3FEE3CF36
:101B000006C0C09884E08FB9779BFECFC09A7894C6
:101B1000849BFECF8499FECF80916D078823F9F0D6
:101B200084EA92E00E941B13B79B0BC0C0988FE71A
:101B30008FB9779BFECF1FB8779BFECF8FB1C09A2E
:101B40000EC0C09888E08FB9779BFECFC09AC0982E
:101B500088E08FB9779BFECFC09A80E001C081E01A
:101B6000F894C09896E09FB9779BFECFC09A78947E
:101B7000909164079F5F909364070F900F90CF91AF
:101B8000DF911F910F91FF90089581E0849B80E089
:101B9000089581E00E9B80E0089581E0849B80E0C1
:101BA0000895DF93CF9300D000D0CDB7DEB70E9B62
:101BB000C7C110926E070E9B1AC0B79918C0C09883
:101BC0008FE78FB9779BFECF1FB8779BFECF8FB182
:101BD000C09AC09888E08FB9779BFECFC09AC09812
:101BE00088E08FB9779BFECFC09A8FEFAAC1C098CB
:101BF0008FE78FB9779BFECF1FB8779BFECF4FB192
:101C0000C09A4F77C1F4C0988FE78FB9779BFECF0A
:101C10001FB8779BFECF8FB1C09AC09888E08FB96C
:101C2000779BFECFC09AC09888E08FB9779BFECF94
:101C3000C09A8EEF86C14C3084F0E0916207F0913B
:101C40006307842F992787FD90950B97248133276D
:101C500027FD3095281739077CF5C0988FE78FB995
:101C6000779BFECF50E0842F992787FD909504C085
:101C70001FB8779BFECF5F5F252F30E0281739070D
:101C800014F4B799F5CFC09AC0988FE78FB9779BB6
:101C9000FECF1FB8779BFECF8FB1C09AC09888E067
:101CA0008FB9779BFECFC09AC09888E08FB9779B99
:101CB000FECFC09A8DEF45C1E0916207F0916307B6
:101CC0004C504383C0988FE78FB9779BFECFFE01BE
:101CD0003196CE0103961FB8779BFECF2FB121938B
:101CE000E817F907C1F7C09AE0916207F09163071E
:101CF000998181E095FF80E08783C0988FE78FB955
:101D0000779BFECF1FB8779BFECFE0916207F091E3
:101D100063078FB18083C09AC0988FE78FB9779B94
:101D2000FECF84E005C01FB8779BFECF815011F035
:101D3000B799F9CFC09AC0988FE78FB9779BFECF3C
:101D400080E090E01FB8779BFECFE0916207F091B2
:101D500063072FB1E80FF91F2183019682309105A7
:101D600089F7C09A898183FF4DC0C0988FE78FB9EA
:101D7000779BFECFE9E5F7E01FB8779BFECF8FB1E9
:101D8000819387E0ED35F807B9F7C09AC09889E9E3
:101D90008FB9779BFECF80E88FB9779BFECF82E02B
:101DA0008150E82FF0E0E75AF84F90819FB9779B78
:101DB000FECF8823A9F7C09AC0988BE98FB9779B8B
:101DC000FECF80E88FB9779BFECF82E08150E82F6D
:101DD000F0E0E55AF84F90819FB9779BFECF8823BA
:101DE000A9F7C09AC0988CE08FB9779BFECFC09AB4
:101DF00081E080936E07E0916207F0916307838131
:101E000084508383C0988FE78FB9779BFECF40E0E3
:101E10000FC01FB8779BFECFE0916207F091630778
:101E20008FB10580F681E02DE40FF11D80834F5FB7
:101E3000E0916207F0916307242F30E083819927B6
:101E400087FD90952817390724F3C09AC0988FE72B
:101E50008FB9779BFECF1FB8779BFECF6FB1C09A2B
:101E6000C0988FE78FB9779BFECFFE013396CE01E6
:101E700005961FB8779BFECF2FB12193E817F9077E
:101E8000C1F7C09AE0916207F09163078B81808768
:101E900050E040E00CC0E0916207F09163070580DC
:101EA000F681E02DE80FF91F8081480F5F5FE09118
:101EB0006207F0916307852F90E02381332727FD88
:101EC0003095821793073CF34617C1F0C0988FE70F
:101ED0008FB9779BFECF1FB8779BFECF8FB1C09A8B
:101EE000C09888E08FB9779BFECFC09AC09888E0F1
:101EF0008FB9779BFECFC09A8CEF23C08C8187FF70
:101F000007C0809173078F5F8093730781E019C0CA
:101F1000C0988FE78FB9779BFECF1FB8779BFECF16
:101F20008FB1C09AC09888E08FB9779BFECFC09AD6
:101F3000C09888E08FB9779BFECFC09A8BEF01C025
:101F400080E00F900F900F900F90CF91DF91089548
:101F500080917307882329F080917307109273078B
:101F6000089580E00895C09888E08FB9779BFECFF0
:101F7000C09AC09888E08FB9779BFECFC09A089529
:101F8000992787FD9095982F88278068C09823E12E
:101F90002FB9779BFECF9FB9779BFECF8FB9779BE9
:101FA000FECFC09A0895C09886E08FB9779BFECF88
:101FB000C09AC09882E18FB9779BFECF85E08FB938
:101FC000779BFECF88E08FB9779BFECFC09AC098F1
:101FD0008EE28FB9779BFECF88E18FB9779BFECFDA
:101FE0001FB8779BFECFC09A0E94B30F0895C09888
:101FF00086E08FB9779BFECFC09AC09882E18FB9F7
:10200000779BFECF85E08FB9779BFECF1FB8779B7C
:10201000FECFC09AC0988EE28FB9779BFECF1FB8D3
:10202000779BFECF1FB8779BFECFC09A0E94B30F5D
:102030000895C09886E08FB9779BFECFC09AC0986C
:1020400082E18FB9779BFECF85E08FB9779BFECF7A
:1020500081E08FB9779BFECFC09A0E94B30F08959D
:10206000C09882E18FB9779BFECF85E08FB9779BCF
:10207000FECF84E08FB9779BFECFC09A0E94B30F4A
:10208000089590E08F709070209160073091610703
:10209000207F822B932B9093610780936007C098D9
:1020A00081E18FB9779BFECF809161078FB9779BD4
:1020B000FECF809160078FB9779BFECFC09A0895BD
:1020C00090E026E0880F991F2A95E1F79070209103
:1020D0006007309161072F73822B932B90936107D8
:1020E00080936007C09881E18FB9779BFECF809184
:1020F00061078FB9779BFECF809160078FB9779B7F
:10210000FECFC09A0895C09884E08FB9779BFECF28
:10211000C09A0895C09886E08FB9779BFECFC09A89
:1021200008955F9BFECF5F988CB108955D9BFECFB5
:102130005D988CB908958FEF0895882311F48BB1C1
:1021400004C0813031F480919B00881F8827881F4C
:10215000089580E00895CF93DF93EC0107C060916C
:1021600088087091890890E00E940A45FE01219636
:1021700084918823A1F7DF91CF9108958F3F09F4CF
:102180003FC0982F96959695969521E030E002C035
:10219000220F331F9A95E2F790E08770907082309B
:1021A0009105D9F08330910534F4009771F08130B6
:1021B000910541F50EC084309105C1F08430910540
:1021C0008CF085309105F1F415C08BB3822B8BBB5D
:1021D00007C088B3822B88BB03C085B3822B85BB25
:1021E00081E0089582B3822B82BBFACF83B1822B28
:1021F00083B9F6CF80916200822B80936200F0CF8A
:102200008FEF08958FEF08958F3F09F440C0982F06
:1022100096959695969521E030E002C0220F331FE7
:102220009A95E2F7209590E0877090708230910542
:10223000D9F08330910534F4009771F08130910525
:1022400041F50EC084309105C1F0843091058CF0C9
:1022500085309105F1F415C08BB382238BBB07C089
:1022600088B3822388BB03C085B3822385BB81E00A
:10227000089582B3822382BBFACF83B1822383B9CC
:10228000F6CF80916200822380936200F0CF8FEFBF
:1022900008958FEF08958F3F89F1282F30E0277040
:1022A000307022303105C1F0233031053CF4211566
:1022B000310571F02130310509F50CC024303105AC
:1022C00079F02430310554F025303105B9F40AC0D5
:1022D00029B309C026B307C023B305C020B303C088
:1022E00021B101C020B130E086958695869502C067
:1022F000359527958A95E2F7217001C02FEF822F3F
:102300000895882319F080B58B7F02C080B5846062
:1023100080BD81E008958F3F09F43FC0982F9695C6
:102320009695969521E030E002C0220F331F9A95D2
:10233000E2F790E08770907082309105D9F0833099
:10234000910534F4009771F08130910541F50EC08C
:1023500084309105C1F0843091058CF08530910571
:10236000F1F415C08BB382278BBB07C088B38227DB
:1023700088BB03C085B3822785BB81E0089582B303
:10238000822782BBFACF83B1822783B9F6CF8091AF
:102390006200822780936200F0CF8FEF08958FEF65
:1023A00008958F3F09F48CC0982F96959695969531
:1023B00021E030E002C0220F331F9A95E2F790E04F
:1023C000662309F04AC0322F3095877090708230B2
:1023D000910519F1833091053CF4009781F081302B
:1023E000910509F06DC012C08430910521F184304F
:1023F0009105D4F08530910509F062C023C08AB3FD
:1024000083238ABB8BB3822B8BBB58C087B38323B8
:1024100087BB88B3822B88BB51C084B3832384BB22
:1024200085B3822B85BB4AC081B3832381BB82B332
:10243000822B82BB43C082B1832382B983B1822BBA
:1024400083B93CC0809161008323809361008091B7
:102450006200822B8093620031C08770907082305E
:102460009105D9F08330910534F4009771F08130F3
:10247000910541F50EC084309105B9F08430910585
:1024800084F085309105F1F414C08AB3822B8ABBA5
:1024900015C087B3822B87BB11C084B3822B84BB4A
:1024A0000DC081B3822B81BB09C082B1822B82B95E
:1024B00005C080916100822B8093610081E00895C6
:1024C0008FEF08958FEF08958FEF0895009711F41F
:1024D00080E009C08130910511F488E004C08230A9
:1024E000910529F480E10E948B1181E008958FEF1E
:1024F0000895009711F480E009C08130910511F42E
:1025000088E004C08230910529F480E10E94BE1069
:1025100081E008958FEF089580B5846080BD87E0E5
:1025200087BB88BB8FEF84BB15BA82E082B987E690
:102530008ABB80E48BBB80E58DB981E08EB980E0F9
:1025400090E00E94791281E090E00E94791282E08E
:1025500090E00E94791283E090E00E947912089541
:10256000009711F480E009C08130910511F488E0F2
:1025700004C08230910529F480E10E94041181E0B9
:1025800008958FEF089590919B0095FFFCCF909157
:102590009B009F7D90939B0080939C000895909357
:1025A000900089B986E0809395005298599A8AB133
:1025B00088618AB908950F931F93CF93DF930E9488
:1025C000CF12C6E9D0E101E910E1CE01B8010E94C5
:1025D0007D449093890880938808CE01B8010E94B9
:1025E0007D449093870880938608DF91CF911F9157
:1025F0000F910895909398008093990086E08093BE
:102600009D00EAE9F0E080818B7F8083ABE9B0E058
:102610008C9182608C938081886180830895809101
:102620009B0087FFFCCF80919B008F7780939B005E
:1026300080919C00089500000000000000000197B8
:10264000D1F708950E940D4608950E94154680E036
:102650000895EF92FF920F931F93CF93DF93E82E8D
:10266000E7017E01F92EE70180E090E00E940D462F
:10267000082F8B8381E090E00E940D46E82E8A832C
:1026800082E090E00E940D46F82E898383E090E07E
:102690000E940D46182F888384E090E00E940D462A
:1026A000FE0CF00EF10E8F1511F481E001C08FEFDA
:1026B000DF91CF911F910F91FF90EF900895CF93ED
:1026C000DF93EC0185E090E00E940D46888381E075
:1026D000DF91CF910895FC0186E090E060810E9437
:1026E000154681E00895CF93DF93EC0186E090E0FA
:1026F0000E940D46888381E0DF91CF9108950F936A
:102700001F93CF93DF93082F192FC8E0D0E0CE019D
:102710000E940D46F80181938F012196C831D105A1
:10272000B1F781E0DF91CF911F910F9108950F9341
:102730001F93CF93DF93082F192FC8E0D0E0F80143
:1027400061918F01CE010E9415462196C831D105B5
:10275000B1F781E0DF91CF911F910F910895CF9351
:10276000DF93EC0187E090E00E940D46888381E0D2
:10277000DF91CF910895FC0187E090E060810E9495
:10278000154681E00895F8940895789408950E947C
:10279000C313FFCF0F931F93DF93CF93CDB7DEB754
:1027A000A3970FB6F894DEBF0FBECDBF0E942B19C2
:1027B000809347088F3F21F48EE060E00E94AC17C1
:1027C0000E94A828082F81FF04C084E160E00E94D5
:1027D000AC1702FF04C083E160E00E94AC171092C6
:1027E0004A081092580810925708109249081092FF
:1027F00048081092590810925608E6E3F8E08FEF67
:10280000808382838183339698E0E534F907C1F7AA
:1028100093E69093800780937E079093A60780931A
:10282000A4079093CC078093CA079093F2078093F4
:10283000F0079093180880931608EDE5F8E020E083
:1028400030E001C09A01A9014F5F5F4FCA01880FB4
:10285000991F880F991F840F951F865A974F918350
:102860008083C901880F991F880F991F820F931FBA
:10287000865A974F9483838335964530510511F7D7
:1028800010925C0810925B081092770810927608FC
:1028900010924D0810924C088AE598E090937507C5
:1028A000809374078E010F5F1F4FC80163E473E2CA
:1028B0000E942229C80169ED76E040E850E00E94BC
:1028C000682985E58093D90619861C861D861E8693
:1028D0001F86188A198A1A8A1B8A1C8A1D8A1E8AD0
:1028E0001F8A188E198E1A8E1B8E1C8E1D8E1E8EA0
:1028F0001F8E18A219A21AA21BA281E0888792E05B
:102900009A878B87C8010E94291EA3960FB6F89458
:10291000DEBF0FBECDBFCF91DF911F910F91089504
:10292000CF92DF92FF920F931F93DF93CF9300D04C
:10293000CDB7DEB7EEE7CE2EE7E0DE2E90E0F60173
:10294000F080FF2DFF3FB1F00EE717E020E0921777
:1029500061F0F8018081F81641F485E06F2D29833C
:102960009A830E94AC179A8129812F5F0A5D1F4FBD
:10297000253069F79F5F26E230E0C20ED31E953006
:10298000F1F60E94F31C992787FD909526E230E02E
:10299000829FF001839FF00D929FF00D1124EA5861
:1029A000F84F828580935908F0935808E0935708B0
:1029B000F0934908E093480880934A080E949E29B2
:1029C0000E948E290E94EB34FFCFCF92DF92EF92CC
:1029D000FF920F931F93CF93DF93EC018B016A015A
:1029E0008985823021F080914508888301C0188252
:1029F00080914508853020F087E060E00E94AC17A8
:102A00008985823029F0809145088F5F8093450841
:102A100080914508882319F481E080934508288136
:102A2000332727FD309586E290E0289FF001299F0B
:102A3000F00D389FF00D1124EA58F84F11830083F0
:102A4000288522872881332727FD3095289FF0018C
:102A5000299FF00D389FF00D1124EA58F84F23E01C
:102A600021874881242F332727FD3095289FF001A7
:102A7000299FF00D389FF00D1124EA58F84F408738
:102A80002881332727FD3095289F8001299F100D2D
:102A9000389F100D11240A58184FF8011582CE01E5
:102AA0000B960E94F421F801948F838F8B859C856F
:102AB000AD85BE858E339105A105B10520F086E177
:102AC00068810E94AC170881112707FD1095CE017F
:102AD0004B960E94F421F6E2EF2EF12C0E9DF001B0
:102AE0000F9DF00D1E9DF00D1124EA58F84F968BA6
:102AF000858B8881992787FD90958E9D80018F9D7C
:102B0000100D9E9D100D11240A58184FF80185894B
:102B10009689238D348D820F931F908F878BCE01E2
:102B200043960E94F421F801968F858F888199271A
:102B300087FD90958E9DF0018F9DF00D9E9DF00D6F
:102B40001124EA58F84F858D968D928F818F81E000
:102B500090E090A3878FD382C28281E084878881AE
:102B6000992787FD90958E9DF0018F9DF00D9E9D7C
:102B7000F00D1124EA58F84F898581A381E0DF9197
:102B8000CF911F910F91FF90EF90DF90CF9008951C
:102B90000E945E23089585E690E00895E09157082D
:102BA000F091580884870895E0915708F0915808EB
:102BB000848508952091B506222341F0FB012083EE
:102BC0002091E304FC01208381E0089580E00895D2
:102BD000DF93CF930F92CDB7DEB7198207C080ED98
:102BE00097E00E942F2789818F5F898389818436AE
:102BF000B0F30F90CF91DF91089581E090E00E94B3
:102C0000B0120E94E81581E090E00E9479120E94C3
:102C1000E815089581E090E00E94B0120E94E81546
:102C20000E94E8150E94E81581E090E00E94791268
:102C30000E94E8150895FF920F931F93DF93CF939F
:102C400000D00F92CDB7DEB700D000D000D0EDB7E6
:102C5000FEB731968E010F5F1F4FADB7BEB712960C
:102C60001C930E93119725ED31E0338322838483E7
:102C700015820E947F45EDB7FEB736960FB6F894E1
:102C8000FEBF0FBEEDBFFF2472C0800F911FDC019D
:102C90008C918433D1F1853370F48133F9F0823330
:102CA00020F4803309F05CC016C0823311F1833305
:102CB00009F056C023C08733C9F1883330F4853317
:102CC00069F1863309F04CC02CC08833B1F18933E7
:102CD00009F046C03BC00E940A1602C00E94FD15C2
:102CE0000E940A160E940A160E940A160E940A16DC
:102CF00037C00E94FD150E94FD15F4CF0E94FD15FE
:102D00000E94FD150E94FD15EFCF0E94FD150E9447
:102D1000FD150E94FD150E94FD15E8CF0E94FD15CE
:102D200002C00E940A160E94FD1504C00E940A16E5
:102D30000E940A160E94FD1506C00E940A160E94F3
:102D40000A160E940A160E94FD1508C00E940A1663
:102D50000E940A160E940A160E940A160E94FD1579
:102D60000E94E8150E94E8150E94E815F394F80106
:102D700001900020E9F73197E01BF10B8F2D90E0D7
:102D80008E179F0708F481CF0F900F900F90CF916F
:102D9000DF911F910F91FF9008950F931F93CF9391
:102DA000DF938091B506882329F4DF91CF911F919D
:102DB0000F9108950E94C3130E94C3130E94C3136E
:102DC000C5EDD1E086E693E00E94AB1000D000D0C4
:102DD000EDB7FEB73196ADB7BEB71296DC93CE9382
:102DE00011978091E304828313820E9436450F90ED
:102DF0000F900F900F9082E693E00E94AB108091AD
:102E0000B506883110F01092B5068091B50690E0B5
:102E100001978631910508F04BC08A5B9F4FFC01FA
:102E2000EE0FFF1F0590F491E02D099486E293E0E8
:102E300041C08FEF92E03EC08BEE92E03BC085ED4B
:102E400092E038C08AEB92E035C084EA92E032C06A
:102E50008CE892E02FC089E792E02CC086E692E0F1
:102E600029C088E492E026C083E292E023C087E193
:102E700092E020C08CEF91E01DC08DEE91E01AC071
:102E800089ED91E017C088EC91E014C084EB91E0EB
:102E900011C084E991E00EC08CE791E00BC081E69F
:102EA00091E008C080E591E005C081E491E002C0B6
:102EB0008AE391E00E94AB106091880870918908C4
:102EC0008DE090E00E940A45609188087091890821
:102ED0008AE090E00E940A4514E182E090E00E94BE
:102EE000B01283E090E00E94791204E688EE93E04D
:102EF0000E942F270150D1F783E090E00E94B0128A
:102F000082E090E00E94791204E688EE93E00E944D
:102F10002F270150D1F7115001F782E090E00E9475
:102F2000791283E090E00E9479128091E3040E947C
:102F30001B160E94E81582E090E00E94B0120E94E9
:102F4000E81582E090E00E9479120E94E8158091D5
:102F5000B5060E941B1636CFEF92FF920F931F9378
:102F6000182FE62E8093B5066093E3040E94CD16D9
:102F700000E021C082E090E00E94B01283E090E087
:102F80000E94791294E6F92E88EE93E00E942F2792
:102F9000FA94D1F783E090E00E94B01282E090E0D2
:102FA0000E94791284E6F82E88EE93E00E942F2783
:102FB000FA94D1F70F5F0431E8F283E090E00E94C9
:102FC000791282E090E00E9479128E2D0E941B16E9
:102FD000812F0E941B1600E0CDCF8093B506E091B3
:102FE0005708F091580880858093E3040E94CD161D
:102FF00008954F925F926F927F928F929F92AF92BD
:10300000BF92CF92DF92EF92FF920F931F93CF93D5
:10301000DF9382E793E00E94AB1000D000D088EDF0
:1030200091E0ADB7BEB712969C938E931197E09145
:103030005708F09158088085992787FD9095149638
:103040009C938E9313970E943645E0915708F09118
:103050005808C281D38181EE91E0EDB7FEB792832B
:103060008183D483C3830E943645EDB7FEB7319682
:103070004EEEE42E41E0F42EADB7BEB71296FC92B0
:10308000EE9211978881828313820E9436453BEF2E
:10309000C32E31E0D32EEDB7FEB7D282C182E091CC
:1030A0005708F091580880819181ADB7BEB714964A
:1030B0009C938E9313970E94364525E0A22E22E022
:1030C000B22EEDB7FEB7B282A182809157089091DF
:1030D0005808948383830E94364506E717E00F90D3
:1030E0000F900F900F90C0E0D0E095E1492E92E054
:1030F000592E9E2C6F2C7C2C8D2CC501BA2CA92E00
:1031000086E2C82ED12CD8011296ED90FC90139730
:1031100000D000D000D0EDB7FEB73196ADB7BEB746
:1031200012965C924E921197D383C283F582E48209
:103130000E9436450F900F90EDB7FEB73196ADB7B0
:10314000BEB711969C92119712966C92D7018C91F2
:10315000828313820E943645EDB7FEB77182828268
:10316000D8018D919C91948383830E943645EDB75D
:10317000FEB7B182A282CC9DC001CD9D900DDC9D99
:10318000900D11248A58984F948383830E9436456A
:1031900021960A5D1F4F0F900F900F900F90C53032
:1031A000D10509F0B0CFDF91CF911F910F91FF9022
:1031B000EF90DF90CF90BF90AF909F908F907F90D7
:1031C0006F905F904F900895CF93DF93E0915708F1
:1031D000F0915808C281D3818881853539F00E94E9
:1031E000F91781E00E94ED1785E58883E091570883
:1031F000F09158088081918121E18030920728F078
:103200000E94F91782E10E94ED17DF91CF91089596
:10321000992787FD909526E230E0829FF001839FF9
:10322000F00D929FF00D1124EA58F84FA281B3815E
:103230008C91853519F085E58C9309C08081918149
:1032400021E18030920728F082E10E94ED178FEF94
:10325000089581E0089560910806709109068091B3
:103260000A0690910B06E0E0F0E09B01AC010E2E07
:1032700004C056954795379527950A94D2F720FDB7
:103280001AC021E030E040E050E00E2E04C0220FD2
:10329000331F441F551F0A94D2F7262B372B482B78
:1032A000592B209308063093090640930A06509341
:1032B0000B068E2F08953196E032F105B1F68FEFAF
:1032C0000895E0915708F0915808658576858785BF
:1032D00090890895DF92EF92FF920F931F93D82E5B
:1032E00081E0E82EF12C012D112D0D2C04C0EE0CE7
:1032F000FF1C001F111F0A94D2F7809108069091BD
:103300000906A0910A06B0910B068E219F21A023E9
:10331000B1230097A105B10509F45DC00E94C31354
:10332000EDE7F7E0A801970120953095409550957D
:1033300063E081818F3F39F186819781A085B185D6
:103340008E159F05A007B10731F4128613861486E7
:1033500015861082628386819781A085B18582233C
:103360009323A423B52386839783A087B18782857F
:103370009385A485B58582239323A423B5238287CF
:103380009387A487B587B69688E0EB33F80789F66C
:103390002EEF3FEF4FEF5FEF04C0220F331F441FAC
:1033A000551FDA94D2F78091080690910906A091F2
:1033B0000A06B0910B0682239323A423B52380939E
:1033C000080690930906A0930A06B0930B060E9484
:1033D000C51381E001C08FEF1F910F91FF90EF9017
:1033E000DF900895EF92FF920F931F9321E030E05A
:1033F00040E050E004C0220F331F441F551F8A9540
:10340000D2F7E0915708F091580885859685A785F1
:10341000B08979018A01E822F9220A231B23E114E9
:10342000F10401051105D1F0209530954095509596
:1034300082239323A423B52385879687A787B08B00
:1034400081899289A389B48982239323A423B523F4
:10345000818B928BA38BB48B81E001C08FEF1F9186
:103460000F91FF90EF900895209108063091090682
:1034700040910A0650910B06082E04C056954795B8
:10348000379527950A94D2F72170307021153105B0
:10349000E9F0E0915708F091580821E030E040E071
:1034A00050E004C0220F331F441F551F8A95D2F7E6
:1034B00085859685A785B089822B932BA42BB52B68
:1034C00085879687A787B08B81E008958FEF089551
:1034D000EF92FF920F931F93DF93CF930F92CDB78D
:1034E000DEB791E0E92EF12C012D112D04C0EE0C78
:1034F000FF1C001F111F8A95D2F78091080690913A
:103500000906A0910A06B0910B068E219F21A023E7
:10351000B1230097A105B10511F481E03FC00E94DD
:10352000C313EDE7F7E020E033E080818130A9F4B8
:1035300082859385A485B5858E219F21A023B12303
:103540000097A105B10549F03283178616861082CF
:10355000E286F3860487158721E08081823091F42A
:1035600082859385A485B5858E159F05A007B10733
:1035700049F43283178616861082128613861486C3
:10358000158621E0B69688E0EB33F80771F62983BB
:103590000E94C5132981222329F482E00E94CE15BE
:1035A0008FEF01C081E00F90CF91DF911F910F91BC
:1035B000FF90EF900895E0915708F0915808258505
:1035C00036854785508926233723482359232115DB
:1035D00031054105510521F1618B728B838B948BF1
:1035E00021E027830090470804C09695879577953A
:1035F00067950A94D2F7617070706115710519F0C2
:103600000E94191F04C080E090E00E94401FE091DA
:103610005708F0915808218932894389548903C099
:1036200020E030E0A901B901CA010895909156083F
:103630009430D0F4E6E3F8E020E030813F3F21F021
:103640002F5F33962530C9F730E0F901EE0FFF1FE9
:10365000E20FF31FEA5CF74F8283808361839F5FF1
:10366000909356089F0102C020E030E0C901089500
:10367000BC0120E030E0822FA901440F551F420F0A
:10368000531F4A5C574F6417750731F02F5F3F4F48
:103690002530310581F78FEF08950E94381B8F3F49
:1036A00011F481E003C0853029F482E00E94CE1538
:1036B0008FEF0895992787FD9095FC01EE0FFF1F6E
:1036C000E80FF91FEA5CF74F8FEF808382838183D5
:1036D0008091560881508093560881E00895EF92BA
:1036E000FF920F931F93DF93CF930F92CDB7DEB767
:1036F0000E94381B682F8F3F11F481E003C0853092
:1037000029F482E00E94CE158FEF8FC0082F112779
:1037100007FD10957801EE0CFF1CE00EF11E86E30C
:1037200098E0E80EF91ED70112969C9112978C91A1
:1037300098170CF079C069830E94C31300D000D0A1
:1037400000D0EDB7FEB7319686E292E0ADB7BEB7D6
:1037500012969C938E931197A0915708B091580898
:1037600018968C91992787FD909593838283158372
:1037700004830E943645F70182818F5F8283E09146
:103780005708F09158081482E7E3F8E08DB79EB728
:1037900006960FB6F8949EBF0FBE8DBF20E030E0B6
:1037A00070E46981A901440F551F420F531F4A5C01
:1037B000574F71F0A0814A2F552747FD5095872F0D
:1037C00090E04817590724F48181882309F47A2F5F
:1037D0002F5F3F4F33962530310521F77093460810
:1037E000EDE7F7E0862F992787FD9095A92FB92F50
:1037F00063E02081223089F4228533854485558514
:10380000281739074A075B0741F462831786168633
:1038100010821286138614861586B69628E0EB333E
:10382000F20739F70E94C51381E00F90CF91DF9125
:103830001F910F91FF90EF9008950F931F93DF93C7
:10384000CF930F92CDB7DEB70E94381B8F3F11F494
:1038500081E003C0853029F482E00E94CE158FEF0D
:10386000A3C089830E94C3138981082F112707FDF4
:103870001095F801EE0FFF1FE00FF11FEA5CF74F04
:1038800092811916B4F0E0915708F0915808978189
:1038900092609783992787FD9095A92FB92F818BE7
:1038A000928BA38BB48B0E94C51380E090E00E94A2
:1038B000401F00D000D000D0EDB7FEB7319685E4B0
:1038C00092E0ADB7BEB712969C938E931197A091DC
:1038D0005708B091580818968C91992787FD9095B4
:1038E00093838283158304830E943645F801EE0F8B
:1038F000FF1FE00FF11FEA5CF74F82818150828346
:10390000E7E3F8E08DB79EB706960FB6F8949EBF32
:103910000FBE8DBF80E090E060E49C01220F331F5A
:10392000280F391F2A5C374F71F07081472F5527B8
:1039300047FD5095262F30E04217530724F421818C
:10394000222309F4672F019633968530910529F7D4
:103950006093460800D000D0EDB7FEB7319681E6FF
:1039600092E0ADB7BEB712969C938E931197628387
:1039700013820E943645A0915708B0915808F8016B
:10398000EE0FFF1FE00FF11FEA5CF74F81811B96DE
:103990008C931B9781E014968C930F900F900F904F
:1039A0000F900E94C51381E00F90CF91DF911F917E
:1039B0000F9108950E94381B8F3F11F481E003C0DE
:1039C000853029F482E00E94CE158FEF0895992763
:1039D00087FD9095FC01EE0FFF1FE80FF91FEA5CD1
:1039E000F74F82810895E0914C08F0914D08808155
:1039F0000895EF92FF920F931F93CF93DF93C0919F
:103A00004C08D0914D0884E893E00E94AB1084E705
:103A1000E82E82E0F82E06E210E01CC000D000D0B4
:103A2000EDB7FEB7F282E182288130E0209FC0012D
:103A3000219F900D309F900D11248357984F9483B0
:103A400083830E9436450B80DC81C02D0F900F9040
:103A50000F900F90209711F781E893E00E94AB1030
:103A6000DF91CF911F910F91FF90EF900895AF924A
:103A7000BF92CF92DF92EF92FF920F931F93CF935B
:103A8000DF93E0917407F0917507309709F486C0D1
:103A900020914C0830914D082115310509F442C0A0
:103AA000D90146E250E0C82FDD27C7FDD095C49F5D
:103AB000B001C59F700DD49F700D11246A58784FC6
:103AC00017E1E12EF12CE60EF71E9AE0C92ED12C5B
:103AD000C60ED71E6C91662339F170E0649F5001C9
:103AE000659FB00C749FB00C112466E777E0A60EBA
:103AF000B71EE5010F89188DE7016881798160178C
:103B0000710790F00617170731F4E5016A85E601A1
:103B10009881691748F013960D90BC91A02D1097CD
:103B2000C9F602C0A0E0B0E08083C381D481D09305
:103B30007507C0937407A217B307B1F4109749F043
:103B4000B483A383128211821296FC93EE93119791
:103B500006C01482138212821182FA83E983F093E1
:103B60004D08E0934C081AC011968D919C911297C4
:103B7000AC17BD0759F092838183B483A383119658
:103B8000CD91DC911297FC83EB8304C014821382E5
:103B9000928381831296FC93EE931197DF91CF91DC
:103BA0001F910F91FF90EF90DF90CF90BF90AF905B
:103BB0000895CF93DF93E0914C08F0914D08309732
:103BC00009F444C0992787FD9095208130E028179B
:103BD000390781F4A381B481B0934D08A0934C08B8
:103BE00012961C921E92119718C00380F481E02D4A
:103BF000309761F1208130E028173907B1F7C18192
:103C0000D281838194819C838B83A381B48110971B
:103C100021F01296DC93CE931197A0917407B09186
:103C20007507109739F4F0937507E09374071482C1
:103C300013820AC0B483A3831296FC93EE93119768
:103C4000F0937507E093740712821182DF91CF9190
:103C50000895EF92FF920F931F93CF93DF93EC01A0
:103C600069817A814B815C818D819E810E943D2991
:103C7000BC018F81882369F04B815C81CE0120E0FB
:103C800030E000E010E0EE24FF240E94E5141F82E3
:103C900014C02881332727FD309586E290E0289FC5
:103CA000F001299FF00D389FF00D1124EA58F84FCC
:103CB00081858330D9F4718360832881332727FD80
:103CC000309586E290E0289FF001299FF00D389F03
:103CD000F00D1124EA58F84F85899689009741F430
:103CE00082E0818788810E94371D02C08FEF01C06A
:103CF00081E0DF91CF911F910F91FF90EF90089598
:103D00001F93DF93CF93CDB7DEB728970FB6F89404
:103D1000DEBF0FBECDBF29833A834B835C836D83A7
:103D20007E838F8398870E94C3130E94C627182F13
:103D3000CE0101960E94F4219C018330910560F030
:103D4000E0915708F0915808210F311D368B258BD3
:103D50000E94C51381E001C08FEF28960FB6F8943A
:103D6000DEBF0FBECDBFCF91DF911F9108950E949E
:103D70003229E0915708F091580885818823B9F7D6
:103D80000895FF920F931F93DF93CF93CDB7DEB7C4
:103D900028970FB6F894DEBF0FBECDBF29833A83B4
:103DA0004B835C836D837E838F8398870E94E418A6
:103DB0000E94C313E0915708F091580881E0858371
:103DC00081E090E090A3878F0E94C627F82ECE0155
:103DD00001960E94F421E0915708F09158080F2DA8
:103DE00010E09801280F391F368B258B8F2D883FC7
:103DF00078F40E94C0270F5F1F4F282F30E0021772
:103E0000130734F48F2D8E5F8093B4060E94C3276E
:103E10000E94C5130E94B71E81E028960FB6F89441
:103E2000DEBF0FBECDBFCF91DF911F910F91FF90ED
:103E300008951F930E94C313E0915708F09158080A
:103E400081E0858386830E94C627182F883F88F4E7
:103E50000E94C027212F30E02F5F3F4F482F50E0B6
:103E60002417350734F4812F8E5F8093B4060E94A7
:103E7000C3270E94C5130E94B71E81E01F910895B9
:103E80001F93CF93DF93EC010E94C313E091570877
:103E9000F091580881E08583D68BC58B0E94C62798
:103EA000182F883F88F40E94C027212F30E02F5F11
:103EB0003F4F482F50E02417350734F4812F8E5F91
:103EC0008093B4060E94C3270E94C5130E94B71EA8
:103ED00081E0DF91CF911F910895EF92FF920F93B0
:103EE0001F93DF93CF930F92CDB7DEB78C010E9463
:103EF000C313E0915708F091580881E085830E9430
:103F0000C627E0915708F0915808E82EFF240E0DBF
:103F10001F1D168B058B883F90F489830E94C02754
:103F20000894E11CF11C282F30E09981E216F30679
:103F300034F4892F8E5F8093B4060E94C3270E94B9
:103F4000C5130E94B71E81E00F90CF91DF911F91A2
:103F50000F91FF90EF9008951F93CF93DF93EC01A3
:103F60000E94E418209711F4C1E0D0E00E94C3132E
:103F7000E0915708F091580881E08583D0A3C78F5E
:103F80000E94C627182F883F88F40E94C027212F3F
:103F900030E02F5F3F4F482F50E02417350734F4AF
:103FA000812F8E5F8093B4060E94C3270E94C513A1
:103FB0000E94B71E81E0DF91CF911F9108951F935A
:103FC0000E94E4180E94C313E0915708F09158082A
:103FD00081E090E090A3878F81E085830E94C627CF
:103FE000182F883F88F40E94C027212F30E02F5FD0
:103FF0003F4F482F50E02417350734F4812F8E5F50
:104000008093B4060E94C3270E94C5130E94B71E66
:1040100081E01F910895E0915708F091580880853C
:104020000E94D91DE0915708F091580884E08187DB
:104030000E94DF1F81E008958F929F92AF92BF92FE
:10404000CF92DF92EF92FF920F931F93DF93CF9364
:10405000CDB7DEB760970FB6F894DEBF0FBECDBF09
:1040600029873A874B875C876D877E878F87988BF8
:10407000CE0101960E947820CE01099609851A8505
:104080002B853C854D855E856F85788989809A80F2
:10409000AB80BC80CD80DE80EF80F8840E94D6208B
:1040A0008F3F61F029853A854B855C856D857E85DE
:1040B0008F8598890E94C11E81E001C08FEF6096B4
:1040C0000FB6F894DEBF0FBECDBFCF91DF911F9129
:1040D0000F91FF90EF90DF90CF90BF90AF909F90A7
:1040E0008F900895E0915708F091580880850895C1
:1040F000EF92FF920F931F93CF93DF93EC011C82FB
:104100001D821E821F8280914E0890914F08A091BF
:104110005008B091510888839983AA83BB83E090AB
:104120005208F09053080091540810915508EC8201
:10413000FD820E831F830E94C627682F70E080E0F7
:1041400090E023EB36EE4EE050E00E9492426E0D7E
:104150007F1D801F911F6C837D838E839F8313C07F
:1041600080509A4CAA49BB438C839D83AE83BF8306
:1041700088819981AA81BB810196A11DB11D888387
:104180009983AA83BB838C819D81AE81BF8180305E
:104190002AEC92072AE9A2072BE3B20708F7DF917E
:1041A000CF911F910F91FF90EF9008958F929F9262
:1041B000AF92BF92CF92DF92EF92FF920F931F9335
:1041C000DF93CF93CDB7DEB760970FB6F894DEBF1D
:1041D0000FBECDBFFC0109831A832B833C834D8323
:1041E0005E836F83788789869A86AB86BC86CD8608
:1041F000DE86EF86F88AE980FA800B811C812D81AA
:104200003E814F815885A984BA84CB84DC848D8516
:104210009E85AF85B889EA14FB040C051D0508F4DA
:1042200040C0AE14BF04C006D10691F42817390768
:104230004A075B07B0F1281B390B4A0B5B0B248341
:10424000358346835783108211821282138227C0DE
:10425000281739074A075B0790F40894E108F1082A
:1042600001091109EA18FB080C091D09E082F18215
:1042700002831383205036434546544C08C0EA1845
:10428000FB080C091D09E082F18202831383281BBD
:10429000390B4A0B5B0B248335834683578381E0BC
:1042A00001C08FEF60960FB6F894DEBF0FBECDBF92
:1042B000CF91DF911F910F91FF90EF90DF90CF9002
:1042C000BF90AF909F908F900895FC0114C0205034
:1042D0003A4C4A495B432483358346835783208184
:1042E0003181428153812F5F3F4F4F4F5F4F20837A
:1042F0003183428353832481358146815781203025
:104300008AEC38078AE948078BE3580700F70895D5
:104310008F929F92AF92BF92CF92DF92EF92FF92D5
:104320000F931F93DF93CF93CDB7DEB760970FB690
:10433000F894DEBF0FBECDBF09831A832B833C8365
:104340004D835E836F83788789869A86AB86BC8629
:10435000CD86DE86EF86F88A29853A854B855C8591
:10436000E980FA800B811C812E0D3F1D401F511FDB
:10437000FC0120833183428353832D853E854F8505
:104380005889ED80FE800F8118852E0D3F1D401F3E
:10439000511F24833583468357830E94652181E022
:1043A00060960FB6F894DEBF0FBECDBFCF91DF9100
:1043B0001F910F91FF90EF90DF90CF90BF90AF9043
:1043C0009F908F90089560934E0870934F0880934C
:1043D000500890935108209352083093530840930B
:1043E00054085093550808958F929F92AF92BF92B0
:1043F000CF92DF92EF92FF920F931F93FC012081E7
:104400003181428153816481758186819781211533
:1044100031054105510509F461C0223431054105DA
:10442000510508F062C05B016C01EE24FF24870196
:1044300060E038C08A2CAB2DA653F1E0AB1508F034
:10444000F0E08C2D865691E08C1508F090E0F80F86
:1044500071E0F81708F070E0972B7D2D755CE1E0B6
:104460007D1508F0E0E0970F81E0971708F080E0F5
:104470008E2B8E0DE1E08E1508F0E0E0EF0D71E07F
:10448000EF1508F070E0700FB1E0701708F0B0E0C1
:10449000B10FA82CBA2ECF2ED92EE82EFE2E072F24
:1044A0001B2F6F5F862F90E0A0E0B0E0821793078C
:1044B000A407B50708F4BECF9501A601B701C8014E
:1044C000A3EBAA2EF6EEBF2EEEE0CE2EDD24EE24D8
:1044D000FF2400E010E00E94163509C023EB36EE01
:1044E0004EE050E00E94D84202C020E030E0C90116
:1044F0001F910F91FF90EF90DF90CF90BF90AF9002
:104500009F908F900895EF92FF920F931F93DF93E8
:10451000CF93CDB7DEB728970FB6F894DEBF0FBEA6
:10452000CDBF7B018C01BAE016950795F794E7940F
:10453000BA95D1F7E982FA820B831C83737080707D
:10454000907023EB36EE4EE050E00E9492426D8375
:104550007E838F8398872E2D3A814B815C812896AC
:104560000FB6F894DEBF0FBECDBFCF91DF911F9184
:104570000F91FF90EF9008958F929F92AF92BF920C
:10458000CF92DF92EF92FF920F931F93FC01208155
:1045900031814281538164817581868197812115A2
:1045A00031054105510509F45BC05B016C01EE2446
:1045B000FF24870160E038C08A2CAB2DA653F1E0C0
:1045C000AB1508F0F0E08C2D865691E08C1508F0C4
:1045D00090E0F80F71E0F81708F070E0972B7D2D50
:1045E000755CE1E07D1508F0E0E0970F81E097173A
:1045F00008F080E08E2B8E0DE1E08E1508F0E0E0F3
:10460000EF0D71E0EF1508F070E0700FB1E070177A
:1046100008F0B0E0B10FA82CBA2ECF2ED92EE82E7C
:10462000FE2E072F1B2F6F5F862F90E0A0E0B0E0DB
:1046300082179307A407B50708F4BECF9501A6011A
:10464000B701C801E3EBAE2E06EEB02E1EE0C12E80
:10465000DD24EE24FF2400E010E00E94163506C0A1
:1046600023EB36EE4EE050E00E94D842B901CA0179
:104670001F910F91FF90EF90DF90CF90BF90AF9080
:104680009F908F9008951F9311E00E94E4180E945C
:10469000C027853110F410934B080E943229809175
:1046A000D906853519F088E00E94ED1780918805BC
:1046B000853559F388E00E94ED17E7CF2F923F929E
:1046C0004F925F926F927F928F929F92AF92BF9222
:1046D000CF92DF92EF92FF920F931F93DF93CF93CE
:1046E0000F92CDB7DEB70E94BF270E94C3130E946E
:1046F0003B270E9441272C018AEF0E94C32760912B
:10470000B40670E080E090E023EB36EE4EE050E03F
:104710000E9492427B018C01809152089091530833
:10472000A0915408B0915508E80EF91E0A1F1B1FEE
:10473000C801B7010E94D842E61AF70A080B190B04
:1047400080914E0890914F08A0915008B091510867
:1047500073EBA72E76EEB72E7EE0C72ED12C14C0B9
:1047600040E056E365E674ECE40EF51E061F171FE5
:10477000C801B701A60195010E94D842E61AF70ABE
:10478000080B190BD401C3013C014D010894611CB5
:10479000711C811C911C50E0E5165AECF5065AE993
:1047A00005075BE31507E0F680934E0890934F08EA
:1047B000A0935008B0935108E0925208F092530829
:1047C0000093540810935508E0915708F091580849
:1047D00085818823B9F081858430A1F0878182307A
:1047E00029F0882341F08681882311F485E001C0F7
:1047F00083E0818704C083E08187178216828085E9
:104800000E94D91DA0915708B091580819968C9113
:104810001997833009F053C091968C91919783300A
:1048200009F04DC018962C911897332727FD309525
:1048300086E290E0289FF001299FF00D389FF00D4F
:104840001124EA58F84F59968D919C915A9793A349
:1048500082A357968D919C9158974091B406BC01C4
:10486000641B710975A364A3ADB7BEB718970FB6E3
:10487000F894BEBF0FBEADBF6DB77EB76F5F7F4F01
:1048800048E752E012965C934E931197DB01139622
:104890003C932E93129722A133A115963C932E930D
:1048A000149717969C938E9316970E943645EDB7F2
:1048B000FEB738960FB6F894FEBF0FBEEDBF07E9FE
:1048C00017E058016AEAE62E62E0F62ED5018C91D7
:1048D000823009F443C0833009F040C013968D91B3
:1048E0009C9114972091B40630E08217930750F5FD
:1048F00011964D915C9112974115510519F112963F
:104900001C921E92119714961C921E92139700D01F
:1049100000D0EDB7FEB7F282E182E0915708F09146
:1049200058088085992787FD9095ADB7BEB7149636
:104930009C938E9313970E9436450F900F900F9083
:104940000F900CC0821B930BF5019483838321810C
:1049500032818217930710F49283818346E250E0FC
:10496000A40EB51E55E5A51658E0B50609F0AECF64
:10497000E0915708F0915808418D528D858D968DA4
:104980004817590709F087C081A1833009F083C017
:1049900080E090E06FE976E820E030E0D801EC902C
:1049A000BE2DB33051F4D8011396ED90FC901497BE
:1049B000E616F70610F4B701C9012F5F3F4F0A5DF5
:1049C0001F4F2530310551F7009709F464C0208549
:1049D000332727FD30952817390709F45CC026E2F4
:1049E00030E0829FB001839F700D929F700D112463
:1049F0008B010A58184FD8019296ED90FC9093972E
:104A00002091B40630E02E153F0558F4420F531F95
:104A1000528F418FD701A21BB30BF801B3A3A2A3FE
:104A20000EC06E0F7F1FDB0192962D913C919397E4
:104A3000240F351F328F218FF80113A212A200D04C
:104A400000D000D0ADB7BEB711962DEC32E0EDB777
:104A5000FEB73283218313969C938E93129726E29E
:104A600030E0829FF001839FF00D929FF00D1124A2
:104A7000EA58F84F82A193A115969C938E931497B0
:104A80000E9436454DB75EB74A5F5F4F0FB6F89448
:104A90005EBF0FBE4DBFE0915708F0915808458D9D
:104AA000568D4115510509F47DC06085662309F4D2
:104AB00079C07185743009F475C0218D328D809173
:104AC000B40690E02817390748F581A1833001F535
:104AD0007330F1F0838D948D908F878B528F418F3F
:104AE00000D000D08AEF92E0ADB7BEB712969C938B
:104AF0008E931197772767FD709514967C936E932C
:104B000013970E9436450F900F900F900F900AC098
:104B1000128E118E82E00E94AC1704C0281B390B44
:104B2000328F218FE0915708F09158080085218D30
:104B3000328D21153105B1F581A1813071F483E009
:104B4000602F0E94AC17E0915708F091580883E05D
:104B50008187802F0E94D91D25C0833019F581855A
:104B6000833001F100D000D024E133E0EDB7FEB78F
:104B700032832183802F992787FD909594838383A7
:104B80000E943645E0915708F0915808838D948D26
:104B9000908F878B858D968D928F818F0F900F9040
:104BA0000F900F905BE7252E57E0352E00E61AEEAA
:104BB00020E041E0642E712C3AEFE32EF12C92E0DC
:104BC000992E81E0A82EB12CC12CD12CD1011396A5
:104BD0008C9113978F3F09F4C4C01C92882309F469
:104BE00043C014968C9114978430F1F150964D91F6
:104BF0005C9151978091B40690E04817590738F0BE
:104C0000481B590B51965C934E93509703C0F1018A
:104C1000118A108AD10152964D915C915397481791
:104C2000590738F0481B590B53965C934E93529793
:104C300012C0F101668977898617970728F4681BE7
:104C4000790B738B628B07C00E94B142D1015396DE
:104C50009C938E935297F10182899389009721F456
:104C600086899789938B828BD10114968C911497A6
:104C7000833009F076C050968D919C9151970097A2
:104C800009F066C012968C9112978823A9F01196AC
:104C90008C911197882381F0D601C50100904708B7
:104CA00004C0880F991FAA1FBB1F0A94D2F7F101F5
:104CB00084879587A687B787D10112961C92129791
:104CC00011961C9211971C925A964D915C915B978C
:104CD00056968D919C91579758966D917C915997C6
:104CE00041305105D9F455967C936E9354971496A0
:104CF0009C92149752964D915C91539751965C9368
:104D00004E935097009721F45196FC92EE92509753
:104D1000822F29830E94371D29811AC0F101758BCA
:104D2000648BBA0161507040689FA001699F500D6B
:104D3000789F500D1124518B408B538B428B0097E1
:104D400011F4F18AE08AD1015B967C926E925A97B7
:104D5000F10180899189009721F08017910708F46B
:104D60008C012F5F46E250E0240E351E253009F0FD
:104D70002DCF0E94F31CE82E482F552747FD509554
:104D800026E230E0429FF001439FF00D529FF00D6C
:104D90001124EA58F84F828580935908F093490806
:104DA000E0934808EE20B9F0258D368D21153105A8
:104DB00051F0218D328D2A3F310528F4201731071B
:104DC00008F44BC00DC098010B3F110508F445C015
:104DD0002AEF30E042C00B3F110510F00AEF10E05F
:104DE00080934A08F0935808E09357080093B4065C
:104DF0000E94C627282F30E02F5F3F4F2017310732
:104E000040F00E94C627082F10E00E5F1F4F00934E
:104E1000B406EE2011F010924B08802F0E94C32799
:104E2000C2016EEE72E00E9452270E9487290E9402
:104E3000EB340F90CF91DF911F910F91FF90EF9086
:104E4000DF90CF90BF90AF909F908F907F906F90AA
:104E50005F904F903F902F9008958901C1CF00003F
:104E60000000000000000197D1F708951EBC0895CE
:104E700081E08EBD089580B5816080BD1DBC1CBCE5
:104E80000895DF93CF9300D0CDB7DEB78CB59DB535
:104E90009A83898329813A81C9010F900F90CF911C
:104EA000DF910895EF92FF920F931F93CF93DF93BB
:104EB000EC018FEFC937D80710F0C0E0D0E07E01D9
:104EC00000E010E080E090E0E60EF71E081F191FDA
:104ED00091E0E91690E0F90691E0090790E01907E2
:104EE00068F080E090E0AFEFBFEFE80EF91E0A1F18
:104EF0001B1F0E944127C817D907D8F30E944127DA
:104F00008E159F05D8F3DF91CF911F910F91FF90E0
:104F1000EF90089582BF089513BE87B78D7F87BF36
:104F200087B78E7F87BF08958BE083BF87B7836085
:104F300087BF089580B5826080BD12BE109264055F
:104F40001092B40608958EEF8093B40698E090BF57
:104F500081BF83E086BF8BE083BF80B5876080BD63
:104F60001FBC81E08EBD1DBC1CBC80B5816080BDB6
:104F70000E949A270E94942710926405089508952C
:104F800081B78F5F0895815081BF089582B70895DA
:104F90001F920F920FB60F920BB60F9211242F9300
:104FA0003F934F935F936F937F938F939F93AF93B1
:104FB000BF93EF93FF938AE060E00E94AC17FF91EC
:104FC000EF91BF91AF919F918F917F916F915F9181
:104FD0004F913F912F910F900BBE0F900FBE0F90EE
:104FE0001F9018950F920FB60F921F922F923F921B
:104FF0004F925F926F927F928F929F92AF92BF92E9
:10500000CF92DF92EF92FF920F931F932F933F93D4
:105010004F935F936F937F938F939F93AF93BF93C0
:10502000CF93DF93EF93FF93A0915708B091580867
:105030000DB60D920EB60D921F92A0918E06B091F4
:105040008F061E90BEBFADBF0895882319F487B7A1
:105050008F7787BF8FEF0895882319F414BC81E000
:1050600008958FEF0895882319F424B530E002C025
:1050700020E030E0C9010895882329F487B78068CB
:1050800087BF81E008958FEF0895882359F5CB01FC
:1050900001978530910510F46093B30688E085BDD3
:1050A00043BD30936204209361048091B306813044
:1050B00019F485B5816009C0823019F485B5826024
:1050C00004C0833029F485B5836085BD81E00895EF
:1050D000843019F485B58460F8CF853029F485B51E
:1050E0008560F3CF8FEF089581E008951F920F92AE
:1050F0000FB60F920BB60F9211242F933F934F933D
:105100005F936F937F938F939F93AF93BF93EF932F
:10511000FF93E0916104F0916204309711F00995DA
:1051200004C08AE060E00E94AC17FF91EF91BF914C
:10513000AF919F918F917F916F915F914F913F912F
:105140002F910F900BBE0F900FBE0F901F901895D0
:1051500004B603FC02C080E001C080E104B602FE98
:1051600006C094B79B7F94BF04B600FE846004B66B
:1051700001FE05C094B79D7F94BF82600895882387
:1051800059F404B600FE04C094B79E7F94BF01C0DA
:1051900081E093B79111816008958FEF08958FEFAB
:1051A00008958FEF08951F920F920FB60F920BB6CE
:1051B0000F9211242F933F934F935F936F937F939D
:1051C0008F939F93AF93BF93EF93FF938AE060E039
:1051D0000E94AC17FF91EF91BF91AF919F918F917A
:1051E0007F916F915F914F913F912F910F900BBEE7
:1051F0000F900FBE0F901F9018950E94C313A89593
:1052000084B7877F84BF81B5886181BD11BC0E944E
:10521000C51308950E94C31384B7877F84BFA895E0
:1052200081B5886181BD8FE081BD0E94C51308955D
:1052300004B603FC02C081E008958FEF0895A8959D
:1052400008950895FC0176836583089585B7837E6C
:10525000886185BF85B7806285BF889585B78F7D5A
:1052600085BF089585B7837E85BF85B7806285BF7A
:10527000889585B78F7D85BF089525E5FA01208340
:10528000FB013297908381831292129212921292B2
:1052900012921292129212921292129212921292EE
:1052A00012921292129212921292129212921292DE
:1052B00012921292129212921292129212921292CE
:1052C000129212921292129212921292CF01089599
:1052D000EF92FF920F931F93CF93DF93EC018B011B
:1052E0007A014032510518F481E10E94ED170894CB
:1052F000E108F108E00EF11EFA82E9821C830B83BB
:10530000DF91CF911F910F91FF90EF90089588EC5E
:1053100095E19093070680930806089585E58093AC
:10532000880587E096E090938F0680938E0688EC40
:1053300095E1909307068093080608950E94A3279D
:105340000E94C51308950E94F92908951F93DF93C1
:10535000CF930F92CDB7DEB7142F83708C62698321
:105360000E94642A6981613011F480E001C080E804
:105370000E942C2A812F0E942C2A0E94202A0F9002
:10538000CF91DF911F910895DF93CF9300D0CDB7D8
:10539000DEB780E487B986E086B9379A369A3699BF
:1053A000FECF84B195B19A8389830F900F90CF91EE
:1053B000DF9108953798089597B18F71907E892B6A
:1053C00087B9369A3699FECF24B135B1C90108950F
:1053D0008EE10E94DC29BC0180E090E00E94144034
:1053E0009B01AC0164EA70E78DE994E40E94803F80
:1053F0000895E1E7F0E08081808381E08093700090
:1054000084E08093740008958091740087FFFCCF3E
:105410000895E4E7F0E08081806880830895CF9369
:10542000DF93C4E7D0E08881806288830E94092AE4
:105430000E94042A88818F7D8883DF91CF9108950F
:10544000809174008061809374000E94092A809189
:10545000740084FDFCCF0895809373000E94092A94
:105460000E94042A80917100887F883241F09091D7
:105470007100987F81E0983119F480E0089580E010
:105480000895009721F080917400806403C080919A
:1054900074008F7B809374000E94092A0E94042A62
:1054A000809173000895DF93CF930F92CDB7DEB74D
:1054B00089830E940F2A8981880F81600E942C2A8B
:1054C0000F90CF91DF910895DF93CF930F92CDB7D7
:1054D000DEB789830E940F2A8981880F0E942C2AB7
:1054E0000F90CF91DF9108950E94C42981E08093AD
:1054F0005204089580915204882311F40E94742A62
:105500000E94DA290895DF93CF930F92CDB7DEB7CB
:1055100090915204992321F489830E94742A8981ED
:10552000A898A098813019F41D9A159A02C01D9868
:1055300015980F90CF91DF910895DF93CF930F923D
:10554000CDB7DEB790915204992321F489830E944C
:10555000742A89811D981598813019F4A89AA09A07
:1055600002C0A898A0980F90CF91DF9108958091E4
:105570005204882311F40E94742A81E00E94832A35
:1055800081E00E94DC29089580915204882311F45F
:105590000E94742A81E00E949D2A81E00E94DC29F9
:1055A0000895AF92BF92CF92DF92EF92FF920F9346
:1055B0001F930E94C42ABC0180E090E00E94144026
:1055C0008B017C0160E070EC8FE794E4202F312F99
:1055D0004E2D5F2D0E941B3F20E030E44CE156E44D
:1055E0000E94EB40202F312F4E2D5F2D0E94803FD7
:1055F0000E94AB407B018C0120E030E040E450E4AD
:105600000E944E41D62EC72EB82EA92EC801B70132
:1056100029E733EE4DE759E30E94EB4028EC32E6F0
:1056200044E85AE30E941C3F7B018C01A6019501CE
:10563000652F742F832F922F2DE234EC4CE154E32D
:105640000E94EB409B01AC01C801B7010E941C3FC6
:105650009B01AC0160E070E080E89FE30E94803F26
:105660001F910F91FF90EF90DF90CF90BF90AF9080
:1056700008950E94D12A23E333E948E853E40E94C5
:105680001B3F08950E94C4290E94A32981E08093B2
:105690005304089580915304882311F40E94422BEF
:1056A0000E94DA290895DF93CF930F92CDB7DEB72A
:1056B00090915304992321F489830E94422B89817C
:1056C000813011F4AC9A01C0AC980F90CF91DF916A
:1056D0000895DF93CF930F92CDB7DEB79091530427
:1056E000992321F489830E94422B8981813011F40E
:1056F000AD9A01C0AD980F90CF91DF9108951F939F
:10570000182F80915304882311F40E94422B80E0CB
:105710000E94932B113019F4A89AA09A02C0A8985D
:10572000A0981F9108951F93182F809153048823E8
:1057300011F40E94422B80E00E947F2B113019F45B
:105740001D9A159A02C01D9815981F910895DF9310
:10575000CF930F92CDB7DEB790915304992321F4E4
:1057600089830E94422B8981813011F4AA9A01C059
:10577000AA980F90CF91DF910895DF93CF930F9266
:10578000CDB7DEB790915304992321F489830E9409
:10579000422B8981813011F4AB9A01C0AB980F90F4
:1057A000CF91DF910895DF93CF930F92CDB7DEB7FE
:1057B000482F80915304882321F449830E94422B6F
:1057C000498180E061E00E94A6290F90CF91DF918E
:1057D0000895DF93CF930F92CDB7DEB7482F809116
:1057E0005304882321F449830E94422B498180E09D
:1057F00062E00E94A6290F90CF91DF910895DF9378
:10580000CF930F92CDB7DEB7482F809153048823F2
:1058100021F449830E94422B498181E061E00E948A
:10582000A6290F90CF91DF910895DF93CF930F9228
:10583000CDB7DEB790915304992321F489830E9458
:10584000422B8981882311F4AE9A03C0813009F478
:10585000AE980F90CF91DF910895809153048823E3
:1058600011F40E94422B81E00E94932B81E00E9460
:10587000DC29089580915304882311F40E94422B5F
:1058800081E00E947F2B81E00E94DC2908958091B5
:105890005304882311F40E94422B82E00E94DC29E9
:1058A000089580915304882311F40E94422B83E0D1
:1058B0000E94DC29089580915304882311F40E94EA
:1058C000422B84E00E94DC290895809153048823B0
:1058D00011F40E94422B85E00E94DC2908958091FA
:1058E0005304882311F40E94422B86E00E94DC2995
:1058F000089589E993E00197F1F700C0DC98D49A04
:1059000089E993E00197F1F700C0D498DC9ACC9B29
:10591000FECF80E007C091E39A95F1F700008F5F1A
:105920008F3149F0CC99F7CF89E993E00197F1F7EE
:1059300000C080E008958FEF0895882361F4DC981B
:10594000D49A84EC8A95F1F700C0D498DC9A81E36C
:105950008A95F1F70BC0DC98D49A88E18A95F1F723
:1059600000C0D498DC9A8DED8A95F1F70000089577
:10597000DC98D49A82E08A95F1F700C0D498DC9A3A
:1059800096E19A95F1F7000089B394EC9A95F1F7B6
:1059900000C090E08071907024E0959587952A95DD
:1059A000E1F70895FF920F931F93CF93DF93F82EA3
:1059B000C0E0D0E001E010E098010C2E02C0220F00
:1059C000331F0A94E2F78F2D82230E949D2C21968B
:1059D000C830D10589F7DF91CF911F910F91FF90CA
:1059E00008951F93CF93DF93C0E0D0E010E00E94B2
:1059F000B82C282F30E00C2E02C0220F331F0A943F
:105A0000E2F7122B2196C830D10589F7812FDF915B
:105A1000CF911F9108958FE00E94D22C089580B5F8
:105A20008B7F80BDD498DC9A86EF8A95F1F7089534
:105A3000EF92FF920F931F93DF93CF9300D000D08C
:105A4000CDB7DEB77C0119821A821B821C820E94AC
:105A5000792C882339F0282F332727FD3095432FC1
:105A6000532F27C00E940B2D0E94F12C813019F07A
:105A70008EEFF70180838E010F5F1F4F0E94F12C84
:105A800089830E94F12CF80181830E94F12CF80196
:105A900082830E94F12CF80183830E94F12C0E94E2
:105AA000F12C0E94F12CF701108229813A814B815F
:105AB0005C81B901CA010F900F900F900F90CF91A8
:105AC000DF911F910F91FF90EF900895AA989598FC
:105AD00087FF02C0939A01C09398959A959886FF84
