:100000000C94C9040C94FA280C94E8040C94E804A9
:100010000C94E8040C94E8040C94E8040C94E804B0
:100020000C94E8040C949D280C94E8040C94E804C7
:100030000C94E8040C94E8040C94E8040C9419283B
:100040000C9419280C94E8040C94E8040C94E8042B
:100050000C94E8040C94E8040C94E8040C94E80470
:100060000C94E8040C94E8040C94E8040C94E80460
:100070000C94E8040C94E8040C94E8040C94E80450
:100080000C94E8040C94E8040C94E8041C17221760
:10009000251728172B172E173417311737173A172C
:1000A0003D17461749174C174F17431719171F17B6
:1000B000521755174017161708000000BE92244922
:1000C000123EABAAAA2ABECDCCCC4C3E000000808A
:1000D000BEABAAAAAA3E00000000BF000000803FFD
:1000E0000000000000084178D3BB4387D1133D19BD
:1000F0000E3CC3BD4282AD2B3E68EC8276BED98FEA
:10010000E1A93E4C80EFFFBE01C4FF7F3F0000002D
:10011000000007634236B79BD8A71A39685618AE55
:10012000BAAB558C1D3CB7CC5763BD6DEDFD753E2C
:10013000F6177231BF000000803F554E4B4F574EAF
:100140000045787465726E616C2052657365740049
:1001500042726F776E204F757420446574656374C6
:10016000004661696C656420746F20637265617418
:10017000652053656D6170686F7265004661696CDA
:10018000656420746F2063726561746520536967CC
:100190006E616C004B65726E656C2066756E637483
:1001A000696F6E206E6F7420696D706C656D656E21
:1001B0007465640044657669636520447269766598
:1001C00072204572726F72005761746368646F6762
:1001D00020526573746172740053572057617463C1
:1001E00068646F6720526573746172740054696D3E
:1001F0006572204F766572666C6F7700556E686128
:100200006E646C656420496E7465727275707420DA
:10021000566563746F72004C6F7720566F6C746113
:100220006765004578747261205461736B20737444
:1002300061727465642C206973206E726B5F6366F3
:10024000672E68206F6B3F0049646C65206F7220D9
:100250004B65726E656C20537461636B204F7665DD
:1002600072666C6F7700556E65787065637465644F
:100270002052657374617274004475706C696361B7
:10028000746564205461736B20494400536368654E
:1002900064756C6572204D69737365642057616B7A
:1002A000657570005461736B205265736572766575
:1002B0002056696F6C61746564005265736572766F
:1002C00065204572726F7220696E205363686564A1
:1002D000756C657200496E76616C69642053746157
:1002E000636B20506F696E746572005461736B208C
:1002F000537461636B204F766572666C6F77005341
:100300007461636B20776173206E6F74206465661F
:10031000696E6564206173206C6172676520656E2B
:100320006F75676821005461736B20706572696F27
:100330006420746F6F206C617267652E2050657247
:10034000696F64206D757374206265206C657373CA
:10035000207468616E203631207365636F6E64733C
:100360002E00293A20002A4E524B204552524F521D
:1003700028000D0A535441434B2044554D500D0A5B
:10038000000A0D006E726B5F71756575653A20002D
:1003900008082A1C08081C2A080840444A51404002
:1003A000514A444014741C171410207F01010000AE
:1003B0000000000000000000081C2C08087F01015C
:1003C0000101010101017F7F404040404040404029
:1003D0007F0000000000000000000000000000009E
:1003E00079112711790000000000000000000000D2
:1003F000000000007F01010103605048447E3E4937
:1004000049493E700C030C706349494963017F01FF
:100410007F01635549414106017E010608557F551C
:10042000080F107F100F4E7101714E38444438444C
:10043000000000000000005F000003000300001443
:100440003E143E1426497F493262152A5423364908
:100450005620500003000000001C224100004122F1
:100460001C0000140E140008083E0808006000007C
:10047000000808080800004000000060100804039D
:100480003E4141413E04027F000062514945422203
:10049000414949360C0B087E084F494949313E49CC
:1004A0004949326111090503364949493626494906
:1004B000493E0022000000006100000008141422E0
:1004C00022141414141422221414080601590502CB
:1004D0003E415D555E7E0909097E7F494949363EA8
:1004E000414141227F4141413E7F494949417F0984
:1004F0000909013E414949327F0808087F00007F11
:100500000000204040403F7F081422417F4040408F
:10051000007F0204027F7F021C207F3E4141413E5A
:100520007F090909063E4151617E7F091929462646
:100530004949493201017F01013F4040403F1F20AE
:1005400040201F3F4030403F631408146303047889
:10055000040361514945437F410000000000000051
:1005600000000000417F060106000040404040407E
:10057000010200000020545454787F484848303825
:1005800044444428384444447F3854545418087E22
:100590000909010C5252523E7F04040478047D4044
:1005A0004020204040443D007F102844203E5149D7
:1005B000467C047C04787C0804047838444444383D
:1005C0007E1212120C0C1212127E047804040848D7
:1005D00054545424043F4444403C40403C401C207C
:1005E00040201C3C4030403C4428102844264848C9
:1005F000483E4464544C4400083E410000007F00E3
:100600000000413E08000000000000000000000063
:1006100000000000000000000000000000000020BA
:10062000483E090200000000000000000000040431
:100630007F04040000000000000000000000000033
:1006400000000000000000000000000000000000AA
:10065000000000000000000000000000000000009A
:100660000000000000000000000000000000000288
:100670000401020000000000000018180000000043
:10068000000000000000000000000000000000006A
:10069000000000000000000000000000000000005A
:1006A000000000000000000000000000000000004A
:1006B0000000000000000079000000000000004879
:1006C0007E494942000000000015167C1615000006
:1006D0000000000A5555552800010001003E635DE9
:1006E0006B3E000000000008142A142200000000E5
:1006F0000000000000003E41754B3E010101010178
:1007000000020502000000000000000000000000E0
:100710000000000000000000000000000000060FC4
:100720007F017F00000000000000000000000000CA
:100730000000070507000022142A14080F003C20BF
:10074000780F004864580000000000304845402001
:100750000000000000000000000000000000007227
:1007600029292A717825242578702A252A707E095E
:100770007F49490E5151711100000000007C545610
:1007800055440000000000000000000000000000D0
:100790000000000000000000000000000000000059
:1007A00000000000007A091122790000000000001A
:1007B0000000000000000000003A454546393D4277
:1007C00042423D22140814225C322A261D000000F9
:1007D0000000000000000000000000003C4140411B
:1007E0003C000000000000000000000000000000CD
:1007F0002055565478205456557820565556782210
:100800005155567920555455780000000000245465
:100810007854580C5252721238555654183854564F
:1008200055183856555618385554551800497A40B9
:100830000000487A4100004A794200004A784200AC
:1008400000000000007A11090A7130494A4830302E
:10085000484A4930304A494A303249494A31304A97
:10086000484A3008082A080818643C2618384142CB
:10087000207838404221783842412278384240225C
:1008800078000000000000000000000C5150513CB6
:100890006E616E00696E660000407A10F35A00A027
:1008A000724E18090010A5D4E80000E87648170039
:1008B00000E40B54020000CA9A3B000000E1F50579
:1008C000000080969800000040420F000000A086C3
:1008D00001000000102700000000E80300000000F5
:1008E0006400000000000A00000000000100000099
:1008F00000002C76D888DC674F0823DFC1DFAE59B3
:10090000E1B1B796E5E3E453C63AE651997696E845
:10091000E6C28426EB898C9B62ED407C6FFCEFBCC9
:100920009C9F40F2BAA56FA5F490055A2AF75C93F4
:100930006B6CF9676DC11BFCE0E40D47FEF520E62A
:10094000B500D0ED902E0300943577050080841E0D
:10095000080000204E0A000000C80C333333330F68
:10096000986E12831141EF8D2114893BE65516CF05
:10097000FEE6DB18D1844B381BF77C1D901DA4BB11
:10098000E424203284725E228100C9F124ECA1E5C6
:100990003D2711241FBECFEFD0E1DEBFCDBF13E056
:1009A000A0E0B1E0EAE8FFE800E00BBF02C007907A
:1009B0000D92A03DB107D9F718E0A0EDB3E001C05A
:1009C0001D92AE30B107E1F70E9483060C94C34735
:1009D0000C94EF272F923F924F925F926F927F92EB
:1009E0008F929F92AF92BF92CF92DF92EF92FF923F
:1009F0000F931F93CF93DF93E091D507F091D60724
:100A00002085332727FD309570E0872E71E0972EE3
:100A100063E0A62EB12C50E2252E51E0352E40E3A6
:100A2000C42E45E7D42EE12CF12C86E290E0289FDD
:100A30008001299F100D389F100D1124035F184F5E
:100A400095E4692E91E0792E8BE6482E81E0582EB0
:100A500000D000D0ADB7BEB712969C928E9211977F
:100A60001496BC92AE9213970E945D4500D0EDB7EC
:100A7000FEB732822182ADB7BEB71396CD92DD921A
:100A8000ED92FC9216970E945D45EDB7FEB7369643
:100A90000FB6F894FEBF0FBEEDBFC0E0D0E0CE01B0
:100AA00060ED77E00E94EC42009771F500D000D035
:100AB000E3E3F1E0ADB7BEB71296FC93EE93119766
:100AC000D8018D919C91EDB7FEB7948383830E94EA
:100AD0005D4500D000D0EDB7FEB73196ADB7BEB7DB
:100AE00012967C926E921197D383C283C482D58270
:100AF000E682F7820E945D45EDB7FEB738960FB6E5
:100B0000F894FEBF0FBEEDBF2196F5E7C133DF07B6
:100B100031F600D000D0ADB7BEB712965C924E92BF
:100B200011971496BC92AE9213970E945D450F9058
:100B30000F900F900F900E94DF1F8ACF2F923F924D
:100B40004F925F926F927F928F929F92AF92BF92DD
:100B5000CF92DF92EF92FF920F931F93CF93DF9389
:100B6000E091D507F091D6072085332727FD3095F2
:100B700000E0802E01E0902E11E0A12EB12CB0E219
:100B80002B2EB1E03B2EA0E3CA2EA5E7DA2EE12CF6
:100B9000F12C86E290E0289F8001299F100D389F5C
:100BA000100D1124035F184FF5E46F2EF1E07F2E36
:100BB000EBE64E2EE1E05E2E00D000D0ADB7BEB722
:100BC00012969C928E9211971496BC92AE921397A5
:100BD0000E945D4500D0EDB7FEB732822182ADB7ED
:100BE000BEB71396CD92DD92ED92FC9216970E94BD
:100BF0005D45EDB7FEB736960FB6F894FEBF0FBE53
:100C0000EDBFC0E0D0E0CE0160ED77E00E94EC42A5
:100C1000009771F500D000D0E3E3F1E0ADB7BEB7C7
:100C20001296FC93EE931197D8018D919C91EDB79C
:100C3000FEB7948383830E945D4500D000D0EDB75A
:100C4000FEB73196ADB7BEB712967C926E921197F1
:100C5000D383C283C482D582E682F7820E945D4537
:100C6000EDB7FEB738960FB6F894FEBF0FBEEDBFD6
:100C70002196F5E7C133DF0731F600D000D0ADB7DC
:100C8000BEB712965C924E9211971496BC92AE9299
:100C900013970E945D450F900F900F900F900E9448
:100CA000DF1F8ACFEF92FF920F931F93CF93DF93B3
:100CB00080E0E82E81E0F82EC2E0D0E00BE611E003
:100CC00000D000D0EDB7FEB7F282E182D483C383B7
:100CD0000E945D450F900F900F900F908AE891E071
:100CE0000E946F4500D000D0EDB7FEB7128301839C
:100CF000D483C3830E945D450F900F900F900F9097
:100D00000E94DF1FDDCF0F931F93CF93DF930E94CD
:100D10008C1287E090E00E94DB120E94CA1360E010
:100D200070E0CB0120E030E0A9010E94E321809136
:100D30008A0590918B050E947820E0918A05F091B8
:100D40008B0564817581868197810E94AB4311E098
:100D500010933B0610933C0603E000933D0610936E
:100D60003E0680919A0190919B01A0919C01B091C7
:100D70009D0180933F0690934006A0934106B09357
:100D800042061092430610924406109245061092B5
:100D9000460680919E0190919F01A091A001B09183
:100DA000A1018093470690934806A0934906B0930B
:100DB0004A0610924B0610924C0610924D06109265
:100DC0004E0610924F061092500610925106109245
:100DD0005206109253061092540610925506109225
:100DE0005606C4E3D6E0CE016EE975E00E944929BB
:100DF000CE0161EE73E040E850E00E948F29CE0101
:100E00000E94291E1093EA0482E08093EB04109361
:100E1000EC041093ED048091A2019091A301A091A4
:100E2000A401B091A5018093EE049093EF04A093E8
:100E3000F004B093F1041092F2041092F3041092B3
:100E4000F4041092F5048091A6019091A701A0915D
:100E5000A801B091A9018093F6049093F704A093A0
:100E6000F804B093F9041092FA041092FB04109263
:100E7000FC041092FD041092FE041092FF041092E4
:100E800000051092010510920205109203051092C0
:100E9000040510920505C3EED4E0CE0162E576E0CC
:100EA0000E944929CE016CE875E040E850E00E94BC
:100EB0008F29CE010E94291E109315060093160655
:100EC00000931706109318068091AA019091AB0128
:100ED000A091AC01B091AD018093190690931A06D0
:100EE000A0931B06B0931C0610921D0610921E06BE
:100EF00010921F06109220068091AE019091AF01D2
:100F0000A091B001B091B101809321069093220687
:100F1000A0932306B093240610922506109226066D
:100F200010922706109228061092290610922A067F
:100F300010922B0610922C0610922D0610922E065F
:100F400010922F0610923006CEE0D6E0CE016AEE67
:100F500074E00E944929CE0162E674E040E850E066
:100F60000E948F29CE010E94291E0E94901480E0C9
:100F700090E0DF91CF911F910F91089590E09C0137
:100F80002B503040220F331F220F331F865A9E4BA7
:100F9000820F931FF894C09828E12FB9779BFECF5A
:100FA0009FB9779BFECF8FB9779BFECFC09A78947D
:100FB0000895F894C0981FB8779BFECF8FB1C09A60
:100FC000789486FFF6CF08958091CC010E94BE10E0
:100FD0008091CB010E94041108958091CC010E9460
:100FE000BE108091CB010E94BE100895F894C09865
:100FF00087E08FB9779BFECFC09AC09886E08FB903
:10100000779BFECFC09A78940895F894C09881E0B9
:101010008FB9779BFECFC09A88EE93E00E94562747
:10102000789408958091EC060895FC01C09889ECAD
:101030008FB9779BFECF80E88FB9779BFECF82E098
:101040008150DF01A80FB11D9C919FB9779BFECF06
:101050008823B1F7C09AC0988BEC8FB9779BFECFED
:1010600080E88FB9779BFECF82E08150DF01A80F27
:10107000B11D12969C9112979FB9779BFECF882342
:10108000A1F7C09A80818093ED0681818093EE065E
:1010900082818093EF0683818093F00608958F927A
:1010A0009F92AF92BF92CF92DF92EF92FF920F93F7
:1010B0001F93DF93CF9300D000D0CDB7DEB7E82EDB
:1010C000092F84E690E00E945627F02E20E031E0C0
:1010D0008E010F5F1F4FF3E0CF2ED12CCC0EDD1E03
:1010E000F70191907F018824808190E088299929D7
:1010F0009A83898384E690E02B833C830E94562761
:10110000C0982B813C81822F80688FB9779BFECF5E
:10111000C90195958795807C8FB9779BFECF580143
:10112000F80181918FB9779BFECFEC15FD05C9F7CA
:10113000C09A2E5F3F4FF1E020313F0789F684E6E9
:1011400090E00E94562720E431E080E191E01A828D
:101150001982C098422F40684FB9779BFECFA901F2
:1011600055954795407C4FB9779BFECFF80141914B
:101170004FB9779BFECFEC15FD05C9F7C09AC09813
:10118000482F40684FB9779BFECFAC0155954795E6
:10119000407C4FB9779BFECFF80141914FB9779BC7
:1011A000FECFEC15FD05C9F7C09A02962E5F3F4FA2
:1011B00041E08E31940759F681E090E09A8389836B
:1011C000C0988EEC8FB9779BFECF80E88FB9779B64
:1011D000FECFC8010296F80121912FB9779BFECF6F
:1011E000E817F907C9F7C09AC0988EE98FB9779BBD
:1011F000FECF80E88FB9779BFECF0E5F1F4FF501C2
:1012000081915F018FB9779BFECFA016B106B9F728
:10121000C09A0F900F900F900F90CF91DF911F9178
:101220000F91FF90EF90DF90CF90BF90AF909F9085
:101230008F900895C09889E18FB9779BFECF83E0A6
:101240008FB9779BFECF86E08FB9779BFECFC09A90
:10125000C0988AE18FB9779BFECF8EE08FB9779BDC
:10126000FECF8EE08FB9779BFECFC09A81E080934E
:10127000DD060895C09889E18FB9779BFECF81E0A4
:101280008FB9779BFECF84EC8FB9779BFECFC09A46
:101290001092DD0608958091DB069091DC0608959A
:1012A00090E08F719070806E906AC09825E12FB9A0
:1012B000779BFECF9FB9779BFECF8FB9779BFECFF1
:1012C000C09A08950E94BE0708958091DE0690910D
:1012D000DF0698609093DF068093DE06C09881E178
:1012E0008FB9779BFECF8091DF068FB9779BFECFBA
:1012F0008091DE068FB9779BFECFC09A08958091CA
:10130000DE069091DF06977F9093DF068093DE06DE
:10131000C09881E18FB9779BFECF8091DF068FB9AE
:10132000779BFECF8091DE068FB9779BFECFC09A68
:10133000089581E08093EB068091DE069091DF06B0
:1013400080619093DF068093DE06C09881E18FB9BB
:10135000779BFECF8091DF068FB9779BFECF809180
:10136000DE068FB9779BFECFC09A08951092EB06E8
:101370008091DE069091DF068F7E9093DF0680934A
:10138000DE06C09881E18FB9779BFECF8091DF06A2
:101390008FB9779BFECF8091DE068FB9779BFECF0A
:1013A000C09A0895DF93CF9300D0CDB7DEB79A836C
:1013B00089839093E7068093E60684EF91E00E948C
:1013C0005627C0988AEE8FB9779BFECF80E88FB9F9
:1013D000779BFECFFE013196CE01039621912FB966
:1013E000779BFECFE817F907C9F7C09A84EF91E021
:1013F0000E9456270F900F90CF91DF910895CF93C1
:10140000DF93EC01862FC09898E09FB9779BFECFC1
:10141000C09AC09898E09FB9779BFECFC09A0E946F
:10142000BE07D093E106C093E006DF91CF91089507
:10143000DF92EF92FF920F931F93DF93CF9300D031
:10144000CDB7DEB78C01D62E5A8349837901DD9A58
:1014500088EE93E00E941B13DE9881E090E00E94EA
:101460001B13DE9A84E690E00E941B13F894C09848
:1014700081E08FB9779BFECFC09A82EE92E0909385
:10148000DF068093DE06C09881E18FB9779BFECF9F
:101490008091DF068FB9779BFECF8091DE068FB9F2
:1014A000779BFECFC09AC09882E18FB9779BFECF21
:1014B00085E08FB9779BFECF1FB8779BFECFC09A90
:1014C000C0988CE18FB9779BFECF1FB8779BFECF7A
:1014D0008FE78FB9779BFECFC09AC09889E18FB90B
:1014E000779BFECF81E08FB9779BFECF84EC8FB9DD
:1014F000779BFECFC09AC09887E18FB9779BFECFCC
:101500008AE18FB9779BFECF86E58FB9779BFECFB7
:10151000C09A84EF91E00E945627C09888EE8FB958
:10152000779BFECF80E88FB9779BFECFFE01319687
:10153000CE01039621912FB9779BFECFE817F907CB
:10154000C9F7C09A84EF91E00E94562778948D2DB8
:101550000E94BE0778941093E1060093E00689810B
:101560009A819093E5068093E406F092E706E09274
:10157000E6061092E2061092E8060E94D907109241
:10158000EB061092DD061092EC060F900F90CF91B3
:10159000DF911F910F91FF90EF90DF90089581E010
:1015A0008093E806C09883E08FB9779BFECFC09AFE
:1015B000C09888E08FB9779BFECFC09A1092F10651
:1015C000089581E08093E806C09883E08FB9779B07
:1015D000FECFC09AC09888E08FB9779BFECFC09AA3
:1015E0001092F10608951092E806C09886E08FB92F
:1015F000779BFECFC09A1092F1060895BF92CF92CA
:10160000DF92EF92FF920F931F93DF93CF9300D05F
:101610000F92CDB7DEB78C016B017A010E94ED27E6
:10162000C09888E08FB9779BFECFC09AC09888E0B9
:101630008FB9779BFECFC09A0E99FECF8499FCCFCD
:10164000F894C09889E08FB9779BFECFC09AC09874
:1016500089E08FB9779BFECFC09AD80112965C9132
:101660001297252F332727FD3095BB2440E00AC071
:10167000D8011396ED91FC911497E80FF91F808122
:10168000B80E4F5F842F90E0821793078CF3545F5E
:10169000C0988EE38FB9779BFECF5FB9779BFECF63
:1016A000C09AF8018681882319F081E698E802C083
:1016B00081E498E89A838983C0988EE38FB9779BF9
:1016C000FECFFE013196CE01039621912FB9779B73
:1016D000FECFE817F907C9F7C09AC0988EE38FB913
:1016E000779BFECF8091E2068FB9779BFECFC09AA1
:1016F000C0988EE38FB9779BFECF80E090E0FC012D
:10170000E052F94F24812FB9779BFECF01968230AA
:101710009105A9F7C09AC0988EE38FB9779BFECF49
:1017200080E090E0F801E80FF91F20812FB9779B46
:10173000FECF019682309105A9F7C09AC0988EE33A
:101740008FB9779BFECF80E090E0FC01E052F94F2B
:1017500026812FB9779BFECF019682309105A9F79C
:10176000C09AC601B7010E947927D80115968C91BD
:1017700015978823A9F18091E806882331F4C09851
:1017800083E08FB9779BFECFC09AC0981FB8779B34
:10179000FECF8FB1C09A81FFF8CF20E0A5E0EA2EFE
:1017A000C098EFB8779BFECFC09AC0981FB8779BC0
:1017B000FECFCFB0C09A2F5F253649F47894809140
:1017C000DB069091DC060E946F1B80E060C084E61F
:1017D00090E02B830E941B132B81C3FEE1CF06C038
:1017E000C09884E08FB9779BFECFC09AC0988EE3F3
:1017F0008FB9779BFECF40E00CC0D8011396ED91D6
:10180000FC911497E80FF91F80818FB9779BFECF69
:101810004F5F842F90E0F8012281332727FD309518
:101820008217930754F3C09AC0988EE38FB9779BC1
:10183000FECFBFB8779BFECFC09A849BFECFF894B3
:101840008499FECFC09888E08FB9779BFECFC09A6D
:10185000C09888E08FB9779BFECFC09AC09889E086
:101860008FB9779BFECFC09AC09889E08FB9779BDC
:10187000FECFC09AC09886E08FB9779BFECFC09A02
:1018800078948091E2068F5F8093E20681E00F906A
:101890000F900F90CF91DF911F910F91FF90EF90DC
:1018A000DF90CF90BF900895FF920F931F93DF9327
:1018B000CF9300D0CDB7DEB7FC018091DD06882341
:1018C00031F0C0988DE08FB9779BFECFC09A3281FE
:1018D000432F552747FD509520E060E007C0A381C6
:1018E000B481A80FB91F8C91280F6F5F862F90E0ED
:1018F00084179507A4F3832F845F9091DD069111DF
:101900008C5FC09898E09FB9779BFECFC09AC09833
:1019100098E09FB9779BFECFC09A0E99FECF84992D
:10192000FCCFF894C09899E09FB9779BFECFC09AFE
:10193000C09899E09FB9779BFECFC09AC0989EE36C
:101940009FB9779BFECF8FB9779BFECFC09A81E47A
:1019500098E89A8389838091EB06882321F081E6B9
:1019600098E89A8389838091DD06882329F089810C
:101970009A8188609A838983C0988EE38FB9779B18
:10198000FECFDE011196CE0103963D913FB9779BC4
:10199000FECFA817B907C9F7C09AC0988EE38FB9D0
:1019A000779BFECF8091E2068FB9779BFECFC09ADE
:1019B000C0988EE38FB9779BFECF80E090E0DC018A
:1019C000A052B94F14963C9114973FB9779BFECF24
:1019D00001968230910599F7C09AC0988EE38FB92D
:1019E000779BFECF80E090E0DF01A80FB91F3C910C
:1019F0003FB9779BFECF019682309105A9F7C09A37
:101A0000C0988EE38FB9779BFECF80E090E0DC0139
:101A1000A052B94F16963C9116973FB9779BFECFCF
:101A200001968230910599F7C09A8091DD0688234E
:101A300081F0C0988EE38FB9779BFECFADEEB6E014
:101A40008D918FB9779BFECF86E0A13FB807C1F794
:101A5000C09AC0988EE38FB9779BFECF30E009C063
:101A6000A381B481A80FB91F8C918FB9779BFECF4A
:101A70003F5F832F90E04281552747FD50958417A3
:101A8000950774F3C09AC0988EE38FB9779BFECF09
:101A90002FB9779BFECFC09A8581882391F18091E1
:101AA000E806882331F4C09883E08FB9779BFECF96
:101AB000C09AC0981FB8779BFECF8FB1C09A81FFA4
:101AC000F8CF10E005E0C0980FB9779BFECFC09A21
:101AD000C0981FB8779BFECFFFB0C09A1F5F153626
:101AE00049F478948091DB069091DC060E946F1B8C
:101AF00080E043C084E690E00E941B13F3FEE3CF36
:101B000006C0C09884E08FB9779BFECFC09A7894C6
:101B1000849BFECF8499FECF8091EB068823F9F059
:101B200084EA92E00E941B13B79B0BC0C0988FE71A
:101B30008FB9779BFECF1FB8779BFECF8FB1C09A2E
:101B40000EC0C09888E08FB9779BFECFC09AC0982E
:101B500088E08FB9779BFECFC09A80E001C081E01A
:101B6000F894C09896E09FB9779BFECFC09A78947E
:101B70009091E2069F5F9093E2060F900F90CF91B5
:101B8000DF911F910F91FF90089581E0849B80E089
:101B9000089581E00E9B80E0089581E0849B80E0C1
:101BA0000895DF93CF9300D000D0CDB7DEB70E9B62
:101BB000C7C11092EC060E9B1AC0B79918C0C09806
:101BC0008FE78FB9779BFECF1FB8779BFECF8FB182
:101BD000C09AC09888E08FB9779BFECFC09AC09812
:101BE00088E08FB9779BFECFC09A8FEFAAC1C098CB
:101BF0008FE78FB9779BFECF1FB8779BFECF4FB192
:101C0000C09A4F77C1F4C0988FE78FB9779BFECF0A
:101C10001FB8779BFECF8FB1C09AC09888E08FB96C
:101C2000779BFECFC09AC09888E08FB9779BFECF94
:101C3000C09A8EEF86C14C3084F0E091E006F091BE
:101C4000E106842F992787FD90950B9724813327F0
:101C500027FD3095281739077CF5C0988FE78FB995
:101C6000779BFECF50E0842F992787FD909504C085
:101C70001FB8779BFECF5F5F252F30E0281739070D
:101C800014F4B799F5CFC09AC0988FE78FB9779BB6
:101C9000FECF1FB8779BFECF8FB1C09AC09888E067
:101CA0008FB9779BFECFC09AC09888E08FB9779B99
:101CB000FECFC09A8DEF45C1E091E006F091E106BC
:101CC0004C504383C0988FE78FB9779BFECFFE01BE
:101CD0003196CE0103961FB8779BFECF2FB121938B
:101CE000E817F907C1F7C09AE091E006F091E10624
:101CF000998181E095FF80E08783C0988FE78FB955
:101D0000779BFECF1FB8779BFECFE091E006F09166
:101D1000E1068FB18083C09AC0988FE78FB9779B17
:101D2000FECF84E005C01FB8779BFECF815011F035
:101D3000B799F9CFC09AC0988FE78FB9779BFECF3C
:101D400080E090E01FB8779BFECFE091E006F09135
:101D5000E1062FB1E80FF91F21830196823091052A
:101D600089F7C09A898183FF4DC0C0988FE78FB9EA
:101D7000779BFECFE7EDF6E01FB8779BFECF8FB1E4
:101D8000819386E0EB3DF807B9F7C09AC09889E9DE
:101D90008FB9779BFECF80E88FB9779BFECF82E02B
:101DA0008150E82FF0E0E952F94F90819FB9779B7D
:101DB000FECF8823A9F7C09AC0988BE98FB9779B8B
:101DC000FECF80E88FB9779BFECF82E08150E82F6D
:101DD000F0E0E752F94F90819FB9779BFECF8823BF
:101DE000A9F7C09AC0988CE08FB9779BFECFC09AB4
:101DF00081E08093EC06E091E006F091E1068381BA
:101E000084508383C0988FE78FB9779BFECF40E0E3
:101E10000FC01FB8779BFECFE091E006F091E1067E
:101E20008FB10580F681E02DE40FF11D80834F5FB7
:101E3000E091E006F091E106242F30E083819927BC
:101E400087FD90952817390724F3C09AC0988FE72B
:101E50008FB9779BFECF1FB8779BFECF6FB1C09A2B
:101E6000C0988FE78FB9779BFECFFE013396CE01E6
:101E700005961FB8779BFECF2FB12193E817F9077E
:101E8000C1F7C09AE091E006F091E1068B8180876E
:101E900050E040E00CC0E091E006F091E1060580E2
:101EA000F681E02DE80FF91F8081480F5F5FE09118
:101EB000E006F091E106852F90E02381332727FD8E
:101EC0003095821793073CF34617C1F0C0988FE70F
:101ED0008FB9779BFECF1FB8779BFECF8FB1C09A8B
:101EE000C09888E08FB9779BFECFC09AC09888E0F1
:101EF0008FB9779BFECFC09A8CEF23C08C8187FF70
:101F000007C08091F1068F5F8093F10681E019C0D0
:101F1000C0988FE78FB9779BFECF1FB8779BFECF16
:101F20008FB1C09AC09888E08FB9779BFECFC09AD6
:101F3000C09888E08FB9779BFECFC09A8BEF01C025
:101F400080E00F900F900F900F90CF91DF91089548
:101F50008091F106882329F08091F1061092F10614
:101F6000089580E00895C09888E08FB9779BFECFF0
:101F7000C09AC09888E08FB9779BFECFC09A089529
:101F8000992787FD9095982F88278068C09823E12E
:101F90002FB9779BFECF9FB9779BFECF8FB9779BE9
:101FA000FECFC09A0895C09886E08FB9779BFECF88
:101FB000C09AC09882E18FB9779BFECF85E08FB938
:101FC000779BFECF88E08FB9779BFECFC09AC098F1
:101FD0008EE28FB9779BFECF88E18FB9779BFECFDA
:101FE0001FB8779BFECFC09A0E94B30F0895C09888
:101FF00086E08FB9779BFECFC09AC09882E18FB9F7
:10200000779BFECF85E08FB9779BFECF1FB8779B7C
:10201000FECFC09AC0988EE28FB9779BFECF1FB8D3
:10202000779BFECF1FB8779BFECFC09A0E94B30F5D
:102030000895C09886E08FB9779BFECFC09AC0986C
:1020400082E18FB9779BFECF85E08FB9779BFECF7A
:1020500081E08FB9779BFECFC09A0E94B30F08959D
:10206000C09882E18FB9779BFECF85E08FB9779BCF
:10207000FECF84E08FB9779BFECFC09A0E94B30F4A
:10208000089590E08F7090702091DE063091DF0609
:10209000207F822B932B9093DF068093DE06C098DF
:1020A00081E18FB9779BFECF8091DF068FB9779B57
:1020B000FECF8091DE068FB9779BFECFC09A089540
:1020C00090E026E0880F991F2A95E1F79070209103
:1020D000DE063091DF062F73822B932B9093DF0661
:1020E0008093DE06C09881E18FB9779BFECF809107
:1020F000DF068FB9779BFECF8091DE068FB9779B85
:10210000FECFC09A0895C09884E08FB9779BFECF28
:10211000C09A0895C09886E08FB9779BFECFC09A89
:1021200008955F9BFECF5F988CB108955D9BFECFB5
:102130005D988CB908958FEF0895882311F48BB1C1
:1021400004C0813031F480919B00881F8827881F4C
:10215000089580E00895CF93DF93EC0107C060916C
:1021600006087091070890E00E943145FE01219613
:1021700084918823A1F7DF91CF9108958F3F09F4CF
:102180003FC0982F96959695969521E030E002C035
:10219000220F331F9A95E2F790E08770907082309B
:1021A0009105D9F08330910534F4009771F08130B6
:1021B000910541F50EC084309105C1F08430910540
:1021C0008CF085309105F1F415C08BB3822B8BBB5D
:1021D00007C088B3822B88BB03C085B3822B85BB25
:1021E00081E0089582B3822B82BBFACF83B1822B28
:1021F00083B9F6CF80916200822B80936200F0CF8A
:102200008FEF08958FEF08958F3F09F440C0982F06
:1022100096959695969521E030E002C0220F331FE7
:102220009A95E2F7209590E0877090708230910542
:10223000D9F08330910534F4009771F08130910525
:1022400041F50EC084309105C1F0843091058CF0C9
:1022500085309105F1F415C08BB382238BBB07C089
:1022600088B3822388BB03C085B3822385BB81E00A
:10227000089582B3822382BBFACF83B1822383B9CC
:10228000F6CF80916200822380936200F0CF8FEFBF
:1022900008958FEF08958F3F89F1282F30E0277040
:1022A000307022303105C1F0233031053CF4211566
:1022B000310571F02130310509F50CC024303105AC
:1022C00079F02430310554F025303105B9F40AC0D5
:1022D00029B309C026B307C023B305C020B303C088
:1022E00021B101C020B130E086958695869502C067
:1022F000359527958A95E2F7217001C02FEF822F3F
:102300000895882319F080B58B7F02C080B5846062
:1023100080BD81E008958F3F09F43FC0982F9695C6
:102320009695969521E030E002C0220F331F9A95D2
:10233000E2F790E08770907082309105D9F0833099
:10234000910534F4009771F08130910541F50EC08C
:1023500084309105C1F0843091058CF08530910571
:10236000F1F415C08BB382278BBB07C088B38227DB
:1023700088BB03C085B3822785BB81E0089582B303
:10238000822782BBFACF83B1822783B9F6CF8091AF
:102390006200822780936200F0CF8FEF08958FEF65
:1023A00008958F3F09F48CC0982F96959695969531
:1023B00021E030E002C0220F331F9A95E2F790E04F
:1023C000662309F04AC0322F3095877090708230B2
:1023D000910519F1833091053CF4009781F081302B
:1023E000910509F06DC012C08430910521F184304F
:1023F0009105D4F08530910509F062C023C08AB3FD
:1024000083238ABB8BB3822B8BBB58C087B38323B8
:1024100087BB88B3822B88BB51C084B3832384BB22
:1024200085B3822B85BB4AC081B3832381BB82B332
:10243000822B82BB43C082B1832382B983B1822BBA
:1024400083B93CC0809161008323809361008091B7
:102450006200822B8093620031C08770907082305E
:102460009105D9F08330910534F4009771F08130F3
:10247000910541F50EC084309105B9F08430910585
:1024800084F085309105F1F414C08AB3822B8ABBA5
:1024900015C087B3822B87BB11C084B3822B84BB4A
:1024A0000DC081B3822B81BB09C082B1822B82B95E
:1024B00005C080916100822B8093610081E00895C6
:1024C0008FEF08958FEF08958FEF0895009711F41F
:1024D00080E009C08130910511F488E004C08230A9
:1024E000910529F480E10E948B1181E008958FEF1E
:1024F0000895009711F480E009C08130910511F42E
:1025000088E004C08230910529F480E10E94BE1069
:1025100081E008958FEF089580B5846080BD87E0E5
:1025200087BB88BB8FEF84BB15BA82E082B987E690
:102530008ABB80E48BBB80E58DB981E08EB980E0F9
:1025400090E00E94791281E090E00E94791282E08E
:1025500090E00E94791283E090E00E947912089541
:10256000009711F480E009C08130910511F488E0F2
:1025700004C08230910529F480E10E94041181E0B9
:1025800008958FEF089590919B0095FFFCCF909157
:102590009B009F7D90939B0080939C000895909357
:1025A000900089B986E0809395005298599A8AB133
:1025B00088618AB908950F931F93CF93DF930E9488
:1025C000CF12C6E9D0E101E910E1CE01B8010E94C5
:1025D000A4449093070880930608CE01B8010E9496
:1025E000A4449093050880930408DF91CF911F9134
:1025F0000F910895909398008093990086E08093BE
:102600009D00EAE9F0E080818B7F8083ABE9B0E058
:102610008C9182608C938081886180830895809101
:102620009B0087FFFCCF80919B008F7780939B005E
:1026300080919C00089500000000000000000197B8
:10264000D1F708950E94344608950E943C4680E0E8
:102650000895EF92FF920F931F93CF93DF93E82E8D
:10266000E7017E01F92EE70180E090E00E94344608
:10267000082F8B8381E090E00E943446E82E8A8305
:1026800082E090E00E943446F82E898383E090E057
:102690000E943446182F888384E090E00E943446DC
:1026A000FE0CF00EF10E8F1511F481E001C08FEFDA
:1026B000DF91CF911F910F91FF90EF900895CF93ED
:1026C000DF93EC0185E090E00E943446888381E04E
:1026D000DF91CF910895FC0186E090E060810E9437
:1026E0003C4681E00895CF93DF93EC0186E090E0D3
:1026F0000E943446888381E0DF91CF9108950F9343
:102700001F93CF93DF93082F192FC8E0D0E0CE019D
:102710000E943446F80181938F012196C831D1057A
:10272000B1F781E0DF91CF911F910F9108950F9341
:102730001F93CF93DF93082F192FC8E0D0E0F80143
:1027400061918F01CE010E943C462196C831D1058E
:10275000B1F781E0DF91CF911F910F910895CF9351
:10276000DF93EC0187E090E00E943446888381E0AB
:10277000DF91CF910895FC0187E090E060810E9495
:102780003C4681E00895F8940895789408950E9455
:10279000C313FFCF0F931F93DF93CF93CDB7DEB754
:1027A000A3970FB6F894DEBF0FBECDBF0E942B19C2
:1027B0008093C5078F3F21F48EE060E00E94AC1744
:1027C0000E94CF28082F81FF04C084E160E00E94AE
:1027D000AC1702FF04C083E160E00E94AC171092C6
:1027E000C8071092D6071092D5071092C70710920B
:1027F000C6071092D7071092D407E4EBF7E08FEFEB
:10280000808382838183339697E0E33CF907C1F7A5
:1028100093E69093FE068093FC06909324078093A2
:10282000220790934A0780934807909370078093FC
:102830006E079093960780939407EBEDF7E020E006
:1028400030E001C09A01A9014F5F5F4FCA01880FB4
:10285000991F880F991F840F951F8852984F918355
:102860008083C901880F991F880F991F820F931FBA
:102870008852984F9483838335964530510511F7DC
:102880001092DA071092D9071092F5071092F40708
:102890001092CB071092CA0788ED97E09093F30649
:1028A0008093F2068E010F5F1F4FC80163E473E24D
:1028B0000E944929C80167E576E040E850E00E949F
:1028C0008F2985E58093570619861C861D861E86EE
:1028D0001F86188A198A1A8A1B8A1C8A1D8A1E8AD0
:1028E0001F8A188E198E1A8E1B8E1C8E1D8E1E8EA0
:1028F0001F8E18A219A21AA21BA281E0888792E05B
:102900009A878B87C8010E94291EA3960FB6F89458
:10291000DEBF0FBECDBFCF91DF911F910F91089504
:10292000CF92DF92FF920F931F93DF93CF9300D04C
:10293000CDB7DEB7ECEFCE2EE6E0DE2E90E0F6016E
:10294000F080FF2DFF3FB1F00CEF16E020E0921772
:1029500061F0F8018081F81641F485E06F2D29833C
:102960009A830E94AC179A8129812F5F0A5D1F4FBD
:10297000253069F79F5F26E230E0C20ED31E953006
:10298000F1F60E94F31C992787FD909526E230E02E
:10299000829FF001839FF00D929FF00D1124EC5067
:1029A000F94F82858093D707F093D607E093D50738
:1029B000F093C707E093C6078093C8070E94C52914
:1029C0000E94B5290E941235FFCFCF92DF92EF927D
:1029D000FF920F931F93CF93DF93EC018B016A015A
:1029E0008985823021F08091C307888301C01882D5
:1029F0008091C307853020F087E060E00E94AC172B
:102A00008985823029F08091C3078F5F8093C30747
:102A10008091C307882319F481E08093C30728813C
:102A2000332727FD309586E290E0289FF001299F0B
:102A3000F00D389FF00D1124EC50F94F11830083F5
:102A4000288522872881332727FD3095289FF0018C
:102A5000299FF00D389FF00D1124EC50F94F23E021
:102A600021874881242F332727FD3095289FF001A7
:102A7000299FF00D389FF00D1124EC50F94F40873D
:102A80002881332727FD3095289F8001299F100D2D
:102A9000389F100D11240C50194FF8011582CE01EA
:102AA0000B960E94F421F801948F838F8B859C856F
:102AB000AD85BE858E339105A105B10520F086E177
:102AC00068810E94AC170881112707FD1095CE017F
:102AD0004B960E94F421F6E2EF2EF12C0E9DF001B0
:102AE0000F9DF00D1E9DF00D1124EC50F94F968BAB
:102AF000858B8881992787FD90958E9D80018F9D7C
:102B0000100D9E9D100D11240C50194FF801858950
:102B10009689238D348D820F931F908F878BCE01E2
:102B200043960E94F421F801968F858F888199271A
:102B300087FD90958E9DF0018F9DF00D9E9DF00D6F
:102B40001124EC50F94F858D968D928F818F81E005
:102B500090E090A3878FD382C28281E084878881AE
:102B6000992787FD90958E9DF0018F9DF00D9E9D7C
:102B7000F00D1124EC50F94F898581A381E0DF919C
:102B8000CF911F910F91FF90EF90DF90CF9008951C
:102B90000E945E23089585E690E00895E091D507B0
:102BA000F091D60784870895E091D507F091D60774
:102BB0008485089520913306222341F0FB01208370
:102BC00020916104FC01208381E0089580E0089554
:102BD000DF93CF930F92CDB7DEB7198207C080ED98
:102BE00097E00E94562789818F5F89838981843687
:102BF000B0F30F90CF91DF91089581E090E00E94B3
:102C0000B0120E94E81581E090E00E9479120E94C3
:102C1000E815089581E090E00E94B0120E94E81546
:102C20000E94E8150E94E81581E090E00E94791268
:102C30000E94E8150895FF920F931F93DF93CF939F
:102C400000D00F92CDB7DEB700D000D000D0EDB7E6
:102C5000FEB731968E010F5F1F4FADB7BEB712960C
:102C60001C930E93119725ED31E0338322838483E7
:102C700015820E94A645EDB7FEB736960FB6F894BA
:102C8000FEBF0FBEEDBFFF2472C0800F911FDC019D
:102C90008C918433D1F1853370F48133F9F0823330
:102CA00020F4803309F05CC016C0823311F1833305
:102CB00009F056C023C08733C9F1883330F4853317
:102CC00069F1863309F04CC02CC08833B1F18933E7
:102CD00009F046C03BC00E940A1602C00E94FD15C2
:102CE0000E940A160E940A160E940A160E940A16DC
:102CF00037C00E94FD150E94FD15F4CF0E94FD15FE
:102D00000E94FD150E94FD15EFCF0E94FD150E9447
:102D1000FD150E94FD150E94FD15E8CF0E94FD15CE
:102D200002C00E940A160E94FD1504C00E940A16E5
:102D30000E940A160E94FD1506C00E940A160E94F3
:102D40000A160E940A160E94FD1508C00E940A1663
:102D50000E940A160E940A160E940A160E94FD1579
:102D60000E94E8150E94E8150E94E815F394F80106
:102D700001900020E9F73197E01BF10B8F2D90E0D7
:102D80008E179F0708F481CF0F900F900F90CF916F
:102D9000DF911F910F91FF9008950F931F93CF9391
:102DA000DF9380913306882329F4DF91CF911F911F
:102DB0000F9108950E94C3130E94C3130E94C3136E
:102DC000C5EDD1E086E693E00E94AB1000D000D0C4
:102DD000EDB7FEB73196ADB7BEB71296DC93CE9382
:102DE000119780916104828313820E945D450F9048
:102DF0000F900F900F9082E693E00E94AB108091AD
:102E00003306883110F0109233068091330690E03B
:102E100001978631910508F04BC08A5B9F4FFC01FA
:102E2000EE0FFF1F0590F491E02D099486E293E0E8
:102E300041C08FEF92E03EC08BEE92E03BC085ED4B
:102E400092E038C08AEB92E035C084EA92E032C06A
:102E50008CE892E02FC089E792E02CC086E692E0F1
:102E600029C088E492E026C083E292E023C087E193
:102E700092E020C08CEF91E01DC08DEE91E01AC071
:102E800089ED91E017C088EC91E014C084EB91E0EB
:102E900011C084E991E00EC08CE791E00BC081E69F
:102EA00091E008C080E591E005C081E491E002C0B6
:102EB0008AE391E00E94AB106091060870910708C8
:102EC0008DE090E00E9431456091060870910708FE
:102ED0008AE090E00E94314514E182E090E00E9497
:102EE000B01283E090E00E94791204E688EE93E04D
:102EF0000E9456270150D1F783E090E00E94B01263
:102F000082E090E00E94791204E688EE93E00E944D
:102F100056270150D1F7115001F782E090E00E944E
:102F2000791283E090E00E947912809161040E94FE
:102F30001B160E94E81582E090E00E94B0120E94E9
:102F4000E81582E090E00E9479120E94E8158091D5
:102F500033060E941B1636CFEF92FF920F931F93FA
:102F6000182FE62E80933306609361040E94CD16DD
:102F700000E021C082E090E00E94B01283E090E087
:102F80000E94791294E6F92E88EE93E00E9456276B
:102F9000FA94D1F783E090E00E94B01282E090E0D2
:102FA0000E94791284E6F82E88EE93E00E9456275C
:102FB000FA94D1F70F5F0431E8F283E090E00E94C9
:102FC000791282E090E00E9479128E2D0E941B16E9
:102FD000812F0E941B1600E0CDCF80933306E09135
:102FE000D507F091D6078085809361040E94CD16A5
:102FF00008954F925F926F927F928F929F92AF92BD
:10300000BF92CF92DF92EF92FF920F931F93CF93D5
:10301000DF9382E793E00E94AB1000D000D088EDF0
:1030200091E0ADB7BEB712969C938E931197E09145
:10303000D507F091D6078085992787FD909514963E
:103040009C938E9313970E945D45E091D507F09174
:10305000D607C281D38181EE91E0EDB7FEB79283AE
:103060008183D483C3830E945D45EDB7FEB731965B
:103070004EEEE42E41E0F42EADB7BEB71296FC92B0
:10308000EE9211978881828313820E945D453BEF07
:10309000C32E31E0D32EEDB7FEB7D282C182E091CC
:1030A000D507F091D60780819181ADB7BEB7149650
:1030B0009C938E9313970E945D4525E0A22E22E0FB
:1030C000B22EEDB7FEB7B282A1828091D507909162
:1030D000D607948383830E945D4504EF16E00F902A
:1030E0000F900F900F90C0E0D0E095E1492E92E054
:1030F000592E9E2C6F2C7C2C8D2CC501BA2CA92E00
:1031000086E2C82ED12CD8011296ED90FC90139730
:1031100000D000D000D0EDB7FEB73196ADB7BEB746
:1031200012965C924E921197D383C283F582E48209
:103130000E945D450F900F90EDB7FEB73196ADB789
:10314000BEB711969C92119712966C92D7018C91F2
:10315000828313820E945D45EDB7FEB77182828241
:10316000D8018D919C91948383830E945D45EDB736
:10317000FEB7B182A282CC9DC001CD9D900DDC9D99
:10318000900D11248C50994F948383830E945D4548
:1031900021960A5D1F4F0F900F900F900F90C53032
:1031A000D10509F0B0CFDF91CF911F910F91FF9022
:1031B000EF90DF90CF90BF90AF909F908F907F90D7
:1031C0006F905F904F900895CF93DF93E091D50774
:1031D000F091D607C281D3818881853539F00E946C
:1031E000F91781E00E94ED1785E58883E091D50706
:1031F000F091D6078081918121E18030920728F0FB
:103200000E94F91782E10E94ED17DF91CF91089596
:10321000992787FD909526E230E0829FF001839FF9
:10322000F00D929FF00D1124EC50F94FA281B38163
:103230008C91853519F085E58C9309C08081918149
:1032400021E18030920728F082E10E94ED178FEF94
:10325000089581E0089560918605709187058091B9
:10326000880590918905E0E0F0E09B01AC010E2E0D
:1032700004C056954795379527950A94D2F720FDB7
:103280001AC021E030E040E050E00E2E04C0220FD2
:10329000331F441F551F0A94D2F7262B372B482B78
:1032A000592B2093860530938705409388055093CA
:1032B00089058E2F08953196E032F105B1F68FEF32
:1032C0000895E091D507F091D607658576858785C5
:1032D00090890895DF92EF92FF920F931F93D82E5B
:1032E00081E0E82EF12C012D112D0D2C04C0EE0CE7
:1032F000FF1C001F111F0A94D2F780918605909140
:103300008705A0918805B09189058E219F21A02372
:10331000B1230097A105B10509F45DC00E94C31354
:10332000EBEFF6E0A8019701209530954095509578
:1033300063E081818F3F39F186819781A085B185D6
:103340008E159F05A007B10731F4128613861486E7
:1033500015861082628386819781A085B18582233C
:103360009323A423B52386839783A087B18782857F
:103370009385A485B58582239323A423B5238287CF
:103380009387A487B587B69687E0E93BF80789F667
:103390002EEF3FEF4FEF5FEF04C0220F331F441FAC
:1033A000551FDA94D2F78091860590918705A091F8
:1033B0008805B091890582239323A423B5238093A4
:1033C000860590938705A0938805B09389050E9490
:1033D000C51381E001C08FEF1F910F91FF90EF9017
:1033E000DF900895EF92FF920F931F9321E030E05A
:1033F00040E050E004C0220F331F441F551F8A9540
:10340000D2F7E091D507F091D60785859685A785F7
:10341000B08979018A01E822F9220A231B23E114E9
:10342000F10401051105D1F0209530954095509596
:1034300082239323A423B52385879687A787B08B00
:1034400081899289A389B48982239323A423B523F4
:10345000818B928BA38BB48B81E001C08FEF1F9186
:103460000F91FF90EF900895209186053091870588
:103470004091880550918905082E04C056954795BE
:10348000379527950A94D2F72170307021153105B0
:10349000E9F0E091D507F091D60721E030E040E077
:1034A00050E004C0220F331F441F551F8A95D2F7E6
:1034B00085859685A785B089822B932BA42BB52B68
:1034C00085879687A787B08B81E008958FEF089551
:1034D000EF92FF920F931F93DF93CF930F92CDB78D
:1034E000DEB791E0E92EF12C012D112D04C0EE0C78
:1034F000FF1C001F111F8A95D2F7809186059091BD
:103500008705A0918805B09189058E219F21A02370
:10351000B1230097A105B10511F481E03FC00E94DD
:10352000C313EBEFF6E020E033E080818130A9F4B3
:1035300082859385A485B5858E219F21A023B12303
:103540000097A105B10549F03283178616861082CF
:10355000E286F3860487158721E08081823091F42A
:1035600082859385A485B5858E159F05A007B10733
:1035700049F43283178616861082128613861486C3
:10358000158621E0B69687E0E93BF80771F62983B6
:103590000E94C5132981222329F482E00E94CE15BE
:1035A0008FEF01C081E00F90CF91DF911F910F91BC
:1035B000FF90EF900895E091D507F091D60725850B
:1035C00036854785508926233723482359232115DB
:1035D00031054105510521F1618B728B838B948BF1
:1035E00021E027830090C50704C0969587957795BD
:1035F00067950A94D2F7617070706115710519F0C2
:103600000E94191F04C080E090E00E94401FE091DA
:10361000D507F091D607218932894389548903C09F
:1036200020E030E0A901B901CA0108959091D407C2
:103630009430D0F4E4EBF7E020E030813F3F21F01C
:103640002F5F33962530C9F730E0F901EE0FFF1FE9
:10365000E20FF31FEC54F84F8283808361839F5FF6
:103660009093D4079F0102C020E030E0C901089583
:10367000BC0120E030E0822FA901440F551F420F0A
:10368000531F4C54584F6417750731F02F5F3F4F4D
:103690002530310581F78FEF08950E94381B8F3F49
:1036A00011F481E003C0853029F482E00E94CE1538
:1036B0008FEF0895992787FD9095FC01EE0FFF1F6E
:1036C000E80FF91FEC54F84F8FEF808382838183DA
:1036D0008091D40781508093D40781E00895EF92C0
:1036E000FF920F931F93DF93CF930F92CDB7DEB767
:1036F0000E94381B682F8F3F11F481E003C0853092
:1037000029F482E00E94CE158FEF8FC0082F112779
:1037100007FD10957801EE0CFF1CE00EF11E84EB06
:1037200097E0E80EF91ED70112969C9112978C91A2
:1037300098170CF079C069830E94C31300D000D0A1
:1037400000D0EDB7FEB7319686E292E0ADB7BEB7D6
:1037500012969C938E931197A091D507B091D6079E
:1037600018968C91992787FD909593838283158372
:1037700004830E945D45F70182818F5F8283E0911F
:10378000D507F091D6071482E5EBF7E08DB79EB729
:1037900006960FB6F8949EBF0FBE8DBF20E030E0B6
:1037A00070E46981A901440F551F420F531F4C5407
:1037B000584F71F0A0814A2F552747FD5095872F0C
:1037C00090E04817590724F48181882309F47A2F5F
:1037D0002F5F3F4F33962530310521F77093C40793
:1037E000EBEFF6E0862F992787FD9095A92FB92F4B
:1037F00063E02081223089F4228533854485558514
:10380000281739074A075B0741F462831786168633
:1038100010821286138614861586B69627E0E93B39
:10382000F20739F70E94C51381E00F90CF91DF9125
:103830001F910F91FF90EF9008950F931F93DF93C7
:10384000CF930F92CDB7DEB70E94381B8F3F11F494
:1038500081E003C0853029F482E00E94CE158FEF0D
:10386000A3C089830E94C3138981082F112707FDF4
:103870001095F801EE0FFF1FE00FF11FEC54F84F09
:1038800092811916B4F0E091D507F091D60797818F
:1038900092609783992787FD9095A92FB92F818BE7
:1038A000928BA38BB48B0E94C51380E090E00E94A2
:1038B000401F00D000D000D0EDB7FEB7319685E4B0
:1038C00092E0ADB7BEB712969C938E931197A091DC
:1038D000D507B091D60718968C91992787FD9095BA
:1038E00093838283158304830E945D45F801EE0F64
:1038F000FF1FE00FF11FEC54F84F8281815082834B
:10390000E5EBF7E08DB79EB706960FB6F8949EBF2D
:103910000FBE8DBF80E090E060E49C01220F331F5A
:10392000280F391F2C54384F71F07081472F5527BD
:1039300047FD5095262F30E04217530724F421818C
:10394000222309F4672F019633968530910529F7D4
:103950006093C40700D000D0EDB7FEB7319681E682
:1039600092E0ADB7BEB712969C938E931197628387
:1039700013820E945D45A091D507B091D607F8014A
:10398000EE0FFF1FE00FF11FEC54F84F81811B96E3
:103990008C931B9781E014968C930F900F900F904F
:1039A0000F900E94C51381E00F90CF91DF911F917E
:1039B0000F9108950E94381B8F3F11F481E003C0DE
:1039C000853029F482E00E94CE158FEF0895992763
:1039D00087FD9095FC01EE0FFF1FE80FF91FEC54D7
:1039E000F84F82810895E091CA07F091CB0780815A
:1039F0000895EF92FF920F931F93CF93DF93C0919F
:103A0000CA07D091CB0784E893E00E94AB1084E70B
:103A1000E82E82E0F82E06E210E01CC000D000D0B4
:103A2000EDB7FEB7F282E182288130E0209FC0012D
:103A3000219F900D309F900D1124855F984F9483A6
:103A400083830E945D450B80DC81C02D0F900F9019
:103A50000F900F90209711F781E893E00E94AB1030
:103A6000DF91CF911F910F91FF90EF900895AF924A
:103A7000BF92CF92DF92EF92FF920F931F93CF935B
:103A8000DF93E091F206F091F306309709F486C0D7
:103A90002091CA073091CB072115310509F442C0A6
:103AA000D90146E250E0C82FDD27C7FDD095C49F5D
:103AB000B001C59F700DD49F700D11246C50794FCB
:103AC00017E1E12EF12CE60EF71E9AE0C92ED12C5B
:103AD000C60ED71E6C91662339F170E0649F5001C9
:103AE000659FB00C749FB00C112464EF76E0A60EB5
:103AF000B71EE5010F89188DE7016881798160178C
:103B0000710790F00617170731F4E5016A85E601A1
:103B10009881691748F013960D90BC91A02D1097CD
:103B2000C9F602C0A0E0B0E08083C381D481D09305
:103B3000F306C093F206A217B307B1F4109749F049
:103B4000B483A383128211821296FC93EE93119791
:103B500006C01482138212821182FA83E983F093E1
:103B6000CB07E093CA071AC011968D919C911297CA
:103B7000AC17BD0759F092838183B483A383119658
:103B8000CD91DC911297FC83EB8304C014821382E5
:103B9000928381831296FC93EE931197DF91CF91DC
:103BA0001F910F91FF90EF90DF90CF90BF90AF905B
:103BB0000895CF93DF93E091CA07F091CB07309738
:103BC00009F444C0992787FD9095208130E028179B
:103BD000390781F4A381B481B093CB07A093CA07BE
:103BE00012961C921E92119718C00380F481E02D4A
:103BF000309761F1208130E028173907B1F7C18192
:103C0000D281838194819C838B83A381B48110971B
:103C100021F01296DC93CE931197A091F206B09109
:103C2000F306109739F4F093F306E093F20614824A
:103C300013820AC0B483A3831296FC93EE93119768
:103C4000F093F306E093F20612821182DF91CF9196
:103C50000895EF92FF920F931F93CF93DF93EC01A0
:103C600069817A814B815C818D819E810E9464296A
:103C7000BC018F81882369F04B815C81CE0120E0FB
:103C800030E000E010E0EE24FF240E94E5141F82E3
:103C900014C02881332727FD309586E290E0289FC5
:103CA000F001299FF00D389FF00D1124EC50F94FD1
:103CB00081858330D9F4718360832881332727FD80
:103CC000309586E290E0289FF001299FF00D389F03
:103CD000F00D1124EC50F94F85899689009741F435
:103CE00082E0818788810E94371D02C08FEF01C06A
:103CF00081E0DF91CF911F910F91FF90EF90089598
:103D00001F93DF93CF93CDB7DEB728970FB6F89404
:103D1000DEBF0FBECDBF29833A834B835C836D83A7
:103D20007E838F8398870E94C3130E94ED27182FEC
:103D3000CE0101960E94F4219C018330910560F030
:103D4000E091D507F091D607210F311D368B258BD9
:103D50000E94C51381E001C08FEF28960FB6F8943A
:103D6000DEBF0FBECDBFCF91DF911F9108950E949E
:103D70005929E091D507F091D60785818823B9F7B5
:103D80000895FF920F931F93DF93CF93CDB7DEB7C4
:103D900028970FB6F894DEBF0FBECDBF29833A83B4
:103DA0004B835C836D837E838F8398870E94E418A6
:103DB0000E94C313E091D507F091D60781E0858377
:103DC00081E090E090A3878F0E94ED27F82ECE012E
:103DD00001960E94F421E091D507F091D6070F2DAE
:103DE00010E09801280F391F368B258B8F2D883FC7
:103DF00078F40E94E7270F5F1F4F282F30E002174B
:103E0000130734F48F2D8E5F809332060E94EA27C9
:103E10000E94C5130E94B71E81E028960FB6F89441
:103E2000DEBF0FBECDBFCF91DF911F910F91FF90ED
:103E300008951F930E94C313E091D507F091D60710
:103E400081E0858386830E94ED27182F883F88F4C0
:103E50000E94E727212F30E02F5F3F4F482F50E08F
:103E60002417350734F4812F8E5F809332060E9429
:103E7000EA270E94C5130E94B71E81E01F91089592
:103E80001F93CF93DF93EC010E94C313E091D507FA
:103E9000F091D60781E08583D68BC58B0E94ED27F4
:103EA000182F883F88F40E94E727212F30E02F5FEA
:103EB0003F4F482F50E02417350734F4812F8E5F91
:103EC000809332060E94EA270E94C5130E94B71E03
:103ED00081E0DF91CF911F910895EF92FF920F93B0
:103EE0001F93DF93CF930F92CDB7DEB78C010E9463
:103EF000C313E091D507F091D60781E085830E9436
:103F0000ED27E091D507F091D607E82EFF240E0D9E
:103F10001F1D168B058B883F90F489830E94E7272D
:103F20000894E11CF11C282F30E09981E216F30679
:103F300034F4892F8E5F809332060E94EA270E9414
:103F4000C5130E94B71E81E00F90CF91DF911F91A2
:103F50000F91FF90EF9008951F93CF93DF93EC01A3
:103F60000E94E418209711F4C1E0D0E00E94C3132E
:103F7000E091D507F091D60781E08583D0A3C78F64
:103F80000E94ED27182F883F88F40E94E727212FF1
:103F900030E02F5F3F4F482F50E02417350734F4AF
:103FA000812F8E5F809332060E94EA270E94C513FC
:103FB0000E94B71E81E0DF91CF911F9108951F935A
:103FC0000E94E4180E94C313E091D507F091D60730
:103FD00081E090E090A3878F81E085830E94ED27A8
:103FE000182F883F88F40E94E727212F30E02F5FA9
:103FF0003F4F482F50E02417350734F4812F8E5F50
:10400000809332060E94EA270E94C5130E94B71EC1
:1040100081E01F910895E091D507F091D607808542
:104020000E94D91DE091D507F091D60784E08187E1
:104030000E94DF1F81E008958F929F92AF92BF92FE
:10404000CF92DF92EF92FF920F931F93DF93CF9364
:10405000CDB7DEB760970FB6F894DEBF0FBECDBF09
:1040600029873A874B875C876D877E878F87988BF8
:10407000CE0101960E947820CE01099609851A8505
:104080002B853C854D855E856F85788989809A80F2
:10409000AB80BC80CD80DE80EF80F8840E94D6208B
:1040A0008F3F61F029853A854B855C856D857E85DE
:1040B0008F8598890E94C11E81E001C08FEF6096B4
:1040C0000FB6F894DEBF0FBECDBFCF91DF911F9129
:1040D0000F91FF90EF90DF90CF90BF90AF909F90A7
:1040E0008F900895E091D507F091D60780850895C7
:1040F000EF92FF920F931F93CF93DF93EC011C82FB
:104100001D821E821F828091CC079091CD07A091C5
:10411000CE07B091CF0788839983AA83BB83E090B1
:10412000D007F090D1070091D2071091D307EC820D
:10413000FD820E831F830E94ED27682F70E080E0D0
:1041400090E023EB36EE4EE050E00E94B9426E0D57
:104150007F1D801F911F6C837D838E839F8313C07F
:1041600080509A4CAA49BB438C839D83AE83BF8306
:1041700088819981AA81BB810196A11DB11D888387
:104180009983AA83BB838C819D81AE81BF8180305E
:104190002AEC92072AE9A2072BE3B20708F7DF917E
:1041A000CF911F910F91FF90EF9008958F929F9262
:1041B000AF92BF92CF92DF92EF92FF920F931F9335
:1041C000DF93CF93CDB7DEB760970FB6F894DEBF1D
:1041D0000FBECDBFFC0109831A832B833C834D8323
:1041E0005E836F83788789869A86AB86BC86CD8608
:1041F000DE86EF86F88AE980FA800B811C812D81AA
:104200003E814F815885A984BA84CB84DC848D8516
:104210009E85AF85B889EA14FB040C051D0508F4DA
:1042200040C0AE14BF04C006D10691F42817390768
:104230004A075B07B0F1281B390B4A0B5B0B248341
:10424000358346835783108211821282138227C0DE
:10425000281739074A075B0790F40894E108F1082A
:1042600001091109EA18FB080C091D09E082F18215
:1042700002831383205036434546544C08C0EA1845
:10428000FB080C091D09E082F18202831383281BBD
:10429000390B4A0B5B0B248335834683578381E0BC
:1042A00001C08FEF60960FB6F894DEBF0FBECDBF92
:1042B000CF91DF911F910F91FF90EF90DF90CF9002
:1042C000BF90AF909F908F900895FC0114C0205034
:1042D0003A4C4A495B432483358346835783208184
:1042E0003181428153812F5F3F4F4F4F5F4F20837A
:1042F0003183428353832481358146815781203025
:104300008AEC38078AE948078BE3580700F70895D5
:104310008F929F92AF92BF92CF92DF92EF92FF92D5
:104320000F931F93DF93CF93CDB7DEB760970FB690
:10433000F894DEBF0FBECDBF09831A832B833C8365
:104340004D835E836F83788789869A86AB86BC8629
:10435000CD86DE86EF86F88A29853A854B855C8591
:10436000E980FA800B811C812E0D3F1D401F511FDB
:10437000FC0120833183428353832D853E854F8505
:104380005889ED80FE800F8118852E0D3F1D401F3E
:10439000511F24833583468357830E94652181E022
:1043A00060960FB6F894DEBF0FBECDBFCF91DF9100
:1043B0001F910F91FF90EF90DF90CF90BF90AF9043
:1043C0009F908F9008956093CC077093CD07809352
:1043D000CE079093CF072093D0073093D107409317
:1043E000D2075093D30708958F929F92AF92BF92B6
:1043F000CF92DF92EF92FF920F931F93FC012081E7
:104400003181428153816481758186819781211533
:1044100031054105510509F461C0223431054105DA
:10442000510508F062C05B016C01EE24FF24870196
:1044300060E038C08A2CAB2DA653F1E0AB1508F034
:10444000F0E08C2D865691E08C1508F090E0F80F86
:1044500071E0F81708F070E0972B7D2D755CE1E0B6
:104460007D1508F0E0E0970F81E0971708F080E0F5
:104470008E2B8E0DE1E08E1508F0E0E0EF0D71E07F
:10448000EF1508F070E0700FB1E0701708F0B0E0C1
:10449000B10FA82CBA2ECF2ED92EE82EFE2E072F24
:1044A0001B2F6F5F862F90E0A0E0B0E0821793078C
:1044B000A407B50708F4BECF9501A601B701C8014E
:1044C000A3EBAA2EF6EEBF2EEEE0CE2EDD24EE24D8
:1044D000FF2400E010E00E943D3509C023EB36EEDA
:1044E0004EE050E00E94FF4202C020E030E0C901EF
:1044F0001F910F91FF90EF90DF90CF90BF90AF9002
:104500009F908F900895EF92FF920F931F93DF93E8
:10451000CF93CDB7DEB728970FB6F894DEBF0FBEA6
:10452000CDBF7B018C01BAE016950795F794E7940F
:10453000BA95D1F7E982FA820B831C83737080707D
:10454000907023EB36EE4EE050E00E94B9426D834E
:104550007E838F8398872E2D3A814B815C812896AC
:104560000FB6F894DEBF0FBECDBFCF91DF911F9184
:104570000F91FF90EF9008958F929F92AF92BF920C
:10458000CF92DF92EF92FF920F931F93FC01208155
:1045900031814281538164817581868197812115A2
:1045A00031054105510509F45BC05B016C01EE2446
:1045B000FF24870160E038C08A2CAB2DA653F1E0C0
:1045C000AB1508F0F0E08C2D865691E08C1508F0C4
:1045D00090E0F80F71E0F81708F070E0972B7D2D50
:1045E000755CE1E07D1508F0E0E0970F81E097173A
:1045F00008F080E08E2B8E0DE1E08E1508F0E0E0F3
:10460000EF0D71E0EF1508F070E0700FB1E070177A
:1046100008F0B0E0B10FA82CBA2ECF2ED92EE82E7C
:10462000FE2E072F1B2F6F5F862F90E0A0E0B0E0DB
:1046300082179307A407B50708F4BECF9501A6011A
:10464000B701C801E3EBAE2E06EEB02E1EE0C12E80
:10465000DD24EE24FF2400E010E00E943D3506C07A
:1046600023EB36EE4EE050E00E94FF42B901CA0152
:104670001F910F91FF90EF90DF90CF90BF90AF9080
:104680009F908F9008951F9311E00E94E4180E945C
:10469000E727853110F41093C9070E9459298091AA
:1046A0005706853519F088E00E94ED1780910605C0
:1046B000853559F388E00E94ED17E7CF2F923F929E
:1046C0004F925F926F927F928F929F92AF92BF9222
:1046D000CF92DF92EF92FF920F931F93DF93CF93CE
:1046E0000F92CDB7DEB70E94E6270E94C3130E9447
:1046F00062270E9468272C018AEF0E94EA276091B6
:10470000320670E080E090E023EB36EE4EE050E0C1
:104710000E94B9427B018C018091D0079091D10712
:10472000A091D207B091D307E80EF91E0A1F1B1FF4
:10473000C801B7010E94FF42E61AF70A080B190BDD
:104740008091CC079091CD07A091CE07B091CF0773
:1047500023EBA22E26EEB22E2EE0C22ED12C14C0B8
:1047600080E096E3A5E6B4ECE80EF91E0A1F1B1FD5
:10477000C801B701A60195010E94FF42E61AF70A97
:10478000080B190BD401C3013C014D010894611CB5
:10479000711C811C911CE0E0EE16EAECFE06EAE9D1
:1047A0000E07EBE31E07E0F68093CC079093CD074E
:1047B000A093CE07B093CF07E092D007F092D10735
:1047C0000093D2071093D307E091D507F091D60755
:1047D00085818823B9F081858430A1F0878182307A
:1047E00029F0882341F08681882311F485E001C0F7
:1047F00083E0818704C083E08187178216828085E9
:104800000E94D91DE091D507F091D607858D968D30
:10481000009709F4DFC08085882309F4DBC0918507
:10482000943009F4D7C0992787FD909526E230E0AF
:10483000829FD001839FB00D929FB00D1124AC5088
:10484000B94F92962D913C9193972115310529F0FE
:10485000418D528D24173507B8F426E230E0829F4F
:10486000D001839FB00D929FB00D1124AC50B94F71
:10487000818D928D93969C938E9392978789908D3C
:1048800095969C938E9394972091320630E0ECEFAE
:10489000F6E080818230D9F0818D8330C1F4428D81
:1048A000538D4115510599F0848D958D821793078D
:1048B00028F4138E128E158E148E09C0821B930B52
:1048C000958F848F8417950710F4938F828FB696F7
:1048D00087E0EA3BF807E9F6E091D507F091D607C3
:1048E000218D328D8091320690E02817390770F5BE
:1048F00081A1833021F58185833009F1838D948DE9
:10490000908F878B858D968D928F818F00D000D070
:1049100088E792E0ADB7BEB712969C938E9311973D
:104920008085992787FD909514969C938E93139775
:104930000E945D450F900F900F900F900BC0128E4C
:10494000118E82E060850E94AC1704C0281B390BD1
:10495000328F218FE091D507F091D6070085218D08
:10496000328D21153105B1F581A1813071F483E0DB
:10497000602F0E94AC17E091D507F091D60783E035
:104980008187802F0E94D91D25C0833019F581852C
:10499000833001F100D000D022E932E0EDB7FEB75C
:1049A00032832183802F992787FD90959483838379
:1049B0000E945D45E091D507F091D607838D948DD7
:1049C000908F878B858D968D928F818F0F900F9012
:1049D0000F900F90F9EF2F2EF6E03F2E00E61AEE23
:1049E00020E0E1E06E2E712C7AEFE72EF12C62E0F0
:1049F000962E51E0A52EB12CC12CD12CD1011396AD
:104A00008C9113978F3F09F4C4C01C92882309F43A
:104A100043C014968C9114978430F1F150964D91C7
:104A20005C9151978091320690E04817590738F011
:104A3000481B590B51965C934E93509703C0F1015C
:104A4000118A108AD10152964D915C915397481763
:104A5000590738F0481B590B53965C934E93529765
:104A600012C0F101668977898617970728F4681BB9
:104A7000790B738B628B07C00E94D842D101539689
:104A80009C938E935297F10182899389009721F428
:104A900086899789938B828BD10114968C91149778
:104AA000833009F076C050968D919C915197009774
:104AB00009F066C012968C9112978823A9F011967E
:104AC0008C911197882381F0D601C5010090C5070C
:104AD00004C0880F991FAA1FBB1F0A94D2F7F101C7
:104AE00084879587A687B787D10112961C92129763
:104AF00011961C9211971C925A964D915C915B975E
:104B000056968D919C91579758966D917C91599797
:104B100041305105D9F455967C936E935497149671
:104B20009C92149752964D915C91539751965C9339
:104B30004E935097009721F45196FC92EE92509725
:104B4000822F29830E94371D29811AC0F101758B9C
:104B5000648BBA0161507040689FA001699F500D3D
:104B6000789F500D1124518B408B538B428B0097B3
:104B700011F4F18AE08AD1015B967C926E925A9789
:104B8000F10180899189009721F08017910708F43D
:104B90008C012F5F86E290E0280E391E253009F047
:104BA0002DCFE091D507F091D60781A1833009F090
:104BB00007C145E1A42E47E0B42E36E2E32EF12CE6
:104BC000D5018C91833009F0F1C0ECEFF6E0CC24F4
:104BD000DD24818D833099F4848D958D009779F053
:104BE000C114D10441F0D50113962D913C91149735
:104BF0008217930720F4C080DD24C7FCD094B696BA
:104C0000B7E0EA3BFB0729F71C141D040CF0CEC0EB
:104C10000E94F31C90E08C159D0509F4C7C0CE9C42
:104C20003001CF9C700CDE9C700C1124E4EFF6E098
:104C30006E0E7F1ED3019496CD90DC9095970E94C6
:104C4000F31C90E08E9DF0018F9DF00D9E9DF00D68
:104C50001124EC50F94F8789908DC816D90608F0B9
:104C6000A5C0F301C2A0D3A00E94F31C90E08E9DCA
:104C7000F0018F9DF00D9E9DF00D1124EC50F94F29
:104C8000818D928DC80ED91E0E94F31C90E08E9DDE
:104C9000F0018F9DF00D9E9DF00D1124EC50F94F09
:104CA000858D968D880F991FC816D90630F10E9400
:104CB000F31C90E08E9DF0018F9DF00D9E9DF00DF8
:104CC0001124EC50F94FC58CD68CCC0CDD1C0E9405
:104CD000F31C90E08E9DF0018F9DF00D9E9DF00DD8
:104CE0001124EC50F94F818D928DC81AD90AF30125
:104CF00082A193A18C159D0500F50E94F31C90E004
:104D00008E9DF0018F9DF00D9E9DF00D1124EC50B5
:104D1000F94FD30192968D919C919397218D328D6D
:104D2000820F931F928F818F93961C921E9292975F
:104D300095961C921E92949739C00E94F31C90E0A5
:104D40008E9DF0018F9DF00D9E9DF00D1124EC5075
:104D5000F94FC58CD68CCC0CDD1C0E94F31C90E066
:104D60008E9DF0018F9DF00D9E9DF00D1124EC5055
:104D7000F94F818D928DC81AD90A0E94F31C90E0D8
:104D80008E9DF0018F9DF00D9E9DF00D1124EC5035
:104D9000F94F818D928D8C0D9D1D928F818FF30126
:104DA00082A193A18C199D0993A382A386E290E02E
:104DB000A80EB91E93EDA91697E0B90609F000CF29
:104DC0000E94F31CE82E482F552747FD509526E2F8
:104DD00030E0429FF001439FF00D529FF00D1124EF
:104DE000EC50F94F82858093D707F093C707E09383
:104DF000C607EE20B9F0258D368D2115310551F00D
:104E0000218D328D2A3F310528F42017310708F40F
:104E10004BC00DC098010B3F110508F445C02AEFA7
:104E200030E042C00B3F110510F00AEF10E0809314
:104E3000C807F093D607E093D507009332060E9487
:104E4000ED27282F30E02F5F3F4F2017310740F02C
:104E50000E94ED27082F10E00E5F1F4F00933206CF
:104E6000EE2011F01092C907802F0E94EA27C2019C
:104E70006EEE72E00E9479270E94AE290E941235E0
:104E80000F90CF91DF911F910F91FF90EF90DF90E6
:104E9000CF90BF90AF909F908F907F906F905F90DA
:104EA0004F903F902F9008958901C1CF00000000DE
:104EB000000000000197D1F708951EBC089581E01D
:104EC0008EBD089580B5816080BD1DBC1CBC089559
:104ED000DF93CF9300D0CDB7DEB78CB59DB59A8365
:104EE000898329813A81C9010F900F90CF91DF9179
:104EF0000895EF92FF920F931F93CF93DF93EC01EE
:104F00008FEFC937D80710F0C0E0D0E07E0100E095
:104F100010E080E090E0E60EF71E081F191F91E0F8
:104F2000E91690E0F90691E0090790E0190768F0AA
:104F300080E090E0AFEFBFEFE80EF91E0A1F1B1FE5
:104F40000E946827C817D907D8F30E9468278E15D2
:104F50009F05D8F3DF91CF911F910F91FF90EF90B4
:104F6000089582BF089513BE87B78D7F87BF87B727
:104F70008E7F87BF08958BE083BF87B7836087BF2D
:104F8000089580B5826080BD12BE1092E204109236
:104F9000320608958EEF8093320698E090BF81BF6D
:104FA00083E086BF8BE083BF80B5876080BD1FBC78
:104FB00081E08EBD1DBC1CBC80B5816080BD0E949F
:104FC000C1270E94BB271092E2040895089581B77B
:104FD0008F5F0895815081BF089582B708951F9211
:104FE0000F920FB60F920BB60F9211242F933F938F
:104FF0004F935F936F937F938F939F93AF93BF93E1
:10500000EF93FF938AE060E00E94AC17FF91EF916D
:10501000BF91AF919F918F917F916F915F914F91D0
:105020003F912F910F900BBE0F900FBE0F901F90CE
:1050300018950F920FB60F921F922F923F924F9298
:105040005F926F927F928F929F92AF92BF92CF9218
:10505000DF92EF92FF920F931F932F933F934F9303
:105060005F936F937F938F939F93AF93BF93CF93F0
:10507000DF93EF93FF93A091D507B091D6070DB6BC
:105080000D920EB60D921F92A0910C06B0910D06D6
:105090001E90BEBFADBF0895882319F487B78F77E0
:1050A00087BF8FEF0895882319F414BC81E0089519
:1050B0008FEF0895882319F424B530E002C020E072
:1050C00030E0C9010895882329F487B7806887BF35
:1050D00081E008958FEF0895882359F5CB0101975A
:1050E0008530910510F46093310688E085BD43BD9D
:1050F0003093E0032093DF0380913106813019F46F
:1051000085B5816009C0823019F485B5826004C01C
:10511000833029F485B5836085BD81E008958430AE
:1051200019F485B58460F8CF853029F485B585609C
:10513000F3CF8FEF089581E008951F920F920FB67D
:105140000F920BB60F9211242F933F934F935F93BF
:105150006F937F938F939F93AF93BF93EF93FF933F
:10516000E091DF03F091E003309711F0099504C05E
:105170008AE060E00E94AC17FF91EF91BF91AF9180
:105180009F918F917F916F915F914F913F912F915F
:105190000F900BBE0F900FBE0F901F90189504B686
:1051A00003FC02C080E001C080E104B602FE06C03C
:1051B00094B79B7F94BF04B600FE846004B601FEE2
:1051C00005C094B79D7F94BF82600895882359F4E9
:1051D00004B600FE04C094B79E7F94BF01C081E076
:1051E00093B79111816008958FEF08958FEF08951F
:1051F0008FEF08951F920F920FB60F920BB60F927A
:1052000011242F933F934F935F936F937F938F93CB
:105210009F93AF93BF93EF93FF938AE060E00E9468
:10522000AC17FF91EF91BF91AF919F918F917F91BB
:105230006F915F914F913F912F910F900BBE0F9007
:105240000FBE0F901F9018950E94C313A89584B7A6
:10525000877F84BF81B5886181BD11BC0E94C51361
:1052600008950E94C31384B7877F84BFA89581B532
:10527000886181BD8FE081BD0E94C513089504B689
:1052800003FC02C081E008958FEF0895A89508956A
:105290000895FC0176836583089585B7837E8861D0
:1052A00085BF85B7806285BF889585B78F7D85BFAF
:1052B000089585B7837E85BF85B7806285BF889551
:1052C00085B78F7D85BF089525E5FA012083FB0111
:1052D00032979083818312921292129212921292BA
:1052E000129212921292129212921292129212929E
:1052F000129212921292129212921292129212928E
:10530000129212921292129212921292129212927D
:1053100012921292129212921292CF010895EF926B
:10532000FF920F931F93CF93DF93EC018B017A01D0
:105330004032510518F481E10E94ED170894E1080C
:10534000F108E00EF11EFA82E9821C830B83DF91E3
:10535000CF911F910F91FF90EF90089588EC95E108
:105360009093850580938605089585E580930605CD
:1053700085E895E090930D0680930C0688EC95E106
:10538000909385058093860508950E94CA270E9400
:10539000C51308950E94202A08951F93DF93CF9389
:1053A0000F92CDB7DEB7142F83708C6269830E9491
:1053B0008B2A6981613011F480E001C080E80E948D
:1053C000532A812F0E94532A0E94472A0F90CF917F
:1053D000DF911F910895DF93CF9300D0CDB7DEB753
:1053E00080E487B986E086B9379A369A3699FECF37
:1053F00084B195B19A8389830F900F90CF91DF91FB
:1054000008953798089597B18F71907E892B87B949
:10541000369A3699FECF24B135B1C90108958EE18F
:105420000E94032ABC0180E090E00E943B409B0167
:10543000AC0164EA70E78DE994E40E94A73F089507
:10544000E1E7F0E08081808381E08093700084E078
:105450008093740008958091740087FFFCCF0895B5
:10546000E4E7F0E08081806880830895CF93DF9344
:10547000C4E7D0E08881806288830E94302A0E943D
:105480002B2A88818F7D8883DF91CF910895809129
:1054900074008061809374000E94302A80917400AF
:1054A00084FDFCCF0895809373000E94302A0E94EF
:1054B0002B2A80917100887F883241F09091710091
:1054C000987F81E0983119F480E0089580E0089594
:1054D000009721F080917400806403C08091740073
:1054E0008F7B809374000E94302A0E942B2A809127
:1054F00073000895DF93CF930F92CDB7DEB7898302
:105500000E94362A8981880F81600E94532A0F9059
:10551000CF91DF910895DF93CF930F92CDB7DEB790
:1055200089830E94362A8981880F0E94532A0F900E
:10553000CF91DF9108950E94EB2981E08093D00301
:1055400008958091D003882311F40E949B2A0E9421
:10555000012A0895DF93CF930F92CDB7DEB79091D4
:10556000D003992321F489830E949B2A8981A898DA
:10557000A098813019F41D9A159A02C01D981598AB
:105580000F90CF91DF910895DF93CF930F92CDB716
:10559000DEB79091D003992321F489830E949B2A3E
:1055A00089811D981598813019F4A89AA09A02C093
:1055B000A898A0980F90CF91DF9108958091D00383
:1055C000882311F40E949B2A81E00E94AA2A81E08C
:1055D0000E94032A08958091D003882311F40E9429
:1055E0009B2A81E00E94C42A81E00E94032A089538
:1055F000AF92BF92CF92DF92EF92FF920F931F93E1
:105600000E94EB2ABC0180E090E00E943B408B01AD
:105610007C0160E070EC8FE794E4202F312F4E2D59
:105620005F2D0E94423F20E030E44CE156E40E94AE
:105630001241202F312F4E2D5F2D0E94A73F0E9437
:10564000D2407B018C0120E030E040E450E40E9435
:105650007541D62EC72EB82EA92EC801B70129E74D
:1056600033EE4DE759E30E94124128EC32E644E85C
:105670005AE30E94433F7B018C01A6019501652FEF
:10568000742F832F922F2DE234EC4CE154E30E94CF
:1056900012419B01AC01C801B7010E94433F9B012D
:1056A000AC0160E070E080E89FE30E94A73F1F919B
:1056B0000F91FF90EF90DF90CF90BF90AF90089543
:1056C0000E94F82A23E333E948E853E40E94423F6A
:1056D00008950E94EB290E94CA2981E08093D1039A
:1056E00008958091D103882311F40E94692B0E94B0
:1056F000012A0895DF93CF930F92CDB7DEB7909133
:10570000D103992321F489830E94692B89818130F7
:1057100011F4AC9A01C0AC980F90CF91DF9108952D
:10572000DF93CF930F92CDB7DEB79091D10399233A
:1057300021F489830E94692B8981813011F4AD9A0B
:1057400001C0AD980F90CF91DF9108951F93182F4E
:105750008091D103882311F40E94692B80E00E947C
:10576000BA2B113019F4A89AA09A02C0A898A09850
:105770001F9108951F93182F8091D103882311F44E
:105780000E94692B80E00E94A62B113019F41D9A0B
:10579000159A02C01D9815981F910895DF93CF9315
:1057A0000F92CDB7DEB79091D103992321F489836D
:1057B0000E94692B8981813011F4AA9A01C0AA98AC
:1057C0000F90CF91DF910895DF93CF930F92CDB7D4
:1057D000DEB79091D103992321F489830E94692B2C
:1057E0008981813011F4AB9A01C0AB980F90CF91B1
:1057F000DF910895DF93CF930F92CDB7DEB7482F97
:105800008091D103882321F449830E94692B498127
:1058100080E061E00E94CD290F90CF91DF91089543
:10582000DF93CF930F92CDB7DEB7482F8091D1038E
:10583000882321F449830E94692B498180E062E03A
:105840000E94CD290F90CF91DF910895DF93CF93E0
:105850000F92CDB7DEB7482F8091D103882321F472
:1058600049830E94692B498181E061E00E94CD2932
:105870000F90CF91DF910895DF93CF930F92CDB723
:10588000DEB79091D103992321F489830E94692B7B
:105890008981882311F4AE9A03C0813009F4AE984F
:1058A0000F90CF91DF9108958091D103882311F457
:1058B0000E94692B81E00E94BA2B81E00E94032A9A
:1058C00008958091D103882311F40E94692B81E00F
:1058D0000E94A62B81E00E94032A08958091D103A3
:1058E000882311F40E94692B82E00E94032A089504
:1058F0008091D103882311F40E94692B83E00E94D8
:10590000032A08958091D103882311F40E94692B02
:1059100084E00E94032A08958091D103882311F422
:105920000E94692B85E00E94032A08958091D1038B
:10593000882311F40E94692B86E00E94032A0895AF
:1059400089E993E00197F1F700C0DC98D49A89E9DE
:1059500093E00197F1F700C0D498DC9ACC9BFECF7E
:1059600080E007C091E39A95F1F700008F5F8F31D7
:1059700049F0CC99F7CF89E993E00197F1F700C09E
:1059800080E008958FEF0895882361F4DC98D49A1D
:1059900084EC8A95F1F700C0D498DC9A81E38A956B
:1059A000F1F70BC0DC98D49A88E18A95F1F700C032
:1059B000D498DC9A8DED8A95F1F700000895DC9873
:1059C000D49A82E08A95F1F700C0D498DC9A96E1E7
:1059D0009A95F1F7000089B394EC9A95F1F700C01D
:1059E00090E08071907024E0959587952A95E1F775
:1059F0000895FF920F931F93CF93DF93F82EC0E08B
:105A0000D0E001E010E098010C2E02C0220F331FFD
:105A10000A94E2F78F2D82230E94C42C2196C8306D
:105A2000D10589F7DF91CF911F910F91FF900895D4
:105A30001F93CF93DF93C0E0D0E010E00E94DF2CF3
:105A4000282F30E00C2E02C0220F331F0A94E2F7F9
:105A5000122B2196C830D10589F7812FDF91CF9184
:105A60001F9108958FE00E94F92C089580B58B7FD7
:105A700080BDD498DC9A86EF8A95F1F70895EF926D
:105A8000FF920F931F93DF93CF9300D000D0CDB739
:105A9000DEB77C0119821A821B821C820E94A02C14
:105AA000882339F0282F332727FD3095432F532F94
:105AB00027C00E94322D0E94182D813019F08EEFE0
:105AC000F70180838E010F5F1F4F0E94182D89837D
:105AD0000E94182DF80181830E94182DF8018283FD
