:100000000C94D4040C9475270C94F3040C94F3040E
:100010000C94F3040C94F3040C94F3040C94F30484
:100020000C94F3040C9418270C94F3040C94F3042C
:100030000C94F3040C94F3040C94F3040C949426A1
:100040000C9494260C94F3040C94F3040C94F30491
:100050000C94F3040C94F3040C94F3040C94F30444
:100060000C94F3040C94F3040C94F3040C94F30434
:100070000C94F3040C94F3040C94F3040C94F30424
:100080000C94F3040C94F3040C94F304D217D817D3
:10009000DB17DE17E117E417EA17E717ED17F0177C
:1000A000F317FC17FF1702180518F917CF17D51704
:1000B00008180B18F617CC1708000000BE92244948
:1000C000123EABAAAA2ABECDCCCC4C3E000000808A
:1000D000BEABAAAAAA3E00000000BF000000803FFD
:1000E0000000000000084178D3BB4387D1133D19BD
:1000F0000E3CC3BD4282AD2B3E68EC8276BED98FEA
:10010000E1A93E4C80EFFFBE01C4FF7F3F0000002D
:10011000000007634236B79BD8A71A39685618AE55
:10012000BAAB558C1D3CB7CC5763BD6DEDFD753E2C
:10013000F6177231BF000000803F4572726F722067
:100140006372656174696E672073656D0D0A005591
:100150004E4B4F574E0045787465726E616C20525D
:10016000657365740042726F776E204F757420441A
:100170006574656374004661696C656420746F2002
:100180006372656174652053656D6170686F726537
:10019000004661696C656420746F206372656174E8
:1001A00065205369676E616C004B65726E656C20EB
:1001B00066756E6374696F6E206E6F7420696D7002
:1001C0006C656D656E746564004465766963652071
:1001D000447269766572204572726F72005761745D
:1001E0006368646F6720526573746172740053575B
:1001F000205761746368646F67205265737461721D
:10020000740054696D6572204F766572666C6F7705
:1002100000556E68616E646C656420496E74657229
:100220007275707420566563746F72004C6F77201E
:10023000566F6C7461676500457874726120546113
:10024000736B20737461727465642C206973206E03
:10025000726B5F6366672E68206F6B3F0049646C4A
:1002600065206F72204B65726E656C2053746163FC
:100270006B204F766572666C6F7700556E6578708F
:1002800065637465642052657374617274004475AB
:10029000706C696361746564205461736B204944B8
:1002A000005363686564756C6572204D697373658E
:1002B000642057616B657570005461736B205265E3
:1002C00073657276652056696F6C6174656400525F
:1002D000657365727665204572726F7220696E2053
:1002E0005363686564756C657200496E76616C690C
:1002F0006420537461636B20506F696E7465720083
:100300005461736B20537461636B204F7665726622
:100310006C6F7700537461636B20776173206E6F2D
:100320007420646566696E6564206173206C617217
:10033000676520656E6F75676821005461736B2077
:10034000706572696F6420746F6F206C617267658D
:100350002E20506572696F64206D7573742062651C
:10036000206C657373207468616E2036312073656C
:10037000636F6E64732E00293A20002A4E524B2080
:100380004552524F5228000D0A535441434B2044CA
:10039000554D500D0A000A0D006E726B5F71756548
:1003A00075653A200008082A1C08081C2A0808401D
:1003B000444A514040514A444014741C17141020C0
:1003C0007F010100000000000000000000081C2C5C
:1003D00008087F01010101010101017F7F404040C8
:1003E00040404040407F000000000000000000004E
:1003F00000000000007911271179000000000000C2
:100400000000000000000000007F010101036050B7
:1004100048447E3E4949493E700C030C706349498B
:100420004963017F017F01635549414106017E0116
:100430000608557F55080F107F100F4E7101714E41
:100440003844443844000000000000005F0000030E
:1004500000030000143E143E1426497F4932621501
:100460002A542336495620500003000000001C2265
:1004700041000041221C0000140E140008083E0830
:1004800008006000000008080808000040000000A4
:1004900060100804033E4141413E04027F000062B7
:1004A0005149454222414949360C0B087E084F49C3
:1004B0004949313E494949326111090503364949E3
:1004C0004936264949493E002200000000610000EB
:1004D00000081414222214141414142222141408D0
:1004E00006015905023E415D555E7E0909097E7F80
:1004F000494949363E414141227F4141413E7F4980
:100500004949417F090909013E414949327F0808AB
:10051000087F00007F0000204040403F7F081422F9
:10052000417F404040007F0204027F7F021C207F09
:100530003E4141413E7F090909063E4151617E7FAE
:1005400009192946264949493201017F01013F40E5
:1005500040403F1F2040201F3F4030403F63140871
:100560001463030478040361514945437F4100004B
:10057000000000000000000000417F0601060000AE
:100580004040404040010200000020545454787F15
:10059000484848303844444428384444447F385418
:1005A000545418087E0909010C5252523E7F04042B
:1005B0000478047D404020204040443D007F1028C6
:1005C00044203E5149467C047C04787C080404782D
:1005D00038444444387E1212120C0C1212127E045B
:1005E000780404084854545424043F4444403C4094
:1005F000403C401C2040201C3C4030403C442810E3
:100600002844264848483E4464544C4400083E412F
:100610000000007F000000413E08000000000000D4
:1006200000000000000000000000000000000000CA
:100630000000000020483E09020000000000000009
:1006400000000004047F040400000000000000001B
:10065000000000000000000000000000000000009A
:10066000000000000000000000000000000000008A
:10067000000000000000000000000000000000007A
:100680000000000002040102000000000000001849
:100690001800000000000000000000000000000042
:1006A000000000000000000000000000000000004A
:1006B000000000000000000000000000000000003A
:1006C00000000000000000000000000079000000B1
:1006D00000000000487E4949420000000000151655
:1006E0007C161500000000000A5555552800010031
:1006F00001003E635D6B3E000000000008142A14F8
:1007000022000000000000000000003E41754B3E4A
:1007100001010101010002050200000000000000CB
:1007200000000000000000000000000000000000C9
:10073000000000060F7F017F0000000000000000A5
:1007400000000000000000070507000022142A1422
:10075000080F003C20780F0048645800000000009B
:10076000304845402000000000000000000000006C
:10077000000000007229292A717825242578702A22
:10078000252A707E097F49490E51517111000000E0
:1007900000007C545655440000000000000000009A
:1007A0000000000000000000000000000000000049
:1007B000000000000000000000007A09112279000A
:1007C00000000000000000000000000000003A45AA
:1007D0004546393D4242423D22140814225C322AE9
:1007E000261D0000000000000000000000000000C6
:1007F000003C4140413C00000000000000000000BF
:10080000000000000020555654782054565578209A
:100810005655567822515556792055545578000032
:1008200000000024547854580C5252721238555615
:100830005418385456551838565556183855545576
:100840001800497A400000487A4100004A79420085
:10085000004A78420000000000007A11090A713055
:10086000494A483030484A4930304A494A3032498A
:10087000494A31304A484A3008082A080818643C76
:1008800026183841422078384042217838424122A7
:10089000783842402278000000000000000000008C
:1008A0000C5150513C6E616E00696E660000407ADA
:1008B00010F35A00A0724E18090010A5D4E80000E9
:1008C000E87648170000E40B54020000CA9A3B0087
:1008D0000000E1F505000080969800000040420FFE
:1008E000000000A08601000000102700000000E8C2
:1008F00003000000006400000000000A0000000087
:10090000000100000000002C76D888DC674F082327
:10091000DFC1DFAE59E1B1B796E5E3E453C63AE68D
:1009200051997696E8E6C28426EB898C9B62ED406D
:100930007C6FFCEFBC9C9F40F2BAA56FA5F49005BC
:100940005A2AF75C936B6CF9676DC11BFCE0E40DF0
:1009500047FEF520E6B500D0ED902E0300943577E4
:10096000050080841E080000204E0A000000C80C0C
:10097000333333330F986E12831141EF8D21148975
:100980003BE65516CFFEE6DB18D1844B381BF77CCF
:100990001D901DA4BBE424203284725E228100C914
:1009A000F124ECA1E53D270011241FBECFEFD0E1DB
:1009B000DEBFCDBF13E0A0E0B1E0E6E6FBE800E07B
:1009C0000BBF02C007900D92AA37B107D9F717E005
:1009D000AAE7B3E001C01D92AB32B107E1F70E9474
:1009E00044070C94B1450C946A266F927F928F92C3
:1009F0009F92AF92BF92CF92DF92EF92FF920F93AE
:100A00001F93CF93DF9300D000D080E091E0ADB78B
:100A1000BEB712969C938E93119714961C921E92B9
:100A200013970E9466430F900F900F900F900E94B3
:100A3000AA2000D000D000D0EDB7FEB731962AE151
:100A400031E0ADB7BEB712963C932E93119723E0D9
:100A500030E033832283848315820E946643EDB79E
:100A6000FEB736960FB6F894FEBF0FBEEDBF00E09E
:100A700010E04AE2E42E41E0F42EC3E0D0E03EE490
:100A8000C32E31E0D32E27E8A22E21E0B22E92EA27
:100A9000892E91E0992E83EB682E81E0782E00D08C
:100AA00000D000D0EDB7FEB73196ADB7BEB7129605
:100AB000FC92EE921197D383C283158304830E9424
:100AC00066430F900F90EDB7FEB7D282C182D483F8
:100AD000C3830E9466430F900F900F900F908091F8
:100AE0001804909119040E949F1C8F3F21F486E7FF
:100AF00091E00E94784300D000D0ADB7BEB7129607
:100B0000BC92AE9211971496DC93CE9313970E94E9
:100B100066430F900F900F900F9080911804909162
:100B200019040E94211C8F3F71F400D000D0EDB752
:100B3000FEB792828182D483C3830E9466430F9062
:100B40000F900F900F9000D000D0ADB7BEB71296A7
:100B50007C926E9211971496DC93CE9313970E9419
:100B600066430F900F900F900F900E9417200F5F19
:100B70001F4F95CF6F927F928F929F92AF92BF92AD
:100B8000CF92DF92EF92FF920F931F93CF93DF9359
:100B900000D000D080E091E0ADB7BEB712969C9334
:100BA0008E93119714961C921E9213970E9466437F
:100BB0000F900F900F900F900E94AA2000D000D0AD
:100BC00000D0EDB7FEB731962AE131E0ADB7BEB740
:100BD00012963C932E93119722E030E033832283C8
:100BE000848315820E946643EDB7FEB736960FB632
:100BF000F894FEBF0FBEEDBF00E010E0FAE2EF2E6A
:100C0000F1E0FF2EC2E0D0E0EEE4CE2EE1E0DE2EF9
:100C100077E8A72E71E0B72E62EA862E61E0962E65
:100C200053EB652E51E0752E00D000D000D0EDB70B
:100C3000FEB73196ADB7BEB71296FC92EE92119701
:100C4000D383C283158304830E9466430F900F9061
:100C5000EDB7FEB7D282C182D483C3830E946643BC
:100C60000F900F900F900F9080911804909119049D
:100C70000E949F1C8F3F21F486E791E00E947843F9
:100C800000D000D0ADB7BEB71296BC92AE9211970D
:100C90001496DC93CE9313970E9466430F900F90A7
:100CA0000F900F9080911804909119040E94211CBC
:100CB0008F3F71F400D000D0EDB7FEB792828182F1
:100CC000D483C3830E9466430F900F900F900F90C0
:100CD00000D000D0ADB7BEB712967C926E9211973D
:100CE0001496DC93CE9313970E9466430F900F9057
:100CF0000F900F900E9417200F5F1F4F95CF6F929C
:100D00007F928F929F92AF92BF92CF92DF92EF929B
:100D1000FF920F931F93CF93DF9300D000D080E01A
:100D200091E0ADB7BEB712969C938E93119714962F
:100D30001C921E9213970E9466430F900F900F9083
:100D40000F900E94AA2000D000D000D0EDB7FEB7CF
:100D500031962AE131E0ADB7BEB712963C932E939F
:100D6000119721E030E033832283848315820E942F
:100D70006643EDB7FEB736960FB6F894FEBF0FBECA
:100D8000EDBF00E010E02AE2E22E21E0F22EC1E009
:100D9000D0E09EE4C92E91E0D92E87E8A82E81E00C
:100DA000B82EB2EA8B2EB1E09B2EA3EB6A2EA1E007
:100DB0007A2E00D000D000D0EDB7FEB73196ADB797
:100DC000BEB71296FC92EE921197D383C28315831D
:100DD00004830E9466430F900F90EDB7FEB7D28256
:100DE000C182D483C3830E9466430F900F900F90FB
:100DF0000F9080911804909119040E949F1C8F3FBE
:100E000021F486E791E00E94784300D000D0ADB78E
:100E1000BEB71296BC92AE9211971496DC93CE9305
:100E200013970E9466430F900F900F900F90809140
:100E30001804909119040E94211C8F3F71F400D076
:100E400000D0EDB7FEB792828182D483C3830E9423
:100E500066430F900F900F900F9000D000D0ADB769
:100E6000BEB712967C926E9211971496DC93CE9335
:100E700013970E9466430F900F900F900F900E945F
:100E800017200F5F1F4F95CF1F930E94571387E0C6
:100E900090E00E94A6138FEC91E00E9478430E949C
:100EA000951460E070E0CB0120E030E0A9010E94E1
:100EB0001B2211E01093710587E194E090936C057B
:100EC00080936B0587E993E090936E0580936D05A1
:100ED000109373058FE796E09093700580936F05EC
:100EE00082E080937205109374058091DF019091E8
:100EF000E001A091E101B091E2018093750590932A
:100F00007605A0937705B093780510927905109235
:100F10007A0510927B0510927C0580917A0390915E
:100F20007B03A0917C03B0917D0380937D0590931A
:100F30007E05A0937F05B0938005109281051092E5
:100F400082051092830510928405109285051092F7
:100F500086051092870510928805109289051092D7
:100F60008A0510928B0510928C058AE695E00E9406
:100F7000631E1093A20482E495E090939D048093F5
:100F80009C0482EC94E090939F0480939E041093C1
:100F9000A4048AEB95E09093A1048093A00410939D
:100FA000A3041093A5048091E3019091E401A09122
:100FB000E501B091E6018093A6049093A704A09365
:100FC000A804B093A9041092AA041092AB04109242
:100FD000AC041092AD0480917E0390917F03A091A8
:100FE0008003B09181038093AE049093AF04A093EB
:100FF000B004B093B1041092B2041092B3041092F2
:10100000B4041092B5041092B6041092B704109272
:10101000B8041092B9041092BA041092BB04109252
:10102000BC041092BD048BE994E00E94631E1093EF
:101030004B058AE994E090934605809345058AE143
:1010400094E0909348058093470510934D0585EFF4
:1010500094E090934A058093490510924C051093B3
:101060004E058091E7019091E801A091E901B091CE
:10107000EA0180934F0590935005A0935105B093DA
:101080005205109253051092540510925505109276
:1010900056058091820390918303A0918403B091BF
:1010A00085038093570590935805A0935905B093F5
:1010B0005A0510925B0510925C0510925D05109226
:1010C0005E0510925F051092600510926105109206
:1010D00062051092630510926405109265051092E6
:1010E000660584E495E00E94631E81E062E00E9450
:1010F000C81B9093190480931804009721F48AE385
:1011000091E00E9476110E945B1580E090E01F91B3
:10111000089590E09C012B503040220F331F220F86
:10112000331F865A9E4B820F931FF894C09828E174
:101130002FB9779BFECF9FB9779BFECF8FB9779B57
:10114000FECFC09A78940895F894C0981FB8779B02
:10115000FECF8FB1C09A789486FFF6CF0895809124
:1011600005020E948911809104020E94CF11089506
:10117000809105020E948911809104020E948911C8
:101180000895F894C09887E08FB9779BFECFC09AF6
:10119000C09886E08FB9779BFECFC09A7894089567
:1011A000F894C09881E08FB9779BFECFC09A88EE03
:1011B00093E00E94D12578940895809122060895A5
:1011C000FC01C09889EC8FB9779BFECF80E88FB97E
:1011D000779BFECF82E08150DF01A80FB11D9C916B
:1011E0009FB9779BFECF8823B1F7C09AC0988BEC4C
:1011F0008FB9779BFECF80E88FB9779BFECF82E0D7
:101200008150DF01A80FB11D12969C9112979FB9D2
:10121000779BFECF8823A1F7C09A80818093230615
:101220008181809324068281809325068381809327
:10123000260608958F929F92AF92BF92CF92DF922F
:10124000EF92FF920F931F93DF93CF9300D000D0C4
:10125000CDB7DEB7E82E092F84E690E00E94D125B5
:10126000F02E20E031E08E010F5F1F4FF3E0CF2E14
:10127000D12CCC0EDD1EF70191907F018824808156
:1012800090E0882999299A83898384E690E02B83CA
:101290003C830E94D125C0982B813C81822F80689D
:1012A0008FB9779BFECFC90195958795807C8FB9C3
:1012B000779BFECF5801F80181918FB9779BFECFC4
:1012C000EC15FD05C9F7C09A2E5F3F4FF1E02031C4
:1012D0003F0789F684E690E00E94D12520E431E0C2
:1012E00080E191E01A821982C098422F40684FB97C
:1012F000779BFECFA90155954795407C4FB9779BC9
:10130000FECFF80141914FB9779BFECFEC15FD055B
:10131000C9F7C09AC098482F40684FB9779BFECF55
:10132000AC0155954795407C4FB9779BFECFF801AE
:1013300041914FB9779BFECFEC15FD05C9F7C09AD7
:1013400002962E5F3F4F41E08E31940759F681E0BF
:1013500090E09A838983C0988EEC8FB9779BFECFFB
:1013600080E88FB9779BFECFC8010296F8012191E2
:101370002FB9779BFECFE817F907C9F7C09AC09835
:101380008EE98FB9779BFECF80E88FB9779BFECF30
:101390000E5F1F4FF50181915F018FB9779BFECFE3
:1013A000A016B106B9F7C09A0F900F900F900F904A
:1013B000CF91DF911F910F91FF90EF90DF90CF9031
:1013C000BF90AF909F908F900895C09889E18FB99A
:1013D000779BFECF83E08FB9779BFECF86E08FB9F6
:1013E000779BFECFC09AC0988AE18FB9779BFECFDA
:1013F0008EE08FB9779BFECF8EE08FB9779BFECFC3
:10140000C09A81E0809313060895C09889E18FB94E
:10141000779BFECF81E08FB9779BFECF84EC8FB9AD
:10142000779BFECFC09A1092130608958091110603
:1014300090911206089590E08F719070806E906A7E
:10144000C09825E12FB9779BFECF9FB9779BFECF40
:101450008FB9779BFECFC09A08950E94890808959E
:1014600080911406909115069860909315068093CC
:101470001406C09881E18FB9779BFECF8091150645
:101480008FB9779BFECF809114068FB9779BFECFE3
:10149000C09A08958091140690911506977F9093B5
:1014A000150680931406C09881E18FB9779BFECF13
:1014B000809115068FB9779BFECF809114068FB966
:1014C000779BFECFC09A089581E08093210680919A
:1014D000140690911506806190931506809314066A
:1014E000C09881E18FB9779BFECF809115068FB9A7
:1014F000779BFECF809114068FB9779BFECFC09A61
:1015000008951092210680911406909115068F7E01
:101510009093150680931406C09881E18FB9779B4C
:10152000FECF809115068FB9779BFECF8091140670
:101530008FB9779BFECFC09A0895DF93CF9300D0E9
:10154000CDB7DEB79A83898390931D0680931C06DE
:1015500084EF91E00E94D125C0988AEE8FB9779BE5
:10156000FECF80E88FB9779BFECFFE013196CE018A
:10157000039621912FB9779BFECFE817F907C9F79A
:10158000C09A84EF91E00E94D1250F900F90CF91E7
:10159000DF910895CF93DF93EC01862FC09898E0F8
:1015A0009FB9779BFECFC09AC09898E09FB9779B70
:1015B000FECFC09A0E948908D0931706C0931606E2
:1015C000DF91CF910895DF92EF92FF920F931F93D7
:1015D000DF93CF9300D0CDB7DEB78C01D62E5A83E0
:1015E00049837901DD9A88EE93E00E94E613DE9844
:1015F00081E090E00E94E613DE9A84E690E00E948B
:10160000E613F894C09881E08FB9779BFECFC09A1B
:1016100082EE92E09093150680931406C09881E1C3
:101620008FB9779BFECF809115068FB9779BFECF40
:10163000809114068FB9779BFECFC09AC09882E143
:101640008FB9779BFECF85E08FB9779BFECF1FB810
:10165000779BFECFC09AC0988CE18FB9779BFECF65
:101660001FB8779BFECF8FE78FB9779BFECFC09ACD
:10167000C09889E18FB9779BFECF81E08FB9779BC6
:10168000FECF84EC8FB9779BFECFC09AC09887E1DC
:101690008FB9779BFECF8AE18FB9779BFECF86E526
:1016A0008FB9779BFECFC09A84EF91E00E94D1253D
:1016B000C09888EE8FB9779BFECF80E88FB9779B73
:1016C000FECFFE013196CE01039621912FB9779B73
:1016D000FECFE817F907C9F7C09A84EF91E00E949E
:1016E000D12578948D2D0E9489087894109317063F
:1016F0000093160689819A8190931B0680931A069F
:10170000F0921D06E0921C061092180610921E061A
:101710000E94A4081092210610921306109222062D
:101720000F900F90CF91DF911F910F91FF90EF904D
:10173000DF90089581E080931E06C09883E08FB902
:10174000779BFECFC09AC09888E08FB9779BFECF79
:10175000C09A10922706089581E080931E06C098D3
:1017600083E08FB9779BFECFC09AC09888E08FB98D
:10177000779BFECFC09A10922706089510921E06FE
:10178000C09886E08FB9779BFECFC09A109227064B
:101790000895BF92CF92DF92EF92FF920F931F9323
:1017A000DF93CF9300D00F92CDB7DEB78C016B01E2
:1017B0007A010E946826C09888E08FB9779BFECF97
:1017C000C09AC09888E08FB9779BFECFC09A0E99D7
:1017D000FECF8499FCCFF894C09889E08FB9779BAD
:1017E000FECFC09AC09889E08FB9779BFECFC09A90
:1017F000D80112965C911297252F332727FD30953B
:10180000BB2440E00AC0D8011396ED91FC911497D7
:10181000E80FF91F8081B80E4F5F842F90E0821788
:1018200093078CF3545FC0988EE38FB9779BFECFFC
:101830005FB9779BFECFC09AF8018681882319F0A3
:1018400081E698E802C081E498E89A838983C09889
:101850008EE38FB9779BFECFFE013196CE010396C2
:1018600021912FB9779BFECFE817F907C9F7C09AE6
:10187000C0988EE38FB9779BFECF809118068FB901
:10188000779BFECFC09AC0988EE38FB9779BFECF2F
:1018900080E090E0FC01EA5EF94F24812FB9779B4C
:1018A000FECF019682309105A9F7C09AC0988EE3C9
:1018B0008FB9779BFECF80E090E0F801E80FF91F29
:1018C00020812FB9779BFECF019682309105A9F731
:1018D000C09AC0988EE38FB9779BFECF80E090E0EE
:1018E000FC01EA5EF94F26812FB9779BFECF019666
:1018F00082309105A9F7C09AC601B7010E94F4256C
:10190000D80115968C9115978823A9F180911E0610
:10191000882331F4C09883E08FB9779BFECFC09ABB
:10192000C0981FB8779BFECF8FB1C09A81FFF8CFC8
:1019300020E0A5E0EA2EC098EFB8779BFECFC09AD2
:10194000C0981FB8779BFECFCFB0C09A2F5F2536C7
:1019500049F4789480911106909112060E94211CFE
:1019600080E060C084E690E02B830E94E6132B8128
:10197000C3FEE1CF06C0C09884E08FB9779BFECF4D
:10198000C09AC0988EE38FB9779BFECF40E00CC021
:10199000D8011396ED91FC911497E80FF91F8081FF
:1019A0008FB9779BFECF4F5F842F90E0F8012281A3
:1019B000332727FD30958217930754F3C09AC098B8
:1019C0008EE38FB9779BFECFBFB8779BFECFC09ACF
:1019D000849BFECFF8948499FECFC09888E08FB99D
:1019E000779BFECFC09AC09888E08FB9779BFECFD7
:1019F000C09AC09889E08FB9779BFECFC09AC098F3
:101A000089E08FB9779BFECFC09AC09886E08FB9E6
:101A1000779BFECFC09A7894809118068F5F809351
:101A2000180681E00F900F900F90CF91DF911F91DA
:101A30000F91FF90EF90DF90CF90BF900895FF92AD
:101A40000F931F93DF93CF9300D0CDB7DEB7FC0188
:101A500080911306882331F0C0988DE08FB9779B71
:101A6000FECFC09A3281432F552747FD509520E085
:101A700060E007C0A381B481A80FB91F8C91280F23
:101A80006F5F862F90E084179507A4F3832F845F00
:101A90009091130691118C5FC09898E09FB9779B45
:101AA000FECFC09AC09898E09FB9779BFECFC09AAE
:101AB0000E99FECF8499FCCFF894C09899E09FB915
:101AC000779BFECFC09AC09899E09FB9779BFECFD5
:101AD000C09AC0989EE39FB9779BFECF8FB9779B42
:101AE000FECFC09A81E498E89A8389838091210689
:101AF000882321F081E698E89A83898380911306F0
:101B0000882329F089819A8188609A838983C09883
:101B10008EE38FB9779BFECFDE011196CE0103963F
:101B20003D913FB9779BFECFA817B907C9F7C09A77
:101B3000C0988EE38FB9779BFECF809118068FB93E
:101B4000779BFECFC09AC0988EE38FB9779BFECF6C
:101B500080E090E0DC01AA5EB94F14963C911497A6
:101B60003FB9779BFECF01968230910599F7C09AD5
:101B7000C0988EE38FB9779BFECF80E090E0DF01C5
:101B8000A80FB91F3C913FB9779BFECF01968230D9
:101B90009105A9F7C09AC0988EE38FB9779BFECFC5
:101BA00080E090E0DC01AA5EB94F16963C91169752
:101BB0003FB9779BFECF01968230910599F7C09A85
:101BC00080911306882381F0C0988EE38FB9779BAC
:101BD000FECFA3E2B6E08D918FB9779BFECF86E072
:101BE000A732B807C1F7C09AC0988EE38FB9779B28
:101BF000FECF30E009C0A381B481A80FB91F8C913A
:101C00008FB9779BFECF3F5F832F90E042815527AE
:101C100047FD50958417950774F3C09AC0988EE3DA
:101C20008FB9779BFECF2FB9779BFECFC09A858166
:101C3000882391F180911E06882331F4C09883E0B7
:101C40008FB9779BFECFC09AC0981FB8779BFECF05
:101C50008FB1C09A81FFF8CF10E005E0C0980FB9AE
:101C6000779BFECFC09AC0981FB8779BFECFFFB07E
:101C7000C09A1F5F153649F47894809111069091AF
:101C800012060E94211C80E043C084E690E00E947E
:101C9000E613F3FEE3CF06C0C09884E08FB9779BCC
:101CA000FECFC09A7894849BFECF8499FECF80911A
:101CB00021068823F9F084EA92E00E94E613B79B9C
:101CC0000BC0C0988FE78FB9779BFECF1FB8779B6B
:101CD000FECF8FB1C09A0EC0C09888E08FB9779BB5
:101CE000FECFC09AC09888E08FB9779BFECFC09A8C
:101CF00080E001C081E0F894C09896E09FB9779B9E
:101D0000FECFC09A7894909118069F5F9093180622
:101D10000F900F90CF91DF911F910F91FF90089539
:101D200081E0849B80E0089581E00E9B80E008952F
:101D300081E0849B80E00895DF93CF9300D000D0B2
:101D4000CDB7DEB70E9BC7C1109222060E9B1AC0FC
:101D5000B79918C0C0988FE78FB9779BFECF1FB88F
:101D6000779BFECF8FB1C09AC09888E08FB9779BE0
:101D7000FECFC09AC09888E08FB9779BFECFC09AFB
:101D80008FEFAAC1C0988FE78FB9779BFECF1FB89E
:101D9000779BFECF4FB1C09A4F77C1F4C0988FE7C1
:101DA0008FB9779BFECF1FB8779BFECF8FB1C09ABC
:101DB000C09888E08FB9779BFECFC09AC09888E022
:101DC0008FB9779BFECFC09A8EEF86C14C3084F0DE
:101DD000E0911606F0911706842F992787FD9095BC
:101DE0000B972481332727FD3095281739077CF579
:101DF000C0988FE78FB9779BFECF50E0842F99274B
:101E000087FD909504C01FB8779BFECF5F5F252F9D
:101E100030E02817390714F4B799F5CFC09AC09865
:101E20008FE78FB9779BFECF1FB8779BFECF8FB11F
:101E3000C09AC09888E08FB9779BFECFC09AC098AF
:101E400088E08FB9779BFECFC09A8DEF45C1E091B6
:101E50001606F09117064C504383C0988FE78FB950
:101E6000779BFECFFE013196CE0103961FB8779B7C
:101E7000FECF2FB12193E817F907C1F7C09AE0917F
:101E80001606F0911706998181E095FF80E087831F
:101E9000C0988FE78FB9779BFECF1FB8779BFECF97
:101EA000E0911606F09117068FB18083C09AC09812
:101EB0008FE78FB9779BFECF84E005C01FB8779B73
:101EC000FECF815011F0B799F9CFC09AC0988FE733
:101ED0008FB9779BFECF80E090E01FB8779BFECF55
:101EE000E0911606F09117062FB1E80FF91F218334
:101EF00001968230910589F7C09A898183FF4DC090
:101F0000C0988FE78FB9779BFECFEDE0F6E01FB862
:101F1000779BFECF8FB1819386E0E131F807B9F767
:101F2000C09AC09889E98FB9779BFECF80E88FB9B6
:101F3000779BFECF82E08150E82FF0E0E35FF94F1E
:101F400090819FB9779BFECF8823A9F7C09AC0984C
:101F50008BE98FB9779BFECF80E88FB9779BFECF57
:101F600082E08150E82FF0E0E15FF94F90819FB966
:101F7000779BFECF8823A9F7C09AC0988CE08FB9D1
:101F8000779BFECFC09A81E080932206E0911606EF
:101F9000F0911706838184508383C0988FE78FB9AF
:101FA000779BFECF40E00FC01FB8779BFECFE0913C
:101FB0001606F09117068FB10580F681E02DE40F2B
:101FC000F11D80834F5FE0911606F0911706242FD4
:101FD00030E08381992787FD90952817390724F3EE
:101FE000C09AC0988FE78FB9779BFECF1FB8779BB9
:101FF000FECF6FB1C09AC0988FE78FB9779BFECFA5
:10200000FE013396CE0105961FB8779BFECF2FB108
:102010002193E817F907C1F7C09AE0911606F091ED
:1020200017068B81808750E040E00CC0E0911606D7
:10203000F09117060580F681E02DE80FF91F8081E9
:10204000480F5F5FE0911606F0911706852F90E02C
:102050002381332727FD3095821793073CF34617DA
:10206000C1F0C0988FE78FB9779BFECF1FB8779BE1
:10207000FECF8FB1C09AC09888E08FB9779BFECF12
:10208000C09AC09888E08FB9779BFECFC09A8CEF3A
:1020900023C08C8187FF07C0809127068F5F8093C4
:1020A000270681E019C0C0988FE78FB9779BFECFD4
:1020B0001FB8779BFECF8FB1C09AC09888E08FB9C8
:1020C000779BFECFC09AC09888E08FB9779BFECFF0
:1020D000C09A8BEF01C080E00F900F900F900F908F
:1020E000CF91DF91089580912706882329F0809170
:1020F000270610922706089580E00895C09888E08A
:102100008FB9779BFECFC09AC09888E08FB9779B34
:10211000FECFC09A0895992787FD9095982F88271C
:102120008068C09823E12FB9779BFECF9FB9779B3A
:10213000FECF8FB9779BFECFC09A0895C09886E0F6
:102140008FB9779BFECFC09AC09882E18FB9779BF9
:10215000FECF85E08FB9779BFECF88E08FB9779B64
:10216000FECFC09AC0988EE28FB9779BFECF88E1F0
:102170008FB9779BFECF1FB8779BFECFC09A0E9486
:102180007E100895C09886E08FB9779BFECFC09AE5
:10219000C09882E18FB9779BFECF85E08FB9779B9E
:1021A000FECF1FB8779BFECFC09AC0988EE28FB942
:1021B000779BFECF1FB8779BFECF1FB8779BFECFD4
:1021C000C09A0E947E100895C09886E08FB9779BD0
:1021D000FECFC09AC09882E18FB9779BFECF85E091
:1021E0008FB9779BFECF81E08FB9779BFECFC09AE6
:1021F0000E947E100895C09882E18FB9779BFECF30
:1022000085E08FB9779BFECF84E08FB9779BFECFB7
:10221000C09A0E947E10089590E08F709070209177
:10222000140630911506207F822B932B9093150670
:1022300080931406C09881E18FB9779BFECF80917F
:1022400015068FB9779BFECF809114068FB9779BC7
:10225000FECFC09A089590E026E0880F991F2A9536
:10226000E1F7907020911406309115062F73822BA0
:10227000932B9093150680931406C09881E18FB933
:10228000779BFECF809115068FB9779BFECF80910B
:1022900014068FB9779BFECFC09A0895C09884E04A
:1022A0008FB9779BFECFC09A0895C09886E08FB90A
:1022B000779BFECFC09A08955F9BFECF5F988CB14D
:1022C00008955D9BFECF5D988CB908958FEF0895BA
:1022D000882311F48BB104C0813031F480919B00CC
:1022E000881F8827881F089580E00895CF93DF9383
:1022F000EC0107C0609123077091240790E00E94D1
:102300003A43FE01219684918823A1F7DF91CF9172
:1023100008958F3F09F43FC0982F9695969596950E
:1023200021E030E002C0220F331F9A95E2F790E0DF
:102330008770907082309105D9F08330910534F424
:10234000009771F08130910541F50EC08430910500
:10235000C1F0843091058CF085309105F1F415C001
:102360008BB3822B8BBB07C088B3822B88BB03C087
:1023700085B3822B85BB81E0089582B3822B82BB1B
:10238000FACF83B1822B83B9F6CF80916200822B82
:1023900080936200F0CF8FEF08958FEF08958F3F05
:1023A00009F440C0982F96959695969521E030E0D7
:1023B00002C0220F331F9A95E2F7209590E08770B4
:1023C000907082309105D9F08330910534F40097F4
:1023D00071F08130910541F50EC084309105C1F056
:1023E000843091058CF085309105F1F415C08BB3E4
:1023F00082238BBB07C088B3822388BB03C085B30D
:10240000822385BB81E0089582B3822382BBFACF09
:1024100083B1822383B9F6CF8091620082238093B7
:102420006200F0CF8FEF08958FEF08958F3F89F10D
:10243000282F30E02770307022303105C1F0233072
:1024400031053CF42115310571F02130310509F5D4
:102450000CC02430310579F02430310554F025309A
:102460003105B9F40AC029B309C026B307C023B3A4
:1024700005C020B303C021B101C020B130E0869572
:102480008695869502C0359527958A95E2F7217045
:1024900001C02FEF822F0895882319F080B58B7F1C
:1024A00002C080B5846080BD81E008958F3F09F44B
:1024B0003FC0982F96959695969521E030E002C002
:1024C000220F331F9A95E2F790E087709070823068
:1024D0009105D9F08330910534F4009771F0813083
:1024E000910541F50EC084309105C1F0843091050D
:1024F0008CF085309105F1F415C08BB382278BBB2E
:1025000007C088B3822788BB03C085B3822785BBF9
:1025100081E0089582B3822782BBFACF83B18227FC
:1025200083B9F6CF80916200822780936200F0CF5A
:102530008FEF08958FEF08958F3F09F48CC0982F87
:1025400096959695969521E030E002C0220F331FB4
:102550009A95E2F790E0662309F04AC0322F309551
:10256000877090708230910519F1833091053CF4A9
:10257000009781F08130910509F06DC012C0843060
:10258000910521F184309105D4F08530910509F051
:1025900062C023C08AB383238ABB8BB3822B8BBBDD
:1025A00058C087B3832387BB88B3822B88BB51C0B5
:1025B00084B3832384BB85B3822B85BB4AC081B39C
:1025C000832381BB82B3822B82BB43C082B183232E
:1025D00082B983B1822B83B93CC08091610083238F
:1025E0008093610080916200822B8093620031C0F1
:1025F0008770907082309105D9F08330910534F462
:10260000009771F08130910541F50EC0843091053D
:10261000B9F08430910584F085309105F1F414C04F
:102620008AB3822B8ABB15C087B3822B87BB11C0AC
:1026300084B3822B84BB0DC081B3822B81BB09C0C4
:1026400082B1822B82B905C080916100822B809378
:10265000610081E008958FEF08958FEF08958FEF67
:102660000895009711F480E009C08130910511F4BC
:1026700088E004C08230910529F480E10E9456125E
:1026800081E008958FEF0895009711F480E009C06C
:102690008130910511F488E004C08230910529F45D
:1026A00080E10E94891181E008958FEF089580B53F
:1026B000846080BD87E087BB88BB8FEF84BB15BA81
:1026C00082E082B987E68ABB80E48BBB80E58DB966
:1026D00081E08EB980E090E00E94441381E090E0B8
:1026E0000E94441382E090E00E94441383E090E053
:1026F0000E9444130895009711F480E009C08130CE
:10270000910511F488E004C08230910529F480E13C
:102710000E94CF1181E008958FEF089590919B0062
:1027200095FFFCCF90919B009F7D90939B008093A1
:102730009C0008959093900089B986E0809395005D
:102740005298599A8AB188618AB908950F931F9354
:10275000CF93DF930E949A13C1E6D1E10CE511E11A
:10276000CE01B8010E94AD429093240780932307C5
:10277000CE01B8010E94AD429093220780932107B9
:10278000DF91CF911F910F910895909398008093BE
:10279000990086E080939D00EAE9F0E080818B7FDC
:1027A0008083ABE9B0E08C9182608C9380818861FA
:1027B0008083089580919B0087FFFCCF80919B00D0
:1027C0008F7780939B0080919C000895000000000B
:1027D000000000000197D1F708950E943D4408953C
:1027E0000E94454480E00895EF92FF920F931F935B
:1027F000CF93DF93E82EE7017E01F92EE70180E019
:1028000090E00E943D44082F8B8381E090E00E947D
:102810003D44E82E8A8382E090E00E943D44F82EF9
:10282000898383E090E00E943D44182F888384E0F0
:1028300090E00E943D44FE0CF00EF10E8F1511F455
:1028400081E001C08FEFDF91CF911F910F91FF9039
:10285000EF900895CF93DF93EC0185E090E00E9424
:102860003D44888381E0DF91CF910895FC0186E0AB
:1028700090E060810E94454481E00895CF93DF930A
:10288000EC0186E090E00E943D44888381E0DF9186
:10289000CF9108950F931F93CF93DF93082F192F94
:1028A000C8E0D0E0CE010E943D44F80181938F0141
:1028B0002196C831D105B1F781E0DF91CF911F9109
:1028C0000F9108950F931F93CF93DF93082F192F24
:1028D000C8E0D0E0F80161918F01CE010E9445442B
:1028E0002196C831D105B1F781E0DF91CF911F91D9
:1028F0000F910895CF93DF93EC0187E090E00E9461
:102900003D44888381E0DF91CF910895FC0187E009
:1029100090E060810E94454481E00895F894089514
:10292000789408950E948E14FFCF0F931F93DF9326
:10293000CF93CDB7DEB7A3970FB6F894DEBF0FBE27
:10294000CDBF0E94DD198093E2068F3F21F48EE017
:1029500060E00E9465180E944A27082F81FF04C08A
:1029600084E160E00E94651802FF04C083E160E03A
:102970000E9465181092E5061092F3061092F20676
:102980001092E4061092E3061092F4061092F106FB
:10299000E1EDF6E08FEF808382838183339696E0CA
:1029A000E03EF907C1F793E6909334068093320630
:1029B0009093550680935306909376068093740601
:1029C00090939706809395069093B8068093B606E9
:1029D000E8EFF6E020E030E001C09A01A9014F5F86
:1029E0005F4FCA01880F991F880F991F840F951F89
:1029F0008B50994F91838083C901880F991F880F4D
:102A0000991F820F931F8B50994F94838383359620
:102A10004530510511F71092F7061092F606109204
:102A20001207109211071092E8061092E70685EF40
:102A300096E090932906809328068E010F5F1F4F22
:102A4000C8016BE773E20E94C427C8016DE875E016
:102A500040E850E00E940A2885E580938D0519869C
:102A60001C861D861E861F86188A198A1A8A1B8A4A
:102A70001C8A1D8A1E8A1F8A188E198E1A8E1B8E1A
:102A80001C8E1D8E1E8E1F8E18A219A21AA21BA2AA
:102A900081E0888792E09A878B87C8010E94631E35
:102AA000A3960FB6F894DEBF0FBECDBFCF91DF91D6
:102AB0001F910F910895CF92DF92FF920F931F9372
:102AC000DF93CF9300D0CDB7DEB7B2E3CB2EB6E025
:102AD000DB2E90E0F601F080FF2DFF3FB1F002E326
:102AE00016E020E0921761F0F8018081F81641F4B9
:102AF00085E06F2D29839A830E9465189A81298128
:102B00002F5F0F5D1F4F253069F79F5F21E230E097
:102B1000C20ED31E9530F1F60E94251D992787FD20
:102B20009095FC01A5E0EE0FFF1FAA95E1F7E80FD5
:102B3000F91FE65DF94F82858093F406F093F30662
:102B4000E093F206F093E406E093E3068093E50653
:102B50000E943F280E9430280E948C33FFCFEF92C2
:102B6000FF920F931F93CF93DF93EC017B018A01B8
:102B70008985823021F08091E006888301C0188227
:102B80008091E006853020F087E060E00E946518C3
:102B90008985823029F08091E0068F5F8093E0067E
:102BA0008091E006882319F481E08093E006888113
:102BB000992787FD9095FC01A5E0EE0FFF1FAA95D0
:102BC000E1F7E80FF91FE65DF94FF182E0828885B1
:102BD00082878881992787FD9095FC0175E0EE0F2B
:102BE000FF1F7A95E1F7E80FF91FE65DF94F83E0E3
:102BF00081872881822F992787FD9095FC0165E0C8
:102C0000EE0FFF1F6A95E1F7E80FF91FE65DF94F38
:102C100020878881992787FD90957C0155E0EE0CEF
:102C2000FF1C5A95E1F7E80EF91E8AE296E0E80EDD
:102C3000F91EF7011582CE010B960E942C22F70196
:102C4000948F838F8B859C85AD85BE858E33910552
:102C5000A105B10520F086E168810E946518E88031
:102C6000FF24E7FCF094CE014B960E942C22F70142
:102C700045E0EE0FFF1F4A95E1F7EE0DFF1DE65D03
:102C8000F94F968B858B8881992787FD90957C01DC
:102C900035E0EE0CFF1C3A95E1F7E80EF91E8AE2EA
:102CA00096E0E80EF91EF70185899689238D348D0B
:102CB000820F931F908F878BCE0143960E942C2208
:102CC000F701968F858F8881992787FD9095FC0164
:102CD00025E0EE0FFF1F2A95E1F7E80FF91FE65DEB
:102CE000F94F858D968D928F818F81E090E090A332
:102CF000878F1383028381E08487DF91CF911F91B7
:102D00000F91FF90EF9008950E949623089585E615
:102D100090E00895E091F206F091F306848708951B
:102D2000E091F206F091F3068485089520916905FB
:102D3000222341F0FB01208320911704FC01208312
:102D400081E0089580E00895DF93CF930F92CDB78F
:102D5000DEB7198207C080ED97E00E94D1258981F6
:102D60008F5F898389818436B0F30F90CF91DF9193
:102D7000089581E090E00E947B130E94A41681E0F8
:102D800090E00E9444130E94A416089581E090E010
:102D90000E947B130E94A4160E94A4160E94A416EF
:102DA00081E090E00E9444130E94A4160895FF92CF
:102DB0000F931F93DF93CF9300D00F92CDB7DEB761
:102DC00000D000D000D0EDB7FEB731968E010F5F76
:102DD0001F4FADB7BEB712961C930E9311972EE0FE
:102DE00032E033832283848315820E94AF43EDB7A0
:102DF000FEB736960FB6F894FEBF0FBEEDBFFF24A8
:102E000072C0800F911FDC018C918433D1F1853326
:102E100070F48133F9F0823320F4803309F05CC020
:102E200016C0823311F1833309F056C023C08733B3
:102E3000C9F1883330F4853369F1863309F04CC029
:102E40002CC08833B1F1893309F046C03BC00E94E1
:102E5000C61602C00E94B9160E94C6160E94C61667
:102E60000E94C6160E94C61637C00E94B9160E945C
:102E7000B916F4CF0E94B9160E94B9160E94B9166D
:102E8000EFCF0E94B9160E94B9160E94B9160E948F
:102E9000B916E8CF0E94B91602C00E94C6160E9459
:102EA000B91604C00E94C6160E94C6160E94B91622
:102EB00006C00E94C6160E94C6160E94C6160E9430
:102EC000B91608C00E94C6160E94C6160E94C616F1
:102ED0000E94C6160E94B9160E94A4160E94A4164B
:102EE0000E94A416F394F80101900020E9F73197AD
:102EF000E01BF10B8F2D90E08E179F0708F481CF18
:102F00000F900F900F90CF91DF911F910F91FF9035
:102F100008950F931F9380916905882319F41F91D9
:102F20000F9108950E948E140E948E148BE793E0F7
:102F30000E94761100D000D0EDB7FEB731968EE03A
:102F400092E0ADB7BEB712969C938E931197809185
:102F50001704828313820E9466430F900F900F9094
:102F60000F9087E793E00E94761180916905883180
:102F700010F0109269058091690590E00197863103
:102F8000910508F04BC08A5B9F4FFC01EE0FFF1FBD
:102F90000590F491E02D09948BE393E041C084E126
:102FA00093E03EC080E093E03BC08AEE92E038C000
:102FB0008FEC92E035C089EB92E032C081EA92E07A
:102FC0002FC08EE892E02CC08BE792E029C08DE5FF
:102FD00092E026C088E392E023C08CE292E020C019
:102FE00081E192E01DC082E092E01AC08EEE91E095
:102FF00017C08DED91E014C089EC91E011C089EA11
:1030000091E00EC081E991E00BC086E791E008C035
:1030100085E691E005C086E591E002C08FE491E08D
:103020000E94761160912307709124078DE090E053
:103030000E943A4360912307709124078AE090E050
:103040000E943A4310E01FC082E090E00E947B1390
:1030500083E090E00E94441304E688EE93E00E942F
:10306000D1250150D1F783E090E00E947B1382E0EC
:1030700090E00E94441304E688EE93E00E94D1257C
:103080000150D1F71F5F1431FCF283E090E00E9401
:10309000441382E090E00E944413809117040E9440
:1030A000D7160E94A41682E090E00E947B130E9433
:1030B000A41682E090E00E9444130E94A41680911E
:1030C00069050E94D71610E0BFCFEF92FF920F93D1
:1030D0001F93182FE62E80936905609317040E94B2
:1030E000891700E021C082E090E00E947B1383E01A
:1030F00090E00E94441394E6F92E88EE93E00E943B
:10310000D125FA94D1F783E090E00E947B1382E00E
:1031100090E00E94441384E6F82E88EE93E00E942B
:10312000D125FA94D1F70F5F0431E8F283E090E003
:103130000E94441382E090E00E9444138E2D0E946E
:10314000D716812F0E94D71600E0CDCF8093690556
:10315000E091F206F091F3068085809317040E94B7
:10316000891708956F927F928F929F92AF92BF922C
:10317000CF92DF92EF92FF920F931F93CF93DF9343
:1031800087E893E00E94761100D000D081E192E0C0
:10319000ADB7BEB712969C938E931197E091F2064D
:1031A000F091F3068085992787FD909514969C935E
:1031B0008E9313970E946643E091F206F091F30616
:1031C000C281D3818AE192E0EDB7FEB79283818319
:1031D000D483C3830E946643EDB7FEB7319667E29E
:1031E000E62E62E0F62EADB7BEB71296FC92EE92D6
:1031F00011978881828313820E94664354E3C52E0F
:1032000052E0D52EEDB7FEB7D282C182E091F20630
:10321000F091F30680819181ADB7BEB714969C936F
:103220008E9313970E9466434EE3A42E42E0B42E81
:10323000EDB7FEB7B282A1828091F2069091F306BB
:10324000948383830E9466430AE216E00F900F90F6
:103250000F900F90C0E0D0E03EE4632E32E0732E7A
:103260004701C601DC2CC92EC501BA2CA92ED801F4
:103270001296ED90FC90139700D000D000D0EDB7DF
:10328000FEB73196ADB7BEB712967C926E9211978B
:10329000D383C283F582E4820E9466430F900F902D
:1032A000EDB7FEB73196ADB7BEB711968C921197B8
:1032B00012969C92D7018C91828313820E9466435E
:1032C000EDB7FEB7D182C282D8018D919C919483D3
:1032D00083830E946643EDB7FEB7B182A282CE011E
:1032E00025E0880F991F2A95E1F78C0F9D1F865DB9
:1032F000994F948383830E94664321960F5D1F4FED
:103300000F900F900F900F90C530D10509F0AFCFFF
:10331000DF91CF911F910F91FF90EF90DF90CF90B1
:10332000BF90AF909F908F907F906F900895CF93B4
:10333000DF93E091F206F091F306C281D381888198
:10334000853539F00E94B21881E00E94A61885E503
:103350008883E091F206F091F3068081918121E16A
:103360008030920728F00E94B21882E10E94A618CD
:10337000DF91CF910895992787FD9095FC0175E025
:10338000EE0FFF1F7A95E1F7E80FF91FE65DF94FA1
:10339000A281B3818C91853519F085E58C9309C0A4
:1033A0008081918121E18030920728F082E10E94A2
:1033B000A6188FEF089581E008956091BE04709182
:1033C000BF048091C0049091C104E0E0F0E09B0153
:1033D000AC010E2E04C056954795379527950A9453
:1033E000D2F720FD1AC021E030E040E050E00E2E80
:1033F00004C0220F331F441F551F0A94D2F7262BF7
:10340000372B482B592B2093BE043093BF04409395
:10341000C0045093C1048E2F08953196E032F10517
:10342000B1F68FEF0895E091F206F091F30665850D
:103430007685878590890895DF92EF92FF920F93AA
:103440001F93D82E81E0E82EF12C012D112D0D2C8B
:1034500004C0EE0CFF1C001F111F0A94D2F78091CC
:10346000BE049091BF04A091C004B091C1048E210C
:103470009F21A023B1230097A105B10509F45DC0E8
:103480000E948E14E1E3F6E0A801970120953095A3
:103490004095509563E081818F3F39F18681978116
:1034A000A085B1858E159F05A007B10731F412865E
:1034B0001386148615861082628386819781A08583
:1034C000B18582239323A423B52386839783A08782
:1034D000B18782859385A485B58582239323A42310
:1034E000B52382879387A487B587B19686E0E63DAA
:1034F000F80789F62EEF3FEF4FEF5FEF04C0220F82
:10350000331F441F551FDA94D2F78091BE04909167
:10351000BF04A091C004B091C10482239323A423CB
:10352000B5238093BE049093BF04A093C004B093CE
:10353000C1040E94901481E001C08FEF1F910F9190
:10354000FF90EF90DF900895EF92FF920F931F93FB
:1035500021E030E040E050E004C0220F331F441F60
:10356000551F8A95D2F7E091F206F091F306858512
:103570009685A785B08979018A01E822F9220A2374
:103580001B23E114F10401051105D1F020953095BC
:103590004095509582239323A423B523858796874E
:1035A000A787B08B81899289A389B48982239323C9
:1035B000A423B523818B928BA38BB48B81E001C0B4
:1035C0008FEF1F910F91FF90EF9008952091BE040F
:1035D0003091BF044091C0045091C104082E04C032
:1035E00056954795379527950A94D2F721703070F4
:1035F00021153105E9F0E091F206F091F30621E0A2
:1036000030E040E050E004C0220F331F441F551F3C
:103610008A95D2F785859685A785B089822B932BCD
:10362000A42BB52B85879687A787B08B81E008955B
:103630008FEF0895EF92FF920F931F93DF93CF9335
:103640000F92CDB7DEB791E0E92EF12C012D112DAF
:1036500004C0EE0CFF1C001F111F8A95D2F7809149
:10366000BE049091BF04A091C004B091C1048E210A
:103670009F21A023B1230097A105B10511F481E09A
:103680003FC00E948E14E1E3F6E020E033E0808149
:103690008130A9F482859385A485B5858E219F21EB
:1036A000A023B1230097A105B10549F03283178605
:1036B00016861082E286F3860487158721E08081D2
:1036C000823091F482859385A485B5858E159F05FA
:1036D000A007B10749F43283178616861082128636
:1036E00013861486158621E0B19686E0E63DF8073C
:1036F00071F629830E9490142981222329F482E003
:103700000E948A168FEF01C081E00F90CF91DF9168
:103710001F910F91FF90EF900895E091F206F091C4
:10372000F306258536854785508926233723482388
:103730005923211531054105510521F1618B728B0A
:10374000838B948B21E027830090E20604C096953A
:103750008795779567950A94D2F7617070706115B7
:10376000710519F00E94511F04C080E090E00E9492
:10377000781FE091F206F091F3062189328943899E
:10378000548903C020E030E0A901B901CA010895BD
:103790009091F1069430D0F4E1EDF6E020E0308134
:1037A0003F3F21F02F5F33962530C9F730E0F90114
:1037B000EE0FFF1FE20FF31FEF52F94F828380835A
:1037C00061839F5F9093F1069F0102C020E030E08B
:1037D000C9010895BC0120E030E0822FA901440F07
:1037E000551F420F531F4F52594F6417750731F041
:1037F0002F5F3F4F2530310581F78FEF08950E94ED
:10380000EA1B8F3F11F481E003C0853029F482E088
:103810000E948A168FEF0895992787FD9095FC01E5
:10382000EE0FFF1FE80FF91FEF52F94F8FEF808364
:10383000828381838091F10681508093F10681E03B
:1038400008950F931F93DF93CF930F92CDB7DEB7F9
:103850000E94EA1B8F3F11F481E003C0853029F4F8
:1038600082E00E948A168FEF64C0282F332727FD3D
:1038700030958901000F111F020F131F0F52194FAE
:10388000D80112962C9112979C9129170CF050C0D8
:1038900089830E948E14F80192819F5F9283E09148
:1038A000F206F091F3061482E2EDF6E02091F106C3
:1038B00093E0299F900111242E0F3F1F90E48981EE
:1038C0000FC0A0816A2F772767FD7095492F50E0C0
:1038D0004617570724F44181442309F49A2F33965D
:1038E000E217F30771F79093E106E1E3F6E0992719
:1038F00087FD9095A92FB92F63E02081223089F4AC
:103900002285338544855585281739074A075B0783
:1039100041F46283178616861082128613861486F7
:103920001586B19626E0E63DF20739F70E9490141D
:1039300081E00F90CF91DF911F910F9108950F9328
:103940001F93DF93CF930F92CDB7DEB70E94EA1B90
:103950008F3F11F481E003C0853029F482E00E949A
:103960008A168FEF53C089830E948E148981082F95
:10397000112707FD1095F801EE0FFF1FE00FF11F53
:10398000EF52F94F92819923B1F4E091F206F09150
:10399000F306978192609783992787FD9095A92FC9
:1039A000B92F818B928BA38BB48B0E94901480E0F3
:1039B00090E00E94781FF801EE0FFF1FE00FF11F4B
:1039C000EF52F94F828181508283A091F206B0912B
:1039D000F3065B968D919C915C972091E10630E017
:1039E0008217930710F48093E106F801EE0FFF1F92
:1039F000E00FF11FEF52F94F81811B968C931B97BB
:103A000081E014968C930E94901481E00F90CF91E6
:103A1000DF911F910F9108950E94EA1B8F3F11F4CF
:103A200081E003C0853029F482E00E948A168FEF7E
:103A30000895992787FD9095FC01EE0FFF1FE80F71
:103A4000F91FEF52F94F82810895E091E706F09156
:103A5000E806808108950F931F93CF93DF93C09161
:103A6000E706D091E80689E993E00E9476110FE518
:103A700012E01DC000D000D0EDB7FEB71283018365
:103A8000288130E0C90145E0880F991F4A95E1F788
:103A9000820F931F8F5B994F948383830E946643A9
:103AA0000B80DC81C02D0F900F900F900F9020970E
:103AB00009F786E993E00E947611DF91CF911F917B
:103AC0000F910895DF92EF92FF920F931F93CF9380
:103AD000DF93E0912806F0912906309709F49BC006
:103AE0004091E7065091E8064115510509F457C089
:103AF000DA01682F772767FD70959B0115E0220F8B
:103B0000331F1A95E1F7260F371F265D394FB9018C
:103B1000665F7F4F89010C5F1F4F9BE0E92EF12C00
:103B2000E20EF31E2C9130E0E90195E0CC0FDD1F91
:103B30009A95E1F7C20FD31FC65DD94F9C81992397
:103B400029F0DB84EB019881D91658F1E8019881BE
:103B5000992379F0E90195E0CC0FDD1F9A95E1F703
:103B6000C20FD31FC65DD94FDA84E7019881D916F9
:103B7000C0F0E90195E0CC0FDD1F9A95E1F7C20F87
:103B8000D31FC65DD94F2A85EB019881291748F0CC
:103B900013960D90BC91A02D109721F602C0A0E0C5
:103BA000B0E08083C381D481D0932906C0932806D6
:103BB000A417B507B1F4109749F0B483A383128218
:103BC00011821296FC93EE93119706C01482138211
:103BD00012821182FA83E983F093E806E093E70604
:103BE0001AC011968D919C911297AC17BD0759F090
:103BF00092838183B483A3831196CD91DC91129734
:103C0000FC83EB8304C01482138292838183129617
:103C1000FC93EE931197DF91CF911F910F91FF903D
:103C2000EF90DF900895CF93DF93E091E706F09156
:103C3000E806309709F444C0992787FD90952081C4
:103C400030E02817390781F4A381B481B093E806E6
:103C5000A093E70612961C921E92119718C003803B
:103C6000F481E02D309761F1208130E02817390789
:103C7000B1F7C181D281838194819C838B83A3819D
:103C8000B481109721F01296DC93CE931197A091F6
:103C90002806B0912906109739F4F0932906E0938D
:103CA0002806148213820AC0B483A3831296FC935D
:103CB000EE931197F0932906E09328061282118261
:103CC000DF91CF910895EF92FF920F931F93CF93BF
:103CD000DF93EC0169817A814B815C818D819E81CA
:103CE0000E94DF27BC018F81882369F04B815C81B2
:103CF000CE0120E030E000E010E0EE24FF240E943E
:103D0000AF151F8213C08881992787FD9095FC010C
:103D100025E0EE0FFF1F2A95E1F7E80FF91FE65D9A
:103D2000F94F81858330D1F471836083888199272D
:103D300087FD9095FC0105E0EE0FFF1F0A95E1F766
:103D4000E80FF91FE65DF94F85899689009741F4E0
:103D500082E0818788810E94621D02C08FEF01C0CE
:103D600081E0DF91CF911F910F91FF90EF90089527
:103D70001F93DF93CF93CDB7DEB728970FB6F89494
:103D8000DEBF0FBECDBF29833A834B835C836D8337
:103D90007E838F8398870E948E140E946826182F36
:103DA000CE0101960E942C229C018330910560F087
:103DB000E091F206F091F306210F311D368B258B31
:103DC0000E94901481E001C08FEF28960FB6F894FE
:103DD000DEBF0FBECDBFCF91DF911F9108950E942E
:103DE000D427E091F206F091F30685818823B9F794
:103DF0000895FF920F931F93DF93CF93CDB7DEB754
:103E000028970FB6F894DEBF0FBECDBF29833A8343
:103E10004B835C836D837E838F8398870E94971981
:103E20000E948E14E091F206F091F30681E0858302
:103E300081E090E090A3878F0E946826F82ECE0143
:103E400001960E942C22E091F206F091F3060F2DCC
:103E500010E09801280F391F368B258B8F2D883F56
:103E600078F40E9462260F5F1F4F282F30E0021760
:103E7000130734F48F2D8E5F809368050E946526AA
:103E80000E9490140E94EF1E81E028960FB6F894CD
:103E9000DEBF0FBECDBFCF91DF911F910F91FF907D
:103EA00008951F930E948E14E091F206F091F3069C
:103EB00081E0858386830E946826182F883F88F4D6
:103EC0000E946226212F30E02F5F3F4F482F50E0A5
:103ED0002417350734F4812F8E5F809368050E9484
:103EE00065260E9490140E94EF1E81E01F910895A4
:103EF0001F93CF93DF93EC010E948E14E091F206A2
:103F0000F091F30681E08583D68BC58B0E946826ED
:103F1000182F883F88F40E946226212F30E02F5FFF
:103F20003F4F482F50E02417350734F4812F8E5F20
:103F3000809368050E9465260E9490140E94EF1EDF
:103F400081E0DF91CF911F910895EF92FF920F933F
:103F50001F93DF93CF930F92CDB7DEB78C010E94F2
:103F60008E14E091F206F091F30681E085830E94C1
:103F70006826E091F206F091F306E82EFF240E0D7C
:103F80001F1D168B058B883F90F489830E94622643
:103F90000894E11CF11C282F30E09981E216F30609
:103FA00034F4892F8E5F809368050E9465260E94F5
:103FB00090140E94EF1E81E00F90CF91DF911F912E
:103FC0000F91FF90EF9008951F93CF93DF93EC0133
:103FD0000E949719209711F4C1E0D0E00E948E143E
:103FE000E091F206F091F30681E08583D0A3C78FBC
:103FF0000E946826182F883F88F40E946226212F8D
:1040000030E02F5F3F4F482F50E02417350734F43E
:10401000812F8E5F809368050E9465260E94901410
:104020000E94EF1E81E0DF91CF911F9108951F93B1
:104030000E9497190E948E14E091F206F091F30607
:1040400081E090E090A3878F81E085830E946826BD
:10405000182F883F88F40E946226212F30E02F5FBE
:104060003F4F482F50E02417350734F4812F8E5FDF
:10407000809368050E9465260E9490140E94EF1E9E
:1040800081E01F910895E091F206F091F30680859A
:104090000E94131EE091F206F091F30684E08187FE
:1040A0000E94172081E008958F929F92AF92BF9255
:1040B000CF92DF92EF92FF920F931F93DF93CF93F4
:1040C000CDB7DEB760970FB6F894DEBF0FBECDBF99
:1040D00029873A874B875C876D877E878F87988B88
:1040E000CE0101960E94B020CE01099609851A855D
:1040F0002B853C854D855E856F85788989809A8082
:10410000AB80BC80CD80DE80EF80F8840E940E21E1
:104110008F3F61F029853A854B855C856D857E856D
:104120008F8598890E94F91E81E001C08FEF60960B
:104130000FB6F894DEBF0FBECDBFCF91DF911F91B8
:104140000F91FF90EF90DF90CF90BF90AF909F9036
:104150008F900895E091F206F091F306808508951E
:10416000EF92FF920F931F93CF93DF93EC011C828A
:104170001D821E821F828091E9069091EA06A0911D
:10418000EB06B091EC0688839983AA83BB83E09009
:10419000ED06F090EE060091EF061091F006EC822D
:1041A000FD820E831F830E946826682F70E080E0E6
:1041B00090E023EB36EE4EE050E00E9433416E0D6E
:1041C0007F1D801F911F6C837D838E839F8313C00F
:1041D00080509A4CAA49BB438C839D83AE83BF8396
:1041E00088819981AA81BB810196A11DB11D888317
:1041F0009983AA83BB838C819D81AE81BF818030EE
:104200002AEC92072AE9A2072BE3B20708F7DF910D
:10421000CF911F910F91FF90EF9008958F929F92F1
:10422000AF92BF92CF92DF92EF92FF920F931F93C4
:10423000DF93CF93CDB7DEB760970FB6F894DEBFAC
:104240000FBECDBFFC0109831A832B833C834D83B2
:104250005E836F83788789869A86AB86BC86CD8697
:10426000DE86EF86F88AE980FA800B811C812D8139
:104270003E814F815885A984BA84CB84DC848D85A6
:104280009E85AF85B889EA14FB040C051D0508F46A
:1042900040C0AE14BF04C006D10691F428173907F8
:1042A0004A075B07B0F1281B390B4A0B5B0B2483D1
:1042B000358346835783108211821282138227C06E
:1042C000281739074A075B0790F40894E108F108BA
:1042D00001091109EA18FB080C091D09E082F182A5
:1042E00002831383205036434546544C08C0EA18D5
:1042F000FB080C091D09E082F18202831383281B4D
:10430000390B4A0B5B0B248335834683578381E04B
:1043100001C08FEF60960FB6F894DEBF0FBECDBF21
:10432000CF91DF911F910F91FF90EF90DF90CF9091
:10433000BF90AF909F908F900895FC0114C02050C3
:104340003A4C4A495B432483358346835783208113
:104350003181428153812F5F3F4F4F4F5F4F208309
:1043600031834283538324813581468157812030B4
:104370008AEC38078AE948078BE3580700F7089565
:104380008F929F92AF92BF92CF92DF92EF92FF9265
:104390000F931F93DF93CF93CDB7DEB760970FB620
:1043A000F894DEBF0FBECDBF09831A832B833C83F5
:1043B0004D835E836F83788789869A86AB86BC86B9
:1043C000CD86DE86EF86F88A29853A854B855C8521
:1043D000E980FA800B811C812E0D3F1D401F511F6B
:1043E000FC0120833183428353832D853E854F8595
:1043F0005889ED80FE800F8118852E0D3F1D401FCE
:10440000511F24833583468357830E949D2181E079
:1044100060960FB6F894DEBF0FBECDBFCF91DF918F
:104420001F910F91FF90EF90DF90CF90BF90AF90D2
:104430009F908F9008956093E9067093EA068093A9
:10444000EB069093EC062093ED063093EE06409336
:10445000EF065093F00608958F929F92AF92BF920D
:10446000CF92DF92EF92FF920F931F93FC01208176
:1044700031814281538164817581868197812115C3
:1044800031054105510509F461C02234310541056A
:10449000510508F062C05B016C01EE24FF24870126
:1044A00060E038C08A2CAB2DA653F1E0AB1508F0C4
:1044B000F0E08C2D865691E08C1508F090E0F80F16
:1044C00071E0F81708F070E0972B7D2D755CE1E046
:1044D0007D1508F0E0E0970F81E0971708F080E085
:1044E0008E2B8E0DE1E08E1508F0E0E0EF0D71E00F
:1044F000EF1508F070E0700FB1E0701708F0B0E051
:10450000B10FA82CBA2ECF2ED92EE82EFE2E072FB3
:104510001B2F6F5F862F90E0A0E0B0E0821793071B
:10452000A407B50708F4BECF9501A601B701C801DD
:10453000A3EBAA2EF6EEBF2EEEE0CE2EDD24EE2467
:10454000FF2400E010E00E94B73309C023EB36EEF1
:104550004EE050E00E94664102C020E030E0C90118
:104560001F910F91FF90EF90DF90CF90BF90AF9091
:104570009F908F900895EF92FF920F931F93DF9378
:10458000CF93CDB7DEB728970FB6F894DEBF0FBE36
:10459000CDBF7B018C01BAE016950795F794E7949F
:1045A000BA95D1F7E982FA820B831C83737080700D
:1045B000907023EB36EE4EE050E00E9433416D8365
:1045C0007E838F8398872E2D3A814B815C8128963C
:1045D0000FB6F894DEBF0FBECDBFCF91DF911F9114
:1045E0000F91FF90EF9008958F929F92AF92BF929C
:1045F000CF92DF92EF92FF920F931F93FC012081E5
:104600003181428153816481758186819781211531
:1046100031054105510509F45BC05B016C01EE24D5
:10462000FF24870160E038C08A2CAB2DA653F1E04F
:10463000AB1508F0F0E08C2D865691E08C1508F053
:1046400090E0F80F71E0F81708F070E0972B7D2DDF
:10465000755CE1E07D1508F0E0E0970F81E09717C9
:1046600008F080E08E2B8E0DE1E08E1508F0E0E082
:10467000EF0D71E0EF1508F070E0700FB1E070170A
:1046800008F0B0E0B10FA82CBA2ECF2ED92EE82E0C
:10469000FE2E072F1B2F6F5F862F90E0A0E0B0E06B
:1046A00082179307A407B50708F4BECF9501A601AA
:1046B000B701C801E3EBAE2E06EEB02E1EE0C12E10
:1046C000DD24EE24FF2400E010E00E94B73306C092
:1046D00023EB36EE4EE050E00E946641B901CA017C
:1046E0001F910F91FF90EF90DF90CF90BF90AF9010
:1046F0009F908F9008951F9311E00E9497190E9438
:104700006226853110F41093E6060E94D42780912A
:104710008D05853519F088E00E94A61880917E10DD
:10472000853559F388E00E94A618E7CF2F923F9273
:104730004F925F926F927F928F929F92AF92BF92B1
:10474000CF92DF92EF92FF920F931F93DF93CF935D
:104750000F92CDB7DEB70E9461260E948E140E9490
:10476000DD250E94E3252C018AEF0E9465266091D9
:10477000680570E080E090E023EB36EE4EE050E01C
:104780000E9433417B018C018091ED069091EE06F1
:10479000A091EF06B091F006E80EF91E0A1F1B1F4C
:1047A000C801B7010E946641E61AF70A080B190B07
:1047B0008091E9069091EA06A091EB06B091EC0693
:1047C00073EBA72E76EEB72E7EE0C72ED12C14C049
:1047D00080E096E3A5E6B4ECE80EF91E0A1F1B1F65
:1047E000C801B701A60195010E946641E61AF70AC1
:1047F000080B190BD401C3013C014D010894611C45
:10480000711C811C911CE0E0EE16EAECFE06EAE960
:104810000E07EBE31E07E0F68093E9069093EA06A5
:10482000A093EB06B093EC06E092ED06F092EE0654
:104830000093EF061093F006E091F206F091F30674
:1048400085818823B9F081858430A1F08781823009
:1048500029F0882341F08681882311F485E001C086
:1048600083E0818704C083E0818717821682808578
:104870000E94131EE091F206F091F306858D968D4D
:10488000009799F16085662381F18185843069F113
:10489000218D328D8091680590E02817390750F4FA
:1048A00082E00E946518E091F206F091F306128E04
:1048B000118E04C0281B390B328F218FE091F20634
:1048C000F091F3060085218D328D2115310569F4B3
:1048D00083E0602F0E946518E091F206F091F306E4
:1048E00083E08187802F0E94131E6FE2262E66E0F0
:1048F000362E00E61AEE20E051E0652E712C4AEFCC
:10490000E42EF12C32E0932E91E0A92EB12CC12C93
:10491000D12CD10113968C9113978F3F09F4C4C009
:104920001C92882309F443C014968C911497843008
:10493000F1F150964D915C9151978091680590E00E
:104940004817590738F0481B590B51965C934E9302
:10495000509703C0F101118A108AD10152964D91EE
:104960005C9153974817590738F0481B590B5396D9
:104970005C934E93529712C0F1016689778986172E
:10498000970728F4681B790B738B628B07C00E9412
:104990005241D10153969C938E935297F101828993
:1049A0009389009721F486899789938B828BD10113
:1049B00014968C911497833009F076C050968D919F
:1049C0009C915197009709F066C012968C911297AE
:1049D0008823A9F011968C911197882381F0D60134
:1049E000C5010090E20604C0880F991FAA1FBB1FD3
:1049F0000A94D2F7F10184879587A687B787D101FA
:104A000012961C92129711961C9211971C925A960C
:104A10004D915C915B9756968D919C9157975896C6
:104A20006D917C91599741305105D9F455967C93FD
:104A30006E93549714969C92149752964D915C9154
:104A4000539751965C934E935097009721F451964B
:104A5000FC92EE925097822F29830E94621D298139
:104A60001AC0F101758B648BBA0161507040689F68
:104A7000A001699F500D789F500D1124518B408BE0
:104A8000538B428B009711F4F18AE08AD1015B9637
:104A90007C926E925A97F10180899189009721F05A
:104AA0008017910708F48C012F5F81E290E0280EB7
:104AB000391E253009F02DCF0E94251DE82E282F04
:104AC000332727FD3095F90185E0EE0FFF1F8A950A
:104AD000E1F7E20FF31FE65DF94F82858093F4065C
:104AE000F093E406E093E306EE20B9F0258D368DD1
:104AF0002115310551F0218D328D2A3F310528F4E1
:104B00002017310708F44BC00DC098010B3F110569
:104B100008F445C02AEF30E042C00B3F110510F009
:104B20000AEF10E08093E506F093F306E093F206B7
:104B3000009368050E946826282F30E02F5F3F4FC2
:104B40002017310740F00E946826082F10E00E5F02
:104B50001F4F00936805EE2011F01092E606802F9B
:104B60000E946526C2016EEE72E00E94F4250E944A
:104B700029280E948C330F90CF91DF911F910F91C4
:104B8000FF90EF90DF90CF90BF90AF909F908F906D
:104B90007F906F905F904F903F902F900895890184
:104BA000C1CF00000000000000000197D1F7089578
:104BB0001EBC089581E08EBD089580B5816080BDE2
:104BC0001DBC1CBC0895DF93CF9300D0CDB7DEB7DA
:104BD0008CB59DB59A83898329813A81C9010F904B
:104BE0000F90CF91DF910895EF92FF920F931F9353
:104BF000CF93DF93EC018FEFC937D80710F0C0E0F7
:104C0000D0E07E0100E010E080E090E0E60EF71ECC
:104C1000081F191F91E0E91690E0F90691E00907D5
:104C200090E0190768F080E090E0AFEFBFEFE80E8A
:104C3000F91E0A1F1B1F0E94E325C817D907D8F3C6
:104C40000E94E3258E159F05D8F3DF91CF911F9128
:104C50000F91FF90EF90089582BF089513BE87B71C
:104C60008D7F87BF87B78E7F87BF08958BE083BF17
:104C700087B7836087BF089580B5826080BD12BE0C
:104C800010929A041092680508958EEF809368053B
:104C900098E090BF81BF83E086BF8BE083BF80B583
:104CA000876080BD1FBC81E08EBD1DBC1CBC80B573
:104CB000816080BD0E943C260E94362610929A0494
:104CC0000895089581B78F5F0895815081BF089539
:104CD00082B708951F920F920FB60F920BB60F92E4
:104CE00011242F933F934F935F936F937F938F93F1
:104CF0009F93AF93BF93EF93FF938AE060E00E948E
:104D00006518FF91EF91BF91AF919F918F917F9126
:104D10006F915F914F913F912F910F900BBE0F902C
:104D20000FBE0F901F9018950F920FB60F921F9203
:104D30002F923F924F925F926F927F928F929F92AB
:104D4000AF92BF92CF92DF92EF92FF920F931F9399
:104D50002F933F934F935F936F937F938F939F9383
:104D6000AF93BF93CF93DF93EF93FF93A091F2069E
:104D7000B091F3060DB60D920EB60D921F92A09152
:104D80004205B09143051E90BEBFADBF0895882374
:104D900019F487B78F7787BF8FEF0895882319F4A9
:104DA00014BC81E008958FEF0895882319F424B589
:104DB00030E002C020E030E0C9010895882329F4E2
:104DC00087B7806887BF81E008958FEF08958823B3
:104DD00059F5CB0101978530910510F46093670573
:104DE00088E085BD43BD3093960320939503809161
:104DF0006705813019F485B5816009C0823019F4E6
:104E000085B5826004C0833029F485B5836085BD93
:104E100081E00895843019F485B58460F8CF853039
:104E200029F485B58560F3CF8FEF089581E008956B
:104E30001F920F920FB60F920BB60F9211242F9361
:104E40003F934F935F936F937F938F939F93AF9312
:104E5000BF93EF93FF93E0919503F0919603309702
:104E600011F0099504C08AE060E00E946518FF9186
:104E7000EF91BF91AF919F918F917F916F915F91D2
:104E80004F913F912F910F900BBE0F900FBE0F903F
:104E90001F90189504B603FC02C080E001C080E1B9
:104EA00004B602FE06C094B79B7F94BF04B600FE12
:104EB000846004B601FE05C094B79D7F94BF8260F4
:104EC0000895882359F404B600FE04C094B79E7F69
:104ED00094BF01C081E093B79111816008958FEF75
:104EE00008958FEF08958FEF08951F920F920FB6D8
:104EF0000F920BB60F9211242F933F934F935F9312
:104F00006F937F938F939F93AF93BF93EF93FF9391
:104F10008AE060E00E946518FF91EF91BF91AF9128
:104F20009F918F917F916F915F914F913F912F91C1
:104F30000F900BBE0F900FBE0F901F9018950E9400
:104F40008E14A89584B7877F84BF81B5886181BDA1
:104F500011BC0E94901408950E948E1484B7877F1C
:104F600084BFA89581B5886181BD8FE081BD0E9415
:104F70009014089504B603FC02C081E008958FEFF9
:104F80000895A89508950895FC0176836583089592
:104F900085B7837E886185BF85B7806285BF889528
:104FA00085B78F7D85BF089585B7837E85BF85B71B
:104FB000806285BF889585B78F7D85BF089525E57B
:104FC000FA012083FB01329790838183129212921F
:104FD00012921292129212921292129212921292B1
:104FE00012921292129212921292129212921292A1
:104FF0001292129212921292129212921292129291
:105000001292129212921292129212921292129280
:10501000CF010895EF92FF920F931F93CF93DF93E9
:10502000EC018B017A014032510518F481E10E94B4
:10503000A6180894E108F108E00EF11EFA82E98250
:105040001C830B83DF91CF911F910F91FF90EF9005
:10505000089584E896E19093FE108093FF100895E0
:1050600085E580937E10EEEFF0E1F0934305E09349
:10507000420584E896E190838093FF1008950E9492
:1050800045260E94901408950E949A2808951F931F
:10509000DF93CF930F92CDB7DEB7142F83708C625E
:1050A00069830E9405296981613011F480E001C0A3
:1050B00080E80E94CD28812F0E94CD280E94C1281F
:1050C0000F90CF91DF911F910895DF93CF9300D080
:1050D000CDB7DEB780E487B986E086B9379A369ACD
:1050E0003699FECF84B195B19A8389830F900F9042
:1050F000CF91DF9108953798089597B18F71907E81
:10510000892B87B9369A3699FECF24B135B1C901BA
:1051100008958EE10E947D28BC0180E090E00E940D
:10512000B53E9B01AC0164EA70E78DE994E40E940E
:10513000213E0895E1E7F0E08081808381E0809363
:10514000700084E08093740008958091740087FF5C
:10515000FCCF0895E4E7F0E08081806880830895C3
:10516000CF93DF93C4E7D0E08881806288830E9478
:10517000AA280E94A52888818F7D8883DF91CF91FE
:105180000895809174008061809374000E94AA2821
:105190008091740084FDFCCF0895809373000E9479
:1051A000AA280E94A52880917100887F883241F04A
:1051B00090917100987F81E0983119F480E0089512
:1051C00080E00895009721F080917400806403C00E
:1051D000809174008F7B809374000E94AA280E94A3
:1051E000A528809173000895DF93CF930F92CDB7D8
:1051F000DEB789830E94B0288981880F81600E9470
:10520000CD280F90CF91DF910895DF93CF930F9228
:10521000CDB7DEB789830E94B0288981880F0E94AC
:10522000CD280F90CF91DF9108950E94652881E0ED
:1052300080938603089580918603882311F40E9449
:1052400015290E947B280895DF93CF930F92CDB745
:10525000DEB790918603992321F489830E94152952
:105260008981A898A098813019F41D9A159A02C0D6
:105270001D9815980F90CF91DF910895DF93CF93EC
:105280000F92CDB7DEB790918603992321F48983DD
:105290000E94152989811D981598813019F4A89AC2
:1052A000A09A02C0A898A0980F90CF91DF9108957E
:1052B00080918603882311F40E94152981E00E94C1
:1052C000242981E00E947D28089580918603882307
:1052D00011F40E94152981E00E943E2981E00E947C
:1052E0007D280895AF92BF92CF92DF92EF92FF9206
:1052F0000F931F930E946529BC0180E090E00E94FB
:10530000B53E8B017C0160E070EC8FE794E4202FC8
:10531000312F4E2D5F2D0E94BC3D20E030E44CE14A
:1053200056E40E948C3F202F312F4E2D5F2D0E947E
:10533000213E0E944C3F7B018C0120E030E040E4A4
:1053400050E40E94EF3FD62EC72EB82EA92EC801DA
:10535000B70129E733EE4DE759E30E948C3F28EC73
:1053600032E644E85AE30E94BD3D7B018C01A60170
:105370009501652F742F832F922F2DE234EC4CE191
:1053800054E30E948C3F9B01AC01C801B7010E940D
:10539000BD3D9B01AC0160E070E080E89FE30E94AE
:1053A000213E1F910F91FF90EF90DF90CF90BF9023
:1053B000AF9008950E94722923E333E948E853E44B
:1053C0000E94BC3D08950E9465280E94442881E007
:1053D00080938703089580918703882311F40E94A6
:1053E000E3290E947B280895DF93CF930F92CDB7D6
:1053F000DEB790918703992321F489830E94E329E2
:105400008981813011F4AC9A01C0AC980F90CF9192
:10541000DF910895DF93CF930F92CDB7DEB79091D0
:105420008703992321F489830E94E32989818130AC
:1054300011F4AD9A01C0AD980F90CF91DF9108950E
:105440001F93182F80918703882311F40E94E3296A
:1054500080E00E94342A113019F4A89AA09A02C060
:10546000A898A0981F9108951F93182F80918703E3
:10547000882311F40E94E32980E00E94202A113041
:1054800019F41D9A159A02C01D9815981F91089538
:10549000DF93CF930F92CDB7DEB790918703992317
:1054A00021F489830E94E3298981813011F4AA9A29
:1054B00001C0AA980F90CF91DF910895DF93CF9309
:1054C0000F92CDB7DEB790918703992321F489839A
:1054D0000E94E3298981813011F4AB9A01C0AB9815
:1054E0000F90CF91DF910895DF93CF930F92CDB7B7
:1054F000DEB7482F80918703882321F449830E94D7
:10550000E329498180E061E00E9447280F90CF9114
:10551000DF910895DF93CF930F92CDB7DEB7482F79
:1055200080918703882321F449830E94E3294981DC
:1055300080E062E00E9447280F90CF91DF910895AC
:10554000DF93CF930F92CDB7DEB7482F80918703BB
:10555000882321F449830E94E329498181E061E0A5
:105560000E9447280F90CF91DF910895DF93CF934A
:105570000F92CDB7DEB790918703992321F48983E9
:105580000E94E3298981882311F4AE9A03C08130F7
:1055900009F4AE980F90CF91DF9108958091870321
:1055A000882311F40E94E32981E00E94342A81E0DB
:1055B0000E947D28089580918703882311F40E941A
:1055C000E32981E00E94202A81E00E947D2808953D
:1055D00080918703882311F40E94E32982E00E94CE
:1055E0007D28089580918703882311F40E94E32980
:1055F00083E00E947D28089580918703882311F419
:105600000E94E32984E00E947D2808958091870309
:10561000882311F40E94E32985E00E947D280895E3
:1056200080918703882311F40E94E32986E00E9479
:105630007D28089589E993E00197F1F700C0DC988F
:10564000D49A89E993E00197F1F700C0D498DC9AE5
:10565000CC9BFECF80E007C091E39A95F1F7000064
:105660008F5F8F3149F0CC99F7CF89E993E00197AB
:10567000F1F700C080E008958FEF0895882361F46A
:10568000DC98D49A84EC8A95F1F700C0D498DC9A1F
:1056900081E38A95F1F70BC0DC98D49A88E18A956A
:1056A000F1F700C0D498DC9A8DED8A95F1F70000EF
:1056B0000895DC98D49A82E08A95F1F700C0D498D6
:1056C000DC9A96E19A95F1F7000089B394EC9A95EB
:1056D000F1F700C090E08071907024E09595879577
:1056E0002A95E1F70895FF920F931F93CF93DF93CD
:1056F000F82EC0E0D0E001E010E098010C2E02C0CE
:10570000220F331F0A94E2F78F2D82230E943E2B33
:105710002196C830D10589F7DF91CF911F910F9164
:10572000FF9008951F93CF93DF93C0E0D0E010E087
:105730000E94592B282F30E00C2E02C0220F331F5D
:105740000A94E2F7122B2196C830D10589F7812FF0
:10575000DF91CF911F9108958FE00E94732B0895E0
:1057600080B58B7F80BDD498DC9A86EF8A95F1F75F
:105770000895EF92FF920F931F93DF93CF9300D082
:1057800000D0CDB7DEB77C0119821A821B821C8241
:105790000E941A2B882339F0282F332727FD3095B4
:1057A000432F532F27C00E94AC2B0E94922B813095
:1057B00019F08EEFF70180838E010F5F1F4F0E945B
:1057C000922B89830E94922BF80181830E94922B55
:1057D000F80182830E94922BF80183830E94922B0E
:1057E0000E94922B0E94922BF701108229813A810C
:1057F0004B815C81B901CA010F900F900F900F90FF
:10580000CF91DF911F910F91FF90EF900895AA988B
:10581000959887FF02C0939A01C09398959A95989E
:1058200086FF02C0939A01C09398959A959885FF38
:1058300002C0939A01C09398959A959884FF02C0EC
:10584000939A01C09398959A959883FF02C0939A72
:1058500001C09398959A959882FF02C0939A01C0CF
:105860009398959A959881FF02C0939A01C0939856
:10587000959A959880FF02C0939A01C09398959A43
:10588000959AAA9A0895DF93CF9300D00F92CDB73F
:10589000DEB7A89A19821FC0A898898180550E94F6
:1058A000072C80E10E94072C80E00E94072CA89A18
:1058B0001B821A8208C080E00E94072C8A819B818B
:1058C00001969B838A838A819B81803891059CF312
:1058D00089818F5F898389818830F0F20F900F90E2
:1058E0000F90CF91DF910895C498BC9A85B38760DB
:1058F00085BB84B3876084BB81B3886281BB939A84
:1059000088E785BB84B3877884BBA898A9988FEF74
:105910009FE3A2E081509040A040E1F700C000006A
:10592000A99A8FEF9FE3A2E081509040A040E1F759
:1059300000C0000080E40E94072C81EA0E94072C2E
:1059400080EC0E94072C86EA0E94072C82EA0E94C3
:10595000072C8FE20E94072C88EF0E94072C80E022
:105960000E94072C87E20E94072C81E80E94072CE6
:1059700080E10E94072C8CEA0E94072C80E00E94A4
:10598000072C8FEA0E94072C0E94432C0895813037
:1059900011F4C49A0895C4980895EF92FF920F935A
:1059A0001F93DF93CF930F92CDB7DEB7082F162F3B
:1059B000A898842F805599830E94072C812F829567
:1059C0008F7080610E94072C812F8F700E94072C9E
:1059D000A89A9981602F792F7B011AC000E010E00E
:1059E000D701EC91B5E0EB9FF0011124E00FF11F1E
:1059F000EB55FC4F84910E94072C0F5F1F4F053021
:105A0000110571F780E00E94072C0894E11CF11C3D
:105A1000F7018081882311F70F90CF91DF911F91BB
:105A20000F91FF90EF9008956091230770912407E4
:105A300090E00E943A43089580E00E946811882314
:105A400049F080912107909122070E94F842282F67
:105A500030E002C02FEF3FEFC9010895BF92CF920F
:105A6000DF92EF92FF920F931F93DF93CF9300D0BB
:105A700000D00F92CDB7DEB7D82EB62E20EA36E88A
:105A800041E050E029833A834B835C8381E19D832D
:105A90000E94142D8B2D0E94142D81E1C82ECB0C59
:105AA0009D810D2D192F09C07801F80181918F0179
:105AB0000E94142DF7018081C80E802F8D198B153F
:105AC00098F38C2D0E94142D0E941C2D29813A815F
:105AD0004B815C81215030404040504029833A83C3
