:100000000C9470050C949E260C948F050C948F050F
:100010000C948F050C948F050C948F050C948F0510
:100020000C948F050C9441260C948F050C948F052D
:100030000C948F050C948F050C948F050C94BD25A2
:100040000C94BD250C948F050C948F050C948F0592
:100050000C948F050C948F050C948F050C948F05D0
:100060000C948F050C948F050C948F050C948F05C0
:100070000C948F050C948F050C948F050C948F05B0
:100080000C948F050C948F050C948F052F17351742
:1000900038173B173E174117471744174A174D1794
:1000A000501759175C175F17621756172C1732171E
:1000B000651768175317291708000000BE922449D6
:1000C000123EABAAAA2ABECDCCCC4C3E000000808A
:1000D000BEABAAAAAA3E00000000BF000000803FFD
:1000E0000000000000084178D3BB4387D1133D19BD
:1000F0000E3CC3BD4282AD2B3E68EC8276BED98FEA
:10010000E1A93E4C80EFFFBE01C4FF7F3F0000002D
:10011000000007634236B79BD8A71A39685618AE55
:10012000BAAB558C1D3CB7CC5763BD6DEDFD753E2C
:10013000F6177231BF000000803F5461736B3320AB
:1001400046494E49534845440D0A005432206572D1
:10015000726F7220706F73740D0A005461736B3389
:100160002069732072756E6E696E672E2E2E0D0AD1
:10017000005432206572726F722070656E640D0AD1
:10018000005461736B3320535441525445440D0A5B
:10019000005461736B322072656C65617365642015
:1001A00073656D6170686F72650D0A005432206569
:1001B00072726F7220706F73740D0A005461736BEA
:1001C0003220686F6C64696E672073656D6170685A
:1001D0006F72650D0A005432206572726F72207062
:1001E000656E640D0A005461736B32206163636550
:1001F0007373696E672073656D6170686F72650DEA
:100200000A005461736B312072656C6561736564BB
:100210002073656D6170686F72650D0A005431203E
:100220006572726F7220706F73740D0A005461737F
:100230006B3120686F6C64696E672073656D6170E7
:10024000686F72650D0A005431206572726F7220FA
:1002500070656E640D0A005461736B3120616363D5
:10026000657373696E672073656D6170686F726521
:100270000D0A004572726F72206372656174696E57
:10028000672073656D0D0A00554E4B4F574E004564
:10029000787465726E616C20526573657400427289
:1002A0006F776E204F7574204465746563740046E3
:1002B00061696C656420746F206372656174652088
:1002C00053656D6170686F7265004661696C656445
:1002D00020746F20637265617465205369676E6175
:1002E0006C004B65726E656C2066756E6374696F29
:1002F0006E206E6F7420696D706C656D656E7465CF
:10030000640044657669636520447269766572208D
:100310004572726F72005761746368646F67205230
:100320006573746172740053572057617463686415
:100330006F6720526573746172740054696D6572E1
:10034000204F766572666C6F7700556E68616E64DB
:100350006C656420496E74657272757074205665A0
:1003600063746F72004C6F7720566F6C74616765B1
:10037000004578747261205461736B2073746172EC
:100380007465642C206973206E726B5F6366672EE0
:1003900068206F6B3F0049646C65206F72204B656D
:1003A000726E656C20537461636B204F7665726664
:1003B0006C6F7700556E6578706563746564205264
:1003C000657374617274004475706C6963617465FF
:1003D00064205461736B20494400536368656475FD
:1003E0006C6572204D69737365642057616B657528
:1003F00070005461736B2052657365727665205688
:10040000696F6C617465640052657365727665200E
:100410004572726F7220696E205363686564756CF3
:10042000657200496E76616C696420537461636B18
:1004300020506F696E746572005461736B20537441
:1004400061636B204F766572666C6F7700537461E1
:10045000636B20776173206E6F7420646566696ECC
:100460006564206173206C6172676520656E6F75CD
:10047000676821005461736B20706572696F642036
:10048000746F6F206C617267652E20506572696FA2
:1004900064206D757374206265206C6573732074BD
:1004A00068616E203631207365636F6E64732E0051
:1004B000293A20002A4E524B204552524F522800D2
:1004C0000D0A535441434B2044554D500D0A000A28
:1004D0000D006E726B5F71756575653A20000808D6
:1004E0002A1C08081C2A080840444A514040514A26
:1004F000444014741C171410207F010100000000F8
:10050000000000000000081C2C08087F0101010108
:10051000010101017F7F40404040404040407F005A
:100520000000000000000000000000000000791141
:10053000271179000000000000000000000000000A
:1005400000007F01010103605048447E3E49494953
:100550003E700C030C706349494963017F017F01C0
:10056000635549414106017E010608557F55080F34
:10057000107F100F4E7101714E3844443844000012
:1005800000000000005F00000300030000143E14A0
:100590003E1426497F493262152A54233649562093
:1005A000500003000000001C2241000041221C00FA
:1005B00000140E140008083E08080060000000083F
:1005C00008080800004000000060100804033E41D5
:1005D00041413E04027F00006251494542224149A7
:1005E00049360C0B087E084F494949313E49494973
:1005F0003261110905033649494936264949493EC0
:1006000000220000000061000000081414222214DF
:1006100014141414222214140806015905023E4130
:100620005D555E7E0909097E7F494949363E414153
:1006300041227F4141413E7F494949417F090909A2
:10064000013E414949327F0808087F00007F0000D1
:10065000204040403F7F081422417F404040007FBF
:100660000204027F7F021C207F3E4141413E7F0900
:100670000909063E4151617E7F09192946264949EB
:10068000493201017F01013F4040403F1F2040208F
:100690001F3F4030403F6314081463030478040391
:1006A00061514945437F4100000000000000000007
:1006B0000000417F0601060000404040404001022A
:1006C00000000020545454787F484848303844444F
:1006D0004428384444447F3854545418087E090947
:1006E000010C5252523E7F04040478047D404020A5
:1006F000204040443D007F102844203E5149467C24
:10070000047C04787C0804047838444444387E121D
:1007100012120C0C1212127E04780404084854546D
:100720005424043F4444403C40403C401C20402072
:100730001C3C4030403C4428102844264848483E51
:100740004464544C4400083E410000007F00000017
:10075000413E080000000000000000000000000012
:100760000000000000000000000000000020483EE3
:1007700009020000000000000000000004047F04E3
:100780000400000000000000000000000000000065
:100790000000000000000000000000000000000059
:1007A0000000000000000000000000000000000049
:1007B0000000000000000000000000000002040132
:1007C00002000000000000001818000000000000F7
:1007D0000000000000000000000000000000000019
:1007E0000000000000000000000000000000000009
:1007F00000000000000000000000000000000000F9
:1008000000000000007900000000000000487E4960
:100810004942000000000015167C1615000000007B
:10082000000A5555552800010001003E635D6B3EEE
:10083000000000000008142A14220000000000003C
:10084000000000003E41754B3E0101010101000224
:100850000502000000000000000000000000000091
:10086000000000000000000000000000060F7F01F3
:100870007F000000000000000000000000000000F9
:10088000070507000022142A14080F003C20780FE7
:100890000048645800000000003048454020000037
:1008A0000000000000000000000000000072292984
:1008B0002A717825242578702A252A707E097F4997
:1008C000490E5151711100000000007C54565544EE
:1008D0000000000000000000000000000000000018
:1008E0000000000000000000000000000000000008
:1008F0000000007A091122790000000000000000C9
:10090000000000000000003A454546393D424242A1
:100910003D22140814225C322A261D00000000002B
:10092000000000000000000000003C4140413C008D
:100930000000000000000000000000000000205542
:10094000565478205456557820565556782251558D
:1009500056792055545578000000000024547854EE
:10096000580C52527212385556541838545655185D
:100970003856555618385554551800497A400000D5
:10098000487A4100004A794200004A78420000005B
:100990000000007A11090A7130494A483030484A4B
:1009A0004930304A494A303249494A31304A484A46
:1009B0003008082A080818643C2618384142207874
:1009C000384042217838424122783842402278002B
:1009D0000000000000000000000C5150513C6E610E
:1009E0006E00696E660000407A10F35A00A0724EE5
:1009F00018090010A5D4E80000E87648170000E4C4
:100A00000B54020000CA9A3B000000E1F50500000B
:100A100080969800000040420F000000A086010070
:100A20000000102700000000E80300000000640040
:100A3000000000000A0000000000010000000000AB
:100A40002C76D888DC674F0823DFC1DFAE59E1B1CF
:100A5000B796E5E3E453C63AE651997696E8E6C2DE
:100A60008426EB898C9B62ED407C6FFCEFBC9C9FE5
:100A700040F2BAA56FA5F490055A2AF75C936B6C07
:100A8000F9676DC11BFCE0E40D47FEF520E6B500FB
:100A9000D0ED902E0300943577050080841E080069
:100AA00000204E0A000000C80C333333330F986E19
:100AB00012831141EF8D2114893BE65516CFFEE6D6
:100AC000DB18D1844B381BF77C1D901DA4BBE4249C
:100AD000203284725E228100C9F124ECA1E53D2719
:100AE00011241FBECFEFD0E1DEBFCDBF12E0A0E0EA
:100AF000B1E0E8EBF9E800E00BBF02C007900D920F
:100B0000A43FB107D9F716E0A4EFB2E001C01D92EF
:100B1000A839B107E1F70E94AD070C94DA440C94B0
:100B200093251F93CF93DF930E94D31F00D000D053
:100B3000EDB7FEB7319620E031E0ADB7BEB7129603
:100B40003C932E931197828313820E948F420F90C1
:100B50000F900F900F9010E0CFE0D1E080E090E098
:100B60000E948E1200D000D0EDB7FEB73196ADB71F
:100B7000BEB71296DC93CE931197128313820E9414
:100B80008F420F900F900F900F9081E891E00E949C
:100B9000D3108BE591E00E94D3100E94401F8AE39E
:100BA00091E00E94D3100E94401F1F5FD7CF1F9378
:100BB000CF93DF930E94D31F00D000D0EDB7FEB7D4
:100BC00031962EE131E0ADB7BEB712963C932E932D
:100BD0001197828313820E948F420F900F900F9083
:100BE0000F9010E0CFE0D1E080E090E00E948E1204
:100BF00000D000D0EDB7FEB73196ADB7BEB71296B4
:100C0000DC93CE931197128313820E948F420F9030
:100C10000F900F900F9086EE91E00E94D31080917C
:100C20008603909187030E94DB1B8F3F21F486EDA2
:100C300091E00E94D3108CEB91E00E94D3100E94AF
:100C4000401F80918603909187030E947E1B8F3FF7
:100C500021F48CEA91E00E94D31081E991E00E9496
:100C6000D3100E94401F1F5FBFCF0F931F93CF93DE
:100C7000DF9300D000D08DE291E0ADB7BEB7129601
:100C80009C938E93119714961C921E9213970E9418
:100C90008F420F900F900F900F900E94D31F00D0A3
:100CA00000D0EDB7FEB7319627E431E0ADB7BEB75F
:100CB00012963C932E931197828313820E948F4247
:100CC0000F900F900F900F90C0E0D0E00FE011E078
:100CD00080E090E00E948E1200D000D0EDB7FEB709
:100CE00012830183D483C3830E948F420F900F909D
:100CF0000F900F9087E592E00E94D31080918603B9
:100D0000909187030E94DB1B8F3F21F487E492E0E0
:100D10000E94D3108DE292E00E94D3100E94401FE7
:100D200080918603909187030E947E1B8F3F21F460
:100D30008DE192E00E94D31082E092E00E94D310F5
:100D40000E94401F2196C4CF0F931F9385E396E026
:100D500090938F0380938E0383ED94E090938B03A5
:100D600080938A0383E594E090938D0380938C03B2
:100D700011E010939103109390031093920310933A
:100D8000930310929403109295031092960310927D
:100D9000970380E893E9ACEDB4E1809398039093D6
:100DA0009903A0939A03B0939B0310929C03109213
:100DB0009D0310929E0310929F0380E890EFAAEF8C
:100DC000B2E08093A0039093A103A093A203B093F9
:100DD000A3031092A4031092A5031092A6031092ED
:100DE000A7031092A8031092A9031092AA031092CD
:100DF000AB0389E893E00E948C1D87ED95E090930A
:100E00005E0580935D058CE294E090935A05809393
:100E100059058CEA93E090935C0580935B0502E0B2
:100E20000093600510935F051093610510936205B0
:100E300083E090E0A0E0B0E08093630590936405C8
:100E4000A0936505B093660510926705109268053A
:100E50001092690510926A0510926B0510926C054C
:100E600010926D0510926E0580E091EEA5EFB5E051
:100E700080936F0590937005A0937105B0937205F0
:100E800010927305109274051092750510927605F4
:100E900010927705109278051092790510927A05D4
:100EA00088E595E00E948C1D81E995E090933604D9
:100EB0008093350485E893E0909332048093310465
:100EC00085E093E0909334048093330400933804D6
:100ED000109337041093390410933A0410923B0492
:100EE00010923C0410923D0410923E0480E092EC7B
:100EF000ABEEBBE080933F0490934004A093410489
:100F0000B09342041092430410924404109245049A
:100F10001092460480E896E9A8E9B0E0809347047F
:100F200090934804A0934904B0934A0410924B0450
:100F300010924C0410924D0410924E0410924F04E3
:100F400010925004109251041092520480E394E0E5
:100F50000E948C1D1F910F9108950E94B41287E08A
:100F600090E00E94031386E591E00E94A1420E9456
:100F7000F21380E090E00E94A1128FEF90E00E94B7
:100F8000A11281E090E00E94D81282E090E00E94DD
:100F9000A11260E070E0CB0120E030E0A9010E94E6
:100FA00044210E94A40681E060E80E94251B9093E2
:100FB000870380938603009721F483E792E00E94E1
:100FC000D3100E94B81480E090E0089590E09C0156
:100FD0002B503040220F331F220F331F865A9E4B57
:100FE000820F931FF894C09828E12FB9779BFECF0A
:100FF0009FB9779BFECF8FB9779BFECFC09A78942D
:101000000895F894C0981FB8779BFECF8FB1C09A0F
:10101000789486FFF6CF0895809180010E94E610B3
:1010200080917F010E942C110895809180010E947F
:10103000E61080917F010E94E6100895F894C09810
:1010400087E08FB9779BFECFC09AC09886E08FB9B2
:10105000779BFECFC09A78940895F894C09881E069
:101060008FB9779BFECFC09A88EE93E00E94FA2456
:1010700078940895809190050895FC01C09889ECBA
:101080008FB9779BFECF80E88FB9779BFECF82E048
:101090008150DF01A80FB11D9C919FB9779BFECFB6
:1010A0008823B1F7C09AC0988BEC8FB9779BFECF9D
:1010B00080E88FB9779BFECF82E08150DF01A80FD7
:1010C000B11D12969C9112979FB9779BFECF8823F2
:1010D000A1F7C09A808180939105818180939205C8
:1010E00082818093930583818093940508958F92E4
:1010F0009F92AF92BF92CF92DF92EF92FF920F93A7
:101100001F93DF93CF9300D000D0CDB7DEB7E82E8A
:10111000092F84E690E00E94FA24F02E20E031E0CE
:101120008E010F5F1F4FF3E0CF2ED12CCC0EDD1EB2
:10113000F70191907F018824808190E08829992986
:101140009A83898384E690E02B833C830E94FA246F
:10115000C0982B813C81822F80688FB9779BFECF0E
:10116000C90195958795807C8FB9779BFECF5801F3
:10117000F80181918FB9779BFECFEC15FD05C9F77A
:10118000C09A2E5F3F4FF1E020313F0789F684E699
:1011900090E00E94FA2420E431E080E191E01A829C
:1011A0001982C098422F40684FB9779BFECFA901A2
:1011B00055954795407C4FB9779BFECFF8014191FB
:1011C0004FB9779BFECFEC15FD05C9F7C09AC098C3
:1011D000482F40684FB9779BFECFAC015595479596
:1011E000407C4FB9779BFECFF80141914FB9779B77
:1011F000FECFEC15FD05C9F7C09A02962E5F3F4F52
:1012000041E08E31940759F681E090E09A8389831A
:10121000C0988EEC8FB9779BFECF80E88FB9779B13
:10122000FECFC8010296F80121912FB9779BFECF1E
:10123000E817F907C9F7C09AC0988EE98FB9779B6C
:10124000FECF80E88FB9779BFECF0E5F1F4FF50171
:1012500081915F018FB9779BFECFA016B106B9F7D8
:10126000C09A0F900F900F900F90CF91DF911F9128
:101270000F91FF90EF90DF90CF90BF90AF909F9035
:101280008F900895C09889E18FB9779BFECF83E056
:101290008FB9779BFECF86E08FB9779BFECFC09A40
:1012A000C0988AE18FB9779BFECF8EE08FB9779B8C
:1012B000FECF8EE08FB9779BFECFC09A81E08093FE
:1012C00081050895C09889E18FB9779BFECF81E0B1
:1012D0008FB9779BFECF84EC8FB9779BFECFC09AF6
:1012E00010928105089580917F0590918005089561
:1012F00090E08F719070806E906AC09825E12FB950
:10130000779BFECF9FB9779BFECF8FB9779BFECFA0
:10131000C09A08950E94E6070895809182059091F1
:10132000830598609093830580938205C09881E13E
:101330008FB9779BFECF809183058FB9779BFECFC6
:10134000809182058FB9779BFECFC09A08958091D6
:10135000820590918305977F909383058093820502
:10136000C09881E18FB9779BFECF809183058FB9BB
:10137000779BFECF809182058FB9779BFECFC09A75
:10138000089581E080938F05809182059091830577
:1013900080619093830580938205C09881E18FB925
:1013A000779BFECF809183058FB9779BFECF80918D
:1013B00082058FB9779BFECFC09A089510928F0552
:1013C00080918205909183058F7E90938305809311
:1013D0008205C09881E18FB9779BFECF809183050C
:1013E0008FB9779BFECF809182058FB9779BFECF17
:1013F000C09A0895DF93CF9300D0CDB7DEB79A831C
:10140000898390938B0580938A0584EF91E00E94F5
:10141000FA24C0988AEE8FB9779BFECF80E88FB907
:10142000779BFECFFE013196CE01039621912FB915
:10143000779BFECFE817F907C9F7C09A84EF91E0D0
:101440000E94FA240F900F90CF91DF910895CF93CF
:10145000DF93EC01862FC09898E09FB9779BFECF71
:10146000C09AC09898E09FB9779BFECFC09A0E941F
:10147000E607D0938505C0938405DF91CF91089549
:10148000DF92EF92FF920F931F93DF93CF9300D0E1
:10149000CDB7DEB78C01D62E5A8349837901DD9A08
:1014A00088EE93E00E944313DE9881E090E00E9472
:1014B0004313DE9A84E690E00E944313F894C098A8
:1014C00081E08FB9779BFECFC09A82EE92E0909335
:1014D000830580938205C09881E18FB9779BFECF09
:1014E000809183058FB9779BFECF809182058FB95C
:1014F000779BFECFC09AC09882E18FB9779BFECFD1
:1015000085E08FB9779BFECF1FB8779BFECFC09A3F
:10151000C0988CE18FB9779BFECF1FB8779BFECF29
:101520008FE78FB9779BFECFC09AC09889E18FB9BA
:10153000779BFECF81E08FB9779BFECF84EC8FB98C
:10154000779BFECFC09AC09887E18FB9779BFECF7B
:101550008AE18FB9779BFECF86E58FB9779BFECF67
:10156000C09A84EF91E00E94FA24C09888EE8FB967
:10157000779BFECF80E88FB9779BFECFFE01319637
:10158000CE01039621912FB9779BFECFE817F9077B
:10159000C9F7C09A84EF91E00E94FA2478948D2DC7
:1015A0000E94E6077894109385050093840589814D
:1015B0009A819093890580938805F0928B05E0923B
:1015C0008A051092860510928C050E9401081092DF
:1015D0008F0510928105109290050F900F90CF917A
:1015E000DF911F910F91FF90EF90DF90089581E0C0
:1015F00080938C05C09883E08FB9779BFECFC09A0B
:10160000C09888E08FB9779BFECFC09A109295055D
:10161000089581E080938C05C09883E08FB9779B13
:10162000FECFC09AC09888E08FB9779BFECFC09A52
:1016300010929505089510928C05C09886E08FB998
:10164000779BFECFC09A109295050895BF92CF92D6
:10165000DF92EF92FF920F931F93DF93CF9300D00F
:101660000F92CDB7DEB78C016B017A010E949125F4
:10167000C09888E08FB9779BFECFC09AC09888E069
:101680008FB9779BFECFC09A0E99FECF8499FCCF7D
:10169000F894C09889E08FB9779BFECFC09AC09824
:1016A00089E08FB9779BFECFC09AD80112965C91E2
:1016B0001297252F332727FD3095BB2440E00AC021
:1016C000D8011396ED91FC911497E80FF91F8081D2
:1016D000B80E4F5F842F90E0821793078CF3545F0E
:1016E000C0988EE38FB9779BFECF5FB9779BFECF13
:1016F000C09AF8018681882319F081E698E802C033
:1017000081E498E89A838983C0988EE38FB9779BA8
:10171000FECFFE013196CE01039621912FB9779B22
:10172000FECFE817F907C9F7C09AC0988EE38FB9C2
:10173000779BFECF809186058FB9779BFECFC09AAD
:10174000C0988EE38FB9779BFECF80E090E0FC01DC
:10175000EC57FA4F24812FB9779BFECF0196823048
:101760009105A9F7C09AC0988EE38FB9779BFECFF9
:1017700080E090E0F801E80FF91F20812FB9779BF6
:10178000FECF019682309105A9F7C09AC0988EE3EA
:101790008FB9779BFECF80E090E0FC01EC57FA4FC9
:1017A00026812FB9779BFECF019682309105A9F74C
:1017B000C09AC601B7010E941D25D80115968C91CB
:1017C00015978823A9F180918C05882331F4C0985E
:1017D00083E08FB9779BFECFC09AC0981FB8779BE4
:1017E000FECF8FB1C09A81FFF8CF20E0A5E0EA2EAE
:1017F000C098EFB8779BFECFC09AC0981FB8779B70
:10180000FECFCFB0C09A2F5F253649F478948091EF
:101810007F05909180050E947E1B80E060C084E679
:1018200090E02B830E9443132B81C3FEE1CF06C0BF
:10183000C09884E08FB9779BFECFC09AC0988EE3A2
:101840008FB9779BFECF40E00CC0D8011396ED9185
:10185000FC911497E80FF91F80818FB9779BFECF19
:101860004F5F842F90E0F8012281332727FD3095C8
:101870008217930754F3C09AC0988EE38FB9779B71
:10188000FECFBFB8779BFECFC09A849BFECFF89463
:101890008499FECFC09888E08FB9779BFECFC09A1D
:1018A000C09888E08FB9779BFECFC09AC09889E036
:1018B0008FB9779BFECFC09AC09889E08FB9779B8C
:1018C000FECFC09AC09886E08FB9779BFECFC09AB2
:1018D0007894809186058F5F8093860581E00F90D4
:1018E0000F900F90CF91DF911F910F91FF90EF908C
:1018F000DF90CF90BF900895FF920F931F93DF93D7
:10190000CF9300D0CDB7DEB7FC018091810588234D
:1019100031F0C0988DE08FB9779BFECFC09A3281AD
:10192000432F552747FD509520E060E007C0A38175
:10193000B481A80FB91F8C91280F6F5F862F90E09C
:1019400084179507A4F3832F845F909181059111EB
:101950008C5FC09898E09FB9779BFECFC09AC098E3
:1019600098E09FB9779BFECFC09A0E99FECF8499DD
:10197000FCCFF894C09899E09FB9779BFECFC09AAE
:10198000C09899E09FB9779BFECFC09AC0989EE31C
:101990009FB9779BFECF8FB9779BFECFC09A81E42A
:1019A00098E89A83898380918F05882321F081E6C6
:1019B00098E89A83898380918105882329F0898119
:1019C0009A8188609A838983C0988EE38FB9779BC8
:1019D000FECFDE011196CE0103963D913FB9779B74
:1019E000FECFA817B907C9F7C09AC0988EE38FB980
:1019F000779BFECF809186058FB9779BFECFC09AEB
:101A0000C0988EE38FB9779BFECF80E090E0DC0139
:101A1000AC57BA4F14963C9114973FB9779BFECFC1
:101A200001968230910599F7C09AC0988EE38FB9DC
:101A3000779BFECF80E090E0DF01A80FB91F3C91BB
:101A40003FB9779BFECF019682309105A9F7C09AE6
:101A5000C0988EE38FB9779BFECF80E090E0DC01E9
:101A6000AC57BA4F16963C9116973FB9779BFECF6D
:101A700001968230910599F7C09A8091810588235B
:101A800081F0C0988EE38FB9779BFECFA1E9B5E0D6
:101A90008D918FB9779BFECF85E0A539B807C1F747
:101AA000C09AC0988EE38FB9779BFECF30E009C013
:101AB000A381B481A80FB91F8C918FB9779BFECFFA
:101AC0003F5F832F90E04281552747FD5095841753
:101AD000950774F3C09AC0988EE38FB9779BFECFB9
:101AE0002FB9779BFECFC09A8581882391F1809191
:101AF0008C05882331F4C09883E08FB9779BFECFA3
:101B0000C09AC0981FB8779BFECF8FB1C09A81FF53
:101B1000F8CF10E005E0C0980FB9779BFECFC09AD0
:101B2000C0981FB8779BFECFFFB0C09A1F5F1536D5
:101B300049F4789480917F05909180050E947E1BE6
:101B400080E043C084E690E00E944313F3FEE3CFBD
:101B500006C0C09884E08FB9779BFECFC09A789476
:101B6000849BFECF8499FECF80918F058823F9F066
:101B700084EA92E00E944313B79B0BC0C0988FE7A2
:101B80008FB9779BFECF1FB8779BFECF8FB1C09ADE
:101B90000EC0C09888E08FB9779BFECFC09AC098DE
:101BA00088E08FB9779BFECFC09A80E001C081E0CA
:101BB000F894C09896E09FB9779BFECFC09A78942E
:101BC000909186059F5F909386050F900F90CF911F
:101BD000DF911F910F91FF90089581E0849B80E039
:101BE000089581E00E9B80E0089581E0849B80E071
:101BF0000895DF93CF9300D000D0CDB7DEB70E9B12
:101C0000C7C1109290050E9B1AC0B79918C0C09812
:101C10008FE78FB9779BFECF1FB8779BFECF8FB131
:101C2000C09AC09888E08FB9779BFECFC09AC098C1
:101C300088E08FB9779BFECFC09A8FEFAAC1C0987A
:101C40008FE78FB9779BFECF1FB8779BFECF4FB141
:101C5000C09A4F77C1F4C0988FE78FB9779BFECFBA
:101C60001FB8779BFECF8FB1C09AC09888E08FB91C
:101C7000779BFECFC09AC09888E08FB9779BFECF44
:101C8000C09A8EEF86C14C3084F0E0918405F091CB
:101C90008505842F992787FD90950B9724813327FD
:101CA00027FD3095281739077CF5C0988FE78FB945
:101CB000779BFECF50E0842F992787FD909504C035
:101CC0001FB8779BFECF5F5F252F30E028173907BD
:101CD00014F4B799F5CFC09AC0988FE78FB9779B66
:101CE000FECF1FB8779BFECF8FB1C09AC09888E017
:101CF0008FB9779BFECFC09AC09888E08FB9779B49
:101D0000FECFC09A8DEF45C1E0918405F091850525
:101D10004C504383C0988FE78FB9779BFECFFE016D
:101D20003196CE0103961FB8779BFECF2FB121933A
:101D3000E817F907C1F7C09AE0918405F09185058D
:101D4000998181E095FF80E08783C0988FE78FB904
:101D5000779BFECF1FB8779BFECFE0918405F09173
:101D600085058FB18083C09AC0988FE78FB9779B24
:101D7000FECF84E005C01FB8779BFECF815011F0E5
:101D8000B799F9CFC09AC0988FE78FB9779BFECFEC
:101D900080E090E01FB8779BFECFE0918405F09142
:101DA00085052FB1E80FF91F218301968230910537
:101DB00089F7C09A898183FF4DC0C0988FE78FB99A
:101DC000779BFECFEBE7F5E01FB8779BFECF8FB197
:101DD000819385E0EF37F807B9F7C09AC09889E991
:101DE0008FB9779BFECF80E88FB9779BFECF82E0DB
:101DF0008150E82FF0E0E558FA4F90819FB9779B2A
:101E0000FECF8823A9F7C09AC0988BE98FB9779B3A
:101E1000FECF80E88FB9779BFECF82E08150E82F1C
:101E2000F0E0E358FA4F90819FB9779BFECF88236B
:101E3000A9F7C09AC0988CE08FB9779BFECFC09A63
:101E400081E080939005E0918405F0918505838180
:101E500084508383C0988FE78FB9779BFECF40E093
:101E60000FC01FB8779BFECFE0918405F0918505E8
:101E70008FB10580F681E02DE40FF11D80834F5F67
:101E8000E0918405F0918505242F30E08381992726
:101E900087FD90952817390724F3C09AC0988FE7DB
:101EA0008FB9779BFECF1FB8779BFECF6FB1C09ADB
:101EB000C0988FE78FB9779BFECFFE013396CE0196
:101EC00005961FB8779BFECF2FB12193E817F9072E
:101ED000C1F7C09AE0918405F09185058B818087D8
:101EE00050E040E00CC0E0918405F091850505804C
:101EF000F681E02DE80FF91F8081480F5F5FE091C8
:101F00008405F0918505852F90E02381332727FDF7
:101F10003095821793073CF34617C1F0C0988FE7BE
:101F20008FB9779BFECF1FB8779BFECF8FB1C09A3A
:101F3000C09888E08FB9779BFECFC09AC09888E0A0
:101F40008FB9779BFECFC09A8CEF23C08C8187FF1F
:101F500007C0809195058F5F8093950581E019C03A
:101F6000C0988FE78FB9779BFECF1FB8779BFECFC6
:101F70008FB1C09AC09888E08FB9779BFECFC09A86
:101F8000C09888E08FB9779BFECFC09A8BEF01C0D5
:101F900080E00F900F900F900F90CF91DF910895F8
:101FA00080919505882329F08091950510929505DB
:101FB000089580E00895C09888E08FB9779BFECFA0
:101FC000C09AC09888E08FB9779BFECFC09A0895D9
:101FD000992787FD9095982F88278068C09823E1DE
:101FE0002FB9779BFECF9FB9779BFECF8FB9779B99
:101FF000FECFC09A0895C09886E08FB9779BFECF38
:10200000C09AC09882E18FB9779BFECF85E08FB9E7
:10201000779BFECF88E08FB9779BFECFC09AC098A0
:102020008EE28FB9779BFECF88E18FB9779BFECF89
:102030001FB8779BFECFC09A0E94DB0F0895C0980F
:1020400086E08FB9779BFECFC09AC09882E18FB9A6
:10205000779BFECF85E08FB9779BFECF1FB8779B2C
:10206000FECFC09AC0988EE28FB9779BFECF1FB883
:10207000779BFECF1FB8779BFECFC09A0E94DB0FE5
:102080000895C09886E08FB9779BFECFC09AC0981C
:1020900082E18FB9779BFECF85E08FB9779BFECF2A
:1020A00081E08FB9779BFECFC09A0E94DB0F089525
:1020B000C09882E18FB9779BFECF85E08FB9779B7F
:1020C000FECF84E08FB9779BFECFC09A0E94DB0FD2
:1020D000089590E08F709070209182053091830573
:1020E000207F822B932B9093830580938205C09849
:1020F00081E18FB9779BFECF809183058FB9779B64
:10210000FECF809182058FB9779BFECFC09A08954C
:1021100090E026E0880F991F2A95E1F790702091B2
:102120008205309183052F73822B932B9093830527
:1021300080938205C09881E18FB9779BFECF809113
:1021400083058FB9779BFECF809182058FB9779BEE
:10215000FECFC09A0895C09884E08FB9779BFECFD8
:10216000C09A0895C09886E08FB9779BFECFC09A39
:1021700008955F9BFECF5F988CB108955D9BFECF65
:102180005D988CB908958FEF0895882311F48BB171
:1021900004C0813031F480919B00881F8827881FFC
:1021A000089580E00895CF93DF93EC0107C060911C
:1021B00090067091910690E00E946342FE01219684
:1021C00084918823A1F7DF91CF9108958F3F09F47F
:1021D0003FC0982F96959695969521E030E002C0E5
:1021E000220F331F9A95E2F790E08770907082304B
:1021F0009105D9F08330910534F4009771F0813066
:10220000910541F50EC084309105C1F084309105EF
:102210008CF085309105F1F415C08BB3822B8BBB0C
:1022200007C088B3822B88BB03C085B3822B85BBD4
:1022300081E0089582B3822B82BBFACF83B1822BD7
:1022400083B9F6CF80916200822B80936200F0CF39
:102250008FEF08958FEF08958F3F09F440C0982FB6
:1022600096959695969521E030E002C0220F331F97
:102270009A95E2F7209590E08770907082309105F2
:10228000D9F08330910534F4009771F081309105D5
:1022900041F50EC084309105C1F0843091058CF079
:1022A00085309105F1F415C08BB382238BBB07C039
:1022B00088B3822388BB03C085B3822385BB81E0BA
:1022C000089582B3822382BBFACF83B1822383B97C
:1022D000F6CF80916200822380936200F0CF8FEF6F
:1022E00008958FEF08958F3F89F1282F30E02770F0
:1022F000307022303105C1F0233031053CF4211516
:10230000310571F02130310509F50CC0243031055B
:1023100079F02430310554F025303105B9F40AC084
:1023200029B309C026B307C023B305C020B303C037
:1023300021B101C020B130E086958695869502C016
:10234000359527958A95E2F7217001C02FEF822FEE
:102350000895882319F080B58B7F02C080B5846012
:1023600080BD81E008958F3F09F43FC0982F969576
:102370009695969521E030E002C0220F331F9A9582
:10238000E2F790E08770907082309105D9F0833049
:10239000910534F4009771F08130910541F50EC03C
:1023A00084309105C1F0843091058CF08530910521
:1023B000F1F415C08BB382278BBB07C088B382278B
:1023C00088BB03C085B3822785BB81E0089582B3B3
:1023D000822782BBFACF83B1822783B9F6CF80915F
:1023E0006200822780936200F0CF8FEF08958FEF15
:1023F00008958F3F09F48CC0982F969596959695E1
:1024000021E030E002C0220F331F9A95E2F790E0FE
:10241000662309F04AC0322F309587709070823061
:10242000910519F1833091053CF4009781F08130DA
:10243000910509F06DC012C08430910521F18430FE
:102440009105D4F08530910509F062C023C08AB3AC
:1024500083238ABB8BB3822B8BBB58C087B3832368
:1024600087BB88B3822B88BB51C084B3832384BBD2
:1024700085B3822B85BB4AC081B3832381BB82B3E2
:10248000822B82BB43C082B1832382B983B1822B6A
:1024900083B93CC080916100832380936100809167
:1024A0006200822B8093620031C08770907082300E
:1024B0009105D9F08330910534F4009771F08130A3
:1024C000910541F50EC084309105B9F08430910535
:1024D00084F085309105F1F414C08AB3822B8ABB55
:1024E00015C087B3822B87BB11C084B3822B84BBFA
:1024F0000DC081B3822B81BB09C082B1822B82B90E
:1025000005C080916100822B8093610081E0089575
:102510008FEF08958FEF08958FEF0895009711F4CE
:1025200080E009C08130910511F488E004C0823058
:10253000910529F480E10E94B31181E008958FEFA5
:102540000895009711F480E009C08130910511F4DD
:1025500088E004C08230910529F480E10E94E610F1
:1025600081E008958FEF089580B5846080BD87E095
:1025700087BB88BB8FEF84BB15BA82E082B987E640
:102580008ABB80E48BBB80E58DB981E08EB980E0A9
:1025900090E00E94A11281E090E00E94A11282E0EE
:1025A00090E00E94A11283E090E00E94A1120895A1
:1025B000009711F480E009C08130910511F488E0A2
:1025C00004C08230910529F480E10E942C1181E041
:1025D00008958FEF089590919B0095FFFCCF909107
:1025E0009B009F7D90939B0080939C000895909307
:1025F000900089B986E0809395005298599A8AB1E3
:1026000088618AB908950F931F93CF93DF930E9437
:10261000F712CEEBD0E109EB10E1CE01B8010E9438
:10262000D6419093910680939006CE01B8010E9406
:10263000D64190938F0680938E06DF91CF911F91A4
:102640000F910895909398008093990086E080936D
:102650009D00EAE9F0E080818B7F8083ABE9B0E008
:102660008C9182608C9380818861808308958091B1
:102670009B0087FFFCCF80919B008F7780939B000E
:1026800080919C0008950000000000000000019768
:10269000D1F708950E94664308950E946E4380E03A
:1026A0000895EF92FF920F931F93CF93DF93E82E3D
:1026B000E7017E01F92EE70180E090E00E94664389
:1026C000082F8B8381E090E00E946643E82E8A8386
:1026D00082E090E00E946643F82E898383E090E0D8
:1026E0000E946643182F888384E090E00E9466432E
:1026F000FE0CF00EF10E8F1511F481E001C08FEF8A
:10270000DF91CF911F910F91FF90EF900895CF939C
:10271000DF93EC0185E090E00E946643888381E0CE
:10272000DF91CF910895FC0186E090E060810E94E6
:102730006E4381E00895CF93DF93EC0186E090E053
:102740000E946643888381E0DF91CF9108950F93C3
:102750001F93CF93DF93082F192FC8E0D0E0CE014D
:102760000E946643F80181938F012196C831D105FB
:10277000B1F781E0DF91CF911F910F9108950F93F1
:102780001F93CF93DF93082F192FC8E0D0E0F801F3
:1027900061918F01CE010E946E432196C831D1050F
:1027A000B1F781E0DF91CF911F910F910895CF9301
:1027B000DF93EC0187E090E00E946643888381E02C
:1027C000DF91CF910895FC0187E090E060810E9445
:1027D0006E4381E00895F8940895789408950E94D6
:1027E000EB13FFCF0F931F93DF93CF93CDB7DEB7DC
:1027F000A3970FB6F894DEBF0FBECDBF0E943A1963
:1028000080934F068F3F21F48EE060E00E94C21754
:102810000E947326082F81FF04C084E160E00E94BB
:10282000C21702FF04C083E160E00E94C217109249
:1028300052061092600610925F0610925106109296
:1028400050061092610610925E06EFE3F6E08FEFFD
:10285000808382838183339696E0EE34F907C1F753
:1028600093E69093A2058093A0059093C30580936F
:10287000C1059093E4058093E2059093050680934B
:1028800003069093260680932406E5E6F6E020E012
:1028900030E001C09A01A9014F5F5F4FCA01880F64
:1028A000991F880F991F840F951F8E59994F9183F7
:1028B0008083C901880F991F880F991F820F931F6A
:1028C0008E59994F9483838335964530510511F77E
:1028D000109264061092630610927F0610927E0694
:1028E000109255061092540682E696E09093970552
:1028F000809396058E010F5F1F4FC80164EA72E254
:102900000E94ED26C80168ED74E040E850E00E94A6
:10291000332785E58093D80419861C861D861E867C
:102920001F86188A198A1A8A1B8A1C8A1D8A1E8A7F
:102930001F8A188E198E1A8E1B8E1C8E1D8E1E8E4F
:102940001F8E18A219A21AA21BA281E0888792E00A
:102950009A878B87C8010E948C1DA3960FB6F894A6
:10296000DEBF0FBECDBFCF91DF911F910F910895B4
:10297000CF92DF92FF920F931F93DF93CF9300D0FC
:10298000CDB7DEB7B0EACB2EB5E0DB2E90E0F60196
:10299000F080FF2DFF3FB1F000EA15E020E0921734
:1029A00061F0F8018081F81641F485E06F2D2983EC
:1029B0009A830E94C2179A8129812F5F0F5D1F4F52
:1029C000253069F79F5F21E230E0C20ED31E9530BB
:1029D000F1F60E944E1C992787FD9095FC01A5E019
:1029E000EE0FFF1FAA95E1F7E80FF91FE856FA4F1F
:1029F000828580936106F0936006E0935F06F09312
:102A00005106E0935006809352060E9468270E9468
:102A100059270E94B532FFCFEF92FF920F931F9379
:102A2000CF93DF93EC017B018A018985823021F00D
:102A300080914E06888301C0188280914E068530B1
:102A400020F087E060E00E94C2178985823029F07B
:102A500080914E068F5F80934E0680914E068823AC
:102A600019F481E080934E068881992787FD90951F
:102A7000FC01A5E0EE0FFF1FAA95E1F7E80FF91F93
:102A8000E856FA4FF182E08288858287888199270B
:102A900087FD9095FC0175E0EE0FFF1F7A95E1F739
:102AA000E80FF91FE856FA4F83E081872881822FCB
:102AB000992787FD9095FC0165E0EE0FFF1F6A9551
:102AC000E1F7E80FF91FE856FA4F20878881992728
:102AD00087FD90957C0155E0EE0CFF1C5A95E1F7BF
:102AE000E80EF91E88E995E0E80EF91EF701158257
:102AF000CE010B960E945521F701948F838F8B8511
:102B00009C85AD85BE858E339105A105B10520F06C
:102B100086E168810E94C217E880FF24E7FCF094F8
:102B2000CE014B960E945521F70145E0EE0FFF1FA5
:102B30004A95E1F7EE0DFF1DE856FA4F968B858B0F
:102B40008881992787FD90957C0135E0EE0CFF1C6C
:102B50003A95E1F7E80EF91E88E995E0E80EF91ECE
:102B6000F70185899689238D348D820F931F908F6D
:102B7000878BCE0143960E945521F701968F858F52
:102B80008881992787FD9095FC0125E0EE0FFF1FB6
:102B90002A95E1F7E80FF91FE856FA4F858D968DD3
:102BA000928F818F81E090E090A3878F13830283BF
:102BB00081E08487DF91CF911F910F91FF90EF907B
:102BC00008950E94BF22089585E690E00895E0915F
:102BD0005F06F091600684870895E0915F06F091AA
:102BE0006006848508952091D704222341F0FB01DB
:102BF000208320918503FC01208381E0089580E0FB
:102C00000895DF93CF930F92CDB7DEB7198207C037
:102C100080ED97E00E94FA2489818F5F8983898102
:102C20008436B0F30F90CF91DF91089581E090E06A
:102C30000E94D8120E94011681E090E00E94A11229
:102C40000E940116089581E090E00E94D8120E942F
:102C500001160E9401160E94011681E090E00E9478
:102C6000A1120E9401160895FF920F931F93DF9304
:102C7000CF9300D00F92CDB7DEB700D000D000D0F8
:102C8000EDB7FEB731968E010F5F1F4FADB7BEB7E0
:102C900012961C930E93119729E831E03383228317
:102CA000848315820E94D842EDB7FEB736960FB6E0
:102CB000F894FEBF0FBEEDBFFF2472C0800F911FBE
:102CC000DC018C918433D1F1853370F48133F9F0D8
:102CD000823320F4803309F05CC016C0823311F1D6
:102CE000833309F056C023C08733C9F1883330F4E9
:102CF000853369F1863309F04CC02CC08833B1F1BB
:102D0000893309F046C03BC00E94231602C00E94CE
:102D100016160E9423160E9423160E9423160E9454
:102D2000231637C00E9416160E941616F4CF0E9472
:102D300016160E9416160E941616EFCF0E9416163F
:102D40000E9416160E9416160E941616E8CF0E94C0
:102D5000161602C00E9423160E94161604C00E9476
:102D600023160E9423160E94161606C00E942316E0
:102D70000E9423160E9423160E94161608C00E9465
:102D800023160E9423160E9423160E9423160E94D7
:102D900016160E9401160E9401160E940116F39455
:102DA000F80101900020E9F73197E01BF10B8F2D1E
:102DB00090E08E179F0708F481CF0F900F900F902F
:102DC000CF91DF911F910F91FF9008950F931F9363
:102DD0008091D704882319F41F910F9108950E94C0
:102DE000EB130E94EB1384EB94E00E94D31000D00D
:102DF00000D0EDB7FEB7319689E891E0ADB7BEB728
:102E000012969C938E9311978091850382831382EF
:102E10000E948F420F900F900F900F9080EB94E0E4
:102E20000E94D3108091D704883110F01092D704FB
:102E30008091D70490E001978631910508F04BC04E
:102E40008A5B9F4FFC01EE0FFF1F0590F491E02D70
:102E5000099484E794E041C08DE494E03EC089E3A6
:102E600094E03BC083E294E038C088E094E035C051
:102E700082EF93E032C08AED93E02FC087EC93E0BD
:102E80002CC084EB93E029C086E993E026C081E75B
:102E900093E023C085E693E020C08AE493E01DC060
:102EA0008BE393E01AC087E293E017C086E193E0DA
:102EB00014C082E093E011C082EE92E00EC08AEC72
:102EC00092E00BC08FEA92E008C08EE992E005C064
:102ED0008FE892E002C088E892E00E94D3106091EF
:102EE0009006709191068DE090E00E94634260919F
:102EF0009006709191068AE090E00E94634210E093
:102F00001FC082E090E00E94D81283E090E00E940F
:102F1000A11204E688EE93E00E94FA240150D1F752
:102F200083E090E00E94D81282E090E00E94A1121B
:102F300004E688EE93E00E94FA240150D1F71F5F67
:102F40001431FCF283E090E00E94A11282E090E054
:102F50000E94A112809185030E9434160E940116DE
:102F600082E090E00E94D8120E94011682E090E078
:102F70000E94A1120E9401168091D7040E9434166B
:102F800010E0BFCFEF92FF920F931F93182FE62E02
:102F90008093D704609385030E94E61600E021C069
:102FA00082E090E00E94D81283E090E00E94A1129B
:102FB00094E6F92E88EE93E00E94FA24FA94D1F771
:102FC00083E090E00E94D81282E090E00E94A1127B
:102FD00084E6F82E88EE93E00E94FA24FA94D1F762
:102FE0000F5F0431E8F283E090E00E94A11282E0DA
:102FF00090E00E94A1128E2D0E943416812F0E9413
:10300000341600E0CDCF8093D704E0915F06F091B5
:1030100060068085809385030E94E61608956F926E
:103020007F928F929F92AF92BF92CF92DF92EF9258
:10303000FF920F931F93CF93DF9380EC94E00E9455
:10304000D31000D000D08CE891E0ADB7BEB7129697
:103050009C938E931197E0915F06F09160068085B6
:10306000992787FD909514969C938E9313970E94B1
:103070008F42E0915F06F0916006C281D38185E9BD
:1030800091E0EDB7FEB792838183D483C3830E941E
:103090008F42EDB7FEB7319662EAE62E61E0F62E7A
:1030A000ADB7BEB71296FC92EE92119788818283DB
:1030B00013820E948F425FEAC52E51E0D52EEDB7F4
:1030C000FEB7D282C182E0915F06F09160068081F6
:1030D0009181ADB7BEB714969C938E9313970E94BF
:1030E0008F4249EBA42E41E0B42EEDB7FEB7B28279
:1030F000A18280915F0690916006948383830E94F1
:103100008F4208E915E00F900F900F900F90C0E0EC
:10311000D0E039EC632E31E0732E4701C601DC2C80
:10312000C92EC501BA2CA92ED8011296ED90FC909B
:10313000139700D000D000D0EDB7FEB73196ADB7F1
:10314000BEB712967C926E921197D383C283F5829A
:10315000E4820E948F420F900F90EDB7FEB7319638
:10316000ADB7BEB711968C92119712969C92D7016B
:103170008C91828313820E948F42EDB7FEB7D18279
:10318000C282D8018D919C91948383830E948F4247
:10319000EDB7FEB7B182A282CE0125E0880F991F5C
:1031A0002A95E1F78C0F9D1F88569A4F948383834D
:1031B0000E948F4221960F5D1F4F0F900F900F902E
:1031C0000F90C530D10509F0AFCFDF91CF911F919E
:1031D0000F91FF90EF90DF90CF90BF90AF909F90B6
:1031E0008F907F906F900895CF93DF93E0915F066B
:1031F000F0916006C281D3818881853539F00E94C3
:103200000F1881E00E94031885E58883E0915F062E
:10321000F09160068081918121E18030920728F051
:103220000E940F1882E10E940318DF91CF91089548
:10323000992787FD9095FC0175E0EE0FFF1F7A95A9
:10324000E1F7E80FF91FE856FA4FA281B3818C919C
:10325000853519F085E58C9309C08081918121E144
:103260008030920728F082E10E9403188FEF0895C2
:1032700081E0089560912C0470912D0480912E04BA
:1032800090912F04E0E0F0E09B01AC010E2E04C011
:1032900056954795379527950A94D2F720FD1AC081
:1032A00021E030E040E050E00E2E04C0220F331F3A
:1032B000441F551F0A94D2F7262B372B482B592B26
:1032C00020932C0430932D0440932E0450932F040C
:1032D0008E2F08953196E032F105B1F68FEF089503
:1032E000E0915F06F0916006658576858785908917
:1032F0000895DF92EF92FF920F931F93D82E81E0F3
:10330000E82EF12C012D112D0D2C04C0EE0CFF1C0C
:10331000001F111F0A94D2F780912C0490912D0464
:10332000A0912E04B0912F048E219F21A023B123C0
:103330000097A105B10509F45DC00E94EB13EFE908
:10334000F5E0A8019701209530954095509563E0F0
:1033500081818F3F39F186819781A085B1858E1556
:103360009F05A007B10731F41286138614861586CF
:103370001082628386819781A085B1858223932301
:10338000A423B52386839783A087B18782859385FD
:10339000A485B58582239323A423B52382879387AD
:1033A000A487B587B19686E0E434F80789F62EEF56
:1033B0003FEF4FEF5FEF04C0220F331F441F551F35
:1033C000DA94D2F780912C0490912D04A0912E04D0
:1033D000B0912F0482239323A423B52380932C043C
:1033E00090932D04A0932E04B0932F040E94ED130C
:1033F00081E001C08FEF1F910F91FF90EF90DF9060
:103400000895EF92FF920F931F9321E030E040E088
:1034100050E004C0220F331F441F551F8A95D2F776
:10342000E0915F06F091600685859685A785B08955
:1034300079018A01E822F9220A231B23E114F1040D
:1034400001051105D1F020953095409550958223C6
:103450009323A423B52385879687A787B08B81897B
:103460009289A389B48982239323A423B523818BD2
:10347000928BA38BB48B81E001C08FEF1F910F91D2
:10348000FF90EF90089520912C0430912D044091ED
:103490002E0450912F04082E04C056954795379559
:1034A00027950A94D2F72170307021153105E9F083
:1034B000E0915F06F091600621E030E040E050E0EE
:1034C00004C0220F331F441F551F8A95D2F78585EC
:1034D0009685A785B089822B932BA42BB52B858746
:1034E0009687A787B08B81E008958FEF0895EF92BC
:1034F000FF920F931F93DF93CF930F92CDB7DEB759
:1035000091E0E92EF12C012D112D04C0EE0CFF1CD1
:10351000001F111F8A95D2F780912C0490912D04E1
:10352000A0912E04B0912F048E219F21A023B123BE
:103530000097A105B10511F481E03FC00E94EB1393
:10354000EFE9F5E020E033E080818130A9F4828565
:103550009385A485B5858E219F21A023B123009753
:10356000A105B10549F03283178616861082E286DE
:10357000F3860487158721E08081823091F482856B
:103580009385A485B5858E159F05A007B10749F4DD
:103590003283178616861082128613861486158645
:1035A00021E0B19686E0E434F80771F629830E94A1
:1035B000ED132981222329F482E00E94E7158FEF81
:1035C00001C081E00F90CF91DF911F910F91FF908B
:1035D000EF900895E0915F06F091600625853685AD
:1035E0004785508926233723482359232115310540
:1035F0004105510521F1618B728B838B948B21E006
:10360000278300904F0604C0969587957795679518
:103610000A94D2F7617070706115710519F00E94FB
:103620007A1E04C080E090E00E94A11EE0915F0637
:10363000F0916006218932894389548903C020E0D2
:1036400030E0A901B901CA01089590915E06943055
:10365000D0F4EFE3F6E020E030813F3F21F02F5F30
:1036600033962530C9F730E0F901EE0FFF1FE20F66
:10367000F31FE15CF94F8283808361839F5F9093A6
:103680005E069F0102C020E030E0C9010895BC0140
:1036900020E030E0822FA901440F551F420F531F35
:1036A000415C594F6417750731F02F5F3F4F25304C
:1036B000310581F78FEF08950E94471B8F3F11F46A
:1036C00081E003C0853029F482E00E94E7158FEF86
:1036D0000895992787FD9095FC01EE0FFF1FE80FD5
:1036E000F91FE15CF94F8FEF8083828381838091A2
:1036F0005E06815080935E0681E008950F931F93CC
:10370000DF93CF930F92CDB7DEB70E94471B8F3F59
:1037100011F481E003C0853029F482E00E94E715AE
:103720008FEF43C0282F332727FD30958901000FE5
:10373000111F020F131F015C194FD80112962C9113
:1037400012979C91291784F589830E94EB13F80145
:1037500092819F5F9283E0915F06F09160061482F0
:10376000EFE9F5E08981992787FD9095A92FB92F79
:1037700063E02081223089F4228533854485558594
:10378000281739074A075B0741F4628317861686B4
:1037900010821286138614861586B19626E0E434CC
:1037A000F20739F70E94ED1381E00F90CF91DF917E
:1037B0001F910F9108950F931F93DF93CF930F9253
:1037C000CDB7DEB70E94471B8F3F11F481E003C0E5
:1037D000853029F482E00E94E7158FEF40C089838D
:1037E0000E94EB138981082F112707FD1095F8011E
:1037F000EE0FFF1FE00FF11FE15CF94F928199235B
:10380000B1F4E0915F06F091600697819260978332
:10381000992787FD9095A92FB92F818B928BA38B28
:10382000B48B0E94ED1380E090E00E94A11EF8018D
:10383000EE0FFF1FE00FF11FE15CF94F8281815015
:103840008283A0915F06B091600681811B968C9364
:103850001B9781E014968C930E94ED1381E00F90EA
:10386000CF91DF911F910F9108950E94471B8F3FC9
:1038700011F481E003C0853029F482E00E94E7154D
:103880008FEF0895992787FD9095FC01EE0FFF1F9C
:10389000E80FF91FE15CF94F82810895E091540629
:1038A000F0915506808108950F931F93CF93DF9376
:1038B000C0915406D091550682ED94E00E94D31039
:1038C0000AED11E01DC000D000D0EDB7FEB71283A5
:1038D0000183288130E0C90145E0880F991F4A958E
:1038E000E1F7820F931F81559A4F948383830E943F
:1038F0008F420B80DC81C02D0F900F900F900F90A6
:10390000209709F78FEC94E00E94D310DF91CF91BC
:103910001F910F910895DF92EF92FF920F931F93E3
:10392000CF93DF93E0919605F0919705309709F4D6
:103930009BC040915406509155064115510509F41C
:1039400057C0DA01682F772767FD70959B0115E056
:10395000220F331F1A95E1F7260F371F28563A4FCB
:10396000B901665F7F4F89010C5F1F4F9BE0E92E15
:10397000F12CE20EF31E2C9130E0E90195E0CC0F22
:10398000DD1F9A95E1F7C20FD31FC856DA4F9C810D
:10399000992329F0DB84EB019881D91658F1E801CD
:1039A0009881992379F0E90195E0CC0FDD1F9A9574
:1039B000E1F7C20FD31FC856DA4FDA84E7019881C6
:1039C000D916C0F0E90195E0CC0FDD1F9A95E1F71B
:1039D000C20FD31FC856DA4F2A85EB0198812917E9
:1039E00048F013960D90BC91A02D109721F602C0BF
:1039F000A0E0B0E08083C381D481D0939705C093C9
:103A00009605A417B507B1F4109749F0B483A383C2
:103A1000128211821296FC93EE93119706C01482C3
:103A2000138212821182FA83E983F0935506E093A0
:103A300054061AC011968D919C911297AC17BD0730
:103A400059F092838183B483A3831196CD91DC9145
:103A50001297FC83EB8304C01482138292838183C8
:103A60001296FC93EE931197DF91CF911F910F91D6
:103A7000FF90EF90DF900895CF93DF93E09154068D
:103A8000F0915506309709F444C0992787FD909529
:103A9000208130E02817390781F4A381B481B093E5
:103AA0005506A093540612961C921E92119718C0A8
:103AB0000380F481E02D309761F1208130E02817F8
:103AC0003907B1F7C181D281838194819C838B8333
:103AD000A381B481109721F01296DC93CE931197B5
:103AE000A0919605B0919705109739F4F09397053A
:103AF000E0939605148213820AC0B483A3831296BE
:103B0000FC93EE931197F0939705E093960512823C
:103B10001182DF91CF910895EF92FF920F931F933F
:103B2000CF93DF93EC0169817A814B815C818D8138
:103B30009E810E940827BC018F81882369F04B81F8
:103B40005C81CE0120E030E000E010E0EE24FF24B4
:103B50000E940C151F8213C08881992787FD9095BC
:103B6000FC0125E0EE0FFF1F2A95E1F7E80FF91F92
:103B7000E856FA4F81858330D1F471836083888160
:103B8000992787FD9095FC0105E0EE0FFF1F0A9530
:103B9000E1F7E80FF91FE856FA4F858996890097F3
:103BA00041F482E0818788810E948B1C02C08FEFE4
:103BB00001C081E0DF91CF911F910F91FF90EF90B5
:103BC00008951F93DF93CF93CDB7DEB728970FB635
:103BD000F894DEBF0FBECDBF29833A834B835C834D
:103BE0006D837E838F8398870E94EB130E949125BB
:103BF000182FCE0101960E9455219C01833091051A
:103C000060F0E0915F06F0916006210F311D368B68
:103C1000258B0E94ED1381E001C08FEF28960FB62F
:103C2000F894DEBF0FBECDBFCF91DF911F910895F5
:103C30000E94FD26E0915F06F09160068581882351
:103C4000B9F70895FF920F931F93DF93CF93CDB7EA
:103C5000DEB728970FB6F894DEBF0FBECDBF29831D
:103C60003A834B835C836D837E838F8398870E9426
:103C7000F4180E94EB13E0915F06F091600681E07A
:103C8000858381E090E090A3878F0E949125F82E94
:103C9000CE0101960E945521E0915F06F0916006E9
:103CA0000F2D10E09801280F391F368B258B8F2D93
:103CB000883F78F40E948B250F5F1F4F282F30E03C
:103CC0000217130734F48F2D8E5F8093D6040E9461
:103CD0008E250E94ED130E94181E81E028960FB6D3
:103CE000F894DEBF0FBECDBFCF91DF911F910F9132
:103CF000FF9008951F930E94EB13E0915F06F091EF
:103D0000600681E0858386830E949125182F883F75
:103D100088F40E948B25212F30E02F5F3F4F482FE2
:103D200050E02417350734F4812F8E5F8093D6043A
:103D30000E948E250E94ED130E94181E81E01F91A3
:103D400008951F93CF93DF93EC010E94EB13E09152
:103D50005F06F091600681E08583D68BC58B0E945B
:103D60009125182F883F88F40E948B25212F30E061
:103D70002F5F3F4F482F50E02417350734F4812F31
:103D80008E5F8093D6040E948E250E94ED130E94C0
:103D9000181E81E0DF91CF911F910895EF92FF925D
:103DA0000F931F93DF93CF930F92CDB7DEB78C01A4
:103DB0000E94EB13E0915F06F091600681E085833D
:103DC0000E949125E0915F06F0916006E82EFF24A5
:103DD0000E0D1F1D168B058B883F90F489830E9462
:103DE0008B250894E11CF11C282F30E09981E21604
:103DF000F30634F4892F8E5F8093D6040E948E25BB
:103E00000E94ED130E94181E81E00F90CF91DF9168
:103E10001F910F91FF90EF9008951F93CF93DF9321
:103E2000EC010E94F418209711F4C1E0D0E00E9448
:103E3000EB13E0915F06F091600681E08583D0A3EB
:103E4000C78F0E949125182F883F88F40E948B25E8
:103E5000212F30E02F5F3F4F482F50E024173507C8
:103E600034F4812F8E5F8093D6040E948E250E94A9
:103E7000ED130E94181E81E0DF91CF911F910895EC
:103E80001F930E94F4180E94EB13E0915F06F091DB
:103E9000600681E090E090A3878F81E085830E9497
:103EA0009125182F883F88F40E948B25212F30E020
:103EB0002F5F3F4F482F50E02417350734F4812FF0
:103EC0008E5F8093D6040E948E250E94ED130E947F
:103ED000181E81E01F910895E0915F06F091600641
:103EE00080850E943C1DE0915F06F091600684E0B1
:103EF00081870E94401F81E008958F929F92AF9228
:103F0000BF92CF92DF92EF92FF920F931F93DF93B6
:103F1000CF93CDB7DEB760970FB6F894DEBF0FBE74
:103F2000CDBF29873A874B875C876D877E878F87D0
:103F3000988BCE0101960E94D91FCE010996098562
:103F40001A852B853C854D855E856F8578898980AE
:103F50009A80AB80BC80CD80DE80EF80F8840E94A8
:103F600037208F3F61F029853A854B855C856D85CB
:103F70007E858F8598890E94221E81E001C08FEF87
:103F800060960FB6F894DEBF0FBECDBFCF91DF9124
:103F90001F910F91FF90EF90DF90CF90BF90AF9067
:103FA0009F908F900895E0915F06F0916006808564
:103FB0000895EF92FF920F931F93CF93DF93EC013D
:103FC0001C821D821E821F82809156069091570688
:103FD000A0915806B091590688839983AA83BB8320
:103FE000E0905A06F0905B0600915C0610915D0629
:103FF000EC82FD820E831F830E949125682F70E062
:1040000080E090E023EB36EE4EE050E00E945C4012
:104010006E0D7F1D801F911F6C837D838E839F8318
:1040200013C080509A4CAA49BB438C839D83AE83B6
:10403000BF8388819981AA81BB810196A11DB11D91
:1040400088839983AA83BB838C819D81AE81BF8144
:1040500080302AEC92072AE9A2072BE3B20708F77F
:10406000DF91CF911F910F91FF90EF9008958F9264
:104070009F92AF92BF92CF92DF92EF92FF920F93F7
:104080001F93DF93CF93CDB7DEB760970FB6F89449
:10409000DEBF0FBECDBFFC0109831A832B833C8397
:1040A0004D835E836F83788789869A86AB86BC86CC
:1040B000CD86DE86EF86F88AE980FA800B811C8146
:1040C0002D813E814F815885A984BA84CB84DC84BC
:1040D0008D859E85AF85B889EA14FB040C051D0506
:1040E00008F440C0AE14BF04C006D10691F42817EE
:1040F00039074A075B07B0F1281B390B4A0B5B0BEA
:10410000248335834683578310821182128213825F
:1041100027C0281739074A075B0790F40894E1087D
:10412000F10801091109EA18FB080C091D09E082D0
:10413000F18202831383205036434546544C08C015
:10414000EA18FB080C091D09E082F182028313833F
:10415000281B390B4A0B5B0B24833583468357831B
:1041600081E001C08FEF60960FB6F894DEBF0FBEFE
:10417000CDBFCF91DF911F910F91FF90EF90DF9016
:10418000CF90BF90AF909F908F900895FC0114C086
:1041900020503A4C4A495B432483358346835783F6
:1041A00020813181428153812F5F3F4F4F4F5F4FBD
:1041B0002083318342835383248135814681578113
:1041C00020308AEC38078AE948078BE3580700F764
:1041D00008958F929F92AF92BF92CF92DF92EF920B
:1041E000FF920F931F93DF93CF93CDB7DEB7609706
:1041F0000FB6F894DEBF0FBECDBF09831A832B83A1
:104200003C834D835E836F83788789869A86AB86ED
:10421000BC86CD86DE86EF86F88A29853A854B8571
:104220005C85E980FA800B811C812E0D3F1D401FAB
:10423000511FFC0120833183428353832D853E85AA
:104240004F855889ED80FE800F8118852E0D3F1D0A
:10425000401F511F24833583468357830E94C62005
:1042600081E060960FB6F894DEBF0FBECDBFCF9150
:10427000DF911F910F91FF90EF90DF90CF90BF9053
:10428000AF909F908F900895609356067093570655
:10429000809358069093590620935A0630935B06F4
:1042A00040935C0650935D0608958F929F92AF9263
:1042B000BF92CF92DF92EF92FF920F931F93FC0178
:1042C000208131814281538164817581868197810A
:1042D000211531054105510509F461C0223431052C
:1042E0004105510508F062C05B016C01EE24FF241A
:1042F000870160E038C08A2CAB2DA653F1E0AB15E6
:1043000008F0F0E08C2D865691E08C1508F090E0D6
:10431000F80F71E0F81708F070E0972B7D2D755CB1
:10432000E1E07D1508F0E0E0970F81E0971708F0D5
:1043300080E08E2B8E0DE1E08E1508F0E0E0EF0DB1
:1043400071E0EF1508F070E0700FB1E0701708F041
:10435000B0E0B10FA82CBA2ECF2ED92EE82EFE2E0B
:10436000072F1B2F6F5F862F90E0A0E0B0E0821731
:104370009307A407B50708F4BECF9501A601B701BE
:10438000C801A3EBAA2EF6EEBF2EEEE0CE2EDD2462
:10439000EE24FF2400E010E00E94E03209C023EB8D
:1043A00036EE4EE050E00E948F4002C020E030E048
:1043B000C9011F910F91FF90EF90DF90CF90BF90B8
:1043C000AF909F908F900895EF92FF920F931F935D
:1043D000DF93CF93CDB7DEB728970FB6F894DEBF43
:1043E0000FBECDBF7B018C01BAE016950795F794FF
:1043F000E794BA95D1F7E982FA820B831C83737034
:104400008070907023EB36EE4EE050E00E945C40EE
:104410006D837E838F8398872E2D3A814B815C81BB
:1044200028960FB6F894DEBF0FBECDBFCF91DF91B7
:104430001F910F91FF90EF9008958F929F92AF92EE
:10444000BF92CF92DF92EF92FF920F931F93FC01E6
:104450002081318142815381648175818681978178
:10446000211531054105510509F45BC05B016C0163
:10447000EE24FF24870160E038C08A2CAB2DA653C0
:10448000F1E0AB1508F0F0E08C2D865691E08C152C
:1044900008F090E0F80F71E0F81708F070E0972B43
:1044A0007D2D755CE1E07D1508F0E0E0970F81E07F
:1044B000971708F080E08E2B8E0DE1E08E1508F046
:1044C000E0E0EF0D71E0EF1508F070E0700FB1E083
:1044D000701708F0B0E0B10FA82CBA2ECF2ED92E4D
:1044E000E82EFE2E072F1B2F6F5F862F90E0A0E097
:1044F000B0E082179307A407B50708F4BECF950173
:10450000A601B701C801E3EBAE2E06EEB02E1EE009
:10451000C12EDD24EE24FF2400E010E00E94E032F2
:1045200006C023EB36EE4EE050E00E948F40B9010A
:10453000CA011F910F91FF90EF90DF90CF90BF9035
:10454000AF909F908F9008951F9311E00E94F418F0
:104550000E948B25853110F4109353060E94FD268E
:104560008091D804853519F088E00E940318809165
:104570007E10853559F388E00E940318E7CF2F920B
:104580003F924F925F926F927F928F929F92AF92E3
:10459000BF92CF92DF92EF92FF920F931F93DF9320
:1045A000CF930F92CDB7DEB70E948A250E94EB13FE
:1045B0000E9406250E940C252C018AEF0E948E2560
:1045C0006091D60470E080E090E023EB36EE4EE0A0
:1045D00050E00E945C407B018C0180915A069091D2
:1045E0005B06A0915C06B0915D06E80EF91E0A1FFD
:1045F0001B1FC801B7010E948F40E61AF70A080B7B
:10460000190B8091560690915706A0915806B091CB
:10461000590673EBA72E76EEB72E7EE0C72ED12C6F
:1046200014C080E096E3A5E6B4ECE80EF91E0A1F7C
:104630001B1FC801B701A60195010E948F40E61A11
:10464000F70A080B190BD401C3013C014D01089472
:10465000611C711C811C911CE0E0EE16EAECFE0668
:10466000EAE90E07EBE31E07E0F680935606909307
:104670005706A0935806B0935906E0925A06F09256
:104680005B0600935C0610935D06E0915F06F09177
:10469000600685818823B9F081858430A1F0878107
:1046A000823029F0882341F08681882311F485E047
:1046B00001C083E0818704C083E08187178216826E
:1046C00080850E943C1DE0915F06F0916006858D1B
:1046D000968D009799F16085662381F181858430FC
:1046E00069F1218D328D8091D60490E02817390729
:1046F00050F482E00E94C217E0915F06F0916006DC
:10470000128E118E04C0281B390B328F218FE0913D
:104710005F06F09160060085218D328D21153105EF
:1047200069F483E0602F0E94C217E0915F06F09168
:10473000600683E08187802F0E943C1D6DE9262E54
:1047400065E0362E00E61AEE20E051E0652E712C71
:104750004AEFE42EF12C32E0932E91E0A92EB12CF9
:10476000C12CD12CD10113968C9113978F3F09F452
:10477000C4C01C92882309F443C014968C911497EA
:104780008430F1F150964D915C9151978091D6040F
:1047900090E04817590738F0481B590B51965C9325
:1047A0004E93509703C0F101118A108AD10152969D
:1047B0004D915C9153974817590738F0481B590B96
:1047C00053965C934E93529712C0F1016689778994
:1047D0008617970728F4681B790B738B628B07C0C9
:1047E0000E947B40D10153969C938E935297F10186
:1047F00082899389009721F486899789938B828B8C
:10480000D10114968C911497833009F076C050969C
:104810008D919C915197009709F066C012968C91EA
:1048200012978823A9F011968C911197882381F013
:10483000D601C50100904F0604C0880F991FAA1F1A
:10484000BB1F0A94D2F7F10184879587A687B787A3
:10485000D10112961C92129711961C9211971C92DC
:104860005A964D915C915B9756968D919C91579776
:1048700058966D917C91599741305105D9F45596D0
:104880007C936E93549714969C92149752964D91E4
:104890005C91539751965C934E935097009721F4F7
:1048A0005196FC92EE925097822F29830E948B1C86
:1048B00029811AC0F101758B648BBA016150704077
:1048C000689FA001699F500D789F500D1124518B56
:1048D000408B538B428B009711F4F18AE08AD1010F
:1048E0005B967C926E925A97F1018089918900972C
:1048F00021F08017910708F48C012F5F81E290E08E
:10490000280E391E253009F02DCF0E944E1CE82EAE
:10491000282F332727FD3095F90185E0EE0FFF1F83
:104920008A95E1F7E20FF31FE856FA4F82858093EC
:104930006106F0935106E0935006EE20B9F0258D04
:10494000368D2115310551F0218D328D2A3F3105EB
:1049500028F42017310708F44BC00DC098010B3F15
:10496000110508F445C02AEF30E042C00B3F1105A5
:1049700010F00AEF10E080935206F0936006E09387
:104980005F060093D6040E949125282F30E02F5F08
:104990003F4F2017310740F00E949125082F10E06B
:1049A0000E5F1F4F0093D604EE2011F010925306B5
:1049B000802F0E948E25C2016EEE72E00E941D259E
:1049C0000E9452270E94B5320F90CF91DF911F9124
:1049D0000F91FF90EF90DF90CF90BF90AF909F909E
:1049E0008F907F906F905F904F903F902F900895A1
:1049F0008901C1CF00000000000000000197D1F73D
:104A000008951EBC089581E08EBD089580B5816033
:104A100080BD1DBC1CBC0895DF93CF9300D0CDB7E3
:104A2000DEB78CB59DB59A83898329813A81C90106
:104A30000F900F90CF91DF910895EF92FF920F9317
:104A40001F93CF93DF93EC018FEFC937D80710F096
:104A5000C0E0D0E07E0100E010E080E090E0E60EF3
:104A6000F71E081F191F91E0E91690E0F90691E082
:104A7000090790E0190768F080E090E0AFEFBFEF22
:104A8000E80EF91E0A1F1B1F0E940C25C817D90724
:104A9000D8F30E940C258E159F05D8F3DF91CF9196
:104AA0001F910F91FF90EF90089582BF089513BE5C
:104AB00087B78D7F87BF87B78E7F87BF08958BE0CD
:104AC00083BF87B7836087BF089580B5826080BD4C
:104AD00012BE109288031092D60408958EEF809330
:104AE000D60498E090BF81BF83E086BF8BE083BF90
:104AF00080B5876080BD1FBC81E08EBD1DBC1CBC25
:104B000080B5816080BD0E9465250E945F2510925E
:104B100088030895089581B78F5F0895815081BFFC
:104B2000089582B708951F920F920FB60F920BB699
:104B30000F9211242F933F934F935F936F937F9323
:104B40008F939F93AF93BF93EF93FF938AE060E0BF
:104B50000E94C217FF91EF91BF91AF919F918F91EA
:104B60007F916F915F914F913F912F910F900BBE6D
:104B70000F900FBE0F901F9018950F920FB60F92C7
:104B80001F922F923F924F925F926F927F928F92DD
:104B90009F92AF92BF92CF92DF92EF92FF920F93CC
:104BA0001F932F933F934F935F936F937F938F93B5
:104BB0009F93AF93BF93CF93DF93EF93FF93A09116
:104BC0005F06B09160060DB60D920EB60D921F9263
:104BD000A091D304B091D4041E90BEBFADBF089580
:104BE000882319F487B78F7787BF8FEF08958823BD
:104BF00019F414BC81E008958FEF0895882319F407
:104C000024B530E002C020E030E0C90108958823D7
:104C100029F487B7806887BF81E008958FEF0895F2
:104C2000882359F5CB0101978530910510F46093E5
:104C3000D50488E085BD43BD30930403209303036E
:104C40008091D504813019F485B5816009C0823026
:104C500019F485B5826004C0833029F485B583607A
:104C600085BD81E00895843019F485B58460F8CF5E
:104C7000853029F485B58560F3CF8FEF089581E005
:104C800008951F920F920FB60F920BB60F92112438
:104C90002F933F934F935F936F937F938F939F9344
:104CA000AF93BF93EF93FF93E0910303F09104035D
:104CB000309711F0099504C08AE060E00E94C217A5
:104CC000FF91EF91BF91AF919F918F917F916F91E4
:104CD0005F914F913F912F910F900BBE0F900FBEA0
:104CE0000F901F90189504B603FC02C080E001C02D
:104CF00080E104B602FE06C094B79B7F94BF04B661
:104D000000FE846004B601FE05C094B79D7F94BF89
:104D100082600895882359F404B600FE04C094B755
:104D20009E7F94BF01C081E093B791118160089587
:104D30008FEF08958FEF08958FEF08951F920F92D0
:104D40000FB60F920BB60F9211242F933F934F93F0
:104D50005F936F937F938F939F93AF93BF93EF93E3
:104D6000FF938AE060E00E94C217FF91EF91BF912C
:104D7000AF919F918F917F916F915F914F913F91F3
:104D80002F910F900BBE0F900FBE0F901F90189594
:104D90000E94EB13A89584B7877F84BF81B5886193
:104DA00081BD11BC0E94ED1308950E94EB1384B7DE
:104DB000877F84BFA89581B5886181BD8FE081BD63
:104DC0000E94ED13089504B603FC02C081E008952B
:104DD0008FEF0895A89508950895FC017683658363
:104DE000089585B7837E886185BF85B7806285BF5A
:104DF000889585B78F7D85BF089585B7837E85BFEC
:104E000085B7806285BF889585B78F7D85BF0895FA
:104E100025E5FA012083FB0132979083818312926A
:104E20001292129212921292129212921292129262
:104E30001292129212921292129212921292129252
:104E40001292129212921292129212921292129242
:104E50001292129212921292129212921292129232
:104E60001292CF010895EF92FF920F931F93CF9369
:104E7000DF93EC018B017A014032510518F481E196
:104E80000E9403180894E108F108E00EF11EFA826E
:104E9000E9821C830B83DF91CF911F910F91FF90CB
:104EA000EF90089581EE95E19093FE108093FF10AE
:104EB000089585E580937E10EEEFF0E1F093D40441
:104EC000E093D30481EE95E190838093FF100895E1
:104ED0000E946E250E94ED1308950E94C327089535
:104EE0001F93DF93CF930F92CDB7DEB7142F83704C
:104EF0008C6269830E942E286981613011F480E000
:104F000001C080E80E94F627812F0E94F6270E94A8
:104F1000EA270F90CF91DF911F910895DF93CF93F0
:104F200000D0CDB7DEB780E487B986E086B9379A7E
:104F3000369A3699FECF84B195B19A8389830F90C2
:104F40000F90CF91DF9108953798089597B18F71A1
:104F5000907E892B87B9369A3699FECF24B135B128
:104F6000C90108958EE10E94A627BC0180E090E06F
:104F70000E94DE3D9B01AC0164EA70E78DE994E498
:104F80000E944A3D0895E1E7F0E08081808381E05E
:104F90008093700084E08093740008958091740081
:104FA00087FFFCCF0895E4E7F0E08081806880838C
:104FB0000895CF93DF93C4E7D0E08881806288832F
:104FC0000E94D3270E94CE2788818F7D8883DF911E
:104FD000CF910895809174008061809374000E9445
:104FE000D3278091740084FDFCCF089580937300D3
:104FF0000E94D3270E94CE2780917100887F88323B
:1050000041F090917100987F81E0983119F480E02F
:10501000089580E00895009721F0809174008064E5
:1050200003C0809174008F7B809374000E94D3270B
:105030000E94CE27809173000895DF93CF930F9243
:10504000CDB7DEB789830E94D9278981880F816017
:105050000E94F6270F90CF91DF910895DF93CF93B1
:105060000F92CDB7DEB789830E94D9278981880F37
:105070000E94F6270F90CF91DF9108950E948E270E
:1050800081E08093F40208958091F402882311F462
:105090000E943E280E94A4270895DF93CF930F9289
:1050A000CDB7DEB79091F402992321F489830E9451
:1050B0003E288981A898A098813019F41D9A159AE4
:1050C00002C01D9815980F90CF91DF910895DF933E
:1050D000CF930F92CDB7DEB79091F402992321F4CC
:1050E00089830E943E2889811D981598813019F482
:1050F000A89AA09A02C0A898A0980F90CF91DF918B
:1051000008958091F402882311F40E943E2881E0E2
:105110000E944D2881E00E94A62708958091F40204
:10512000882311F40E943E2881E00E94672881E0D4
:105130000E94A6270895AF92BF92CF92DF92EF927E
:10514000FF920F931F930E948E28BC0180E090E095
:105150000E94DE3D8B017C0160E070EC8FE794E4FF
:10516000202F312F4E2D5F2D0E94E53C20E030E4B2
:105170004CE156E40E94B53E202F312F4E2D5F2D7D
:105180000E944A3D0E94753E7B018C0120E030E088
:1051900040E450E40E94183FD62EC72EB82EA92E08
:1051A000C801B70129E733EE4DE759E30E94B53E48
:1051B00028EC32E644E85AE30E94E63C7B018C018D
:1051C000A6019501652F742F832F922F2DE234ECC9
:1051D0004CE154E30E94B53E9B01AC01C801B7010C
:1051E0000E94E63C9B01AC0160E070E080E89FE338
:1051F0000E944A3D1F910F91FF90EF90DF90CF905A
:10520000BF90AF9008950E949B2823E333E948E8BC
:1052100053E40E94E53C08950E948E270E946D276A
:1052200081E08093F50208958091F502882311F4BE
:105230000E940C290E94A4270895DF93CF930F9218
:10524000CDB7DEB79091F502992321F489830E94AE
:105250000C298981813011F4AC9A01C0AC980F906F
:10526000CF91DF910895DF93CF930F92CDB7DEB743
:105270009091F502992321F489830E940C29898158
:10528000813011F4AD9A01C0AD980F90CF91DF91AC
:1052900008951F93182F8091F502882311F40E941E
:1052A0000C2980E00E945D29113019F4A89AA09A77
:1052B00002C0A898A0981F9108951F93182F80915D
:1052C000F502882311F40E940C2980E00E944929EC
:1052D000113019F41D9A159A02C01D9815981F9146
:1052E0000895DF93CF930F92CDB7DEB79091F5027B
:1052F000992321F489830E940C298981813011F43A
:10530000AA9A01C0AA980F90CF91DF910895DF93D8
:10531000CF930F92CDB7DEB79091F502992321F488
:1053200089830E940C298981813011F4AB9A01C0D4
:10533000AB980F90CF91DF910895DF93CF930F92A9
:10534000CDB7DEB7482F8091F502882321F4498339
:105350000E940C29498180E061E00E9470270F9033
:10536000CF91DF910895DF93CF930F92CDB7DEB742
:10537000482F8091F502882321F449830E940C294B
:10538000498180E062E00E9470270F90CF91DF9109
:105390000895DF93CF930F92CDB7DEB7482F80915A
:1053A000F502882321F449830E940C29498181E078
:1053B00061E00E9470270F90CF91DF910895DF93F5
:1053C000CF930F92CDB7DEB79091F502992321F4D8
:1053D00089830E940C298981882311F4AE9A03C025
:1053E000813009F4AE980F90CF91DF9108958091AC
:1053F000F502882311F40E940C2981E00E945D29A6
:1054000081E00E94A62708958091F502882311F477
:105410000E940C2981E00E94492981E00E94A62770
:1054200008958091F502882311F40E940C2982E0EE
:105430000E94A62708958091F502882311F40E9406
:105440000C2983E00E94A62708958091F502882305
:1054500011F40E940C2984E00E94A62708958091EF
:10546000F502882311F40E940C2985E00E94A627EA
:1054700008958091F502882311F40E940C2986E09A
:105480000E94A627089589E993E00197F1F700C0EB
:10549000DC98D49A89E993E00197F1F700C0D49899
:1054A000DC9ACC9BFECF80E007C091E39A95F1F7A0
:1054B00000008F5F8F3149F0CC99F7CF89E993E0F5
:1054C0000197F1F700C080E008958FEF08958823D9
:1054D00061F4DC98D49A84EC8A95F1F700C0D498F2
:1054E000DC9A81E38A95F1F70BC0DC98D49A88E1C5
:1054F0008A95F1F700C0D498DC9A8DED8A95F1F782
:1055000000000895DC98D49A82E08A95F1F700C0F3
:10551000D498DC9A96E19A95F1F7000089B394EC5F
:105520009A95F1F700C090E08071907024E0959515
:1055300087952A95E1F70895FF920F931F93CF93D4
:10554000DF93F82EC0E0D0E001E010E098010C2ECF
:1055500002C0220F331F0A94E2F78F2D82230E948C
:10556000672A2196C830D10589F7DF91CF911F9125
:105570000F91FF9008951F93CF93DF93C0E0D0E089
:1055800010E00E94822A282F30E00C2E02C0220F49
:10559000331F0A94E2F7122B2196C830D10589F700
:1055A000812FDF91CF911F9108958FE00E949C2A57
:1055B000089580B58B7F80BDD498DC9A86EF8A955C
:1055C000F1F70895EF92FF920F931F93DF93CF931C
:1055D00000D000D0CDB7DEB77C0119821A821B82C1
:1055E0001C820E94432A882339F0282F332727FD65
:1055F0003095432F532F27C00E94D52A0E94BB2AE3
:10560000813019F08EEFF70180838E010F5F1F4FFD
:105610000E94BB2A89830E94BB2AF80181830E94D1
:10562000BB2AF80182830E94BB2AF80183830E946F
:10563000BB2A0E94BB2A0E94BB2AF7011082298143
:105640003A814B815C81B901CA010F900F900F9094
:105650000F90CF91DF911F910F91FF90EF900895E0
:10566000AA98959887FF02C0939A01C09398959A3B
:10567000959886FF02C0939A01C09398959A959841
:1056800085FF02C0939A01C09398959A959884FFDC
:1056900002C0939A01C09398959A959883FF02C08F
:1056A000939A01C09398959A959882FF02C0939A15
:1056B00001C09398959A959881FF02C0939A01C072
:1056C0009398959A959880FF02C0939A01C09398F9
:1056D000959A959AAA9A0895DF93CF9300D00F9246
:1056E000CDB7DEB7A89A19821FC0A89889818055C6
:1056F0000E94302B80E10E94302B80E00E94302BF2
:10570000A89A1B821A8208C080E00E94302B8A81EE
:105710009B8101969B838A838A819B818038910536
:105720009CF389818F5F898389818830F0F20F90A3
:105730000F900F90CF91DF910895C498BC9A85B3D4
:10574000876085BB84B3876084BB81B3886281BB7B
:10575000939A88E785BB84B3877884BBA898A99877
:105760008FEF9FE3A2E081509040A040E1F700C09E
:105770000000A99A8FEF9FE3A2E081509040A040E3
:10578000E1F700C0000080E40E94302B81EA0E9413
:10579000302B80EC0E94302B86EA0E94302B82EA6C
:1057A0000E94302B8FE20E94302B88EF0E94302B1A
:1057B00080E00E94302B87E20E94302B81E80E941B
:1057C000302B80E10E94302B8CEA0E94302B80E04D
:1057D0000E94302B8FEA0E94302B0E946C2B089580
:1057E000813011F4C49A0895C4980895EF92FF92FD
:1057F0000F931F93DF93CF930F92CDB7DEB7082F90
:10580000162FA898842F805599830E94302B812FC2
:1058100082958F7080610E94302B812F8F700E9443
:10582000302BA89A9981602F792F7B011AC000E054
:1058300010E0D701EC91B5E0EB9FF0011124E00FEF
:10584000F11FE252FB4F84910E94302B0F5F1F4FDC
:105850000530110571F780E00E94302B0894E11C9F
:10586000F11CF7018081882311F70F90CF91DF9110
:105870001F910F91FF90EF900895609190067091A5
:10588000910690E00E946342089580E00E94C51056
:10589000882349F080918E0690918F060E942142C4
:1058A000282F30E002C02FEF3FEFC9010895BF92CB
:1058B000CF92DF92EF92FF920F931F93DF93CF93DC
:1058C00000D000D00F92CDB7DEB7D82EB62E20EA8A
:1058D00036E841E050E029833A834B835C8381E1E1
:1058E0009D830E943D2C8B2D0E943D2C81E1C82E72
:1058F000CB0C9D810D2D192F09C07801F8018191E4
:105900008F010E943D2CF7018081C80E802F8D19D8
:105910008B1598F38C2D0E943D2C0E94452C2981DB
:105920003A814B815C812150304040405040298376
:105930003A834B835C83863051F089819A81AB81B5
:10594000BC810097A105B10541F78FEF01C080E050
:105950000F900F900F900F900F90CF91DF911F91AC
:105960000F91FF90EF90DF90CF90BF900895CF926E
:10597000DF92EF92FF920F931F93DF93CF9300D0AC
:1059800000D0CDB7DEB7F82E092F20EA36E841E087
:1059900050E029833A834B835C8382E10E943D2C53
:1059A00081E00E943D2C83E50E943D2C86E60E940A
:1059B0003D2C0E94452C29813A814B815C812150EC
:1059C00030404040504029833A834B835C8386308B
:1059D00061F029813A814B815C81211531054105B6
:1059E000510539F7EE24E39401C0EE240E94452CC2
:1059F0002FEF8F3F9207D1F38131910559F50E9426
:105A0000452CEFEF8F3F9E07D1F3D82E91E1C92EA1
:105A1000CD0C802F0F2D182F0AC00E94452CFFEFB0
:105A20008F3F9F07D1F3F80181938F01C80E802F1C
:105A30008F198D1590F30E94452CFFEF8F3F9F0724
:105A4000D1F32C2D30E08217930721F4EE2011F4CE
:105A50008D2D01C08FEF0F900F900F900F90CF9171
:105A6000DF911F910F91FF90EF90DF90CF900895FD
:105A7000CF92DF92EF92FF920F931F93DF93CF931A
:105A800000D000D0CDB7DEB78C017B0180E492E47A
:105A9000AFE0B0E089839A83AB83BC8382E10E944C
:105AA0003D2C81E00E943D2C89E40E943D2C8CE538
:105AB0000E943D2C0E94452C29813A814B815C81BA
:105AC000215030404040504029833A834B835C83CF
:105AD000863059F089819A81AB81BC810097A105FC
